:100000000C9420280C94D7F70C94ACF70C9481F73F
:100010000C9456F70C942BF70C9400F70C94D5F62F
:100020000C94AAF60C9451280C9451280C94512845
:100030000C9451280C94F05E0C9451280C94512887
:100040000C9451280C94E0990C9451280C9451284C
:100050000C9451280C9451280D94D80C0C9464F9EC
:100060000C9451280D94E20A0D947C0B0C945128A9
:100070000C9451280C9451280C9451280C9451281C
:100080000C9451280C9451280C9451280C9451280C
:100090000C9451280C9451280C9451280C945128FC
:1000A0000C9451280C9451280C9451280C945128EC
:1000B0000C9451280C9451280C9451280C945128DC
:1000C0000C9451280C9451280C9451280C945128CC
:1000D0000C9451280C9451280C9451280C945128BC
:1000E0000C94512802AC02AC09AC09AC09AC10ACC0
:1000F00010AC10AC1DAC17AC17AC17AC39F43CF419
:100100002BF42FF435F473F440F444F44AF44EF431
:1001100052F458F45CF460F473F466F46AF46EF428
:1001200080F885F88AF894F89EF817F9A8F8B0F8DE
:10013000B8F8C2F8CCF8D6F8E5F8EFF817F9F9F8FE
:1001400003F90DF9DE00DA00D600DC00E400E60079
:10015000D400E600E200E800E600D800084AD73BF9
:100160003BCE016E84BCBFFDC12F3D6C74319ABD86
:1001700056833DDA3D00C77F11BED9E4BB4C3E91AA
:100180006BAAAABE000000803F05A84CCDB2D44E99
:10019000B93836A9020C50B9918688083CA6AAAA9B
:1001A0002ABE000000803F000D94430B0D942C0BE1
:1001B0000D94510B0D941B0B0D94370B0D94150BD7
:1001C0000D94590F0D94470B0D943F0B0D94540B48
:1001D0000D944B0B4E414E494E495459494E46CD14
:1001E000CCCC3D0AD7233C17B7D13877CC2B3295EE
:1001F00095E6241FB14F0A000020410000C84200CC
:10020000401C4620BCBE4CCA1B0E5AAEC59D74474E
:10021000322F47332062616420706172616D6574B2
:100220006572730A00205A3A200020593A20004291
:10023000656420583A2000456E642066696C65202C
:100240006C6973740A00426567696E2066696C6543
:10025000206C6973740A004D3132350053442070AC
:1002600072696E74696E67206279746520004E6FE2
:1002700074205344207072696E74696E670A004678
:10028000696C652064656C657465643A0044656CEE
:100290006574696F6E206661696C65642C204669BF
:1002A0006C653A20006F70656E206661696C6564EC
:1002B0002C2046696C653A20002569730025696D1C
:1002C00020256973002569682025696D20256973DB
:1002D00000256964202569682025696D20256973DA
:1002E0000025697920256964202569682025696DC4
:1002F00020256973005072696E742074696D653AC7
:100300002000000125301D0C1824311C0B17232F51
:100310001B0A1E16040308060202222B1A4142037E
:100320003809FF3628294527444350726F746563A6
:100330007465642050696E0A00457874727564654E
:1003400072202573004C756C7A426F742054415AA8
:1003500020362072656164792E0042656420646FE6
:100360006E652E0020573A0042656420686561740E
:10037000696E672E0042656420636F6F6C696E67FB
:100380002E002F2F20007A5F70726F62653A200076
:100390007A5F6D61783A20007A5F6D696E3A20006D
:1003A000795F6D61783A2000795F6D696E3A20005F
:1003B000785F6D61783A2000785F6D696E3A200051
:1003C0005265706F7274696E6720656E6473746FC6
:1003D00070207374617475730A004D313435205385
:1003E0003C696E6465783E206F7574206F6620727C
:1003F000616E67652028302D31290A0053657474B9
:10040000696E672054726176656C20416363656C28
:1004100065726174696F6E3A200053657474696E19
:1004200067205265747261637420416363656C6513
:10043000726174696F6E3A200053657474696E67F7
:10044000205072696E7420416363656C65726174DB
:10045000696F6E3A200053657474696E672050723C
:10046000696E7420616E642054726176656C2041FF
:100470006363656C65726174696F6E3A2000205A1F
:1004800000205900580020204D61783A2000205A61
:1004900000205900580020204D696E3A20004F6E10
:1004A00020004F666600536F667420656E64737437
:1004B0006F70733A200050726F6265205A204F6649
:1004C000667365743A200020643A0020693A00207F
:1004D000703A0020643A0020693A0020703A0043E4
:1004E000290A0061626C656420286D696E2074655C
:1004F0006D702000436F6C6420657874727564655C
:10050000732061726520004B642000236465666976
:100510006E65202044454641554C545F004B692090
:100520000023646566696E65202044454641554C4C
:10053000545F004B70200023646566696E6520205F
:1005400044454641554C545F005049442041757420
:100550006F74756E652066696E69736865642120C5
:1005600050757420746865206C617374204B702C16
:10057000204B6920616E64204B6420636F6E73743E
:10058000616E74732066726F6D2062656C6F772088
:10059000696E746F20436F6E666967757261746906
:1005A0006F6E2E680A00504944204175746F74754F
:1005B0006E65206661696C6564212074696D656F84
:1005C00075740A00544845524D414C2052554E41D5
:1005D00057415900546865726D616C2052756E61A7
:1005E0007761790048656174696E67206661696C3E
:1005F00065640048656174696E67206661696C6551
:100600006400504944204175746F74756E652066AE
:1006100061696C6564212054656D706572617475E3
:10062000726520746F6F20686967680A00204B64E8
:100630003A2000204B693A2000204B703A20000AF3
:1006400020436C617373696320504944200A002081
:1006500054753A2000204B753A2000206D61783A9D
:100660002000206D696E3A200020643A200020624C
:100670006961733A2000426564204C6576656C6957
:100680006E6720004661696C656420746F20656E3A
:1006900061626C6520426564204C6576656C696EAC
:1006A000670A00426564204C6576656C20436F7272
:1006B00072656374696F6E204D61747269783A0077
:1006C0004F666673657473206170706C6965640051
:1006D0004572723A20546F6F206661722100546F28
:1006E0006F206661722066726F6D2072656665723A
:1006F000656E636520706F696E740A003A20002091
:100700007A5F6D696E3A20202D32207A5F6D6178B4
:100710003A2020350A0050726F6265205A204F66D9
:1007200066736574004E6F2063617365206C696742
:1007300068740A004163746976652045787472753F
:100740006465723A2000556E6B6E6F776E20636F32
:100750006D6D616E643A202200434F4D4D554E49F8
:10076000434154494F4E0044525952554E00455250
:10077000524F525300494E464F004543484F0043A5
:100780006F6F6C696E6720646F6E652E00486561DF
:1007900074696E6720646F6E652E0020573A0045BD
:1007A00078747275646572202573004C756C7A429A
:1007B0006F742054415A20362072656164792E008E
:1007C0007A0775076E07670759076F666600444525
:1007D0004255473A004C756C7A426F742054415A26
:1007E0002036204F66662E00205A3A0020593A00E3
:1007F00020436F756E7420583A0020453A00205A05
:100800003A0020593A00583A003A004361703A00E1
:10081000454D455247454E43595F5041525345520D
:1008200000434153455F4C494748545F4252494752
:1008300048544E45535300544F47474C455F4C492D
:100840004748545300534F4654574152455F504F09
:10085000574552004255494C445F50455243454E1E
:1008600054004C4556454C494E475F444154410065
:100870005A5F50524F4245004155544F4C455645E2
:100880004C005052494E545F4A4F420050524F471D
:1008900052455353004155544F5245504F52545FA7
:1008A00054454D5000564F4C554D45545249430008
:1008B000454550524F4D0053455249414C5F584FAA
:1008C0004E5F584F4646004649524D574152455F8C
:1008D0004E414D453A4D61726C696E202046495239
:1008E0004D574152455F56455253494F4E3A312E6E
:1008F000312E382E322045585452554445525F54BB
:100900005950453A4165726F73747275646572200F
:10091000534F555243455F434F44455F55524C3A00
:1009200068747470733A2F2F636F64652E616C6501
:1009300070686F626A656374732E636F6D2F64698C
:1009400066667573696F6E2F4D41524C494E20504B
:10095000524F544F434F4C5F56455253494F4E3AB6
:10096000312E30204D414348494E455F5459504542
:100970003A4C756C7A426F742054415A20362045A7
:10098000585452554445525F434F554E543A3120C6
:10099000555549443A38343566303033632D6165F6
:1009A00062642D346535332D613662392D376430FC
:1009B0003938346664653630390A004D6F76652003
:1009C00059004D6F7665205A0045787472756465DC
:1009D00072004D6F766520302E316D6D004D6F7653
:1009E0006520316D6D004D6F76652031306D6D0085
:1009F0004D6F76652061786973004578747275640F
:100A00006572004D6F7665205A004D6F76652059EE
:100A1000004D6F7665205800457874727564657274
:100A2000004D6F7665205A004D6F76652059004D58
:100A30006F76652058004D6F76656D656E74004366
:100A40006F6F6C646F776E0046616E2073706565C2
:100A50006420310046616E2073706565642031004A
:100A600042656400426564004E6F7A7A6C65004EA0
:100A70006F7A7A6C65004D61696E005654726176CA
:100A8000206D696E005654726176206D696E005655
:100A900054726176206D696E00566D696E00566DF8
:100AA000696E00566D696E00566D6178204500567E
:100AB0006D6178204500566D6178204500566D6166
:100AC00078205A00566D6178205A00566D61782062
:100AD0005A00566D6178205900566D617820590092
:100AE000566D6178205900566D6178205800566D1A
:100AF0006178205800566D61782058004D6F7469F8
:100B00006F6E00416D6178204500416D6178204530
:100B100000416D6178205A00416D6178205A004192
:100B20006D6178205900416D6178205900416D61F7
:100B300078205800416D6178205800412D74726111
:100B400076656C00412D74726176656C00412D7282
:100B500065747261637400412D72657472616374AF
:100B600000416363656C00416363656C004D6F74A5
:100B7000696F6E0025753A25303275002530327563
:100B80003A253032750025756420253032753A25B6
:100B90003032750000060900FE0000000000010967
:100BA0000008FE000005080806000040F0C888881C
:100BB000987810050808060000C0F888888888889A
:100BC000F80505050600012030F830200508080664
:100BD00000002070F820202020E00509090600FF11
:100BE0002070A8A8B8888870200509090600FFE0D1
:100BF00080C0B0A8283028280509090600FFF8A8F9
:100C00008888888888A8F8050A0A0600FE205050BF
:100C1000505088A8A8887003030306000340A04032
:100C200000060900FE0701920321207FFF07FF074E
:100C3000FF00000006000001070706020080808018
:100C400080800080030202060105A0A005070706B8
:100C500000005050F850F8505005070706000020DB
:100C600078A07028F020050707060000C0C81020F3
:100C70004098180507070600006090A040A89068FB
:100C8000020303060104C040800307070601002099
:100C9000408080804020030707060100804020201C
:100CA00020408005050506000120A870A820050544
:100CB000050600012020F820200203030602FFC0E1
:100CC0004080050101060003F8020202060200C08E
:100CD000C00505050600010810204080050707062D
:100CE0000000708888888888700307070601004024
:100CF000C040404040E005070706000070880870CB
:100D00008080F8050707060000F81020100808F09A
:100D100005070706000010305090F810100507076F
:100D2000060000F880F00808887005070706000034
:100D3000708080F0888870050707060000F80810AA
:100D4000202020200507070600007088887088880A
:100D5000700507070600007088887808087002058B
:100D600005060200C0C000C0C00206060602FFC0A1
:100D7000C000C040800407070600001020408040EB
:100D80002010050303060002F800F8040707060117
:100D90000080402010204080050707060000708872
:100DA000081020002005070706000070880868A8C2
:100DB000A870050707060000708888F888888805ED
:100DC0000707060000F08888F08888F00507070606
:100DD000000070888080808870050707060000F09A
:100DE0008888888888F0050707060000F88080F06A
:100DF0008080F8050707060000F88080F08080807A
:100E0000050707060000708880B888887005070706
:100E1000060000888888F88888880107070602008D
:100E200080808080808080050707060000381010D1
:100E3000101090600507070600008890A0C0A090E1
:100E400088050707060000808080808080F80507FD
:100E50000706000088D8A888888888050707060044
:100E6000008888C8A8988888050707060000708849
:100E70008888888870050707060000F08888F08059
:100E8000808005070706000070888888A89068059C
:100E90000707060000F08888F0A09088050707067D
:100EA0000000788080700808F0050707060000F849
:100EB0002020202020200507070600008888888839
:100EC0008888700507070600008888888888502071
:100ED0000507070600008888888888A85005070746
:100EE0000600008888502050888805070706000003
:100EF00088888850202020050707060000F8081081
:100F0000204080F8030707060100E0808080808091
:100F1000E0050505060001804020100803070706CC
:100F20000100E02020202020E0050303060004202B
:100F30005088050101060000F80202020602058041
:100F40004005050506000070087888780507070643
:100F500000008080B0C88888F00505050600007094
:100F60008080887005070706000008086898888850
:100F7000780505050600007088F8807005070706EB
:100F800000003048E0404040400506060600FF7083
:100F900088887808700507070600008080B0C88838
:100FA0008888010707060200800080808080800317
:100FB00008080601FF200020202020A04004070789
:100FC000060000808090A0C0A090030707060100E3
:100FD000C04040404040E0050505060000D0A8A8FC
:100FE000A8A8050505060000B0C88888880505057D
:100FF00006000070888888700506060600FFF088E5
:1010000088F080800506060600FF78888878080842
:10101000050505060000B0C88080800505050600AE
:101020000070807008F00407070600004040E040B0
:101030004040300505050600008888889868050549
:1010400005060000888888502005050506000088F0
:1010500088A8A8500505050600008850205088057E
:1010600006060600FF8888887808700505050600D2
:1010700000F8102040F803070706010020404080D8
:101080004040200107070602008080808080808029
:10109000030707060100804040204040800502020F
:1010A00006000268900000000600005A005900582F
:1010B0000009200000000000000000000000000007
:1010C0007FFFE00000000000000000000000007052
:1010D00000E000000000000000000000000061F8D7
:1010E0006000000000000000000000000041F82047
:1010F00000000000000000000000000040F02000A0
:10110000000000000000000000000040602000001F
:10111000000000000000000000005801A07F8000D7
:101120000000000000004104005C63A0FFC000005C
:1011300000000000002082005EF7A0FFC000000059
:10114000000000002082005EF7A0FFC00000000049
:101150000000004104005C63A07F800000000000EC
:1011600000008208005801A07F80000000000000FD
:1011700001041000406020FFC000000000000001DA
:1011800004100040F020FFC00000000000000082BA
:10119000080041F820FFC0000000000000004104EA
:1011A0000061F8603F000000000000000000000047
:1011B0007000E01E0000000000000001FFFF807FC3
:1011C000FFE00C0000000000000001FFFF800000B5
:1011D000000000000000000000000000007FFFE0B1
:1011E0000000000000000000000000007000E000AF
:1011F0000000000000000000000000630C60000020
:1012000000000000000000000000470E2000000069
:101210000000000000000000004F0F200000000050
:1012200000000000000000005F0FA00000000000B0
:10123000000000000000005E07A07F8000000000AA
:10124000000000410400406020FFC00000000000DA
:10125000000020820040F020FFC0000000000000DD
:101260000020820040F020FFC000000000000000CD
:101270004104004060207F800000000000000082E8
:1012800008005E07A07F800000000000000104103D
:10129000005F0FA0FFC0000000000000010410006C
:1012A0004F0F20FFC0000000000000008208004730
:1012B0000E20FFC000000000000000410400630C8D
:1012C000603F00000000000000000000007000E02F
:1012D0001E0000000000000001FFFF807FFFE00C07
:1012E0000000000000000001FFFF8000000002017C
:1012F000050800FF060121023520FFFF07FF06FF5A
:10130000090050221656808080800080153353A03B
:10131000A0A00257575050F850F85050025757208D
:1013200070A07028702013355580A040A02002477F
:101330005740A0A040A0A0502513538080801226C3
:101340005640808080804012265680404040408039
:101350000245559060F060900255552020F82020FD
:10136000113353604080044151F011335340E04049
:1013700002465610102040808012365640A0A0A091
:10138000A04012365640C0404040E00246566090B1
:10139000106080F0024656F02060109060024656C1
:1013A0002060A0F02020024656F080E010906002FD
:1013B00046566080E0909060024656F01020204033
:1013C0004002465660906090906002465660909051
:1013D000701060122555C0C000C0C0113656606044
:1013E00000604080123656204080804020034353E6
:1013F000F000F012365680402020408012365640D1
:10140000A020400040015858304898A8A89040308B
:10141000024656609090F09090024656E090E09020
:1014200090E0024656609080809060024656E090C0
:10143000909090E0024656F080E08080F0024656A0
:10144000F080E0808080024656609080B09060021C
:1014500046569090F0909090123656E040404040B2
:10146000E002465670202020A04002465690A0C0C0
:10147000A0A0900246568080808080F00246569060
:10148000F0F090909002465690D0F0B0B0900246A6
:1014900056609090909060024656E09090E0808078
:1014A000014757609090D0B06010024656E090908F
:1014B000E09090024656609040209060123656E0D0
:1014C00040404040400246569090909090600246C6
:1014D00056909090906060024656909090F0F090F8
:1014E0000246569090606090900256568888502030
:1014F0002020024656F010204080F0123656E08040
:10150000808080E0024656808040201010123656BF
:10151000E020202020E016325240A0014151F01678
:10152000225280400244547090907002465680804F
:10153000E09090E0123454608080600246561010B3
:101540007090907002445460B0C0600246562050C3
:1015500040E0404001455560907010600246568062
:1015600080E09090901236564000C04040E0113725
:10157000572000202020A040024656808090E09016
:1015800090123656C040404040E0025454D0A8A8C3
:10159000A8024454E09090900244546090906001FE
:1015A0004555E090E0808001455570907010100224
:1015B0004454A0D0808012345460C020C0024656EB
:1015C0004040E040502002445490909070123454B7
:1015D000A0A0A04002545488A8A85002445490608F
:1015E00060900145559090709060024454F0204006
:1015F000F0024757304020C02040302216568080ED
:1016000080808080024757C02040304020C0064282
:101610005250A0FFFFFFFFFFFFFFFFFFFFFFFFFF95
:10162000FFFFFFFFFFFFFFFFFFFFFFFFFFFFFFFFCA
:10163000FFFFFFFF09005022165680008080808047
:101640000146562070A0A070200246562050E0406F
:1016500050A002555588705070880256568850F830
:1016600020F8202217578080800080808002475712
:101670007080E0907010E0173151A002565670A8AB
:10168000C8C8A87014355560A06000E003435350EB
:10169000A050123353E02020143151E0025656700E
:1016A000E8D8E8D870173151E015335340A0401204
:1016B000355540E04000E014355540A02040E0148E
:1016C0003555C020C020C01622524080014555909B
:1016D0009090E08002565678E8E868282824115156
:1016E00080112252408014355540C04040E01435EE
:1016F0005540A04000E0034353A050A0024757804C
:101700008080A060F0200247578080A0D010207019
:1017100002475780408060A0F020123656400040BB
:1017200080A04002475740206090F09090024757B9
:1017300020406090F0909002475760906090F09049
:101740009002475750A06090F09090024757900049
:101750006090F0909002475760906090F0909002F7
:10176000465670A0A0F0A0B00147576090808090CE
:1017700060400247574020F080E080F00247572049
:1017800040F080E080F00247576090F080E080F009
:101790000247579000F080E080F01237578040E019
:1017A000404040E01237572040E0404040E01237D0
:1017B0005740A0E0404040E0123757A000E04040D2
:1017C00040E00256567048E848487002475750A01B
:1017D00090D0B09090024757402060909090600267
:1017E000475720406090909060024757609060900B
:1017F00090906002475750A06090909060024757C9
:1018000090006090909060123353A040A002465622
:1018100070B0B0D0D0E002475740209090909060D8
:1018200002475720409090909060024757609090F8
:10183000909090600247579000909090906002576F
:10184000571020885020202002465680E09090E0DB
:10185000800246566090A0A090A00247574020000A
:10186000709090700247572040007090907002472F
:10187000572050007090907002475750A000709011
:1018800090700246565000709090700247576090DA
:101890006070909070025454F068B07811355560C3
:1018A0008080604002475740200060B0C06002471F
:1018B0005720400060B0C06002475760900060B0A1
:1018C000C060024656500060B0C06012375780407A
:1018D00000C04040E0123757204000C04040E012B6
:1018E000375740A000C04040E0123656A000C0402C
:1018F00040E0024757A040A0107090600247575048
:10190000A000E090909002475740200060909060C7
:101910000247572040006090906002475760900057
:101920006090906002475750A0006090906002461F
:10193000569000609090601235554000E0004002E3
:10194000445470B0D0E0024757402000909090700F
:1019500002475720400090909070024757609000D7
:101960009090907002465690009090907001485868
:1019700020400090907090600147578080E090E098
:10198000808001475790009090709060010507009B
:10199000FE0500FB01F220FFFE05FE05FE020040F1
:1019A0000215258080800080053242A0A002556586
:1019B00050F850F8500146562070C030E0200255D3
:1019C0006590102040480255656080689068051257
:1019D000228080022535408080804002253580406D
:1019E000404080043343A040A003334340E0400123
:1019F00022324080043141E0021121800255650805
:101A0000102040800245556090909060022535C0BE
:101A100040404040024555E0106080F0024555E0EE
:101A2000106010E00245552060A0F020024555F0FE
:101A300080E010E00245556080E09060024555F07E
:101A4000102040400245556090609060024555600E
:101A500090701060031323800080021424800080A3
:101A6000800235452040804020033343E000E002FF
:101A700035458040204080024555E010600040021E
:101A800055657088B8A870024555609090F0900236
:101A90004555E090E090E00235456080808060022E
:101AA0004555E0909090E0023545E080E080E0020E
:101AB0003545E080E080800245557080B09070022E
:101AC00045559090F09090023545E0404040E0024E
:101AD0004555301010906002455590A0C0A090026E
:101AE000354580808080E002556588D8A8888802C6
:101AF000455590D0B090900245556090909060020E
:101B00004555E09090E080014656609090906010BE
:101B1000024555E09090E09002455570806010E0DD
:101B2000023545E04040404002455590909090601D
:101B30000245559090A0A04002556588A8A8A850DD
:101B400002455590906090900245559090701060BD
:101B5000023545E0204080E0022535C0808080C00D
:101B60000255658040201008022535C0404040C025
:101B700005324240A0024151F00522328040024429
:101B8000547090907002455580E09090E00234448B
:101B900060808060024555107090907002445460DF
:101BA000B0C0600235452040E0404000465670908D
:101BB0009070106002455580E0909090021525804D
:101BC0000080808000273740004040404080024530
:101BD000558090A0E090021525808080808002547E
:101BE00064F0A8A8A8024454E09090900244546085
:101BF000909060004656E09090E0808000465670DD
:101C00009090701010023444A0C080800244547040
:101C1000C030E002354540E04040200244549090FE
:101C200090700244549090A040025464A8A8505070
:101C3000023444A04040A00046569090907010603E
:101C4000024454F02040F00235456040804060027C
:101C500015258080808080023545C0402040C00529
:101C6000425250A0FFFFFFFFFFFFFFFFFFFFFFFFFC
:101C7000FFFFFFFFFFFFFFFFFFFFFFFFFFFFFFFF74
:101C8000FFFFFFFFFF020040FFFFFFFFFFFFFFFF1F
:101C9000FFFFFFFFFFFFFFFFFFFFFFFFFFFFFFFF54
:101CA000FFFFFFFFFFFFFFFFFFFFFFFFFFFFFFFF44
:101CB000FFFFFFFFFFFFFFFFFFFFFFFFFFFFFFFF34
:101CC000FFFFFFFFFFFFFFFFFFFFFFFFFFFFFFFF24
:101CD000FFFFFFFFFFFFFFFFFFFFFFFFFFFFFFFF14
:101CE000FFFFFFFFFFFFFF01060D00FE0901660277
:101CF000D620FFFE0BFE0AFE0D00602219698080CF
:101D000080808080800080183363A0A0A003576784
:101D10005050F850F850500259692078A0A070280F
:101D200028F02002596948A85010204050A890027D
:101D3000586840A0A040A0989068281363808080D5
:101D4000113B6B2040408080808080404020113BD0
:101D50006B80404020202020204040800655652098
:101D6000A870A8200455652020F820201133636056
:101D70004080065161F811336340E0400259690820
:101D800008101020404080800259692050888888BF
:101D9000888850200259692060A02020202020F847
:101DA0000259697088880810204080F8025969F843
:101DB00008102070080888700259691010305050BF
:101DC00090F81010025969F88080B0C8080888702F
:101DD00002596970888080F088888870025969F893
:101DE000081010202040404002596970888888708F
:101DF000888888700259697088888878080888708F
:101E000011386840E040000040E04011386840E090
:101E10004000006040800259690810204080402046
:101E20001008045464F80000F8025969804020103A
:101E3000081020408002596970888808102020000E
:101E40002002596970888898A8A8B08078025969DA
:101E50002050888888F8888888025969F04848485E
:101E600070484848F0025969708880808080808876
:101E700070025969F048484848484848F002596992
:101E8000F8808080F0808080F8025969F880808036
:101E9000F08080808002596970888080809888886E
:101EA0007002596988888888F88888888812396912
:101EB000E040404040404040E00259693810101076
:101EC0001010109060025969888890A0C0A0908876
:101ED000880259698080808080808080F8025969FA
:101EE0008888D8A8A88888888802596988C8C8A816
:101EF000A89898888802596970888888888888880E
:101F000070025969F0888888F080808080015A6A60
:101F100070888888888888A87008025969F088883D
:101F200088F0A090888802596970888080700808BD
:101F30008870025969F82020202020202020025992
:101F4000698888888888888888700259698888881C
:101F500088505050202002596988888888A8A8A8ED
:101F6000A8500259698888505020505088880259DA
:101F700069888850502020202020025969F80810D4
:101F80001020404080F8113B6BE080808080808092
:101F9000808080E00259698080404020101008084D
:101FA000113B6BE0202020202020202020E008533F
:101FB00063205088015161F82A22628040025666EF
:101FC000700878889868025969808080F0888888CD
:101FD00088F0025666708880808870025969080807
:101FE000087888888888780256667088F8808870B3
:101FF00002596930484040F0404040400058687005
:1020000088888878088870025969808080B0C8887C
:102010008888881238684000C040404040E0004A4C
:102020006A10003010101010909060025969808082
:102030008090A0C0A09088123969C04040404040C4
:102040004040E0025666D0A8A8A8A888025666B00C
:10205000C888888888025666708888888870005882
:1020600068F0888888F08080800058687888888840
:1020700078080808025666B0C880808080025666DC
:102080007088601088700258684040F040404048B6
:1020900030025666888888889868025666888888DC
:1020A0005050200256668888A8A8A8500256668814
:1020B0005020205088005868888888986808887060
:1020C000025666F810204080F8015B6B1820202033
:1020D00020C02020202018221969808080808080E4
:1020E000808080015B6BC0202020201820202020D1
:1020F000C008536348A890FFFFFFFFFFFFFFFFFFEB
:10210000FFFFFFFFFFFFFFFFFFFFFFFFFFFFFFFFDF
:10211000FFFFFFFFFFFFFFFF0D0060221969800036
:10212000808080808080800358682070A8A0A0A84C
:10213000702002596930484040E0404048B00356A2
:102140006688705050708802596988885050F8200D
:10215000F820202219698080808000808080801291
:102160004A6A609080609090601090601A3262A01D
:10217000A00359697088A8D8C8D8A8887004576780
:10218000700878887800F80356662850A0A0502878
:10219000045363F80808163161E00359697088E850
:1021A000D8D8E8D888700A5161F8174464609090D4
:1021B000600357672020F8202000F807356540A00D
:1021C0002040E007356540A04020C02A22624080C0
:1021D0000058688888888898E8808002596978E87B
:1021E000E8E8E868282828262161C020226240808B
:1021F00007356540C04040E00457677088888870A4
:1022000000F8035666A050282850A0025A6A40C021
:102210004040E00818283808025A6A40C04040E0B0
:102220001028081038025A6A40A04020A0481828F8
:102230003808025969200020204080888870025A9E
:102240006A40200020508888F88888025A6A102046
:102250000020508888F88888025A6A304800205048
:102260008888F88888025A6A28500020508888F8A0
:102270008888025A6A50500020508888F88888025E
:102280005A6A20502020508888F888880259695856
:10229000A0A0A0B0E0A0A0B8005B6B708880808098
:1022A000808088702040025A6A402000F88080F0C8
:1022B0008080F8025A6A102000F88080F08080F850
:1022C000025A6A304800F88080F08080F8025A6A2A
:1022D000505000F88080F08080F8123A6A80400008
:1022E000E04040404040E0123A6A204000E0404078
:1022F000404040E0124A6A609000E0404040404068
:10230000E0123A6AA0A000E04040404040E002599C
:1023100069F0484848E8484848F0025A6A2850009E
:102320008888C8A8988888025A6A402000708888DF
:1023300088888870025A6A10200070888888888887
:1023400070025A6A30480070888888888870025AFB
:102350006A28500070888888888870025A6A5050AD
:102360000070888888888870035565885020508858
:10237000015B6B08709898A8A8A8C8C87080025A1A
:102380006A40200088888888888870025A6A1020ED
:102390000088888888888870025A6A30480088884F
:1023A0008888888870025A6A50500088888888888F
:1023B0008870025A6A10200088885020202020024D
:1023C000596980F0888888F080808002596960901F
:1023D00090A0A0908888B0025969402000700878C9
:1023E00088986802596910200070087888986802F7
:1023F00059693048007008788898680259692850EF
:102400000070087888986802596950500070087800
:10241000889868025A6A304830007008788898684E
:10242000025666702870A0A8500058687088808096
:10243000887020400259694020007088F8808870B8
:102440000259691020007088F8808870025969303C
:1024500048007088F8808870025969505000708870
:10246000F8808870123969804000C040404040E0E8
:10247000123969204000C040404040E01249696084
:102480009000C040404040E0123969A0A000C04028
:10249000404040E0025A6A50206010708888888866
:1024A00070025969285000B0C88888888802596924
:1024B0004020007088888888700259691020007058
:1024C00088888888700259693048007088888888B0
:1024D000700259692850007088888888700259698C
:1024E000505000708888888870035767202000F853
:1024F000002020015868087098A8A8C87080025968
:1025000069402000888888889868025969102000EE
:10251000888888889868025969304800888888883F
:102520009868025969505000888888889868005BCC
:102530006B1020008888889868088870005A6A8024
:1025400080B0C88888C8B08080005B6B505000881D
:10255000888898680888700000000000000000006B
:10256000000000000000000000000000000000006B
:10257000000000000000000000000C00000000004F
:1025800000000C000000000000001200000000002D
:1025900000002300000000000000210000000000F7
:1025A00000004C800000000000005E800000000081
:1025B00000009240000000000000A1400000000068
:1025C000000121200000000000027F9000000000B8
:1025D00000020010000000000007FFF800000000EB
:1025E00000040008000000000008000400000000D3
:1025F00000080006000000000010000200000000BB
:1026000000301E010000000000207F81000000005B
:102610000041FFE0800000000043FCF0800000006B
:1026200000873B7840000000018EDBFC600000006A
:10263000010FEBCC20000000021FEDB610000000DF
:10264000021FDEB6100000000439CD7F0800000034
:102650000436E0FF08000000087EC0BB84000000D4
:10266000187F005D86000000107FC0ED8200000032
:10267000203CC07301000000203B337F01000000BC
:10268000701BE77E03800000C81DEEDE04C0000062
:10269000880FDEDC04400001240FDF3C092000012C
:1026A0002607DBF8192000027203E7F013900002FE
:1026B0005101FFE02290000489007F802448000936
:1026C00004801E004824000BFE400000DFF40010D0
:1026D000004000008002001FFFFFFFFFFFFE000020
:1026E00000000000000000000000000000000000EA
:1026F000000000000000001022103C3C0E1F0010E3
:1027000022100422110400102210082211040010CB
:102710002210083C11040010221010221104001095
:10272000221020221104001E1C1E3C3C0E0400003E
:102730000000000000000000000000000000000099
:102740000000000000000000000000000000000089
:102750000000000000000000000000000000000079
:102760000000000000000000000000000000000069
:102770000000000000000000000000000000000059
:102780000000000000000000000000000000000049
:10279000000000000053442063617264206F6B0AE4
:1027A000006F70656E526F6F74206661696C65644E
:1027B0000A00766F6C756D652E696E6974206661AE
:1027C000696C65640A00534420696E69742066610F
:1027D000696C0A006175746F25692E67004D32348B
:1027E000004D32332025730057726974696E67207B
:1027F000746F2066696C653A20006F70656E2066A4
:1028000061696C65642C2046696C653A20006F70C4
:10281000656E206661696C65642C2046696C653A5A
:10282000200046696C652073656C65637465640A95
:10283000002053697A653A200046696C65206F7004
:10284000656E65643A20006F70656E206661696C24
:1028500065642C2046696C653A20002066696C65C9
:102860003A2000646F696E67006672657368004E97
:102870006F772000454E4420535542524F555449DE
:102880004E450A002220706F73002220706172652D
:102890006E743A2200535542524F5554494E4520CA
:1028A00043414C4C207461726765743A22004B4975
:1028B0004C4C45442E2000747279696E6720746F09
:1028C0002063616C6C207375622D67636F64652093
:1028D00066696C6573207769746820746F6F206D0A
:1028E000616E79206C6576656C732E204D415820A1
:1028F0006C6576656C2069733A004572726F723A46
:10290000001FFFFFFFFFFFFF600000000001FF400E
:102910000000000000FF8000000000007F83CF0067
:10292000000C303F87FF80000C301F867980000C40
:10293000000F8C30C7838C30E78C30CFC7CC31F39D
:102940008C30DCECEC33B98C30D86C6C33198C30B7
:10295000D06C0C33198C30D86C0C33198C30DC6C87
:102960000E3B198C30CF7C079F198C30C77C038FAE
:102970001940000000000002600000000000061F77
:10298000FFFFFFFFFFF82020506C616E6E65724202
:10299000756666657242797465733A2000204672E6
:1029A0006565204D656D6F72793A2000436F6D70DB
:1029B000696C65643A204A616E20333020323031D0
:1029C000380A00207C20417574686F723A202841D3
:1029D0006C657068204F626A6563747320496E632A
:1029E0002E2C204C756C7A426F74204769742052EB
:1029F00065706F7369746F7279290A004A616E207D
:102A00003330203230313831353A31383A323500CE
:102A1000204C61737420557064617465643A2000C1
:102A2000312E312E380A004D61726C696E002053D0
:102A30006F6674776172652052657365740A002051
:102A40005761746368646F672052657365740A0028
:102A50002042726F776E206F7574205265736574B3
:102A60000A002045787465726E616C20526573654A
:102A7000740A00506F77657255700A007374617242
:102A8000740A006572726F722077726974696E677A
:102A900020746F2066696C650A00456E6473746FFC
:102AA0007073202563202563202563202563002083
:102AB000503A00205A3A0020593A0020583A00650E
:102AC0006E6473746F7073206869743A2000446F89
:102AD0006E6520736176696E672066696C652E0A83
:102AE000004D32390045787472756465206D6F72DF
:102AF0006500526573756D65207072696E74005261
:102B00004553554D45204F5054494F4E533A0020A0
:102B1000204E6F7A7A6C653A20006368616E676553
:102B2000006F66207468652066696C616D656E74FF
:102B3000005761697420666F72207374617274004B
:102B40005052494E54205041555345440020204E88
:102B50006F7A7A6C653A2000200066696C616D6559
:102B60006E7420756E6C6F616400576169742066C5
:102B70006F72005052494E54205041555345440005
:102B800020204E6F7A7A6C653A20002000506C65E8
:102B900061736520776169742E2E2E00486561741B
:102BA000696E67206E6F7A7A6C65005052494E5498
:102BB000205041555345440020204E6F7A7A6C6571
:102BC0003A2000200068656174206E6F7A7A6C6527
:102BD0002E00507265737320627574746F6E20746A
:102BE0006F005052494E54205041555345440020E7
:102BF000204E6F7A7A6C653A2000746F20636F6E96
:102C000074696E75652E2E2E00616E64207072657B
:102C1000737320627574746F6E00496E736572749D
:102C20002066696C616D656E74005052494E542087
:102C30005041555345440020204E6F7A7A6C653AD6
:102C40002000200066696C616D656E74206C6F6198
:102C500064005761697420666F72005052494E5487
:102C6000205041555345440020204E6F7A7A6C65C0
:102C70003A2000200066696C616D656E742065788D
:102C80007472756465005761697420666F720050D4
:102C900052494E542050415553454400746F2072A0
:102CA0006573756D65005761697420666F72207079
:102CB00072696E74005052494E542050415553452C
:102CC0004400436172642072656D6F7665640043F1
:102CD00061726420696E7365727465640000060930
:102CE00000FE06018902FE20FFFE07FE06FE000030
:102CF0000006000701060606020080808080008032
:102D0000030303060103A0A0A00507070600FF5068
:102D100050F850F850500509090600FE2070A8A090
:102D20007028A870200608080600FF40A848102058
:102D30004854080507070600FF6090906098906867
:102D40000103030602038080800207070602FF409A
:102D50008080808080400207070602FF804040405C
:102D60004040800505050600008850F8508805059C
:102D7000050600002020F820200204040602FEC000
:102D8000404080050101060002F80202020602002E
:102D9000C0C0040606060100101020408080040612
:102DA0000606010060909090906003060606010000
:102DB00040C0404040E0040606060100609010203C
:102DC00040F0040606060100F020601010E0050641
:102DD0000606000010305090F810040606060100A8
:102DE000F080E01010E00406060601006080E0902C
:102DF0009060040606060100F01010204040040612
:102E000006060100609060909060040606060100CE
:102E1000609090701060020505060200C0C000C0FE
:102E2000C00207070602FEC0C000C0404080050582
:102E3000050600001860806018050303060001F80D
:102E400000F8050505060000C0300830C00407077B
:102E50000601006090106040004005060606000074
:102E60007090A8B08070050606060000205088F813
:102E70008888050606060000F088F08888F00406B9
:102E8000060601006090808090600406060601003E
:102E9000E090909090E0040606060100F080E0804B
:102EA00080F0040606060100F080E08080800406C1
:102EB00006060100609080B09060040606060100DE
:102EC0009090F0909090030606060100E04040408C
:102ED00040E0050606060000381010109060040659
:102EE0000606010090A0C0A090900406060601000E
:102EF0008080808080F005060606000088D8A8A89B
:102F0000888804060606010090D0B09090900506CF
:102F1000060600007088888888700406060601008E
:102F2000E09090E080800407070601FF609090D059
:102F3000B06010040606060100E09090E090900456
:102F40000606060100609040209060050606060017
:102F500000F8202020202004060606010090909012
:102F6000909060040606060100909090F060600565
:102F700006060600008888A8A8D888050606060068
:102F800000885020205088050606060000888850DA
:102F9000202020040606060100F010204080F003E7
:102FA0000606060100E080808080E0040606060137
:102FB00000808040201010030606060100E020205B
:102FC0002020E005030306000320508805010106C8
:102FD00000FEF80202020602048040040404060116
:102FE00000709090700406060601008080E09090CA
:102FF000E0040404060100708080700406060601E7
:103000000010107090907004040406010060B0C0BD
:1030100070040606060100205040E0404004060609
:103020000601FE60909070106004060606010080A4
:1030300080E09090900306060601004000C04040EA
:10304000E00308080601FE200060202020A04004C4
:1030500006060601008080A0C0A0900306060601B7
:1030600000C040404040E0050404060000D0A8A88D
:1030700088040404060100E0909090040404060112
:1030800000609090600406060601FEE09090E080EB
:10309000800406060601FE7090907010100404046F
:1030A000060100A0D0808004040406010070C03036
:1030B000E00406060601004040E0405020040404FD
:1030C0000601009090907004040406010090906046
:1030D0006005040406000088A8A850040404060142
:1030E00000906060900406060601FE90909070903B
:1030F00060040404060100F02040F0030707060105
:1031000000204040804040200107070602FF8080E9
:1031100080808080800307070601008040402040B7
:10312000408004020206010350A0FFFFFFFFFFFFE3
:10313000FFFFFFFFFFFFFFFFFFFFFFFFFFFFFFFF9F
:10314000FFFFFFFFFFFFFFFFFFFFFF000000060084
:1031500007010606060200800080808080040606C3
:103160000601FF2070A0A070200507070600FF30B1
:103170004840F04040F8050505060000A85088507A
:10318000A80506060600008850F820F82001070769
:103190000602FF808080008080800407070601FF10
:1031A000708060906010E0030101060105A0060731
:1031B00007060000788494A494847803050506012A
:1031C0000160A06000E00505050600002850A05041
:1031D00028040303060100F0101004010106010297
:1031E000F00607070600007884B4A4A484780401DC
:1031F00001060105F0040303060102609060050763
:10320000070600FF2020F8202000F803050506012E
:103210000140A02040E0030505060101C020402038
:10322000C002020206020440800405050601FF9068
:1032300090B0D08005060606000078E8E8682828E7
:10324000010101060202800202020602FE40800322
:10325000050506010140C04040E0030505060101E7
:1032600040A04000E0050505060000A0502850A041
:103270000508080600FF40C040507030781005086F
:10328000080600FF40C040506808103805080806CE
:1032900000FFC0204030F03078100407070601001E
:1032A0002000206080906005070706000040202075
:1032B000507088880507070600001020205070888D
:1032C00088050707060000205020507088880507F1
:1032D0000706000028502050708888050707060060
:1032E0000050002050708888050707060000205015
:1032F000205070888805060606000078A0F0A0A07F
:10330000B80408080601FE609080809060204004A8
:1033100007070601004020F080E080F00407070660
:1033200001002040F080E080F00407070601002043
:1033300050F080E080F00407070601005000F080A4
:10334000E080F00307070601008040E0404040E0D5
:103350000307070601002040E0404040E003070764
:1033600006010040A0E0404040E0030707060100DE
:10337000A000E0404040E00506060600007048E876
:1033800048487004070706010050A090D0B0909004
:103390000407070601004020609090906004070732
:1033A000060100204060909090600407070601002D
:1033B0002050609090906004070706010050A060C4
:1033C0009090906004070706010050006090909074
:1033D000600505050600008850205088040808068E
:1033E00001FF1070B0B0D0D0E080040707060100E4
:1033F00040209090909060040707060100204090C4
:1034000090909060040707060100205090909090E3
:103410006004070706010050009090909060050737
:103420000706000010208850202020040606060110
:103430000080E09090E0800406060601006090A005
:10344000A090A00407070601004020007090907033
:1034500004070706010020400070909070040707E1
:1034600006010020500070909070040707060100CC
:1034700050A0007090907004060606010050007085
:103480009090700407070601002050207090907003
:1034900005040406000070A8B0780406060601FEC4
:1034A0007080807020400407070601004020006003
:1034B000B0C07004070706010020400060B0C07073
:1034C00004070706010020500060B0C07004060623
:1034D000060100500060B0C07003070706010080BD
:1034E0004000C04040E0030707060100204000C044
:1034F0004040E003070706010040A000C04040E054
:10350000030606060100A000C04040E004070706CD
:1035100001003060107090906004070706010050B1
:10352000A000E09090900407070601004020006092
:1035300090906004070706010020400060909060B2
:103540000407070601002050006090906004070700
:1035500006010050A000609090600406060601007D
:103560005000609090600505050600002000F800FE
:103570002004040406010070B0D0E004070706012F
:103580000040200090909070040707060100204042
:103590000090909070040707060100205000909062
:1035A0009070040606060100500090909070040987
:1035B000090601FE20400090909070906004080879
:1035C0000601FE8080E09090E080800408080601FB
:1035D000FE50009090907090604C696E65204E7522
:1035E0006D626572206973206E6F74204C61737414
:1035F000204C696E65204E756D6265722B312C20F2
:103600004C617374204C696E653A200053544F50DE
:103610005045442E20005072696E74657220737498
:103620006F707065642064756520746F20657272B8
:103630006F72732E204669782074686520657272F7
:103640006F7220616E6420757365204D39393920A1
:10365000746F20726573746172742E202854656DC6
:103660007065726174757265206973207265736527
:10367000742E20536574206974206166746572200D
:1036800072657374617274696E67290A004E6F20E7
:10369000436865636B73756D2077697468206C6926
:1036A0006E65206E756D6265722C204C617374209E
:1036B0004C696E653A2000636865636B73756D20B5
:1036C0006D69736D617463682C204C617374204C58
:1036D000696E653A20004D313130004D3331005371
:1036E000442072656164206572726F720A00446FD3
:1036F0006E65207072696E74696E672066696C65AC
:103700000A0020746F6F206C6F6E6720657874728A
:103710007573696F6E2070726576656E7465640A84
:103720000020636F6C6420657874727573696F6EC6
:103730002070726576656E7465640A0043616E6E12
:103740006F74206F70656E207375626469722000FB
:103750006563686F3A00544845524D414C205255BC
:103760004E415741592042454400546865726D618D
:103770006C2052756E6177617900544845524D4115
:103780004C2052554E41574159204531005448452F
:10379000524D414C2052554E415741592045300021
:1037A00000002200250028002B002E0031003400EC
:1037B00002010000050108010B01000021002400A6
:1037C00027002A002D003000330001010000040111
:1037D00007010A0105050505070508080808020292
:1037E00002020A0A0808040404040101010101019B
:1037F00001010303030303030303040707070C0C7E
:103800000C0C0C0C0C0C0202020206060606060644
:1038100006060B0B0B0B0B0B0B0B010210202008E9
:10382000081020401020408002010201080402011B
:10383000010204081020408080402010080402018A
:1038400080040201804020100804020108040201E3
:10385000010204081020408001020408102040806A
:1038600024F4D43050C38E20C2A24017828B701132
:10387000127A910D816CD90AA861E108C7586607D0
:10388000615143061E4B5D05C145A7041A41110451
:10389000093D9803713931034036DB0265339102EB
:1038A000D4305402802E1D02632CEE01752AC5010E
:1038B000B028A001102781018F2564012B244B0122
:1038C000E0223401AC211F018D200D01801FFC007E
:1038D000841EED00971DDF00B81CD200E61BC60059
:1038E000201BBC00641AB200B219A8000A19A0007B
:1038F0006A189900D117910040178B00B516840003
:1039000031167E00B31579003A157300C7146F00A5
:1039100058146A00EE1366008813630025135E00D6
:10392000C7125B006C12570015125400C1115100F0
:1039300070114F0021114B00D61049008D10470027
:103940004610440002104200C00F4000800F3E00AD
:10395000420F3C00060F3B00CB0E3800930E3700A1
:103960005C0E3500270E3400F30D3200C10D31001E
:10397000900D3000600D2E00320D2D00050D2C0035
:10398000D90C2B00AE0C2900850C29005C0C2700FB
:10399000350C27000E0C2600E80B2400C40B240075
:1039A000A00B23007D0B23005A0B2100390B2100B3
:1039B000180B2000F80A1F00D90A1E00BB0A1E00BF
:1039C0009D0A1D00800A1D00630A1C00470A1B0097
:1039D0002C0A1B00110A1A00F7091A00DD09190048
:1039E000C4091900AB091900920917007B091800D6
:1039F000630917004C091600360916002009160045
:103A00000A091500F5081500E0081400CC08140098
:103A1000B8081400A4081400900813007D081200D0
:103A20006B081300580812004608120034081100F1
:103A3000230811001208110001081100F0071000FE
:103A4000E0071000D0071000C0071000B0070F00FB
:103A5000A107100091070E0083070F0074070F00E5
:103A600065070E0057070E0049070E003B070D00C3
:103A70002E070E0020070D0013070D0006070D008E
:103A8000F9060C00ED060D00E0060C00D4060C0053
:103A9000C8060C00BC060C00B0060C00A4060B0007
:103AA00099060C008D060B0082060B0077060B00B2
:103AB0006C060B0061060A0057060B004C060A0054
:103AC00042060A0038060A002E060A0024060A00EA
:103AD0001A060A001006090007060A00FD0509007B
:103AE000F4050900EB050900E2050900D905090004
:103AF000D0050900C7050900BE050900B505080085
:103B0000AD050800A50509009C05080094050800FE
:103B10008C050800840508007C0508007405080071
:103B20006C050700650508005D05070056050800DF
:103B30004E05070047050700400508003805070047
:103B4000310507002A050700230507001C050600AC
:103B5000160507000F050700080506000205070007
:103B6000FB040600F5040700EE040600E804060066
:103B7000E2040700DB040600D5040600CF040600BB
:103B8000C9040600C3040600BD040600B70406000D
:103B9000B1040500AC040600A6040600A00405005C
:103BA0009B04060095040500900406008A040500A5
:103BB00085040500800406007A04050075040500EC
:103BC000700405006B04050066040500610405002F
:103BD0005C04050057040500520405004D0405006F
:103BE00048040500430405003E0404003A040500AF
:103BF00035040500300404002C04050027040400EB
:103C0000230405001E0404001A0404001604050021
:103C1000110404000D040400090405000404040058
:103C200000040400FC030400F8030400F40304008F
:103C3000F0030400EC030400E8030400E4030400C0
:103C4000E0030400DC030400D8030400D4030400F0
:103C5000D0030400CC030400C8030300C503030021
:103C600024F404D9201BC40C5C0E9804C4095F0220
:103C700065077101F405F900FB04B30048048700EF
:103C8000C10369005803550003034500BE023A0012
:103C90008402310053022A00290225000402200078
:103CA000E4011C00C8011900AF01170098011400BD
:103CB00084011300710110006101100051010E0018
:103CC00043010D0036010B002B010B0020010B00FE
:103CD000150109000C01090003010800FB000800A0
:103CE000F3000800EB000700E4000600DE00060019
:103CF000D8000600D2000600CC000500C700050071
:103D0000C2000500BD000400B9000400B5000400B5
:103D1000B1000400AD000400A9000400A5000300E8
:103D2000A20003009F0004009B0003009800030012
:103D30009500020093000300900003008D00020034
:103D40008B0003008800020086000200840003004C
:103D5000810002007F0002007D0002007B00020063
:103D60007900020077000100760002007400020072
:103D700072000100710002006F0002006D0001007E
:103D80006C0002006A000100690002006700010087
:103D9000660001006500010064000200620001008D
:103DA00061000100600001005F0002005D00010091
:103DB0005C0001005B0001005A0001005900010095
:103DC0005800010057000100560001005500010095
:103DD0005400010053000000530001005200010094
:103DE00051000100500001004F0001004E00000092
:103DF0004E0001004D0001004C0001004B0000008E
:103E00004B0001004A000100490001004800000089
:103E10004800010047000100460000004600010084
:103E2000450000004500010044000100430000007F
:103E30004300010042000000420001004100000078
:103E400041000100400001003F0000003F00010070
:103E50003E0000003E0001003D0000003D0001006A
:103E60003C0000003C0000003C0001003B00000062
:103E70003B0001003A0000003A0001003900000058
:103E8000390001003800000038000000380001004F
:103E90003700000037000100360000003600000047
:103EA000360001003500000035000000350001003B
:103EB0003400000034000000340001003300000032
:103EC0003300000033000100320000003200000027
:103ED000320001003100000031000000310001001B
:103EE0003000000030000000300001002F00000012
:103EF0002F0000002F0000002F0001002E00000006
:103F00002E0000002E0001002D0000002D000000FA
:103F10002D0000002D0001002C0000002C000000EE
:103F20002C0000002C0001002B0000002B000000E2
:103F30002B0000002B0001002A0000002A000000D6
:103F40002A0000002A0001002900000029000000CA
:103F500029000000290000002900010028000000BD
:103F600028000000280000002800000028000100B0
:103F700027000000270000002700000027000000A5
:103F80002700010026000000260000002600000097
:103F9000260000002600010025000000250000008A
:103FA000250000002500000025000000250001007C
:103FB0002400000024000000240000002400000071
:103FC0002400010023000000230000002300000063
:103FD0002300000023000000230000002300010054
:103FE0002200000022000000220000002200000049
:103FF000220000002200010021000000210000003A
:10400000210000002100000021000000210000002C
:10401000210001002000000020000000200000001E
:104020002000000020000000200000002000000010
:10403000200001001F0000001F0000001F00000002
:104040001F0000001F0000001F0000001F000100F3
:104050001E0000001E0000001E0000001E000000E8
:104060004D383420582059205A2045004B494C4C9B
:1040700045442E20004B494C4C20636175736564A8
:10408000206279204B494C4C20627574746F6E2FFE
:1040900070696E0A004B494C4C45442E20004B4938
:1040A0004C4C2063617573656420627920746F6F76
:1040B000206D75636820696E61637469766520742C
:1040C000696D65202D2063757272656E7420636F53
:1040D0006D6D616E643A2000506C6561736520728D
:1040E00065736574005052494E5445522048414C06
:1040F000544544005072696E7465722068616C7436
:1041000065642E206B696C6C28292063616C6C657A
:1041100064210A00656E7175657565696E67202298
:10412000000000A0C100809743000000000000488C
:104130004200004842000040400000000057617209
:104140006E696E673A20486F6D696E672042756DC3
:10415000702044697669736F72203C20310A000236
:1041600002040000A0400000A04000000040000049
:10417000A0430080A14300008743FF01FF52657701
:104180006970696E670050726F62696E6720666160
:10419000696C65640050726F62696E672066616960
:1041A0006C65640050524F4245204641494C2043C3
:1041B0004C45414E204E4F5A5A4C450A00526577A5
:1041C0006970696E670A005265776970696E670089
:1041D00050726F62696E67206661696C6564005039
:1041E000726F62696E67206661696C656400505227
:1041F0004F4245204641494C20434C45414E204EBC
:104200004F5A5A4C450A005265776970696E670AC1
:104210000050726F62696E67206661696C65640A3E
:104220000050726F62696E67206661696C65640038
:10423000205A3A200020593A200042656420583A1A
:10424000200000000A0B02090C0D0E0807030401F0
:10425000000000000000000000000000000000005E
:10426000000000000000000000000000000012112B
:10427000100000000000000000000000000000002E
:104280000000000000000000486F6D6520257325C8
:104290007325732066697273740020666972737483
:1042A0000A005A0059005800486F6D652000566595
:1042B0002D6A65726B0056652D6A65726B005665D6
:1042C0002D6A65726B00567A2D6A65726B00567A9C
:1042D0002D6A65726B0056792D6A65726B0056798E
:1042E0002D6A65726B0056792D6A65726B0056787F
:1042F0002D6A65726B0056782D6A65726B00567870
:104300002D6A65726B004D6F74696F6E0045737432
:104310006570732F6D6D004573746570732F6D6DCF
:10432000005A73746570732F6D6D005A73746570E5
:10433000732F6D6D005973746570732F6D6D005917
:1043400073746570732F6D6D005873746570732F7F
:104350006D6D005873746570732F6D6D004D6F74C3
:10436000696F6E004F6666004F6E2000456E647385
:10437000746F702061626F72740053746570732F74
:104380006D6D004A65726B00416363656C657261B7
:1043900074696F6E0056656C6F63697479005A209A
:1043A0004F666673657400416476616E6365642070
:1043B00053657474696E67730043616E6E6F742029
:1043C000656E746572207375626469723A200002CA
:1043D0002E2E004D61696E0020204E6F7A7A6C653A
:1043E0003A200020004261636B004D696E696D7573
:1043F0006D2054656D70206973203132302E004875
:10440000656174696E67206661696C6564006265E8
:10441000640A002C2073797374656D2073746F7057
:1044200070656421204865617465725F49443A2073
:104430000048656174696E67206661696C65642017
:104440004245440048656174696E67206661696C25
:1044500065640048656174696E67206661696C65B2
:10446000640048656174696E67206661696C6564A3
:10447000204530001000AD0330016A0150022B01CD
:1044800070030A019004F500B005E500D006D800DD
:10449000F007CE001009C500300ABE00500BB7006F
:1044A000700CB100900DAB00B00EA600D00FA200B2
:1044B000F0109D00101299003013950050149200D6
:1044C00070158E0090168B00B0178700D0188400EE
:1044D000F0198100101B7E00301C7B00501D7900FC
:1044E000701E7600901F7300B0207000D0216E0007
:1044F000F0226B001024690030256600502663000E
:104500007027610090285E00B0295C00D02A590015
:10451000F02B5600102D5400302E5100502F4E001D
:1045200070304B0090314800B0324500D03342002B
:10453000F0343E0010363B0030373700503833003F
:1045400070392E00903A2900B03B2300D03C1B006C
:10455000F03D1100103F0100F03F0000290A00204B
:1045600062797465733B20637263200053657474D1
:10457000696E67732053746F726564202800202869
:1045800063616C63756C6174656429210A00202184
:104590003D2000454550524F4D20435243206D6908
:1045A000736D61746368202D202873746F72656465
:1045B000292000290A002062797465733B20637208
:1045C0006320002073746F7265642073657474696E
:1045D0006E67732072657472696576656420280061
:1045E000204D61726C696E3D563437290A002845AA
:1045F0004550524F4D3D00454550524F4D20766538
:104600007273696F6E206D69736D617463682000E9
:104610004D6F766520617869730044697361626CDF
:1046200065207374657070657273004D3834004294
:104630006564204C6576656C696E6700473238208A
:1046400058590A4D31303920533137350A473238FD
:10465000205A0A4D31303920523134350A4731322F
:104660000A4732390A4D31303420533000417574D5
:104670006F20686F6D6500473238004D61696E00CC
:104680004D3530320A4D353030004C6F6164207347
:10469000657474696E677300526573746F72652018
:1046A0006661696C736166650053746F726520732F
:1046B000657474696E677300416476616E636564E6
:1046C0002053657474696E6773004D61696E000AEA
:1046D000003B20454550524F4D20496E6465783A65
:1046E00020005570646174696E67207A6F66667326
:1046F000657420696E20454550524F4D3A20000E9A
:10470000000E000E000E000E000E000E000E007FC8
:10471000C03F801F000E00040004000E001F003F79
:10472000807FC00E000E000E000E000E000E000E68
:10473000000E0007F8000C0C0010020020010060C1
:1047400001804000804003E04001C0400080400004
:10475000004000006000002000001000000C0C0071
:1047600007F80001FE000303000400800800401861
:1047700000601000207C0020380020100020000085
:1047800020000020000060000040000080030300C3
:1047900001FE00FFFFFF7F80FFC0FFC0FFC07F80E2
:1047A0007F80FFC0FFC0FFC03F001E000C005A20EA
:1047B0004F6666736574005A204F666673657400B1
:1047C000466C6F7700466C6F770046616E207370A1
:1047D00065656420310046616E20737065656420F4
:1047E000310042656400426564004E6F7A7A6C6500
:1047F000004E6F7A7A6C6500537065656400537083
:10480000656564004D61696E004D6F7665205800E6
:1048100020706F736974696F6E206F7574206F6696
:104820002072616E67652E0A003F50726F626520CC
:10483000000A0A426564204C6576656C20436F72FD
:1048400072656374696F6E204D61747269783A00A5
:10485000202B000A436F72726563746564204265A1
:1048600064204865696768742076732E2042656409
:1048700020546F706F6C6F67793A0A00202B000A22
:104880004265642048656967687420546F706F677B
:1048900072617068793A0A2020202B2D2D2D20423C
:1048A00041434B202D2D2B0A2020207C202020202E
:1048B000202020202020207C0A204C207C2020202A
:1048C00020282B29202020207C20520A2045207CD3
:1048D00020202020202020202020207C20490A2069
:1048E00046207C20282D29204E20282B29207C2082
:1048F000470A2054207C2020202020202020202017
:10490000207C20480A2020207C20202020282D29BF
:10491000202020207C20540A2020207C20202020C1
:10492000202020202020207C0A2020204F2D2D20F8
:1049300046524F4E54202D2D2B0A2028302C302942
:104940000A004D65616E206F662073616D706C6545
:104950006420706F696E74733A200020643A2000FE
:1049600020623A200045716E20636F656666696358
:1049700069656E74733A20613A20002028445259C8
:1049800052554E2900473239204175746F204265D7
:1049900064204C6576656C696E6700284229616306
:1049A0006B00284629726F6E740028522969676867
:1049B0007400284C29656674003F4E756D626572FF
:1049C000206F662070726F626520706F696E7473FD
:1049D00020697320696D706C61757369626C652004
:1049E0002832206D696E696D756D292E0A003F2889
:1049F00056296572626F7365206C6576656C2069F7
:104A00007320696D706C61757369626C6520283004
:104A10002D34292E0A004572726F722077726974E4
:104A2000696E6720746F20454550524F4D210A0032
:104A300048617264636F6465642044656661756C87
:104A4000742053657474696E6773204C6F6164657C
:104A5000640A0028230000282300006400000010DE
:104A600027000000009643000096430000404000ED
:104A700000C8410000C9420000C9420000C844000B
:104A800000D24320204D383531205A005A2D507223
:104A90006F6265204F666673657420286D6D293AD4
:104AA0000A0020440020490020204D33303420509B
:104AB0000020440020490020204D33303120500098
:104AC0005049442073657474696E67733A0A002014
:104AD000460020420020480020204D31343520532C
:104AE000004D6174657269616C20686561747570F0
:104AF00020706172616D65746572733A0A002020DE
:104B00004D3432302053004175746F20426564206B
:104B10004C6576656C696E673A0A00205A00205928
:104B20000020204D323036205800486F6D65206FD0
:104B300066667365743A0A00204500205A002059C1
:104B40000020580020420020540020204D323035F3
:104B5000205300416476616E6365643A20533C6D76
:104B6000696E5F66656564726174653E20543C6D74
:104B7000696E5F74726176656C5F666565647261AB
:104B800074653E20423C6D696E5F7365676D656E4E
:104B9000745F74696D655F75733E20583C6D617814
:104BA0005F78795F6A65726B3E205A3C6D61785F11
:104BB0007A5F6A65726B3E20453C6D61785F655F28
:104BC0006A65726B3E0A0020540020520020204D7E
:104BD000323034205000416363656C6572617469E2
:104BE0006F6E2028756E6974732F7332293A2050C6
:104BF0003C7072696E745F616363656C3E20523C09
:104C0000726574726163745F616363656C3E2054A6
:104C10003C74726176656C5F616363656C3E0A002B
:104C2000204500205A0020590020204D32303120EC
:104C300058004D6178696D756D20416363656C65E1
:104C4000726174696F6E2028756E6974732F733288
:104C5000293A0A00204500205A0020590020204D02
:104C60003230332058004D6178696D756D2066656E
:104C7000656472617465732028756E6974732F732F
:104C8000293A0A00204500205A0020590020204DD2
:104C90003932205800537465707320706572207526
:104CA0006E69743A0A0020204D3230302044300AB8
:104CB0000020204D3230302044002044697361626E
:104CC0006C65640A0046696C616D656E742073657D
:104CD0007474696E67733A0020204D313439204373
:104CE000203B20556E69747320696E2043656C7398
:104CF0006975730A002020473231202020203B2094
:104D0000556E69747320696E206D6D0A0000002075
:104D1000002300260029002C002F00320000010093
:104D20000003010601090120496E76616C69642067
:104D3000657874727564657220000000A0C100007F
:104D4000A0C10000000000009643008097430000CF
:104D5000874320746F6F206C6F6E67206578747264
:104D60007573696F6E2070726576656E7465640A1E
:104D70000020636F6C6420657874727573696F6E60
:104D80002070726576656E7465640A00536C6565A3
:104D9000702E2E2E00486F6D65205859206669725E
:104DA00073740A00486F6D652058592066697273E4
:104DB00074004D36303020486F74656E6420746F17
:104DC0006F20636F6C6420746F206368616E676529
:104DD0002066696C616D656E740A007C3C3E5E2BDA
:104DE0003D3F2F5B5D3B2C2A225C0045313A200081
:104DF00045303A20005A3A2000593A2000583A20CB
:104E0000004D53312C4D53322050696E730A0010FF
:104E100000C90210012C014001220170011801B0EB
:104E2000010E01F00104015002FA00B002F000305E
:104E300003E600D003DC009004D2007005C800A097
:104E400006BE000008B400B009AA00D00BA00060A4
:104E50000E960060118C000015820020197800C0A9
:104E60001D6E00A0226400B0275A00902C50000054
:104E7000314600E0343C0010383200903A2800609F
:104E80003C1E00A03D1400803E0A00203F0000456B
:104E900072723A204D494E54454D502042454400CF
:104EA0004D494E54454D502074726967676572656F
:104EB00064004572723A204D494E54454D5020458C
:104EC00031004572723A204D494E54454D502045AF
:104ED00030004572723A204D415854454D502042A1
:104EE0004544004D415854454D50207472696767E0
:104EF00065726564004572723A204D415854454DC3
:104F000050204531004572723A204D415854454D6C
:104F10005020453000202F002042403A0020403AE7
:104F2000004B494C4C45442E20004D363030204239
:104F300030005072696E7420706175736564004D45
:104F400031323500004D3234005072696E74206188
:104F5000626F72746564004E6F2053442063617207
:104F600064005072696E742066726F6D2053440045
:104F700053746F70207072696E7400526573756D32
:104F800065207072696E740050617573652070726F
:104F9000696E740041626F7574204669726D776145
:104FA0007265004368616E67652066696C616D6556
:104FB0006E7400436F6E66696775726174696F6EB7
:104FC0000054656D7065726174757265004D6F7621
:104FD000656D656E740054756E6500496E666F2070
:104FE00073637265656E00526573656E643A200086
:104FF0002042002050006F6B00526573756D696E22
:1050000067207072696E74004C756C7A426F742000
:1050100054415A20362072656164792E00436C69D0
:10502000636B20746F20726573756D652E2E2E0074
:105030004E6F206D6F76652E006F6B00649241A4F9
:1050400011241FBECFEFD1E2DEBFCDBF00E00CBF09
:1050500014E0A0E0B2E0E4EBF5E402E00BBF02C034
:1050600007900D92A030B107D9F725E1A0E0B4E098
:1050700001C01D92A931B207E1F718E2CFE1D8E2F1
:1050800000E006C021970109802FFE010F944B22FA
:10509000CE31D10780E00807A9F70E940D690D9471
:1050A000C9220C9400002F923F924F925F926F9210
:1050B0007F928F929F92AF92BF92CF92DF92EF92A8
:1050C000FF920F931F93CF93DF93CDB7DEB7C95AEB
:1050D000D1090FB6F894DEBF0FBECDBF80910D157C
:1050E0008D3409F4D7C2843511F40C941C3F8734F5
:1050F00011F00C945E3F80910B1590910C158A3144
:10510000910509F403C2D4F4843091055CF4823033
:1051100091058CF597FF02C00C94783F0E94F9FF2F
:105120000C94783F8430910509F4ECC10C9711F090
:105130000C94783F0E94FBF90C94783F8E319105D6
:1051400009F431C23CF48C31910509F416C20CF417
:10515000E4C118C28B35910509F493C28C359105D1
:1051600009F494C28A35910511F00C94783F10929D
:1051700011040C94783F20918502222311F40C94A1
:10518000783F11E0029709F010E00E949AFA198224
:105190001A821B821C821D821E821F82188682E553
:1051A0000E94F979882309F45EC10E9497796B0106
:1051B0007C012091E4123091E5124091E612509169
:1051C000E71221962CAF3DAF4EAF5FAF2197809095
:1051D000E8129090E912A090EA12B090EB12809140
:1051E000A6129091A712A091A812B091A91225968B
:1051F0008CAF9DAFAEAFBFAF25972091AA12309173
:10520000AB124091AC125091AD1229962CAF3DAF2C
:105210004EAF5FAF299720E030E0A901C701B6018A
:105220000F94231B882309F434C121962CAD3DAD86
:105230004EAD5FAD219725966CAD7DAD8EAD9FAD2A
:1052400025970F94231B81110DC0A5019401299668
:105250006CAD7DAD8EAD9FAD29970F94231B882338
:1052600009F417C120E030E0A901C701B6010F948D
:10527000231B881F8827881F18130BC080E090E02D
:10528000A0E8BFE369968CAF9DAFAEAFBFAF6997A3
:105290000AC020E030E040E85FEB69962CAF3DAFFC
:1052A0004EAF5FAF699721962CAD3DAD4EAD5FAD72
:1052B000219725966CAD7DAD8EAD9FAD25970F9452
:1052C0005B1F61966CAF7DAF8EAF9FAF6197A501FD
:1052D000940129966CAD7DAD8EAD9FAD29970F944D
:1052E0005B1F65966CAF7DAF8EAF9FAF6597619684
:1052F0002CAD3DAD4EAD5FAD6197CA01B9010F94C4
:10530000881B2B013C0165962CAD3DAD4EAD5FADCC
:105310006597CA01B9010F94881B9B01AC01C301B9
:10532000B2010F945C1F0F94C7212D966CAF7DAF17
:105330008EAF9FAF2D9720E030E040E05FE30F9409
:10534000881B2B013C01A7019601C701B6010F94F0
:10535000881B6B017C01A3019201C301B2010F9470
:10536000881B9B01AC01C701B6010F945B1F0F9412
:10537000C7219B01AC0169966CAD7DAD8EAD9FAD33
:1053800069970F94881B6B017C0125962CAD3DAD70
:105390004EAD5FAD259721966CAD7DAD8EAD9FADC9
:1053A00021970F945C1F20E030E040E05FE30F9412
:1053B000881B2B013C0165966CAD7DAD8EAD9FAD1C
:1053C000659790582D962CAD3DAD4EAD5FAD2D97A8
:1053D0000F9438209B01AC01C701B6010F94881BC4
:1053E0009B01AC01C301B2010F945C1F21962CAD4F
:1053F0003DAD4EAD5FAD21970F945B1F69837A83FE
:105400008B839C8329962CAD3DAD4EAD5FAD299726
:10541000C501B4010F945C1F20E030E040E05FE381
:105420000F94881B2B013C012D962CAD3DAD4EAD4C
:105430005FAD2D9761966CAD7DAD8EAD9FAD6197E3
:105440000F9438209B01AC01C701B6010F94881B53
:105450009B01AC01C301B2010F945C1FA501940133
:105460000F945B1F12C089E40E94F979882331F000
:105470000E94977969837A838B839C838AE40E9454
:10548000F979882331F00E9497796D837E838F8329
:10549000988720E030E0A90169817A818B819C8125
:1054A0000F94231B81110BC020E030E0A9016D8116
:1054B0007E818F8198850F94231B882349F0612F6B
:1054C000CE0101960E9413B00E94AB5D0C94783F10
:1054D000EAEFF8E284918F010F5F1F4F882321F0DC
:1054E0000F943C0AF801F6CFEFE0F2E084918F01CF
:1054F0000F5F1F4F882311F40C94783F0F943C0AE0
:10550000F801F4CF0E944DFA0C94783F81E080932B
:1055100085021092F6090C94783F0E9479AA8111B5
:105520000C94783F80E090E0A0E2B1EC89839A830C
:10553000AB83BC8380E090E8A2E9B3E48D839E83D3
:10554000AF83B88780E090E0A0EAB1E489879A87CA
:10555000AB87BC8780E50E94F979882319F00E9407
:10556000677901C060E068A3BE016F5F7F4FCE0125
:1055700080960E94EDA00C94783F80E00E9488FD08
:105580000C94783F81E080938F0724982C9A089898
:10559000109A0E9410D710928F07249A2C98089A7C
:1055A00010980C94783FC090E412D090E512E090EF
:1055B000E612F090E71288E50E94F979811108C09F
:1055C00020E030E0A901C701B6010F945C1F02C0C2
:1055D0000E94977968A379A38AA39BA3C090E8123D
:1055E000D090E912E090EA12F090EB1289E50E9467
:1055F000F979811108C020E030E0A901C701B601A6
:105600000F945C1F02C00E9497796B017C01698333
:105610007A838B839C8388A099A0AAA0BBA02CE04E
:1056200032E048E951ECC501B4010F94822187FFB3
:1056300002C00C94783F21E230E040E953E4C50118
:10564000B4010F94231B181614F40C94783F29E12D
:1056500034E040E151ECC701B6010F94822187FF8D
:1056600002C00C94783F21E230E840E953E4C701DE
:10567000B6010F94231B181614F40C94783F0C9465
:105680007B3F81E0809311040C94783F0F942F1698
:105690000C94783F80910B1590910C1589379105EA
:1056A00009F430C70CF0E4C08C34910509F4F8C457
:1056B0000CF059C08931910509F432C24CF584319E
:1056C000910509F4DCC194F48131910509F4D3C149
:1056D00044F4029710F00C94783F0F949F150C94AB
:1056E000783F429709F4B1C50C94783F8631910513
:1056F00009F40CC20CF406C28731910509F40CC2FE
:10570000489711F00C94783F0F9447140C94783F0D
:105710008F31910509F4B8C37CF48B31910509F4FC
:1057200011C20CF40BC28C31910509F447C24E979B
:1057300009F44EC20C94783F8A32910509F44AC4A8
:105740002CF4809709F451C30C94783F8934910567
:1057500009F499C48B34910511F00C94783F0E94A0
:1057600058950C94783F8A36910509F462C5CCF5BA
:105770008435910509F469C5E4F48135910509F48E
:105780005CC54CF48D34910511F00C94783F0E9467
:105790000F950C94783F8235910509F452C58335F5
:1057A000910511F00C94783F81E0809310040C94E3
:1057B000783F8C35910509F467C534F4853591053A
:1057C00009F447C50C94783F8836910509F46CC4F8
:1057D0008936910511F00C94783F0F9411140C94B4
:1057E000FA438237910509F453C5DCF48D369105EF
:1057F00009F404C54CF48B36910511F00C94783FF4
:105800000E94D74A0C94783F8E36910509F49EC4C5
:105810008F36910511F00C94783F0E9496480C94B5
:10582000783F8637910509F43DC594F48337910597
:1058300009F434C58537910511F00C94783F60E088
:105840008091091590910A150E948B7D0C94783FE8
:105850008737910509F469C58837910511F00C94D3
:10586000783F81E08093600D80935F0D0C94783FCA
:105870008F3231E0930711F40C94A9370CF078C003
:105880008D3C910509F4B2C794F58E3B910509F45E
:10589000B9C4C4F48C38910509F46BC44CF48D3749
:1058A000910511F00C94783F0E94DF450C94783FED
:1058B0008139910509F42CC68B39910509F477C417
:1058C0000C94783F893C910509F4E4C634F4883C93
:1058D000910509F497C60C94783F8B3C910509F427
:1058E000FBC68C3C910509F415C70C94783F823EA9
:1058F000910511F40C94B83504F5833D910509F434
:10590000FDC77CF48E3C910511F00C94783F5AE46D
:10591000C52E53E0D52E60E9E62E67E0F62E10E0A6
:10592000D2C78C3D910511F40C945F358D3D9105E6
:1059300011F40C946E350C94783F8C3251E095073D
:1059400011F40C940D363CF48232914011F40C9415
:10595000FF350C94783F8D32E1E09E0711F40C94F2
:1059600037368E32914011F40C9454370C94783FB2
:10597000843F21E0920711F40C94BF3DD4F58039A7
:1059800041E0940711F40C94543CECF48E35A1E002
:105990009A0711F40C94673E3CF48033914011F463
:1059A0000C94D6360C94783F8F35F1E09F0711F4B4
:1059B0000C949C3E8336914011F00C94783FEAEFB2
:1059C000F8E20C94F03E823931E0930711F40C9424
:1059D0005B3C14F40C94573C843A51E0950711F465
:1059E0000C945F3C8C3A914011F40C94DF3C0C9485
:1059F000783F8835B2E09B0711F40C94393EB4F43B
:105A0000863FF1E09F0711F40C94C53D14F40C940B
:105A1000C23D873F31E0930711F40C94C83D8C31AF
:105A2000924011F40C94D43D0C94783F8C3853E0A0
:105A3000950711F40C94653E94F48335B3E09B070D
:105A400011F40C94DF3D8B38934011F00C94783FA7
:105A50004AE4E42E43E0F42E10E00C943E3E803AFB
:105A6000F3E09F0709F403C2873E934011F40C94BE
:105A7000073F0C94783F0F9495150C94783FE6E41B
:105A8000F2E084918F010F5F1F4F882321F00F9464
:105A90003C0AF801F6CF10921A0D40E050E0BA012E
:105AA00086EC9AE00E942FC28BE1E6ECFAE0DE0180
:105AB000159601900D928A95E1F78091C40A909114
:105AC000C50A9C838B8389ED93E09A83898340E0A8
:105AD00050E0BE016F5F7F4F84EF93E00E9490978C
