:100000000C94E72A0C949DF80C9472F80C9447F821
:100010000C941CF80C94F1F70C94C6F70C949BF715
:100020000C9470F70C94182B0C94182B0C94182B20
:100030000C94182B0D94D5080C94182B0C94182B99
:100040000C94182B0C94A1E50C94182B0C94182BE1
:100050000C94182B0C94182B0C9474BD0C942AFA45
:100060000C94182B0D94BB140D9458150C94182B4C
:100070000C94182B0C94182B0C94182B0C94182BF4
:100080000C94182B0C94182B0C94182B0C94182BE4
:100090000C94182B0C94182B0C94182B0C94182BD4
:1000A0000C94182B0C94182B0C94182B0C94182BC4
:1000B0000C94182B0C94182B0C94182B0C94182BB4
:1000C0000C94182B0C94182B0C94182B0C94182BA4
:1000D0000C94182B0C94182B0C94182B0C94182B94
:1000E0000C94182BDDD9DDD9E4D9E4D9E4D9EBD9C6
:1000F000EBD9EBD9F8D9F2D9F2D9F2D94CF54FF5C1
:100100003EF542F548F586F553F557F55DF561F591
:1001100065F56BF56FF573F586F579F57DF581F588
:1001200046F94BF950F95AF964F9DDF96EF976F9A7
:100130007EF988F992F99CF9ABF9B5F9DDF9BFF9C7
:10014000C9F9D3F9D600EA00D800DE00DA00E200EF
:10015000DC00E200EC00E800E200D400084AD73BF3
:100160003BCE016E84BCBFFDC12F3D6C74319ABD86
:1001700056833DDA3D00C77F11BED9E4BB4C3E91AA
:100180006BAAAABE000000803F05A84CCDB2D44E99
:10019000B93836A9020C50B9918688083CA6AAAA9B
:1001A0002ABE000000803F000D942D150D94F1141F
:1001B0000D9408150D941B150D941F150D94131512
:1001C0000D9438100D9430150D94FF060D94CF0743
:1001D0000D9427150D94F7140D9423154E414E4997
:1001E0004E495459494E46CDCCCC3D0AD7233C17F5
:1001F000B7D13877CC2B329595E6241FB14F0A0042
:100200000020410000C84200401C4620BCBE4CCA31
:100210001B0E5AAEC59D7420746F6F206C6F6E6795
:1002200020657874727573696F6E2070726576657B
:100230006E7465640A0020636F6C64206578747264
:100240007573696F6E2070726576656E7465640A89
:100250000047322F47332062616420706172616D04
:1002600065746572730A00536C6565702E2E2E00DE
:10027000205A3A200020593A200042656420583A1A
:1002800020004C756C7A426F74204D696E69204C69
:1002900043442072656164792E00526573756D69FF
:1002A0006E67207072696E7400436C69636B2074B2
:1002B0006F20726573756D652E2E2E00456E64205D
:1002C00066696C65206C6973740A00426567696EC3
:1002D0002066696C65206C6973740A004D31323593
:1002E000005344207072696E74696E67206279747D
:1002F0006520004E6F74205344207072696E7469DB
:100300006E670A006F6B0042656420646F6E652E35
:100310000020573A004265642068656174696E6721
:100320002E0042656420636F6F6C696E672E002F2C
:100330002F20007A5F6D61783A20007A5F6D696ED8
:100340003A2000795F6D61783A2000795F6D696EBF
:100350003A2000785F6D61783A2000785F6D696EB1
:100360003A20005265706F7274696E6720656E6422
:1003700073746F70207374617475730A004D313437
:100380003520533C696E6465783E206F7574206F2C
:10039000662072616E67652028302D31290A00536E
:1003A000657474696E672054726176656C20416370
:1003B00063656C65726174696F6E3A200053657491
:1003C00074696E672052657472616374204163635F
:1003D000656C65726174696F6E3A20005365747460
:1003E000696E67205072696E7420416363656C6545
:1003F000726174696F6E3A200053657474696E6738
:10040000205072696E7420616E642054726176654A
:100410006C20416363656C65726174696F6E3A202C
:1004200000205A00205900580020204D61783A20C1
:1004300000205A00205900580020204D696E3A20B3
:10044000004F6E20004F666600536F667420656E25
:100450006473746F70733A200020643A0020693A24
:100460000020703A0020643A0020693A0020703A77
:100470000043290A0061626C656420286D696E2062
:1004800074656D702000436F6C64206578747275BC
:100490006465732061726520004B642000236465ED
:1004A00066696E65202044454641554C545F004BBB
:1004B00069200023646566696E65202044454641D5
:1004C000554C545F004B70200023646566696E656F
:1004D000202044454641554C545F0050494420413A
:1004E00075746F74756E652066696E69736865648E
:1004F000212050757420746865206C617374204BE2
:10050000702C204B6920616E64204B6420636F6EF9
:100510007374616E74732066726F6D2062656C6FA8
:100520007720696E746F20436F6E666967757261BC
:1005300074696F6E2E680A00504944204175746FCB
:1005400074756E65206661696C6564212074696DDF
:10055000656F75740A00504944204175746F747555
:100560006E65206661696C6564212054656D7065F7
:1005700072617475726520746F6F20686967680AAC
:1005800000204B643A2000204B693A2000204B7039
:100590003A20000A20436C61737369632050494418
:1005A000200A002054753A2000204B753A20002084
:1005B0006D61783A2000206D696E3A200020643A1F
:1005C000200020626961733A20003A20007A5F6D52
:1005D000696E3A20202D32207A5F6D61783A2020B2
:1005E00035005A204F666673657420004E6F206395
:1005F000617365206C696768740A00416374697689
:10060000652045787472756465723A2000556E6B8A
:100610006E6F776E20636F6D6D616E643A2022009D
:100620004D6F76652059004D6F7665205A004578EC
:10063000747275646572004D6F766520302E316D71
:100640006D004D6F766520316D6D004D6F766520C4
:1006500031306D6D004D6F766520617869730045AE
:1006600078747275646572004D6F7665205A004D1E
:100670006F76652059004D6F766520580045787477
:100680007275646572004D6F7665205A004D6F7605
:10069000652059004D6F76652058004D6F76656D69
:1006A000656E7400436F6F6C646F776E0046616EA9
:1006B0002073706565640046616E207370656564C3
:1006C0000042656400426564004E6F7A7A6C650092
:1006D0004E6F7A7A6C65004D61696E005654726196
:1006E00076206D696E005654726176206D696E00D9
:1006F0005654726176206D696E00566D696E0056B3
:100700006D696E00566D696E00566D61782045000A
:10071000566D6178204500566D6178204500566D14
:100720006178205A00566D6178205A00566D6178C4
:10073000205A00566D6178205900566D6178205915
:1007400000566D6178205900566D6178205800562A
:100750006D6178205800566D61782058004D6F7497
:10076000696F6E00416D6178204500416D617820B0
:100770004500416D6178205A00416D6178205A0032
:10078000416D6178205900416D6178205900416DBB
:100790006178205800416D6178205800412D7472B5
:1007A0006176656C00412D74726176656C00412D37
:1007B0007265747261637400412D72657472616355
:1007C0007400416363656C00416363656C004D6F49
:1007D00074696F6E00434F4D4D554E494341544926
:1007E0004F4E0044525952554E004552524F5253AB
:1007F00000494E464F004543484F00457874727596
:10080000646572202573004C756C7A426F74204DBC
:10081000696E69204C43442072656164792E002022
:100820002F002042403A0020403A00436F6F6C692D
:100830006E6720646F6E652E0048656174696E672F
:1008400020646F6E652E0020573A004578747275EB
:10085000646572202573004C756C7A426F74204D6C
:10086000696E69204C43442072656164792E00F6FC
:1008700007F107EA07E307D5076F666600444542BC
:1008800055473A004C756C7A426F74204D696E6919
:10089000204C4344204F66662E00205A3A002059CF
:1008A0003A0020436F756E7420583A0020453A0094
:1008B000205A3A0020593A00583A004361703A45AC
:1008C0004D455247454E43595F5041525345523A68
:1008D000310A004361703A434153455F4C494748F0
:1008E000545F4252494748544E4553533A300A00E8
:1008F0004361703A544F47474C455F4C4947485411
:10090000533A300A004361703A534F4654574152AC
:10091000455F504F5745523A300A004361703A4C98
:100920004556454C494E475F444154413A310A00CF
:100930004361703A5A5F50524F42453A310A004380
:1009400061703A4155544F4C4556454C3A310A0076
:100950004361703A5052494E545F4A4F423A310A0D
:10096000004361703A50524F47524553533A300A50
:10097000004361703A4155544F5245504F52545FB5
:1009800054454D503A310A004361703A4545505242
:100990004F4D3A310A004649524D574152455F4E3C
:1009A000414D453A4D61726C696E20204649524D69
:1009B000574152455F56455253494F4E3A312E31B9
:1009C0002E352E37312045585452554445525F54E8
:1009D0005950453A4165726F73747275646572203F
:1009E000534F555243455F434F44455F55524C3A30
:1009F00068747470733A2F2F636F64652E616C6531
:100A000070686F626A656374732E636F6D2F6469BB
:100A100066667573696F6E2F4D41524C494E20507A
:100A2000524F544F434F4C5F56455253494F4E3AE5
:100A3000312E30204D414348494E455F5459504571
:100A40003A4C756C7A426F74204D696E69204C4344
:100A5000442045585452554445525F434F554E54D7
:100A60003A3120555549443A303833663638663184
:100A70002D303238652D343934632D393865312DB8
:100A80006632653064666165653961350A004265C4
:100A900064204C6576656C696E6720004661696C00
:100AA000656420746F20656E61626C6520426564C8
:100AB000204C6576656C696E670A00426564204C5F
:100AC0006576656C20436F7272656374696F6E2022
:100AD0004D61747269783A004F666673657473206D
:100AE0006170706C696564004572723A20546F6F72
:100AF000206661722100546F6F20666172206672F9
:100B00006F6D207265666572656E636520706F69D2
:100B10006E740A0020706F736974696F6E206F7550
:100B200074206F662072616E67652E0A003F5072F6
:100B30006F626520000A0A426564204C6576656C28
:100B400020436F7272656374696F6E204D617472B9
:100B500069783A00202B000A436F727265637465EE
:100B60006420426564204865696768742076732E46
:100B70002042656420546F706F6C6F67793A0A0089
:100B8000202B000A42656420486569676874205418
:100B90006F706F6772617068793A0A2020202B2D80
:100BA0002D2D204241434B202D2D2B0A2020207C2F
:100BB00020202020202020202020207C0A204C20C3
:100BC0007C20202020282B29202020207C20520A35
:100BD0002045207C20202020202020202020207C38
:100BE00020490A2046207C20282D29204E20282B11
:100BF00029207C20470A2054207C202020202020EF
:100C000020202020207C20480A2020207C2020201A
:100C100020282D29202020207C20540A2020207CE0
:100C200020202020202020202020207C0A2020207E
:100C30004F2D2D2046524F4E54202D2D2B0A20286B
:100C4000302C30290A004D65616E206F662073617B
:100C50006D706C656420706F696E74733A2000204B
:100C6000643A200020623A200045716E20636F656F
:100C70006666696369656E74733A20613A20005252
:100C8000756E6E696E6720696E204452592D5255FB
:100C90004E206D6F64650A00473239204175746FCC
:100CA00020426564204C6576656C696E670A002891
:100CB000422961636B00284629726F6E74002852C6
:100CC000296967687400284C29656674003F4E7571
:100CD0006D626572206F662070726F626520706F42
:100CE000696E747320697320696D706C61757369C6
:100CF000626C65202832206D696E696D756D292ED4
:100D00000A003F2856296572626F7365206C65760C
:100D1000656C20697320696D706C61757369626CB4
:100D2000652028302D34292E0A0025753A253032C9
:100D30007500253032753A253032750025756420EE
:100D4000253032753A253032750000060900FE0064
:100D50000000000001090008FE0000050808060068
:100D60000040F0C88888987810050808060000C080
:100D7000F88888888888F80505050600012030F87D
:100D800030200508080600002070F820202020E010
:100D90000509090600FF2070A8A8B88888702005FA
:100DA00009090600FFE080C0B0A8283028280509FE
:100DB000090600FFF8A88888888888A8F8050A0A24
:100DC0000600FE205050505088A8A88870030303E6
:100DD00006000340A04000060900FE07019203211F
:100DE00020FFFF08FF07FF000000060000010707C3
:100DF00006020080808080800080030202060105D8
:100E0000A0A00507070600005050F850F850500504
:100E100007070600002078A07028F02005070706C5
:100E20000000C0C8102040981805070706000060A1
:100E300090A040A89068020303060104C04080030C
:100E40000707060100204080808040200307070636
:100E5000010080402020204080050505060001207B
:100E6000A870A8200505050600012020F820200212
:100E700003030602FFC04080050101060003F802DB
:100E80000202060200C0C005050506000108102088
:100E900040800507070600007088888888887003EE
:100EA000070706010040C040404040E00507070634
:100EB0000000708808708080F8050707060000F8B9
:100EC0001020100808F005070706000010305090A9
:100ED000F81010050707060000F880F00808887071
:100EE000050707060000708080F0888870050707F6
:100EF000060000F808102020202005070706000043
:100F000070888870888870050707060000708888D8
:100F100078080870020505060200C0C000C0C002C3
:100F200006060602FFC0C000C04080040707060096
:100F30000010204080402010050303060002F80046
:100F4000F8040707060100804020102040800507B4
:100F5000070600007088081020002005070706001B
:100F60000070880868A8A870050707060000708848
:100F700088F8888888050707060000F08888F088C8
:100F800088F005070706000070888080808870055B
:100F90000707060000F08888888888F0050707069C
:100FA0000000F88080F08080F8050707060000F850
:100FB0008080F0808080050707060000708880B878
:100FC000888870050707060000888888F888888860
:100FD0000107070602008080808080808005070767
:100FE000060000381010101090600507070600007A
:100FF0008890A0C0A0908805070706000080808028
:10100000808080F805070706000088D8A8888888AF
:10101000880507070600008888C8A89888880507FB
:101020000706000070888888888870050707060012
:1010300000F08888F080808005070706000070882F
:101040008888A89068050707060000F08888F0A047
:101050009088050707060000788080700808F00572
:101060000707060000F8202020202020050707069B
:10107000000088888888888870050707060000882F
:101080008888888850200507070600008888888897
:1010900088A85005070706000088885020508888D7
:1010A00005070706000088888850202020050707CC
:1010B000060000F80810204080F80307070601002A
:1010C000E08080808080E0050505060001804020EA
:1010D0001008030707060100E02020202020E0057B
:1010E0000303060004205088050101060000F802F1
:1010F000020206020580400505050600007008781A
:1011000088780507070600008080B0C88888F00549
:10111000050506000070808088700507070600003E
:10112000080868988888780505050600007088F822
:1011300080700507070600003048E0404040400549
:1011400006060600FF708888780870050707060005
:10115000008080B0C88888880107070602008000E8
:1011600080808080800308080601FF200020202066
:1011700020A040040707060000808090A0C0A09037
:10118000030707060100C04040404040E005050558
:10119000060000D0A8A8A8A8050505060000B0C84C
:1011A000888888050505060000708888887005060F
:1011B000060600FFF08888F080800506060600FF1E
:1011C000788888780808050505060000B0C8808082
:1011D0008005050506000070807008F0040707060A
:1011E00000004040E0404040300505050600008812
:1011F00088889868050505060000888888502005BD
:1012000005050600008888A8A85005050506000009
:1012100088502050880506060600FF8888887808D0
:1012200070050505060000F8102040F803070706C2
:101230000100204040804040200107070602008056
:101240008080808080800307070601008040402066
:10125000404080050202060002689000000006007F
:101260000000000006000000000006000000000072
:10127000060000000000060000000000060000005C
:10128000000006000000000006000000000006004C
:101290000000000006000000000006000000000042
:1012A000060000000000060000000000060000002C
:1012B000000006000000000006000000000006001C
:1012C0000000000006000000000006000000000012
:1012D00006000000000006000000000006000000FC
:1012E00000000600000000000600000000000600EC
:1012F00000000000060000000000060000000000E2
:1013000006000000000006000000000006000000CB
:1013100000000600000000000600000000000600BB
:1013200000000000060000010707060200800080A0
:10133000808080800507070600002070A8A0A870A4
:1013400020050707060000304040E04050A8050592
:1013500005060000887050708805070706000088A1
:101360005020F820F8200107070602008080800046
:1013700080808005080806000030482050502090EA
:1013800060030101060107A0050707060000F888B1
:10139000B8B8B888F805070706000170087888789B
:1013A00000F80505050600012850A0502805030394
:1013B000060001F80808020202060206408005073E
:1013C00007060000F888A88898A8F805010106001B
:1013D00006F8040404060003609090600507070601
:1013E00000002020F8202000F80405050600036016
:1013F000902040F0030505060003E020E020E00215
:10140000020206020640800508080600FF88888858
:101410008898E88080050707060000789898781873
:101420001818020202060202C0C00202020602FFEF
:10143000408003050506000340C04040E005070763
:10144000060001708888887000F80505050600010F
:10145000A0502850A00507070600008890A858B89B
:1014600008080507070600008890B8489820380546
:101470000808060000C040C048D83808080507071B
:101480000600002000204080887005080806000043
:101490004020007088F888880508080600001020A1
:1014A000007088F888880508080600002050007041
:1014B00088F888880508080600006890007088F899
:1014C00088880508080600005000708888F8888819
:1014D0000508080600002050207088F88888050755
:1014E000070600003860A0B8E0A0B80508080600AC
:1014F000FF70888080887020600508080600004022
:101500002000F880F080F8050808060000081000A8
:10151000F880F080F8050808060000205000F880E8
:10152000F080F80507070600005000F880F080F80A
:10153000030808060100804000E0404040E0030846
:1015400008060100204000E0404040E00308080693
:10155000010040A000E0404040E003070706010012
:10156000A000E0404040E005070706000070484842
:10157000E848487005080806000068900088C8A878
:1015800098880508080600004020708888888870C0
:1015900005080806000010207088888888700508F3
:1015A000080600002050007088888870050808062A
:1015B00000006890007088888870050808060000A0
:1015C00050007088888888700505050600018850DD
:1015D0002050880508080600FF1070A8A8A8A87069
:1015E0004005080806000040208888888888700523
:1015F0000808060000102088888888887005080878
:1016000006000020500088888888700508080600B9
:101610000050008888888888700508080600001037
:10162000208850202020200509090600FFC04070B6
:101630004848704040E00408080601FF609090A010
:101640009090E080050808060000402000700878AF
:10165000887805080806000010200070087888784F
:1016600005080806000020500070087888780508F2
:10167000080600006890007008788878050707065B
:1016800000005000700878887805080806000020DF
:1016900050207008788878050606060000D0287863
:1016A000A0A8500506060600FF708088702060051F
:1016B00008080600004020007088F88070050808BF
:1016C0000600001020007088F880700508080600E9
:1016D000002050007088F880700507070600005051
:1016E000007088F880700308080601008040004000
:1016F000C04040E003080806010020400040C04010
:1017000040E003080806010040A00040C04040E05F
:10171000030707060100A00040C04040E00507079E
:10172000060000A040A01078887005080806000098
:10173000689000B0C8888888050808060000402026
:101740000070888888700508080600001020007066
:101750008888887005080806000020500070888876
:1017600088700508080600006890007088888870F6
:101770000507070600005000708888887005050579
:101780000600012000F800200507070600FF107082
:10179000A8A8A87040050808060000402000888816
:1017A0008898680508080600001020008888889836
:1017B0006805080806000020500088888898680599
:1017C0000707060000500088888898680509090600
:1017D00000FF102000888888F808700407070601B9
:1017E000FFC04060506040E00508080600FF500060
:1017F0008888887808705A0059005800092000002D
:1018000000000000000000000000007FFFE000007A
:10181000000000000000000000007000E000000078
:1018200000000000000000000061F86000000000FF
:10183000000000000000000041F82000000000004F
:101840000000000000000040F02000000000000048
:1018500000000000000040602000000000000000C8
:1018600000000000005801A07F8000000000000080
:10187000004104005C63A0FFC00000000000000005
:101880002082005EF7A0FFC00000000000000020E2
:1018900082005EF7A0FFC0000000000000004104CD
:1018A000005C63A07F800000000000000082080050
:1018B0005801A07F800000000000000104100040DB
:1018C0006020FFC00000000000000104100040F094
:1018D00020FFC00000000000000082080041F82046
:1018E000FFC00000000000000041040061F8603FFC
:1018F00000000000000000000000007000E01E007A
:1019000000000000000001FFFF807FFFE00C0000EE
:10191000000000000001FFFF800000000000000048
:1019200000000000000000007FFFE0000000000059
:10193000000000000000007000E000000000000057
:10194000000000000000630C6000000000000000C8
:101950000000000000470E20000000000000000012
:10196000000000004F0F20000000000000000000F9
:101970000000005F0FA00000000000000000000059
:1019800000005E07A07F800000000000000041040E
:1019900000406020FFC00000000000000020820026
:1019A00040F020FFC0000000000000002082004046
:1019B000F020FFC000000000000000410400406073
:1019C000207F80000000000000008208005E07A069
:1019D0007F80000000000000010410005F0FA0FFE6
:1019E000C0000000000000010410004F0F20FFC0E5
:1019F00000000000000000820800470E20FFC00029
:101A0000000000000000410400630C603F00000083
:101A100000000000000000007000E01E0000000058
:101A200000000001FFFF807FFFE00C0000000000CD
:101A3000000001FFFF800000004E6F204C696E65C2
:101A4000204E756D626572207769746820636865E1
:101A5000636B73756D2C204C617374204C696E65DB
:101A60003A200053544F505045442E200050726984
:101A70006E7465722073746F707065642064756530
:101A800020746F206572726F72732E204669782001
:101A9000746865206572726F7220616E6420757360
:101AA00065204D39393920746F2072657374617205
:101AB000742E202854656D7065726174757265208E
:101AC00069732072657365742E2053657420697480
:101AD0002061667465722072657374617274696ED8
:101AE00067290A004E6F20436865636B73756D202C
:101AF00077697468206C696E65206E756D626572B9
:101B00002C204C617374204C696E653A2000636828
:101B100065636B73756D206D69736D617463682C9B
:101B2000204C617374204C696E653A20004C696EDC
:101B300065204E756D626572206973206E6F74202A
:101B40004C617374204C696E65204E756D626572D0
:101B50002B312C204C617374204C696E653A200047
:101B60004D313130004D3331004D3834205820593B
:101B7000205A2045005344207265616420657272CA
:101B80006F720A00446F6E65207072696E74696EC0
:101B9000672066696C650A0020496E76616C69642D
:101BA0002065787472756465722000000040C00082
:101BB00000E0C0000000C00000224300003E4300DF
:101BC000001F43436172642072656D6F7665640027
:101BD0004361726420696E73657274656400000607
:101BE0000900FE06018902FE20FFFE07FE06FE0038
:101BF00000000600070106060602008080808000C3
:101C000080030303060103A0A0A00507070600FF49
:101C10005050F850F850500509090600FE2070A8F1
:101C2000A07028A870200608080600FF40A84810E9
:101C3000204854080507070600FF609090609890C0
:101C4000680103030602038080800207070602FF83
:101C5000408080808080400207070602FF8040406D
:101C6000404040800505050600008850F850880572
:101C700005050600002020F820200204040602FECC
:101C8000C0404080050101060002F802020206027F
:101C900000C0C00406060601001010204080800429
:101CA000060606010060909090906003060606010B
:101CB0000040C0404040E00406060601006090106D
:101CC0002040F0040606060100F020601010E00538
:101CD000060606000010305090F8100406060601B3
:101CE00000F080E01010E00406060601006080E0CD
:101CF000909060040606060100F010102040400499
:101D000006060601006090609090600406060601D9
:101D100000609090701060020505060200C0C000CF
:101D2000C0C00207070602FEC0C000C040408005D8
:101D30000505060000186080601805030306000111
:101D4000F800F8050505060000C0300830C004079B
:101D5000070601006090106040004005060606007E
:101D6000007090A8B080700506060600002050881C
:101D7000F88888050606060000F088F08888F004D8
:101D80000606060100609080809060040606060149
:101D900000E090909090E0040606060100F080E0DC
:101DA0008080F0040606060100F080E08080800458
:101DB0000606060100609080B090600406060601E9
:101DC000009090F0909090030606060100E04040DD
:101DD0004040E00506060600003810101090600430
:101DE000060606010090A0C0A09090040606060119
:101DF000008080808080F005060606000088D8A854
:101E0000A8888804060606010090D0B0909090053E
:101E10000606060000708888888870040606060199
:101E200000E09090E080800407070601FF6090903A
:101E3000D0B06010040606060100E09090E090909B
:101E40000406060601006090402090600506060624
:101E50000000F820202020200406060601009090B3
:101E600090909060040606060100909090F06060EB
:101E70000506060600008888A8A8D8880506060674
:101E8000000088502020508805060606000088883B
:101E900050202020040606060100F010204080F0AB
:101EA000030606060100E080808080E00406060646
:101EB0000100808040201010030606060100E0208B
:101EC000202020E0050303060003205088050101BF
:101ED0000600FEF802020206020480400404040622
:101EE0000100709090700406060601008080E0906A
:101EF00090E0040404060100708080700406060669
:101F0000010010107090907004040406010060B08D
:101F1000C070040606060100205040E04040040660
:101F2000060601FE6090907010600406060601002F
:101F30008080E09090900306060601004000C040BB
:101F400040E00308080601FE200060202020A04099
:101F50000406060601008080A0C0A09003060606C5
:101F60000100C040404040E0050404060000D0A845
:101F7000A888040404060100E0909090040404067C
:101F80000100609090600406060601FEE09090E07B
:101F900080800406060601FE709090701010040404
:101FA00004060100A0D0808004040406010070C073
:101FB00030E00406060601004040E04050200404E2
:101FC00004060100909090700404040601009090B3
:101FD000606005040406000088A8A85004040406F4
:101FE0000100906060900406060601FE90909070DB
:101FF0009060040404060100F02040F00307070687
:102000000100204040804040200107070602FF8079
:102010008080808080800307070601008040402088
:1020200040408004020206010350A0FFFFFFFFFFB3
:10203000FFFFFFFFFFFFFFFFFFFFFFFFFFFFFFFFB0
:10204000FFFFFFFFFFFFFFFFFFFFFFFF0000000696
:1020500000070106060602008000808080800406DA
:10206000060601FF2070A0A070200507070600FFEC
:10207000304840F04040F8050505060000A85088AB
:1020800050A80506060600008850F820F820010731
:10209000070602FF80808000808080040707060119
:1020A000FF708060906010E0030101060105A0064A
:1020B0000707060000788494A49484780305050635
:1020C000010160A06000E00505050600002850A0A1
:1020D0005028040303060100F0101004010106015A
:1020E00002F00607070600007884B4A4A4847804EC
:1020F0000101060105F0040303060102609060057A
:1021000007070600FF2020F8202000F80305050639
:10211000010140A02040E0030505060101C0204068
:1021200020C002020206020440800405050601FFE9
:102130009090B0D08005060606000078E8E8682890
:1021400028010101060202800202020602FE40800E
:1021500003050506010140C04040E00305050601F6
:102160000140A04000E0050505060000A0502850F1
:10217000A00508080600FF40C040507030781005E8
:1021800008080600FF40C0405068081038050808DD
:102190000600FFC0204030F0307810040707060129
:1021A00000200020608090600507070600004020A6
:1021B0002050708888050707060000102020507006
:1021C0008888050707060000205020507088880581
:1021D000070706000028502050708888050707066A
:1021E0000000500020507088880507070600002076
:1021F00050205070888805060606000078A0F0A0E0
:10220000A0B80408080601FE60908080906020401D
:102210000407070601004020F080E080F004070773
:102220000601002040F080E080F00407070601006E
:102230002050F080E080F00407070601005000F015
:1022400080E080F00307070601008040E040404046
:10225000E00307070601002040E0404040E003079C
:102260000706010040A0E0404040E00307070601E8
:1022700000A000E0404040E005060606000070486F
:10228000E848487004070706010050A090D0B090BD
:1022900090040707060100402060909090600407BA
:1022A0000706010020406090909060040707060137
:1022B000002050609090906004070706010050A035
:1022C00060909090600407070601005000609090B5
:1022D0009060050505060000885020508804080815
:1022E0000601FF1070B0B0D0D0E0800407070601EF
:1022F0000040209090909060040707060100204065
:1023000090909090600407070601002050909090F4
:1023100090600407070601005000909090906005BF
:10232000070706000010208850202020040606061B
:10233000010080E09090E0800406060601006090B5
:10234000A0A090A004070706010040200070909014
:102350007004070706010020400070909070040789
:1023600007060100205000709090700407070601D6
:102370000050A00070909070040606060100500006
:102380007090907004070706010020502070909014
:102390007005040406000070A8B078040606060163
:1023A000FE70808070204004070706010040200076
:1023B00060B0C07004070706010020400060B0C094
:1023C0007004070706010020500060B0C0700406CA
:1023D00006060100500060B0C07003070706010048
:1023E000804000C04040E003070706010020400095
:1023F000C04040E003070706010040A000C0404085
:10240000E0030606060100A000C04040E004070704
:10241000060100306010709090600407070601000C
:1024200050A000E0909090040707060100402000B3
:1024300060909060040707060100204000609090C3
:1024400060040707060100205000609090600407B8
:102450000706010050A00060909060040606060187
:10246000005000609090600505050600002000F80F
:10247000002004040406010070B0D0E00407070641
:102480000100402000909090700407070601002092
:1024900040009090907004070706010020500090C3
:1024A0009090700406060601005000909090700411
:1024B00009090601FE204000909090709060040889
:1024C000080601FE8080E09090E080800408080605
:1024D00001FE5000909090709060202863616C63C2
:1024E000756C6174656429210A0020213D20004536
:1024F0004550524F4D20435243206D69736D6174B6
:102500006368202D202873746F7265642920002968
:102510000A002062797465733B2063726320002097
:1025200073746F7265642073657474696E67732069
:10253000726574726965766564202800204D617249
:102540006C696E3D563430290A0028454550524F7B
:102550004D3D00454550524F4D2076657273696F71
:102560006E206D69736D61746368200048617264E8
:10257000636F6465642044656661756C742053659F
:102580007474696E6773204C6F616465640A002817
:102590002300002823000064000000E8030000007E
:1025A00000964300009643000000410000204200D6
:1025B00000C9420000C9420000C8440000D24320C4
:1025C0004500205A0020204D3930372058005374E0
:1025D0006570706572206D6F746F722063757272B2
:1025E000656E74733A0A0020204D383531205A0048
:1025F0005A2D50726F6265204F666673657420288D
:102600006D6D293A0A0020440020490020204D33F6
:10261000303420500020440020490020204D333029
:10262000312050005049442073657474696E67739B
:102630003A0A0020460020420020480020204D3168
:1026400034352053004D6174657269616C20686592
:102650006174757020706172616D65746572733A32
:102660000A0020204D3432302053004175746F2011
:10267000426564204C6576656C696E673A0A002095
:102680005A0020590020204D323036205800486F23
:102690006D65206F66667365743A0A0020450020F8
:1026A0005A002059002058002042002054002020C9
:1026B0004D323035205300416476616E6365643A73
:1026C00020533C6D696E5F66656564726174653E3A
:1026D00020543C6D696E5F74726176656C5F6665EF
:1026E0006564726174653E20423C6D696E5F73651E
:1026F000676D656E745F74696D655F6D733E2058BC
:102700003C6D61785F78795F6A65726B3E205A3CF8
:102710006D61785F7A5F6A65726B3E20453C6D61E2
:10272000785F655F6A65726B3E0A00205400205234
:102730000020204D323034205000416363656C65C9
:10274000726174696F6E2028756E6974732F7332AD
:10275000293A20503C7072696E745F616363656CE6
:102760003E20523C726574726163745F616363659D
:102770006C3E20543C74726176656C5F6163636586
:102780006C3E0A00204500205A0020590020204DB0
:102790003230312058004D6178696D756D2041638C
:1027A00063656C65726174696F6E2028756E6974FB
:1027B000732F7332293A0A00204500205A0020590D
:1027C0000020204D3230332058004D6178696D75FE
:1027D0006D206665656472617465732028756E6925
:1027E00074732F73293A0A00204500205A0020599B
:1027F0000020204D393220580053746570732070CA
:10280000657220756E69743A0A0020204D323030AE
:102810002044300A0020204D323030204400204433
:10282000697361626C65640A0046696C616D656E0E
:10283000742073657474696E67733A0020204D319B
:1028400034392043203B20556E69747320696E2013
:1028500043656C736975730A00202047323120206C
:1028600020203B20556E69747320696E206D6D0ABF
:10287000007C3C3E5E2B3D3F2F5B5D3B2C2A225C67
:102880000020746F6F206C6F6E67206578747275AE
:1028900073696F6E2070726576656E7465640A0088
:1028A00020636F6C6420657874727573696F6E2035
:1028B00070726576656E7465640A0056652D6A658A
:1028C000726B0056652D6A65726B0056652D6A65E0
:1028D000726B00567A2D6A65726B00567A2D6A65A6
:1028E000726B0056792D6A65726B0056792D6A6598
:1028F000726B0056792D6A65726B0056782D6A6589
:10290000726B0056782D6A65726B0056782D6A6579
:10291000726B004D6F74696F6E00457374657073F0
:102920002F6D6D004573746570732F6D6D005A7354
:10293000746570732F6D6D005A73746570732F6DAD
:102940006D005973746570732F6D6D0059737465E4
:1029500070732F6D6D005873746570732F6D6D00FB
:102960005873746570732F6D6D004D6F74696F6E61
:10297000004F6666004F6E2000456E6473746F7082
:102980002061626F72740053746570732F6D6D00F7
:102990004A65726B00416363656C65726174696F4F
:1029A0006E0056656C6F63697479005A204F6666D5
:1029B00073657400416476616E6365642053657469
:1029C00074696E67730043616E6E6F7420656E7418
:1029D0006572207375626469723A2000022E2E00BF
:1029E0004D61696E0020204E6F7A7A6C653A200046
:1029F00020004261636B004D696E696D756D2054F6
:102A0000656D70206973203132302E004865617425
:102A1000696E67206661696C6564004578747275DB
:102A20006465206D6F726500526573756D65207009
:102A300072696E7400524553554D45204F505449AC
:102A40004F4E533A001000C90210012C01400122E0
:102A50000170011801B0010E01F00104015002FAE9
:102A600000B002F0003003E600D003DC009004D296
:102A7000007005C800A006BE000008B400B009AA96
:102A800000D00BA000600E960060118C0000158233
:102A90000020197800C01D6E00A0226400B0275AE3
:102AA00000902C500000314600E0343C00103832D9
:102AB00000903A2800603C1E00A03D1400803E0AB1
:102AC00000203F000048656174696E672066616997
:102AD0006C6564204245440048656174696E6720F6
:102AE0006661696C65640048656174696E6720663B
:102AF00061696C65640048656174696E6720666130
:102B0000696C6564204530001000AD0330016A0136
:102B100050022B0170030A019004F500B005E50096
:102B2000D006D800F007CE001009C500300ABE005C
:102B3000500BB700700CB100900DAB00B00EA600AA
:102B4000D00FA200F0109D001012990030139500D4
:102B50005014920070158E0090168B00B0178700ED
:102B6000D0188400F0198100101B7E00301C7B00FF
:102B7000501D7900701E7600901F7300B020700009
:102B8000D0216E00F0226B00102469003025660011
:102B9000502663007027610090285E00B0295C0019
:102BA000D02A5900F02B5600102D5400302E510021
:102BB000502F4E0070304B0090314800B03245002D
:102BC000D0334200F0343E0010363B00303737003F
:102BD0005038330070392E00903A2900B03B230062
:102BE000D03C1B00F03D1100103F0100F03F000001
:102BF0004572723A204D494E54454D50204245444D
:102C0000004D494E54454D50207472696767657296
:102C10006564004572723A204D494E54454D50202E
:102C20004531004572723A204D494E54454D502071
:102C30004530004572723A204D415854454D502060
:102C4000424544004D415854454D502074726967C7
:102C50006765726564004572723A204D415854456B
:102C60004D50204531004572723A204D415854452F
:102C70004D50204530004572726F72207772697432
:102C8000696E6720746F20454550524F4D210A00F0
:102C9000290A002062797465733B20637263200007
:102CA00053657474696E67732053746F7265642022
:102CB00028001FFFFFFFFFFFFF600000000001FF73
:102CC000400000000000FF8000000000007F83CF74
:102CD00000000C303F87FF80000C301F8679800099
:102CE0000C000F8C30C7838C30E78C30CFC7CC31D1
:102CF000F38C30DCECEC33B98C30D86C6C33198C41
:102D000030D06C0C33198C30D86C0C33198C30DC0F
:102D10006C0E3B198C30CF7C079F198C30C77C031D
:102D20008F19400000000000026000000000000653
:102D30001FFFFFFFFFFFF82020506C616E6E657271
:102D400042756666657242797465733A2000204662
:102D5000726565204D656D6F72793A2000436F6D25
:102D600070696C65643A204A616E203232203230DC
:102D700031380A00207C20417574686F723A20282F
:102D8000416C657068204F626A6563747320496E98
:102D9000632E2C204C756C7A426F74204769742026
:102DA0005265706F7369746F7279290A004A616E97
:102DB000203232203230313830393A31353A3134FC
:102DC00000204C61737420557064617465643A200E
:102DD00000312E312E350A004D61726C696E002073
:102DE000536F6674776172652052657365740A006B
:102DF000205761746368646F672052657365740A55
:102E0000002042726F776E206F7574205265736573
:102E1000740A002045787465726E616C2052657387
:102E200065740A00506F77657255700A007374619B
:102E300072740A006572726F722077726974696EBB
:102E40006720746F2066696C650A00456E64737450
:102E50006F70732025632025632025632025630080
:102E6000205A3A0020593A0020583A00656E64739F
:102E7000746F7073206869743A2000446F6E652027
:102E8000736176696E672066696C652E0A004D3243
:102E9000390020204E6F7A7A6C653A2000636861B1
:102EA0006E6765006F66207468652066696C616D89
:102EB000656E74005761697420666F722073746167
:102EC0007274005052494E542050415553454400AD
:102ED00020204E6F7A7A6C653A2000200066696C7B
:102EE000616D656E7420756E6C6F61640057616909
:102EF0007420666F72005052494E54205041555311
:102F000045440020204E6F7A7A6C653A20002000FC
:102F1000506C6561736520776169742E2E2E0048B0
:102F2000656174696E67206E6F7A7A6C65005052C5
:102F3000494E54205041555345440020204E6F7A4D
:102F40007A6C653A2000200068656174206E6F7AA3
:102F50007A6C652E00507265737320627574746F9D
:102F60006E20746F005052494E54205041555345C5
:102F7000440020204E6F7A7A6C653A2000746F20EE
:102F8000636F6E74696E75652E2E2E00616E6420FF
:102F9000707265737320627574746F6E00496E731E
:102FA0006572742066696C616D656E74005052497B
:102FB0004E54205041555345440020204E6F7A7A9C
:102FC0006C653A2000200066696C616D656E742046
:102FD0006C6F6164005761697420666F72005052B3
:102FE000494E54205041555345440020204E6F7A9D
:102FF0007A6C653A2000200066696C616D656E74BC
:103000002065787472756465005761697420666F15
:1030100072005052494E542050415553454400745B
:103020006F20726573756D65005761697420666FF6
:1030300072207072696E74005052494E5420504193
:10304000555345440000000A0B02090C0D0E0807F9
:103050000304010000000000000000000000000068
:103060000000000000000000000000000000000060
:10307000001211100000000000000000000000001D
:103080000000000000000000000000486F6D652097
:103090002573257325732066697273740020666931
:1030A0007273740A005A0059005800486F6D652009
:1030B0000053442063617264206F6B0A006F706577
:1030C0006E526F6F74206661696C65640A00766F7A
:1030D0006C756D652E696E6974206661696C6564D6
:1030E0000A00534420696E6974206661696C0A00A5
:1030F0006175746F25692E67004D3234004D32338F
:103100002025730057726974696E6720746F20669A
:10311000696C653A20006F70656E206661696C6548
:10312000642C2046696C653A20006F70656E2066DD
:1031300061696C65642C2046696C653A20004669BB
:103140006C652073656C65637465640A002053695F
:103150007A653A200046696C65206F70656E65641B
:103160003A20006F70656E206661696C65642C2082
:1031700046696C653A20002066696C653A20004E0D
:103180006F7720002220706F7300222070617265BB
:103190006E743A2200535542524F5554494E4520C1
:1031A00043414C4C207461726765743A22004B496C
:1031B0004C4C45442E2000747279696E6720746F00
:1031C0002063616C6C207375622D67636F6465208A
:1031D00066696C6573207769746820746F6F206D01
:1031E000616E79206C6576656C732E204D41582098
:1031F0006C6576656C2069733A004572726F723A3D
:103200000043616E6E6F74206F70656E207375621F
:1032100064697220006563686F3A00544845524DF6
:10322000414C2052554E415741592042454400548B
:103230006865726D616C2052756E617761790054BA
:103240004845524D414C2052554E41574159204519
:103250003100544845524D414C2052554E41574142
:10326000592045300000002200250028002B002EA8
:10327000003100340002010000050108010B0100CB
:10328000002100240027002A002D00300033000117
:10329000010000040107010A0105050505070508ED
:1032A000080808020202020A0A08080404040401C9
:1032B00001010101010101030303030303030304EB
:1032C0000707070C0C0C0C0C0C0C0C02020202067B
:1032D000060606060606060B0B0B0B0B0B0B0B016B
:1032E0000210202008081020401020408002010217
:1032F00001080402010102040810204080804020DF
:103300001008040201800402018040201008040219
:103310000108040201010204081020408001020497
:103320000810204080506C6561736520726573657C
:1033300074005052494E5445522048414C54454423
:10334000005072696E7465722068616C7465642ED9
:10335000206B696C6C28292063616C6C6564210AA0
:1033600000656E7175657565696E672022000000E5
:1033700040C000003E4300001F430000F041000039
:10338000F04100000041000000005761726E696E5C
:10339000673A20486F6D696E672042756D702044F2
:1033A000697669736F72203C20310A0002020400C2
:1033B00000A0400000A040000000400000254300A5
:1033C00000454300002143FF01014D3630302048C5
:1033D0006F74656E6420746F6F20636F6C6420740B
:1033E0006F206368616E67652066696C616D656EEC
:1033F000740A0024F4D43050C38E20C2A240178235
:103400008B7011127A910D816CD90AA861E108C7FD
:10341000586607615143061E4B5D05C145A7041A56
:10342000411104093D9803713931034036DB0265CF
:10343000339102D4305402802E1D02632CEE0175AC
:103440002AC501B028A001102781018F2564012B16
:10345000244B01E0223401AC211F018D200D01809D
:103460001FFC00841EED00971DDF00B81CD200E693
:103470001BC600201BBC00641AB200B219A8000AC7
:1034800019A0006A189900D117910040178B00B558
:1034900016840031167E00B31579003A157300C703
:1034A000146F0058146A00EE136600881363002539
:1034B000135E00C7125B006C12570015125400C156
:1034C00011510070114F0021114B00D61049008D91
:1034D0001047004610440002104200C00F40008018
:1034E0000F3E00420F3C00060F3B00CB0E3800930E
:1034F0000E37005C0E3500270E3400F30D3200C18C
:103500000D3100900D3000600D2E00320D2D0005A4
:103510000D2C00D90C2B00AE0C2900850C29005C69
:103520000C2700350C27000E0C2600E80B2400C4E5
:103530000B2400A00B23007D0B23005A0B21003924
:103540000B2100180B2000F80A1F00D90A1E00BB2F
:103550000A1E009D0A1D00800A1D00630A1C004708
:103560000A1B002C0A1B00110A1A00F7091A00DDB9
:10357000091900C4091900AB091900920917007B49
:10358000091800630917004C0916003609160020B7
:103590000916000A091500F5081500E0081400CC0A
:1035A000081400B8081400A4081400900813007D43
:1035B0000812006B08130058081200460812003465
:1035C000081100230811001208110001081100F071
:1035D000071000E0071000D0071000C0071000B06F
:1035E000070F00A107100091070E0083070F00745A
:1035F000070F0065070E0057070E0049070E003B36
:10360000070D002E070E0020070D0013070D000602
:10361000070D00F9060C00ED060D00E0060C00D4C5
:10362000060C00C8060C00BC060C00B0060C00A47A
:10363000060B0099060C008D060B0082060B007726
:10364000060B006C060B0061060A0057060B004CC7
:10365000060A0042060A0038060A002E060A00245E
:10366000060A001A060A001006090007060A00FDED
:10367000050900F4050900EB050900E2050900D978
:10368000050900D0050900C7050900BE050900B5F8
:10369000050800AD050800A50509009C0508009473
:1036A0000508008C050800840508007C05080074E6
:1036B0000508006C050700650508005D0507005654
:1036C0000508004E050700470507004005080038BB
:1036D000050700310507002A050700230507001C20
:1036E000050600160507000F05070008050600027D
:1036F000050700FB040600F5040700EE040600E8D9
:10370000040600E2040700DB040600D5040600CF2F
:10371000040600C9040600C3040600BD040600B781
:10372000040600B1040500AC040600A6040600A0CF
:103730000405009B04060095040500900406008A19
:1037400004050085040500800406007A0405007560
:10375000040500700405006B0405006604050061A3
:103760000405005C04050057040500520405004DE3
:1037700004050048040500430405003E0404003A23
:1037800004050035040500300404002C040500275E
:10379000040400230405001E0404001A0404001697
:1037A000040500110404000D0404000904050004CC
:1037B00004040000040400FC030400F8030400F403
:1037C000030400F0030400EC030400E8030400E435
:1037D000030400E0030400DC030400D8030400D465
:1037E000030400D0030400CC030400C8030300C595
:1037F00003030024F404D9201BC40C5C0E9804C4F9
:10380000095F0265077101F405F900FB04B3004884
:10381000048700C10369005803550003034500BE37
:10382000023A008402310053022A002902250004D2
:10383000022000E4011C00C8011900AF0117009824
:103840000114008401130071011000610110005186
:10385000010E0043010D0036010B002B010B00206F
:10386000010B00150109000C01090003010800FB10
:10387000000800F3000800EB000700E4000600DE8B
:10388000000600D8000600D2000600CC000500C7E4
:10389000000500C2000500BD000400B9000400B529
:1038A000000400B1000400AD000400A9000400A55C
:1038B000000300A20003009F0004009B0003009887
:1038C0000003009500020093000300900003008DA8
:1038D0000002008B000300880002008600020084C2
:1038E000000300810002007F0002007D0002007BD7
:1038F00000020079000200770001007600020074E7
:1039000000020072000100710002006F0002006DF1
:103910000001006C0002006A0001006900020067FB
:103920000001006600010065000100640002006201
:1039300000010061000100600001005F0002005D05
:103940000001005C0001005B0001005A0001005909
:103950000001005800010057000100560001005509
:103960000001005400010053000000530001005208
:1039700000010051000100500001004F0001004E05
:103980000000004E0001004D0001004C0001004B02
:103990000000004B0001004A0001004900010048FE
:1039A00000000048000100470001004600000046FA
:1039B00000010045000000450001004400010043F3
:1039C00000000043000100420000004200010041ED
:1039D00000000041000100400001003F0000003FE6
:1039E0000001003E0000003E0001003D0000003DDF
:1039F0000001003C0000003C0000003C0001003BD6
:103A00000000003B0001003A0000003A00010039CC
:103A100000000039000100380000003800000038C4
:103A200000010037000000370001003600000036BA
:103A300000000036000100350000003500000035B0
:103A400000010034000000340000003400010033A5
:103A5000000000330000003300010032000000329B
:103A60000000003200010031000000310000003190
:103A70000001003000000030000000300001002F85
:103A80000000002F0000002F0000002F0001002E7A
:103A90000000002E0000002E0001002D0000002D6F
:103AA0000000002D0000002D0001002C0000002C63
:103AB0000000002C0000002C0001002B0000002B57
:103AC0000000002B0000002B0001002A0000002A4B
:103AD0000000002A0000002A00010029000000293F
:103AE0000000002900000029000000290001002832
:103AF0000000002800000028000000280000002826
:103B00000001002700000027000000270000002718
:103B1000000000270001002600000026000000260B
:103B200000000026000000260001002500000025FE
:103B300000000025000000250000002500000025F1
:103B400000010024000000240000002400000024E4
:103B500000000024000100230000002300000023D7
:103B600000000023000000230000002300000023C9
:103B700000010022000000220000002200000022BC
:103B800000000022000000220001002100000021AE
:103B900000000021000000210000002100000021A1
:103BA0000000002100010020000000200000002093
:103BB0000000002000000020000000200000002085
:103BC000000000200001001F0000001F0000001F77
:103BD0000000001F0000001F0000001F0000001F69
:103BE0000001001E0000001E0000001E0000001E5C
:103BF0000000004D383420582059205A2045004DEF
:103C00006F766520617869730044697361626C65E1
:103C1000207374657070657273004D3834004265AE
:103C200064204C6576656C696E67004732382058B1
:103C3000590A4D31303920533137350A473238204F
:103C40005A0A4D31303920523134350A4731320A5F
:103C50004732390A4D313034205330004175746F8A
:103C600020686F6D6500473238004D61696E004D08
:103C70003530320A4D353030004C6F616420736549
:103C80007474696E67730053746F72652073657422
:103C900074696E677300526573746F726520666134
:103CA000696C7361666500416476616E636564206A
:103CB00053657474696E6773004D61696E000A0024
:103CC0003B20454550524F4D20496E6465783A205F
:103CD000005570646174696E67207A6F66667365FB
:103CE0007420696E20454550524F4D3A2000060021
:103CF0000600060006000600060006000600060094
:103D00003FC01F800F00060006000F001F803FC04D
:103D10000600060006000600060006000600060073
:103D2000060007F8000C0C001002002001006001E2
:103D3000804000804003E04001C04000804000001F
:103D40004000006000002000001000000C0C000784
:103D5000F80001FE00030300040080080040180082
:103D6000601000207C00203800201000200000207F
:103D700000002000006000004000008003030001FC
:103D8000FE00FFFFFF7F80FFC0FFC0FFC07F807F7E
:103D900080FFC0FFC0FFC03F001E000C005A204F34
:103DA0006666736574005A204F66667365740046D4
:103DB0006C6F7700466C6F770046616E207370659C
:103DC00065640046616E20737065656400426564D9
:103DD00000426564004E6F7A7A6C65004E6F7A7AA5
:103DE0006C65005370656564005370656564004DD3
:103DF00061696E004D6F7665205800000020002339
:103E000000260029002C002F0032000001000003D2
:103E1000010601090145303A20005A3A2000593A7A
:103E20002000583A20004D53312C4D533220506918
:103E30006E730A006265640A002C207379737465DE
:103E40006D2073746F7070656421204865617465BE
:103E5000725F49443A20005265776970696E670065
:103E600050726F62696E67206661696C65640050AC
:103E7000726F62696E67206661696C65640050529A
:103E80004F4245204641494C20434C45414E204E2F
:103E90004F5A5A4C450A005265776970696E670A35
:103EA000005265776970696E670050726F62696E63
:103EB00067206661696C65640050726F62696E6745
:103EC000206661696C65640050524F42452046414E
:103ED000494C20434C45414E204E4F5A5A4C450ABE
:103EE000005265776970696E670A0050726F626987
:103EF0006E67206661696C65640A0050726F626962
:103F00006E67206661696C656400205A3A20002063
:103F1000593A200042656420583A20000201050801
:103F200000FF060121023520FFFF07FF06FF090001
:103F300050221656808080800080153353A0A0A0A8
:103F40000257575050F850F850500257572070A061
:103F50007028702013355580A040A020024757409C
:103F6000A0A040A0A0502513538080801226564068
:103F7000808080804012265680404040408002452C
:103F8000559060F060900255552020F820201133A4
:103F900053604080044151F011335340E0400246E9
:103FA0005610102040808012365640A0A0A0A0409D
:103FB00012365640C0404040E002465660901060C5
:103FC00080F0024656F02060109060024656206055
:103FD000A0F02020024656F080E010906002465685
:103FE0006080E0909060024656F010202040400231
:103FF00046566090609090600246566090907010B7
:1040000060122555C0C000C0C01136566060006007
:104010004080123656204080804020034353F000F9
:10402000F012365680402020408012365640A020A4
:10403000400040015858304898A8A89040300246A7
:1040400056609090F09090024656E090E09090E09C
:10405000024656609080809060024656E0909090B4
:1040600090E0024656F080E08080F0024656F080F4
:10407000E0808080024656609080B0906002465694
:104080009090F0909090123656E040404040E00210
:10409000465670202020A04002465690A0C0A0A006
:1040A000900246568080808080F002465690F0F064
:1040B00090909002465690D0F0B0B0900246566074
:1040C0009090909060024656E09090E0808001478A
:1040D00057609090D0B06010024656E09090E0900B
:1040E00090024656609040209060123656E0404064
:1040F0004040400246569090909090600246569004
:104100009090906060024656909090F0F090024639
:1041100056909060609090025656888850202020DB
:10412000024656F010204080F0123656E080808023
:1041300080E0024656808040201010123656E02063
:10414000202020E016325240A0014151F0162252A8
:104150008040024454709090700246568080E090F7
:1041600090E01234546080806002465610107090C7
:10417000907002445460B0C060024656205040E047
:10418000404001455560907010600246568080E0C6
:104190009090901236564000C04040E011375720B2
:1041A00000202020A040024656808090E09090128F
:1041B0003656C040404040E0025454D0A8A8A8025F
:1041C0004454E090909002445460909060014555B2
:1041D000E090E080800145557090701010024454CA
:1041E000A0D0808012345460C020C00246564040A7
:1041F000E040502002445490909070123454A0A09B
:10420000A04002545488A8A8500244549060609082
:104210000145559090709060024454F02040F002A7
:104220004757304020C02040302216568080808082
:104230008080024757C02040304020C00642525084
:10424000A0FFFFFFFFFFFFFFFFFFFFFFFFFFFFFFDD
:10425000FFFFFFFFFFFFFFFFFFFFFFFFFFFFFFFF6E
:10426000FFFF0900502216568000808080800146A2
:10427000562070A0A070200246562050E04050A06A
:1042800002555588705070880256568850F820F8AC
:1042900020221757808080008080800247577080DE
:1042A000E0907010E0173151A002565670A8C8C8AF
:1042B000A87014355560A06000E003435350A0502F
:1042C000123353E02020143151E002565670E8D8E2
:1042D000E8D870173151E015335340A040123555DE
:1042E00040E04000E014355540A02040E014355532
:1042F000C020C020C01622524080014555909090A9
:10430000E08002565678E8E8682828241151801188
:104310002252408014355540C04040E0143555408D
:10432000A04000E0034353A050A002475780808084
:10433000A060F0200247578080A0D0102070024774
:104340005780408060A0F02012365640004080A088
:104350004002475740206090F0909002475720401D
:104360006090F0909002475760906090F0909002BB
:10437000475750A06090F09090024757900060908F
:10438000F0909002475760906090F09090024656EF
:1043900070A0A0F0A0B0014757609080809060406E
:1043A0000247574020F080E080F00247572040F05D
:1043B00080E080F00247576090F080E080F0024794
:1043C000579000F080E080F01237578040E0404086
:1043D00040E01237572040E0404040E0123757405D
:1043E000A0E0404040E0123757A000E0404040E0ED
:1043F0000256567048E848487002475750A090D07F
:10440000B0909002475740206090909060024757CC
:10441000204060909090600247576090609090902C
:104420006002475750A060909090600247579000FC
:104430006090909060123353A040A002465670B036
:10444000B0D0D0E002475740209090909060024753
:1044500057204090909090600247576090909090C5
:1044600090600247579000909090906002575710CC
:1044700020885020202002465680E09090E0800264
:1044800046566090A0A090A0024757402000709030
:10449000907002475720400070909070024757205C
:1044A00050007090907002475750A000709090702C
:1044B00002465650007090907002475760906070AE
:1044C000909070025454F068B07811355560808037
:1044D000604002475740200060B0C060024757204C
:1044E000400060B0C06002475760900060B0C0609C
:1044F000024656500060B0C060123757804000C07E
:104500004040E0123757204000C04040E01237578B
:1045100040A000C04040E0123656A000C04040E03D
:10452000024757A040A01070906002475750A0006B
:10453000E0909090024757402000609090600247C2
:104540005720400060909060024757609000609054
:10455000906002475750A0006090906002465690CD
:1045600000609090601235554000E00040024454D5
:1045700070B0D0E002475740200090909070024702
:1045800057204000909090700247576090009090A4
:1045900090700246569000909090700148582040CC
:1045A0000090907090600147578080E090E080809C
:1045B0000147579000909070906001050700FE053C
:1045C00000FB01F220FFFE05FE05FE020040021581
:1045D000258080800080053242A0A002556550F8F9
:1045E00050F8500146562070C030E02002556590CA
:1045F000102040480255656080689068051222804E
:104600008002253540808080400225358040404032
:1046100080043343A040A003334340E040012232F2
:104620004080043141E002112180025565081020CC
:1046300040800245556090909060022535C0404012
:104640004040024555E0106080F0024555E01060A2
:1046500010E00245552060A0F020024555F080E0B2
:1046600010E00245556080E09060024555F0102052
:1046700040400245556090609060024555609070E2
:1046800010600313238000800214248000808002C5
:1046900035452040804020033343E000E0023545AB
:1046A0008040204080024555E01060004002556582
:1046B0007088B8A870024555609090F090024555FA
:1046C000E090E090E00235456080808060024555D2
:1046D000E0909090E0023545E080E080E0023545D2
:1046E000E080E080800245557080B09070024555B2
:1046F0009090F09090023545E0404040E0024555F2
:10470000301010906002455590A0C0A09002354531
:1047100080808080E002556588D8A8888802455549
:1047200090D0B090900245556090909060024555B1
:10473000E09090E0800146566090909060100245B5
:1047400055E09090E09002455570806010E0023591
:1047500045E04040404002455590909090600245B1
:10476000559090A0A04002556588A8A8A850024581
:104770005590906090900245559090701060023571
:1047800045E0204080E0022535C0808080C0025591
:10479000658040201008022535C0404040C00532E9
:1047A0004240A0024151F005223280400244547040
:1047B00090907002455580E09090E0023444608013
:1047C0008060024555107090907002445460B0C0F3
:1047D000600235452040E0404000465670909070A1
:1047E000106002455580E090909002152580008071
:1047F000808000273740004040404080024555807F
:1048000090A0E0900215258080808080025464F0A2
:10481000A8A8A8024454E09090900244546090905C
:1048200060004656E09090E0808000465670909080
:10483000701010023444A0C0808002445470C03014
:10484000E002354540E04040200244549090907092
:104850000244549090A040025464A8A850500234DE
:1048600044A04040A00046569090907010600244D2
:1048700054F02040F002354560408040600215252C
:104880008080808080023545C0402040C005425273
:1048900050A0FFFFFFFFFFFFFFFFFFFFFFFFFFFF36
:1048A000FFFFFFFFFFFFFFFFFFFFFFFFFFFFFFFF18
:1048B000FFFFFF020040FFFFFFFFFFFFFFFFFFFFC3
:1048C000FFFFFFFFFFFFFFFFFFFFFFFFFFFFFFFFF8
:1048D000FFFFFFFFFFFFFFFFFFFFFFFFFFFFFFFFE8
:1048E000FFFFFFFFFFFFFFFFFFFFFFFFFFFFFFFFD8
:1048F000FFFFFFFFFFFFFFFFFFFFFFFFFFFFFFFFC8
:10490000FFFFFFFFFFFFFFFFFFFFFFFFFFFFFFFFB7
:10491000FFFFFFFFFF01060D00FE09016602D62022
:10492000FFFE0BFE0AFE0D00602219698080808068
:104930008080800080183363A0A0A0035767505088
:10494000F850F850500259692078A0A0702828F03B
:104950002002596948A85010204050A89002586879
:1049600040A0A040A0989068281363808080113BED
:104970006B2040408080808080404020113B6B80D5
:104980004040202020202040408006556520A8700F
:10499000A8200455652020F8202011336360408052
:1049A000065161F811336340E0400259690808106C
:1049B000102040408080025969205088888888886B
:1049C00050200259692060A02020202020F80259A0
:1049D000697088880810204080F8025969F808102A
:1049E000207008088870025969101030505090F8F3
:1049F0001010025969F88080B0C808088870025900
:104A00006970888080F088888870025969F8081079
:104A1000102020404040025969708888887088883A
:104A200088700259697088888878080888701138F9
:104A30006840E040000040E04011386840E040003D
:104A40000060408002596908102040804020100812
:104A5000045464F80000F8025969804020100810DE
:104A600020408002596970888808102020002002A8
:104A7000596970888898A8A8B08078025969205030
:104A8000888888F8888888025969F04848487048BA
:104A90004848F00259697088808080808088700260
:104AA0005969F048484848484848F0025969F88030
:104AB0008080F0808080F8025969F8808080F080E2
:104AC0008080800259697088808080988888700210
:104AD000596988888888F888888888123969E04008
:104AE000404040404040E00259693810101010101A
:104AF000109060025969888890A0C0A090888802B0
:104B000059698080808080808080F8025969888817
:104B1000D8A8A88888888802596988C8C8A8A89889
:104B2000988888025969708888888888888870027F
:104B30005969F0888888F080808080015A6A70887E
:104B40008888888888A87008025969F0888888F061
:104B5000A0908888025969708880807008088870E1
:104B6000025969F82020202020202020025969883D
:104B700088888888888888700259698888888850D9
:104B80005050202002596988888888A8A8A8A85071
:104B90000259698888505020505088880259698885
:104BA0008850502020202020025969F80810102039
:104BB000404080F8113B6BE0808080808080808066
:104BC00080E0025969808040402010100808113BA5
:104BD0006BE0202020202020202020E008536320AC
:104BE0005088015161F82A2262804002566670089E
:104BF00078889868025969808080F088888888F071
:104C000002566670888080887002596908080878A2
:104C100088888888780256667088F880887002597B
:104C20006930484040F040404040005868708888F3
:104C30008878088870025969808080B0C888888820
:104C4000881238684000C040404040E0004A6A1086
:104C50000030101010109090600259698080809090
:104C6000A0C0A09088123969C040404040404040F8
:104C7000E0025666D0A8A8A8A888025666B0C888E0
:104C8000888888025666708888888870005868F01E
:104C9000888888F0808080005868788888887808BC
:104CA0000808025666B0C880808080025666708808
:104CB000601088700258684040F040404048300220
:104CC0005666888888889868025666888888505012
:104CD000200256668888A8A8A850025666885020E8
:104CE000205088005868888888986808887002561C
:104CF00066F810204080F8015B6B1820202020C04F
:104D00002020202018221969808080808080808067
:104D100080015B6BC0202020201820202020C008AC
:104D2000536348A890FFFFFFFFFFFFFFFFFFFFFF58
:104D3000FFFFFFFFFFFFFFFFFFFFFFFFFFFFFFFF83
:104D4000FFFFFFFFFFFF0D006022196980008080D8
:104D500080808080800358682070A8A0A0A8702060
:104D600002596930484040E0404048B003566688E8
:104D7000705050708802596988885050F820F82087
:104D800020221969808080800080808080124A6A99
:104D9000609080609090601090601A3262A0A003D2
:104DA00059697088A8D8C8D8A8887004576770084F
:104DB00078887800F80356662850A0A0502804533D
:104DC00063F80808163161E00359697088E8D8D89B
:104DD000E8D888700A5161F81744646090906003C5
:104DE00057672020F8202000F807356540A02040B4
:104DF000E007356540A04020C02A2262408000586C
:104E0000688888888898E8808002596978E8E8E8A6
:104E1000E868282828262161C020226240800735C2
:104E20006540C04040E0045767708888887000F88B
:104E3000035666A050282850A0025A6A40C040403D
:104E4000E00818283808025A6A40C04040E010289C
:104E5000081038025A6A40A04020A0481828380894
:104E6000025969200020204080888870025A6A40D8
:104E7000200020508888F88888025A6A1020002074
:104E8000508888F88888025A6A30480020508888FC
:104E9000F88888025A6A28500020508888F8888844
:104EA000025A6A50500020508888F88888025A6A4E
:104EB00020502020508888F8888802596958A0A07E
:104EC000A0B0E0A0A0B8005B6B708880808080807C
:104ED00088702040025A6A402000F88080F080806C
:104EE000F8025A6A102000F88080F08080F8025A98
:104EF0006A304800F88080F08080F8025A6A50508A
:104F000000F88080F08080F8123A6A804000E0402B
:104F100040404040E0123A6A204000E040404040BB
:104F200040E0124A6A609000E04040404040E01299
:104F30003A6AA0A000E04040404040E0025969F0D9
:104F4000484848E8484848F0025A6A28500088888B
:104F5000C8A8988888025A6A402000708888888883
:104F60008870025A6A1020007088888888887002C9
:104F70005A6A30480070888888888870025A6A287F
:104F8000500070888888888870025A6A5050007073
:104F90008888888888700355658850205088015B10
:104FA0006B08709898A8A8A8C8C87080025A6A4070
:104FB000200088888888888870025A6A10200088B3
:104FC000888888888870025A6A304800888888886B
:104FD000888870025A6A505000888888888888704B
:104FE000025A6A1020008888502020202002596927
:104FF00080F0888888F0808080025969609090A055
:10500000A0908888B002596940200070087888987C
:1050100068025969102000700878889868025969F8
:1050200030480070087888986802596928500070E4
:1050300008788898680259695050007008788898F4
:1050400068025A6A304830007008788898680256BA
:1050500066702870A0A8500058687088808088709A
:1050600020400259694020007088F88088700259F9
:10507000691020007088F8808870025969304800F3
:105080007088F88088700259695050007088F880E4
:105090008870123969804000C040404040E01239B9
:1050A00069204000C040404040E0124969609000E3
:1050B000C040404040E0123969A0A000C0404040DC
:1050C00040E0025A6A502060107088888888700218
:1050D0005969285000B0C8888888880259694020DA
:1050E000007088888888700259691020007088884C
:1050F00088887002596930480070888888887002F2
:105100005969285000708888888870025969505001
:1051100000708888888870035767202000F8002076
:1051200020015868087098A8A8C870800259694082
:10513000200088888888986802596910200088882B
:1051400088889868025969304800888888889868F3
:10515000025969505000888888889868005B6B10F5
:1051600020008888889868088870005A6A8080B013
:10517000C88888C8B08080005B6B505000888888E1
:10518000986808887000000000000000000000001F
:10519000000000000000000000000000000000000F
:1051A00000000000000000000C00000000000000F3
:1051B0000C000000000000001200000000000000D1
:1051C000230000000000000021000000000000009B
:1051D0004C800000000000005E8000000000000025
:1051E0009240000000000000A1400000000000010B
:1051F00021200000000000027F900000000000025B
:105200000010000000000007FFF80000000000048C
:105210000008000000000008000400000000000872
:105220000006000000000010000200000000003036
:105230001E010000000000207F81000000000041EE
:10524000FFE0800000000043FCF0800000000087C9
:105250003B7840000000018EDBFC60000000010F85
:10526000EBCC20000000021FEDB610000000021F72
:10527000DEB6100000000439CD7F080000000436BF
:10528000E0FF08000000087EC0BB84000000187F1B
:10529000005D86000000107FC0ED82000000203C11
:1052A000C07301000000203B337F01000000701B31
:1052B000E77E03800000C81DEEDE04C00000880FFA
:1052C000DEDC04400001240FDF3C0920000126073A
:1052D000DBF8192000027203E7F01390000251017D
:1052E000FFE02290000489007F80244800090480A8
:1052F0001E004824000BFE400000DFF400100040B8
:1053000000008002001FFFFFFFFFFFFE0000000003
:10531000000000000000000000000000000000008D
:1053200000000000001022103C3C0E1F0010221054
:10533000042211040010221008221104001022106F
:10534000083C110400102210102211040010221039
:1053500020221104001E1C1E3C3C0E040000000014
:10536000000000000000000000000000000000003D
:10537000000000000000000000000000000000002D
:10538000000000000000000000000000000000001D
:10539000000000000000000000000000000000000D
:1053A00000000000000000000000000000000000FD
:1053B00000000000000000000000000000000000ED
:1053C0000000004E6F206D6F76652E0046696C659B
:1053D0002064656C657465643A0044656C65746945
:1053E0006F6E206661696C65642C2046696C653A55
:1053F00020006F70656E206661696C65642C2046C4
:10540000696C653A20002569730025696D2025695E
:1054100073002569682025696D2025697300256959
:1054200064202569682025696D2025697300256938
:105430007920256964202569682025696D20256902
:1054400073005072696E742074696D653A200000B3
:105450000125301D0C1E24311C0B18232F1B0A178D
:10546000FFFF040806FF06222B1A4142043803FFFF
:105470003628294527444350726F74656374656408
:105480002050696E0A00526573656E643A200020F0
:1054900042002050006F6B004B494C4C45442E207D
:1054A000004B494C4C206361757365642062792020
:1054B0004B494C4C20627574746F6E2F70696E0A84
:1054C000004B494C4C45442E20004B494C4C20632A
:1054D000617573656420627920746F6F206D7563E8
:1054E0006820696E6163746976652074696D6520F2
:1054F0002D2063757272656E7420636F6D6D616EC1
:10550000643A20004D363030204230005072696ECF
:105510007420706175736564004D31323500004D43
:105520003234005072696E742061626F7274656407
:10553000004E6F2053442063617264005072696EA4
:10554000742066726F6D2053440053746F70207026
:1055500072696E7400526573756D65207072696E44
:10556000740041626F7574204669726D776172656F
:10557000005061757365207072696E7400436861D4
:105580006E67652066696C616D656E7400436F6E51
:1055900066696775726174696F6E0054656D7065D8
:1055A000726174757265004D6F76656D656E74001D
:1055B00054756E6500496E666F2073637265656E23
:1055C000004B494C4C45442E200023DAA7E411241B
:1055D0001FBECFEFD1E2DEBFCDBF00E00CBF14E0B5
:1055E000A0E0B2E0E0E6F3E402E00BBF02C0079007
:1055F0000D92AE31B107D9F725E1AEE1B4E001C0BB
:105600001D92A731B207E1F71AE2C6EEDAE200E036
:1056100006C021970109802FFE010F942621C53E67
:10562000D10780E00807A9F70E949FC20D949F212F
:105630000C9400002F923F924F925F926F927F9254
:105640008F929F92AF92BF92CF92DF92EF92FF9292
:105650000F931F93CF93DF93CDB7DEB7CC58D1090B
:105660000FB6F894DEBF0FBECDBF0091AD0720E6A8
:10567000029F80011124035D194F8091691480FFFE
:105680001AC0E5E1F2E384917F013FEFE31AF30AE8
:10569000811102C0780104C00F945E13F701F3CFAB
:1056A000D7018D917D01882319F00F945E13F8CFF7
:1056B0008AE00F945E1310923D0410923C048FE335
:1056C00080934604109245041092440410923804CA
:1056D0001092390410923A0410923B04F801808130
:1056E0000F5F1F4F8032D1F38E34B1F4818190ED82
:1056F000980F9A3020F08D3211F08B3269F4329687
:10570000DF0131962C9120532A30D0F3CD01FC01DA
:10571000019620812032D9F3F0936014E0935F1456
:105720007F01BFEFEB1AFB0A10816AE270E0C7014C
:105730000F947021009731F0FC0131978081803205
:10574000E1F311821D3429F0143519F0173409F0F2
:10575000C9C0F70180812FEFE21AF20A8032C9F343
:1057600080538A3008F0BEC0109346042091440450
:10577000309145044AE03196429FC001439F900D0D
:105780001124DF0111972C9130E020533109280FAB
:10579000391F808180538A3070F330934504209301
:1057A0004404DF0131968C918032D9F31D34D1F459
:1057B0002E31310591F03CF42731310571F02C3157
:1057C000310581F40AC02537310564F027373105EA
:1057D00024F0203A43E0340729F4B0933D04A09329
:1057E0003C0480C010923D0410923C0400915F1470
:1057F00061E070E0FD0131968C91882309F472C05C
:105800008132A1F41D3491F42032310579F4F09302
:105810003D04E0933C0463E270E0CF010F947021FB
:10582000009709F45FC0DC011C925CC09FEBD92E8D
:10583000D80E49E1C42ECD14C0F1AF01FA01908118
:105840004F5F5F4F9032D1F340ED490F4A3040F047
:1058500043ED490F423020F09B3211F00C94B144DB
:10586000AF01AD2CB12C7501B3E0F594E794BA9576
:10587000E1F7C701885C9B4F7C018D2D8770DB01B0
:1058800002C0AA0FBB1F8A95E2F7CD01D7019C91F8
:10589000892B8C934115510511F0401B01C040E04C
:1058A000D501A25EBB4F4C930AC080913C049091FD
:1058B0003D04892B21F4B0933D04A0933C048081E6
:1058C00081548A3110F4DF0195CFDF0131969C912C
:1058D00090539A30D0F3CD01FC01019640814032C3
:1058E000D9F3F1CF809146048D3411F40C94FA343D
:1058F000843511F40C945244873411F00C94944480
:1059000080914404909145048A31910509F43EC781
:10591000BCF48430910544F4823091050CF021C12F
:1059200097FF2DC00C94AE448430910509F4E7C66E
:105930000C9711F00C94AE440E94D5590C94AE44CF
:105940008E31910509F4C7C73CF48C31910509F4F7
:10595000AEC70CF422C7B0C78B35910511F40C9477
:10596000F1348C35910511F40C94F6348A35910597
:1059700011F00C94AE44109243040C94AE44809108
:105980008B02882311F40C94AE440E94275A88E8B5
:105990009DE00F945A0F0E94257A8091691483FD2F
:1059A0008FC0C090940DD090950DE090960DF09022
:1059B000970D2091E5073091E6074091E707509158
:1059C000E807C701B6010F94FE19882309F478C0CF
:1059D0008091B612811138C060916702709168029F
:1059E000072E000C880B990B0F94041A9B01AC0135
:1059F0006091B2127091B3128091B4129091B5126D
:105A00000F94FE1987FF20C0C092E507D092E607E9
:105A1000E092E707F092E807E5E1F2E384918F0175
:105A20000F5F1F4F882321F00F945E13F801F6CF0C
:105A3000E6E3F2E084918F010F5F1F4F882321F08E
:105A40000F945E13F801F6CFC090940DD090950D91
:105A5000E090960DF090970D2091E5073091E607C4
:105A60004091E7075091E807C701B6010F94361E31
:105A700020E030E048E453E40F945D20181604F56C
:105A8000C092E507D092E607E092E707F092E807B8
:105A9000E5E1F2E384918F010F5F1F4F882321F02E
:105AA0000F945E13F801F6CFE7E1F2E084918F01E5
:105AB0000F5F1F4F882321F00F945E13F801F6CF7C
:105AC0002091880D3091890D40918A0D50918B0D58
:105AD0006091D9077091DA078091DB079091DC071C
