:100000000C9422280C94D9F70C94AEF70C9483F737
:100010000C9458F70C942DF70C9402F70C94D7F627
:100020000C94ACF60C9453280C9453280C9453283D
:100030000C9453280C94F25E0C9453280C9453287F
:100040000C9453280C94E2990C9453280C94532844
:100050000C9453280C9453280D94DA0C0C9466F9E4
:100060000C9453280D94E40A0D947E0B0C945328A1
:100070000C9453280C9453280C9453280C94532814
:100080000C9453280C9453280C9453280C94532804
:100090000C9453280C9453280C9453280C945328F4
:1000A0000C9453280C9453280C9453280C945328E4
:1000B0000C9453280C9453280C9453280C945328D4
:1000C0000C9453280C9453280C9453280C945328C4
:1000D0000C9453280C9453280C9453280C945328B4
:1000E0000C94532804AC04AC0BAC0BAC0BAC12ACB2
:1000F00012AC12AC1FAC19AC19AC19AC3BF43EF409
:100100002DF431F437F475F442F446F44CF450F421
:1001100054F45AF45EF462F475F468F46CF470F418
:1001200082F887F88CF896F8A0F819F9AAF8B2F8CE
:10013000BAF8C4F8CEF8D8F8E7F8F1F819F9FBF8EE
:1001400005F90FF9DE00DA00D600DC00E400E60075
:10015000D400E600E200E800E600D800084AD73BF9
:100160003BCE016E84BCBFFDC12F3D6C74319ABD86
:1001700056833DDA3D00C77F11BED9E4BB4C3E91AA
:100180006BAAAABE000000803F05A84CCDB2D44E99
:10019000B93836A9020C50B9918688083CA6AAAA9B
:1001A0002ABE000000803F000D94450B0D942E0BDD
:1001B0000D94530B0D941D0B0D94390B0D94170BCF
:1001C0000D945B0F0D94490B0D94410B0D94560B40
:1001D0000D944D0B4E414E494E495459494E46CD12
:1001E000CCCC3D0AD7233C17B7D13877CC2B3295EE
:1001F00095E6241FB14F0A000020410000C84200CC
:10020000401C4620BCBE4CCA1B0E5AAEC59D74474E
:10021000322F47332062616420706172616D6574B2
:100220006572730A00205A3A200020593A20004291
:10023000656420583A2000456E642066696C65202C
:100240006C6973740A00426567696E2066696C6543
:10025000206C6973740A004D3132350053442070AC
:1002600072696E74696E67206279746520004E6FE2
:1002700074205344207072696E74696E670A004678
:10028000696C652064656C657465643A0044656CEE
:100290006574696F6E206661696C65642C204669BF
:1002A0006C653A20006F70656E206661696C6564EC
:1002B0002C2046696C653A20002569730025696D1C
:1002C00020256973002569682025696D20256973DB
:1002D00000256964202569682025696D20256973DA
:1002E0000025697920256964202569682025696DC4
:1002F00020256973005072696E742074696D653AC7
:100300002000000125301D0C1824311C0B17232F51
:100310001B0A1E16040308060202222B1A4142037E
:100320003809FF3628294527444350726F746563A6
:100330007465642050696E0A00457874727564654E
:1003400072202573004C756C7A426F742054415AA8
:1003500020362072656164792E0042656420646FE6
:100360006E652E0020573A0042656420686561740E
:10037000696E672E0042656420636F6F6C696E67FB
:100380002E002F2F20007A5F70726F62653A200076
:100390007A5F6D61783A20007A5F6D696E3A20006D
:1003A000795F6D61783A2000795F6D696E3A20005F
:1003B000785F6D61783A2000785F6D696E3A200051
:1003C0005265706F7274696E6720656E6473746FC6
:1003D00070207374617475730A004D313435205385
:1003E0003C696E6465783E206F7574206F6620727C
:1003F000616E67652028302D31290A0053657474B9
:10040000696E672054726176656C20416363656C28
:1004100065726174696F6E3A200053657474696E19
:1004200067205265747261637420416363656C6513
:10043000726174696F6E3A200053657474696E67F7
:10044000205072696E7420416363656C65726174DB
:10045000696F6E3A200053657474696E672050723C
:10046000696E7420616E642054726176656C2041FF
:100470006363656C65726174696F6E3A2000205A1F
:1004800000205900580020204D61783A2000205A61
:1004900000205900580020204D696E3A20004F6E10
:1004A00020004F666600536F667420656E64737437
:1004B0006F70733A200050726F6265205A204F6649
:1004C000667365743A200020643A0020693A00207F
:1004D000703A0020643A0020693A0020703A0043E4
:1004E000290A0061626C656420286D696E2074655C
:1004F0006D702000436F6C6420657874727564655C
:10050000732061726520004B642000236465666976
:100510006E65202044454641554C545F004B692090
:100520000023646566696E65202044454641554C4C
:10053000545F004B70200023646566696E6520205F
:1005400044454641554C545F005049442041757420
:100550006F74756E652066696E69736865642120C5
:1005600050757420746865206C617374204B702C16
:10057000204B6920616E64204B6420636F6E73743E
:10058000616E74732066726F6D2062656C6F772088
:10059000696E746F20436F6E666967757261746906
:1005A0006F6E2E680A00504944204175746F74754F
:1005B0006E65206661696C6564212074696D656F84
:1005C00075740A00544845524D414C2052554E41D5
:1005D00057415900546865726D616C2052756E61A7
:1005E0007761790048656174696E67206661696C3E
:1005F00065640048656174696E67206661696C6551
:100600006400504944204175746F74756E652066AE
:1006100061696C6564212054656D706572617475E3
:10062000726520746F6F20686967680A00204B64E8
:100630003A2000204B693A2000204B703A20000AF3
:1006400020436C617373696320504944200A002081
:1006500054753A2000204B753A2000206D61783A9D
:100660002000206D696E3A200020643A200020624C
:100670006961733A2000426564204C6576656C6957
:100680006E6720004661696C656420746F20656E3A
:1006900061626C6520426564204C6576656C696EAC
:1006A000670A00426564204C6576656C20436F7272
:1006B00072656374696F6E204D61747269783A0077
:1006C0004F666673657473206170706C6965640051
:1006D0004572723A20546F6F206661722100546F28
:1006E0006F206661722066726F6D2072656665723A
:1006F000656E636520706F696E740A003A20002091
:100700007A5F6D696E3A20202D32207A5F6D6178B4
:100710003A2020350A0050726F6265205A204F66D9
:1007200066736574004E6F2063617365206C696742
:1007300068740A004163746976652045787472753F
:100740006465723A2000556E6B6E6F776E20636F32
:100750006D6D616E643A202200434F4D4D554E49F8
:10076000434154494F4E0044525952554E00455250
:10077000524F525300494E464F004543484F0043A5
:100780006F6F6C696E6720646F6E652E00486561DF
:1007900074696E6720646F6E652E0020573A0045BD
:1007A00078747275646572202573004C756C7A429A
:1007B0006F742054415A20362072656164792E008E
:1007C0007A0775076E07670759076F666600444525
:1007D0004255473A004C756C7A426F742054415A26
:1007E0002036204F66662E00205A3A0020593A00E3
:1007F00020436F756E7420583A0020453A00205A05
:100800003A0020593A00583A003A004361703A00E1
:10081000454D455247454E43595F5041525345520D
:1008200000434153455F4C494748545F4252494752
:1008300048544E45535300544F47474C455F4C492D
:100840004748545300534F4654574152455F504F09
:10085000574552004255494C445F50455243454E1E
:1008600054004C4556454C494E475F444154410065
:100870005A5F50524F4245004155544F4C455645E2
:100880004C005052494E545F4A4F420050524F471D
:1008900052455353004155544F5245504F52545FA7
:1008A00054454D5000564F4C554D45545249430008
:1008B000454550524F4D0053455249414C5F584FAA
:1008C0004E5F584F4646004649524D574152455F8C
:1008D0004E414D453A4D61726C696E202046495239
:1008E0004D574152455F56455253494F4E3A312E6E
:1008F000312E382E322045585452554445525F54BB
:100900005950453A53696E676C65457874727564E1
:10091000657220534F555243455F434F44455F55E1
:10092000524C3A68747470733A2F2F636F64652E5B
:10093000616C6570686F626A656374732E636F6D56
:100940002F646966667573696F6E2F4D41524C490D
:100950004E2050524F544F434F4C5F5645525349CF
:100960004F4E3A312E30204D414348494E455F5459
:100970005950453A4C756C7A426F742054415A2054
:10098000362045585452554445525F434F554E54B6
:100990003A3120555549443A38343566303033635E
:1009A0002D616562642D346535332D613662392DD4
:1009B0003764303938346664653630390A004D6F33
:1009C00076652059004D6F7665205A00457874721F
:1009D00075646572004D6F766520302E316D6D0047
:1009E0004D6F766520316D6D004D6F76652031302D
:1009F0006D6D004D6F766520617869730045787480
:100A00007275646572004D6F7665205A004D6F7681
:100A1000652059004D6F76652058004578747275D1
:100A2000646572004D6F7665205A004D6F766520C3
:100A300059004D6F76652058004D6F76656D656E77
:100A40007400436F6F6C646F776E0046616E207345
:100A50007065656420310046616E20737065656461
:100A600020310042656400426564004E6F7A7A6C02
:100A700065004E6F7A7A6C65004D61696E00565460
:100A8000726176206D696E005654726176206D69D0
:100A90006E005654726176206D696E00566D696EF7
:100AA00000566D696E00566D696E00566D61782056
:100AB0004500566D6178204500566D6178204500EF
:100AC000566D6178205A00566D6178205A00566D37
:100AD0006178205A00566D6178205900566D617812
:100AE000205900566D6178205900566D6178205864
:100AF00000566D6178205800566D61782058004D81
:100B00006F74696F6E00416D6178204500416D61C1
:100B100078204500416D6178205A00416D61782050
:100B20005A00416D6178205900416D61782059006B
:100B3000416D6178205800416D6178205800412D49
:100B400074726176656C00412D74726176656C001B
:100B5000412D7265747261637400412D7265747207
:100B600061637400416363656C00416363656C009D
:100B70004D6F74696F6E0025753A2530327500250A
:100B80003032753A253032750025756420253032B3
:100B9000753A253032750000060900FE000000009D
:100BA0000001090008FE000005080806000040F0EA
:100BB000C88888987810050808060000C0F888885A
:100BC000888888F80505050600012030F8302005E2
:100BD00008080600002070F820202020E005090900
:100BE0000600FF2070A8A8B88888702005090906AB
:100BF00000FFE080C0B0A8283028280509090600B9
:100C0000FFF8A88888888888A8F8050A0A0600FEE0
:100C1000205050505088A8A8887003030306000392
:100C200040A04000060900FE0701920321207FFF3B
:100C300007FF07FF0000000600000107070602008B
:100C400080808080800080030202060105A0A0054C
:100C500007070600005050F850F8505005070706E7
:100C600000002078A07028F020050707060000C0CB
:100C7000C810204098180507070600006090A040A3
:100C8000A89068020303060104C04080030707061A
:100C9000010020408080804020030707060100807B
:100CA00040202020408005050506000120A870A8EE
:100CB000200505050600012020F820200203030678
:100CC00002FFC04080050101060003F8020202068F
:100CD0000200C0C00505050600010810204080057F
:100CE0000707060000708888888888700307070651
:100CF000010040C040404040E0050707060000708A
:100D00008808708080F8050707060000F81020109A
:100D10000808F005070706000010305090F8101082
:100D2000050707060000F880F00808887005070727
:100D3000060000708080F0888870050707060000B4
:100D4000F80810202020200507070600007088887A
:100D50007088887005070706000070888878080882
:100D600070020505060200C0C000C0C002060606EB
:100D700002FFC0C000C0408004070706000010202A
:100D80004080402010050303060002F800F8040725
:100D9000070601008040201020408005070706005C
:100DA00000708808102000200507070600007088E2
:100DB0000868A8A870050707060000708888F888EA
:100DC0008888050707060000F08888F08888F00505
:100DD0000707060000708880808088700507070676
:100DE0000000F08888888888F0050707060000F86A
:100DF0008080F08080F8050707060000F88080F00A
:100E0000808080050707060000708880B888887099
:100E1000050707060000888888F888888801070782
:100E20000602008080808080808005070706000021
:100E3000381010101090600507070600008890A079
:100E4000C0A0908805070706000080808080808011
:100E5000F805070706000088D8A88888888805074D
:100E6000070600008888C8A8988888050707060034
:100E70000070888888888870050707060000F08859
:100E800088F080808005070706000070888888A8A1
:100E90009068050707060000F08888F0A090880594
:100EA0000707060000788080700808F0050707062D
:100EB0000000F820202020202005070706000088D9
:100EC00088888888887005070706000088888888D1
:100ED0008850200507070600008888888888A85061
:100EE00005070706000088885020508888050707F6
:100EF000060000888888502020200507070600008B
:100F0000F80810204080F8030707060100E0808001
:100F1000808080E005050506000180402010080360
:100F20000707060100E02020202020E0050303063B
:100F30000004205088050101060000F802020206A4
:100F400002058040050505060000700878887805D0
:100F500007070600008080B0C88888F005050506F0
:100F60000000708080887005070706000008086888
:100F7000988888780505050600007088F880700557
:100F800007070600003048E04040404005060606DE
:100F900000FF7088887808700507070600008080C9
:100FA000B0C888888801070706020080008080801A
:100FB00080800308080601FF200020202020A04098
:100FC000040707060000808090A0C0A090030707D8
:100FD000060100C04040404040E005050506000015
:100FE000D0A8A8A8A8050505060000B0C88888886C
:100FF000050505060000708888887005060606004D
:10100000FFF08888F080800506060600FF78888853
:10101000780808050505060000B0C8808080050531
:101020000506000070807008F00407070600004005
:1010300040E040404030050505060000888888985B
:101040006805050506000088888850200505050606
:1010500000008888A8A850050505060000885020D3
:1010600050880506060600FF888888780870050500
:1010700005060000F8102040F803070706010020CD
:1010800040408040402001070706020080808080A9
:101090008080800307070601008040402040408098
:1010A00005020206000268900000000600005A00D7
:1010B0005900580009200000000000000000000056
:1010C0000000007FFFE000000000000000000000C2
:1010D00000007000E00000000000000000000000C0
:1010E0000061F86000000000000000000000000047
:1010F00041F8200000000000000000000000004057
:10110000F02000000000000000000000000040602F
:10111000200000000000000000000000005801A0B6
:101120007F80000000000000004104005C63A0FF1D
:10113000C0000000000000002082005EF7A0FFC099
:10114000000000000000002082005EF7A0FFC00049
:101150000000000000004104005C63A07F800000EC
:1011600000000000008208005801A07F80000000FD
:1011700000000001041000406020FFC000000000DB
:1011800000000104100040F020FFC000000000003B
:10119000000082080041F820FFC0000000000000AD
:1011A0000041040061F8603F000000000000000002
:1011B0000000007000E01E0000000000000001FFC1
:1011C000FF807FFFE00C0000000000000001FFFF37
:1011D000800000000000000000000000000000008F
:1011E0007FFFE00000000000000000000000007031
:1011F00000E0000000000000000000000000630CA0
:1012000060000000000000000000000000470E2009
:101210000000000000000000000000004F0F200050
:1012200000000000000000000000005F0FA00000B0
:10123000000000000000000000005E07A07F8000AA
:10124000000000000000410400406020FFC00000DA
:10125000000000000020820040F020FFC0000000DD
:101260000000000020820040F020FFC000000000CD
:101270000000004104004060207F8000000000006A
:1012800000008208005E07A07F80000000000000D0
:10129000010410005F0FA0FFC0000000000000016B
:1012A0000410004F0F20FFC000000000000000826B
:1012B0000800470E20FFC0000000000000004104AD
:1012C00000630C603F000000000000000000000010
:1012D0007000E01E0000000000000001FFFF807FA2
:1012E000FFE00C0000000000000001FFFF80000094
:1012F000000201050800FF060121023520FFFF075B
:10130000FF06FF090050221656808080800080155D
:101310003353A0A0A00257575050F850F850500235
:1013200057572070A07028702013355580A040A01A
:101330002002475740A0A040A0A050251353808012
:101340008012265640808080804012265680404081
:101350004040800245559060F06090025555202035
:10136000F82020113353604080044151F011335371
:1013700040E0400246561010204080801236564011
:10138000A0A0A0A04012365640C0404040E0024617
:10139000566090106080F0024656F0206010906019
:1013A0000246562060A0F02020024656F080E01051
:1013B00090600246566080E0909060024656F010C1
:1013C0002020404002465660906090906002465651
:1013D000609090701060122555C0C000C0C01136DA
:1013E0005660600060408012365620408080402069
:1013F000034353F000F01236568040202040801204
:10140000365640A020400040015858304898A8A8BF
:10141000904030024656609090F09090024656E020
:1014200090E09090E0024656609080809060024686
:1014300056E090909090E0024656F080E08080F078
:10144000024656F080E0808080024656609080B070
:1014500090600246569090F0909090123656E04080
:10146000404040E002465670202020A040024656F0
:1014700090A0C0A0A0900246568080808080F0029C
:10148000465690F0F090909002465690D0F0B0B052
:1014900090024656609090909060024656E0909080
:1014A000E08080014757609090D0B06010024656AF
:1014B000E09090E09090024656609040209060123C
:1014C0003656E04040404040024656909090909002
:1014D00060024656909090906060024656909090C0
:1014E000F0F09002465690906060909002565688B8
:1014F0008850202020024656F010204080F01236FE
:1015000056E080808080E0024656808040201010A7
:10151000123656E020202020E016325240A0014131
:1015200051F016225280400244547090907002464E
:10153000568080E09090E0123454608080600246D3
:101540005610107090907002445460B0C060024613
:1015500056205040E04040014555609070106002B8
:1015600046568080E09090901236564000C0404031
:10157000E01137572000202020A0400246568080EE
:1015800090E09090123656C040404040E0025454E3
:10159000D0A8A8A8024454E09090900244546090CF
:1015A0009060014555E090E0808001455570907055
:1015B0001010024454A0D0808012345460C020C067
:1015C0000246564040E040502002445490909070B3
:1015D000123454A0A0A04002545488A8A850024439
:1015E0005490606090014555909070906002445412
:1015F000F02040F0024757304020C02040302216F3
:1016000056808080808080024757C0204030402034
:10161000C006425250A0FFFFFFFFFFFFFFFFFFFF8A
:10162000FFFFFFFFFFFFFFFFFFFFFFFFFFFFFFFFCA
:10163000FFFFFFFFFFFFFF090050221656800080CA
:101640008080800146562070A0A07020024656205F
:1016500050E04050A0025555887050708802565690
:101660008850F820F82022175780808000808080E2
:101670000247577080E0907010E0173151A0025679
:101680005670A8C8C8A87014355560A06000E00363
:10169000435350A050123353E02020143151E00244
:1016A000565670E8D8E8D870173151E015335340DA
:1016B000A04012355540E04000E014355540A020D0
:1016C00040E0143555C020C020C016225240800191
:1016D0004555909090E08002565678E8E8682828B2
:1016E00024115180112252408014355540C0404091
:1016F000E014355540A04000E0034353A050A00241
:101700004757808080A060F0200247578080A0D09B
:1017100010207002475780408060A0F0201236569B
:1017200040004080A04002475740206090F09090D9
:1017300002475720406090F09090024757609060B9
:1017400090F0909002475750A06090F09090024720
:101750005790006090F0909002475760906090F032
:10176000909002465670A0A0F0A0B001475760903C
:1017700080809060400247574020F080E080F00277
:1017800047572040F080E080F00247576090F0809B
:10179000E080F00247579000F080E080F012375769
:1017A0008040E0404040E01237572040E040404059
:1017B000E012375740A0E0404040E0123757A00009
:1017C000E0404040E00256567048E8484870024702
:1017D0005750A090D0B09090024757402060909012
:1017E0009060024757204060909090600247576099
:1017F00090609090906002475750A06090909060E9
:1018000002475790006090909060123353A040A020
:1018100002465670B0B0D0D0E002475740209090BA
:1018200090906002475720409090909060024757F8
:1018300060909090909060024757900090909090A8
:10184000600257571020885020202002465680E022
:101850009090E0800246566090A0A090A00247576A
:101860004020007090907002475720400070909088
:10187000700247572050007090907002475750A058
:101880000070909070024656500070909070024721
:101890005760906070909070025454F068B0781166
:1018A0003555608080604002475740200060B0C0DE
:1018B0006002475720400060B0C060024757609008
:1018C0000060B0C060024656500060B0C060123781
:1018D00057804000C04040E0123757204000C040D1
:1018E00040E012375740A000C04040E0123656A0FA
:1018F00000C04040E0024757A040A0107090600236
:10190000475750A000E09090900247574020006059
:1019100090906002475720400060909060024757C7
:101920006090006090906002475750A000609090D7
:10193000600246569000609090601235554000E07D
:10194000004002445470B0D0E0024757402000905D
:101950009090700247572040009090907002475737
:101960006090009090907002465690009090907019
:101970000148582040009090709060014757808047
:10198000E090E08080014757900090907090600157
:10199000050700FE0500FB01F220FFFE05FE05FE27
:1019A0000200400215258080800080053242A0A000
:1019B00002556550F850F8500146562070C030E08E
:1019C000200255659010204048025565608068905F
:1019D00068051222808002253540808080400225E3
:1019E000358040404080043343A040A0033343404F
:1019F000E0400122324080043141E00211218002A6
:101A00005565081020408002455560909090600216
:101A10002535C040404040024555E0106080F0024E
:101A20004555E0106010E00245552060A0F020020E
:101A30004555F080E010E00245556080E09060027E
:101A40004555F0102040400245556090609060027E
:101A500045556090701060031323800080021424A9
:101A6000800080800235452040804020033343E0E1
:101A700000E00235458040204080024555E010607E
:101A800000400255657088B8A87002455560909076
:101A9000F090024555E090E090E00235456080808E
:101AA0008060024555E0909090E0023545E080E08E
:101AB00080E0023545E080E080800245557080B0CE
:101AC00090700245559090F09090023545E040406E
:101AD00040E0024555301010906002455590A0C07E
:101AE000A09002354580808080E002556588D8A8A6
:101AF000888802455590D0B09090024555609090EE
:101B00009060024555E09090E080014656609090CC
:101B1000906010024555E09090E09002455570802D
:101B20006010E0023545E04040404002455590904D
:101B30009090600245559090A0A04002556588A8FD
:101B4000A8A85002455590906090900245559090FD
:101B5000701060023545E0204080E0022535C080ED
:101B60008080C00255658040201008022535C040A5
:101B70004040C005324240A0024151F0052232806F
:101B8000400244547090907002455580E09090E07F
:101B9000023444608080600245551070909070025D
:101BA000445460B0C0600235452040E040400046EB
:101BB0005670909070106002455580E090909002B1
:101BC000152580008080800027374000404040403D
:101BD000800245558090A0E090021525808080808D
:101BE00080025464F0A8A8A8024454E090909002A7
:101BF000445460909060004656E09090E0808000F1
:101C00004656709090701010023444A0C08080023C
:101C1000445470C030E002354540E040402002446A
:101C200054909090700244549090A040025464A844
:101C3000A85050023444A04040A0004656909090D6
:101C4000701060024454F02040F00235456040803E
:101C500040600215258080808080023545C040208C
:101C600040C005425250A0FFFFFFFFFFFFFFFFFFF4
:101C7000FFFFFFFFFFFFFFFFFFFFFFFFFFFFFFFF74
:101C8000FFFFFFFFFFFFFFFF020040FFFFFFFFFF1F
:101C9000FFFFFFFFFFFFFFFFFFFFFFFFFFFFFFFF54
:101CA000FFFFFFFFFFFFFFFFFFFFFFFFFFFFFFFF44
:101CB000FFFFFFFFFFFFFFFFFFFFFFFFFFFFFFFF34
:101CC000FFFFFFFFFFFFFFFFFFFFFFFFFFFFFFFF24
:101CD000FFFFFFFFFFFFFFFFFFFFFFFFFFFFFFFF14
:101CE000FFFFFFFFFFFFFFFFFFFF01060D00FE09E3
:101CF000016602D620FFFE0BFE0AFE0D00602219CF
:101D000069808080808080800080183363A0A0A0DC
:101D10000357675050F850F850500259692078A086
:101D2000A0702828F02002596948A850102040507F
:101D3000A89002586840A0A040A09890682813631B
:101D4000808080113B6B20404080808080804040BC
:101D500020113B6B80404020202020204040800606
:101D6000556520A870A8200455652020F820201172
:101D70003363604080065161F811336340E04002F4
:101D8000596908081010204040808002596920508D
:101D9000888888888850200259692060A0202020E7
:101DA0002020F80259697088880810204080F802C5
:101DB0005969F808102070080888700259691010D5
:101DC00030505090F81010025969F88080B0C8085F
:101DD00008887002596970888080F088888870024D
:101DE0005969F80810102020404040025969708855
:101DF000888870888888700259697088888878080F
:101E000008887011386840E040000040E040113818
:101E10006840E0400000604080025969081020409E
:101E20008040201008045464F80000F802596980CA
:101E300040201008102040800259697088880810DE
:101E40002020002002596970888898A8A8B080785E
:101E50000259692050888888F8888888025969F072
:101E600048484870484848F0025969708880808026
:101E700080808870025969F048484848484848F0CE
:101E8000025969F8808080F0808080F8025969F8F2
:101E9000808080F080808080025969708880808096
:101EA0009888887002596988888888F8888888881E
:101EB000123969E040404040404040E002596938F2
:101EC0001010101010109060025969888890A0C0FE
:101ED000A09088880259698080808080808080F806
:101EE0000259698888D8A8A888888888025969888A
:101EF000C8C8A8A89898888802596970888888886E
:101F000088888870025969F0888888F0808080808D
:101F1000015A6A70888888888888A8700802596978
:101F2000F0888888F0A0908888025969708880803D
:101F30007008088870025969F8202020202020208D
:101F40002002596988888888888888887002596939
:101F5000888888885050502020025969888888884D
:101F6000A8A8A8A8500259698888505020505088C5
:101F70008802596988885050202020202002596901
:101F8000F808101020404080F8113B6BE080808002
:101F9000808080808080E0025969808040402010ED
:101FA000100808113B6BE02020202020202020205A
:101FB000E0085363205088015161F82A2262804072
:101FC000025666700878889868025969808080F0A7
:101FD00088888888F00256667088808088700259E8
:101FE000690808087888888888780256667088F8B2
:101FF00080887002596930484040F04040404000BD
:10200000586870888888780888700259698080804C
:10201000B0C8888888881238684000C04040404076
:10202000E0004A6A100030101010109090600259C1
:102030006980808090A0C0A09088123969C040401B
:102040004040404040E0025666D0A8A8A8A88802B8
:102050005666B0C8888888880256667088888888DE
:1020600070005868F0888888F08080800058687810
:1020700088888878080808025666B0C88080808002
:102080000256667088601088700258684040F040C0
:1020900040404830025666888888889868025666AC
:1020A0008888885050200256668888A8A8A85002C0
:1020B000566688502020508800586888888898681C
:1020C000088870025666F810204080F8015B6B1893
:1020D00020202020C0202020201822196980808004
:1020E000808080808080015B6BC0202020201820B1
:1020F000202020C008536348A890FFFFFFFFFFFF88
:10210000FFFFFFFFFFFFFFFFFFFFFFFFFFFFFFFFDF
:10211000FFFFFFFFFFFFFFFFFFFFFF0D0060221922
:10212000698000808080808080800358682070A84B
:10213000A0A0A8702002596930484040E0404048C3
:10214000B00356668870505070880259698888506C
:1021500050F820F82020221969808080800080803B
:102160008080124A6A609080609090601090601A3F
:102170003262A0A00359697088A8D8C8D8A888700E
:10218000045767700878887800F80356662850A0CE
:10219000A05028045363F80808163161E003596918
:1021A0007088E8D8D8E8D888700A5161F817446474
:1021B000609090600357672020F8202000F80735D2
:1021C0006540A02040E007356540A04020C02A229D
:1021D0006240800058688888888898E88080025922
:1021E0006978E8E8E8E868282828262161C02022E4
:1021F00062408007356540C04040E0045767708802
:1022000088887000F8035666A050282850A0025A0B
:102210006A40C04040E00818283808025A6A40C0A6
:102220004040E01028081038025A6A40A04020A020
:1022300048182838080259692000202040808888E2
:1022400070025A6A40200020508888F88888025A14
:102250006A10200020508888F88888025A6A30481E
:102260000020508888F88888025A6A285000205038
:102270008888F88888025A6A50500020508888F868
:102280008888025A6A20502020508888F88888025E
:10229000596958A0A0A0B0E0A0A0B8005B6B7088FE
:1022A000808080808088702040025A6A402000F838
:1022B0008080F08080F8025A6A102000F88080F058
:1022C0008080F8025A6A304800F88080F08080F8F8
:1022D000025A6A505000F88080F08080F8123A6A02
:1022E000804000E04040404040E0123A6A20400018
:1022F000E04040404040E0124A6A609000E04040C8
:10230000404040E0123A6AA0A000E0404040404017
:10231000E0025969F0484848E8484848F0025A6ADB
:102320002850008888C8A8988888025A6A402000E7
:1023300070888888888870025A6A1020007088889F
:1023400088888870025A6A3048007088888888882F
:1023500070025A6A28500070888888888870025AEB
:102360006A50500070888888888870035565885046
:10237000205088015B6B08709898A8A8A8C8C870FE
:1023800080025A6A40200088888888888870025AAB
:102390006A10200088888888888870025A6A3048C5
:1023A0000088888888888870025A6A505000888817
:1023B0008888888870025A6A1020008888502020F7
:1023C000202002596980F0888888F0808080025936
:1023D00069609090A0A0908888B002596940200060
:1023E0007008788898680259691020007008788809
:1023F00098680259693048007008788898680259CE
:10240000692850007008788898680259695050000F
:10241000700878889868025A6A30483000700878E6
:10242000889868025666702870A0A8500058687096
:10243000888080887020400259694020007088F8A8
:102440008088700259691020007088F880887002B6
:1024500059693048007088F8808870025969505076
:10246000007088F8808870123969804000C0404050
:102470004040E0123969204000C040404040E01236
:102480004969609000C040404040E0123969A0A016
:1024900000C040404040E0025A6A502060107088FE
:1024A00088888870025969285000B0C88888888850
:1024B0000259694020007088888888700259691024
:1024C00020007088888888700259693048007088B8
:1024D00088888870025969285000708888888870B8
:1024E00002596950500070888888887003576720A7
:1024F0002000F8002020015868087098A8A8C8702B
:102500008002596940200088888888986802596943
:1025100010200088888888986802596930480088A7
:1025200088888898680259695050008888888898F7
:1025300068005B6B102000888888986808887000A5
:102540005A6A8080B0C88888C8B08080005B6B50B1
:102550005000888888986808887000000000000093
:10256000000000000000000000000000000000006B
:10257000000000000000000000000000000C00004F
:1025800000000000000C000000000000001200002D
:1025900000000000002300000000000000210000F7
:1025A00000000000004C800000000000005E800081
:1025B00000000000009240000000000000A1400068
:1025C000000000000121200000000000027F9000B8
:1025D00000000000020010000000000007FFF800EB
:1025E00000000000040008000000000008000400D3
:1025F00000000000080006000000000010000200BB
:1026000000000000301E010000000000207F81005B
:102610000000000041FFE0800000000043FCF0806B
:1026200000000000873B7840000000018EDBFC606A
:10263000000000010FEBCC20000000021FEDB610DF
:10264000000000021FDEB6100000000439CD7F0834
:102650000000000436E0FF08000000087EC0BB84D4
:10266000000000187F005D86000000107FC0ED8232
:10267000000000203CC07301000000203B337F01BC
:10268000000000701BE77E03800000C81DEEDE0422
:10269000C00000880FDEDC04400001240FDF3C098D
:1026A0002000012607DBF8192000027203E7F0136F
:1026B0009000025101FFE02290000489007F8024F5
:1026C00048000904801E004824000BFE400000DF83
:1026D000F40010004000008002001FFFFFFFFFFF1A
:1026E000FE000000000000000000000000000000EC
:1026F000000000000000000000001022103C3C0E12
:102700001F001022100422110400102210082211B0
:102710000400102210083C11040010221010221195
:10272000040010221020221104001E1C1E3C3C0E2E
:102730000400000000000000000000000000000095
:102740000000000000000000000000000000000089
:102750000000000000000000000000000000000079
:102760000000000000000000000000000000000069
:102770000000000000000000000000000000000059
:102780000000000000000000000000000000000049
:1027900000000000000000005344206361726420C8
:1027A0006F6B0A006F70656E526F6F74206661699F
:1027B0006C65640A00766F6C756D652E696E697460
:1027C000206661696C65640A00534420696E69740F
:1027D000206661696C0A006175746F25692E670057
:1027E0004D3234004D3233202573005772697469BD
:1027F0006E6720746F2066696C653A20006F7065A3
:102800006E206661696C65642C2046696C653A20AF
:10281000006F70656E206661696C65642C20466986
:102820006C653A200046696C652073656C6563745D
:1028300065640A002053697A653A200046696C6530
:10284000206F70656E65643A20006F70656E20665B
:1028500061696C65642C2046696C653A20002066CD
:10286000696C653A2000646F696E67006672657313
:1028700068004E6F772000454E4420535542524F1A
:102880005554494E450A002220706F730022207073
:102890006172656E743A2200535542524F55544945
:1028A0004E452043414C4C207461726765743A2256
:1028B000004B494C4C45442E2000747279696E6778
:1028C00020746F2063616C6C207375622D67636F79
:1028D00064652066696C6573207769746820746F1D
:1028E0006F206D616E79206C6576656C732E204D5E
:1028F0004158206C6576656C2069733A00457272A8
:102900006F723A001FFFFFFFFFFFFF600000000033
:1029100001FF400000000000FF8000000000007F79
:1029200083CF00000C303F87FF80000C301F86797A
:1029300080000C000F8C30C7838C30E78C30CFC701
:10294000CC31F38C30DCECEC33B98C30D86C6C339C
:10295000198C30D06C0C33198C30D86C0C33198C2A
:1029600030DC6C0E3B198C30CF7C079F198C30C744
:102970007C038F194000000000000260000000008E
:1029800000061FFFFFFFFFFFF82020506C616E6EF6
:10299000657242756666657242797465733A2000A5
:1029A0002046726565204D656D6F72793A2000434F
:1029B0006F6D70696C65643A204A616E2033302017
:1029C000323031380A00207C20417574686F723AC9
:1029D0002028416C657068204F626A6563747320BB
:1029E000496E632E2C204C756C7A426F74204769B7
:1029F00074205265706F7369746F7279290A004A86
:102A0000616E203330203230313831353A31353A49
:102A1000353100204C6173742055706461746564B5
:102A20003A2000312E312E380A004D61726C696EE9
:102A30000020536F66747761726520526573657408
:102A40000A00205761746368646F6720526573657C
:102A5000740A002042726F776E206F757420526581
:102A60007365740A002045787465726E616C20523B
:102A7000657365740A00506F77657255700A00734C
:102A8000746172740A006572726F72207772697471
:102A9000696E6720746F2066696C650A00456E6414
:102AA00073746F70732025632025632025632025B0
:102AB000630020503A00205A3A0020593A0020582A
:102AC0003A00656E6473746F7073206869743A209D
:102AD00000446F6E6520736176696E672066696C6D
:102AE000652E0A004D323900457874727564652090
:102AF0006D6F726500526573756D65207072696ED9
:102B00007400524553554D45204F5054494F4E5334
:102B10003A0020204E6F7A7A6C653A200063686133
:102B20006E6765006F66207468652066696C616D0C
:102B3000656E74005761697420666F7220737461EA
:102B40007274005052494E54205041555345440030
:102B500020204E6F7A7A6C653A2000200066696CFE
:102B6000616D656E7420756E6C6F6164005761698C
:102B70007420666F72005052494E54205041555394
:102B800045440020204E6F7A7A6C653A2000200080
:102B9000506C6561736520776169742E2E2E004834
:102BA000656174696E67206E6F7A7A6C6500505249
:102BB000494E54205041555345440020204E6F7AD1
:102BC0007A6C653A2000200068656174206E6F7A27
:102BD0007A6C652E00507265737320627574746F21
:102BE0006E20746F005052494E5420504155534549
:102BF000440020204E6F7A7A6C653A2000746F2072
:102C0000636F6E74696E75652E2E2E00616E642082
:102C1000707265737320627574746F6E00496E73A1
:102C20006572742066696C616D656E7400505249FE
:102C30004E54205041555345440020204E6F7A7A1F
:102C40006C653A2000200066696C616D656E7420C9
:102C50006C6F6164005761697420666F7200505236
:102C6000494E54205041555345440020204E6F7A20
:102C70007A6C653A2000200066696C616D656E743F
:102C80002065787472756465005761697420666F99
:102C900072005052494E54205041555345440074DF
:102CA0006F20726573756D65005761697420666F7A
:102CB00072207072696E74005052494E5420504117
:102CC0005553454400436172642072656D6F7665AB
:102CD00064004361726420696E7365727465640098
:102CE00000060900FE06018902FE20FFFE07FE061F
:102CF000FE00000006000701060606020080808034
:102D0000800080030303060103A0A0A005070706B7
:102D100000FF5050F850F850500509090600FE20F9
:102D200070A8A07028A870200608080600FF40A818
:102D30004810204854080507070600FF609090607F
:102D4000989068010303060203808080020707064B
:102D500002FF408080808080400207070602FF80DB
:102D60004040404040800505050600008850F8506E
:102D7000880505050600002020F82020020404062E
:102D800002FEC0404080050101060002F802020276
:102D9000060200C0C0040606060100101020408094
:102DA000800406060601006090909090600306067D
:102DB00006010040C0404040E004060606010060F5
:102DC00090102040F0040606060100F0206010106C
:102DD000E005060606000010305090F810040606C4
:102DE000060100F080E01010E00406060601006015
:102DF00080E0909060040606060100F0101020406C
:102E0000400406060601006090609090600406068B
:102E1000060100609090701060020505060200C077
:102E2000C000C0C00207070602FEC0C000C040408C
:102E3000800505050600001860806018050303067C
:102E40000001F800F8050505060000C0300830C094
:102E50000407070601006090106040004005060668
:102E60000600007090A8B0807005060606000020DD
:102E70005088F88888050606060000F088F08888E3
:102E8000F00406060601006090808090600406064B
:102E9000060100E090909090E0040606060100F024
:102EA00080E08080F0040606060100F080E080806B
:102EB00080040606060100609080B090600406065B
:102EC0000601009090F0909090030606060100E045
:102ED00040404040E0050606060000381010109003
:102EE0006004060606010090A0C0A09090040606AB
:102EF0000601008080808080F005060606000088BC
:102F0000D8A8A8888804060606010090D0B0909042
:102F100090050606060000708888888870040606FA
:102F2000060100E09090E080800407070601FF6042
:102F30009090D0B06010040606060100E09090E08A
:102F400090900406060601006090402090600506FF
:102F500006060000F82020202020040606060100B6
:102F6000909090909060040606060100909090F07A
:102F700060600506060600008888A8A8D8880506AF
:102F8000060600008850202050880506060600002E
:102F9000888850202020040606060100F0102040FA
:102FA00080F0030606060100E080808080E00406D1
:102FB000060601008080402010100306060601006E
:102FC000E020202020E005030306000320508805B0
:102FD00001010600FEF80202020602048040040419
:102FE00004060100709090700406060601008080BF
:102FF000E09090E0040404060100708080700406F4
:103000000606010010107090907004040406010080
:1030100060B0C070040606060100205040E0404049
:103020000406060601FE6090907010600406060615
:1030300001008080E09090900306060601004000A9
:10304000C04040E00308080601FE20006020202068
:10305000A0400406060601008080A0C0A0900306E0
:1030600006060100C040404040E0050404060000A0
:10307000D0A8A888040404060100E09090900404FD
:1030800004060100609090600406060601FEE090D0
:1030900090E080800406060601FE7090907010108B
:1030A000040404060100A0D080800404040601008A
:1030B00070C030E00406060601004040E0405020A9
:1030C00004040406010090909070040404060100BA
:1030D0009090606005040406000088A8A8500404CD
:1030E00004060100906060900406060601FE9090C0
:1030F00090709060040404060100F02040F0030783
:1031000007060100204040804040200107070602DA
:10311000FF80808080808080030707060100804058
:10312000402040408004020206010350A0FFFFFF40
:10313000FFFFFFFFFFFFFFFFFFFFFFFFFFFFFFFF9F
:10314000FFFFFFFFFFFFFFFFFFFFFFFFFFFF00008D
:1031500000060007010606060200800080808080CD
:103160000406060601FF2070A0A0702005070706D0
:1031700000FF304840F04040F8050505060000A873
:10318000508850A80506060600008850F820F82050
:103190000107070602FF8080800080808004070707
:1031A0000601FF708060906010E0030101060105D8
:1031B000A0060707060000788494A4948478030589
:1031C0000506010160A06000E00505050600002875
:1031D00050A05028040303060100F0101004010160
:1031E000060102F00607070600007884B4A4A48450
:1031F00078040101060105F0040303060102609052
:10320000600507070600FF2020F8202000F80305CE
:103210000506010140A02040E0030505060101C0AC
:10322000204020C002020206020440800405050678
:1032300001FF9090B0D08005060606000078E8E80F
:10324000682828010101060202800202020602FE2D
:10325000408003050506010140C04040E00305052C
:1032600006010140A04000E0050505060000A05051
:103270002850A00508080600FF40C0405070307874
:10328000100508080600FF40C040506808103805C7
:1032900008080600FFC0204030F03078100407070F
:1032A00006010020002060809060050707060000EE
:1032B0004020205070888805070706000010202055
:1032C000507088880507070600002050205070883D
:1032D00088050707060000285020507088880507D9
:1032E0000706000050002050708888050707060078
:1032F000002050205070888805060606000078A03F
:10330000F0A0A0B80408080601FE609080809060DC
:1033100020400407070601004020F080E080F00410
:1033200007070601002040F080E080F00407070650
:1033300001002050F080E080F004070706010050F3
:1033400000F080E080F00307070601008040E040C5
:103350004040E00307070601002040E0404040E015
:1033600003070706010040A0E0404040E0030707D4
:10337000060100A000E0404040E00506060600000F
:103380007048E848487004070706010050A090D034
:10339000B090900407070601004020609090906074
:1033A0000407070601002040609090906004070722
:1033B000060100205060909090600407070601000D
:1033C00050A06090909060040707060100500060D4
:1033D00090909060050505060000885020508804F4
:1033E00008080601FF1070B0B0D0D0E080040707D5
:1033F00006010040209090909060040707060100AD
:1034000020409090909060040707060100205090A3
:1034100090909060040707060100500090909090F3
:1034200060050707060000102088502020200406B1
:103430000606010080E09090E08004060606010088
:103440006090A0A090A00407070601004020007033
:103450009090700407070601002040007090907063
:1034600004070706010020500070909070040707C1
:1034700006010050A000709090700406060601003E
:1034800050007090907004070706010020502070D3
:1034900090907005040406000070A8B07804060639
:1034A0000601FE708080702040040707060100407E
:1034B000200060B0C07004070706010020400060D3
:1034C000B0C07004070706010020500060B0C07053
:1034D000040606060100500060B0C070030707062E
:1034E0000100804000C04040E003070706010020C3
:1034F0004000C04040E003070706010040A000C0B4
:103500004040E0030606060100A000C04040E00481
:1035100007070601003060107090906004070706EE
:10352000010050A000E090909004070706010040C1
:1035300020006090906004070706010020400060B2
:103540009090600407070601002050006090906092
:1035500004070706010050A0006090906004060672
:1035600006010050006090906005050506000020EF
:1035700000F8002004040406010070B0D0E0040745
:103580000706010040200090909070040707060194
:103590000020400090909070040707060100205022
:1035A00000909090700406060601005000909090E4
:1035B000700409090601FE20400090909070906010
:1035C0000408080601FE8080E09090E080800408F6
:1035D000080601FE50009090907090604C696E65F6
:1035E000204E756D626572206973206E6F74204C79
:1035F000617374204C696E65204E756D6265722B27
:10360000312C204C617374204C696E653A20005354
:10361000544F505045442E20005072696E746572AC
:103620002073746F707065642064756520746F20FA
:103630006572726F72732E204669782074686520F7
:103640006572726F7220616E6420757365204D39EA
:10365000393920746F20726573746172742E20285A
:1036600054656D706572617475726520697320723E
:10367000657365742E2053657420697420616674C7
:1036800065722072657374617274696E67290A00CD
:103690004E6F20436865636B73756D20776974683E
:1036A000206C696E65206E756D6265722C204C61B0
:1036B0007374204C696E653A2000636865636B73B0
:1036C000756D206D69736D617463682C204C617336
:1036D00074204C696E653A20004D313130004D3315
:1036E000310053442072656164206572726F720A02
:1036F00000446F6E65207072696E74696E67206633
:10370000696C650A0020746F6F206C6F6E672065AE
:103710007874727573696F6E2070726576656E74F9
:1037200065640A0020636F6C642065787472757339
:10373000696F6E2070726576656E7465640A004309
:10374000616E6E6F74206F70656E20737562646950
:103750007220006563686F3A00544845524D414CF1
:103760002052554E41574159204245440054686506
:10377000726D616C2052756E6177617900544845B5
:10378000524D414C2052554E415741592045310030
:10379000544845524D414C2052554E4157415920B5
:1037A00045300000002200250028002B002E0031AB
:1037B00000340002010000050108010B0100002196
:1037C00000240027002A002D0030003300010100F2
:1037D00000040107010A0105050505070508080899
:1037E00008020202020A0A08080404040401010192
:1037F000010101010103030303030303030407079A
:10380000070C0C0C0C0C0C0C0C0202020206060637
:1038100006060606060B0B0B0B0B0B0B0B0102101F
:1038200020200808102040102040800201020108DA
:10383000040201010204081020408080402010088A
:1038400004020180040201804020100804020108E3
:103850000402010102040810204080010204081043
:1038600020408024F4D43050C38E20C2A24017825E
:103870008B7011127A910D816CD90AA861E108C789
:10388000586607615143061E4B5D05C145A7041AE2
:10389000411104093D9803713931034036DB02655B
:1038A000339102D4305402802E1D02632CEE017538
:1038B0002AC501B028A001102781018F2564012BA2
:1038C000244B01E0223401AC211F018D200D018029
:1038D0001FFC00841EED00971DDF00B81CD200E61F
:1038E0001BC600201BBC00641AB200B219A8000A53
:1038F00019A0006A189900D117910040178B00B5E4
:1039000016840031167E00B31579003A157300C78E
:10391000146F0058146A00EE1366008813630025C4
:10392000135E00C7125B006C12570015125400C1E1
:1039300011510070114F0021114B00D61049008D1C
:103940001047004610440002104200C00F400080A3
:103950000F3E00420F3C00060F3B00CB0E38009399
:103960000E37005C0E3500270E3400F30D3200C117
:103970000D3100900D3000600D2E00320D2D000530
:103980000D2C00D90C2B00AE0C2900850C29005CF5
:103990000C2700350C27000E0C2600E80B2400C471
:1039A0000B2400A00B23007D0B23005A0B210039B0
:1039B0000B2100180B2000F80A1F00D90A1E00BBBB
:1039C0000A1E009D0A1D00800A1D00630A1C004794
:1039D0000A1B002C0A1B00110A1A00F7091A00DD45
:1039E000091900C4091900AB091900920917007BD5
:1039F000091800630917004C091600360916002043
:103A00000916000A091500F5081500E0081400CC95
:103A1000081400B8081400A4081400900813007DCE
:103A20000812006B081300580812004608120034F0
:103A3000081100230811001208110001081100F0FC
:103A4000071000E0071000D0071000C0071000B0FA
:103A5000070F00A107100091070E0083070F0074E5
:103A6000070F0065070E0057070E0049070E003BC1
:103A7000070D002E070E0020070D0013070D00068E
:103A8000070D00F9060C00ED060D00E0060C00D451
:103A9000060C00C8060C00BC060C00B0060C00A406
:103AA000060B0099060C008D060B0082060B0077B2
:103AB000060B006C060B0061060A0057060B004C53
:103AC000060A0042060A0038060A002E060A0024EA
:103AD000060A001A060A001006090007060A00FD79
:103AE000050900F4050900EB050900E2050900D904
:103AF000050900D0050900C7050900BE050900B584
:103B0000050800AD050800A50509009C05080094FE
:103B10000508008C050800840508007C0508007471
:103B20000508006C050700650508005D05070056DF
:103B30000508004E05070047050700400508003846
:103B4000050700310507002A050700230507001CAB
:103B5000050600160507000F050700080506000208
:103B6000050700FB040600F5040700EE040600E864
:103B7000040600E2040700DB040600D5040600CFBB
:103B8000040600C9040600C3040600BD040600B70D
:103B9000040600B1040500AC040600A6040600A05B
:103BA0000405009B04060095040500900406008AA5
:103BB00004050085040500800406007A04050075EC
:103BC000040500700405006B04050066040500612F
:103BD0000405005C04050057040500520405004D6F
:103BE00004050048040500430405003E0404003AAF
:103BF00004050035040500300404002C04050027EA
:103C0000040400230405001E0404001A0404001622
:103C1000040500110404000D040400090405000457
:103C200004040000040400FC030400F8030400F48E
:103C3000030400F0030400EC030400E8030400E4C0
:103C4000030400E0030400DC030400D8030400D4F0
:103C5000030400D0030400CC030400C8030300C520
:103C600003030024F404D9201BC40C5C0E9804C484
:103C7000095F0265077101F405F900FB04B3004810
:103C8000048700C10369005803550003034500BEC3
:103C9000023A008402310053022A0029022500045E
:103CA000022000E4011C00C8011900AF01170098B0
:103CB0000114008401130071011000610110005112
:103CC000010E0043010D0036010B002B010B0020FB
:103CD000010B00150109000C01090003010800FB9C
:103CE000000800F3000800EB000700E4000600DE17
:103CF000000600D8000600D2000600CC000500C770
:103D0000000500C2000500BD000400B9000400B5B4
:103D1000000400B1000400AD000400A9000400A5E7
:103D2000000300A20003009F0004009B0003009812
:103D30000003009500020093000300900003008D33
:103D40000002008B0003008800020086000200844D
:103D5000000300810002007F0002007D0002007B62
:103D60000002007900020077000100760002007472
:103D700000020072000100710002006F0002006D7D
:103D80000001006C0002006A000100690002006787
:103D9000000100660001006500010064000200628D
:103DA00000010061000100600001005F0002005D91
:103DB0000001005C0001005B0001005A0001005995
:103DC0000001005800010057000100560001005595
:103DD0000001005400010053000000530001005294
:103DE00000010051000100500001004F0001004E91
:103DF0000000004E0001004D0001004C0001004B8E
:103E00000000004B0001004A000100490001004889
:103E10000000004800010047000100460000004685
:103E2000000100450000004500010044000100437E
:103E30000000004300010042000000420001004178
:103E400000000041000100400001003F0000003F71
:103E50000001003E0000003E0001003D0000003D6A
:103E60000001003C0000003C0000003C0001003B61
:103E70000000003B0001003A0000003A0001003958
:103E80000000003900010038000000380000003850
:103E90000001003700000037000100360000003646
:103EA000000000360001003500000035000000353C
:103EB0000001003400000034000000340001003331
:103EC0000000003300000033000100320000003227
:103ED000000000320001003100000031000000311C
:103EE0000001003000000030000000300001002F11
:103EF0000000002F0000002F0000002F0001002E06
:103F00000000002E0000002E0001002D0000002DFA
:103F10000000002D0000002D0001002C0000002CEE
:103F20000000002C0000002C0001002B0000002BE2
:103F30000000002B0000002B0001002A0000002AD6
:103F40000000002A0000002A0001002900000029CA
:103F500000000029000000290000002900010028BD
:103F600000000028000000280000002800000028B1
:103F700000010027000000270000002700000027A4
:103F80000000002700010026000000260000002697
:103F9000000000260000002600010025000000258A
:103FA000000000250000002500000025000000257D
:103FB0000001002400000024000000240000002470
:103FC0000000002400010023000000230000002363
:103FD0000000002300000023000000230000002355
:103FE0000001002200000022000000220000002248
:103FF000000000220000002200010021000000213A
:10400000000000210000002100000021000000212C
:10401000000000210001002000000020000000201E
:104020000000002000000020000000200000002010
:10403000000000200001001F0000001F0000001F02
:104040000000001F0000001F0000001F0000001FF4
:104050000001001E0000001E0000001E0000001EE7
:104060000000004D383420582059205A2045004B7C
:10407000494C4C45442E20004B494C4C2063617503
:10408000736564206279204B494C4C2062757474CE
:104090006F6E2F70696E0A004B494C4C45442E20C0
:1040A000004B494C4C206361757365642062792034
:1040B000746F6F206D75636820696E6163746976D3
:1040C000652074696D65202D2063757272656E744C
:1040D00020636F6D6D616E643A2000506C65617392
:1040E00065207265736574005052494E54455220E4
:1040F00048414C544544005072696E7465722068A2
:10410000616C7465642E206B696C6C282920636176
:104110006C6C6564210A00656E7175657565696E04
:10412000672022000000A0C100809743000000002B
:1041300000004842000048420000404000000000EB
:104140005761726E696E673A20486F6D696E6720BD
:1041500042756D702044697669736F72203C20311E
:104160000A000202040000A0400000A0400000007D
:10417000400000A0430080A14300008743FF01FFEF
:104180005265776970696E670050726F62696E6719
:10419000206661696C65640050726F62696E6720A9
:1041A0006661696C65640050524F42452046414942
:1041B0004C20434C45414E204E4F5A5A4C450A0024
:1041C0005265776970696E670A0052657769706930
:1041D0006E670050726F62696E67206661696C6518
:1041E000640050726F62696E67206661696C656415
:1041F0000050524F4245204641494C20434C4541D6
:104200004E204E4F5A5A4C450A00526577697069E4
:104210006E670A0050726F62696E67206661696C32
:1042200065640A0050726F62696E67206661696C2E
:10423000656400205A3A200020593A200042656403
:1042400020583A200000000A0B02090C0D0E080746
:104250000304010000000000000000000000000056
:10426000000000000000000000000000000000004E
:10427000001211100000000000000000000000000B
:104280000000000000000000000000486F6D652085
:10429000257325732573206669727374002066691F
:1042A0007273740A005A0059005800486F6D6520F7
:1042B0000056652D6A65726B0056652D6A65726BD6
:1042C0000056652D6A65726B00567A2D6A65726BB1
:1042D00000567A2D6A65726B0056792D6A65726B8D
:1042E0000056792D6A65726B0056792D6A65726B7E
:1042F0000056782D6A65726B0056782D6A65726B70
:104300000056782D6A65726B004D6F74696F6E0090
:104310004573746570732F6D6D00457374657073AC
:104320002F6D6D005A73746570732F6D6D005A7325
:10433000746570732F6D6D005973746570732F6D94
:104340006D005973746570732F6D6D0058737465CB
:1043500070732F6D6D005873746570732F6D6D00E1
:104360004D6F74696F6E004F6666004F6E2000459A
:104370006E6473746F702061626F72740053746541
:1043800070732F6D6D004A65726B00416363656CDD
:1043900065726174696F6E0056656C6F63697479DC
:1043A000005A204F666673657400416476616E63DF
:1043B00065642053657474696E67730043616E6E43
:1043C0006F7420656E746572207375626469723AE9
:1043D0002000022E2E004D61696E0020204E6F7A63
:1043E0007A6C653A200020004261636B004D696E73
:1043F000696D756D2054656D7020697320313230A0
:104400002E0048656174696E67206661696C656439
:10441000006265640A002C2073797374656D2073E3
:10442000746F7070656421204865617465725F49BE
:10443000443A200048656174696E67206661696C62
:104440006564204245440048656174696E67206672
:1044500061696C65640048656174696E67206661B6
:10446000696C65640048656174696E67206661699E
:104470006C6564204530001000AD0330016A0150C6
:10448000022B0170030A019004F500B005E500D08D
:1044900006D800F007CE001009C500300ABE005053
:1044A0000BB700700CB100900DAB00B00EA600D0A1
:1044B0000FA200F0109D00101299003013950050CB
:1044C00014920070158E0090168B00B0178700D0E4
:1044D000188400F0198100101B7E00301C7B0050F6
:1044E0001D7900701E7600901F7300B0207000D000
:1044F000216E00F0226B0010246900302566005008
:104500002663007027610090285E00B0295C00D00F
:104510002A5900F02B5600102D5400302E51005017
:104520002F4E0070304B0090314800B0324500D023
:10453000334200F0343E0010363B00303737005035
:1045400038330070392E00903A2900B03B2300D058
:104550003C1B00F03D1100103F0100F03F0000291E
:104560000A002062797465733B20637263200053F4
:10457000657474696E67732053746F726564202864
:1045800000202863616C63756C6174656429210A7D
:104590000020213D2000454550524F4D20435243BD
:1045A000206D69736D61746368202D202873746FAA
:1045B000726564292000290A002062797465733BC2
:1045C0002063726320002073746F726564207365CA
:1045D0007474696E67732072657472696576656458
:1045E000202800204D61726C696E3D563437290ACF
:1045F0000028454550524F4D3D00454550524F4DC6
:104600002076657273696F6E206D69736D61746376
:104610006820004D6F766520617869730044697386
:1046200061626C65207374657070657273004D38DB
:104630003400426564204C6576656C696E6700479E
:1046400032382058590A4D31303920533137350A24
:10465000473238205A0A4D31303920523134350A28
:104660004731320A4732390A4D3130342053300055
:104670004175746F20686F6D6500473238004D6179
:10468000696E004D3530320A4D353030004C6F6167
:10469000642073657474696E677300526573746F18
:1046A0007265206661696C736166650053746F7230
:1046B000652073657474696E677300416476616E1A
:1046C0006365642053657474696E6773004D616936
:1046D0006E000A003B20454550524F4D20496E6404
:1046E00065783A20005570646174696E67207A6F4E
:1046F000666673657420696E20454550524F4D3A89
:1047000020000E000E000E000E000E000E000E0027
:104710000E007FC03F801F000E00040004000E004A
:104720001F003F807FC00E000E000E000E000E0026
:104730000E000E000E0007F8000C0C001002002006
:1047400001006001804000804003E04001C0400063
:1047500080400000400000600000200000100000C9
:104760000C0C0007F80001FE0003030004008008A1
:1047700000401800601000207C002038002010004D
:1047800020000020000020000060000040000080A9
:1047900003030001FE00FFFFFF7F80FFC0FFC0FF9B
:1047A000C07F807F80FFC0FFC0FFC03F001E000CA5
:1047B000005A204F6666736574005A204F66667310
:1047C000657400466C6F7700466C6F770046616ECB
:1047D00020737065656420310046616E20737065DA
:1047E000656420310042656400426564004E6F7A62
:1047F0007A6C65004E6F7A7A6C65005370656564FB
:10480000005370656564004D61696E004D6F76659B
:1048100020580020706F736974696F6E206F757413
:10482000206F662072616E67652E0A003F50726FBE
:10483000626520000A0A426564204C6576656C203A
:10484000436F7272656374696F6E204D6174726933
:10485000783A00202B000A436F72726563746564B6
:1048600020426564204865696768742076732E204D
:1048700042656420546F706F6C6F67793A0A00204C
:104880002B000A4265642048656967687420546F8C
:10489000706F6772617068793A0A2020202B2D2D85
:1048A0002D204241434B202D2D2B0A2020207C20FF
:1048B000202020202020202020207C0A204C207C2A
:1048C00020202020282B29202020207C20520A2054
:1048D00045207C20202020202020202020207C20FB
:1048E000490A2046207C20282D29204E20282B29CB
:1048F000207C20470A2054207C20202020202020BB
:10490000202020207C20480A2020207C20202020DD
:10491000282D29202020207C20540A2020207C20A3
:10492000202020202020202020207C0A2020204F12
:104930002D2D2046524F4E54202D2D2B0A2028304D
:104940002C30290A004D65616E206F662073616D01
:10495000706C656420706F696E74733A2000206417
:104960003A200020623A200045716E20636F656630
:1049700066696369656E74733A20613A2000202885
:1049800044525952554E2900473239204175746FAF
:1049900020426564204C6576656C696E670028422C
:1049A0002961636B00284629726F6E7400285229B2
:1049B0006967687400284C29656674003F4E756D00
:1049C000626572206F662070726F626520706F6919
:1049D0006E747320697320696D706C6175736962A0
:1049E0006C65202832206D696E696D756D292E0AFF
:1049F000003F2856296572626F7365206C65766585
:104A00006C20697320696D706C61757369626C6587
:104A10002028302D34292E0A004572726F722077BB
:104A2000726974696E6720746F20454550524F4D0E
:104A3000210A0048617264636F646564204465669E
:104A400061756C742053657474696E6773204C6F64
:104A5000616465640A0028230000282300006400C4
:104A6000000010270000000096430000964300005D
:104A700040400000C8410000C9420000C942000097
:104A8000C84400804F4420204D383531205A005A08
:104A90002D50726F6265204F666673657420286DB5
:104AA0006D293A0A0020440020490020204D33306F
:104AB0003420500020440020490020204D33303164
:104AC0002050005049442073657474696E67733ACE
:104AD0000A0020460020420020480020204D3134AA
:104AE000352053004D6174657269616C20686561A1
:104AF00074757020706172616D65746572733A0AC5
:104B00000020204D3432302053004175746F204214
:104B10006564204C6576656C696E673A0A00205AB8
:104B20000020590020204D323036205800486F6D4B
:104B300065206F66667365743A0A00204500205A46
:104B40000020590020580020420020540020204D11
:104B5000323035205300416476616E6365643A20DB
:104B6000533C6D696E5F66656564726174653E2075
:104B7000543C6D696E5F74726176656C5F666565E5
:104B800064726174653E20423C6D696E5F73656757
:104B90006D656E745F74696D655F75733E20583C1A
:104BA0006D61785F78795F6A65726B3E205A3C6D03
:104BB00061785F7A5F6A65726B3E20453C6D617813
:104BC0005F655F6A65726B3E0A00205400205200E8
:104BD00020204D323034205000416363656C657293
:104BE0006174696F6E2028756E6974732F73322932
:104BF0003A20503C7072696E745F616363656C3E0D
:104C000020523C726574726163745F616363656CAA
:104C10003E20543C74726176656C5F616363656CC1
:104C20003E0A00204500205A0020590020204D3225
:104C300030312058004D6178696D756D2041636396
:104C4000656C65726174696F6E2028756E69747326
:104C50002F7332293A0A00204500205A00205900BB
:104C600020204D3230332058004D6178696D756DCC
:104C7000206665656472617465732028756E697459
:104C8000732F73293A0A00204500205A002059004A
:104C900020204D39322058005374657073207065A0
:104CA0007220756E69743A0A0020204D323030202F
:104CB00044300A0020204D32303020440020446926
:104CC0007361626C65640A0046696C616D656E743F
:104CD0002073657474696E67733A0020204D313417
:104CE000392043203B20556E69747320696E204340
:104CF000656C736975730A002020473231202020CB
:104D0000203B20556E69747320696E206D6D0A001A
:104D1000000020002300260029002C002F00320074
:104D20000001000003010601090120496E76616C53
:104D3000696420657874727564657220000000A053
:104D4000C10000A0C1000000000000964300809751
:104D5000430000874320746F6F206C6F6E6720657F
:104D60007874727573696F6E2070726576656E7493
:104D700065640A0020636F6C6420657874727573D3
:104D8000696F6E2070726576656E7465640A005393
:104D90006C6565702E2E2E00486F6D652058592069
:104DA00066697273740A00486F6D652058592066F1
:104DB00069727374004D36303020486F74656E64CC
:104DC00020746F6F20636F6C6420746F2063686160
:104DD0006E67652066696C616D656E740A007C3C67
:104DE0003E5E2B3D3F2F5B5D3B2C2A225C00453114
:104DF0003A200045303A20005A3A2000593A200023
:104E0000583A20004D53312C4D53322050696E7367
:104E10000A001000C90210012C014001220170019A
:104E20001801B0010E01F00104015002FA00B002B5
:104E3000F0003003E600D003DC009004D2007005DF
:104E4000C800A006BE000008B400B009AA00D00B3C
:104E5000A000600E960060118C00001582002019E1
:104E60007800C01D6E00A0226400B0275A00902C6C
:104E7000500000314600E0343C0010383200903AD7
:104E80002800603C1E00A03D1400803E0A00203F28
:104E900000004572723A204D494E54454D50204213
:104EA0004544004D494E54454D5020747269676722
:104EB00065726564004572723A204D494E54454D05
:104EC00050204531004572723A204D494E54454DAF
:104ED00050204530004572723A204D415854454D9E
:104EE0005020424544004D415854454D5020747265
:104EF00069676765726564004572723A204D415872
:104F000054454D50204531004572723A204D41586C
:104F100054454D5020453000202F002042403A009B
:104F200020403A004B494C4C45442E20004D363031
:104F300030204230005072696E7420706175736564
:104F400064004D31323500004D3234005072696ECC
:104F5000742061626F72746564004E6F2053442048
:104F600063617264005072696E742066726F6D20A6
:104F700053440053746F70207072696E74005265F0
:104F800073756D65207072696E740050617573651C
:104F9000207072696E740041626F75742046697288
:104FA0006D77617265004368616E67652066696C44
:104FB000616D656E7400436F6E66696775726174CA
:104FC000696F6E0054656D7065726174757265000D
:104FD0004D6F76656D656E740054756E6500496E33
:104FE000666F2073637265656E00526573656E64EB
:104FF0003A20002042002050006F6B00526573750C
:105000006D696E67207072696E74004C756C7A42BF
:105010006F742054415A20362072656164792E00E5
:10502000436C69636B20746F20726573756D652EB8
:105030002E2E004E6F206D6F76652E006F6B000078
:10504000669243A411241FBECFEFD1E2DEBFCDBFD5
:1050500000E00CBF14E0A0E0B2E0E8EBF5E402E011
:105060000BBF02C007900D92A430B107D9F725E11C
:10507000A4E0B4E001C01D92AD31B207E1F718E23F
:10508000C1E2D8E200E006C021970109802FFE01AD
:105090000F944D22C032D10780E00807A9F70E9483
:1050A0000F690D94CB220C9400002F923F924F92E7
:1050B0005F926F927F928F929F92AF92BF92CF92A8
:1050C000DF92EF92FF920F931F93CF93DF93CDB7B1
:1050D000DEB7C95AD1090FB6F894DEBF0FBECDBFF7
:1050E000809111158D3409F4D7C2843511F40C94D4
:1050F0001E3F873411F00C94603F80910F15909102
:1051000010158A31910509F403C2D4F48430910555
:105110005CF4823091058CF597FF02C00C947A3FC5
:105120000E94FBFF0C947A3F8430910509F4ECC196
:105130000C9711F00C947A3F0E94FDF90C947A3F81
:105140008E31910509F431C23CF48C31910509F49A
:1051500016C20CF4E4C118C28B35910509F493C250
:105160008C35910509F494C28A35910511F00C949F
:105170007A3F109215040C947A3F209185022223E5
:1051800011F40C947A3F11E0029709F010E00E94AC
:105190009CFA19821A821B821C821D821E821F8227
:1051A000188682E50E94FB79882309F45EC10E947B
:1051B00099796B017C012091E8123091E9124091BC
:1051C000EA125091EB1221962CAF3DAF4EAF5FAF7C
:1051D00021978090EC129090ED12A090EE12B0907A
:1051E000EF128091AA129091AB12A091AC12B091E3
:1051F000AD1225968CAF9DAFAEAFBFAF2597209176
:10520000AE123091AF124091B0125091B112299666
:105210002CAF3DAF4EAF5FAF299720E030E0A90142
:10522000C701B6010F94251B882309F434C12196C8
:105230002CAD3DAD4EAD5FAD219725966CAD7DADEE
:105240008EAD9FAD25970F94251B81110DC0A50133
:10525000940129966CAD7DAD8EAD9FAD29970F94CD
:10526000251B882309F417C120E030E0A901C701FC
:10527000B6010F94251B881F8827881F18130BC0A1
:1052800080E090E0A0E8BFE369968CAF9DAFAEAF41
:10529000BFAF69970AC020E030E040E85FEB699655
:1052A0002CAF3DAF4EAF5FAF699721962CAD3DADB2
:1052B0004EAD5FAD219725966CAD7DAD8EAD9FADAA
:1052C00025970F945D1F61966CAF7DAF8EAF9FAF3A
:1052D0006197A501940129966CAD7DAD8EAD9FAD12
:1052E00029970F945D1F65966CAF7DAF8EAF9FAF12
:1052F000659761962CAD3DAD4EAD5FAD6197CA012E
:10530000B9010F948A1B2B013C0165962CAD3DAD74
:105310004EAD5FAD6597CA01B9010F948A1B9B0121
:10532000AC01C301B2010F945E1F0F94C9212D96E9
:105330006CAF7DAF8EAF9FAF2D9720E030E040E0A7
:105340005FE30F948A1B2B013C01A7019601C70163
:10535000B6010F948A1B6B017C01A3019201C3016A
:10536000B2010F948A1B9B01AC01C701B6010F94D7
:105370005D1F0F94C9219B01AC0169966CAD7DAD99
:105380008EAD9FAD69970F948A1B6B017C012596AA
:105390002CAD3DAD4EAD5FAD259721966CAD7DAD8D
:1053A0008EAD9FAD21970F945E1F20E030E040E06E
:1053B0005FE30F948A1B2B013C0165966CAD7DADBC
:1053C0008EAD9FAD659790582D962CAD3DAD4EADF1
:1053D0005FAD2D970F943A209B01AC01C701B60138
:1053E0000F948A1B9B01AC01C301B2010F945E1F95
:1053F00021962CAD3DAD4EAD5FAD21970F945D1F55
:1054000069837A838B839C8329962CAD3DAD4EAD09
:105410005FAD2997C501B4010F945E1F20E030E015
:1054200040E05FE30F948A1B2B013C012D962CADCD
:105430003DAD4EAD5FAD2D9761966CAD7DAD8EAD42
:105440009FAD61970F943A209B01AC01C701B60153
:105450000F948A1B9B01AC01C301B2010F945E1F24
:10546000A50194010F945D1F12C089E40E94FB798D
:10547000882331F00E94997969837A838B839C8396
:105480008AE40E94FB79882331F00E9499796D8328
:105490007E838F83988720E030E0A90169817A813B
:1054A0008B819C810F94251B81110BC020E030E083
:1054B000A9016D817E818F8198850F94251B88239A
:1054C00049F0612FCE0101960E9415B00E94AD5D9A
:1054D0000C947A3FEDEFF8E284918F010F5F1F4F3C
:1054E000882321F00F943E0AF801F6CFEFE0F2E0B6
:1054F00084918F010F5F1F4F882311F40C947A3F22
:105500000F943E0AF801F4CF0E944FFA0C947A3FB0
:1055100081E0809385021092FA090C947A3F0E94F0
:105520007BAA81110C947A3F80E090E0A0E2B1EC7C
:1055300089839A83AB83BC8380E090E8A2E9B3E4DB
:105540008D839E83AF83B88780E090E0A0EAB1E4CA
:1055500089879A87AB87BC8780E50E94FB7988237F
:1055600019F00E94697901C060E068A3BE016F5F15
:105570007F4FCE0180960E94EFA00C947A3F80E08E
:105580000E948AFD0C947A3F81E0809393072498CF
:105590002C9A0898109A0E9412D710929307249A76
:1055A0002C98089A10980C947A3FC090E812D090EA
:1055B000E912E090EA12F090EB1288E50E94FB7984
:1055C000811108C020E030E0A901C701B6010F94A5
:1055D0005E1F02C00E94997968A379A38AA39BA346
:1055E000C090EC12D090ED12E090EE12F090EF121D
:1055F00089E50E94FB79811108C020E030E0A90113
:10560000C701B6010F945E1F02C00E9499796B0119
:105610007C0169837A838B839C8388A099A0AAA04C
:10562000BBA02CE032E048E951ECC501B4010F9475
:10563000842187FF02C00C947A3F21E230E040E9E8
:1056400053E4C501B4010F94251B181614F40C94EF
:105650007A3F29E134E040E151ECC701B6010F94F3
:10566000842187FF02C00C947A3F21E230E840E9B0
:1056700053E4C701B6010F94251B181614F40C94BB
:105680007A3F0C947D3F81E0809315040C947A3F1F
:105690000F9431160C947A3F80910F15909110154C
:1056A0008937910509F430C70CF0E4C08C349105BA
:1056B00009F4F8C40CF059C08931910509F432C2DB
:1056C0004CF58431910509F4DCC194F481319105E4
:1056D00009F4D3C144F4029710F00C947A3F0F946C
:1056E000A1150C947A3F429709F4B1C50C947A3F06
:1056F0008631910509F40CC20CF406C2873191057C
:1057000009F40CC2489711F00C947A3F0F94491495
:105710000C947A3F8F31910509F4B8C37CF48B3136
:10572000910509F411C20CF40BC28C31910509F4F6
:1057300047C24E9709F44EC20C947A3F8A329105C3
:1057400009F44AC42CF4809709F451C30C947A3FAD
:105750008934910509F499C48B34910511F00C94A6
:105760007A3F0E945A950C947A3F8A36910509F443
:1057700062C5CCF58435910509F469C5E4F4813539
:10578000910509F45CC54CF48D34910511F00C942D
:105790007A3F0E9411950C947A3F8235910509F465
:1057A00052C58335910511F00C947A3F81E08093C6
:1057B00014040C947A3F8C35910509F467C534F4D0
:1057C0008535910509F447C50C947A3F88369105D3
:1057D00009F46CC48936910511F00C947A3F0F944A
:1057E00013140C94FC438237910509F453C5DCF47F
:1057F0008D36910509F404C54CF48B36910511F0F2
:105800000C947A3F0E94D94A0C947A3F8E369105C7
:1058100009F49EC48F36910511F00C947A3F0E94D2
:1058200098480C947A3F8637910509F43DC594F465
:105830008337910509F434C58537910511F00C942F
:105840007A3F60E080910D1590910E150E948D7D3C
:105850000C947A3F8737910509F469C5883791051B
:1058600011F00C947A3F81E08093640D8093630D76
:105870000C947A3F8F3231E0930711F40C94AB37DC
:105880000CF078C08D3C910509F4B2C794F58E3BBD
:10589000910509F4B9C4C4F48C38910509F46BC4BA
:1058A0004CF48D37910511F00C947A3F0E94E1453C
:1058B0000C947A3F8139910509F42CC68B399105F6
:1058C00009F477C40C947A3F893C910509F4E4C645
:1058D00034F4883C910509F497C60C947A3F8B3CCC
:1058E000910509F4FBC68C3C910509F415C70C948D
:1058F0007A3F823E910511F40C94BA3504F5833D4C
:10590000910509F4FDC77CF48E3C910511F00C94CF
:105910007A3F5AE4C52E53E0D52E64E9E62E67E0BF
:10592000F62E10E0D2C78C3D910511F40C94613530
:105930008D3D910511F40C9470350C947A3F8C32A6
:1059400051E0950711F40C940F363CF482329140EB
:1059500011F40C9401360C947A3F8D32E1E09E07ED
:1059600011F40C9439368E32914011F40C94563760
:105970000C947A3F843F21E0920711F40C94C13DCE
:10598000D4F5803941E0940711F40C94563CECF4C2
:105990008E35A1E09A0711F40C94693E3CF48033F3
:1059A000914011F40C94D8360C947A3F8F35F1E085
:1059B0009F0711F40C949E3E8336914011F00C9495
:1059C0007A3FEDEFF8E20C94F23E823931E0930732
:1059D00011F40C945D3C14F40C94593C843A51E05D
:1059E000950711F40C94613C8C3A914011F40C949D
:1059F000E13C0C947A3F8835B2E09B0711F40C949B
:105A00003B3EB4F4863FF1E09F0711F40C94C73D90
:105A100014F40C94C43D873F31E0930711F40C94C7
:105A2000CA3D8C31924011F40C94D63D0C947A3FCF
:105A30008C3853E0950711F40C94673E94F4833549
:105A4000B3E09B0711F40C94E13D8B38934011F0C7
:105A50000C947A3F4AE4E42E43E0F42E10E00C94D8
:105A6000403E803AF3E09F0709F403C2873E93402B
:105A700011F40C94093F0C947A3F0F9497150C94F1
:105A80007A3FE6E4F2E084918F010F5F1F4F882395
:105A900021F00F943E0AF801F6CF10921E0D40E05F
:105AA00050E0BA018AEC9AE00E9431C28BE1EAEC44
:105AB000FAE0DE01159601900D928A95E1F780914A
:105AC000C80A9091C90A9C838B838DED93E09A83D9
:105AD000898340E050E0BE016F5F7F4F88EF93E025
