:100000000C94CF280C948EF90C9463F90C9438F965
:100010000C940DF90C94E2F80C94B7F80C948CF84D
:100020000C94A4560C9400290C9400290C940029DB
:100030000C9400290C94A14C0C9400290C940029D8
:100040000C9400290C94394F0C9400290C9400292D
:100050000C9400290C9400290C94404D0C94B9F98F
:100060000C9400290C94EA550C9400290C94002956
:100070000C9400290C9400290C9400290C9400295C
:100080000C9400290C9400290C9400290C9400294C
:100090000C9400290C9400290C9400290C9400293C
:1000A0000C9400290C9400290C9400290C9400292C
:1000B0000C9400290C9400290C9400290C9400291C
:1000C0000C9400290C9400290C9400290C9400290C
:1000D0000C9400290C9400290C9400290C940029FC
:1000E0000C940029F14DF54D1E4E224E044E0F4E3C
:1000F000DE4D1E5624563556405648565D564C56D3
:100100005D56505654565D565A56DD5ADD5AE45ADD
:10011000E45AE45AEB5AEB5AEB5AF85AF25AF25AAA
:10012000F25A01A406A40BA415A41FA498A429A400
:1001300031A439A443A44DA457A466A470A498A4E0
:100140007AA484A48EA484E187E176E17AE180E157
:10015000BEE18BE18FE195E199E19DE1A3E1A7E1AA
:10016000ABE1BEE1B1E1B5E1B9E1084AD73B3BCE35
:10017000016E84BCBFFDC12F3D6C74319ABD5683A6
:100180003DDA3D00C77F11BED9E4BB4C3E916BAA5E
:10019000AABE000000803F05A84CCDB2D44EB938AD
:1001A00036A9020C50B9918688083CA6AAAA2ABE94
:1001B000000000803F00434F4D4D554E4943415490
:1001C000494F4E0044525952554E004552524F52DB
:1001D0005300494E464F004543484F0020746F6F0F
:1001E000206C6F6E6720657874727573696F6E200E
:1001F00070726576656E7465640A0020636F6C6466
:1002000020657874727573696F6E2070726576659B
:100210006E7465640A0047322F47332062616420A0
:10022000706172616D65746572730A00536C656507
:10023000702E2E2E004C756C7A426F742054415AE9
:1002400020352072656164792E00526573756D6981
:100250006E67207072696E7400436C69636B207402
:100260006F20726573756D652E2E2E004E6F206D9A
:100270006F76652E00456E642066696C65206C693A
:1002800073740A00426567696E2066696C65206C4C
:100290006973740A004D313235005344207072691D
:1002A0006E74696E67206279746520004E6F7420E9
:1002B0005344207072696E74696E670A0046696CF7
:1002C000652064656C657465643A0044656C6574AA
:1002D000696F6E206661696C65642C2046696C6587
:1002E0003A20006F70656E206661696C65642C2031
:1002F00046696C653A20002569730025696D2025E3
:100300006973002569682025696D202569730025BA
:100310006964202569682025696D20256973002599
:10032000697920256964202569682025696D202563
:100330006973005072696E742074696D653A2000AB
:10034000000125301D0CFF24311C0BFF232F1B0A3D
:10035000FFFF040306080202222B1A4142212A1938
:100360003F40033809FF3607FF3728294527444314
:1003700050726F7465637465642050696E0A00453D
:1003800078747275646572202569202573004C7538
:100390006C7A426F742054415A2035207265616432
:1003A000792E00D701D201CB01C401B6016F666678
:1003B0000044454255473A006F6B00436F6F6C69CC
:1003C0006E6720646F6E652E0048656174696E67A4
:1003D00020646F6E652E0020573A00457874727560
:1003E000646572202569202573004C756C7A426F14
:1003F000742054415A20352072656164792E004280
:10040000656420646F6E652E0020573A0042656473
:100410002068656174696E672E0042656420636FB1
:100420006F6C696E672E004361703A454D455247C7
:10043000454E43595F5041525345523A310A0043A9
:1004400061703A434153455F4C494748545F4252BB
:10045000494748544E4553533A300A004361703A75
:10046000544F47474C455F4C49474854533A300A2C
:10047000004361703A534F4654574152455F504FC5
:100480005745523A300A004361703A4C4556454C44
:10049000494E475F444154413A300A004361703A43
:1004A0005A5F50524F42453A300A004361703A4118
:1004B00055544F4C4556454C3A300A004361703A0A
:1004C0005052494E545F4A4F423A310A00436170DC
:1004D0003A50524F47524553533A300A00436170E5
:1004E0003A4155544F5245504F52545F54454D5028
:1004F0003A310A004361703A454550524F4D3A3106
:100500000A004649524D574152455F4E414D453ACA
:100510004D61726C696E20204649524D57415245DB
:100520005F56455253494F4E3A312E312E352E31BA
:10053000382045585452554445525F545950453A15
:10054000466C6578794475616C6C792076322053FD
:100550004F555243455F434F44455F55524C3A68AF
:10056000747470733A2F2F636F64652E616C6570BD
:10057000686F626A656374732E636F6D2F6469665A
:10058000667573696F6E2F4D41524C494E20505223
:100590004F544F434F4C5F56455253494F4E3A319B
:1005A0002E30204D414348494E455F545950453AFD
:1005B0004C756C7A426F742054415A20352045584E
:1005C0005452554445525F434F554E543A3220558C
:1005D0005549443A63333235356339362D34303931
:1005E000372D343838342D386564302D64656432E5
:1005F00066663962616536310A002F2F20007A5F06
:100600006D696E3A2000795F6D696E3A2000785FFF
:100610006D696E3A20005265706F7274696E672062
:10062000656E6473746F70207374617475730A00FF
:10063000000000C000000000000000004F6666736C
:10064000657473206170706C696564004572723AFC
:1006500020546F6F206661722100546F6F206661B5
:10066000722066726F6D207265666572656E636575
:1006700020706F696E740A004E6F2063617365208D
:100680006C696768740A004163746976652045780F
:100690007472756465723A2000556E6B6E6F776E7A
:1006A00020636F6D6D616E643A202200746F20725A
:1006B0006573756D65005761697420666F7220708F
:1006C00072696E74005052494E5420504155534542
:1006D000440045787472756465206D6F72650052D0
:1006E0006573756D65207072696E7400524553555F
:1006F0004D45204F5054494F4E533A0020204E6FE5
:100700007A7A6C653A20002000506C656173652030
:10071000776169742E2E2E0048656174696E6720BA
:100720006E6F7A7A6C65005052494E542050415594
:100730005345440020204E6F7A7A6C653A200020A1
:100740000068656174206E6F7A7A6C652E00507255
:1007500065737320627574746F6E20746F005052ED
:10076000494E54205041555345440020204E6F7A45
:100770007A6C653A2000200066696C616D656E7464
:100780002065787472756465005761697420666FBE
:1007900072005052494E5420504155534544002058
:1007A000204E6F7A7A6C653A2000200066696C6191
:1007B0006D656E74206C6F616400576169742066AA
:1007C0006F72005052494E542050415553454400D9
:1007D00020204E6F7A7A6C653A2000746F20636F28
:1007E0006E74696E75652E2E2E00616E64207072B7
:1007F00065737320627574746F6E00496E736572F1
:10080000742066696C616D656E74005052494E5477
:10081000205041555345440020204E6F7A7A6C6534
:100820003A2000200066696C616D656E7420756EFB
:100830006C6F6164005761697420666F720050527A
:10084000494E54205041555345440020204E6F7A64
:100850007A6C653A20006368616E6765006F662098
:100860007468652066696C616D656E7400576169B6
:100870007420666F72207374617274005052494E16
:1008800054205041555345440020204E6F7A7A6CD5
:10089000653A200020004261636B004D696E696D0E
:1008A000756D2054656D70206973203132302E00D3
:1008B00048656174696E67206661696C65640043B0
:1008C000616E6E6F7420656E7465722073756264FC
:1008D00069723A2000022E2E004D61696E004B496C
:1008E0004C4C45442E200024F4D43050C38E20C2FA
:1008F000A24017828B7011127A910D816CD90AA8CF
:1009000061E108C7586607615143061E4B5D05C18A
:1009100045A7041A411104093D9803713931034078
:1009200036DB0265339102D4305402802E1D0263FF
:100930002CEE01752AC501B028A001102781018F76
:100940002564012B244B01E0223401AC211F018DD1
:10095000200D01801FFC00841EED00971DDF00B8F4
:100960001CD200E61BC600201BBC00641AB200B2F9
:1009700019A8000A19A0006A189900D1179100401F
:10098000178B00B516840031167E00B31579003A36
:10099000157300C7146F0058146A00EE13660088C0
:1009A00013630025135E00C7125B006C125700151D
:1009B000125400C111510070114F0021114B00D68B
:1009C0001049008D1047004610440002104200C03C
:1009D0000F4000800F3E00420F3C00060F3B00CB53
:1009E0000E3800930E37005C0E3500270E3400F3EE
:1009F0000D3200C10D3100900D3000600D2E00321F
:100A00000D2D00050D2C00D90C2B00AE0C290085F6
:100A10000C29005C0C2700350C27000E0C2600E882
:100A20000B2400C40B2400A00B23007D0B23005AD1
:100A30000B2100390B2100180B2000F80A1F00D9E8
:100A40000A1E00BB0A1E009D0A1D00800A1D0063CD
:100A50000A1C00470A1B002C0A1B00110A1A00F787
:100A6000091A00DD091900C4091900AB091900921F
:100A70000917007B091800630917004C0916003696
:100A8000091600200916000A091500F5081500E0EE
:100A9000081400CC081400B8081400A4081400902E
:100AA0000813007D0812006B081300580812004656
:100AB0000812003408110023081100120811000167
:100AC000081100F0071000E0071000D0071000C068
:100AD000071000B0070F00A107100091070E008358
:100AE000070F0074070F0065070E0057070E004937
:100AF000070E003B070D002E070E0020070D001308
:100B0000070D0006070D00F9060C00ED060D00E0CC
:100B1000060C00D4060C00C8060C00BC060C00B085
:100B2000060C00A4060B0099060C008D060B008233
:100B3000060B0077060B006C060B0061060A0057D7
:100B4000060B004C060A0042060A0038060A002E70
:100B5000060A0024060A001A060A00100609000701
:100B6000060A00FD050900F4050900EB050900E28D
:100B7000050900D9050900D0050900C7050900BE0F
:100B8000050900B5050800AD050800A50509009C8C
:100B9000050800940508008C050800840508007C01
:100BA000050800740508006C050700650508005D70
:100BB000050700560508004E0507004705070040D9
:100BC00005080038050700310507002A050700233E
:100BD0000507001C050600160507000F050700089D
:100BE00005060002050700FB040600F5040700EEF9
:100BF000040600E8040600E2040700DB040600D552
:100C0000040600CF040600C9040600C3040600BDA4
:100C1000040600B7040600B1040500AC040600A6F3
:100C2000040600A00405009B04060095040500903E
:100C30000406008A04050085040500800406007A85
:100C400004050075040500700405006B04050066CA
:100C5000040500610405005C04050057040500520A
:100C60000405004D04050048040500430405003E4A
:100C70000404003A04050035040500300404002C87
:100C800004050027040400230405001E0404001AC0
:100C900004040016040500110404000D04040009F6
:100CA0000405000404040000040400FC030400F82C
:100CB000030400F4030400F0030400EC030400E860
:100CC000030400E4030400E0030400DC030400D890
:100CD000030400D4030400D0030400CC030400C8C0
:100CE000030300C503030024F404D9201BC40C5CD7
:100CF0000E9804C4095F0265077101F405F900FB51
:100D000004B30048048700C1036900580355000379
:100D1000034500BE023A008402310053022A002932
:100D200002250004022000E4011C00C8011900AFE4
:100D30000117009801140084011300710110006173
:100D400001100051010E0043010D0036010B002B74
:100D5000010B0020010B00150109000C0109000323
:100D6000010800FB000800F3000800EB000700E4A6
:100D7000000600DE000600D8000600D2000600CC07
:100D8000000500C7000500C2000500BD000400B951
:100D9000000400B5000400B1000400AD000400A987
:100DA000000400A5000300A20003009F0004009BB4
:100DB00000030098000300950002009300030090D8
:100DC0000003008D0002008B0003008800020086F3
:100DD00000020084000300810002007F0002007D09
:100DE0000002007B0002007900020077000100761B
:100DF0000002007400020072000100710002006F26
:100E00000002006D0001006C0002006A0001006930
:100E10000002006700010066000100650001006437
:100E20000002006200010061000100600001005F3B
:100E30000002005D0001005C0001005B0001005A3F
:100E40000001005900010058000100570001005640
:100E50000001005500010054000100530000005340
:100E60000001005200010051000100500001004F3C
:100E70000001004E0000004E0001004D0001004C3A
:100E80000001004B0000004B0001004A0001004936
:100E90000001004800000048000100470001004632
:100EA000000000460001004500000045000100442C
:100EB0000001004300000043000100420000004226
:100EC0000001004100000041000100400001003F1E
:100ED0000000003F0001003E0000003E0001003D18
:100EE0000000003D0001003C0000003C0000003C10
:100EF0000001003B0000003B0001003A0000003A06
:100F000000010039000000390001003800000038FD
:100F100000000038000100370000003700010036F3
:100F200000000036000000360001003500000035EA
:100F300000000035000100340000003400000034DF
:100F400000010033000000330000003300010032D4
:100F500000000032000000320001003100000031CA
:100F600000000031000100300000003000000030BF
:100F70000001002F0000002F0000002F0000002FB4
:100F80000001002E0000002E0000002E0001002DA8
:100F90000000002D0000002D0000002D0001002C9D
:100FA0000000002C0000002C0000002C0001002B91
:100FB0000000002B0000002B0000002B0001002A85
:100FC0000000002A0000002A0000002A0001002979
:100FD000000000290000002900000029000000296D
:100FE0000001002800000028000000280000002860
:100FF0000000002800010027000000270000002753
:101000000000002700000027000100260000002645
:101010000000002600000026000000260001002538
:10102000000000250000002500000025000000252C
:10103000000000250001002400000024000000241E
:101040000000002400000024000100230000002311
:101050000000002300000023000000230000002304
:1010600000000023000100220000002200000022F6
:1010700000000022000000220000002200010021E8
:1010800000000021000000210000002100000021DC
:1010900000000021000000210001002000000020CD
:1010A00000000020000000200000002000000020C0
:1010B00000000020000000200001001F0000001FB1
:1010C0000000001F0000001F0000001F0000001FA4
:1010D0000000001F0001001E0000001E0000001E96
:1010E0000000001E0000004D383420582059205ABE
:1010F0002045004572723A204D494E54454D5020CE
:10110000424544004572723A204D494E54454D5077
:10111000004D494E54454D502074726967676572A1
:101120006564004572723A204D415854454D502037
:10113000424544004572723A204D415854454D5045
:10114000004D415854454D5020747269676765726F
:1011500065640002656E7175657565696E6720224C
:10116000004572726F722077726974696E672074BD
:101170006F20454550524F4D210A00486F6D652044
:101180002573257325732066697273740020666960
:101190007273740A005A0059005800486F6D652038
:1011A000001000C90210012C014001220170011839
:1011B00001B0010E01F00104015002FA00B002F08A
:1011C000003003E600D003DC009004D2007005C8B4
:1011D00000A006BE000008B400B009AA00D00BA011
:1011E00000600E960060118C0000158200201978B6
:1011F00000C01D6E00A0226400B0275A00902C5041
:101200000000314600E0343C0010383200903A28AB
:1012100000603C1E00A03D1400803E0A00203F00FC
:10122000004D31343520533C696E6465783E206F43
:101230007574206F662072616E67652028302D31CD
:10124000290A001000AD0330016A0150022B017021
:10125000030A019004F500B005E500D006D800F0BF
:1012600007CE001009C500300ABE00500BB7007051
:101270000CB100900DAB00B00EA600D00FA200F094
:10128000109D0010129900301395005014920070B8
:10129000158E0090168B00B0178700D0188400F0D0
:1012A000198100101B7E00301C7B00501D790070DE
:1012B0001E7600901F7300B0207000D0216E00F0E9
:1012C000226B0010246900302566005026630070F0
:1012D00027610090285E00B0295C00D02A5900F0F8
:1012E0002B5600102D5400302E5100502F4E007000
:1012F000304B0090314800B0324500D0334200F00E
:10130000343E0010363B0030373700503833007021
:10131000392E00903A2900B03B2300D03C1B00F04E
:101320003D1100103F0100F03F0000534420636175
:101330007264206F6B0A006F70656E526F6F74205D
:101340006661696C65640A00766F6C756D652E69FF
:101350006E6974206661696C65640A005344206993
:101360006E6974206661696C0A007C3C3E5E2B3DB0
:101370003F2F5B5D3B2C2A225C0043616E6E6F74D5
:10138000206F70656E207375626469722000004D75
:101390003234005072696E74207061757365640038
:1013A0004D313235004D363030204230004D323430
:1013B000004D3233202573006175746F25692E67E7
:1013C0000045787472756465723200457874727580
:1013D000646572004D6F7665205A004D6F7665200A
:1013E00059004D6F76652058004D6F76656D656EBE
:1013F00074004D6F7665206178697300446973618C
:10140000626C65207374657070657273004D38345A
:10141000004175746F20686F6D6500473238004D6C
:1014200061696E004D6F766520302E316D6D004D17
:101430006F766520316D6D004D6F76652031306DB2
:101440006D004D6F76652061786973004578747220
:1014500075646572004D6F7665205A004D6F766534
:101460002059004D6F766520580020746F6F206CF6
:101470006F6E6720657874727573696F6E20707215
:101480006576656E7465640A0020636F6C64206520
:101490007874727573696F6E2070726576656E749C
:1014A00065640A00436172642072656D6F766564DD
:1014B000004361726420696E7365727465640050E4
:1014C0006C65617365207265736574005052494E96
:1014D0005445522048414C544544005072696E7442
:1014E00065722068616C7465642E206B696C6C2871
:1014F000292063616C6C6564210A006265640A00DE
:101500002C2073797374656D2073746F70706564CB
:1015100021204865617465725F49443A200054484F
:1015200045524D414C2052554E4157415900546847
:1015300065726D616C2052756E61776179004865E6
:101540006174696E67206661696C656400486561F5
:1015500074696E67206661696C65640048656174D2
:10156000696E67206661696C6564004865617469CD
:101570006E67206661696C65640057726974696E94
:101580006720746F2066696C653A20006F70656E25
:10159000206661696C65642C2046696C653A2000A0
:1015A0006F70656E206661696C65642C2046696C9D
:1015B000653A200046696C652073656C65637465E7
:1015C000640A002053697A653A200046696C6520F8
:1015D0006F70656E65643A20006F70656E2066619D
:1015E000696C65642C2046696C653A200020666948
:1015F0006C653A20004E6F7720002220706F7300D8
:101600002220706172656E743A2200535542524F27
:101610005554494E452043414C4C207461726765D6
:10162000743A22004B494C4C45442E200074727988
:10163000696E6720746F2063616C6C207375622D16
:1016400067636F64652066696C6573207769746889
:1016500020746F6F206D616E79206C6576656C7398
:101660002E204D4158206C6576656C2069733A00D8
:101670002042002050006F6B00526573656E643A23
:10168000200045313A200045303A20005A3A2000E7
:10169000593A2000583A20004D53312C4D533220F6
:1016A00050696E730A00290A002062797465733BE1
:1016B00020637263200053657474696E67732053EE
:1016C000746F726564202800000021002400270048
:1016D0002A002D0030003300010100000401070141
:1016E0000A0101021020200808102040102040802C
:1016F00002010201080402010102040810204080D6
:101700008040201008040201800402018040201063
:1017100008040201080402010102040810204080AC
:10172000010204081020408005050505070508088A
:101730000808020202020A0A08080404040401015B
:101740000101010101010303030303030303040770
:1017500007070C0C0C0C0C0C0C0C02020202060607
:101760000606060606060B0B0B0B0B0B0B0B1FFFDF
:10177000FFFFFFFFFF600000000001FF40000000CE
:101780000000FF8000000000007F83CF00000C30CD
:101790003F87FF80000C301F867980000C000F8C83
:1017A00030C7838C30E78C30CFC7CC31F38C30DC42
:1017B000ECEC33B98C30D86C6C33198C30D06C0CA9
:1017C00033198C30D86C0C33198C30DC6C0E3B190F
:1017D0008C30CF7C079F198C30C77C038F19400059
:1017E0000000000002600000000000061FFFFFFF75
:1017F000FFFFF82020506C616E6E65724275666660
:10180000657242797465733A2000204672656520DE
:101810004D656D6F72793A2000436F6D70696C652C
:10182000643A204F637420313620323031370A0059
:10183000207C20417574686F723A2028416C657075
:1018400068204F626A6563747320496E632E2C2092
:101850004C756C7A426F7420476974205265706FC2
:101860007369746F7279290A004F637420313620CE
:101870003230313731343A30343A343600204C612A
:10188000737420557064617465643A2000312E31A0
:101890002E350A004D61726C696E0020536F6674BC
:1018A000776172652052657365740A002057617410
:1018B0006368646F672052657365740A0020427222
:1018C0006F776E206F75742052657365740A0020FF
:1018D00045787465726E616C2052657365740A0098
:1018E000506F77657255700A0073746172740A00E4
:1018F0006572726F722077726974696E6720746F97
:101900002066696C650A004572726F723A00456E16
:101910006473746F70732025632025632025632012
:10192000256300205A3A0020593A0020583A0065B1
:101930006E6473746F7073206869743A2000656315
:10194000686F3A00446F6E6520736176696E672038
:1019500066696C652E0A004D32390000060900FEEA
:1019600006018902FE20FFFE07FE06FE00000006BB
:1019700000070106060602008080808000800303C5
:1019800003060103A0A0A00507070600FF5050F8BA
:1019900050F850500509090600FE2070A8A07028D4
:1019A000A870200608080600FF40A84810204854E8
:1019B000080507070600FF60909060989068010393
:1019C000030602038080800207070602FF40808032
:1019D000808080400207070602FF80404040404070
:1019E000800505050600008850F8508805050506A5
:1019F00000002020F820200204040602FEC040401F
:101A000080050101060002F8020202060200C0C0C1
:101A10000406060601001010204080800406060619
:101A2000010060909090906003060606010040C09F
:101A3000404040E00406060601006090102040F09F
:101A4000040606060100F020601010E005060606F8
:101A5000000010305090F810040606060100F080D7
:101A6000E01010E00406060601006080E09090603F
:101A7000040606060100F010102040400406060689
:101A8000010060906090906004060606010060907E
:101A900090701060020505060200C0C000C0C002C0
:101AA00007070602FEC0C000C040408005050506CD
:101AB00000001860806018050303060001F800F8B4
:101AC000050505060000C0300830C0040707060100
:101AD000006090106040004005060606000070900F
:101AE000A8B08070050606060000205088F8888897
:101AF000050606060000F088F08888F00406060651
:101B00000100609080809060040606060100E0906D
:101B1000909090E0040606060100F080E08080F0DE
:101B2000040606060100F080E080808004060606B8
:101B30000100609080B0906004060606010090905D
:101B4000F0909090030606060100E040404040E01F
:101B50000506060600003810101090600406060600
:101B6000010090A0C0A090900406060601008080AD
:101B7000808080F005060606000088D8A8A888881E
:101B800004060606010090D0B09090900506060667
:101B90000000708888888870040606060100E090BE
:101BA00090E080800407070601FF609090D0B0604D
:101BB00010040606060100E09090E09090040606EE
:101BC000060100609040209060050606060000F8BF
:101BD000202020202004060606010090909090907E
:101BE00060040606060100909090F060600506060D
:101BF0000600008888A8A8D8880506060600008880
:101C000050202050880506060600008888502020B5
:101C100020040606060100F010204080F0030606AE
:101C2000060100E080808080E00406060601008056
:101C30008040201010030606060100E0202020202E
:101C4000E00503030600032050880501010600FE9D
:101C5000F802020206020480400404040601007037
:101C60009090700406060601008080E09090E004E9
:101C7000040406010070808070040606060100104E
:101C8000107090907004040406010060B0C07004ED
:101C90000606060100205040E0404004060606010A
:101CA000FE6090907010600406060601008080E0DF
:101CB0009090900306060601004000C04040E003FB
:101CC00008080601FE200060202020A0400406062F
:101CD0000601008080A0C0A090030606060100C097
:101CE00040404040E0050404060000D0A8A8880455
:101CF0000404060100E090909004040406010060D2
:101D00009090600406060601FEE09090E08080045A
:101D100006060601FE70909070101004040406017F
:101D200000A0D0808004040406010070C030E004EC
:101D300006060601004040E040502004040406016D
:101D4000009090907004040406010090906060057B
:101D5000040406000088A8A85004040406010090AA
:101D60006060900406060601FE90909070906004FA
:101D70000404060100F02040F003070706010020DC
:101D80004040804040200107070602FF808080809D
:101D9000808080030707060100804040204040808B
:101DA00004020206010350A0FFFFFFFFFFFFFFFF39
:101DB000FFFFFFFFFFFFFFFFFFFFFFFFFFFFFFFF33
:101DC000FFFFFFFFFFFFFFFFFF000000060007010E
:101DD0000606060200800080808080040606060158
:101DE000FF2070A0A070200507070600FF304840C4
:101DF000F04040F8050505060000A8508850A805E9
:101E000006060600008850F820F8200107070602A1
:101E1000FF808080008080800407070601FF7080BB
:101E200060906010E0030101060105A006070706A7
:101E30000000788494A49484780305050601016069
:101E4000A06000E00505050600002850A050280409
:101E50000303060100F01010040101060102F00660
:101E600007070600007884B4A4A48478040101065E
:101E70000105F004030306010260906005070706F0
:101E800000FF2020F8202000F8030505060101408E
:101E9000A02040E0030505060101C0204020C0024B
:101EA000020206020440800405050601FF9090B07E
:101EB000D08005060606000078E8E86828280101B9
:101EC00001060202800202020602FE4080030505AE
:101ED00006010140C04040E003050506010140A0A5
:101EE0004000E0050505060000A0502850A00508A8
:101EF000080600FF40C04050703078100508080602
:101F000000FF40C04050680810380508080600FF70
:101F1000C0204030F0307810040707060100200090
:101F20002060809060050707060000402020507068
:101F30008888050707060000102020507088880553
:101F40000707060000205020507088880507070604
:101F500000002850205070888805070706000050B0
:101F60000020507088880507070600002050205088
:101F700070888805060606000078A0F0A0A0B804C6
:101F800008080601FE6090808090602040040707EA
:101F90000601004020F080E080F004070706010001
:101FA0002040F080E080F00407070601002050F098
:101FB00080E080F00407070601005000F080E08018
:101FC000F00307070601008040E0404040E00307BF
:101FD000070601002040E0404040E00307070601FB
:101FE0000040A0E0404040E0030707060100A000D9
:101FF000E0404040E00506060600007048E848481A
:102000007004070706010050A090D0B0909004071C
:1020100007060100402060909090600407070601C9
:102020000020406090909060040707060100205057
:10203000609090906004070706010050A0609090A7
:1020400090600407070601005000609090906005C2
:10205000050506000088502050880408080601FF86
:102060001070B0B0D0D0E080040707060100402017
:102070009090909060040707060100204090909097
:102080009060040707060100205090909090600433
:102090000707060100500090909090600507070622
:1020A0000000102088502020200406060601008031
:1020B000E09090E0800406060601006090A0A090E9
:1020C000A0040707060100402000709090700407EC
:1020D0000706010020400070909070040707060179
:1020E000002050007090907004070706010050A077
:1020F00000709090700406060601005000709090E9
:1021000070040707060100205020709090700504AD
:102110000406000070A8B0780406060601FE708070
:102120008070204004070706010040200060B0C016
:102130007004070706010020400060B0C07004076B
:102140000706010020500060B0C0700406060601BA
:1021500000500060B0C07003070706010080400017
:10216000C04040E0030707060100204000C0404097
:10217000E003070706010040A000C04040E003065E
:1021800006060100A000C04040E004070706010069
:102190003060107090906004070706010050A000A6
:1021A000E0909090040707060100402000609090A6
:1021B000600407070601002040006090906004075B
:1021C0000706010020500060909060040707060198
:1021D0000050A000609090600406060601005000C8
:1021E000609090600505050600002000F8002004BE
:1021F000040406010070B0D0E004070706010040A7
:102200002000909090700407070601002040009085
:102210009090700407070601002050009090907085
:10222000040606060100500090909070040909060B
:1022300001FE204000909090709060040808060114
:10224000FE8080E09090E080800408080601FE5047
:102250000090909070906000002200250028002BD4
:10226000002E003100340002010000050108010BBE
:102270000100000A0B02090C0D0E080703040100FF
:10228000000000000000000000000000000000004E
:10229000000000000000000000000000001211100B
:1022A000000000000000000000000000000000002E
:1022B0000000000000000043290A0061626C6564B0
:1022C00020286D696E2074656D702000436F6C640A
:1022D0002065787472756465732061726520004DA5
:1022E00036303020486F74656E6420746F6F2063E1
:1022F0006F6C6420746F206368616E676520666927
:102300006C616D656E740A004B6420002364656621
:10231000696E65202044454641554C545F004B6929
:10232000200023646566696E65202044454641555A
:102330004C545F004B70200023646566696E652015
:102340002044454641554C545F0050494420417556
:10235000746F74756E652066696E69736865642153
:102360002050757420746865206C617374204B7004
:102370002C204B6920616E64204B6420636F6E7368
:1023800074616E74732066726F6D2062656C6F7716
:1023900020696E746F20436F6E6669677572617431
:1023A000696F6E2E680A00504944204175746F743D
:1023B000756E65206661696C6564212074696D6560
:1023C0006F75740A00504944204175746F74756EBE
:1023D00065206661696C6564212054656D70657265
:1023E000617475726520746F6F20686967680A0090
:1023F000204B643A2000204B693A2000204B703A71
:1024000020000A20436C61737369632050494420A3
:102410000A002054753A2000204B753A2000206DA8
:1024200061783A2000206D696E3A200020643A20DD
:102430000020626961733A20005072696E742061F5
:10244000626F727465640041626F757420466972D0
:102450006D77617265004E6F205344206361726432
:10246000005072696E742066726F6D205344005381
:10247000746F70207072696E7400526573756D654B
:10248000207072696E740050617573652070726996
:102490006E7400436F6E66696775726174696F6E02
:1024A0000054656D7065726174757265004D6F766C
:1024B000656D656E74004368616E67652066696C62
:1024C000616D656E740054756E6500496E666F20AF
:1024D00073637265656E005761726E696E673A204C
:1024E000486F6D696E672042756D7020446976692A
:1024F000736F72203C20310A000202040000A040E9
:102500000000A040000000404C756C7A426F7420BF
:1025100054415A2035204F66662E0000009043003B
:10252000008A4300007A430000484200004842000D
:1025300000404000000000FFFFFF5A2070726F62F1
:1025400065206F75742E206265640A005A207072CF
:102550006F6265206F75742E2062656400473238A3
:10256000205A20466F7262696464656E0A004732C1
:1025700038205A20466F7262696464656E00202FAD
:1025800000205A3A0020593A0020436F756E74209B
:10259000583A0020453A00205A3A0020593A00584B
:1025A0003A0020496E76616C6964206578747275B2
:1025B0006465722000486F74656E64206F66667390
:1025C0006574733A0001050800FF060121023520F9
:1025D000FFFF07FF06FF090050221656808080800B
:1025E0000080153353A0A0A00257575050F850F860
:1025F00050500257572070A0702870201335558016
:10260000A040A02002475740A0A040A0A050251302
:10261000538080801226564080808080401226564B
:102620008040404040800245559060F060900255E7
:10263000552020F82020113353604080044151F090
:1026400011335340E0400246561010204080801263
:10265000365640A0A0A0A04012365640C040404090
:10266000E00246566090106080F0024656F020600E
:102670001090600246562060A0F02020024656F0DE
:1026800080E01090600246566080E09090600246C4
:1026900056F01020204040024656609060909060B6
:1026A000024656609090701060122555C0C000C060
:1026B000C01136566060006040801236562040805F
:1026C000804020034353F000F01236568040202013
:1026D000408012365640A0204000400158583048F3
:1026E00098A8A8904030024656609090F0909002D2
:1026F0004656E090E09090E00246566090808090D0
:1027000060024656E090909090E0024656F080E0DD
:102710008080F0024656F080E0808080024656605D
:102720009080B090600246569090F0909090123653
:1027300056E040404040E002465670202020A04035
:1027400002465690A0C0A0A090024656808080808D
:1027500080F002465690F0F090909002465690D04D
:10276000F0B0B0900246566090909090600246564D
:10277000E09090E08080014757609090D0B060106A
:10278000024656E09090E0909002465660904020BD
:102790009060123656E040404040400246569090CD
:1027A00090909060024656909090906060024656DD
:1027B000909090F0F0900246569090606090900259
:1027C0005656888850202020024656F0102040801F
:1027D000F0123656E080808080E0024656808040CD
:1027E000201010123656E020202020E016325240F1
:1027F000A0014151F0162252804002445470909042
:10280000700246568080E09090E0123454608080E0
:102810006002465610107090907002445460B0C030
:1028200060024656205040E040400145556090709F
:1028300010600246568080E090909012365640001C
:10284000C04040E01137572000202020A040024621
:1028500056808090E09090123656C040404040E054
:10286000025454D0A8A8A8024454E0909090024486
:102870005460909060014555E090E080800145559E
:102880007090701010024454A0D0808012345460B4
:10289000C020C00246564040E040502002445490C0
:1028A000909070123454A0A0A04002545488A8A85C
:1028B0005002445490606090014555909070906033
:1028C000024454F02040F0024757304020C02040DE
:1028D00030221656808080808080024757C020407A
:1028E000304020C006425250A0FFFFFFFFFFFFFF15
:1028F000FFFFFFFFFFFFFFFFFFFFFFFFFFFFFFFFE8
:10290000FFFFFFFFFFFFFFFFFFFF090050221656EA
:102910008000808080800146562070A0A070200238
:1029200046562050E04050A002555588705070889F
:102930000256568850F820F82022175780808000D1
:102940008080800247577080E0907010E01731510E
:10295000A002565670A8C8C8A87014355560A0606B
:1029600000E003435350A050123353E020201431B1
:1029700051E002565670E8D8E8D870173151E0158A
:10298000335340A04012355540E04000E014355527
:1029900040A02040E0143555C020C020C01622526F
:1029A0004080014555909090E08002565678E8E8C6
:1029B0006828282411518011225240801435554036
:1029C000C04040E014355540A04000E0034353A010
:1029D00050A0024757808080A060F02002475780B7
:1029E00080A0D010207002475780408060A0F02067
:1029F00012365640004080A0400247574020609069
:102A0000F0909002475720406090F0909002475716
:102A100060906090F0909002475750A06090F090C6
:102A20009002475790006090F09090024757609056
:102A30006090F0909002465670A0A0F0A0B00147C0
:102A400057609080809060400247574020F080E0BF
:102A500080F00247572040F080E080F00247576046
:102A600090F080E080F00247579000F080E080F026
:102A70001237578040E0404040E01237572040E096
:102A8000404040E012375740A0E0404040E012375D
:102A900057A000E0404040E00256567048E84848E1
:102AA0007002475750A090D0B090900247574020F6
:102AB0006090909060024757204060909090600234
:102AC00047576090609090906002475750A0609088
:102AD000909060024757900060909090601233533E
:102AE000A040A002465670B0B0D0D0E00247574098
:102AF0002090909090600247572040909090906076
:102B000002475760909090909060024757900090D5
:102B10009090906002575710208850202020024645
:102B20005680E09090E0800246566090A0A090A071
:102B30000247574020007090907002475720400095
:102B4000709090700247572050007090907002472C
:102B50005750A000709090700246565000709090B0
:102B60007002475760906070909070025454F06803
:102B7000B078113555608080604002475740200092
:102B800060B0C06002475720400060B0C06002479C
:102B90005760900060B0C060024656500060B0C000
:102BA00060123757804000C04040E0123757204045
:102BB00000C04040E012375740A000C04040E01243
:102BC0003656A000C04040E0024757A040A0107019
:102BD000906002475750A000E09090900247574005
:102BE0002000609090600247572040006090906005
:102BF0000247576090006090906002475750A000D5
:102C0000609090600246569000609090601235553A
:102C10004000E0004002445470B0D0E0024757400A
:102C20002000909090700247572040009090907044
:102C30000247576090009090907002465690009026
:102C4000909070014858204000909070906001472B
:102C5000578080E090E0808001475790009090700E
:102C6000906001050700FE0500FB01F220FFFE0554
:102C7000FE05FE020040021525808080008005329E
:102C800042A0A002556550F850F8500146562070F9
:102C9000C030E02002556590102040480255656024
:102CA00080689068051222808002253540808080EF
:102CB000400225358040404080043343A040A003BB
:102CC000334340E0400122324080043141E00211B0
:102CD0002180025565081020408002455560909083
:102CE0009060022535C040404040024555E01060EC
:102CF00080F0024555E0106010E00245552060A0CC
:102D0000F020024555F080E010E00245556080E07B
:102D10009060024555F0102040400245556090609B
:102D2000906002455560907010600313238000800E
:102D3000021424800080800235452040804020031A
:102D40003343E000E0023545804020408002455595
:102D5000E0106000400255657088B8A870024555C3
:102D6000609090F090024555E090E090E00235458B
:102D70006080808060024555E0909090E00235458B
:102D8000E080E080E0023545E080E080800245554B
:102D90007080B090700245559090F090900235454B
:102DA000E0404040E002455530101090600245552B
:102DB00090A0C0A09002354580808080E0025565DB
:102DC00088D8A8888802455590D0B0909002455583
:102DD0006090909060024555E09090E080014656EA
:102DE000609090906010024555E09090E090024510
:102DF0005570806010E0023545E04040404002459B
:102E00005590909090600245559090A0A04002553A
:102E10006588A8A8A85002455590906090900245FA
:102E2000559090701060023545E0204080E002250A
:102E300035C0808080C00255658040201008022582
:102E400035C0404040C005324240A0024151F0052B
:102E5000223280400244547090907002455580E0C8
:102E60009090E0023444608080600245551070907C
:102E7000907002445460B0C0600235452040E0408C
:102E80004000465670909070106002455580E0906A
:102E900090900215258000808080002737400040F8
:102EA000404040800245558090A0E090021525806A
:102EB00080808080025464F0A8A8A8024454E09066
:102EC000909002445460909060004656E09090E0EC
:102ED0008080004656709090701010023444A0C05C
:102EE000808002445470C030E002354540E04040EC
:102EF00020024454909090700244549090A040025C
:102F00005464A8A85050023444A04040A000465643
:102F1000909090701060024454F02040F0023545CB
:102F200060408040600215258080808080023545A9
:102F3000C0402040C005425250A0FFFFFFFFFFFFEE
:102F4000FFFFFFFFFFFFFFFFFFFFFFFFFFFFFFFF91
:102F5000FFFFFFFFFFFFFFFFFFFFFF020040FFFF3C
:102F6000FFFFFFFFFFFFFFFFFFFFFFFFFFFFFFFF71
:102F7000FFFFFFFFFFFFFFFFFFFFFFFFFFFFFFFF61
:102F8000FFFFFFFFFFFFFFFFFFFFFFFFFFFFFFFF51
:102F9000FFFFFFFFFFFFFFFFFFFFFFFFFFFFFFFF41
:102FA000FFFFFFFFFFFFFFFFFFFFFFFFFFFFFFFF31
:102FB000FFFFFFFFFFFFFFFFFFFFFFFFFF01060D0A
:102FC00000FE09016602D620FFFE0BFE0AFE0D0080
:102FD000602219698080808080808000801833633F
:102FE000A0A0A00357675050F850F85050025969FC
:102FF0002078A0A0702828F02002596948A8501015
:10300000204050A89002586840A0A040A098906826
:10301000281363808080113B6B204040808080803B
:1030200080404020113B6B804040202020202040E9
:10303000408006556520A870A8200455652020F81A
:103040002020113363604080065161F811336340E2
:10305000E040025969080810102040408080025961
:10306000692050888888888850200259692060A08B
:103070002020202020F802596970888808102040FC
:1030800080F8025969F80810207008088870025901
:1030900069101030505090F81010025969F8808073
:1030A000B0C80808887002596970888080F08888E4
:1030B0008870025969F808101020204040400259D9
:1030C00069708888887088888870025969708888D3
:1030D00088780808887011386840E040000040E0B7
:1030E0004011386840E040000060408002596908A3
:1030F0001020408040201008045464F80000F802BA
:103100005969804020100810204080025969708859
:103110008808102020002002596970888898A8A883
:10312000B080780259692050888888F88888880299
:103130005969F048484870484848F0025969708811
:1031400080808080808870025969F04848484848EB
:103150004848F0025969F8808080F0808080F80249
:103160005969F8808080F080808080025969708879
:103170008080809888887002596988888888F88853
:10318000888888123969E040404040404040E00271
:103190005969381010101010109060025969888811
:1031A00090A0C0A09088880259698080808080802B
:1031B0008080F80259698888D8A8A88888888802F9
:1031C000596988C8C8A8A8989888880259697088D9
:1031D00088888888888870025969F0888888F08093
:1031E000808080015A6A70888888888888A87008DA
:1031F000025969F0888888F0A0908888025969701F
:103200008880807008088870025969F82020202082
:1032100020202020025969888888888888888870BA
:10322000025969888888885050502020025969883E
:10323000888888A8A8A8A850025969888850502072
:1032400050508888025969888850502020202020BA
:10325000025969F808101020404080F8113B6BE0DB
:10326000808080808080808080E0025969808040FA
:10327000402010100808113B6BE020202020202067
:10328000202020E0085363205088015161F82A2251
:103290006280400256667008788898680259698092
:1032A0008080F088888888F00256667088808088E0
:1032B00070025969080808788888888878025666F4
:1032C0007088F880887002596930484040F040406A
:1032D000404000586870888888780888700259696A
:1032E000808080B0C8888888881238684000C040D4
:1032F000404040E0004A6A100030101010109090DA
:103300006002596980808090A0C0A09088123969BD
:10331000C040404040404040E0025666D0A8A8A8C7
:10332000A888025666B0C888888888025666708861
:1033300088888870005868F0888888F080808000CD
:1033400058687888888878080808025666B0C88067
:1033500080808002566670886010887002586840CD
:1033600040F0404040483002566688888888986817
:103370000256668888885050200256668888A8A819
:10338000A8500256668850202050880058688888C7
:10339000889868088870025666F810204080F80106
:1033A0005B6B1820202020C02020202018221969C3
:1033B000808080808080808080015B6BC0202020A6
:1033C000201820202020C008536348A890FFFFFF4A
:1033D000FFFFFFFFFFFFFFFFFFFFFFFFFFFFFFFFFD
:1033E000FFFFFFFFFFFFFFFFFFFFFFFFFFFF0D00DE
:1033F0006022196980008080808080808003586806
:103400002070A8A0A0A8702002596930484040E070
:10341000404048B003566688705050708802596921
:1034200088885050F820F8202022196980808080F8
:103430000080808080124A6A609080609090601066
:1034400090601A3262A0A00359697088A8D8C8D8C1
:10345000A88870045767700878887800F803566663
:103460002850A0A05028045363F80808163161E0E2
:103470000359697088E8D8D8E8D888700A5161F88B
:10348000174464609090600357672020F820200064
:10349000F807356540A02040E007356540A0402092
:1034A000C02A226240800058688888888898E8800E
:1034B0008002596978E8E8E8E86828282826216128
:1034C000C0202262408007356540C04040E004577C
:1034D00067708888887000F8035666A050282850C6
:1034E000A0025A6A40C04040E00818283808025A32
:1034F0006A40C04040E01028081038025A6A40A0D4
:103500004020A0481828380802596920002020408F
:1035100080888870025A6A40200020508888F88885
:1035200088025A6A10200020508888F88888025A39
:103530006A30480020508888F88888025A6A2850E3
:103540000020508888F88888025A6A50500020501D
:103550008888F88888025A6A20502020508888F885
:10356000888802596958A0A0A0B0E0A0A0B8005B6C
:103570006B7088808080808088702040025A6A400A
:103580002000F88080F08080F8025A6A102000F84D
:103590008080F08080F8025A6A304800F88080F01D
:1035A0008080F8025A6A505000F88080F08080F8DD
:1035B000123A6A804000E04040404040E0123A6ADF
:1035C000204000E04040404040E0124A6A609000E5
:1035D000E04040404040E0123A6AA0A000E0404095
:1035E000404040E0025969F0484848E8484848F0FF
:1035F000025A6A2850008888C8A8988888025A6A9F
:1036000040200070888888888870025A6A102000DC
:1036100070888888888870025A6A30480070888864
:1036200088888870025A6A2850007088888888883C
:1036300070025A6A505000708888888888700355D4
:10364000658850205088015B6B08709898A8A8A8DE
:10365000C8C87080025A6A40200088888888888894
:1036600070025A6A10200088888888888870025AF8
:103670006A30480088888888888870025A6A505062
:103680000088888888888870025A6A102000888894
:10369000502020202002596980F0888888F080809E
:1036A00080025969609090A0A0908888B002596902
:1036B00040200070087888986802596910200070CE
:1036C00008788898680259693048007008788898A6
:1036D000680259692850007008788898680259690A
:1036E000505000700878889868025A6A3048300054
:1036F000700878889868025666702870A0A85000F4
:103700005868708880808870204002596940200085
:103710007088F88088700259691020007088F880DD
:1037200088700259693048007088F88088700259A2
:10373000695050007088F8808870123969804000A4
:10374000C040404040E0123969204000C040404045
:1037500040E0124969609000C040404040E01239AA
:1037600069A0A000C040404040E0025A6A5020607A
:1037700010708888888870025969285000B0C888FD
:10378000888888025969402000708888888870027B
:1037900059691020007088888888700259693048FB
:1037A000007088888888700259692850007088885D
:1037B0008888700259695050007088888888700322
:1037C0005767202000F8002020015868087098A84A
:1037D000A8C8708002596940200088888888986845
:1037E00002596910200088888888986802596930D1
:1037F00048008888888898680259695050008888ED
:1038000088889868005B6B10200088888898680812
:103810008870005A6A8080B0C88888C8B0808000EC
:103820005B6B50500088888898680888700000009A
:103830000000000000000000000000000000000088
:103840000000000000000000000000000000000078
:103850000C000000000000000C0000000000000050
:103860001200000000000000230000000000000023
:1038700021000000000000004C800000000000005B
:103880005E80000000000000924000000000000088
:10389000A140000000000001212000000000000203
:1038A0007F900000000000020010000000000007F0
:1038B000FFF80000000000040008000000000008FD
:1038C00000040000000000080006000000000010D6
:1038D00000020000000000301E0100000000002077
:1038E0007F81000000000041FFE0800000000043F5
:1038F000FCF08000000000873B7840000000018E53
:10390000DBFC60000000010FEBCC20000000021F78
:10391000EDB610000000021FDEB6100000000439F2
:10392000CD7F080000000436E0FF08000000087E9C
:10393000C0BB84000000187F005D86000000107F7F
:10394000C0ED82000000203CC07301000000203B5D
:10395000337F01000000701BE77E03800000C81D5C
:10396000EEDE04C00000880FDEDC04400001240FFE
:10397000DF3C092000012607DBF819200002720352
:10398000E7F0139000025101FFE02290000489004B
:103990007F802448000904801E004824000BFE405C
:1039A0000000DFF40010004000008002001FFFFF55
:1039B000FFFFFFFE0000000000000000000000000C
:1039C00000000000000000000000000000102210B5
:1039D0003C3C0E1F00102210042211040010221083
:1039E0000822110400102210083C110400102210BB
:1039F000102211040010221020221104001E1C1E8F
:103A00003C3C0E040000000000000000000000002C
:103A100000000000000000000000000000000000A6
:103A20000000000000000000000000000000000096
:103A30000000000000000000000000000000000086
:103A40000000000000000000000000000000000076
:103A50000000000000000000000000000000000066
:103A60000000000000000000000000204000204294
:103A7000403A0020403A004D6F76652058004D6F67
:103A800076652059004D6F7665205A00457874722E
:103A900075646572320045787472756465723100C0
:103AA000205A00205900580020204D61783A20000B
:103AB000205A00205900580020204D696E3A2000FD
:103AC0004F6E20004F666600536F667420656E640B
:103AD00073746F70733A200053657474696E672055
:103AE00054726176656C20416363656C65726174C4
:103AF000696F6E3A200053657474696E6720526571
:103B0000747261637420416363656C65726174698A
:103B10006F6E3A200053657474696E672050726945
:103B20006E7420416363656C65726174696F6E3A8F
:103B3000200053657474696E67205072696E74203A
:103B4000616E642054726176656C20416363656CBC
:103B500065726174696F6E3A200020643A002069D2
:103B60003A0020703A0020643A0020693A00207040
:103B70003A0020440020490020204D3330342050AA
:103B80000020440020490020204D333031205000D7
:103B900020440020490020500020204D33303120A7
:103BA00045005049442073657474696E67733A0A1E
:103BB0000020460020420020480020204D313435AE
:103BC0002053004D6174657269616C206865617491
:103BD000757020706172616D65746572733A0A0068
:103BE00020590020580020204D3231382054004800
:103BF0006F74656E64206F6666736574733A0A004D
:103C0000205A0020590020204D32303620580048DC
:103C10006F6D65206F66667365743A0A0020450013
:103C2000205A002059002058002042002054002033
:103C3000204D323035205300416476616E636564F7
:103C40003A20533C6D696E5F6665656472617465A8
:103C50003E20543C6D696E5F74726176656C5F6680
:103C6000656564726174653E20423C6D696E5F7388
:103C700065676D656E745F74696D655F6D733E2019
:103C8000583C6D61785F78795F6A65726B3E205A47
:103C90003C6D61785F7A5F6A65726B3E20453C6D72
:103CA00061785F655F6A65726B3E0A002054002090
:103CB000520020204D323034205000416363656C47
:103CC00065726174696F6E2028756E6974732F73E5
:103CD00032293A20503C7072696E745F616363658B
:103CE0006C3E20523C726574726163745F61636301
:103CF000656C3E20543C74726176656C5F616363F1
:103D0000656C3E0A0020450020204D3230312054A1
:103D100000205A0020590020204D32303120580018
:103D20004D6178696D756D20416363656C65726185
:103D300074696F6E2028756E6974732F7332293A17
:103D40000A0020450020204D323033205400205AF4
:103D50000020590020204D3230332058004D61782A
:103D6000696D756D20666565647261746573202880
:103D7000756E6974732F73293A0A0020450020205C
:103D80004D3932205400205A0020590020204D394E
:103D90003220580053746570732070657220756E00
:103DA00069743A0A0020204D3230302044300A0035
:103DB00020204D32303020543120440020204D321C
:103DC00030302044002044697361626C65640A00ED
:103DD00046696C616D656E742073657474696E6795
:103DE000733A0020204D3134392043203B20556E5A
:103DF00069747320696E2043656C736975730A007A
:103E00002020473231202020203B20556E697473DA
:103E100020696E206D6D0A0048617264636F64658D
:103E2000642044656661756C742053657474696EB2
:103E30006773204C6F616465640A002823000028C2
:103E400023000064000000102700000000964300DB
:103E5000009643000040400000C8410000C94200F5
:103E600000C9420000C84400804F4400804F4420F5
:103E70002863616C63756C6174656429210A002094
:103E8000213D2000454550524F4D20435243206D67
:103E900069736D61746368202D202873746F726577
:103EA00064292000290A002062797465733B20632D
:103EB000726320002073746F72656420736574747C
:103EC000696E67732072657472696576656420280F
:103ED00000204D61726C696E3D563430290A00280D
:103EE000454550524F4D3D00454550524F4D20766F
:103EF000657273696F6E206D69736D61746368209C
:103F000000526573746F7265206661696C736166D7
:103F100065004D3530320A4D353030004C6F6164EC
:103F20002073657474696E67730053746F726520D3
:103F300073657474696E677300416476616E63655E
:103F4000642053657474696E6773004D61696E0017
:103F500025753A2530327500253032753A253032D4
:103F6000750025756420253032753A25303275008C
:103F700000060900FE000000000001090008FE0024
:103F80000005080806000040F0C8888898781005E9
:103F90000808060000C0F88888888888F8050505A4
:103FA0000600012030F830200508080600002070C7
:103FB000F820202020E00509090600FF2070A8A8AD
:103FC000B8888870200509090600FFE080C0B0A805
:103FD000283028280509090600FFF8A8888888885D
:103FE00088A8F8050A0A0600FE205050505088A8FC
:103FF000A8887003030306000340A04000060900E0
:10400000FE070192032120FFFF08FF07FF000000C9
:104010000600000107070602008080808080008083
:10402000030202060105A0A0050707060000505084
:10403000F850F850500507070600002078A07028B7
:10404000F020050707060000C0C81020409818059A
:1040500007070600006090A040A8906802030306CE
:104060000104C040800307070601002040808080D3
:1040700040200307070601008040202020408005E3
:10408000050506000120A870A82005050506000109
:104090002020F820200203030602FFC04080050113
:1040A00001060003F8020202060200C0C005050571
:1040B00006000108102040800507070600007088F0
:1040C000888888887003070706010040C040404088
:1040D00040E0050707060000708808708080F8053A
:1040E0000707060000F81020100808F0050707066B
:1040F000000010305090F81010050707060000F877
:1041000080F008088870050707060000708080F0BE
:10411000888870050707060000F808102020202076
:1041200005070706000070888870888870050707F3
:1041300006000070888878080870020505060200ED
:10414000C0C000C0C00206060602FFC0C000C040DA
:10415000800407070600001020408040201005035F
:1041600003060002F800F80407070601008040205B
:104170001020408005070706000070880810200006
:104180002005070706000070880868A8A8700507C2
:1041900007060000708888F88888880507070600E9
:1041A00000F08888F08888F005070706000070880E
:1041B0008080808870050707060000F0888888885E
:1041C00088F0050707060000F88080F08080F80579
:1041D0000707060000F88080F0808080050707064A
:1041E0000000708880B8888870050707060000887E
:1041F0008888F88888880107070602008080808008
:1042000080808005070706000038101010109060AD
:104210000507070600008890A0C0A0908805070742
:10422000060000808080808080F805070706000077
:1042300088D8A8888888880507070600008888C865
:10424000A8988888050707060000708888888888ED
:1042500070050707060000F08888F0808080050759
:104260000706000070888888A89068050707060080
:1042700000F08888F0A09088050707060000788085
:1042800080700808F0050707060000F820202020AD
:104290002020050707060000888888888888700520
:1042A00007070600008888888888502005070706C9
:1042B00000008888888888A85005070706000088BD
:1042C0008850205088880507070600008888885095
:1042D000202020050707060000F80810204080F87D
:1042E000030707060100E08080808080E005050567
:1042F0000600018040201008030707060100E020A7
:1043000020202020E005030306000420508805013A
:1043100001060000F80202020602058040050505BC
:10432000060000700878887805070706000080807E
:10433000B0C88888F0050505060000708080887088
:1043400005070706000008086898888878050505AD
:104350000600007088F880700507070600003048E6
:10436000E0404040400506060600FF708888780857
:10437000700507070600008080B0C888888801079C
:104380000706020080008080808080030808060104
:10439000FF200020202020A0400407070600008006
:1043A0008090A0C0A090030707060100C0404040D5
:1043B0004040E0050505060000D0A8A8A8A805050E
:1043C00005060000B0C8888888050505060000704D
:1043D000888888700506060600FFF08888F08080CF
:1043E0000506060600FF7888887808080505050692
:1043F0000000B0C880808005050506000070807050
:1044000008F00407070600004040E0404040300547
:1044100005050600008888889868050505060000DF
:1044200088888850200505050600008888A8A850BF
:104430000505050600008850205088050606060080
:10444000FF888888780870050505060000F81020A8
:1044500040F803070706010020404080404020014B
:10446000070706020080808080808080030707069F
:1044700001008040402040408005020206000268A2
:104480009000000006000000000006000000000090
:10449000060000000000060000000000060000000A
:1044A00000000600000000000600000000000600FA
:1044B00000000000060000000000060000000000F0
:1044C00006000000000006000000000006000000DA
:1044D00000000600000000000600000000000600CA
:1044E00000000000060000000000060000000000C0
:1044F00006000000000006000000000006000000AA
:104500000000060000000000060000000000060099
:10451000000000000600000000000600000000008F
:104520000600000000000600000000000600000079
:104530000000060000000000060000000000060069
:104540000000000006000000000006000001070750
:10455000060200800080808080800507070600003A
:104560002070A8A0A8702005070706000030404072
:10457000E04050A8050505060000887050708805C9
:104580000707060000885020F820F82001070706DA
:1045900002008080800080808005080806000030CE
:1045A00048205050209060030101060107A0050734
:1045B00007060000F888B8B8B888F80507070600AD
:1045C00001700878887800F8050505060001285074
:1045D000A05028050303060001F80808020202069D
:1045E00002064080050707060000F888A88898A8FA
:1045F000F8050101060006F80404040600036090B3
:1046000090600507070600002020F8202000F8042D
:10461000050506000360902040F003050506000331
:10462000E020E020E00202020602064080050808C1
:104630000600FF8888888898E880800507070600BC
:104640000078989878181818020202060202C0C072
:104650000202020602FF408003050506000340C077
:104660004040E0050707060001708888887000F860
:10467000050505060001A0502850A0050707060003
:10468000008890A858B80808050707060000889019
:10469000B848982038050808060000C040C048D82F
:1046A00038080805070706000020002040808870B1
:1046B0000508080600004020007088F88888050872
:1046C000080600001020007088F888880508080691
:1046D00000002050007088F888880508080600004F
:1046E0006890007088F88888050808060000500067
:1046F000708888F888880508080600002050207017
:1047000088F888880507070600003860A0B8E0A090
:10471000B80508080600FF70888080887020600552
:104720000808060000402000F880F080F80508081E
:10473000060000081000F880F080F8050808060060
:1047400000205000F880F080F805070706000050B0
:1047500000F880F080F8030808060100804000E0BF
:10476000404040E0030808060100204000E04040CF
:1047700040E003080806010040A000E0404040E09F
:10478000030707060100A000E0404040E0050707DE
:10479000060000704848E848487005080806000010
:1047A00068900088C8A8988805080806000040207E
:1047B00070888888887005080806000010207088B6
:1047C00088888870050808060000205000708888D6
:1047D0008870050808060000689000708888887056
:1047E0000508080600005000708888888870050554
:1047F0000506000188502050880508080600FF10B3
:1048000070A8A8A8A87040050808060000402088E5
:104810008888888870050808060000102088888825
:10482000888870050808060000205000888888885D
:104830007005080806000050008888888888700580
:1048400008080600001020885020202020050909B3
:104850000600FFC040704848704040E00408080669
:1048600001FF609090A09090E0800508080600008D
:10487000402000700878887805080806000010209D
:10488000007008788878050808060000205000703D
:104890000878887805080806000068900070087895
:1048A00088780507070600005000700878887805AA
:1048B0000808060000205020700878887805060651
:1048C000060000D02878A0A8500506060600FF7054
:1048D000808870206005080806000040200070886D
:1048E000F880700508080600001020007088F88025
:1048F000700508080600002050007088F8807005D8
:10490000070706000050007088F88070030808064A
:10491000010080400040C04040E00308080601005C
:1049200020400040C04040E003080806010040A0CD
:104930000040C04040E0030707060100A00040C05F
:104940004040E0050707060000A040A010788870EE
:10495000050808060000689000B0C8888888050827
:104960000806000040200070888888700508080646
:104970000000102000708888887005080806000074
:10498000205000708888887005080806000068902C
:10499000007088888870050707060000500070883E
:1049A0008888700505050600012000F8002005072D
:1049B000070600FF1070A8A8A870400508080600A8
:1049C00000402000888888986805080806000010C4
:1049D0002000888888986805080806000020500094
:1049E000888888986805070706000050008888882E
:1049F00098680509090600FF102000888888F808D3
:104A0000700407070601FFC04060506040E00508E1
:104A1000080600FF50008888887808705A005900FE
:104A20005800092000000000000000000000000005
:104A3000007FFFE000000000000000000000000018
:104A40007000E000000000000000000000000061B5
:104A5000F86000000000000000000000000041F8C5
:104A60002000000000000000000000000040F020D6
:104A70000000000000000000000000004060200076
:104A800000000000000000000000005801A07F802E
:104A9000003FC0000000004104005C63A0FBC000B8
:104AA00079E0000000002082005EF7A0F3C00076ED
:104AB000E0000000002082005EF7A0EBC0007EE076
:104AC000000000004104005C63A07B80003DC0004A
:104AD0000000008208005801A07B80003BC000005D
:104AE0000001041000406020FBC00077E0000000DF
:104AF0000104100040F020FBC00070E00000000046
:104B000082080041F820FFC0007FE0000000004163
:104B1000040061F8603F00001F80000000000000FA
:104B2000007000E01E00000F0000000001FFFF8089
:104B30007FFFE00C0000060000000001FFFF800086
:104B400000000000000000000000000000007FFFE7
:104B5000E00000000000000000000000007000E025
:104B6000000000000000000000000000630C600076
:104B70000000000000000000000000470E200000C0
:104B8000000000000000000000004F0F20000000A7
:104B90000000000000000000005F0FA00000000007
:104BA00000000000000000005E07A07F80003FC002
:104BB00000000000410400406020FBC00079E000DC
:104BC00000000020820040F020F3C00076E00000EA
:104BD000000020820040F020EBC0007EE0000000DA
:104BE000004104004060207B80003DC000000000C8
:104BF0008208005E07A07B80003BC000000001042B
:104C000010005F0FA0FBC00077E00000000104105F
:104C1000004F0F20FBC00070E00000000082080081
:104C2000470E20FFC0007FE0000000004104006349
:104C30000C603F00001F80000000000000007000BA
:104C4000E01E00000F0000000001FFFF807FFFE07A
:104C50000C0000060000000001FFFF8000000000C3
:104C60000020002300260029002C002F0032000025
:104C7000010000030106010901000000C00000005E
:104C8000000000000000008F4300008A4300007A0B
:104C9000434F6666004F6E2000456E6473746F70FC
:104CA0002061626F72740053746570732F6D6D00B4
:104CB0004A65726B00416363656C65726174696F0C
:104CC0006E0056656C6F6369747900416476616E3D
:104CD0006365642053657474696E6773005654721B
:104CE0006176206D696E005654726176206D696E32
:104CF000005654726176206D696E00566D696E00C3
:104D0000566D696E00566D696E00566D617820456E
:104D10003200566D617820453200566D617820452D
:104D20003200566D617820453100566D617820451E
:104D30003100566D617820453100566D6178205AFA
:104D400000566D6178205A00566D6178205A0056E1
:104D50006D6178205900566D6178205900566D615B
:104D600078205900566D6178205800566D61782082
:104D70005800566D61782058004D6F74696F6E0051
:104D8000453273746570732F6D6D004532737465B1
:104D900070732F6D6D00453173746570732F6D6D79
:104DA00000453173746570732F6D6D005A737465AF
:104DB00070732F6D6D005A73746570732F6D6D0075
:104DC0005973746570732F6D6D00597374657073CA
:104DD0002F6D6D005873746570732F6D6D0058736F
:104DE000746570732F6D6D004D6F74696F6E005632
:104DF000652D6A65726B0056652D6A65726B00568B
:104E0000652D6A65726B00567A2D6A65726B005665
:104E10007A2D6A65726B0056792D6A65726B005641
:104E2000792D6A65726B0056792D6A65726B005632
:104E3000782D6A65726B0056782D6A65726B005624
:104E4000782D6A65726B004D6F74696F6E004E6FDE
:104E5000204C696E65204E756D62657220776974AD
:104E60006820636865636B73756D2C204C61737487
:104E7000204C696E653A200053544F505045442EE3
:104E800020005072696E7465722073746F70706563
:104E9000642064756520746F206572726F72732E62
:104EA0002046697820746865206572726F7220618F
:104EB0006E6420757365204D39393920746F207206
:104EC0006573746172742E202854656D706572610B
:104ED000747572652069732072657365742E205332
:104EE00065742069742061667465722072657374DC
:104EF000617274696E67290A004E6F2043686563AA
:104F00006B73756D2077697468206C696E65206EAF
:104F1000756D6265722C204C617374204C696E65EE
:104F20003A2000636865636B73756D206D69736DFE
:104F3000617463682C204C617374204C696E653A0F
:104F400020004C696E65204E756D62657220697334
:104F5000206E6F74204C617374204C696E65204E16
:104F6000756D6265722B312C204C617374204C6915
:104F70006E653A20004D313130004D3331004D38EF
:104F80003420582059205A2045005344207265612E
:104F900064206572726F720A00446F6E65207072D1
:104FA000696E74696E672066696C650A004B494CCE
:104FB0004C45442E20004B494C4C20636175736571
:104FC00064206279204B494C4C20627574746F6E7A
:104FD0002F70696E0A004B494C4C45442E20004B03
:104FE000494C4C2063617573656420627920746F4D
:104FF0006F206D75636820696E61637469766520E2
:1050000074696D65202D2063757272656E742063FE
:105010006F6D6D616E643A2000436F6F6C646F77E3
:105020006E0046616E2073706565642031004661D4
:105030006E207370656564203100426564004265CE
:1050400064004E6F7A7A6C652032004E6F7A7A6C0B
:10505000652032004E6F7A7A6C652031004E6F7A8F
:105060007A6C652031004D61696E00466C6F772067
:105070003200466C6F77203200466C6F772031002B
:10508000466C6F7720310046616E207370656564F1
:1050900020310046616E20737065656420310042E6
:1050A000656400426564004E6F7A7A6C6520320058
:1050B0004E6F7A7A6C652032004E6F7A7A6C65207A
:1050C00031004E6F7A7A6C652031005370656564EB
:1050D000005370656564004D61696E00416D6178D3
:1050E00020453200416D617820453200416D617884
:1050F00020453100416D617820453100416D617876
:10510000205A00416D6178205A00416D6178205924
:1051100000416D6178205900416D6178205800414F
:105120006D6178205800412D74726176656C004184
:105130002D74726176656C00412D726574726163C5
:105140007400412D7265747261637400416363651C
:105150006C00416363656C004D6F74696F6E004E47
:10516000414E494E495459494E46CDCCCC3D0AD7C3
:10517000233C17B7D13877CC2B329595E6241FB155
:105180004F0A000020410000C84200401C4620BCDD
:10519000BE4CCA1B0E5AAEC59D7403FA8556112427
:1051A0001FBECFEFD1E2DEBFCDBF00E00CBF14E0E9
:1051B000A0E0B2E0EAEBFCE002E00BBF02C0079027
:1051C0000D92A831B107D9F725E1A8E1B4E001C0FB
:1051D0001D92AB34B207E1F711E5CCE9D1E500E06F
:1051E00006C022970109FE010BBF0F94DD05CA39E5
:1051F000D10780E00807A9F70E947A9D0D944C061C
:105200000C9400002F923F924F925F926F927F9288
:105210008F929F92AF92BF92CF92DF92EF92FF92C6
:105220000F931F93CF93DF93CDB7DEB7C658D10945
:105230000FB6F894DEBF0FBECDBF00917C1020E604
:10524000029F800111240450114F8091D80680FFE5
:105250001AC0EEE3F9E184917F013FEFE31AF30A0C
:10526000811102C0780104C00E94266CF701F3CFBF
:10527000D7018D917D01882319F00E94266CF8CF0B
:105280008AE00E94266C1092600610925F068FE3FF
:105290008093D7061092D6061092D506109232044B
:1052A000109233041092340410923504F801808176
:1052B0000F5F1F4F8032D1F38E34B1F4818190EDB6
:1052C000980F9A3020F08D3211F08B3269F43296BB
:1052D000DF0131962C9120532A30D0F3CD01FC010F
:1052E000019620812032D9F3F093CF06E093CE06C9
:1052F0007F01BFEFEB1AFB0A10816AE270E0C70181
:105300000F941D06009739F0DC0111978C918032C3
:10531000E1F311961C921D3429F0143519F017345D
:1053200009F0CDC0F7014E2F9F2F81918032D9F324
:1053300080538A3008F0C3C01093D7062091D50659
:105340003091D606E42FF92F6AE0AF014F5F5F4F2F
:10535000629FC001639F900D1124208130E0205393
:105360003109820F931F218120532A3030F090930E
:10537000D6068093D5069A0103C09C01FA01E5CFB9
:10538000D9012F5F3F4F4C914032D1F31D3449F08A
:10539000B090CE0640915F065091600661E070E0EB
:1053A00050C08E31910591F03CF48731910571F038
:1053B0008C31910569F70AC0853791054CF3873721
:1053C000910524F0803AE3E09E0711F7B093600660
:1053D000A0935F0674C02132F1F10FEB020F0A3186
:1053E00008F05AC09F01F901A0812F5F3F4FA03202
:1053F000D1F320ED2A0F2A3008F042C09F01E02EA1
:10540000F12CD701B595A795B595A795B595A79515
:10541000AE5CBB4F07706B01002E01C0CC0C0A9430
:10542000EAF7DC90DC28DC922115310599F12B1983
:10543000D701A85EBB4F2C93208121542A3188F5D7
:10544000DF01FD0131962C912111C5CF50936006EB
:1054500040935F0634C01D3409F0BFCF8032910500
:1054600009F0BBCFF0936006E0935F0663E270E063
:10547000CF010F941D06009711F1DC011C921FC093
:1054800023ED2A0F223008F4B9CFAB3211F00C947F
:105490007C40B4CF20E0CCCF4115510569F6AD0179
:1054A000CBCF9F013196D9010C9100530A30C8F33C
:1054B000F9012F5F3F4FA081A032D1F3C1CF80917E
:1054C000D7068D3409F4A9C7843511F40C94563FDE
:1054D000873411F00C945F408091D5069091D606E8
:1054E0008A31910509F4CFC684F48430910544F4DF
:1054F000823091050CF001C197FF23C00C947940D4
:10550000049709F47BC60C9479408A35910509F417
:1055100045C76CF48B31910509F4BCC64C9711F06A
:105520000C94794080E00E94A0B40C9479408B35B3
:10553000910509F437C78C35910509F438C70C94E7
:10554000794080916102882311F40C9479400E9483
:105550009BE486E394E00E94E1E20E94B6E680913B
:10556000D80683FD79C0C0904204D0904304E090F7
:105570004404F09045042091D20E3091D30E409116
:10558000D40E5091D50EC701B6010E94B9FE8823F2
:1055900009F462C08091CD060E9406E5882301F1DE
:1055A000C092D20ED092D30EE092D40EF092D50ECD
:1055B000EEE3F9E184918F010F5F1F4F882321F003
:1055C0000E94266CF801F6CFEBEFF1E084918F0199
:1055D0000F5F1F4F882321F00E94266CF801F6CF41
:1055E000C0904204D0904304E0904404F0904504FD
:1055F0002091D20E3091D30E4091D40E5091D50E01
:10560000C701B6010F94EB0220E030E048E453E418
:105610000F941205181604F5C092D20ED092D30E34
:10562000E092D40EF092D50EEEE3F9E184918F0171
:105630000F5F1F4F882321F00E94266CF801F6CFE0
:10564000ECEDF1E084918F010F5F1F4F882321F073
:105650000E94266CF801F6CF209136043091370471
:1056600040913804509139046091C60E7091C70E74
:105670008091C80E9091C90E0E94B9FE81111DC083
:1056800020913A0430913B0440913C0450913D04F8
:105690006091CA0E7091CB0E8091CC0E9091CD0E80
:1056A0000E94B9FE811109C060915D0270915E0295
:1056B00080915F02909160021AC06091A202709185
:1056C000A302882777FD8095982F0E94BFFE209126
:1056D0005D0230915E0240915F02509160020E9433
:1056E0001EFF2AE037ED43E25CE30E941EFF0E94AA
:1056F000118C0E9440E30C94794020916102222396
:1057000011F40C94794011E0029709F010E00E9426
:105710009BE482E50E9485E4882309F45CC10E9431
:1057200022E26B017C014090C60E5090C70E609043
:10573000C80E7090C90E2091CA0E3091CB0E4091C8
:10574000CC0E5091CD0E63962CAF3DAF4EAF5FAFF8
:1057500063978091360490913704A0913804B091FA
:10576000390467968CAF9DAFAEAFBFAF67972091FE
:105770003A0430913B0440913C0450913D046F96B3
:105780002CAF3DAF4EAF5FAF6F9720E030E0A90187
:10579000C701B6010E94B9FE882309F415C5A3010B
:1057A000920167966CAD7DAD8EAD9FAD67970E94FF
:1057B000B9FE811111C063962CAD3DAD4EAD5FAD0C
:1057C00063976F966CAD7DAD8EAD9FAD6F970E9468
:1057D000B9FE882309F4F8C420E030E0A901C7012C
:1057E000B6010E94B9FE881F8827881F181759F034
:1057F00080E090E0A0E8BFEBAB968CAF9DAFAEAF82
:10580000BFAFAB970AC020E030E040E85FE3AB9663
:105810002CAF3DAF4EAF5FAFAB97A3019201679640
:105820006CAD7DAD8EAD9FAD67970F94EB02A396E7
:105830006CAF7DAF8EAF9FAFA39763962CAD3DADA0
:105840004EAD5FAD63976F966CAD7DAD8EAD9FAD88
:105850006F970F94EB02A7966CAF7DAF8EAF9FAFA3
:10586000A797A3962CAD3DAD4EAD5FADA397CA01F2
:10587000B9010E941EFF4B015C01A7962CAD3DAD06
:105880004EAD5FADA797CA01B9010E941EFF9B01F3
:10589000AC01C501B4010F94EC020F9457056B964F
:1058A0006CAF7DAF8EAF9FAF6B9720E030E040E0F4
:1058B0005FE30E941EFF4B015C01A7019601C70137
:1058C000B6010E941EFF6B017C01A5019401C50178
:1058D000B4010E941EFF9B01AC01C701B6010F94E9
:1058E000EB020F9457059B01AC01AB966CAD7DADFF
:1058F0008EAD9FADAB970E941EFF4B015C0167967A
:105900002CAD3DAD4EAD5FAD6797C301B2010F94B5
:10591000EC0220E030E040E05FE30E941EFF6B01FC
:105920007C01A7966CAD7DAD8EAD9FADA7979058CD
:105930006B962CAD3DAD4EAD5FAD6B970F94C8032C
:105940009B01AC01C501B4010E941EFF9B01AC018B
:10595000C701B6010F94EC02A30192010F94EB0270
:105960006B017C016F962CAD3DAD4EAD5FAD6F9779
:1059700063966CAD7DAD8EAD9FAD63970F94EC02D9
:1059800020E030E040E05FE30E941EFF2B013C017D
:105990006B962CAD3DAD4EAD5FAD6B97A3966CADE8
:1059A0007DAD8EAD9FADA3970F94C8039B01AC0155
:1059B000C501B4010E941EFF9B01AC01C301B201ED
:1059C0000F94EC0263962CAD3DAD4EAD5FAD639789
:1059D0000F94EB0214C089E40E9485E4882329F027
:1059E0000E9422E26B017C0103C0C12CD12C760104
:1059F0008AE40E9485E48823F9F00E9422E26F96EF
:105A00006CAF7DAF8EAF9FAF6F9720E030E0A90104
:105A1000C701B6010E94B9FE81111EC020E030E02E
:105A2000A9016F966CAD7DAD8EAD9FAD6F970E9455
:105A3000B9FE811111C0C8C320E030E0A901C7013F
:105A4000B6010E94B9FE882309F4BEC36F961CAE4E
:105A50001DAE1EAE1FAE6F97D701C601B05863963C
:105A60008CAF9DAFAEAFBFAF63976F962CAD3DAD22
:105A70004EAD5FAD6F97505867962CAF3DAF4EAFB0
:105A80005FAF67979C01AD01BC01CD010E941EFF75
:105A90004B015C0167962CAD3DAD4EAD5FAD679798
:105AA000CA01B9010E941EFF9B01AC01C501B401EE
:105AB0000F94EC020F945705EB966CAF7DAF8EAF51
:105AC0009FAFEB978091C60E9091C70EA091C80E24
:105AD000B091C90EA3968CAF9DAFAEAFBFAFA397E9
