:100000000C94092B0C94444E0C94194E0C94EE4D08
:100010000C94C34D0C94984D0C946D4D0C94424D22
:100020000C94174D0C943A2B0C943A2B0C943A2BBD
:100030000C943A2B0D94DC0D0C943A2B0C943A2B27
:100040000C943A2B0C94D6E70C943A2B0C943A2B44
:100050000C943A2B0C943A2B0C94B1870C942750A7
:100060000C943A2B0D9409140D94A6140C943A2B6D
:100070000C943A2B0C943A2B0C943A2B0C943A2B6C
:100080000C943A2B0C943A2B0C943A2B0C943A2B5C
:100090000C943A2B0C943A2B0C943A2B0C943A2B4C
:1000A0000C943A2B0C943A2B0C943A2B0C943A2B3C
:1000B0000C943A2B0C943A2B0C943A2B0C943A2B2C
:1000C0000C943A2B0C943A2B0C943A2B0C943A2B1C
:1000D0000C943A2B0C943A2B0C943A2B0C943A2B0C
:1000E0000C943A2BEC47EF47DE47E247E8472648B7
:1000F000F347F747FD47014805480B480F481348A9
:10010000264819481D482148ED4EF24EF74E014F42
:100110000B4F844F154F1D4F254F2F4F394F434FD6
:10012000524F5C4F844F664F704F7A4F429F429FB1
:10013000499F499F499F509F509F509F5D9F579F48
:10014000579F579FEE00D400D600DE00E400F40075
:10015000DC00F400E600EA00F400F600084AD73BB1
:100160003BCE016E84BCBFFDC12F3D6C74319ABD86
:1001700056833DDA3D00C77F11BED9E4BB4C3E91AA
:100180006BAAAABE000000803F05A84CCDB2D44E99
:10019000B93836A9020C50B9918688083CA6AAAA9B
:1001A0002ABE000000803F000D9445140D945614A3
:1001B0000D94D9140D94FB0B0D946D140D946114D2
:1001C0000D9494060D948A060D9469140D9471147F
:1001D0000D94D60C0D9475140D9469040D943F1470
:1001E0000D94AC030D942F050D947E140D947B1487
:1001F0000D94E4020D9496060D948B064E414E49E3
:100200004E495459494E46CDCCCC3D0AD7233C17D4
:10021000B7D13877CC2B329595E6241FB14F0A0021
:100220000020410000C84200401C4620BCBE4CCA11
:100230001B0E5AAEC59D74434F4D4D554E4943411B
:1002400054494F4E0044525952554E004552524F58
:10025000525300494E464F004543484F0020746FAB
:100260006F206C6F6E6720657874727573696F6E3E
:100270002070726576656E7465640A0020636F6C29
:100280006420657874727573696F6E20707265761C
:10029000656E7465640A0047322F473320626164DB
:1002A00020706172616D65746572730A00205A3A3C
:1002B000200020593A200042656420583A20004C22
:1002C000756C7A426F742054415A203620726561F1
:1002D00064792E00526573756D696E67207072695E
:1002E0006E7400436C69636B20746F207265737564
:1002F0006D652E2E2E004E6F206D6F76652E00459B
:100300006E642066696C65206C6973740A004265CE
:1003100067696E2066696C65206C6973740A004DAC
:10032000313235005344207072696E74696E6720F3
:100330006279746520004E6F742053442070726996
:100340006E74696E670A0046696C652064656C6549
:100350007465643A0044656C6574696F6E2066610B
:10036000696C65642C2046696C653A20006F706585
:100370006E206661696C65642C2046696C653A2064
:10038000002569730025696D20256973002569685A
:100390002025696D20256973002569642025696819
:1003A0002025696D202569730025697920256964F8
:1003B000202569682025696D2025697300507269C0
:1003C0006E742074696D653A2000000125301D0CA3
:1003D0001824311C0B17232F1B0A1E1604030806B2
:1003E0000202222B1A4142033809FF3628294527E9
:1003F000444350726F7465637465642050696E0A7B
:10040000004578747275646572202573004C756CB4
:100410007A426F742054415A2036207265616479A3
:100420002E00580253024C02450237026F666600E6
:1004300044454255473A006F6B00436F6F6C696EDD
:100440006720646F6E652E0048656174696E672071
:10045000646F6E652E0020573A004578747275649B
:100460006572202573004C756C7A426F742054417C
:100470005A20362072656164792E004265642064DA
:100480006F6E652E0020573A0042656420686561F2
:1004900074696E672E0042656420636F6F6C696ECD
:1004A000672E004C756C7A426F742054415A203686
:1004B000204F66662E002F2F20004D3134352053FB
:1004C0003C696E6465783E206F7574206F6620729B
:1004D000616E67652028302D31290A004B642000A9
:1004E00023646566696E65202044454641554C5439
:1004F0005F004B69200023646566696E65202044B7
:10050000454641554C545F004B702000236465669E
:10051000696E65202044454641554C545F00504962
:1005200044204175746F74756E652066696E6973D9
:10053000686564212050757420746865206C61734F
:1005400074204B702C204B6920616E64204B64201A
:10055000636F6E7374616E74732066726F6D206268
:10056000656C6F7720696E746F20436F6E66696784
:1005700075726174696F6E2E680A0050494420419B
:1005800075746F74756E65206661696C6564212091
:1005900074696D656F75740A005049442041757423
:1005A0006F74756E65206661696C656421205465A1
:1005B0006D706572617475726520746F6F20686903
:1005C00067680A00204B643A2000204B693A2000FB
:1005D000204B703A20000A20436C617373696320DA
:1005E000504944200A002054753A2000204B753AA7
:1005F0002000206D61783A2000206D696E3A20005D
:1006000020643A200020626961733A2000426564E8
:10061000204C6576656C696E6720004661696C6583
:100620006420746F20656E61626C65204265642091
:100630004C6576656C696E670A00426564204C659E
:1006400076656C20436F7272656374696F6E204DBE
:1006500061747269783A004F6666736574732061DD
:1006600070706C696564004572723A20546F6F2037
:100670006661722100546F6F206661722066726F2E
:100680006D207265666572656E636520706F696E58
:10069000740A003A20007A5F6D696E3A20202D328C
:1006A000207A5F6D61783A202035005A204F6666C7
:1006B00073657420004163746976652045787472AF
:1006C000756465723A2000556E6B6E6F776E2063AD
:1006D0006F6D6D616E643A202200000020002300DF
:1006E000260029002C002F00320000010000030129
:1006F000060109011FFFFFFFFFFFFF600000000070
:1007000001FF400000000000FF8000000000007FAB
:1007100083CF00000C303F87FF80000C301F8679AC
:1007200080000C000F8C30C7838C30E78C30CFC733
:10073000CC31F38C30DCECEC33B98C30D86C6C33CE
:10074000198C30D06C0C33198C30D86C0C33198C5C
:1007500030DC6C0E3B198C30CF7C079F198C30C776
:100760007C038F19400000000000026000000000C0
:1007700000061FFFFFFFFFFFF82020506C616E6E28
:10078000657242756666657242797465733A2000D7
:100790002046726565204D656D6F72793A20004381
:1007A0006F6D70696C65643A204A616E2032322048
:1007B000323031380A00207C20417574686F723AFB
:1007C0002028416C657068204F626A6563747320ED
:1007D000496E632E2C204C756C7A426F74204769E9
:1007E00074205265706F7369746F7279290A004AB8
:1007F000616E203232203230313830393A32323A7A
:10080000313300204C6173742055706461746564E9
:100810003A2000312E312E350A004D61726C696E1E
:100820000020536F6674776172652052657365743A
:100830000A00205761746368646F672052657365AE
:10084000740A002042726F776E206F7574205265B3
:100850007365740A002045787465726E616C20526D
:10086000657365740A00506F77657255700A00737E
:10087000746172740A006572726F722077726974A3
:10088000696E6720746F2066696C650A00456E6446
:1008900073746F70732025632025632025632025E2
:1008A000630020503A00205A3A0020593A0020585C
:1008B0003A00656E6473746F7073206869743A20CF
:1008C00000446F6E6520736176696E672066696C9F
:1008D000652E0A004D3239004D6F76652059004D66
:1008E0006F7665205A004578747275646572004DA4
:1008F0006F766520302E316D6D004D6F766520313D
:100900006D6D004D6F76652031306D6D004D6F76E9
:10091000652061786973004578747275646572004A
:100920004D6F7665205A004D6F76652059004D6FEA
:1009300076652058004578747275646572004D6F55
:100940007665205A004D6F76652059004D6F7665AB
:100950002058004D6F76656D656E7400436F6F6C47
:10096000646F776E0046616E207370656564203138
:100970000046616E207370656564203100426564D5
:1009800000426564004E6F7A7A6C65004E6F7A7A29
:100990006C65004D61696E005654726176206D6918
:1009A0006E005654726176206D696E005654726105
:1009B00076206D696E00566D696E00566D696E0029
:1009C000566D696E00566D6178204500566D6178F0
:1009D000204500566D6178204500566D6178205A9B
:1009E00000566D6178205A00566D6178205A005685
:1009F0006D6178205900566D6178205900566D61FF
:100A000078205900566D6178205800566D61782025
:100A10005800566D61782058004D6F74696F6E00F4
:100A2000416D6178204500416D6178204500416D40
:100A30006178205A00416D6178205A00416D6178DB
:100A4000205900416D6178205900416D617820582E
:100A500000416D6178205800412D74726176656C9B
:100A600000412D74726176656C00412D726574725F
:100A700061637400412D7265747261637400416337
:100A800063656C00416363656C004D6F74696F6EE4
:100A900000202F002042403A0020403A00205A3ADD
:100AA0000020593A0020436F756E7420583A002098
:100AB000453A00205A3A0020593A00583A0043611A
:100AC000703A454D455247454E43595F5041525348
:100AD00045523A310A004361703A434153455F4CF5
:100AE000494748545F4252494748544E4553533A48
:100AF000300A004361703A544F47474C455F4C49B8
:100B0000474854533A300A004361703A534F4654B1
:100B1000574152455F504F5745523A300A004361A2
:100B2000703A4C4556454C494E475F444154413A12
:100B3000310A004361703A5A5F50524F42453A3190
:100B40000A004361703A4155544F4C4556454C3A62
:100B5000310A004361703A5052494E545F4A4F4245
:100B60003A310A004361703A50524F47524553534D
:100B70003A300A004361703A4155544F5245504F44
:100B800052545F54454D503A310A004361703A4522
:100B90004550524F4D3A310A004649524D57415245
:100BA000455F4E414D453A4D61726C696E2020465D
:100BB00049524D574152455F56455253494F4E3A5F
:100BC000312E312E352E373120455854525544455B
:100BD000525F545950453A4165726F73747275642F
:100BE000657220534F555243455F434F44455F550F
:100BF000524C3A68747470733A2F2F636F64652E89
:100C0000616C6570686F626A656374732E636F6D83
:100C10002F646966667573696F6E2F4D41524C493A
:100C20004E2050524F544F434F4C5F5645525349FC
:100C30004F4E3A312E30204D414348494E455F5486
:100C40005950453A4C756C7A426F742054415A2081
:100C5000362045585452554445525F434F554E54E3
:100C60003A3120555549443A38343566303033638B
:100C70002D616562642D346535332D613662392D01
:100C80003764303938346664653630390A00536564
:100C90007474696E672054726176656C2041636379
:100CA000656C65726174696F6E3A20005365747487
:100CB000696E672052657472616374204163636575
:100CC0006C65726174696F6E3A2000536574746963
:100CD0006E67205072696E7420416363656C657243
:100CE0006174696F6E3A200053657474696E672091
:100CF0005072696E7420616E642054726176656C06
:100D000020416363656C65726174696F6E3A20009F
:100D1000205A00205900580020204D61783A2000C8
:100D2000205A00205900580020204D696E3A2000BA
:100D30004F6E20004F666600536F667420656E64C8
:100D400073746F70733A200020643A0020693A008F
:100D500020703A0020643A0020693A0020703A007E
:100D600043290A0061626C656420286D696E2074F5
:100D7000656D702000436F6C6420657874727564D3
:100D800065732061726520004E6F2063617365207A
:100D90006C696768740A0025753A2530327500253C
:100DA0003032753A25303275002575642025303291
:100DB000753A253032750000060900FE000000007B
:100DC0000001090008FE000005080806000040F0C8
:100DD000C88888987810050808060000C0F8888838
:100DE000888888F80505050600012030F8302005C0
:100DF00008080600002070F820202020E0050909DE
:100E00000600FF2070A8A8B8888870200509090688
:100E100000FFE080C0B0A828302828050909060096
:100E2000FFF8A88888888888A8F8050A0A0600FEBE
:100E3000205050505088A8A8887003030306000370
:100E400040A04000060900FE070192032120FFFF99
:100E500008FF07FF00000006000001070706020068
:100E600080808080800080030202060105A0A0052A
:100E700007070600005050F850F8505005070706C5
:100E800000002078A07028F020050707060000C0A9
:100E9000C810204098180507070600006090A04081
:100EA000A89068020303060104C0408003070706F8
:100EB0000100204080808040200307070601008059
:100EC00040202020408005050506000120A870A8CC
:100ED000200505050600012020F820200203030656
:100EE00002FFC04080050101060003F8020202066D
:100EF0000200C0C00505050600010810204080055D
:100F0000070706000070888888888870030707062E
:100F1000010040C040404040E00507070600007067
:100F20008808708080F8050707060000F810201078
:100F30000808F005070706000010305090F8101060
:100F4000050707060000F880F00808887005070705
:100F5000060000708080F088887005070706000092
:100F6000F808102020202005070706000070888858
:100F70007088887005070706000070888878080860
:100F800070020505060200C0C000C0C002060606C9
:100F900002FFC0C000C04080040707060000102008
:100FA0004080402010050303060002F800F8040703
:100FB000070601008040201020408005070706003A
:100FC00000708808102000200507070600007088C0
:100FD0000868A8A870050707060000708888F888C8
:100FE0008888050707060000F08888F08888F005E3
:100FF0000707060000708880808088700507070654
:101000000000F08888888888F0050707060000F847
:101010008080F08080F8050707060000F88080F0E7
:10102000808080050707060000708880B888887077
:10103000050707060000888888F888888801070760
:1010400006020080808080808080050707060000FF
:10105000381010101090600507070600008890A057
:10106000C0A09088050707060000808080808080EF
:10107000F805070706000088D8A88888888805072B
:10108000070600008888C8A8988888050707060012
:101090000070888888888870050707060000F08837
:1010A00088F080808005070706000070888888A87F
:1010B0009068050707060000F08888F0A090880572
:1010C0000707060000788080700808F0050707060B
:1010D0000000F820202020202005070706000088B7
:1010E00088888888887005070706000088888888AF
:1010F0008850200507070600008888888888A8503F
:1011000005070706000088885020508888050707D3
:101110000600008888885020202005070706000068
:10112000F80810204080F8030707060100E08080DF
:10113000808080E00505050600018040201008033E
:101140000707060100E02020202020E00503030619
:101150000004205088050101060000F80202020682
:1011600002058040050505060000700878887805AE
:1011700007070600008080B0C88888F005050506CE
:101180000000708080887005070706000008086866
:10119000988888780505050600007088F880700535
:1011A00007070600003048E04040404005060606BC
:1011B00000FF7088887808700507070600008080A7
:1011C000B0C88888880107070602008000808080F8
:1011D00080800308080601FF200020202020A04076
:1011E000040707060000808090A0C0A090030707B6
:1011F000060100C04040404040E0050505060000F3
:10120000D0A8A8A8A8050505060000B0C888888849
:10121000050505060000708888887005060606002A
:10122000FFF08888F080800506060600FF78888831
:10123000780808050505060000B0C880808005050F
:101240000506000070807008F004070706000040E3
:1012500040E0404040300505050600008888889839
:1012600068050505060000888888502005050506E4
:1012700000008888A8A850050505060000885020B1
:1012800050880506060600FF8888887808700505DE
:1012900005060000F8102040F803070706010020AB
:1012A0004040804040200107070602008080808087
:1012B0008080800307070601008040402040408076
:1012C000050202060002689000000006000000000F
:1012D00000060000000000060000000000060000FC
:1012E00000000006000000000006000000000006EC
:1012F00000000000000600000000000600000000E2
:1013000000060000000000060000000000060000CB
:1013100000000006000000000006000000000006BB
:1013200000000000000600000000000600000000B1
:10133000000600000000000600000000000600009B
:10134000000000060000000000060000000000068B
:101350000000000000060000000000060000000081
:10136000000600000000000600000000000600006B
:10137000000000060000000000060000000000065B
:101380000000000000060000000000060000000051
:1013900000060000010707060200800080808080B0
:1013A000800507070600002070A8A0A87020050788
:1013B00007060000304040E04050A8050505060043
:1013C000008870507088050707060000885020F8D4
:1013D00020F82001070706020080808000808080BE
:1013E0000508080600003048205050209060030196
:1013F00001060107A0050707060000F888B8B8B87D
:1014000088F8050707060001700878887800F80555
:1014100005050600012850A0502805030306000119
:10142000F8080802020206020640800507070600C7
:1014300000F888A88898A8F8050101060006F804B5
:101440000404060003609090600507070600002072
:1014500020F8202000F804050506000360902040D5
:10146000F0030505060003E020E020E0020202068A
:10147000020640800508080600FF8888888898E8EA
:1014800080800507070600007898987818181802D9
:101490000202060202C0C00202020602FF408003EE
:1014A000050506000340C04040E0050707060001AF
:1014B000708888887000F8050505060001A050288E
:1014C00050A00507070600008890A858B80808052E
:1014D00007070600008890B84898203805080806D5
:1014E0000000C040C048D8380808050707060000BB
:1014F0002000204080887005080806000040200079
:101500007088F88888050808060000102000708898
:10151000F888880508080600002050007088F888C0
:10152000880508080600006890007088F88888051B
:1015300008080600005000708888F88888050808A8
:101540000600002050207088F888880507070600EC
:10155000003860A0B8E0A0B80508080600FF708851
:10156000808088702060050808060000402000F890
:1015700080F080F8050808060000081000F880F0E8
:1015800080F8050808060000205000F880F080F878
:101590000507070600005000F880F080F8030808EF
:1015A000060100804000E0404040E00308080601DA
:1015B00000204000E0404040E003080806010040F1
:1015C000A000E0404040E0030707060100A000E063
:1015D000404040E0050707060000704848E84848DA
:1015E0007005080806000068900088C8A89888055B
:1015F0000808060000402070888888887005080860
:101600000600001020708888888870050808060089
:10161000002050007088888870050808060000685F
:1016200090007088888870050808060000500070D7
:101630008888888870050505060001885020508834
:101640000508080600FF1070A8A8A8A870400508A3
:1016500008060000402088888888887005080806E9
:101660000000102088888888887005080806000017
:1016700020500088888888700508080600005000FF
:10168000888888888870050808060000102088501F
:10169000202020200509090600FFC040704848703E
:1016A0004040E00408080601FF609090A09090E0A0
:1016B000800508080600004020007008788878053A
:1016C00008080600001020007008788878050808CF
:1016D0000600002050007008788878050808060089
:1016E00000689000700878887805070706000050A9
:1016F00000700878887805080806000020502070DF
:1017000008788878050606060000D02878A0A8503A
:101710000506060600FF7080887020600508080630
:1017200000004020007088F880700508080600005E
:101730001020007088F8807005080806000020500E
:10174000007088F880700507070600005000708858
:10175000F8807003080806010080400040C0404047
:10176000E003080806010020400040C04040E003BC
:10177000080806010040A00040C04040E003070701
:10178000060100A00040C04040E005070706000039
:10179000A040A01078887005080806000068900036
:1017A000B0C88888880508080600004020007088B6
:1017B0008888700508080600001020007088888856
:1017C00070050808060000205000708888887005A1
:1017D0000808060000689000708888887005070770
:1017E0000600005000708888887005050506000115
:1017F0002000F800200507070600FF1070A8A8A821
:101800007040050808060000402000888888986815
:1018100005080806000010200088888898680508D8
:101820000806000020500088888898680507070689
:101830000000500088888898680509090600FF1094
:101840002000888888F808700407070601FFC04058
:1018500060506040E00508080600FF500088888856
:101860007808705A00590058000920000000000054
:1018700000000000000000007FFFE000000000000A
:10188000000000000000007000E000000000000008
:1018900000000000000061F860000000000000008F
:1018A000000000000041F8200000000000000000DF
:1018B0000000000040F020000000000000000000D8
:1018C0000000004060200000000000000000000058
:1018D00000005801A07F80000000000000004104CB
:1018E000005C63A0FFC00000000000000020820038
:1018F0005EF7A0FFC0000000000000002082005E34
:10190000F7A0FFC0000000000000004104005C637D
:10191000A07F80000000000000008208005801A0A5
:101920007F8000000000000001041000406020FFE4
:10193000C00000000000000104100040F020FFC0C3
:101940000000000000000082080041F820FFC000F5
:1019500000000000000041040061F8603F0000004A
:1019600000000000000000007000E01E0000000009
:1019700000000001FFFF807FFFE00C00000000007E
:10198000000001FFFF8000000000000000000000D8
:1019900000000000007FFFE00000000000000000E9
:1019A000000000007000E0000000000000000000E7
:1019B000000000630C600000000000000000000058
:1019C0000000470E200000000000000000000000A2
:1019D000004F0F2000000000000000000000000089
:1019E0005F0FA00000000000000000000000005E8B
:1019F00007A07F800000000000000041040040605C
:101A000020FFC00000000000000020820040F02005
:101A1000FFC00000000000000020820040F020FF16
:101A2000C0000000000000004104004060207F80F2
:101A3000000000000000008208005E07A07F800018
:101A40000000000000010410005F0FA0FFC00000B4
:101A500000000000010410004F0F20FFC000000034
:101A600000000000820800470E20FFC000000000B8
:101A7000000000410400630C603F00000000000013
:101A800000000000007000E01E00000000000000E8
:101A900001FFFF807FFFE00C00000000000000015C
:101AA000FFFF800000004E6F204C696E65204E7570
:101AB0006D626572207769746820636865636B7313
:101AC000756D2C204C617374204C696E653A200052
:101AD00053544F505045442E20005072696E746527
:101AE000722073746F707065642064756520746F04
:101AF000206572726F72732E204669782074686553
:101B0000206572726F7220616E6420757365204D5E
:101B100039393920746F20726573746172742E20A4
:101B20002854656D706572617475726520697320E3
:101B300072657365742E2053657420697420616624
:101B40007465722072657374617274696E67290AB4
:101B5000004E6F20436865636B73756D2077697401
:101B600068206C696E65206E756D6265722C204C04
:101B7000617374204C696E653A2000636865636B1D
:101B800073756D206D69736D617463682C204C6191
:101B90007374204C696E653A20004C696E65204E66
:101BA000756D626572206973206E6F74204C61736D
:101BB00074204C696E65204E756D6265722B312CF8
:101BC000204C617374204C696E653A20004D3131B0
:101BD00030004D3331004D383420582059205A20E0
:101BE000450053442072656164206572726F720A09
:101BF00000446F6E65207072696E74696E6720664E
:101C0000696C650A0020496E76616C6964206578AC
:101C100074727564657220000000A0C10000A0C14C
:101C200000000000000096430080974300008743B7
:101C3000536C6565702E2E2E005A2070726F62658F
:101C4000206F75742E206265640A005A2070726FCE
:101C50006265206F75742E2062656400486F6D6543
:101C60002058592066697273740A00486F6D6520A8
:101C70005859206669727374007C3C3E5E2B3D3F70
:101C80002F5B5D3B2C2A225C001000C90210012C46
:101C9000014001220170011801B0010E01F00104A0
:101CA000015002FA00B002F0003003E600D003DC7D
:101CB000009004D2007005C800A006BE000008B461
:101CC00000B009AA00D00BA000600E960060118C35
:101CD000000015820020197800C01D6E00A022644B
:101CE00000B0275A00902C500000314600E0343CF0
:101CF0000010383200903A2800603C1E00A03D14CD
:101D000000803E0A00203F000048656174696E67EC
:101D1000206661696C6564204245440048656174D1
:101D2000696E67206661696C656400486561746905
:101D30006E67206661696C65640048656174696EF0
:101D400067206661696C6564204530001000AD0352
:101D500030016A0150022B0170030A019004F50062
:101D6000B005E500D006D800F007CE001009C50088
:101D7000300ABE00500BB700700CB100900DAB00E4
:101D8000B00EA600D00FA200F0109D001012990016
:101D9000301395005014920070158E0090168B0031
:101DA000B0178700D0188400F0198100101B7E0046
:101DB000301C7B00501D7900701E7600901F730050
:101DC000B0207000D0216E00F0226B00102469005A
:101DD00030256600502663007027610090285E0061
:101DE000B0295C00D02A5900F02B5600102D540069
:101DF000302E5100502F4E0070304B009031480073
:101E0000B0324500D0334200F0343E0010363B0083
:101E1000303737005038330070392E00903A29009F
:101E2000B03B2300D03C1B00F03D1100103F0100EF
:101E3000F03F00004572723A204D494E54454D50D6
:101E400020424544004D494E54454D50207472691E
:101E5000676765726564004572723A204D494E5459
:101E6000454D50204531004572723A204D494E543F
:101E7000454D50204530004572723A204D4158542E
:101E8000454D5020424544004D415854454D502049
:101E9000747269676765726564004572723A204DB5
:101EA000415854454D50204531004572723A204DFD
:101EB000415854454D50204530004572726F722094
:101EC00077726974696E6720746F20454550524F70
:101ED0004D210A00290A002062797465733B206352
:101EE0007263200053657474696E67732053746F56
:101EF000726564202800202863616C63756C6174CE
:101F0000656429210A0020213D2000454550524F9B
:101F10004D20435243206D69736D61746368202DB9
:101F2000202873746F726564292000290A002062DA
:101F3000797465733B2063726320002073746F7241
:101F400065642073657474696E677320726574725A
:101F50006965766564202800204D61726C696E3D6C
:101F6000563430290A0028454550524F4D3D004512
:101F70004550524F4D2076657273696F6E206D69C2
:101F8000736D61746368200048617264636F646597
:101F9000642044656661756C742053657474696E61
:101FA0006773204C6F616465640A00282300002871
:101FB000230000640000001027000000009643008A
:101FC000009643000040400000C8410000C94200A4
:101FD00000C9420000C8440000D24320204D3835DB
:101FE00031205A005A2D50726F6265204F66667319
:101FF000657420286D6D293A0A00204400204900AC
:1020000020204D333034205000204400204900204F
:10201000204D333031205000504944207365747492
:10202000696E67733A0A002046002042002048008B
:1020300020204D3134352053004D61746572696143
:102040006C2068656174757020706172616D657473
:102050006572733A0A0020204D343230205300411B
:1020600075746F20426564204C6576656C696E6797
:102070003A0A00205A0020590020204D32303620E4
:102080005800486F6D65206F66667365743A0A0084
:10209000204500205A0020590020580020420020EE
:1020A000540020204D323035205300416476616E5B
:1020B0006365643A20533C6D696E5F666565647262
:1020C0006174653E20543C6D696E5F747261766523
:1020D0006C5F66656564726174653E20423C6D6943
:1020E0006E5F7365676D656E745F74696D655F6D56
:1020F000733E20583C6D61785F78795F6A65726BDA
:102100003E205A3C6D61785F7A5F6A65726B3E2053
:10211000453C6D61785F655F6A65726B3E0A0020C1
:10212000540020520020204D3230342050004163B2
:1021300063656C65726174696F6E2028756E697471
:10214000732F7332293A20503C7072696E745F614C
:102150006363656C3E20523C726574726163745FA8
:10216000616363656C3E20543C74726176656C5F9C
:10217000616363656C3E0A00204500205A002059C7
:102180000020204D3230312058004D6178696D7546
:102190006D20416363656C65726174696F6E2028A0
:1021A000756E6974732F7332293A0A002045002036
:1021B0005A0020590020204D3230332058004D6104
:1021C00078696D756D2066656564726174657320EC
:1021D00028756E6974732F73293A0A002045002010
:1021E0005A0020590020204D393220580053746580
:1021F00070732070657220756E69743A0A00202031
:102200004D3230302044300A0020204D3230302012
:1022100044002044697361626C65640A0046696C1D
:10222000616D656E742073657474696E67733A00CE
:1022300020204D3134392043203B20556E69747382
:1022400020696E2043656C736975730A002020470E
:102250003231202020203B20556E69747320696E36
:10226000206D6D0A0000000A0B02090C0D0E080714
:102270000304010000000000000000000000000056
:10228000000000000000000000000000000000004E
:10229000001211100000000000000000000000000B
:1022A0000000000000000000000000486F6D652085
:1022B000257325732573206669727374002066691F
:1022C0007273740A005A0059005800486F6D6520F7
:1022D0000053442063617264206F6B0A006F706565
:1022E0006E526F6F74206661696C65640A00766F68
:1022F0006C756D652E696E6974206661696C6564C4
:102300000A00534420696E6974206661696C0A0092
:102310006175746F25692E67004D3234004D32337C
:102320002025730057726974696E6720746F206688
:10233000696C653A20006F70656E206661696C6536
:10234000642C2046696C653A20006F70656E2066CB
:1023500061696C65642C2046696C653A20004669A9
:102360006C652073656C65637465640A002053694D
:102370007A653A200046696C65206F70656E656409
:102380003A20006F70656E206661696C65642C2070
:1023900046696C653A20002066696C653A20004EFB
:1023A0006F7720002220706F7300222070617265A9
:1023B0006E743A2200535542524F5554494E4520AF
:1023C00043414C4C207461726765743A22004B495A
:1023D0004C4C45442E2000747279696E6720746FEE
:1023E0002063616C6C207375622D67636F64652078
:1023F00066696C6573207769746820746F6F206DEF
:10240000616E79206C6576656C732E204D41582085
:102410006C6576656C2069733A004572726F723A2A
:102420000020746F6F206C6F6E6720657874727512
:1024300073696F6E2070726576656E7465640A00EC
:1024400020636F6C6420657874727573696F6E2099
:1024500070726576656E7465640A0020706F7369CA
:1024600074696F6E206F7574206F662072616E677D
:10247000652E0A003F50726F626520000A0A4265AD
:1024800064204C6576656C20436F72726563746975
:102490006F6E204D61747269783A00202B000A43F8
:1024A0006F72726563746564204265642048656973
:1024B0006768742076732E2042656420546F706FB5
:1024C0006C6F67793A0A00202B000A426564204845
:1024D000656967687420546F706F6772617068799E
:1024E0003A0A2020202B2D2D2D204241434B202D18
:1024F0002D2B0A2020207C2020202020202020207E
:1025000020207C0A204C207C20202020282B2920E1
:102510002020207C20520A2045207C2020202020C2
:102520002020202020207C20490A2046207C2028B2
:102530002D29204E20282B29207C20470A2054209A
:102540007C20202020202020202020207C20480AC1
:102550002020207C20202020282D29202020207CA5
:1025600020540A2020207C202020202020202020F1
:1025700020207C0A2020204F2D2D2046524F4E54E3
:10258000202D2D2B0A2028302C30290A004D656182
:102590006E206F662073616D706C656420706F696A
:1025A0006E74733A200020643A200020623A2000C2
:1025B00045716E20636F656666696369656E7473E5
:1025C0003A20613A200052756E6E696E6720696E1E
:1025D000204452592D52554E206D6F64650A0047B4
:1025E0003239204175746F20426564204C657665F0
:1025F0006C696E670A0028422961636B00284629CE
:10260000726F6E74002852296967687400284C291B
:10261000656674003F4E756D626572206F6620704E
:10262000726F626520706F696E74732069732069C0
:102630006D706C61757369626C65202832206D69FC
:102640006E696D756D292E0A003F285629657262E4
:102650006F7365206C6576656C20697320696D7099
:102660006C61757369626C652028302D34292E0ADF
:102670000043616E6E6F74206F70656E20737562BB
:1026800064697220006563686F3A00544845524D92
:10269000414C2052554E4157415920424544005427
:1026A0006865726D616C2052756E61776179005456
:1026B0004845524D414C2052554E415741592045B5
:1026C0003100544845524D414C2052554E415741DE
:1026D000592045300000002200250028002B002E44
:1026E000003100340002010000050108010B010067
:1026F000002100240027002A002D003000330001B3
:10270000010000040107010A010505050507050888
:10271000080808020202020A0A0808040404040164
:102720000101010101010103030303030303030486
:102730000707070C0C0C0C0C0C0C0C020202020616
:10274000060606060606060B0B0B0B0B0B0B0B0106
:1027500002102020080810204010204080020102B2
:10276000010804020101020408102040808040207A
:1027700010080402018004020180402010080402B5
:102780000108040201010204081020408001020433
:102790000810204080506C65617365207265736518
:1027A00074005052494E5445522048414C544544BF
:1027B000005072696E7465722068616C7465642E75
:1027C000206B696C6C28292063616C6C6564210A3C
:1027D00000656E7175657565696E67202200000081
:1027E000A0C10080974300000000000048420000A4
:1027F000484200004040000000005761726E696E60
:10280000673A20486F6D696E672042756D7020448D
:10281000697669736F72203C20310A00020204005D
:1028200000A0400000A040000000400000A04300C5
:1028300080A14300008743FF01FF4D363030204820
:102840006F74656E6420746F6F20636F6C642074A6
:102850006F206368616E67652066696C616D656E87
:10286000740A0000060900FE06018902FE20FFFE30
:1028700007FE06FE0000000600070106060602002D
:10288000808080800080030303060103A0A0A005D0
:1028900007070600FF5050F850F850500509090688
:1028A00000FE2070A8A07028A87020060808060066
:1028B000FF40A84810204854080507070600FF609D
:1028C0009090609890680103030602038080800264
:1028D00007070602FF4080808080804002070706CD
:1028E00002FF80404040404080050505060000880A
:1028F00050F850880505050600002020F820200229
:1029000004040602FEC0404080050101060002F8F2
:10291000020202060200C0C00406060601001010F2
:102920002040808004060606010060909090906030
:1029300003060606010040C0404040E004060606CB
:1029400001006090102040F0040606060100F0200F
:10295000601010E005060606000010305090F810D8
:10296000040606060100F080E01010E004060606EA
:1029700001006080E0909060040606060100F010FF
:1029800010204040040606060100609060909060B0
:1029900004060606010060909070106002050506AE
:1029A0000200C0C000C0C00207070602FEC0C0008F
:1029B000C0404080050505060000186080601805CD
:1029C0000303060001F800F8050505060000C03005
:1029D0000830C00407070601006090106040004006
:1029E0000506060600007090A8B080700506060671
:1029F0000000205088F88888050606060000F08848
:102A0000F08888F0040606060100609080809060DF
:102A1000040606060100E090909090E00406060689
:102A20000100F080E08080F0040606060100F080DE
:102A3000E0808080040606060100609080B090600F
:102A40000406060601009090F0909090030606069A
:102A50000100E040404040E0050606060000381056
:102A60001010906004060606010090A0C0A090908F
:102A70000406060601008080808080F005060606B8
:102A8000000088D8A8A8888804060606010090D00F
:102A9000B0909090050606060000708888888870BF
:102AA000040606060100E09090E080800407070617
:102AB00001FF609090D0B06010040606060100E0AF
:102AC0009090E090900406060601006090402090EF
:102AD00060050606060000F82020202020040606D7
:102AE0000601009090909090600406060601009008
:102AF0009090F060600506060600008888A8A8D8B7
:102B00008805060606000088502020508805060625
:102B1000060000888850202020040606060100F0E8
:102B200010204080F0030606060100E080808080CF
:102B3000E00406060601008080402010100306060F
:102B4000060100E020202020E0050303060003200A
:102B500050880501010600FEF80202020602048008
:102B600040040404060100709090700406060601FB
:102B7000008080E09090E0040404060100708080F2
:102B80007004060606010010107090907004040492
:102B900006010060B0C07004060606010020504027
:102BA000E040400406060601FE609090701060044C
:102BB00006060601008080E090909003060606015C
:102BC000004000C04040E00308080601FE2000600D
:102BD000202020A0400406060601008080A0C0A09E
:102BE00090030606060100C040404040E005040492
:102BF000060000D0A8A888040404060100E0909014
:102C0000900404040601006090906004060606012A
:102C1000FEE09090E080800406060601FE70909031
:102C2000701010040404060100A0D0808004040485
:102C300006010070C030E00406060601004040E0D6
:102C40004050200404040601009090907004040495
:102C50000601009090606005040406000088A8A8A2
:102C6000500404040601009060609004060606010A
:102C7000FE909090709060040404060100F02040E3
:102C8000F003070706010020404080404020010774
:102C9000070602FF8080808080808003070706018E
:102CA000008040402040408004020206010350A002
:102CB000FFFFFFFFFFFFFFFFFFFFFFFFFFFFFFFF24
:102CC000FFFFFFFFFFFFFFFFFFFFFFFFFFFFFFFF14
:102CD000FF000000060007010606060200800080D3
:102CE0008080800406060601FF2070A0A0702005E9
:102CF00007070600FF304840F04040F8050505068C
:102D00000000A8508850A80506060600008850F864
:102D100020F8200107070602FF8080800080808065
:102D20000407070601FF708060906010E003010156
:102D3000060105A0060707060000788494A4948481
:102D40007803050506010160A06000E005050506A1
:102D500000002850A05028040303060100F01010C2
:102D6000040101060102F00607070600007884B49A
:102D7000A4A48478040101060105F00403030601FC
:102D8000026090600507070600FF2020F820200061
:102D9000F803050506010140A02040E003050506F3
:102DA0000101C0204020C00202020602044080044B
:102DB00005050601FF9090B0D080050606060000CC
:102DC00078E8E86828280101010602028002020270
:102DD0000602FE408003050506010140C04040E0B8
:102DE00003050506010140A04000E00505050600B9
:102DF00000A0502850A00508080600FF40C0405021
:102E0000703078100508080600FF40C04050680880
:102E100010380508080600FFC0204030F030781058
:102E20000407070601002000206080906005070766
:102E30000600004020205070888805070706000023
:102E400010202050708888050707060000205020B9
:102E500050708888050707060000285020507088A9
:102E60008805070706000050002050708888050775
:102E700007060000205020507088880506060600CE
:102E80000078A0F0A0A0B80408080601FE609080B9
:102E900080906020400407070601004020F080E099
:102EA00080F00407070601002040F080E080F00475
:102EB00007070601002050F080E080F004070706B5
:102EC00001005000F080E080F00307070601008059
:102ED00040E0404040E00307070601002040E0409A
:102EE0004040E003070706010040A0E0404040E00A
:102EF000030707060100A000E0404040E005060689
:102F00000600007048E848487004070706010050B2
:102F1000A090D0B090900407070601004020609078
:102F20009090600407070601002040609090906038
:102F30000407070601002050609090906004070786
:102F400006010050A0609090906004070706010001
:102F500050006090909060050505060000885020A4
:102F600050880408080601FF1070B0B0D0D0E0808F
:102F70000407070601004020909090906004070726
:102F80000601002040909090906004070706010021
:102F90002050909090906004070706010050009028
:102FA00090909060050707060000102088502020B0
:102FB0002004060606010080E09090E080040606EA
:102FC0000601006090A0A090A00407070601004041
:102FD00020007090907004070706010020400070E8
:102FE00090907004070706010020500070909070C8
:102FF00004070706010050A00070909070040606B8
:103000000601005000709090700407070601002030
:1030100050207090907005040406000070A8B078ED
:103020000406060601FE7080807020400407070633
:10303000010040200060B0C07004070706010020B6
:10304000400060B0C0700407070601002050006017
:10305000B0C070040606060100500060B0C07003E6
:103060000707060100804000C04040E00307070654
:103070000100204000C04040E00307070601004077
:10308000A000C04040E0030606060100A000C040CA
:1030900040E0040707060100306010709090600463
:1030A000070706010050A000E09090900407070673
:1030B0000100402000609090600407070601002096
:1030C00040006090906004070706010020500060F7
:1030D00090906004070706010050A0006090906087
:1030E0000406060601005000609090600505050684
:1030F00000002000F8002004040406010070B0D095
:10310000E00407070601004020009090907004073B
:103110000706010020400090909070040707060108
:1031200000205000909090700406060601005000A8
:10313000909090700409090601FE20400090909044
:103140007090600408080601FE8080E09090E080A6
:10315000800408080601FE50009090907090607AFC
:103160005F70726F62653A20007A5F6D61783A2015
:10317000007A5F6D696E3A2000795F6D61783A2060
:1031800000795F6D696E3A2000785F6D61783A2052
:1031900000785F6D696E3A20005265706F727469D5
:1031A0006E6720656E6473746F70207374617475DC
:1031B000730A0056652D6A65726B0056652D6A6547
:1031C000726B0056652D6A65726B00567A2D6A65C2
:1031D000726B00567A2D6A65726B0056792D6A659E
:1031E000726B0056792D6A65726B0056792D6A658F
:1031F000726B0056782D6A65726B0056782D6A6581
:10320000726B0056782D6A65726B004D6F74696F32
:103210006E004573746570732F6D6D004573746532
:1032200070732F6D6D005A73746570732F6D6D0020
:103230005A73746570732F6D6D0059737465707374
:103240002F6D6D005973746570732F6D6D00587319
:10325000746570732F6D6D005873746570732F6D86
:103260006D004D6F74696F6E004F6666004F6E2083
:1032700000456E6473746F702061626F72740053E6
:10328000746570732F6D6D004A65726B00416363E6
:10329000656C65726174696F6E0056656C6F636909
:1032A0007479005A204F66667365740041647661D4
:1032B0006E6365642053657474696E67730043615F
:1032C0006E6E6F7420656E746572207375626469CA
:1032D000723A2000022E2E004D61696E0052657711
:1032E0006970696E670050726F62696E672066610F
:1032F000696C65640050726F62696E67206661690F
:103300006C65640050524F4245204641494C204371
:103310004C45414E204E4F5A5A4C450A0052657753
:103320006970696E670A005265776970696E670037
:1033300050726F62696E67206661696C65640050E7
:10334000726F62696E67206661696C6564005052D5
:103350004F4245204641494C20434C45414E204E6A
:103360004F5A5A4C450A005265776970696E670A70
:103370000050726F62696E67206661696C65640AED
:103380000050726F62696E67206661696C656400E7
:10339000205A3A200020593A200042656420583AC9
:1033A000200024F4D43050C38E20C2A24017828B58
:1033B0007011127A910D816CD90AA861E108C75881
:1033C0006607615143061E4B5D05C145A7041A41BE
:1033D0001104093D9803713931034036DB0265332E
:1033E0009102D4305402802E1D02632CEE01752A06
:1033F000C501B028A001102781018F2564012B246D
:103400004B01E0223401AC211F018D200D01801FF2
:10341000FC00841EED00971DDF00B81CD200E61BE7
:10342000C600201BBC00641AB200B219A8000A1919
:10343000A0006A189900D117910040178B00B516AB
:10344000840031167E00B31579003A157300C71455
:103450006F0058146A00EE1366008813630025138A
:103460005E00C7125B006C12570015125400C111A8
:10347000510070114F0021114B00D61049008D10E2
:1034800047004610440002104200C00F4000800F69
:103490003E00420F3C00060F3B00CB0E3800930E5F
:1034A00037005C0E3500270E3400F30D3200C10DDD
:1034B0003100900D3000600D2E00320D2D00050DF5
:1034C0002C00D90C2B00AE0C2900850C29005C0CBB
:1034D0002700350C27000E0C2600E80B2400C40B37
:1034E0002400A00B23007D0B23005A0B2100390B75
:1034F0002100180B2000F80A1F00D90A1E00BB0A81
:103500001E009D0A1D00800A1D00630A1C00470A58
:103510001B002C0A1B00110A1A00F7091A00DD090A
:103520001900C4091900AB091900920917007B0999
:103530001800630917004C09160036091600200907
:1035400016000A091500F5081500E0081400CC085B
:103550001400B8081400A4081400900813007D0893
:1035600012006B08130058081200460812003408B5
:103570001100230811001208110001081100F007C2
:103580001000E0071000D0071000C0071000B007BF
:103590000F00A107100091070E0083070F007407AA
:1035A0000F0065070E0057070E0049070E003B0786
:1035B0000D002E070E0020070D0013070D00060753
:1035C0000D00F9060C00ED060D00E0060C00D40617
:1035D0000C00C8060C00BC060C00B0060C00A406CB
:1035E0000B0099060C008D060B0082060B00770677
:1035F0000B006C060B0061060A0057060B004C0618
:103600000A0042060A0038060A002E060A002406AE
:103610000A001A060A001006090007060A00FD053E
:103620000900F4050900EB050900E2050900D905C8
:103630000900D0050900C7050900BE050900B50548
:103640000800AD050800A50509009C0508009405C3
:1036500008008C050800840508007C050800740536
:1036600008006C050700650508005D0507005605A4
:1036700008004E050700470507004005080038050B
:103680000700310507002A050700230507001C0570
:103690000600160507000F050700080506000205CD
:1036A0000700FB040600F5040700EE040600E8042A
:1036B0000600E2040700DB040600D5040600CF0480
:1036C0000600C9040600C3040600BD040600B704D2
:1036D0000600B1040500AC040600A6040600A00420
:1036E00005009B04060095040500900406008A046A
:1036F000050085040500800406007A0405007504B1
:103700000500700405006B040500660405006104F3
:1037100005005C04050057040500520405004D0433
:10372000050048040500430405003E0404003A0473
:10373000050035040500300404002C0405002704AE
:103740000400230405001E0404001A0404001604E7
:103750000500110404000D0404000904050004041C
:10376000040000040400FC030400F8030400F40354
:103770000400F0030400EC030400E8030400E40385
:103780000400E0030400DC030400D8030400D403B5
:103790000400D0030400CC030400C8030300C503E5
:1037A000030024F404D9201BC40C5C0E9804C40943
:1037B0005F0265077101F405F900FB04B3004804DA
:1037C0008700C10369005803550003034500BE028A
:1037D0003A008402310053022A0029022500040223
:1037E0002000E4011C00C8011900AF011700980176
:1037F00014008401130071011000610110005101D7
:103800000E0043010D0036010B002B010B002001BF
:103810000B00150109000C01090003010800FB0061
:103820000800F3000800EB000700E4000600DE00DB
:103830000600D8000600D2000600CC000500C70034
:103840000500C2000500BD000400B9000400B50079
:103850000400B1000400AD000400A9000400A500AC
:103860000300A20003009F0004009B0003009800D7
:1038700003009500020093000300900003008D00F8
:1038800002008B0003008800020086000200840012
:103890000300810002007F0002007D0002007B0027
:1038A0000200790002007700010076000200740037
:1038B000020072000100710002006F0002006D0042
:1038C00001006C0002006A0001006900020067004C
:1038D0000100660001006500010064000200620052
:1038E000010061000100600001005F0002005D0056
:1038F00001005C0001005B0001005A00010059005A
:103900000100580001005700010056000100550059
:103910000100540001005300000053000100520058
:10392000010051000100500001004F0001004E0055
:1039300000004E0001004D0001004C0001004B0052
:1039400000004B0001004A0001004900010048004E
:10395000000048000100470001004600000046004A
:103960000100450000004500010044000100430043
:10397000000043000100420000004200010041003D
:10398000000041000100400001003F0000003F0036
:1039900001003E0000003E0001003D0000003D002F
:1039A00001003C0000003C0000003C0001003B0026
:1039B00000003B0001003A0000003A00010039001D
:1039C0000000390001003800000038000000380015
:1039D000010037000000370001003600000036000B
:1039E0000000360001003500000035000000350001
:1039F00001003400000034000000340001003300F6
:103A000000003300000033000100320000003200EB
:103A100000003200010031000000310000003100E0
:103A200001003000000030000000300001002F00D5
:103A300000002F0000002F0000002F0001002E00CA
:103A400000002E0000002E0001002D0000002D00BF
:103A500000002D0000002D0001002C0000002C00B3
:103A600000002C0000002C0001002B0000002B00A7
:103A700000002B0000002B0001002A0000002A009B
:103A800000002A0000002A0001002900000029008F
:103A90000000290000002900000029000100280082
:103AA0000000280000002800000028000000280076
:103AB0000100270000002700000027000000270069
:103AC000000027000100260000002600000026005C
:103AD000000026000000260001002500000025004F
:103AE0000000250000002500000025000000250042
:103AF0000100240000002400000024000000240035
:103B00000000240001002300000023000000230027
:103B10000000230000002300000023000000230019
:103B2000010022000000220000002200000022000C
:103B300000002200000022000100210000002100FE
:103B400000002100000021000000210000002100F1
:103B500000002100010020000000200000002000E3
:103B600000002000000020000000200000002000D5
:103B70000000200001001F0000001F0000001F00C7
:103B800000001F0000001F0000001F0000001F00B9
:103B900001001E0000001E0000001E0000001E00AC
:103BA00000004D383420582059205A20450020204C
:103BB0004E6F7A7A6C653A200020004261636B0098
:103BC0004D696E696D756D2054656D702069732047
:103BD0003132302E0048656174696E672066616914
:103BE0006C65640045787472756465206D6F7265EC
:103BF00000526573756D65207072696E7400524570
:103C000053554D45204F5054494F4E533A002020B4
:103C10004E6F7A7A6C653A20006368616E67650062
:103C20006F66207468652066696C616D656E7400EE
:103C30005761697420666F722073746172740050EA
:103C400052494E54205041555345440020204E6F58
:103C50007A7A6C653A2000200066696C616D656E49
:103C60007420756E6C6F6164005761697420666FB3
:103C700072005052494E5420504155534544002043
:103C8000204E6F7A7A6C653A20002000506C656196
:103C9000736520776169742E2E2E00486561746902
:103CA0006E67206E6F7A7A6C65005052494E5420D0
:103CB0005041555345440020204E6F7A7A6C653A46
:103CC0002000200068656174206E6F7A7A6C652E22
:103CD00000507265737320627574746F6E20746F18
:103CE000005052494E542050415553454400202025
:103CF0004E6F7A7A6C653A2000746F20636F6E7431
:103D0000696E75652E2E2E00616E6420707265736B
:103D10007320627574746F6E00496E7365727420DF
:103D200066696C616D656E74005052494E54205046
:103D300041555345440020204E6F7A7A6C653A20F5
:103D400000200066696C616D656E74206C6F616443
:103D5000005761697420666F72005052494E5420BA
:103D60005041555345440020204E6F7A7A6C653A95
:103D70002000200066696C616D656E742065787442
:103D800072756465005761697420666F72005052E5
:103D9000494E542050415553454400746F2072657C
:103DA00073756D65005761697420666F722070725B
:103DB000696E74005052494E542050415553454449
:103DC000004D6F76652061786973004469736162A4
:103DD0006C65207374657070657273004D383400C3
:103DE000426564204C6576656C696E6700473238C1
:103DF0002058590A4D31303920533137350A47326E
:103E000038205A0A4D31303920523134350A473181
:103E1000320A4732390A4D3130342053300041756F
:103E2000746F20686F6D6500473238004D61696EB0
:103E3000004D3530320A4D353030004C6F61642012
:103E400073657474696E677300526573746F72651D
:103E5000206661696C736166650053746F726520DA
:103E600073657474696E677300416476616E63652F
:103E7000642053657474696E6773004D61696E00E8
:103E80000A003B20454550524F4D20496E646578ED
:103E90003A20005570646174696E67207A6F6666B7
:103EA00073657420696E20454550524F4D3A20008D
:103EB00006000600060006000600060006000600D2
:103EC00006003FC01F800F00060006000F001F8085
:103ED0003FC00600060006000600060006000600B9
:103EE0000600060007F8000C0C001002002001007C
:103EF0006001804000804003E04001C040008040FD
:103F000000004000006000002000001000000C0CC9
:103F10000007F80001FE00030300040080080040D1
:103F20001800601000207C002038002010002000C5
:103F3000002000002000006000004000008003031B
:103F40000001FE00FFFFFF7F80FFC0FFC0FFC07FBA
:103F5000807F80FFC0FFC0FFC03F001E000C005AE2
:103F6000204F6666736574005A204F6666736574E9
:103F700000466C6F7700466C6F770046616E207369
:103F80007065656420310046616E207370656564FC
:103F900020310042656400426564004E6F7A7A6C9D
:103FA00065004E6F7A7A6C650053706565640053E6
:103FB00070656564004D61696E004D6F76652058CF
:103FC0000045313A200045303A20005A3A20005945
:103FD0003A2000583A20004D53312C4D5332205096
:103FE000696E730A006265640A002C207379737429
:103FF000656D2073746F707065642120486561740D
:1040000065725F49443A2000436172642072656DB5
:104010006F766564004361726420696E73657274C3
:104020006564000201050800FF060121023520FF3A
:10403000FF07FF06FF09005022165680808080008F
:1040400080153353A0A0A00257575050F850F85095
:10405000500257572070A07028702013355580A04B
:1040600040A02002475740A0A040A0A050251353D5
:1040700080808012265640808080804012265680A4
:1040800040404040800245559060F0609002555598
:104090002020F82020113353604080044151F0115A
:1040A000335340E0400246561010204080801236C4
:1040B0005640A0A0A0A04012365640C0404040E06C
:1040C0000246566090106080F0024656F020601064
:1040D00090600246562060A0F02020024656F080F4
:1040E000E01090600246566080E090906002465674
:1040F000F010202040400246566090609090600290
:104100004656609090701060122555C0C000C0C027
:104110001136566060006040801236562040808024
:104120004020034353F000F01236568040202040D8
:104130008012365640A02040004001585830489820
:10414000A8A8904030024656609090F090900246A9
:1041500056E090E09090E00246566090808090603B
:10416000024656E090909090E0024656F080E08043
:1041700080F0024656F080E08080800246566090D3
:1041800080B090600246569090F090909012365613
:10419000E040404040E002465670202020A040020F
:1041A000465690A0C0A0A090024656808080808095
:1041B000F002465690F0F090909002465690D0F063
:1041C000B0B090024656609090909060024656E0E3
:1041D0009090E08080014757609090D0B0601002CE
:1041E0004656E09090E090900246566090402090B5
:1041F00060123656E0404040404002465690909053
:104200009090600246569090909060600246569062
:104210009090F0F090024656909060609090025618
:1042200056888850202020024656F010204080F00A
:10423000123656E080808080E00246568080402022
:104240001010123656E020202020E016325240A0F6
:10425000014151F0162252804002445470909070F7
:104260000246568080E09090E01234546080806076
:1042700002465610107090907002445460B0C060B6
:10428000024656205040E040400145556090701075
:10429000600246568080E09090901236564000C0F2
:1042A0004040E01137572000202020A04002465611
:1042B000808090E09090123656C040404040E0022E
:1042C0005454D0A8A8A8024454E0909090024454BA
:1042D00060909060014555E090E080800145557008
:1042E00090701010024454A0D0808012345460C0EA
:1042F00020C00246564040E0405020024454909076
:104300009070123454A0A0A04002545488A8A85021
:104310000244549060609001455590907090600206
:104320004454F02040F0024757304020C020403035
:10433000221656808080808080024757C0204030FF
:104340004020C006425250A0FFFFFFFFFFFFFFFFCB
:10435000FFFFFFFFFFFFFFFFFFFFFFFFFFFFFFFF6D
:10436000FFFFFFFFFFFFFFFFFF09005022165680EF
:1043700000808080800146562070A0A070200246F8
:10438000562050E04050A002555588705070880269
:1043900056568850F820F8202217578080800080D9
:1043A00080800247577080E0907010E0173151A074
:1043B00002565670A8C8C8A87014355560A0600091
:1043C000E003435350A050123353E02020143151E6
:1043D000E002565670E8D8E8D870173151E015332E
:1043E0005340A04012355540E04000E014355540A0
:1043F000A02040E0143555C020C020C016225240F5
:1044000080014555909090E08002565678E8E86823
:10441000282824115180112252408014355540C063
:104420004040E014355540A04000E0034353A05005
:10443000A0024757808080A060F02002475780800C
:10444000A0D010207002475780408060A0F020125A
:10445000365640004080A04002475740206090F010
:10446000909002475720406090F09090024757602C
:10447000906090F0909002475750A06090F090901C
:1044800002475790006090F090900247576090600C
:1044900090F0909002465670A0A0F0A0B00147574F
:1044A000609080809060400247574020F080E0801C
:1044B000F00247572040F080E080F00247576090BC
:1044C000F080E080F00247579000F080E080F0122A
:1044D00037578040E0404040E01237572040E040EE
:1044E0004040E012375740A0E0404040E0123757CC
:1044F000A000E0404040E00256567048E84848704E
:1045000002475750A090D0B090900247574020608B
:1045100090909060024757204060909090600247D2
:10452000576090609090906002475750A0609090C4
:10453000906002475790006090909060123353A0B3
:1045400040A002465670B0B0D0D0E002475740209D
:104550009090909060024757204090909090600219
:1045600047576090909090906002475790009090CD
:104570009090600257571020885020202002465605
:1045800080E09090E0800246566090A0A090A0024B
:1045900047574020007090907002475720400070AD
:1045A00090907002475720500070909070024757CB
:1045B00050A000709090700246565000709090701D
:1045C00002475760906070909070025454F068B049
:1045D0007811355560808060400247574020006068
:1045E000B0C06002475720400060B0C0600247572B
:1045F00060900060B0C060024656500060B0C0607D
:10460000123757804000C04040E01237572040002A
:10461000C04040E012375740A000C04040E0123692
:1046200056A000C04040E0024757A040A010709044
:104630006002475750A000E09090900247574020FA
:1046400000609090600247572040006090906002A8
:1046500047576090006090906002475750A00060FC
:1046600090906002465690006090906012355540E0
:1046700000E0004002445470B0D0E00247574020B0
:1046800000909090700247572040009090907002E8
:10469000475760900090909070024656900090901E
:1046A00090700148582040009090709060014757EA
:1046B0008080E090E080800147579000909070905B
:1046C0006001050700FE0500FB01F220FFFE05FE6C
:1046D00005FE0200400215258080800080053242E0
:1046E000A0A002556550F850F8500146562070C001
:1046F00030E02002556590102040480255656080EA
:1047000068906805122280800225354080808040B4
:104710000225358040404080043343A040A003334D
:104720004340E0400122324080043141E002112147
:104730008002556508102040800245556090909099
:1047400060022535C040404040024555E010608081
:10475000F0024555E0106010E00245552060A0F0E1
:1047600020024555F080E010E00245556080E09061
:1047700060024555F0102040400245556090609021
:104780006002455560907010600313238000800222
:10479000142480008080023545204080402003336F
:1047A00043E000E00235458040204080024555E06E
:1047B000106000400255657088B8A87002455560C9
:1047C0009090F090024555E090E090E00235456011
:1047D00080808060024555E0909090E0023545E091
:1047E00080E080E0023545E080E080800245557041
:1047F00080B090700245559090F09090023545E061
:10480000404040E002455530101090600245559000
:10481000A0C0A09002354580808080E00255658868
:10482000D8A8888802455590D0B090900245556030
:1048300090909060024555E09090E080014656606F
:104840009090906010024555E09090E090024555A0
:1048500070806010E0023545E04040404002455520
:1048600090909090600245559090A0A040025565B0
:1048700088A8A8A850024555909060909002455590
:104880009090701060023545E0204080E0022535B0
:10489000C0808080C0025565804020100802253508
:1048A000C0404040C005324240A0024151F00522C4
:1048B0003280400244547090907002455580E090E0
:1048C00090E0023444608080600245551070909002
:1048D0007002445460B0C0600235452040E0404062
:1048E00000465670909070106002455580E09090A0
:1048F00090021525800080808000273740004040CE
:104900004040800245558090A0E0900215258080AF
:10491000808080025464F0A8A8A8024454E09090DB
:104920009002445460909060004656E09090E08081
:1049300080004656709090701010023444A0C080E1
:104940008002445470C030E002354540E0404020D1
:10495000024454909090700244549090A0400254AD
:1049600064A8A85050023444A04040A0004656908D
:104970009090701060024454F02040F00235456081
:10498000408040600215258080808080023545C0CF
:10499000402040C005425250A0FFFFFFFFFFFFFF35
:1049A000FFFFFFFFFFFFFFFFFFFFFFFFFFFFFFFF17
:1049B000FFFFFFFFFFFFFFFFFFFF020040FFFFFFC2
:1049C000FFFFFFFFFFFFFFFFFFFFFFFFFFFFFFFFF7
:1049D000FFFFFFFFFFFFFFFFFFFFFFFFFFFFFFFFE7
:1049E000FFFFFFFFFFFFFFFFFFFFFFFFFFFFFFFFD7
:1049F000FFFFFFFFFFFFFFFFFFFFFFFFFFFFFFFFC7
:104A0000FFFFFFFFFFFFFFFFFFFFFFFFFFFFFFFFB6
:104A1000FFFFFFFFFFFFFFFFFFFFFFFF01060D008E
:104A2000FE09016602D620FFFE0BFE0AFE0D0060A5
:104A3000221969808080808080800080183363A084
:104A4000A0A00357675050F850F850500259692001
:104A500078A0A0702828F02002596948A85010209A
:104A60004050A89002586840A0A040A098906828A4
:104A70001363808080113B6B204040808080808069
:104A8000404020113B6B80404020202020204040AF
:104A90008006556520A870A8200455652020F820C0
:104AA00020113363604080065161F811336340E0A8
:104AB000400259690808101020404080800259695E
:104AC0002050888888888850200259692060A0205A
:104AD00020202020F8025969708888081020408022
:104AE000F8025969F808102070080888700259699E
:104AF000101030505090F81010025969F88080B0B2
:104B0000C80808887002596970888080F088888891
:104B100070025969F808101020204040400259697D
:104B20007088888870888888700259697088888839
:104B3000780808887011386840E040000040E04084
:104B400011386840E0400000604080025969081058
:104B500020408040201008045464F80000F80259F6
:104B600069804020100810204080025969708888B0
:104B700008102020002002596970888898A8A8B0E1
:104B800080780259692050888888F8888888025976
:104B900069F048484870484848F002596970888070
:104BA000808080808870025969F0484848484848A9
:104BB00048F0025969F8808080F0808080F80259BE
:104BC00069F8808080F080808080025969708880D8
:104BD00080809888887002596988888888F88888D1
:104BE0008888123969E040404040404040E0025926
:104BF0006938101010101010906002596988889060
:104C0000A0C0A090888802596980808080808080C0
:104C100080F80259698888D8A8A8888888880259A5
:104C20006988C8C8A8A8989888880259697088882F
:104C3000888888888870025969F0888888F0808020
:104C40008080015A6A70888888888888A8700802DD
:104C50005969F0888888F0A090888802596970881E
:104C600080807008088870025969F8202020202070
:104C7000202020025969888888888888888870025E
:104C8000596988888888505050202002596988883E
:104C90008888A8A8A8A85002596988885050205030
:104CA000508888025969888850502020202020028E
:104CB0005969F808101020404080F8113B6BE080E3
:104CC0008080808080808080E002596980804040C0
:104CD0002010100808113B6BE0202020202020200D
:104CE0002020E0085363205088015161F82A226295
:104CF00080400256667008788898680259698080FA
:104D000080F088888888F002566670888080887075
:104D10000259690808087888888888780256667079
:104D200088F880887002596930484040F04040401F
:104D300040005868708888887808887002596980AF
:104D40008080B0C8888888881238684000C0404099
:104D50004040E0004A6A100030101010109090603F
:104D600002596980808090A0C0A09088123969C0E3
:104D700040404040404040E0025666D0A8A8A8A865
:104D800088025666B0C88888888802566670888807
:104D9000888870005868F0888888F0808080005883
:104DA000687888888878080808025666B0C88080C5
:104DB0008080025666708860108870025868404093
:104DC000F0404040483002566688888888986802DB
:104DD00056668888885050200256668888A8A8A8F9
:104DE000500256668850202050880058688888886D
:104DF0009868088870025666F810204080F8015BB9
:104E00006B1820202020C020202020182219698023
:104E10008080808080808080015B6BC0202020208B
:104E20001820202020C008536348A890FFFFFFFFF0
:104E3000FFFFFFFFFFFFFFFFFFFFFFFFFFFFFFFF82
:104E4000FFFFFFFFFFFFFFFFFFFFFFFFFF0D006002
:104E500022196980008080808080808003586820CB
:104E600070A8A0A0A8702002596930484040E040D6
:104E70004048B0035666887050507088025969885F
:104E8000885050F820F82020221969808080800006
:104E900080808080124A6A6090806090906010905C
:104EA000601A3262A0A00359697088A8D8C8D8A82F
:104EB0008870045767700878887800F80356662869
:104EC00050A0A05028045363F80808163161E0038D
:104ED00059697088E8D8D8E8D888700A5161F817FD
:104EE0004464609090600357672020F8202000F809
:104EF00007356540A02040E007356540A04020C050
:104F00002A226240800058688888888898E88080D3
:104F100002596978E8E8E8E868282828262161C06D
:104F2000202262408007356540C04040E00457675A
:104F3000708888887000F8035666A050282850A012
:104F4000025A6A40C04040E00818283808025A6AED
:104F500040C04040E01028081038025A6A40A04083
:104F600020A04818283808025969200020204080D5
:104F7000888870025A6A40200020508888F8888803
:104F8000025A6A10200020508888F88888025A6ADD
:104F900030480020508888F88888025A6A285000D3
:104FA00020508888F88888025A6A5050002050881B
:104FB00088F88888025A6A20502020508888F8880B
:104FC0008802596958A0A0A0B0E0A0A0B8005B6B0F
:104FD0007088808080808088702040025A6A4020DB
:104FE00000F88080F08080F8025A6A102000F88073
:104FF00080F08080F8025A6A304800F88080F080A3
:1050000080F8025A6A505000F88080F08080F812D0
:105010003A6A804000E04040404040E0123A6A2056
:105020004000E04040404040E0124A6A609000E0AA
:105030004040404040E0123A6AA0A000E0404040BA
:105040004040E0025969F0484848E8484848F002C2
:105050005A6A2850008888C8A8988888025A6A40E6
:10506000200070888888888870025A6A1020007032
:10507000888888888870025A6A30480070888888D2
:10508000888870025A6A28500070888888888870DA
:10509000025A6A5050007088888888887003556565
:1050A0008850205088015B6B08709898A8A8A8C801
:1050B000C87080025A6A4020008888888888887072
:1050C000025A6A10200088888888888870025A6A84
:1050D00030480088888888888870025A6A50500052
:1050E00088888888888870025A6A102000888850CA
:1050F0002020202002596980F0888888F0808080F4
:10510000025969609090A0A0908888B002596940C7
:10511000200070087888986802596910200070088B
:1051200078889868025969304800700878889868CB
:1051300002596928500070087888986802596950A7
:105140005000700878889868025A6A3048300070B9
:105150000878889868025666702870A0A850005891
:1051600068708880808870204002596940200070F3
:1051700088F88088700259691020007088F880884B
:10518000700259693048007088F880887002596947
:105190005050007088F8808870123969804000C0D3
:1051A00040404040E0123969204000C0404040404B
:1051B000E0124969609000C040404040E012396907
:1051C000A0A000C040404040E0025A6A5020601059
:1051D000708888888870025969285000B0C888880B
:1051E0008888025969402000708888888870025930
:1051F00069102000708888888870025969304800DA
:10520000708888888870025969285000708888885A
:1052100088700259695050007088888888700357D8
:1052200067202000F8002020015868087098A8A87E
:10523000C870800259694020008888888898680270
:105240005969102000888888889868025969304810
:105250000088888888986802596950500088888832
:10526000889868005B6B1020008888889868088898
:1052700070005A6A8080B0C88888C8B08080005B9F
:105280006B5050008888889868088870000000007B
:10529000000000000000000000000000000000000E
:1052A0000000000000000000000000000000000CF2
:1052B000000000000000000C0000000000000012D0
:1052C000000000000000002300000000000000219A
:1052D000000000000000004C800000000000005EA4
:1052E000800000000000009240000000000000A1CB
:1052F0004000000000000121200000000000027FAB
:10530000900000000000020010000000000007FFF5
:10531000F800000000000400080000000000080081
:10532000040000000000080006000000000010005B
:10533000020000000000301E010000000000207F7D
:1053400081000000000041FFE0800000000043FCFD
:10535000F08000000000873B7840000000018EDBF9
:10536000FC60000000010FEBCC20000000021FEDEC
:10537000B610000000021FDEB6100000000439CD98
:105380007F080000000436E0FF08000000087EC02F
:10539000BB84000000187F005D86000000107FC005
:1053A000ED82000000203CC07301000000203B3370
:1053B0007F01000000701BE77E03800000C81DEE27
:1053C000DE04C00000880FDEDC04400001240FDF93
:1053D0003C092000012607DBF8192000027203E7D0
:1053E000F0139000025101FFE02290000489007F39
:1053F000802448000904801E004824000BFE400061
:1054000000DFF40010004000008002001FFFFFFFDB
:10541000FFFFFE0000000000000000000000000090
:105420000000000000000000000000001022103CFE
:105430003C0E1F001022100422110400102210083C
:1054400022110400102210083C1104001022101038
:105450002211040010221020221104001E1C1E3CE8
:105460003C0E0400000000000000000000000000EE
:10547000000000000000000000000000000000002C
:10548000000000000000000000000000000000001C
:10549000000000000000000000000000000000000C
:1054A00000000000000000000000000000000000FC
:1054B00000000000000000000000000000000000EC
:1054C00000000000000000000000526573656E647B
:1054D0003A20002042002050006F6B004B494C4C9A
:1054E00045442E20004B494C4C2063617573656424
:1054F000206279204B494C4C20627574746F6E2F7A
:1055000070696E0A004B494C4C45442E20004B49B3
:105510004C4C2063617573656420627920746F6FF1
:10552000206D75636820696E6163746976652074A7
:10553000696D65202D2063757272656E7420636FCE
:105540006D6D616E643A20004B494C4C45442E20F1
:10555000004D363030204230005072696E74207039
:105560006175736564004D31323500004D32340091
:105570005072696E742061626F72746564004E6F60
:105580002053442063617264005072696E74206617
:10559000726F6D2053440053746F70207072696E87
:1055A0007400526573756D65207072696E74005079
:1055B00061757365207072696E740041626F7574F5
:1055C000204669726D77617265004368616E676538
:1055D0002066696C616D656E7400436F6E66696705
:1055E00075726174696F6E0054656D706572617477
:1055F000757265004D6F76656D656E740054756EDD
:105600006500496E666F2073637265656E006DC1DB
:10561000E2CB11241FBECFEFD1E2DEBFCDBF00E051
:105620000CBF14E0A0E0B2E0E8E4F7E402E00BBF56
:1056300002C007900D92AE30B107D9F725E1AEE078
:10564000B4E001C01D92AE32B207E1F71BE2C8E040
:10565000DBE200E006C021970109802FFE010F94D4
:105660002023C730D10780E00807A9F70E9408511E
:105670000D9493230C9400002F923F924F925F92CF
:105680006F927F928F929F92AF92BF92CF92DF9252
:10569000EF92FF920F931F93CF93DF93CDB7DEB7B7
:1056A000C659D1090FB6F894DEBF0FBECDBF009129
:1056B000090620E6029F8001112407571B4F8091A5
:1056C000251580FF1AC0E5E8F6E284917F013FEFDF
:1056D000E31AF30A811102C0780104C00F94A712E3
:1056E000F701F3CFD7018D917D01882319F00F9435
:1056F000A712F8CF8AE00F94A71210922D041092EF
:105700002C048FE3809342041092410410924004D1
:10571000109228041092290410922A0410922B044B
:10572000F80180810F5F1F4F8032D1F38E34B1F4C6
:10573000818190ED980F9A3020F08D3211F08B32EC
:1057400069F43296DF0131962C9120532A30D0F340
:10575000CD01FC01019620812032D9F3F09377141A
:10576000E09376147F01BFEFEB1AFB0A10816AE227
:1057700070E0C7010F946423009731F0FC0131976A
:1057800080818032E1F311821D3429F0143519F043
:10579000173409F0C9C0F70180812FEFE21AF20A2D
:1057A0008032C9F380538A3008F0BEC0109342049F
:1057B00020914004309141044AE03196429FC0015B
:1057C000439F900D1124DF0111972C9130E020535D
:1057D0003109280F391F808180538A3070F330934C
:1057E000410420934004DF0131968C918032D9F33B
:1057F0001D34D1F42E31310591F03CF427313105BF
:1058000071F02C31310581F40AC02537310564F07F
:105810002737310524F0203A43E0340729F4B093C8
:105820002D04A0932C0480C010922D0410922C04FF
:105830000091761461E070E0FD0131968C9188232F
:1058400009F472C08132A1F41D3491F42032310583
:1058500079F4F0932D04E0932C0463E270E0CF011F
:105860000F946423009709F45FC0DC011C925CC0B4
:105870009FEBD92ED80E49E1C42ECD14C0F1AF0153
:10588000FA0190814F5F5F4F9032D1F340ED490FA5
:105890004A3040F043ED490F423020F09B3211F086
:1058A0000C947A41AF01AD2CB12C7501A3E0F594B5
:1058B000E794AA95E1F7C701885D9B4F7C018D2D88
:1058C0008770DB0102C0AA0FBB1F8A95E2F7CD01EA
:1058D000D7019C91892B8C934115510511F0401BE8
:1058E00001C040E0D501A25FBB4F4C930AC080913C
:1058F0002C0490912D04892B21F4B0932D04A093B6
:105900002C04808181548A3110F4DF0195CFDF01AE
:1059100031969C9190539A30D0F3CD01FC010196C1
:1059200040814032D9F3F1CF809142048D3409F4A3
:1059300039C4843511F40C941B41873411F00C9454
:105940005D4180914004909141048A31910509F4B0
:10595000F2C2BCF48430910544F4823091050CF01D
:105960001FC197FF2BC00C9477418430910509F437
:10597000DEC20C9711F00C9477410E94976E0C9444
:1059800077418E31910509F47EC33CF48C31910549
:1059900009F463C30CF4D6C265C38B35910509F4D1
:1059A000F8C38C35910509F4F9C38A35910511F0D6
:1059B0000C94774110923F040C94774180918802B7
:1059C000882311F40C9477410E94376F8CE89DE096
:1059D0000F94ED100E941D508091251583FD8FC0FE
:1059E000C090980DD090990DE0909A0DF0909B0D7D
:1059F000209188073091890740918A0750918B0741
:105A0000C701B6010F94F81B882309F478C0809170
:105A1000EB12811138C06091760270917702072EE7
:105A2000000C880B990B0F94FE1B9B01AC0160913D
:105A3000E7127091E8128091E9129091EA120F94A6
:105A4000F81B87FF20C0C0928807D0928907E09298
:105A50008A07F0928B07E5E8F6E284918F010F5FE9
:105A60001F4F882321F00F94A712F801F6CFECE71F
:105A7000F2E084918F010F5F1F4F882321F00F9474
:105A8000A712F801F6CFC090980DD090990DE09034
:105A90009A0DF0909B0D20918807309189074091D5
:105AA0008A0750918B07C701B6010F94302020E080
:105AB00030E048E453E40F945722181604F5C092DE
:105AC0008807D0928907E0928A07F0928B07E5E871
:105AD000F6E284918F010F5F1F4F882321F00F940E
