:100000000C94270E0C9447890C941C890C94F1884D
:100010000C94C6880C949B880C9470880C9445882A
:100020000C9486780C94580E0C94580E0C94580E20
:100030000C94580E0C9425870C94580E0C94580E62
:100040000C94580E0C942F710C94580E0C94580E5E
:100050000C94580E0C94580E0C94D36F0C94728917
:100060000C94580E0C94C4770C94580E0C94580EA3
:100070000C94580E0C94580E0C94580E0C94580E68
:100080000C94580E0C94580E0C94580E0C94580E58
:100090000C94580E0C94580E0C94580E0C94580E48
:1000A0000C94580E0C94580E0C94580E0C94580E38
:1000B0000C94580E0C94580E0C94580E0C94580E28
:1000C0000C94580E0C94580E0C94580E0C94580E18
:1000D0000C94580E0C94580E0C94580E0C94580E08
:1000E0000C94580E912C942C832C872C8D2CCB2C7B
:1000F000982C9C2CA22CA62CAA2CB02CB42CB82C5E
:10010000CB2CBE2CC22CC62CFE2CFE2C052D052D76
:10011000052D0C2D0C2D0C2D192D132D132D132DFC
:10012000815F865F8B5F955F9F5F1860A95FB15F9E
:10013000B95FC35FCD5FD75FE65FF05F1860FA5FBE
:1001400004600E60F877FE770F781A782278377897
:10015000267837782A782E7837783478084AD73B4B
:100160003BCE016E84BCBFFDC12F3D6C74319ABD86
:1001700056833DDA3D00C77F11BED9E4BB4C3E91AA
:100180006BAAAABE000000803F05A84CCDB2D44E99
:10019000B93836A9020C50B9918688083CA6AAAA9B
:1001A0002ABE000000803F00434F4D4D554E49434D
:1001B0004154494F4E0044525952554E00455252F7
:1001C0004F525300494E464F004543484F00473277
:1001D0002F47332062616420706172616D657465C0
:1001E00072730A000A0A426564204C6576656C20C9
:1001F000436F7272656374696F6E204D61747269CA
:10020000783A0052756E6E696E6720696E204452AE
:10021000592D52554E206D6F64650A0047323920C2
:100220004175746F20426564204C6576656C696E1B
:10023000670A003F2856296572626F7365206C65F6
:1002400076656C20697320696D706C617573696285
:100250006C652028302D34292E0A00205A3A2000BF
:1002600020593A200042656420583A2000000125B8
:10027000301D0C1E24311C0B18232F1B0A17FFFFE7
:10028000040806FF06222B1A4142043803FF3628D1
:10029000294527444350726F746563746564205028
:1002A000696E0A00C901C401BD01B601A8016F66EB
:1002B000660044454255473A006F6B0020573A00AC
:1002C0004361703A454D455247454E43595F504151
:1002D000525345523A310A004361703A4341534503
:1002E0005F4C494748545F4252494748544E455332
:1002F000533A300A004361703A544F47474C455FC8
:100300004C49474854533A300A004361703A534FBE
:100310004654574152455F504F5745523A300A00B4
:100320004361703A4C4556454C494E475F444154F1
:10033000413A310A004361703A5A5F50524F424588
:100340003A310A004361703A4155544F4C45564585
:100350004C3A310A004361703A5052494E545F4A58
:100360004F423A310A004361703A50524F4752456A
:1003700053533A300A004361703A4155544F524545
:10038000504F52545F54454D503A310A004361700A
:100390003A454550524F4D3A310A004649524D5761
:1003A0004152455F4E414D453A4D61726C696E2038
:1003B000204649524D574152455F56455253494F89
:1003C0004E3A312E312E352E313920455854525562
:1003D0004445525F545950453A53696E676C6545C0
:1003E0007874727564657220534F555243455F436C
:1003F0004F44455F55524C3A68747470733A2F2FCE
:10040000636F64652E616C6570686F626A656374A2
:10041000732E636F6D2F646966667573696F6E2FD7
:100420004D41524C494E2050524F544F434F4C5F18
:1004300056455253494F4E3A312E30204D41434894
:10044000494E455F545950453A4C756C7A426F7429
:10045000204D696E692045585452554445525F43BA
:100460004F554E543A3120555549443A333531347D
:10047000383762362D636139612D346331612D382F
:100480003736352D64363638623164613635383565
:100490000A002F2F200053657474696E6720547210
:1004A0006176656C20416363656C65726174696F28
:1004B0006E3A200053657474696E672052657472D9
:1004C00061637420416363656C65726174696F6E0A
:1004D0003A200053657474696E67205072696E74B7
:1004E00020416363656C65726174696F6E3A2000C8
:1004F00053657474696E67205072696E7420616E02
:10050000642054726176656C20416363656C65722A
:100510006174696F6E3A2000205A0020590058001B
:1005200020204D61783A2000205A002059005800C0
:1005300020204D696E3A20004F6E20004F66660005
:10054000536F667420656E6473746F70733A200025
:1005500020643A0020693A0020703A0020643A0092
:1005600020693A0020703A0043290A0061626C65F4
:100570006420286D696E2074656D702000436F6C77
:1005800064206578747275646573206172652000FB
:100590004B64200023646566696E652020444546EF
:1005A00041554C545F004B69200023646566696EB9
:1005B00065202044454641554C545F004B70200057
:1005C00023646566696E65202044454641554C5458
:1005D0005F00504944204175746F74756E652066E4
:1005E000696E69736865642120507574207468654C
:1005F000206C617374204B702C204B6920616E64F9
:10060000204B6420636F6E7374616E747320667226
:100610006F6D2062656C6F7720696E746F20436F19
:100620006E66696775726174696F6E2E680A005034
:100630004944204175746F74756E65206661696CFC
:100640006564212074696D656F75740A00504944B2
:10065000204175746F74756E65206661696C6564A0
:10066000212054656D706572617475726520746FB8
:100670006F20686967680A00204B643A2000204BAD
:10068000693A2000204B703A20000A20436C6173C5
:1006900073696320504944200A002054753A2000B1
:1006A000204B753A2000206D61783A2000206D695A
:1006B0006E3A200020643A200020626961733A207B
:1006C00000426564204C6576656C696E6720004663
:1006D00061696C656420746F20656E61626C652071
:1006E000426564204C6576656C696E670A004265F8
:1006F00064204C6576656C20436F72726563746923
:100700006F6E204D61747269783A0000000000003D
:10071000003F4300001F43546F6F206661722066E4
:10072000726F6D207265666572656E636520706FAD
:10073000696E740A003A20007A5F6D696E3A202073
:100740002D32207A5F6D61783A202035005A204F93
:10075000666673657420004E6F2063617365206C5C
:10076000696768740A004163746976652045787426
:1007700072756465723A2000556E6B6E6F776E20ED
:10078000636F6D6D616E643A2022001000C9021023
:10079000012C014001220170011801B0010E01F08D
:1007A0000104015002FA00B002F0003003E600D06C
:1007B00003DC009004D2007005C800A006BE000053
:1007C00008B400B009AA00D00BA000600E9600602B
:1007D000118C000015820020197800C01D6E00A049
:1007E000226400B0275A00902C500000314600E0EF
:1007F000343C0010383200903A2800603C1E00A0C3
:100800003D1400803E0A00203F000000002000232D
:1008100000260029002C002F0032000001000003F8
:10082000010601090100000000000020C1000000D5
:10083000C000002F4300003F4300001F431000ADE5
:100840000330016A0150022B0170030A019004F584
:1008500000B005E500D006D800F007CE001009C5AD
:1008600000300ABE00500BB700700CB100900DAB09
:1008700000B00EA600D00FA200F0109D001012993B
:1008800000301395005014920070158E0090168B56
:1008900000B0178700D0188400F0198100101B7E6B
:1008A00000301C7B00501D7900701E7600901F7375
:1008B00000B0207000D0216E00F0226B001024697F
:1008C0000030256600502663007027610090285E86
:1008D00000B0295C00D02A5900F02B5600102D548E
:1008E00000302E5100502F4E0070304B0090314898
:1008F00000B0324500D0334200F0343E0010363BA9
:1009000000303737005038330070392E00903A29C4
:1009100000B03B2300D03C1B00F03D1100103F0114
:1009200000F03F00007A5F6D61783A20007A5F6DD9
:10093000696E3A2000795F6D61783A2000795F6DC9
:10094000696E3A2000785F6D61783A2000785F6DBB
:10095000696E3A20005265706F7274696E67206527
:100960006E6473746F70207374617475730A0045DC
:1009700072726F722077726974696E6720746F206B
:10098000454550524F4D210A002066697273740A22
:10099000005A0059005800486F6D65200050726978
:1009A0006E7465722068616C7465642E206B696C6E
:1009B0006C28292063616C6C6564210A006265649F
:1009C0000A002C2073797374656D2073746F7070D6
:1009D000656421204865617465725F49443A20006E
:1009E000544845524D414C2052554E4157415900B3
:1009F000546865726D616C2052756E617761790023
:100A000048656174696E67206661696C6564004859
:100A1000656174696E67206661696C65640048652C
:100A20006174696E67206661696C65640048656120
:100A300074696E67206661696C6564005072696EE6
:100A40007465722073746F707065642064756520BE
:100A5000746F206572726F72732E204669782074ED
:100A60006865206572726F7220616E6420757365AF
:100A7000204D39393920746F207265737461727436
:100A80002E202854656D70657261747572652069D9
:100A9000732072657365742E205365742069742009
:100AA00061667465722072657374617274696E67D1
:100AB000290A002042002050006F6B0052657365C8
:100AC0006E643A2000202F002042403A0020403A35
:100AD000004E6F204C696E65204E756D6265722008
:100AE0007769746820636865636B73756D2C204C3F
:100AF000617374204C696E653A20005072696E749F
:100B000065722073746F70706564206475652074FD
:100B10006F206572726F72732E2046697820746838
:100B200065206572726F7220616E64207573652036
:100B30004D39393920746F20726573746172742E67
:100B4000202854656D7065726174757265206973D3
:100B50002072657365742E2053657420697420615A
:100B6000667465722072657374617274696E672948
:100B70000A004E6F20436865636B73756D2077695B
:100B80007468206C696E65206E756D6265722C20CC
:100B90004C617374204C696E653A2000636865632C
:100BA0006B73756D206D69736D617463682C204C77
:100BB000617374204C696E653A20004C696E652043
:100BC0004E756D626572206973206E6F74204C6182
:100BD0007374204C696E65204E756D6265722B31A1
:100BE0002C204C617374204C696E653A20004D31A5
:100BF000313000204500205A0020204D3930372068
:100C0000580053746570706572206D6F746F722038
:100C100063757272656E74733A0A0020204D383520
:100C200031205A005A2D50726F6265204F666673EC
:100C3000657420286D6D293A0A002044002049007F
:100C400020204D3330342050002044002049002023
:100C5000204D333031205000504944207365747466
:100C6000696E67733A0A0020204D343230205300F9
:100C70004175746F20426564204C6576656C696EC1
:100C8000673A0A00205A0020590020204D323036A1
:100C9000205800486F6D65206F66667365743A0A68
:100CA00000204500205A0020590020580020420012
:100CB00020540020204D32303520530041647661AD
:100CC0006E6365643A20533C6D696E5F666565646A
:100CD000726174653E20543C6D696E5F747261761A
:100CE000656C5F66656564726174653E20423C6D4B
:100CF000696E5F7365676D656E745F74696D655F5E
:100D00006D733E20583C6D61785F78795F6A6572DB
:100D10006B3E205A3C6D61785F7A5F6A65726B3E0C
:100D200020453C6D61785F655F6A65726B3E0A00C5
:100D300020540020520020204D32303420500041F9
:100D40006363656C65726174696F6E2028756E6986
:100D500074732F7332293A20503C7072696E745F3D
:100D6000616363656C3E20523C72657472616374AA
:100D70005F616363656C3E20543C74726176656CA0
:100D80005F616363656C3E0A00204500205A0020C5
:100D9000590020204D3230312058004D6178696D66
:100DA000756D20416363656C65726174696F6E2057
:100DB00028756E6974732F7332293A0A0020450032
:100DC000205A0020590020204D3230332058004D49
:100DD0006178696D756D20666565647261746573AF
:100DE0002028756E6974732F73293A0A0020450014
:100DF000205A0020590020204D39322058005374C9
:100E00006570732070657220756E69743A0A0020EF
:100E1000204D3230302044300A0020204D32303016
:100E20002044002044697361626C65640A0046696D
:100E30006C616D656E742073657474696E67733A66
:100E4000002020473231202020203B20556E69743D
:100E50007320696E206D6D0A00290A002062797482
:100E600065733B20637263200053657474696E6719
:100E7000732053746F726564202800256973002500
:100E8000696D20256973002569682025696D202515
:100E9000697300256964202569682025696D20250E
:100EA00069730025697920256964202569682025F2
:100EB000696D20256973005072696E742074696DC4
:100EC000653A200020746F6F206C6F6E6720657824
:100ED00074727573696F6E2070726576656E746575
:100EE000640A0020636F6C6420657874727573699E
:100EF0006F6E2070726576656E7465640A00486175
:100F00007264636F6465642044656661756C742007
:100F100053657474696E6773204C6F616465640A0D
:100F200000282300002823000064000000E80300DC
:100F3000000000964300009643000000410000209E
:100F4000420000C9420000C9420000C844004050AD
:100F500044202863616C63756C6174656429210A9F
:100F60000020213D2000454550524F4D2043524323
:100F7000206D69736D61746368202D202873746F10
:100F8000726564292000290A002062797465733B28
:100F90002063726320002073746F72656420736530
:100FA0007474696E677320726574726965766564BE
:100FB000202800204D61726C696E3D563430290A3C
:100FC0000028454550524F4D3D00454550524F4D2C
:100FD0002076657273696F6E206D69736D617463DD
:100FE000682000656E7175657565696E6720220001
:100FF00000002200250028002B002E0031003400C4
:1010000002010000050108010B010000210024007D
:1010100027002A002D0030003300010100000401E8
:1010200007010A0105050505070508080808020269
:1010300002020A0A08080404040401010101010172
:1010400001010303030303030303040707070C0C55
:101050000C0C0C0C0C0C020202020606060606061C
:1010600006060B0B0B0B0B0B0B0B010210202008C1
:1010700008102040102040800201020108040201F3
:101080000102040810204080804020100804020162
:1010900080040201804020100804020108040201BB
:1010A0000102040810204080010204081020408042
:1010B00000000A0B02090C0D0E08070304010000D2
:1010C0000000000000000000000000000000000020
:1010D00000000000000000000000000012111000DD
:1010E0000000000000000000000000000000000000
:1010F00000000000000045303A20005A3A20005914
:101100003A2000583A20004D53312C4D5332205094
:10111000696E730A00205A3A0020593A0020436F42
:10112000756E7420583A0020453A00205A3A002043
:10113000593A00583A0020496E76616C696420651E
:101140007874727564657220004B494C4C45442E8E
:1011500020004B494C4C20636175736564206279B3
:1011600020746F6F206D75636820696E61637469A8
:1011700076652074696D65202D2063757272656EC9
:101180007420636F6D6D616E643A200020573A00E1
:1011900020746F6F206C6F6E672065787472757342
:1011A000696F6E2070726576656E7465640A0020E2
:1011B000636F6C6420657874727573696F6E2070EC
:1011C000726576656E7465640A004B494C4C454403
:1011D0002E200024F4D43050C38E20C2A2401782A7
:1011E0008B7011127A910D816CD90AA861E108C740
:1011F000586607615143061E4B5D05C145A7041A99
:10120000411104093D9803713931034036DB026511
:10121000339102D4305402802E1D02632CEE0175EE
:101220002AC501B028A001102781018F2564012B58
:10123000244B01E0223401AC211F018D200D0180DF
:101240001FFC00841EED00971DDF00B81CD200E6D5
:101250001BC600201BBC00641AB200B219A8000A09
:1012600019A0006A189900D117910040178B00B59A
:1012700016840031167E00B31579003A157300C745
:10128000146F0058146A00EE13660088136300257B
:10129000135E00C7125B006C12570015125400C198
:1012A00011510070114F0021114B00D61049008DD3
:1012B0001047004610440002104200C00F4000805A
:1012C0000F3E00420F3C00060F3B00CB0E38009350
:1012D0000E37005C0E3500270E3400F30D3200C1CE
:1012E0000D3100900D3000600D2E00320D2D0005E7
:1012F0000D2C00D90C2B00AE0C2900850C29005CAC
:101300000C2700350C27000E0C2600E80B2400C427
:101310000B2400A00B23007D0B23005A0B21003966
:101320000B2100180B2000F80A1F00D90A1E00BB71
:101330000A1E009D0A1D00800A1D00630A1C00474A
:101340000A1B002C0A1B00110A1A00F7091A00DDFB
:10135000091900C4091900AB091900920917007B8B
:10136000091800630917004C0916003609160020F9
:101370000916000A091500F5081500E0081400CC4C
:10138000081400B8081400A4081400900813007D85
:101390000812006B081300580812004608120034A7
:1013A000081100230811001208110001081100F0B3
:1013B000071000E0071000D0071000C0071000B0B1
:1013C000070F00A107100091070E0083070F00749C
:1013D000070F0065070E0057070E0049070E003B78
:1013E000070D002E070E0020070D0013070D000645
:1013F000070D00F9060C00ED060D00E0060C00D408
:10140000060C00C8060C00BC060C00B0060C00A4BC
:10141000060B0099060C008D060B0082060B007768
:10142000060B006C060B0061060A0057060B004C09
:10143000060A0042060A0038060A002E060A0024A0
:10144000060A001A060A001006090007060A00FD2F
:10145000050900F4050900EB050900E2050900D9BA
:10146000050900D0050900C7050900BE050900B53A
:10147000050800AD050800A50509009C05080094B5
:101480000508008C050800840508007C0508007428
:101490000508006C050700650508005D0507005696
:1014A0000508004E050700470507004005080038FD
:1014B000050700310507002A050700230507001C62
:1014C000050600160507000F0507000805060002BF
:1014D000050700FB040600F5040700EE040600E81B
:1014E000040600E2040700DB040600D5040600CF72
:1014F000040600C9040600C3040600BD040600B7C4
:10150000040600B1040500AC040600A6040600A011
:101510000405009B04060095040500900406008A5B
:1015200004050085040500800406007A04050075A2
:10153000040500700405006B0405006604050061E5
:101540000405005C04050057040500520405004D25
:1015500004050048040500430405003E0404003A65
:1015600004050035040500300404002C04050027A0
:10157000040400230405001E0404001A04040016D9
:10158000040500110404000D04040009040500040E
:1015900004040000040400FC030400F8030400F445
:1015A000030400F0030400EC030400E8030400E477
:1015B000030400E0030400DC030400D8030400D4A7
:1015C000030400D0030400CC030400C8030300C5D7
:1015D00003030024F404D9201BC40C5C0E9804C43B
:1015E000095F0265077101F405F900FB04B30048C7
:1015F000048700C10369005803550003034500BE7A
:10160000023A008402310053022A00290225000414
:10161000022000E4011C00C8011900AF0117009866
:1016200001140084011300710110006101100051C8
:10163000010E0043010D0036010B002B010B0020B1
:10164000010B00150109000C01090003010800FB52
:10165000000800F3000800EB000700E4000600DECD
:10166000000600D8000600D2000600CC000500C726
:10167000000500C2000500BD000400B9000400B56B
:10168000000400B1000400AD000400A9000400A59E
:10169000000300A20003009F0004009B00030098C9
:1016A0000003009500020093000300900003008DEA
:1016B0000002008B00030088000200860002008404
:1016C000000300810002007F0002007D0002007B19
:1016D0000002007900020077000100760002007429
:1016E00000020072000100710002006F0002006D34
:1016F0000001006C0002006A00010069000200673E
:101700000001006600010065000100640002006243
:1017100000010061000100600001005F0002005D47
:101720000001005C0001005B0001005A000100594B
:10173000000100580001005700010056000100554B
:10174000000100540001005300000053000100524A
:1017500000010051000100500001004F0001004E47
:101760000000004E0001004D0001004C0001004B44
:101770000000004B0001004A000100490001004840
:10178000000000480001004700010046000000463C
:101790000001004500000045000100440001004335
:1017A000000000430001004200000042000100412F
:1017B00000000041000100400001003F0000003F28
:1017C0000001003E0000003E0001003D0000003D21
:1017D0000001003C0000003C0000003C0001003B18
:1017E0000000003B0001003A0000003A000100390F
:1017F0000000003900010038000000380000003807
:1018000000010037000000370001003600000036FC
:1018100000000036000100350000003500000035F2
:1018200000010034000000340000003400010033E7
:1018300000000033000000330001003200000032DD
:1018400000000032000100310000003100000031D2
:101850000001003000000030000000300001002FC7
:101860000000002F0000002F0000002F0001002EBC
:101870000000002E0000002E0001002D0000002DB1
:101880000000002D0000002D0001002C0000002CA5
:101890000000002C0000002C0001002B0000002B99
:1018A0000000002B0000002B0001002A0000002A8D
:1018B0000000002A0000002A000100290000002981
:1018C0000000002900000029000000290001002874
:1018D0000000002800000028000000280000002868
:1018E000000100270000002700000027000000275B
:1018F000000000270001002600000026000000264E
:101900000000002600000026000100250000002540
:101910000000002500000025000000250000002533
:101920000001002400000024000000240000002426
:101930000000002400010023000000230000002319
:10194000000000230000002300000023000000230B
:1019500000010022000000220000002200000022FE
:1019600000000022000000220001002100000021F0
:1019700000000021000000210000002100000021E3
:1019800000000021000100200000002000000020D5
:1019900000000020000000200000002000000020C7
:1019A000000000200001001F0000001F0000001FB9
:1019B0000000001F0000001F0000001F0000001FAB
:1019C0000001001E0000001E0000001E0000001E9E
:1019D0000000004572723A204D494E54454D50204A
:1019E000424544004572723A204D494E54454D508F
:1019F000004D494E54454D502074726967676572B9
:101A00006564004572723A204D415854454D50204E
:101A1000424544004572723A204D415854454D505C
:101A2000004D415854454D50207472696767657286
:101A300065640050524F4245204641494C20434C7A
:101A400045414E204E4F5A5A4C450A00526577691F
:101A500070696E670A0050524F4245204641494C1A
:101A600020434C45414E204E4F5A5A4C450A005295
:101A700065776970696E670A0050726F62696E6798
:101A8000206661696C65640A00205A3A200020597A
:101A90003A200042656420583A20000000F04100DE
:101AA00000F04100000041000000005761726E69C3
:101AB0006E673A20486F6D696E672042756D7020C1
:101AC00044697669736F72203C20310A0002020477
:101AD0000000A0400000A0400000004000002F4394
:101AE0000000494300002143FF0101024572726F6B
:101AF000723A002020506C616E6E657242756666A7
:101B0000657242797465733A2000204672656520DB
:101B10004D656D6F72793A2000436F6D70696C6529
:101B2000643A204F637420323020323031370A005B
:101B3000207C20417574686F723A2028416C657072
:101B400068204F626A6563747320496E632E2C208F
:101B50004C756C7A426F7420476974205265706FBF
:101B60007369746F7279290A004F637420323020D0
:101B70003230313731303A34313A313300204C6130
:101B8000737420557064617465643A2000312E319D
:101B90002E350A004D61726C696E0020536F6674B9
:101BA000776172652052657365740A00205761740D
:101BB0006368646F672052657365740A002042721F
:101BC0006F776E206F75742052657365740A0020FC
:101BD00045787465726E616C2052657365740A0095
:101BE000506F77657255700A0073746172740A00E1
:101BF000205A3A0020593A0020583A00656E647322
:101C0000746F7073206869743A20006563686F3A76
:101C1000004E414E494E495459494E46CDCCCC3DDB
:101C20000AD7233C17B7D13877CC2B329595E624C9
:101C30001FB14F0A000020410000C84200401C466E
:101C400020BCBE4CCA1B0E5AAEC59D74C48711245D
:101C50001FBECFEFD1E2DEBFCDBF00E00CBF13E06F
:101C6000A0E0B2E0E6E5FAE201E00BBF02C00790B7
:101C70000D92A432B107D9F72DE0A4E2B3E001C080
:101C80001D92A830B207E1F71CE1CEE4DCE100E0F0
:101C900006C022970109FE010BBF0E940595CC34B6
:101CA000D10780E00807A9F70E948C830C9429953E
:101CB0000C9400002F923F924F925F926F927F920E
:101CC0008F929F92AF92BF92CF92DF92EF92FF924C
:101CD0000F931F93CF93DF93CDB7DEB7C759D109C9
:101CE0000FB6F894DEBF0FBECDBF0091A00C20E66A
:101CF000029F800111240D5D1B4F8091220480FF03
:101D00001AC0EBE0FCE184917F013FEFE31AF30A94
:101D1000811102C0780104C00E940937F701F3CF96
:101D2000D7018D917D01882319F00E940937F8CFE2
:101D30008AE00E94093710928603109285038FE390
:101D4000809321041092200410921F0410923E03ED
:101D500010923F031092400310924103F8018081DA
:101D60000F5F1F4F8032D1F38E34B1F4818190ED3B
:101D7000980F9A3020F08D3211F08B3269F4329640
:101D8000DF0131962C9120532A30D0F3CD01FC0194
:101D9000019620812032D9F3F0931904E0931804BE
:101DA0007F01BFEFEB1AFB0A10816AE270E0C70106
:101DB0000E940995009739F0DC0111978C918032CF
:101DC000E1F311961C921D3429F0143519F01734E3
:101DD00009F0CDC0F7014E2F9F2F81918032D9F3AA
:101DE00080538A3008F0C3C01093210420911F044F
:101DF00030912004E42FF92F6AE0AF014F5F5F4F6D
:101E0000629FC001639F900D1124208130E0205318
:101E10003109820F931F218120532A3030F0909393
:101E2000200480931F049A0103C09C01FA01E5CFAE
:101E3000D9012F5F3F4F4C914032D1F31D3449F00F
:101E4000B0901804409185035091860361E070E0E2
:101E500050C08E31910591F03CF48731910571F0BD
:101E60008C31910569F70AC0853791054CF38737A6
:101E7000910524F0803AE3E09E0711F7B0938603C2
:101E8000A093850374C02132F1F10FEB020F0A31E8
:101E900008F05AC09F01F901A0812F5F3F4FA03287
:101EA000D1F320ED2A0F2A3008F042C09F01E02E26
:101EB000F12CD701B595A795B595A795B595A7959B
:101EC000A25CBC4F07706B01002E01C0CC0C0A94C1
:101ED000EAF7DC90DC28DC922115310599F12B1909
:101EE000D701AC5DBC4F2C93208121542A3188F559
:101EF000DF01FD0131962C912111C5CF509386034E
:101F00004093850334C01D3409F0BFCF8032910562
:101F100009F0BBCFF0938603E093850363E270E0A2
:101F2000CF010E940995009711F1DC011C921FC09E
:101F300023ED2A0F223008F4B9CFAB3211F00C9404
:101F4000A527B4CF20E0CCCF4115510569F6AD01EE
:101F5000CBCF9F013196D9010C9100530A30C8F3C1
:101F6000F9012F5F3F4FA081A032D1F3C1CF809103
:101F700021048D3411F40C941C18843511F40C9444
:101F80004727873411F00C94882780911F04909183
:101F900020048A31910509F43AC2D4F484309105C1
:101FA0005CF4823091058CF597FF02C00C94A22757
:101FB0000E94205B0C94A2278430910509F4ECC1A7
:101FC0000C9711F00C94A2270E9437800C94A22742
:101FD0008E31910509F419C73CF48C31910509F44F
:101FE0009DC20CF419C2F5C28B35910509F4B6C730
:101FF0008C35910509F4B7C78A35910511F00C9419
:10200000A22710921E040C94A22720912D022223B5
:1020100011F40C94A22711E0029709F010E00E943D
:10202000A43A19821A821B821C821D821E821F8280
:10203000188682E50E94983A882309F45EC10E94BE
:102040002B396B017C0120916F0C3091700C409109
:10205000710C5091720CA1962CAF3DAF4EAF5FAF9B
:10206000A1978090730C9090740CA090750CB09018
:10207000760C8091420390914303A0914403B09168
:102080004503A5968CAF9DAFAEAFBFAFA59720918E
:102090004603309147034091480350914903A99664
:1020A0002CAF3DAF4EAF5FAFA99720E030E0A90164
:1020B000C701B6010E94DD8D882309F434C1A196C1
:1020C0002CAD3DAD4EAD5FADA197A5966CAD7DAD90
:1020D0008EAD9FADA5970E94DD8D81110DC0A5012C
:1020E0009401A9966CAD7DAD8EAD9FADA9970E9470
:1020F000DD8D882309F417C120E030E0A901C70174
:10210000B6010E94DD8D881F8827881F181759F097
:1021100080E090E0A0E8BFEBE9968CAF9DAFAEAF5A
:10212000BFAFE9970AC020E030E040E85FE3E996FE
:102130002CAF3DAF4EAF5FAFE997A1962CAD3DAD53
:102140004EAD5FADA197A5966CAD7DAD8EAD9FAD4B
:10215000A5970E940992E1966CAF7DAF8EAF9FAFBD
:10216000E197A5019401A9966CAD7DAD8EAD9FADB3
:10217000A9970E940992E5966CAF7DAF8EAF9FAF95
:10218000E597E1962CAD3DAD4EAD5FADE197CA014F
:10219000B9010E94428E2B013C01E5962CAD3DAD6C
:1021A0004EAD5FADE597CA01B9010E94428E9B0119
:1021B000AC01C301B2010E940A920E947594AD96CF
:1021C0006CAF7DAF8EAF9FAFAD9720E030E040E0C9
:1021D0005FE30E94428E2B013C01A7019601C701DB
:1021E000B6010E94428E6B017C01A3019201C301E2
:1021F000B2010E94428E9B01AC01C701B6010E9450
:1022000009920E9475949B01AC01E9966CAD7DAD7D
:102210008EAD9FADE9970E94428E6B017C01A59621
:102220002CAD3DAD4EAD5FADA597A1966CAD7DAD2E
:102230008EAD9FADA1970E940A9220E030E040E071
:102240005FE30E94428E2B013C01E5966CAD7DADB3
:102250008EAD9FADE5979058AD962CAD3DAD4EAD92
:102260005FADAD970E94E6929B01AC01C701B6013C
:102270000E94428E9B01AC01C301B2010E940A92EE
:10228000A1962CAD3DAD4EAD5FADA1970E940992D8
:1022900069837A838B839C83A9962CAD3DAD4EAD2B
:1022A0005FADA997C501B4010E940A9220E030E019
:1022B00040E05FE30E94428E2B013C01AD962CADC5
:1022C0003DAD4EAD5FADAD97E1966CAD7DAD8EADE4
:1022D0009FADE1970E94E6929B01AC01C701B60158
:1022E0000E94428E9B01AC01C301B2010E940A927E
:1022F000A50194010E94099212C089E40E94983AB3
:10230000882331F00E942B3969837A838B839C83E5
:102310008AE40E94983A882331F00E942B396D8319
:102320007E838F83988720E030E0A90169817A81DC
:102330008B819C810E94DD8D81110BC020E030E0FB
:10234000A9016D817E818F8198850E94DD8D882312
:1023500049F0612FCE0101960E94657B0E944E3CA0
:102360000C94A227ECEEFAE184918F010F5F1F4FCE
:10237000882321F00E940937F801F6CFEEECF1E056
:1023800084918F010F5F1F4F882311F40C94A227B3
:102390000E940937F801F4CF80E50E94983A88231B
:1023A00029F00E94EB384B015C0103C0812C912C79
:1023B000540183E50E94983A882361F00E942B39EA
:1023C00020E030E04AE754E40E94428E0E9453939A
:1023D0004B015C010E9428500E944E3CC090520369
:1023E000D0905303E0905403F0905503C80CD91CCF
:1023F000EA1CFB1C0E94B03B6C197D098E099F09E9
:1024000097FD02C00C94A2270E94AF60F3CF81E039
:1024100080932D020C94A2270E94103781110C94F6
:10242000A22780E50E94983A882321F00E94FB3879
:10243000462F01C040E06091770C7091780C80913C
:10244000790C90917A0C00E010E020E231E40983ED
:102450001A832B833C8300E010E025E333E40D83F3
:102460001E832F83388700E010E020EA31E40987DB
:102470001A872B873C8700E010E020EC3FE70D87B0
:102480001E872F87388B413071F1423021F51DA214
:102490001EA21FA218A620E030E040EA51E40E94EC
:1024A0000A927B018C0120E030E04FE153E40E946E
:1024B0003094181624F4E12CF12C0FE113E4A70159
:1024C000B80149AB5AAB6BAB7CABBE016B5D7F4FC8
:1024D000CE01C19611C020E030E040EA51E40E94F4
:1024E000DD8D87FF0BC01DA21EA21FA218A6BE0174
:1024F0006B5D7F4FCE0109960E9424511DA21EA242
:102500001FA218A6AE014B5D5F4FBE016B5F7F4FF0
:10251000CE0101960E9420510C94A22724982C9A57
:102520000E94285080E00E94C83D0E94713C81E0DA
:1025300080935E0C88E50E946A3AF82E89E50E9435
:102540006A3A082F8AE50E946A3AF11005C0011123
:1025500007C011E0182705C0002311F0182F01C093
:1025600010E090E1EFE6FCE0A2E4B3E001900D9210
:102570009A95E1F7111105C0811103C0F1100BC04C
:1025800011C082E00E94477F1123C1F30E94D659F7
:10259000111103C00AC00111F9CF80E00E94477FEA
:1025A000111106C0011104C006C0F110F6CFFACF18
:1025B00081E00E94477F0E94855980918703809324
:1025C0005E0C0E94583C0E942B5E249A2C980C941E
:1025D000A22724982C9A0E941037811112C41982C4
:1025E0001A821B821C8240E050E060EC70EC4D834C
:1025F0005E836F83788719861A861B861C8680E027
:1026000090E0A4E2B3E48D879E87AF87B88B498BB7
:102610005A8B6B8B7C8B1D8A1E8A1F8A188E898F22
:102620009A8FAB8FBC8F80E090E0A2E2B3E48D8FF5
:102630009E8FAF8FB8A319A21AA21BA21CA2D09082
:10264000F7038AE40E946A3A882319F00E94DC3D6D
:10265000D8C386E50E94983A882321F00E94FB386F
:102660001B0102C0212C312C35E02316310468F007
:10267000E3E3F2E084918F010F5F1F4F882309F499
:10268000C0C30E940937F801F5CF84E40E946A3A7A
:10269000882331F00E941C39A2968FAFA29703C005
:1026A000A2961FAEA29721143104E9F0ECE1F2E00A
:1026B00084918F010F5F1F4F882321F00E940937FB
:1026C000F801F6CFA2960FADA297002361F0E3E0E8
:1026D000F2E084918F010F5F1F4F882321F00E9449
:1026E0000937F801F6CF0E9428501092F703A296FE
:1026F0001FADA29711110AC00E94AC3585E896E083
:102700000E94F42E0E940F3B0E94855981E00E9496
:102710008880882319F0D092F70373C30E94713C1C
:1027200085E40E946A3A882321F00E941C39C82E51
:1027300001C0C12C8E010F5F1F4F7E0125E2E20E0A
:10274000F11C2091F8033091F9034091FA03509164
:10275000FB03D8016D917D918D919C910E940A920D
:102760006D966CAF7DAF8EAF9FAF6D972091FC03E0
:102770003091FD034091FE035091FF03F801648105
:102780007581868197810E940A9269966CAF7DAFB0
:102790008EAF9FAF6997222D4C2DBE016B5A7F4F94
:1027A000CE01875A9F4F0E941681A1966CAF7DAFD4
:1027B0008EAF9FAFA1979B01AC010E94B694882376
:1027C00019F0D092F7037BC2A1962CAD3DAD4EAD72
:1027D0005FADA197D80118962D933D934D935C93CF
:1027E0001B97045F1F4F0E151F0509F0AACFA29675
:1027F0000FADA297011163C2CD84DE84EF84F88807
:1028000049885A886B887C888D889E88AF88B88C68
:10281000A501940169A17AA18BA19CA10E940992B2
:10282000A9966CAF7DAF8EAF9FAFA997A301920120
:102830006D8D7E8D8F8D98A10E940992AD966CAFA3
:102840007DAF8EAF9FAFAD97A7019601698D7A8D51
:102850008B8D9C8D0E940992E1966CAF7DAF8EAFFF
:102860009FAFE197A501940169857A858B859C8549
:102870000E9409924B015C01A301920160E070E0AB
:1028800080EC90EC0E9409922B013C01A70196017B
:1028900060E070E0CB010E9409926B017C01A99677
:1028A0002CAD3DAD4EAD5FADA997C301B2010E9405
:1028B000428EE5966CAF7DAF8EAF9FAFE597AD963C
:1028C0002CAD3DAD4EAD5FADAD97C501B4010E94DD
:1028D000428E9B01AC01E5966CAD7DAD8EAD9FAD9A
:1028E000E5970E9409922D966CAF7DAF8EAF9FAF9A
:1028F0002D97E1962CAD3DAD4EAD5FADE197C50195
:10290000B4010E94428E4B015C01A9962CAD3DADF5
:102910004EAD5FADA997C701B6010E94428E9B01E3
:10292000AC01C501B4010E94099261966CAF7DAF04
:102930008EAF9FAF6197AD962CAD3DAD4EAD5FAD07
:10294000AD97C701B6010E94428E6B017C01E196F2
:102950002CAD3DAD4EAD5FADE197C301B2010E941C
:10296000428E9B01AC01C701B6010E940992659697
:102970006CAF7DAF8EAF9FAF6597CE01875B9F4FEA
:102980000E945F2E2D964CAC5DAC6EAC7FAC2D974B
:1029900061968CAC9DACAEACBFAC61976596CCAC8F
:1029A000DDACEEACFFAC659720E030E0A901C701DB
:1029B000B6010E94DD8D87FF0CC077FA709477F81E
:1029C0007094B7FAB094B7F8B094F7FAF094F7F8B7
:1029D000F0942D964CAE5DAE6EAE7FAE2D976196A7
:1029E0008CAE9DAEAEAEBFAE61976596CCAEDDAEA1
:1029F000EEAEFFAE659721964CAE5DAE6EAE7FAE8D
:102A0000219725968CAE9DAEAEAEBFAE259729968A
:102A1000CCAEDDAEEEAEFFAE2997CE01CD960E94D4
:102A20005F2E80E090E0A0E8BFE389AB9AABABAB50
:102A3000BCAB1DAA1EAA1FAA18AEC301B2019058B2
:102A4000A70196010E94E69269AF7AAF8BAF9CAF67
:102A5000CE01C1960E945F2E21960CAD1DAD2EAD0C
:102A60003FAD2197A9960CAF1DAF2EAF3FAFA997F1
:102A700025964CAC5DAC6EAC7FAC259729968CACA2
:102A80009DACAEACBFAC299729A93AA94BA95CA9CA
:102A9000AD962CAF3DAF4EAF5FAFAD978DA99EA960
:102AA000AFA9B8ADE1968CAF9DAFAEAFBFAFE19728
:102AB000C9ACDAACEBACFCACA7019601C301B20126
:102AC0000E94428EE5966CAF7DAF8EAF9FAFE597CB
:102AD000E1962CAD3DAD4EAD5FADE197C501B401C2
:102AE0000E94428E9B01AC01E5966CAD7DAD8EAD32
:102AF0009FADE5970E9409926DA37EA38FA398A72F
:102B0000AD962CAD3DAD4EAD5FADAD97C501B401F9
:102B10000E94428E4B015C01A7019601A9966CAD03
:102B20007DAD8EAD9FADA9970E94428E9B01AC01F9
:102B3000C501B4010E94099269A77AA78BA79CA737
:102B4000E1962CAD3DAD4EAD5FADE197A9966CAD74
:102B50007DAD8EAD9FADA9970E94428E6B017C0129
:102B6000AD962CAD3DAD4EAD5FADAD97C301B2019D
:102B70000E94428E9B01AC01C701B6010E940992DE
:102B80006DA77EA78FA798ABCE0185960E945F2E7A
:102B900089A89AA8ABA8BCA8CDA8DEA8EFA8F8ACD5
:102BA00009AD1AAD2BAD3CAD8DA19EA1AFA1B8A5CD
:102BB000A9968CAF9DAFAEAFBFAFA99789A59AA5D7
:102BC000ABA5BCA5AD968CAF9DAFAEAFBFAFAD977B
:102BD0008DA59EA5AFA5B8A9E1968CAF9DAFAEAF70
:102BE000BFAFE19721964CAC5DAC6EAC7FAC21974A
:102BF00025964CAD5DAD6EAD7FAD259729968CAD1C
:102C00009DADAEADBFAD29978092A20C9092A30C62
:102C1000A092A40CB092A50CC092A60CD092A70CC6
:102C2000E092A80CF092A90C0093AA0C1093AB0CA4
:102C30002093AC0C3093AD0CA9960CAD1DAD2EAD10
:102C40003FADA9970093AE0C1093AF0C2093B00C3E
:102C50003093B10CAD960CAD1DAD2EAD3FADAD9723
:102C60000093B20C1093B30C2093B40C3093B50CBA
:102C7000E1960CAD1DAD2EAD3FADE1970093B60CC6
:102C80001093B70C2093B80C3093B90C4092BA0C47
:102C90005092BB0C6092BC0C7092BD0C4093BE0C69
:102CA0005093BF0C6093C00C7093C10C8093C20C06
:102CB0009093C30CA093C40CB093C50CD12C80E0AE
:102CC0000E948880882319F0D092F70391C0A196C2
:102CD0002CAD3DAD4EAD5FADA197CA01B9010E94CB
:102CE000B694811185C0232821F084EE91E00E94E2
:102CF000E35EA2961FADA297111177C08CE0EFE6BC
:102D0000FCE0DE01959601900D928A95E1F781E055
:102D10008093F703CE0185960E94F42E6D962CAD1C
:102D20003DAD4EAD5FAD6D9760916F0C7091700CC5
:102D30008091710C9091720C0E9409926B017C0140
:102D40002DEB37E346E855EB0E94309487FD42C0F7
:102D50002DEB37E346E855E3C701B6010E94DD8D50
:102D60001816C4F169962CAD3DAD4EAD5FAD6997B7
:102D70006091730C7091740C8091750C9091760C2D
:102D80000E9409926B017C012DEB37E346E855EB7D
:102D90000E94309487FD1EC02DEB37E346E855E3D3
:102DA000C701B6010E94DD8D1816A4F0A1962CADC6
:102DB0003DAD4EAD5FADA1976091770C7091780CF1
:102DC0008091790C90917A0C0E9409926DA77EA750
:102DD0008FA798AB8CE0FE01B596AFE6BCE0019002
:102DE0000D928A95E1F781E001C08D2D8093F70364
:102DF0000E94583C0E942B5E8091F70381110E9433
:102E00008559249A2C980C94A22720E030E0A9013F
:102E100060916F0C7091700C8091710C9091720C9C
:102E20000E940A92182F88E5CB56DF4F6883C55958
:102E3000D040CA56DF4F7883C659D040C956DF4FBD
:102E40009883C759D0400E94983ACB56DF4F68818B
:102E5000C559D040CA56DF4F7881C659D040C956AF
:102E6000DF4F9881C759D040882321F00E942B3929
:102E70009B0102C09B01812FA901BC014DA35EA350
:102E80006FA378A720E030E0A9016091730C7091E6
:102E9000740C8091750C9091760C0E940A925B01E3
:102EA0008C0189E50E94983A882321F00E942B39F1
:102EB0005B018C01A501B80149835A836B837C8334
:102EC0004090FC035090FD036090FE037090FF0360
:102ED0002091F8033091F9034091FA035091FB03DC
:102EE0006DA17EA18FA198A50E9409926B017C0122
:102EF0002FE632E143E85AEB0E94309487FF02C08C
:102F00000C94A22722E430E04FE253E4C701B6015B
:102F10000E94DD8D181614F40C94A227A3019201CF
:102F2000B501C8010E9409926B017C0129E134E0DE
:102F300040E251EC0E94309487FF02C00C94A2271B
:102F400022E430E04FE353E4C701B6010E94DD8D77
:102F5000181614F40C94A2270C94AF2781E08093E8
:102F60001E040C94A22785E40E94983AC82E811171
:102F700002C00E94285073EFE72E72E0F72E0FE692
:102F80001CE0B12CD12CD7018D917D010E94983A83
:102F9000882361F00E942B39F8016083718382835A
:102FA0009383F3E0DF1611F0BB24B394D3940C5F4A
:102FB0001F4F24E0D212E7CFBB2019F00E948559A1
:102FC00037C0CC20A9F1C0907B0CD0907C0CE09055
:102FD0007D0CF0907E0C2091810330918203409112
:102FE000830350918403C701B6010E94428E0E9460
:102FF0003B946093E60C7093E70C8093E80C9093FD
:10300000E90CC701B6010E944E932FB7F894609364
:10301000F10B7093F20B8093F30B9093F40B2FBF93
:103020001092D60C1092D70C1092D80C1092D90C8A
:103030000E942B5E0C94A22780911F049091200483
:103040008B39910509F430C30CF094C08C3591058F
:1030500009F4CEC30CF04AC08B34910509F417C2B1
:10306000BCF48131910509F4B9C12CF4029708F43C
:1030700030C10C94A2278F31910509F4B5C18A3271
:10308000910509F4B5C1429711F00C94A22791C3A0
:103090008235910509F484C3ECF48D34910509F46B
:1030A0000FC20CF4F8C18135910511F00C94A227E0
:1030B0000E9432400E9428500E94504010926003AB
:1030C00010925F0368EE73E080E090E00E9460433E
:1030D0000C94A2278435910509F46BC30CF464C3E6
:1030E0008535910509F469C30C94A2278F369105A3
:1030F00009F401C2DCF48A36910509F420C354F4C2
:103100008836910509F4E0C18936910509F4B2C207
:103110000C94A2278D36910509F4EFC20CF0D8C1AA
:103120008B36910509F42AC30C94A22787379105A1
:1031300009F4ADC49CF48337910509F4DFC38637E5
:10314000910509F46DC48237910511F00C94A22702
:103150000E9428500E942B5E0C94A227893791056B
:1031600009F4A4C40CF49BC48C38910509F464C21E
:103170000C94A227803331E0930709F49DC70CF02B
:1031800049C08E3C910509F4F4C50CF5893C9105C4
:1031900009F4DCC454F48E3B910509F4CCC2883C9C
:1031A000910509F489C40C94A2278C3C910509F47B
:1031B00007C50CF071C58B3C910511F00C94A2274A
:1031C00003EF12E08DE9E82E83E0F82EEAC4823E98
:1031D000910509F4D0C684F48C3D910509F4A3C689
:1031E0008D3D910509F4AEC6833D910511F00C9417
:1031F000A227EBE0FCE100C68E3251E0950709F40E
:10320000D8C714F00C942F218D32914009F4B6C622
:103210000C94A2278C3AE1E09E0711F40C948125CE
:1032200054F5803901E0900711F40C9421259CF4A9
:103230008F3521E0920711F40C94E926833631E0B2
:10324000930711F40C942B278E35914011F00C94B8
:10325000A2270C94B526823951E0950711F40C94FD
:10326000282514F40C942425843A914011F40C94EC
:103270002C250C94A227873FE1E09E0711F40C94C3
:103280003A2694F4853F01E0900711F40C9434261B
:1032900014F00C943726843F914011F00C94A2272F
:1032A0000E94C2460C94A2278B3833E0930711F496
:1032B0000C947C26873E43E0940711F40C94442739
:1032C0008335934011F00C94A227EBE0FCE10C94C1
:1032D0004826009185031091860380E50E94983A64
:1032E000882369F00E94EB386B017C01BB24B39406
:1032F000611571058105910531F4B12C04C0B12C23
:10330000C12CD12C760183E50E94983A882311F4D0
:103310000C9405280E942B3920E030E04AE754E461
:103320000E94428E0E9453936B017C01B11024C015
:103330006115710581059105F9F401151105E1F09B
:10334000D8018C918823C1F0EBE0FCE184915F010E
:10335000BFEFAB1ABB0A882321F00E940937F501A1
:10336000F5CFF80181918F01882319F00E94093768
:10337000F8CF8AE00E94093781E0809391060E948D
:1033800028500E944E3CC114D104E104F104F9F02C
:103390008090520390905303A0905403B090550333
:1033A0008C0C9D1CAE1CBF1C0E94B03B6819790997
:1033B0008A099B0997FD04C0109291060C94A227DC
:1033C000809191068823C1F30E94AF60EDCF809178
:1033D0009106882389F30E94AF60F9CF1798169859
:1033E000159814980C94A2270E94E9430C94A227E4
:1033F00083E50E94983A882311F40C94A2270E9436
:103400000B39E82E80E50E94983A81110AC0EE201F
:1034100021F024982C9A0C94A227249A2C980C948E
:10342000A22780E50E94983A882341F00E94FB3849
:1034300077FF02C00C94A2278B0102C00DE010E0C0
:10344000802FEDE6F2E09491891739F0319622E071
:10345000E539F207C1F70C940A28ECEEFAE1849101
:103460008F010F5F1F4F882321F00E940937F80159
:10347000F6CFE5E9F2E084918F010F5F1F4F8823BB
:1034800011F40C94A2270E940937F801F4CF0E948E
:10349000143D0C94A2278091EC0C813011F00C9417
:1034A000A22782E08093EC0C0E94B03B6093F50C65
:1034B0007093F60C8093F70C9093F80C0C94A22761
:1034C0000E9421600C94A2270E94B4430C94A2276E
:1034D0008EE40E94983A882311F40C94A2270E944B
:1034E000FB3860935603709357038093580390936F
:1034F00059030C94A22783E50E94983A882321F06F
:103500000E940B39C82E01C0C12CC0922204EBE0EE
:10351000FCE184918F010F5F1F4F882321F00E94EF
:103520000937F801F6CFE2EBF2E084918F010F5FEB
:103530001F4F882321F00E940937F801F6CFCC20D5
:10354000A1F164EAE62E62E0F62E00E010E020E051
:10355000D12CC601002E02C0959587950A94E2F7FA
:1035600080FF17C099249394920E222319F08CE2C5
:103570000E940937F70125913491F901849159018D
:10358000FFEFAF1ABF0A882329F00E94093795017F
:10359000F4CF922E0F5F1F4F22E0E20EF11C053098
:1035A000110509F444C0292DD4CFEEEAF2E084914C
:1035B0008F010F5F1F4F8823D1F10E940937F80157
:1035C000F6CF8AE50E946A3A882311F40C946E269D
:1035D0000E942B396B017C0120E030E040E050EC90
:1035E0000E94309487FF02C00C94602620E030E0F7
:1035F00040EA50E4C701B6010E94DD8D181614F4AC
:103600000C946026C0920704D0920804E09209044A
:10361000F0920A04C0922902D0922A02E0922B0270
:10362000F0922C0242E0C701B6010E949B5D8AE045
:103630000E9409370C94A2278091220483FF02C0C4
:103640000C94A22783E50E94983A882311F40C94E5
:10365000A2270E942B390E944E936739710514F0FE
:1036600066E970E07093210C6093200C0E94BC3BD3
:103670000C94A22789E690E00E945D5D81110C9474
:103680001F2BE9EBF2E084918F010F5F1F4F88231E
:1036900021F00E940937F801F6CF0E94903C8AE0A1
:1036A0000E9409370C941F2B83E50E94983A8823C7
:1036B00011F40C94A2270E940B3980935E038D3382
:1036C00018F08CE380935E030E94B03B6B017C0199
:1036D00020915E0330E0A8EEB3E00E94FA91C60E9E
:1036E000D71EE81EF91EC0925A03D0925B03E092E7
:1036F0005C03F0925D030C94A2278DE690E00E949B
:103700005D5D81110C94A2278091220483FF02C089
:103710000C94A22783E50E94983AA6968FAFA697AD
:1037200081110C941F2882E50E94983A81110C9413
:103730001F280C94A2270E945B6E0C94A22783E59D
:103740000E94983A882339F00E94FB388B016F3F22
:10375000710519F010F00FEF10E080E50E94983A23
:10376000811106C01093600300935F030C94A2279D
:103770000E940B3981110C94A227F4CF80E50E949E
:10378000983A811106C01092600310925F030C9466
:10379000A2270E94FB38672B11F00C94A227F3CFCD
:1037A00010921D040C94A22781E080931D040C94B8
:1037B000A2270E942B510C94A22783E50E946A3A0B
:1037C000882311F40C94A2270E942B3920E030E0CA
:1037D0004AE754E40E94428E0E945393609361032F
:1037E0007093620380936303909364030C94A22705
:1037F00033EFA32E32E0B32E05E713E0912CD50171
:103800008D915D010E946A3A882309F46DC0B3E08E
:103810009B1263C00E942B396B017C0120E030E0D9
:1038200040EA51E40E94DD8D87FF4EC0A70196015A
:10383000609181037091820380918303909184034E
:103840000E94E6922B013C019B01AC016091C503F3
:103850007091C6038091C7039091C8030E94428E65
:103860006093C5037093C6038093C7039093C80306
:10387000A30192016091A9037091AA038091AB0307
:103880009091AC030E94428E6093A9037093AA03A7
:103890008093AB039093AC036091710370917203BA
:1038A00080917303909174030E94E18DA3019201B2
:1038B0000E94428E0E94539360937103709372032F
:1038C0008093730390937403C0928103D092820318
:1038D000E0928303F092840307C00E942B39F80121
:1038E000608371838283938393940C5F1F4FF4E012
:1038F0009F1285CF0E9497520C94A227EBE9F3E028
:1039000084918F010F5F1F4F882321F00E94093798
:10391000F801F6CFEDE8F3E084918F010F5F1F4FC0
:10392000882321F00E940937F801F6CFE6E7F3E09B
:1039300084918F010F5F1F4F882321F00E94093768
:10394000F801F6CFE6E6F3E084918F010F5F1F4F99
:10395000882321F00E940937F801F6CFE5E5F3E06E
:1039600084918F010F5F1F4F882321F00E94093738
:10397000F801F6CFE4E4F3E084918F010F5F1F4F6D
:10398000882321F00E940937F801F6CFE5E3F3E040
:1039900084918F010F5F1F4F882321F00E94093708
:1039A000F801F6CFE0E2F3E084918F010F5F1F4F43
:1039B000882321F00E940937F801F6CFEAE0F3E00E
:1039C00084918F010F5F1F4F882321F00E940937D8
:1039D000F801F6CFE5EFF2E084918F010F5F1F4F02
:1039E000882321F00E940937F801F6CFE8EDF2E0D4
:1039F00084918F010F5F1F4F882321F00E940937A8
:103A0000F801F6CFE0ECF2E084918F010F5F1F4FD9
:103A1000882311F40C94A2270E940937F801F4CFEF
:103A200085E40E946A3A882381F00E941C39882329
:103A300061F0EBE0FCE184918F010F5F1F4F882361
:103A400021F00E940937F801F6CF81E40E946A3A1A
:103A5000882381F00E941C39882361F0E2E9F4E0B8
:103A600084918F010F5F1F4F882321F00E94093737
:103A7000F801F6CF0091850310918603D8018D914E
:103A80008D01882309F4D3CD0E940937F7CF2498FC
:103A90002C9A0E940338249A2C980C94A22781E037
:103AA00080935E0C809387030C94A22710925E0C87
:103AB000109287030C94A22788EC90E00E945D5D31
:103AC00081110C94A22784E40E946A3A8823D1F1E0
:103AD0000E942B3911E020E030E0A9010E94DD8D29
:103AE000811101C010E010938C03112359F1009152
:103AF000F60310E00E942B39F801EE0FFF1FEE0FC6
:103B0000FF1FE857FC4F608371838283938320E01B
:103B100030E0A901609188037091890380918A0344
:103B200090918B030E94DD8D81110CC080E090E0AC
:103B3000A0E4B0E48093880390938903A0938A0360
:103B4000B0938B030E945C390C94A22703EF12E020
:103B50009DE8E92E93E0F92EF80181918F010E94F2
:103B60006A3A882351F00E942B390E945393D7015F
:103B70006D937D938D939C931397B4E0EB0EF11CA2
:103B8000E2E0073F1E0741F70E949F360C94A227F0
:103B9000F4E0EF0EF11C22E0073F120711F40C9441
:103BA000A227D8018D918D010E946A3A882381F362
:103BB0000E942B39F7016083718382839383E8CF5E
:103BC00083E50E946A3A8823D9F00E942B39AB0121
:103BD000BC014093B5035093B6036093B703709351
:103BE000B8034093B1035093B2036093B30370934F
:103BF000B40380EF94E00E94225F8AE00E940937BC
:103C000080E50E946A3A882399F00E942B39AB0123
:103C1000BC014093B5035093B6036093B703709310
:103C2000B80383ED94E00E94225F8AE00E94093786
:103C300082E50E946A3A882399F00E942B39AB01F1
:103C4000BC014093AD035093AE036093AF037093F8
:103C5000B00384EB94E00E94225F8AE00E9409375F
:103C600084E50E946A3A882311F40C94A2270E94EA
:103C70002B39AB01BC014093B1035093B203609365
:103C8000B3037093B40386E994E00E94225F8AE054
:103C90000E9409370C94A22783E50E946A3A882380
:103CA00051F00E942B396093D1037093D20380931B
:103CB000D3039093D40384E50E946A3A882351F099
:103CC0000E942B396093CD037093CE038093CF0372
:103CD0009093D00382E40E946A3A882351F00E94B4
:103CE000EB386093C9037093CA038093CB0390931E
:103CF000CC0388E50E946A3A882351F00E942B3950
:103D00006093B9037093BA038093BB039093BC0391
:103D100089E50E946A3A882351F00E942B3960930A
:103D2000BD037093BE038093BF039093C0038AE5E5
:103D30000E946A3A882351F00E942B396093C10394
:103D40007093C2038093C3039093C40385E40E94DD
:103D50006A3A882311F40C94A2270E942B396093AD
:103D6000C5037093C6038093C7039093C8030C9454
:103D7000A22713EF812E12E0912E0FE6A02E0CE069
:103D8000B02E03E61CE0712CD4018D914D010E94F0
:103D90006A3A882311F10E942B396B017C01F801EA
:103DA00020813181428153810E9409929B01AC01A3
:103DB000D5016D917D918D919C910E940A92F501A2
:103DC0006083718382839383D801CD92DD92ED92DB
:103DD000FC921397872D0E94003A7394B4E0AB0EC7
:103DE000B11C0C5F1F4FE3E07E12CECF0E948559BD
:103DF0000E942B5E0C94A22784918F010F5F1F4FAE
:103E0000882321F00E940937F801F6CF83E50E944C
:103E10006A3A882321F00E941C3980930A02E0E468
:103E2000F5E084918F010F5F1F4F882321F00E94DE
:103E30000937F801F6CF80910A02882319F0E8E3E8
:103E4000F5E002C0ECE3F5E084918F010F5F1F4FB6
:103E5000882321F00E940937F801F6CFE0E3F5E06E
:103E600084918F010F5F1F4F882321F00E94093733
:103E7000F801F6CF40911D0250911E0260911F0281
:103E8000709120028EE295E00E94225F4091210213
:103E90005091220260912302709124028BE295E0FE
:103EA0000E94225F409125025091260260912702D4
:103EB0007091280288E295E00E94225FE0E2F5E03E
:103EC00084918F010F5F1F4F882321F00E940937D3
:103ED000F801F6CF40911102509112026091130245
:103EE000709114028EE195E00E94225F40911502CC
:103EF0005091160260911702709118028BE195E0C3
:103F00000E94225F4091190250911A0260911B0297
:103F100070911C0288E195E00E94225F8AE00E9475
:103F200009370C94A22783E50E94983A882311F45C
:103F30000C94A2270E94FB3870930C0260930B0232
:103F40000C94A2278DED90E00E945D5D8111FAC76F
:103F500083E50E94983A882309F4F4C70091F60398
:103F600010E00E94FB38F801EE0FFF1FE35FFD4FEA
:103F700071836083E7C70E947B51E4C785E40E9498
:103F8000983A811110C080E50E946A3A882391F026
:103F90000E942B396093DE037093DF038093E0036C
:103FA0009093E10307C00E940B39882361F3ECEE84
:103FB000FAE171C089E40E946A3A882381F00E9484
:103FC0002B392CEA35EC47E25EE30E94428E609387
:103FD000DA037093DB038093DC039093DD0384E4C6
:103FE0000E946A3A882381F00E942B392CEA35EC32
:103FF00047E25EE30E94E6926093D6037093D70394
:104000008093D8039093D903EBE0FCE184918F0176
:104010000F5F1F4F882321F00E940937F801F6CF68
:104020004091DE035091DF036091E0037091E10362
:1040300088E595E00E94225F2CEA35EC47E25EE3DA
:104040006091DA037091DB038091DC039091DD03D2
:104050000E94E692AB01BC0184E595E00E940F5EF0
:104060002CEA35EC47E25EE36091D6037091D7030A
:104070008091D8039091D9030E94428EAB01BC017C
:1040800080E595E00E940F5E8AE00E9409375AC7DA
:104090000E940937F80184918F010F5F1F4F811132
:1040A000F7CF06EA12E0D8018D918D01882309F43B
:1040B000BECA0E940937F7CF80E50E946A3A88237A
:1040C00051F00E942B396093EA037093EB038093C5
:1040D000EC039093ED0389E40E946A3A882381F00F
:1040E0000E942B392CEA35EC47E25EE30E94428EB7
:1040F0006093E6037093E7038093E8039093E903EA
:1041000084E40E946A3A882381F00E942B392CEAC9
:1041100035EC47E25EE30E94E6926093E20370931F
:10412000E3038093E4039093E503EBE0FCE18491E7
:104130008F010F5F1F4F882321F00E940937F8017C
:10414000F6CF4091EA035091EB036091EC0370913C
:10415000ED0384E695E00E94225F2CEA35EC47E20D
:104160005EE36091E6037091E7038091E80390912C
:10417000E9030E94E692AB01BC0180E695E00E9453
:104180000F5E2CEA35EC47E25EE36091E20370914A
:10419000E3038091E4039091E5030E94428EAB011A
:1041A000BC018CE595E00E940F5E8AE00E94093711
:1041B000C9C683E50E946A3A182F882371F00E94CD
:1041C0002B390E944E937093100260930F0221E0EE
:1041D000672B09F020E02093D50380E50E946A3A1E
:1041E000882369F080910F0290911002892B19F0B9
:1041F0000E941C3901C081E08093D503A3C6111130
:10420000A1C6EBE0FCE184918F010F5F1F4F882373
:1042100021F00E940937F801F6CF8091D503882359
:1042200019F069EF72E002C066E972E08DE795E08F
:104230000E94DD3760910F02709110028CE695E0CC
:104240000E94445DE8E6F5E084918F010F5F1F4F07
:10425000882309F477C60E940937F801F5CF85E471
:104260000E94983A882321F00E94FB381B0102C06B
:10427000212C312C83E40E94983A882349F00E9433
:10428000FB38C257DF4F79836883CE58D04008C0CF
:1042900005E010E0C257DF4F19830883CE58D040A5
:1042A00085E50E946A3A882341F00E941C39C05774
:1042B000DF4F8883C059D04005C0C057DF4F1882F8
:1042C000C059D040E12CF12C37FE03C00CE812E4B9
:1042D00002C006E113E483E50E94983A882321F0A6
:1042E0000E942B397B018C012114310411F41092AE
:1042F000F6030E94B03B2B013C01C10101960297DD
:1043000028F4A7EBCA2EA2E0DA2E0BC00AEC12E0CA
:10431000D8018D918D01882309F489C90E9409373C
:10432000F7CFF60181916F01882319F00E940937B8
:10433000F8CF8AE00E9409370E9432408FE7FFEFF2
:104340002F163F0619F48093380C02C080933A0C64
:10435000B701C8010E944E93882777FD8095982F5A
:104360000E94E38DEA966FAFEA97EB967FAFEB97EB
:10437000EC968FAFEC97ED969FAFED9781E0809331
:104380004602CA57DF4F488259826A827B82C658EA
:10439000D040CF56DF4F488259826A827B82C15912
:1043A000D040EE961FAEEE9700E4EF960FAFEF977A
:1043B0001CE1C158DF4F1883CF57D04006E4C058E6
:1043C000DF4F0883C058D040CF57DF4F1882C15805
:1043D000D040CE57DF4F1882C258D040CD57DF4F64
:1043E0001882C358D040CC57DF4F1882C458D040F1
:1043F000E9961CAE1DAE1EAE1FAEE997E5961CAE4B
:104400001DAE1EAE1FAEE597C12CD12C7601FFE785
:104410008F2E912CA12CB12C2FE730E040E050E002
:10442000AD962CAF3DAF4EAF5FAFAD97C657DF4FE8
:10443000188219821A821B82CA58D04001E0CB57D9
:10444000DF4F0883C558D040AF961FAE1EAEAF9762
:1044500010E06E961FAE6E97A2961FAEA29700E078
:1044600080914602882309F4E5C20E94B03BA996D8
:104470006CAF7DAF8EAF9FAFA9978091280C88233A
:1044800009F48EC10E9489401FEF2116310679F48C
:104490001091F2030091F3036E960FAF6E970091A7
:1044A000F403A2960FAFA2970091F5030EC01091EE
:1044B000EE030091EF036E960FAF6E970091F0033D
:1044C000A2960FAFA2970091F103212F6E963FADF8
:1044D0006E97A2964FADA297502FCF57DF4F6881AE
:1044E000C158D040CE57DF4F7881C258D040CD5709
:1044F000DF4F8881C358D040CC57DF4F9881C458D4
:10450000D0400E94DD8D87FF1AC0CF57DF4F188340
:10451000C158D0406E962FAD6E97CE57DF4F28838F
:10452000C258D040A2963FADA297CD57DF4F3883F7
:10453000C358D040CC57DF4F0883C458D040212FF8
:104540006E963FAD6E97A2964FADA297502FEE9606
:104550006FADEE97EF967FADEF97C158DF4F888133
:10456000CF57D040C058DF4F9881C058D0400E94EC
:1045700030941816B4F4EE961FAFEE976E964FADCA
:104580006E97EF964FAFEF97A2965FADA297C15887
:10459000DF4F5883CF57D040C058DF4F0883C058F3
:1045A000D040CB57DF4F8881C558D040882309F4CD
:1045B00078C0EA962FADEA97EB963FADEB97EC9675
:1045C0004FADEC97ED965FADED97612F6E967FAD99
:1045D0006E97A2968FADA297902F0E9430941816D6
:1045E0000CF0DEC0A9968CAD9DADAEADBFADA99768
:1045F00084199509A609B709AC01BD014858534172
:104600006109710977FDCCC0AD964CAD5DAD6EAD65
:104610007FADAD97481959096A097B09759567956A
:1046200057954795EFEF2E163E0619F44093380C38
:1046300002C040933A0CC657DF4F88839983AA8300
:10464000BB83CA58D040EA96FFADEA97CF57DF4FF9
:10465000F883C158D040EB962FADEB97CE57DF4F84
:104660002883C258D040EC963FADEC97CD57DF4F32
:104670003883C358D040ED964FADED97CC57DF4F00
:104680004883C458D040A9968CAD9DADAEADBFADAA
:10469000A997CA57DF4F88839983AA83BB83C658DB
:1046A000D040EA962FADEA97EB963FADEB97EC96AC
:1046B0004FADEC97ED965FADED97612F6E967FADA8
:1046C0006E97A2968FADA297902F0E94DD8D87FFE7
:1046D000B0C7A9968CAD9DADAEADBFADA997CA5779
:1046E000DF4F288139814A815B81C658D040821BC7
:1046F000930BA40BB50BAC01BD01485853416109A4
:10470000710977FD96C7AF964EAD5FADAF97452B5C
:1047100009F0EEC5AD968CAD9DADAEADBFADAD971C
:10472000880D991DAA1DBB1DB595A79597958795D1
:104730004FEF2416340609F079C78093380CAF96F2
:104740008EAD9FADAF970196AF969FAF8EAFAF97EF
:10475000EA969FADEA97EE969FAFEE97EB96AFADD8
:10476000EB97EF96AFAFEF97EC96BFADEC97C158D4
:10477000DF4FB883CF57D040ED96EFADED97C058DF
:10478000DF4FE883C058D040A9964CAC5DAC6EAC0E
:104790007FACA997F1E0CB57DF4FF883C558D040E5
:1047A00020E030E040EA51E4EA966FADEA97EB96FC
:1047B0007FADEB97EC968FADEC97ED969FADED97B7
:1047C0000E940A929B01AC01612F6E967FAD6E979D
:1047D000A2968FADA297902F0E94309418166CF479
:1047E000EDE4F6E084918F010F5F1F4F882309F4F9
:1047F000A9C30E940937F801F5CF80E398EFAFEF26
:10480000BFEFCF56DF4F288139814A815B81C15983
:10481000D040821B930BA40BB50BA9962CAD3DADDC
:104820004EAD5FADA997820F931FA41FB51FB7FDB3
:1048300013C00E94903C8AE00E940937A9968CAD73
:104840009DADAEADBFADA997CF56DF4F888399839D
:10485000AA83BB83C159D040A9968CAD9DADAEADA6
:10486000BFADA997880F991FAA1FBB1F841995096F
:10487000A609B709CA57DF4F288139814A815B8170
:10488000C658D040821B930BA40BB50B81389F44B4
:10489000A241B10568F0EFE2F6E084918F010F5F6D
:1048A0001F4F882309F44EC30E940937F801F5CF42
:1048B000AF964EAD5FADAF97C257DF4F88819981FC
:1048C000CE58D040841795070CF0CACDE2EDF5E044
:1048D00084918F010F5F1F4F882321F00E940937B9
:1048E000F801F6CF9FEF2916390619F40AE912E00C
:1048F00002C00DE113E0B80180EC95E00E94DD37C5
:10490000B701A6018CEB95E00E94225F8AE00E942D
:104910000937B8018AEA95E00E94DD37E5964CAD8B
:104920005DAD6EAD7FADE59786EA95E00E94225FB2
:104930008AE00E940937B80184E995E00E94DD37DA
:10494000E9964CAD5DAD6EAD7FADE99780E995E040
:104950000E94225F8AE00E940937C057DF4F08811A
:10496000C059D040002309F4EDC22320209489F5DA
:10497000C092EA03D092EB03E092EC03F092ED03D5
:104980002CEA35EC47E25EE3E5966CAD7DAD8EAD8D
:104990009FADE5970E94428E6093E6037093E70314
:1049A0008093E8039093E9032CEA35EC47E25EE359
:1049B000E9966CAD7DAD8EAD9FADE9970E94E69214
:1049C0006093E2037093E3038093E4039093E50321
:1049D000B9C2C092DE03D092DF03E092E003F0920E
:1049E000E1032CEA35EC47E25EE3E5966CAD7DAD84
:1049F0008EAD9FADE5970E94428E6093DA0370936F
:104A0000DB038093DC039093DD032CEA35EC47E273
:104A10005EE3E9966CAD7DAD8EAD9FADE9970E94EA
:104A2000E6926093D6037093D7038093D803909354
:104A3000D90388C280914602811184C20E9432400B
:104A400081C20E9428507EC281E00E9488807AC282
:104A500080E00E94888076C286E50E946A3A8823B8
:104A600021F08EEE96E00E94E35E83E50E946A3AB2
:104A7000882321F00E941C39182F01C010E083E523
:104A80000E946A3A882319F0812F0E94C83DF09055
:104A9000F703111103C0EBE0FCE11AC0F110FBCFEA
:104AA000ECEEFAE184918F010F5F1F4F882321F014
:104AB0000E940937F801F6CFEFECF6E084918F0100
:104AC0000F5F1F4F882339F30E940937F801F6CF93
:104AD00084918F010F5F1F4F882321F00E940937B7
:104AE000F801F6CFFF2019F06EE972E002C062EA29
:104AF00072E081EC96E00E94DD378AE00E9409377F
:104B000021C283E6882E8CE0982E9FE6A92E9CE099
:104B1000B92E24E0222E24E0322E00E010E0222DD7
:104B200020956E962FAF6E97D1018D911D01882330
:104B300009F48DC0F5014080518062807380F801D6
:104B4000EF5EFD4F2081318142815381F801E35EA8
:104B5000FD4F60817181828193810E940A9220E0E1
:104B600030E040E05FE30E94428E9B01AC01C30154
:104B7000B2010E943094181644F4F801E55FF84F32
:104B8000C590D590E590F49003C0C12CD12C76014E
:104B9000F801E850FC4F2081318142815381C301EB
:104BA000B2010E9409929B01AC01C701B6010E94AB
:104BB00009926B017C0120E030E040EA51EC0E9458
:104BC000309487FD2BC020E030E040EA51E4C7017B
:104BD000B6010E94DD8D18160CF1D4012D913D9186
:104BE0004D915C91C701B6010E9409929B01AC01F5
:104BF000C301B2010E940A92F5016083718382832E
:104C00009383D401CD92DD92ED92FC9213976E9630
:104C10008FAD6E97820D0E94003A19C0ECEEFAE15A
:104C200084918F010F5F1F4F882321F00E94093765
:104C3000F801F6CFE7E1F7E084918F010F5F1F4F96
:104C4000882309F47FC10E940937F801F5CFB4E049
:104C50008B0E911C0C5F1F4FE4E0AE0EB11C0C30AC
:104C6000110509F061CFC2C80E948A546BC10E942D
:104C7000295368C183E50E946A3A882319F00E948B
:104C80001C3901C081E091E089270E94634B5AC121
:104C900084918F010F5F1F4F882321F00E940937F5
:104CA000F801F6CFEDE4F7E084918F010F5F1F4F1D
:104CB000882311F40C94E11A0E940937F801F4CF0B
:104CC000E8E3F7E084918F010F5F1F4F882311F411
:104CD0000C94171B0E940937F801F4CF4091070488
:104CE000509108046091090470910A0485E397E0EB
:104CF0000E94225F0C94171B88E50E946A3A882361
:104D0000F1F00E94FB388B01222717FD2095322FEE
:104D100000930B0410930C0420930D0430930E04A5
:104D2000DB012FEF30E00E94FF9420ED37E040E000
:104D300050E00E94D491B9018EE20E945D5F8AE545
:104D40000E946A3A882329F00E94FB3881E00E9481
:104D5000763D85E40E946A3A882309F4F3C00E94F4
:104D6000FB3882E00E94763DEDC083E50E946A3AFE
:104D7000811104C003EF12E0F12C0FC010E00E947B
:104D80000B39682F812F0E9495351F5F1530B9F7B9
:104D9000F1CFF394B4E0FB1671F0D8018D918D0141
:104DA0000E946A3A8823A9F30E940B39682F8F2D3D
:104DB0000E949535EECF82E40E946A3A882331F052
:104DC0000E940B39682F84E00E9495350E94B75CE1
:104DD000B9C083E50E94983A8823D1F10E940B392B
:104DE000813031F08230A1F503EF12E0F12C21C0C7
:104DF00003EF12E0F12CF80181918F010E94983AA3
:104E0000882339F00E940B394FEF682F8F2D0E94B5
:104E10001635F394F4E0FF12EECF82E40E94983A44
:104E20008823B1F00E940B3913C0F394B4E0FB1651
:104E3000A1F3D8018D918D010E94983A8823A9F39E
:104E40000E940B39482F6FEF8F2D0E941635EDCF42
:104E50000E94B75C77C0ECEEFAE184918F010F5F9E
:104E60001F4F882321F00E940937F801F6CFE7E5AC
:104E7000F7E084918F010F5F1F4F882309F462C010
:104E80000E940937F801F5CF0E94B83E5BC0F09050
:104E90001F04FF2029F1EBE0FCE184918F010F5FFB
:104EA0001F4F882321F00E940937F801F6CF84E5CF
:104EB0000E9409376F2D70E080E090E04AE00E9488
:104EC000205C80E20E94093706EA12E0F801819135
:104ED0008F01882311F40C94171B0E940937F6CF19
:104EE00010921704EBE0FCE184918F010F5F1F4FDC
:104EF000882321F00E940937F801F6CF60E070E0C6
:104F000086E697E00E94445D8AE00E9409371AC055
:104F1000EBE0FCE184918F010F5F1F4F882321F0AC
:104F20000E940937F801F6CF6091180470911904B6
:104F300088E797E00E94DD3782E20E9409378AE025
:104F40000E9409370E942B3E7AC34115510519F47E
:104F5000AF014150510920E030E00C94570F80E040
:104F60000E94C83D0E94713C83E50E946A3A8823F2
:104F700009F449C00E941C3921E0482FBE016F5F2F
:104F80007F4FCE0185960E9416816B017C019B01AB
:104F9000AC010E94B694811131C02CEA35EC47E295
:104FA00057E36DA17EA18FA198A50E940A92AB0143
:104FB000BC0185E692E00E940F5E2CEA35EC47E2E8
:104FC00057E369817A818B819C810E940A92AB01AF
:104FD000BC0180E692E00E940F5E2CEA35EC47E2CD
:104FE00057E3C701B6010E940A92AB01BC018BE5F1
:104FF00092E00E940F5E8AE00E9409370E94583CAE
:105000000E942B5E9FCF81E0B7CFB1100C94BC19EA
:105010000C949D19802F0E943E5F6E2D802F0E9460
:105020007A3BF12CB701802F0E945D5F083011059B
:1050300009F088CFF0926003E0925F0383CF0E9473
:105040002B390E944E937093250C6093240C80E0C2
:105050000E94053C0E942B3920E030E040E752E4FA
:105060000E94DD8D18161CF00E94216002C00E9473
:10507000143D81E080934602A5961CAE1DAE1EAE87
:105080001FAEA597AD961CAE1DAE1EAE1FAEAD9762
:105090006E961FAE6E97AE961FAEAE970CE3E2967D
:1050A0000FAFE2971CE1E6961FAFE69706E4EA969B
:1050B0000FAFEA97C12CD12C40E8E42E5FEBF52E20
:1050C000812C912C54016091240C7091250C88271F
:1050D00077FD8095982F0E94E38D162F072F782E4D
:1050E000692E262F372F482F592FB601C7010E944E
:1050F000DD8D8823F1F02091EE033091EF03409194
:10510000F0035091F103612F702F872D962D0E948F
:10511000DD8D881F8827881F6E968FAF6E97A696A5
:105120002FADA697222349F0882339F080914602BB
:1051300009CF1C2D0D2D7E2C6F2C0E94B03B6B01D6
:105140007C01DC01CB01AD962CAD3DAD4EAD5FAD2C
:10515000AD97821B930BA40BB50BB7FD3BC0D701DA
:10516000C60188519C4FAF4FBF4FAD968CAF9DAFDE
:10517000AEAFBFAFAD970E94903CECEBF2E08491F4
:105180002F019FEF491A590A882321F00E940937FD
:10519000F201F5CF81149104A104B104A9F0C50175
:1051A000B40168517C4F8F4F9F4F6C197D098E0958
:1051B0009F0928EE33E040E050E00E94B291CA011E
:1051C000B9010E94915C03C08FE30E9409378AE015
:1051D0000E9409370E94AF600E944E3C2090EE036F
:1051E0003090EF034090F0035090F1039101A20141
:1051F000612F702F872D962D0E9409929F7720E0B6
:1052000030E040E251E481149104A104B10429F496
:105210000E94DD8D87FD05C006C00E9430941816DF
:1052200014F4460157016E96AFAD6E97AA2309F4A8
:1052300043C0A5962CAD3DAD4EAD5FADA5972115F4
:1052400031054105510541F0D701C601821B930B81
:10525000A40BB50BB7FD30C09101A201AE966FADA6
:10526000AE97E2967FADE297E6968FADE697EA9627
:105270009FADEA970E94099220E030E040EC5FE3A6
:105280000E94DD8D87FD52CFD701C601805A95411E
:10529000AF4FBF4FA5968CAF9DAFAEAFBFAFA59739
:1052A000AE962FAEAE97E2963FAEE297E6964FAE41
:1052B000E697EA965FAEEA9780914602882309F462
:1052C00035CF81149104A104B10429F4C12ED02E4C
:1052D000E72CF62CF8CE98EEC91A93E0D90AE1082B
:1052E000F108C818D908EA08FB08F7FE1FCFEECF6F
:1052F000C657DF4F488059806A807B80CA58D040AB
:10530000480E591E6A1E7B1EC657DF4F2881398101
:105310004A815B81CA58D040281B390B4A0B5B0B72
:10532000CA01B901A50194010E94A391A3019201B0
:105330000E94D49149015A01AD968CAD9DADAEADA0
:10534000BFADAD97880E991EAA1EBB1E94E18916AB
:105350009104A104B1041CF1ACEE8A169104A104DD
:10536000B1043CF4B0E88B169104A104B1043CF103
:1053700005C06BEE862E912CA12CB12CAD968CAE77
:105380009DAEAEAEBFAEAD972EEF30E040E050E048
:10539000281939094A095B0949015A0116C084E1F3
:1053A00090E0A0E0B0E0AD968CAF9DAFAEAFBFAFE8
:1053B000AD9754E1852E912CA12CB12C06C0AD9651
:1053C0008CAE9DAEAEAEBFAEAD9729EB36E0F90127
:1053D00084918823C9F02F5F3F4FCB56DF4F28833E
:1053E000C559D040CA56DF4F3883C659D0400E94B5
:1053F0000937CB56DF4F2881C559D040CA56DF4FF9
:105400003881C659D040E3CFAD966CAD7DAD8EAD41
:105410009FADAD970E94915C24EB36E0F901849139
:105420008823C9F02F5F3F4FCB56DF4F2883C559E4
:10543000D040CA56DF4F3883C659D0400E94093742
:10544000CB56DF4F2881C559D040CA56DF4F38812F
:10545000C659D040E3CFC501B4010E94915CEE96DD
:105460004FADEE97EF965FADEF97C158DF4F688174
:10547000CF57D040C058DF4F7881C058D0408DEA18
:1054800096E00E94225FCF57DF4F4881C158D0403D
:10549000CE57DF4F5881C258D040CD57DF4F68817B
:1054A000C358D040CC57DF4F7881C458D04086EAEB
:1054B00096E00E94225FAF962EAD3FADAF972330AE
:1054C00031050CF427C9C501B4010E94E38D20E029
:1054D00030E040E850E40E94428E6B017C01EE9681
:1054E0002FADEE97EF963FADEF97C158DF4F488154
:1054F000CF57D040C058DF4F5881C058D040CF5709
:10550000DF4F6881C158D040CE57DF4F7881C258F5
:10551000D040CD57DF4F8881C358D040CC57DF4FA4
:105520009881C458D0400E9409922BED3FE049E495
:1055300050E40E94428E20E030E040E05FE30E94B1
:10554000428E9B01AC01C701B6010E94E6926B013D
:105550007C01C301B2010E94E38D2FE632E143E8F2
:105560005AE30E94428E2B013C01B701A60180EA5A
:1055700096E00E94225FB301A2018AE996E00E94B0
:10558000225F2AE939E949E15FE3C701B6010E94D8
:10559000428E6B017C019B01AC010E940A92A30127
:1055A00092010E94E692E5966CAF7DAF8EAF9FAF01
:1055B000E597A3019201C701B6010E94428E20E047
:1055C00030E040E05EE30E94428EE9966CAF7DAF32
:1055D0008EAF9FAFE997EAE8F6E084913F013FEF95
:1055E000631A730A882321F00E940937F301F5CF6B
:1055F000B701A60184E896E00E94225FE5964CADD3
:105600005DAD6EAD7FADE5978EE796E00E94225FBF
:10561000E9964CAD5DAD6EAD7FADE99788E796E05C
:105620000E94225F8AE00E94093774C880933A0C76
:1056300086C8CB57DF4F1882C558D040B1C8C9566D
:10564000DF4F0FB6F894DEBF0FBECDBFDF91CF9115
:105650001F910F91FF90EF90DF90CF90BF90AF9090
:105660009F908F907F906F905F904F903F902F9082
:105670000895FB014081FC0120813181342768E0DD
:10568000A901440F551F37FD07C09A016150C1F7AA
:10569000FC013183208308959A01F1E22F27F0E184
:1056A0003F27F4CF4F925F926F927F928F929F929B
:1056B000AF92BF92CF92DF92EF92FF92CF93DF93A0
:1056C000CDB7DEB728970FB6F894DEBF0FBECDBFBB
:1056D0002496AEADBFAD24978D919D910D90BC9158
:1056E000A02D89839A83AB83BC832296EEADFFAD58
:1056F0002297C080D180E280F380AEADBFAD8D90A7
:105700009D90AD90BC902E8D3F8D48A159A1C501B3
:10571000B4010E94428E2B013C012AA53BA54CA559
:105720005DA5C701B6010E94428E9B01AC01C30179
:10573000B2010E940A922B013C012EA93FA948AD5B
:1057400059AD69817A818B819C810E94428E9B0137
:10575000AC01C301B2010E940A926D837E838F83E4
:1057600098872AA13BA14CA15DA1C501B4010E946B
:10577000428E2B013C012EA53FA548A959A9C7017E
:10578000B6010E94428E9B01AC01C301B2010E948E
:105790000A922B013C012AAD3BAD4CAD5DAD698158
:1057A0007A818B819C810E94428E9B01AC01C30156
:1057B000B2010E940A922B013C012A8D3B8D4C8D37
:1057C0005D8DC501B4010E94428E4B015C012EA18A
:1057D0003FA148A559A5C701B6010E94428E9B0171
:1057E000AC01C501B4010E940A926B017C012AA997
:1057F0003BA94CA95DA969817A818B819C810E941A
:10580000428E9B01AC01C701B6010E940A92EEAD27
:10581000FFAD60837183828393838D819E81AF818D
:10582000B8852296EEADFFAD229780839183A28347
:10583000B3832496AEADBFAD24974D925D926D9229
:105840007C92139728960FB6F894DEBF0FBECDBF9B
:10585000DF91CF91FF90EF90DF90CF90BF90AF900E
:105860009F908F907F906F905F904F90089524E06D
:105870008202C0011124FC01EB51F44F408151819F
:1058800062817381FC01ED56F34F40835183628343
:105890007383E091180CF091190C82899389A48983
:1058A000B5898093F50B9093F60BA093F70BB0930B
:1058B000F80B0895CF93DF932FB7F89494E0890203
:1058C000E0011124FE01EB51F44F6081718182816E
:1058D00093812FBF0E94E38DCD57D34F288139810B
:1058E0004A815B810E94428EDF91CF910895089595
:1058F00090E0FC013197E231F10508F04CC0EE5820
:10590000FF4F0C94F994809180008F7703C08091B1
:1059100080008F7D80938000089580918000877F34
:10592000F9CF84B58F7702C084B58F7D84BD08958B
:105930008091B0008F7703C08091B0008F7D8093FD
:10594000B0000895809190008F7707C080919000FB
:105950008F7D03C080919000877F80939000089591
:105960008091A0008F7707C08091A0008F7D03C039
:105970008091A000877F8093A000089580912001EE
:105980008F7707C0809120018F7D03C08091200117
:10599000877F8093200108953FB7F8948091F90C98
:1059A0009091FA0CA091FB0CB091FC0C26B5A89B31
:1059B00005C02F3F19F00196A11DB11D3FBF6627FD
:1059C000782F892F9A2F620F711D811D911DF2E092
:1059D000660F771F881F991FFA95D1F70895E82F52
:1059E000F0E0E055FF4E849190E0FC013797EC30F9
:1059F000F105F8F4EC57FF4F0C94F9948091B10045
:105A0000887F84608093B100089580919100887FA1
:105A100084608093910008958091A100887F8460C4
:105A20008093A100089580912101887F84608093F4
:105A300021010895AF92BF92CF92DF92EF92FF9231
:105A40000F931F93CF93DF931F92CDB7DEB78C01D7
:105A50006B017A0159018091690681111BC0F8011F
:105A6000808191810E9493908983F60181936F01D7
:105A7000BE016F5F7F4FC501FCDDF80140815181A0
:105A80004F5F5F4F51834083F1E0EF1AF108E1145B
:105A9000F10429F70F90DF91CF911F910F91FF90A3
:105AA000EF90DF90CF90BF90AF900895CF92DF92AC
:105AB000EF92FF920F931F93CF93DF93E091180C17
:105AC000F091190C82819381A481B5811816190671
:105AD0001A061B06DCF58091170C9091DE054091AB
