:100000000C941B0E0C9470870C9445870C941A87E3
:100010000C94EF860C94C4860C9499860C946E868E
:100020000C947C6B0C944C0E0C944C0E0C944C0E5B
:100030000C944C0E0C944F850C944C0E0C944C0E5E
:100040000C944C0E0C9426640C944C0E0C944C0E98
:100050000C944C0E0C944C0E0C94AE620C949B873A
:100060000C944C0E0C94BB6A0C944C0E0C944C0EDD
:100070000C944C0E0C944C0E0C944C0E0C944C0E98
:100080000C944C0E0C944C0E0C944C0E0C944C0E88
:100090000C944C0E0C944C0E0C944C0E0C944C0E78
:1000A0000C944C0E0C944C0E0C944C0E0C944C0E68
:1000B0000C944C0E0C944C0E0C944C0E0C944C0E58
:1000C0000C944C0E0C944C0E0C944C0E0C944C0E48
:1000D0000C944C0E0C944C0E0C944C0E0C944C0E38
:1000E0000C944C0EEC29F129F629002A0A2A832ABD
:1000F000142A1C2A242A2E2A382A422A512A5B2A08
:10010000832A652A6F2A792AEF6AF56A066B116BD2
:10011000196B2E6B1D6B2E6B216B256B2E6B2B6B56
:100120009577987787778B779177CF779C77A0773C
:10013000A677AA77AE77B477B877BC77CF77C27750
:10014000C677CA77084AD73B3BCE016E84BCBFFD59
:10015000C12F3D6C74319ABD56833DDA3D00C77F97
:1001600011BED9E4BB4C3E916BAAAABE0000008030
:100170003F05A84CCDB2D44EB93836A9020C50B9BF
:10018000918688083CA6AAAA2ABE000000803F00EB
:10019000434F4D4D554E49434154494F4E004452F3
:1001A0005952554E004552524F525300494E464FF8
:1001B000004543484F0047322F4733206261642097
:1001C000706172616D65746572730A0000002F437F
:1001D00000004943000021430000F0410000F041CD
:1001E0000000004100000000FF0101205A3A2000F9
:1001F00020593A200042656420583A20002569734E
:100200000025696D20256973002569682025696DC1
:100210002025697300256964202569682025696D9A
:10022000202569730025697920256964202569687E
:100230002025696D20256973005072696E742074E1
:10024000696D653A2000000125301D0C1E24311C0B
:100250000B18232F1B0A17FFFF040806FF06222B8B
:100260001A4142043803FF36282945274443507277
:100270006F7465637465642050696E0A00B101ACE7
:1002800001A5019E0190016F6666004445425547F5
:100290003A006F6B0020573A004361703A454D4574
:1002A0005247454E43595F5041525345523A310AE5
:1002B000004361703A434153455F4C494748545F9E
:1002C0004252494748544E4553533A300A0043611D
:1002D000703A544F47474C455F4C49474854533A4E
:1002E000300A004361703A534F4654574152455FBC
:1002F000504F5745523A300A004361703A4C4556C8
:10030000454C494E475F444154413A310A004361EC
:10031000703A5A5F50524F42453A310A0043617079
:100320003A4155544F4C4556454C3A310A004361C9
:10033000703A5052494E545F4A4F423A310A004394
:1003400061703A50524F47524553533A300A004376
:1003500061703A4155544F5245504F52545F544585
:100360004D503A310A004361703A454550524F4D65
:100370003A310A004649524D574152455F4E414D70
:10038000453A4D61726C696E20204649524D574185
:1003900052455F56455253494F4E3A312E312E3514
:1003A0002E31342045585452554445525F545950CB
:1003B000453A53696E676C65457874727564657209
:1003C00020534F555243455F434F44455F55524C70
:1003D0003A68747470733A2F2F636F64652E616C82
:1003E0006570686F626A656374732E636F6D2F64E6
:1003F0006966667573696F6E2F4D41524C494E2088
:1004000050524F544F434F4C5F56455253494F4EF5
:100410003A312E30204D414348494E455F545950A2
:10042000453A4C756C7A426F74204D696E6920456F
:10043000585452554445525F434F554E543A31201B
:10044000555549443A33353134383762362D636176
:1004500039612D346331612D383736352D643636A8
:100460003862316461363538350A002F2F20007A22
:100470005F6D61783A20007A5F6D696E3A2000798D
:100480005F6D61783A2000795F6D696E3A2000787F
:100490005F6D61783A2000785F6D696E3A20005296
:1004A00065706F7274696E6720656E6473746F70C7
:1004B000207374617475730A0053657474696E6790
:1004C0002054726176656C20416363656C6572616E
:1004D00074696F6E3A200053657474696E672052B8
:1004E00065747261637420416363656C65726174E5
:1004F000696F6E3A200053657474696E672050729C
:10050000696E7420416363656C65726174696F6EB6
:100510003A200053657474696E67205072696E7476
:1005200020616E642054726176656C20416363655E
:100530006C65726174696F6E3A2000205A00205910
:1005400000580020204D61783A2000205A002059A0
:1005500000580020204D696E3A20004F6E20004F59
:10056000666600536F667420656E6473746F707393
:100570003A200020643A0020693A0020703A0020B6
:10058000643A0020693A0020703A0043290A006169
:10059000626C656420286D696E2074656D70200042
:1005A000436F6C6420657874727564657320617242
:1005B0006520004B64200023646566696E65202019
:1005C00044454641554C545F004B69200023646507
:1005D00066696E65202044454641554C545F004B8A
:1005E00070200023646566696E652020444546419D
:1005F000554C545F00504944204175746F74756EBA
:10060000652066696E697368656421205075742081
:10061000746865206C617374204B702C204B6920CA
:10062000616E64204B6420636F6E7374616E7473CB
:100630002066726F6D2062656C6F7720696E746FD3
:1006400020436F6E66696775726174696F6E2E689C
:100650000A00504944204175746F74756E652066B8
:1006600061696C6564212074696D656F75740A0039
:10067000504944204175746F74756E6520666169D8
:100680006C6564212054656D706572617475726566
:1006900020746F6F20686967680A00204B643A20F5
:1006A00000204B693A2000204B703A20000A20437A
:1006B0006C617373696320504944200A00205475AB
:1006C0003A2000204B753A2000206D61783A2000D6
:1006D000206D696E3A200020643A20002062696132
:1006E000733A2000426564204C6576656C696E67DC
:1006F00020004661696C656420746F20656E6162DC
:100700006C6520426564204C6576656C696E670A8D
:1007100000426564204C6576656C20436F7272659B
:100720006374696F6E204D61747269783A000000DD
:10073000000000003F4300001F43546F6F206661BC
:10074000722066726F6D207265666572656E636594
:1007500020706F696E740A003A20007A5F6D696ECE
:100760003A20202D32207A5F6D61783A20203500C2
:100770005A204F666673657420004E6F2063617364
:1007800065206C696768740A004163746976652046
:1007900045787472756465723A2000556E6B6E6FA1
:1007A000776E20636F6D6D616E643A2022001000D9
:1007B000AD0330016A0150022B0170030A0190045D
:1007C000F500B005E500D006D800F007CE0010090E
:1007D000C500300ABE00500BB700700CB100900D80
:1007E000AB00B00EA600D00FA200F0109D001012BA
:1007F0009900301395005014920070158E009016D9
:100800008B00B0178700D0188400F0198100101BEE
:100810007E00301C7B00501D7900701E7600901FFA
:100820007300B0207000D0216E00F0226B00102405
:10083000690030256600502663007027610090280B
:100840005E00B0295C00D02A5900F02B5600102D14
:100850005400302E5100502F4E0070304B0090311C
:100860004800B0324500D0334200F0343E0010362C
:100870003B00303737005038330070392E00903A43
:100880002900B03B2300D03C1B00F03D1100103F7D
:100890000100F03F00004572726F72207772697438
:1008A000696E6720746F20454550524F4D210A00F4
:1008B0002066697273740A005A0059005800486F24
:1008C0006D652000656E7175657565696E672022BE
:1008D0000000002200250028002B002E00310034EB
:1008E0000002010000050108010B010000210024A5
:1008F0000027002A002D0030003300010100000411
:100900000107010A01050505050705080808080291
:100910000202020A0A080804040404010101010198
:100920000101010303030303030303040707070C87
:100930000C0C0C0C0C0C0C0202020206060606063D
:100940000606060B0B0B0B0B0B0B0B0102102020EA
:100950000808102040102040800201020108040213
:100960000101020408102040808040201008040289
:1009700001800402018040201008040201080402E2
:1009800001010204081020408001020408102040E8
:100990008000000A0B02090C0D0E08070304010079
:1009A0000000000000000000000000000000000047
:1009B0000000000000000000000000000012111004
:1009C0000000000000000000000000000000000027
:1009D0000000000000000050524F424520464149AF
:1009E0004C20434C45414E204E4F5A5A4C450A002C
:1009F0005265776970696E670A0050524F42452010
:100A00004641494C20434C45414E204E4F5A5A4C8A
:100A1000450A005265776970696E670A0050726F07
:100A200062696E67206661696C65640A00205A3AE3
:100A3000200020593A200042656420583A20000ADC
:100A40000A426564204C6576656C20436F7272655E
:100A50006374696F6E204D61747269783A005275E3
:100A60006E6E696E6720696E204452592D52554E44
:100A7000206D6F64650A00473239204175746F201C
:100A8000426564204C6576656C696E670A003F2894
:100A900056296572626F7365206C6576656C206996
:100AA0007320696D706C61757369626C65202830A4
:100AB0002D34292E0A005761726E696E673A2048FC
:100AC0006F6D696E672042756D7020446976697339
:100AD0006F72203C20310A000202040000A0400096
:100AE00000A04000000040204500205A0020204D7A
:100AF00039303720580053746570706572206D6FFF
:100B0000746F722063757272656E74733A0A002096
:100B1000204D383531205A005A2D50726F626520B1
:100B20004F666673657420286D6D293A0A0020446B
:100B30000020490020204D33303420500020440054
:100B400020490020204D33303120500050494420AE
:100B500073657474696E67733A0A0020204D3432ED
:100B6000302053004175746F20426564204C6576D7
:100B7000656C696E673A0A00205A002059002020EF
:100B80004D323036205800486F6D65206F666673B1
:100B900065743A0A00204500205A00205900205868
:100BA0000020420020540020204D323035205300D8
:100BB000416476616E6365643A20533C6D696E5F93
:100BC00066656564726174653E20543C6D696E5F54
:100BD00074726176656C5F66656564726174653EAA
:100BE00020423C6D696E5F7365676D656E745F74FE
:100BF000696D655F6D733E20583C6D61785F7879F3
:100C00005F6A65726B3E205A3C6D61785F7A5F6AFD
:100C100065726B3E20453C6D61785F655F6A657209
:100C20006B3E0A0020540020520020204D32303408
:100C3000205000416363656C65726174696F6E205A
:100C400028756E6974732F7332293A20503C707284
:100C5000696E745F616363656C3E20523C726574BB
:100C6000726163745F616363656C3E20543C7472AF
:100C70006176656C5F616363656C3E0A00204500C8
:100C8000205A0020590020204D3230312058004D8C
:100C90006178696D756D20416363656C657261741F
:100CA000696F6E2028756E6974732F7332293A0A42
:100CB00000204500205A0020590020204D323033BA
:100CC0002058004D6178696D756D206665656472A8
:100CD000617465732028756E6974732F73293A0ADD
:100CE00000204500205A0020590020204D39322094
:100CF000580053746570732070657220756E697446
:100D00003A0A0020204D3230302044300A002020A2
:100D10004D3230302044002044697361626C656458
:100D20000A0046696C616D656E7420736574746940
:100D30006E67733A002020473231202020203B206C
:100D4000556E69747320696E206D6D0A00290A0062
:100D50002062797465733B2063726320005365746D
:100D600074696E67732053746F7265642028005035
:100D700072696E7465722068616C7465642E206B94
:100D8000696C6C28292063616C6C6564210A0062BF
:100D900065640A002C2073797374656D2073746F19
:100DA0007070656421204865617465725F49443ADA
:100DB0002000544845524D414C2052554E41574118
:100DC0005900546865726D616C2052756E6177616F
:100DD000790048656174696E67206661696C656455
:100DE0000048656174696E67206661696C656400BE
:100DF00048656174696E67206661696C6564004866
:100E0000656174696E67206661696C656400507223
:100E1000696E7465722073746F7070656420647598
:100E20006520746F206572726F72732E2046697828
:100E300020746865206572726F7220616E6420751F
:100E40007365204D39393920746F20726573746170
:100E500072742E202854656D7065726174757265A8
:100E60002069732072657365742E20536574206940
:100E7000742061667465722072657374617274693E
:100E80006E67290A002042002050006F6B005265F7
:100E900073656E643A2000202F002042403A002003
:100EA000403A004E6F204C696E65204E756D62654C
:100EB00072207769746820636865636B73756D2C45
:100EC000204C617374204C696E653A200050726941
:100ED0006E7465722073746F7070656420647565DC
:100EE00020746F206572726F72732E2046697820AD
:100EF000746865206572726F7220616E642075730C
:100F000065204D39393920746F20726573746172B0
:100F1000742E202854656D70657261747572652039
:100F200069732072657365742E205365742069742B
:100F30002061667465722072657374617274696E83
:100F400067290A004E6F20436865636B73756D20D7
:100F500077697468206C696E65206E756D62657264
:100F60002C204C617374204C696E653A20006368D4
:100F700065636B73756D206D69736D617463682C47
:100F8000204C617374204C696E653A20004C696E88
:100F900065204E756D626572206973206E6F7420D6
:100FA0004C617374204C696E65204E756D6265727C
:100FB0002B312C204C617374204C696E653A2000F3
:100FC0004D313130004B494C4C45442E20004B49AB
:100FD0004C4C2063617573656420627920746F6F77
:100FE000206D75636820696E61637469766520742D
:100FF000696D65202D2063757272656E7420636F54
:101000006D6D616E643A200020573A0020746F6F56
:10101000206C6F6E6720657874727573696F6E20CF
:1010200070726576656E7465640A0020636F6C6427
:1010300020657874727573696F6E2070726576655D
:101040006E7465640A004B494C4C45442E200024C4
:10105000F4D43050C38E20C2A24017828B7011127C
:101060007A910D816CD90AA861E108C758660761B9
:101070005143061E4B5D05C145A7041A41110409E1
:101080003D9803713931034036DB0265339102D458
:10109000305402802E1D02632CEE01752AC501B06A
:1010A00028A001102781018F2564012B244B01E02A
:1010B000223401AC211F018D200D01801FFC008412
:1010C0001EED00971DDF00B81CD200E61BC60020F5
:1010D0001BBC00641AB200B219A8000A19A0006A69
:1010E000189900D117910040178B00B51684003174
:1010F000167E00B31579003A157300C7146F0058B7
:10110000146A00EE1366008813630025135E00C79F
:10111000125B006C12570015125400C1115100707F
:10112000114F0021114B00D61049008D1047004689
:1011300010440002104200C00F4000800F3E0042E9
:101140000F3C00060F3B00CB0E3800930E37005CBF
:101150000E3500270E3400F30D3200C10D31009022
:101160000D3000600D2E00320D2D00050D2C00D924
:101170000C2B00AE0C2900850C29005C0C270035D7
:101180000C27000E0C2600E80B2400C40B2400A042
:101190000B23007D0B23005A0B2100390B21001873
:1011A0000B2000F80A1F00D90A1E00BB0A1E009D72
:1011B0000A1D00800A1D00630A1C00470A1B002C40
:1011C0000A1B00110A1A00F7091A00DD091900C4E8
:1011D000091900AB091900920917007B091800636F
:1011E0000917004C09160036091600200916000AD6
:1011F000091500F5081500E0081400CC081400B823
:10120000081400A4081400900813007D0812006B55
:101210000813005808120046081200340811002371
:101220000811001208110001081100F0071000E079
:10123000071000D0071000C0071000B0070F00A172
:1012400007100091070E0083070F0074070F006559
:10125000070E0057070E0049070E003B070D002E32
:10126000070E0020070D0013070D0006070D00F9FB
:10127000060C00ED060D00E0060C00D4060C00C8BC
:10128000060C00BC060C00B0060C00A4060B00996E
:10129000060C008D060B0082060B0077060B006C17
:1012A000060B0061060A0057060B004C060A0042B6
:1012B000060A0038060A002E060A0024060A001A4A
:1012C000060A001006090007060A00FD050900F4D9
:1012D000050900EB050900E2050900D9050900D060
:1012E000050900C7050900BE050900B5050800ADE0
:1012F000050800A50509009C050800940508008C58
:10130000050800840508007C050800740508006CC9
:10131000050700650508005D050700560508004E35
:10132000050700470507004005080038050700319C
:101330000507002A050700230507001C05060016FF
:101340000507000F0507000805060002050700FB5A
:10135000040600F5040700EE040600E8040600E2B7
:10136000040700DB040600D5040600CF040600C90C
:10137000040600C3040600BD040600B7040600B15D
:10138000040500AC040600A6040600A00405009BAA
:1013900004060095040500900406008A04050085F3
:1013A000040500800406007A040500750405007039
:1013B0000405006B04050066040500610405005C7B
:1013C00004050057040500520405004D04050048BB
:1013D000040500430405003E0404003A04050035FA
:1013E000040500300404002C040500270404002335
:1013F0000405001E0404001A04040016040500116C
:101400000404000D040400090405000404040000A1
:10141000040400FC030400F8030400F4030400F0D7
:10142000030400EC030400E8030400E4030400E008
:10143000030400DC030400D8030400D4030400D038
:10144000030400CC030400C8030300C50303002405
:10145000F404D9201BC40C5C0E9804C4095F026517
:10146000077101F405F900FB04B30048048700C1CB
:101470000369005803550003034500BE023A008487
:1014800002310053022A002902250004022000E450
:10149000011C00C8011900AF011700980114008455
:1014A000011300710110006101100051010E004391
:1014B000010D0036010B002B010B0020010B001564
:1014C0000109000C01090003010800FB000800F3FA
:1014D000000800EB000700E4000600DE000600D86C
:1014E000000600D2000600CC000500C7000500C2BF
:1014F000000500BD000400B9000400B5000400B1FF
:10150000000400AD000400A9000400A5000300A22F
:101510000003009F0004009B000300980003009557
:1015200000020093000300900003008D0002008B76
:10153000000300880002008600020084000300818E
:101540000002007F0002007D0002007B00020079A3
:1015500000020077000100760002007400020072B1
:10156000000100710002006F0002006D0001006CBC
:101570000002006A000100690002006700010066C5
:1015800000010065000100640002006200010061CA
:10159000000100600001005F0002005D0001005CCE
:1015A0000001005B0001005A0001005900010058D1
:1015B00000010057000100560001005500010054D1
:1015C00000010053000000530001005200010051CF
:1015D000000100500001004F0001004E0000004ECD
:1015E0000001004D0001004C0001004B0000004BC9
:1015F0000001004A000100490001004800000048C5
:1016000000010047000100460000004600010045BF
:1016100000000045000100440001004300000043B9
:1016200000010042000000420001004100000041B2
:10163000000100400001003F0000003F0001003EAB
:101640000000003E0001003D0000003D0001003CA4
:101650000000003C0000003C0001003B0000003B9B
:101660000001003A0000003A000100390000003992
:101670000001003800000038000000380001003789
:101680000000003700010036000000360000003680
:101690000001003500000035000000350001003475
:1016A000000000340000003400010033000000336B
:1016B0000000003300010032000000320000003260
:1016C0000001003100000031000000310001003055
:1016D00000000030000000300001002F0000002F4B
:1016E0000000002F0000002F0001002E0000002E3F
:1016F0000000002E0001002D0000002D0000002D34
:101700000000002D0001002C0000002C0000002C27
:101710000000002C0001002B0000002B0000002B1B
:101720000000002B0001002A0000002A0000002A0F
:101730000000002A00010029000000290000002903
:1017400000000029000000290001002800000028F6
:1017500000000028000000280000002800010027E9
:1017600000000027000000270000002700000027DD
:1017700000010026000000260000002600000026D0
:1017800000000026000100250000002500000025C3
:1017900000000025000000250000002500010024B5
:1017A00000000024000000240000002400000024A9
:1017B000000100230000002300000023000000239C
:1017C000000000230000002300000023000100228D
:1017D0000000002200000022000000220000002281
:1017E0000000002200010021000000210000002173
:1017F0000000002100000021000000210000002165
:101800000001002000000020000000200000002057
:101810000000002000000020000000200000002048
:101820000001001F0000001F0000001F0000001F3B
:101830000000001F0000001F0000001F0001001E2C
:101840000000001E0000001E0000001E00000045F9
:1018500072723A204D494E54454D50204245440045
:101860004572723A204D494E54454D50004D494EF7
:1018700054454D5020747269676765726564004510
:1018800072723A204D415854454D50204245440013
:101890004572723A204D415854454D50004D4158C3
:1018A00054454D5020747269676765726564002005
:1018B000746F6F206C6F6E672065787472757369D2
:1018C0006F6E2070726576656E7465640A002063C1
:1018D0006F6C6420657874727573696F6E207072B6
:1018E0006576656E7465640A0048617264636F644E
:1018F00065642044656661756C7420536574746911
:101900006E6773204C6F616465640A0028230000D1
:101910002823000064000000E80300000000964354
:101920000000964300000041000020420000C94230
:101930000000C9420000C8440040504420286361B0
:101940006C63756C6174656429210A0020213D2057
:1019500000454550524F4D20435243206D69736DF1
:1019600061746368202D202873746F726564292068
:1019700000290A002062797465733B20637263203A
:10198000002073746F7265642073657474696E6788
:101990007320726574726965766564202800204D35
:1019A00061726C696E3D563430290A0028454550F5
:1019B000524F4D3D00454550524F4D207665727354
:1019C000696F6E206D69736D61746368200010002B
:1019D000C90210012C014001220170011801B0015F
:1019E0000E01F00104015002FA00B002F0003003D1
:1019F000E600D003DC009004D2007005C800A00609
:101A0000BE000008B400B009AA00D00BA000600E10
:101A1000960060118C000015820020197800C01D0E
:101A20006E00A0226400B0275A00902C50000031B4
:101A30004600E0343C0010383200903A2800603C08
:101A40001E00A03D1400803E0A00203F0000000060
:101A500020002300260029002C002F003200000166
:101A6000000003010601090100000000000020C180
:101A7000000000C000002F4300003F4300001F4350
:101A800045303A20005A3A2000593A2000583A206E
:101A9000004D53312C4D53322050696E730A002093
:101AA0005A3A0020593A0020436F756E7420583A14
:101AB0000020453A00205A3A0020593A00583A008E
:101AC00020496E76616C696420657874727564650E
:101AD000722000024572726F723A002020506C61D1
:101AE0006E6E657242756666657242797465733AA8
:101AF00020002046726565204D656D6F72793A2031
:101B000000436F6D70696C65643A205365702032D4
:101B10003520323031370A00207C20417574686FDF
:101B2000723A2028416C657068204F626A65637460
:101B30007320496E632E2C204C756C7A426F742092
:101B4000476974205265706F7369746F7279290ADE
:101B500000536570203235203230313731353A3319
:101B6000393A303200204C617374205570646174CE
:101B700065643A2000312E312E350A004D61726CB9
:101B8000696E0020536F66747761726520526573C9
:101B900065740A00205761746368646F672052653A
:101BA0007365740A002042726F776E206F7574201F
:101BB00052657365740A002045787465726E616CB5
:101BC0002052657365740A00506F77657255700A0C
:101BD0000073746172740A00205A3A0020593A0066
:101BE00020583A00656E6473746F7073206869746E
:101BF0003A20006563686F3A004E414E494E4954A1
:101C000059494E46CDCCCC3D0AD7233C17B7D138E5
:101C100077CC2B329595E6241FB14F0A0000204166
:101C20000000C84200401C4620BCBE4CCA1B0E5AD5
:101C3000AEC59D74ED8511241FBECFEFD1E2DEBF8E
:101C4000CDBF00E00CBF13E0A0E0B2E0E8EAF6E2AE
:101C500001E00BBF02C007900D92A432B107D9F783
:101C60002DE0A4E2B3E001C01D92AA30B207E1F773
:101C70001CE1C6E3DCE100E006C022970109FE0199
:101C80000BBF0E942E93C433D10780E00807A9F749
:101C90000E94DA810C9452930C9400002F923F9290
:101CA0004F925F926F927F928F929F92AF92BF926C
:101CB000CF92DF92EF92FF920F931F93CF93DF9318
:101CC000CDB7DEB7C955D1090FB6F894DEBF0FBE48
:101CD000CDBF0091A20C20E6029F80011124095E75
:101CE0001B4F8091160480FF1AC0E3EFFBE1849143
:101CF0007F013FEFE31AF30A811102C0780104C0AB
:101D00000E940E7CF701F3CFD7018D917D018823CE
:101D100019F00E940E7CF8CF8AE00E940E7C10928F
:101D20008603109285038FE38093150410921404A8
:101D30001092130410923E0310923F03109240033E
:101D400010924103F80180810F5F1F4F8032D1F361
:101D50008E34B1F4818190ED980F9A3020F08D325D
:101D600011F08B3269F43296DF0131962C912053B9
:101D70002A30D0F3CD01FC01019620812032D9F325
:101D8000F0930D04E0930C047F01BFEFEB1AFB0A04
:101D900010816AE270E0C7010E943293009739F027
:101DA000DC0111978C918032E1F311961C921D3465
:101DB00029F0143519F0173409F0CAC0F7014E2F75
:101DC0009F2F81918032D9F380538A3008F0C0C0B0
:101DD000109315042091130430911404E42FF92F6B
:101DE0006AE0AF014F5F5F4F629FC001639F900D3C
:101DF0001124208130E020533109820F931F21816B
:101E000020532A3030F090931404809313049A01E5
:101E100003C09C01FA01E5CFD9012F5F3F4F4C91E0
:101E20004032D1F31D34D1F48E31910591F03CF460
:101E30008731910571F08C31910581F40AC08537A5
:101E4000910564F08737910524F0803AE3E09E071E
:101E500029F4B0938603A09385037AC01092860379
:101E600010928503D0900C0441E050E0FD013196C2
:101E70002C91222309F46CC02132A1F41D3491F479
:101E80008032910579F4F0938603E093850363E251
:101E900070E0CF010E943293009709F459C0DC0131
:101EA0001C9256C00FEB020F0A31A0F59F01F901F9
:101EB00060812F5F3F4F6032D1F320ED260F2A3033
:101EC00040F023ED260F223020F06B3211F00C94FD
:101ED00065249F01602F70E0DB01B595A795B5954E
:101EE000A795B595A795A25CBC4F07707A01002E07
:101EF00001C0EE0C0A94EAF7FC90FE28FC92211532
:101F0000310511F02D1901C020E0DB01AC5DBC4FA3
:101F10002C930AC02091850330918603232B21F452
:101F2000B0938603A0938503208121542A3110F4B5
:101F3000DF019CCFDF0131966C9160536A30D0F3A2
:101F40009D01F9012F5F3F4F60816032D1F3F0CFE7
:101F5000809115048D3409F41CC5843511F40C945A
:101F60000924873411F00C94492480911304909132
:101F700014048A31910509F447C2BCF484309105F8
:101F80005CF48230910574F597FF02C00C946224D2
:101F90000E9465760C9462248430910509F4B7C1DF
:101FA0000C9709F4EFC10C9462248E31910509F469
:101FB000E5C33CF48C31910509F4ADC20CF429C29F
:101FC000D5C38B35910509F476C48C35910509F498
:101FD00077C48A35910511F00C9462241092120492
:101FE0000C94622420913102222311F40C94622477
:101FF00011E0029709F010E00E94187E19821A82FF
:102000001B821C821D821E821F82188682E50E940E
:102010000C7E882309F42CC10E949F7C6B017C01FB
:102020002091710C3091720C4091730C5091740C92
:102030002F8F38A349A35AA38090750C9090760CEB
:10204000A090770CB090780C809146039091470354
:10205000A0914803B09149038BA39CA3ADA3BEA359
:1020600020914A0330914B0340914C0350914D0312
:102070002FA338A749A75AA720E030E0A901C7013C
:10208000B6010E94068C882309F408C12F8D38A15F
:1020900049A15AA16BA17CA18DA19EA10E94068C91
:1020A00081110BC0A50194016FA178A589A59AA5FE
:1020B0000E94068C882309F4F1C020E030E0A901D9
:1020C000C701B6010E94068C881F8827881F181731
:1020D00049F080E090E0A0E8BFEB8FAB98AFA9AFEC
:1020E000BAAF08C020E030E040E85FE32FAB38AF84
:1020F00049AF5AAF2F8D38A149A15AA16BA17CA13C
:102100008DA19EA10E9432906FA778AB89AB9AAB4C
:10211000A50194016FA178A589A59AA50E94329086
:102120006BAB7CAB8DAB9EAB2FA538A949A95AA947
:10213000CA01B9010E946B8C2B013C012BA93CA95F
:102140004DA95EA9CA01B9010E946B8C9B01AC012B
:10215000C301B2010E9433900E949E926BA77CA79C
:102160008DA79EA720E030E040E05FE30E946B8CEB
:102170002B013C01A7019601C701B6010E946B8C9F
:102180006B017C01A3019201C301B2010E946B8C1F
:102190009B01AC01C701B6010E9432900E949E9241
:1021A0009B01AC016FA978AD89AD9AAD0E946B8C93
:1021B0006B017C012BA13CA14DA15EA16F8D78A18B
:1021C00089A19AA10E94339020E030E040E05FE3D3
:1021D0000E946B8C2B013C016BA97CA98DA99EA947
:1021E00090582BA53CA54DA55EA50E940F919B0183
:1021F000AC01C701B6010E946B8C9B01AC01C3010D
:10220000B2010E9433902F8D38A149A15AA10E949A
:10221000329069837A838B839C832FA138A549A54B
:102220005AA5C501B4010E94339020E030E040E09F
:102230005FE30E946B8C2B013C012BA53CA54DA5B7
:102240005EA56FA578A989A99AA90E940F919B0103
:10225000AC01C701B6010E946B8C9B01AC01C301AC
:10226000B2010E943390A50194010E94329012C0E5
:1022700089E40E940C7E882331F00E949F7C698350
:102280007A838B839C838AE40E940C7E882331F0BE
:102290000E949F7C6D837E838F83988720E030E04F
:1022A000A90169817A818B819C810E94068C8111B0
:1022B0000BC020E030E0A9016D817E818F8198857F
:1022C0000E94068C882349F0612FCE0101960E945E
:1022D0003A330E942C7F0C946224E4EDFAE184915D
:1022E0008F010F5F1F4F882321F00E940E7CF801A1
:1022F000F6CFE6EBF1E084918F010F5F1F4F88234B
:1023000011F40C9462240E940E7CF801F4CF80E555
:102310000E940C7E882329F00E945F7C4B015C01A7
:1023200003C0812C912C540183E50E940C7E8823EC
:1023300061F00E949F7C20E030E04AE754E40E9474
:102340006B8C0E947C914B015C010E946D6C0E9421
:102350002C7FC0904203D0904303E0904403F09060
:102360004503C80CD91CEA1CFB1C0E94207F6C1979
:102370007D098E099F0997FD02C00C9462240E947A
:102380008C53F3CF0E94A12A81110C94622480E522
:102390000E940C7E882319F00E946F7C01C060E0CF
:1023A0006E8F83E50E940C7E882319F00E946F7C5B
:1023B00001C06CE06A8F84E50E940C7E882319F0CE
:1023C0000E946F7C01C063E06E8B82E50E940C7EF0
:1023D000882319F00E949F7C04C060E070E080EDCB
:1023E00090E469837A838B839C839E012A5E3F4FAE
:1023F000AE014F5F5F4FBE01665E7F4FCE014E96CE
:102400000E940A380C94622481E0809331020C947B
:1024100062240E94A12A81110C94622480E50E940A
:102420000C7E882321F00E946F7C462F01C040E083
:102430006091790C70917A0C80917B0C90917C0C5E
:1024400000E010E020E231E409831A832B833C830F
:1024500000E010E025E333E40D831E832F833887EB
:1024600000E010E020EA31E409871A872B873C87D7
:1024700000E010E020EC3FE70D871E872F87388BA8
:10248000413071F1423021F51E8A1F8A188E198E53
:1024900020E030E040EA51E40E9433907B018C015F
:1024A00020E030E04FE153E40E945992181624F4E2
:1024B000E12CF12C0FE113E4A701B8014A8F5B8FE7
:1024C0006C8F7D8FBE016A5E7F4FCE014A9611C030
:1024D00020E030E040EA51E40E94068C87FF0BC008
:1024E0001E8A1F8A188E198EBE016A5E7F4FCE012A
:1024F00009960E94696D1E8A1F8A188E198EAE0178
:102500004A5E5F4FBE016B5F7F4FCE0101960E9416
:10251000656D0C94622424982C9A0E946D6C80E066
:102520000E949E4D0E944F7F81E08093600C88E561
:102530000E94DE7D8F8F89E50E94DE7D082F8AE56F
:102540000E94DE7D3F8D311105C0011107C011E0F1
:10255000182705C0002311F0182F01C010E090E1EA
:10256000E1E7FCE0A6E4B3E001900D929A95E1F773
:10257000111106C0811104C04F8D411135C03BC0FF
:1025800082E00E941A371123B9F31092750C109251
:10259000760C1092770C1092780C1092710C1092AD
:1025A000720C1092730C1092740C0E94C575E8EEB8
:1025B000F1E054915FA3ECECF1E0C590D590E5908B
:1025C000F490E0EDF1E085909590A590B490A50190
:1025D0009401C701B6010E94599218167CF4A70114
:1025E0009601C501B4010EC00111CFCF80E00E9459
:1025F0001A371111AAC00111A8C0AAC0A5019401DF
:10260000C701B6010E940F912B013C01A8ED2A2EB3
:10261000A1E03A2EF1016591759185919491ECEDCF
:10262000F1E025913591459154910E94068C87FFE8
:102630000AC0F10185919591A591B4918BA39CA3BA
:10264000ADA3BEA30AC0ECEDF1E025913591459113
:1026500054912BA33CA34DA35EA3A3019201C301FC
:10266000B2010E946B8C20E030E040E85FE30E9402
:1026700033900E949E929B01AC016BA17CA18DA125
:102680009EA10E946B8C6A8F7B8F8C8F9D8FE9EE51
:10269000F1E0749020E030E040EC5FE3C501B4016C
:1026A0000E946B8C4B015C01672D772767FD70954D
:1026B000872F972F0E940C8C9B01AC01C501B401A0
:1026C0000E946B8C69837A838B839C8320E030E04B
:1026D00040EC5FE3C701B6010E946B8C6B017C018B
:1026E0003FA1632F772767FD7095872F972F0E9453
:1026F0000C8C9B01AC01C701B6010E946B8C6E8BE8
:102700007F8B888F998FAE01465E5F4FBE016F5FF2
:102710007F4FCE0146960E94656D1092A10C1092DB
:10272000750C1092760C1092770C1092780C109217
:10273000710C1092720C1092730C1092740C111197
:1027400055CF4F8D411152CF56CF81E00E941A379D
:102750000E94C575809187038093600C0E94367F2C
:102760000E94FA7F249A2C980C94622424982C9A24
:102770000E94263D249A2C980C94622420E030E09C
:10278000A9016091710C7091720C8091730C909101
:10279000740C0E943390182F88E568966FAF689785
:1027A00069967FAF69976A969FAF6A970E940C7E81
:1027B00068966FAD689769967FAD69976A969FAD89
:1027C0006A97882321F00E949F7C9B0102C09B0195
:1027D000812FA901BC014E8B5F8B688F798F20E020
:1027E00030E0A9016091750C7091760C8091770CA6
:1027F0009091780C0E9433905B018C0189E50E94D6
:102800000C7E882321F00E949F7C5B018C01A50136
:10281000B80149835A836B837C834090FC035090BA
:10282000FD036090FE037090FF032091F803309148
:10283000F9034091FA035091FB036E897F89888DDB
:10284000998D0E9432906B017C012FE632E143E8C2
:102850005AEB0E94599287FF02C00C94622422E432
:1028600030E04FE253E4C701B6010E94068C18160F
:1028700014F40C946224A3019201B501C8010E94D2
:1028800032906B017C0129E134E040E251EC0E947E
:10289000599287FF02C00C94622422E430E04FE397
:1028A00053E4C701B6010E94068C181614F40C9468
:1028B00062240C94762481E0809312040C946224A8
:1028C00085E40E940C7EC82E811102C00E946D6CAE
:1028D000F2E0EF2EF3E0FF2E01E71CE0B12CD12C4B
:1028E000D7018D917D010E940C7E882361F00E94AA
:1028F0009F7CF8016083718382839383F3E0DF160A
:1029000011F0BB24B394D3940C5F1F4F24E0D21278
:10291000E7CFBB2019F00E94C57537C0CC20A9F1C4
:10292000C0907D0CD0907E0CE0907F0CF090800CDD
:10293000209181033091820340918303509184035D
:10294000C701B6010E946B8C0E9464926093E80CF0
:102950007093E90C8093EA0C9093EB0CC701B601DD
:102960000E9477912FB7F8946093D70B7093D80B90
:102970008093D90B9093DA0B2FBF1092D80C109242
:10298000D90C1092DA0C1092DB0C0E94FA7F0C9496
:10299000622480911304909114048B39910509F4F9
:1029A000A7C30CF097C08C35910509F46FC40CF0E7
:1029B0004DC08B34910509F463C2D4F48131910583
:1029C00009F43EC144F4029710F00C9462240E9472
:1029D000706D0C9462248F31910509F437C18A32ED
:1029E000910509F4FEC1429711F00C946224FCC3D6
:1029F0008235910509F4EFC3ECF48D34910509F4A7
:102A000058C20CF441C28135910511F00C94622436
:102A10000E940C500E946D6C0E946C4110926003E9
:102A200010925F0368EE73E080E090E00E943853FC
:102A30000C9462248435910509F4D6C30CF4CFC3F9
:102A40008535910509F407C40C9462248F369105ED
:102A500009F475C2DCF48A36910509F48BC354F489
:102A60008836910509F429C28936910509F426C3EF
:102A70000C9462248D36910509F463C30CF04CC2AA
:102A80008B36910509F495C30C9462248737910520
:102A900009F44BC59CF48337910509F47DC486374E
:102AA000910509F40BC58237910511F00C9462244D
:102AB0000E946D6C0E94FA7F0C9462248937910504
:102AC00009F400C60CF4F7C58C38910509F4D8C296
:102AD0000C946224803331E0930711F40C94A21E0D
:102AE0000CF04DC08E3C910509F44DC70CF5893CA6
:102AF000910509F437C654F48E3B910509F425C3BA
:102B0000883C910509F4E4C50C9462248C3C910541
:102B100009F462C60CF0CCC68B3C910511F00C9404
:102B2000622402E013E09DE9E92E93E0F92E45C608
:102B3000823E910511F40C94C11D8CF48C3D9105DD
:102B400009F4F9C78D3D910511F40C94A81D833D3E
:102B5000910511F00C946224E3EFFBE156C78E322D
:102B600051E0950711F40C941F1F14F00C94751F7D
:102B70008D32914011F40C94041E0C9462248C3A12
:102B8000E1E09E0711F40C94E32264F5803921E022
:102B9000920711F40C948322ACF48F3541E0940732
:102BA00011F40C94DD23833651E0950711F40C9455
:102BB000E0238E35914011F00C9462240E9409812B
:102BC0000C9462248239B1E09B0711F40C948A22A0
:102BD00014F40C948622843A914011F40C948E22C1
:102BE0000C946224873F21E0920711F40C949823FF
:102BF00094F4853F41E0940711F40C94922314F06F
:102C00000C949523843F914011F00C9462240E940F
:102C100075430C9462248B38B3E09B0711F40C9439
:102C2000DA23873EE3E09E0711F40C94F923833501
:102C3000934011F00C946224E3EFFBE10C94A62383
:102C400017981698159814980C9462248091EE0C9D
:102C5000813019F40E94207F08C06091F70C7091B8
:102C6000F80C8091F90C9091FA0C0091F30C1091F2
:102C7000F40C2091F50C3091F60C601B710B820B5B
:102C8000930B28EE33E040E050E00E94DB8FCA0156
:102C9000B9010091EF0C1091F00C2091F10C3091E2
:102CA000F20C600F711F821F931FECE3CE2ED12C0C
:102CB000E12CF12CA70196010E94DB8F162F072F24
:102CC000CA01B901A70196010E94DB8FD62EC72E3B
:102CD000CA01B90128E130E040E050E00E94DB8FFA
:102CE000FB01C9016DE671E00E94FB929B014D2D35
:102CF0005C2DDE0111967D0121153105D1F00F9378
:102D00001F93CF92DF92FF93EF939F938F933F9305
:102D10002F9385E292E09F938F93FF92AF930E944F
:102D2000D88B0FB6F894DEBF0FBECDBFE3EFFBE14B
:102D300044C0009789F00F931F93CF92DF92FF93C7
:102D4000EF939F938F9385E192E09F938F93FF92F0
:102D5000AF930E94D88BE5CF309779F00F931F93F4
:102D6000CF92DF92FF93EF9389E092E09F938F934E
:102D7000FF92AF930E94D88BD4CF452B69F00F936D
:102D80001F93CF92DF9281E092E09F938F93FF9207
:102D9000AF930E94D88BC5CF0F931F938DEF91E017
:102DA0009F938F93FF92AF930E94D88B0F900F90B9
:102DB0000F900F900F900F90B9CF84918F010F5FFC
:102DC0001F4F882321F00E940E7CF801F6CFB70137
:102DD00089E392E00E94B12B8AE00E940E7C0C9461
:102DE000622483E50E940C7E882311F40C946224F3
:102DF0000E947F7CE82E80E50E940C7E81110AC033
:102E0000EE2021F024982C9A0C946224249A2C9879
:102E10000C94622480E50E940C7E882341F00E947D
:102E20006F7C77FF02C00C9462248B0102C00DE01E
:102E300010E0802FE6E4F2E09491891739F03196A2
:102E400092E0EE36F907C1F70C94CC24E4EDFAE1F8
:102E500084918F010F5F1F4F882321F00E940E7C09
:102E6000F801F6CFEEE6F2E084918F010F5F1F4F7D
:102E7000882311F40C9462240E940E7CF801F4CF94
:102E80000E94AD4C0C9462248091EE0C813011F0C4
:102E90000C94622482E08093EE0C0E94207F609369
:102EA000F70C7093F80C8093F90C9093FA0C0C9437
:102EB00062240E948C2A0C94622488E690E00E948E
:102EC000848181110C9462248091160483FF02C0D6
:102ED0000C94622483E50E940C7E882311F40C94E8
:102EE00062240E949F7C0E94779170930B0C6093E8
:102EF0000A0C80E00E947A300E949F7C20E030E043
:102F000040E752E40E94068C181614F00E948C2AA6
:102F10000E949F7C0C9462248EE40E940C7E882385
:102F200011F40C9462240E946F7C6093560370939A
:102F3000570380935803909359030C94622483E5BC
:102F40000E940C7E882321F00E947F7CC82E01C045
:102F5000C12CC0921604E3EFFBE184918F010F5F57
:102F60001F4F882321F00E940E7CF801F6CFEBE87A
:102F7000F2E084918F010F5F1F4F882321F00E94A0
:102F80000E7CF801F6CFCC20A1F17DE7E72E72E0B0
:102F9000F72E00E010E020E0D12CC601002E02C088
:102FA000959587950A94E2F780FF17C0992493942A
:102FB000920E222319F08CE20E940E7CF7012591DB
:102FC0003491F90184915901FFEFAF1ABF0A8823A8
:102FD00029F00E940E7C9501F4CF922E0F5F1F4FB7
:102FE00022E0E20EF11C0530110509F444C0292D40
:102FF000D4CFE7E8F2E084918F010F5F1F4F882361
:10300000D1F10E940E7CF801F6CF8AE50E94DE7DA8
:10301000882311F40C94CC230E949F7C6B017C01CB
:1030200020E030E040E050EC0E94599287FF02C05F
:103030000C94BE2320E030E040EA50E4C701B60122
:103040000E94068C181614F40C94BE23C092070438
:10305000D0920804E0920904F0920A04C0922D0272
:10306000D0922E02E0922F02F092300242E0C7018D
:10307000B6010E9435298AE00E940E7C0C946224DD
:103080008091160483FF02C00C94622483E50E94A1
:103090000C7E882311F40C9462240E949F7C0E9471
:1030A00077916739710514F066E970E07093070C49
:1030B0006093060C0E9430300C94622489E690E004
:1030C0000E94848181110C949127E2E9F2E08491BD
:1030D0008F010F5F1F4F882321F00E940E7CF801A3
:1030E000F6CF0E94214C8AE00E940E7C0C9491271E
:1030F00083E50E940C7E882311F40C9462240E94C4
:103100007F7C80935E038D3318F08CE380935E03A5
:103110000E94207F6B017C0120915E0330E0A8EECD
:10312000B3E00E942390C60ED71EE81EF91EC0927F
:103130005A03D0925B03E0925C03F0925D030C941F
:1031400062240E9435610C9462248091160483FFEE
:1031500002C00C94622483E50E940C7E8FA381112F
:103160000C94DF2482E50E940C7E81110C94DF24F4
:103170000C94622483E50E940C7E882339F00E941F
:103180006F7C8B016F3F710519F010F00FEF10E0AD
:1031900080E50E940C7E811106C0109360030093AD
:1031A0005F030C9462240E947F7C81110C94622442
:1031B000F4CF80E50E940C7E811106C0109260035E
:1031C00010925F030C9462240E946F7C672B11F0B5
:1031D0000C946224F3CF109211040C94622481E0C9
:1031E000809311040C94622483E50E940C7E882352
:1031F000A1F00E949F7C20E030E04AE754E40E9466
:103200006B8C0E947C9160930A0270930B028093F6
:103210000C0290930D020C94622488E50E94DE7DDE
:1032200081110C94102689E50E94DE7D81110C9499
:1032300010268AE50E94DE7D81110C94102685E41B
:103240000E94DE7D81110C9410260E946D6C0E94FC
:103250006C410C94622483E50E94DE7D882311F486
:103260000C9462240E949F7C20E030E04AE754E402
:103270000E946B8C0E947C91609361037093620347
:1032800080936303909364030C94622442E0A42E21
:1032900043E0B42E05E713E0912CD5018D915D013B
:1032A0000E94DE7D882309F46DC0B3E09B1263C0E9
:1032B0000E949F7C6B017C0120E030E040EA51E4F9
:1032C0000E94068C87FF4EC0A70196016091810382
:1032D0007091820380918303909184030E940F91E7
:1032E0002B013C019B01AC016091C5037091C603A9
:1032F0008091C7039091C8030E946B8C6093C503B3
:103300007093C6038093C7039093C803A3019201EF
:103310006091A9037091AA038091AB039091AC03D3
:103320000E946B8C6093A9037093AA038093AB03F4
:103330009093AC0360917103709172038091730359
:10334000909174030E940A8CA30192010E946B8CDD
:103350000E947C9160937103709372038093730356
:1033600090937403C0928103D0928203E09283030E
:10337000F092840307C00E949F7CF80160837183F0
:103380008283938393940C5F1F4FF4E09F1285CF49
:103390000E94DB6E0C946224E4E7F3E084918F01D9
:1033A0000F5F1F4F882321F00E940E7CF801F6CF9B
:1033B000E6E6F3E084918F010F5F1F4F882321F031
:1033C0000E940E7CF801F6CFEFE4F3E084918F01C8
:1033D0000F5F1F4F882321F00E940E7CF801F6CF6B
:1033E000EFE3F3E084918F010F5F1F4F882321F0FB
:1033F0000E940E7CF801F6CFEEE2F3E084918F019B
:103400000F5F1F4F882321F00E940E7CF801F6CF3A
:10341000EDE1F3E084918F010F5F1F4F882321F0CE
:103420000E940E7CF801F6CFEEE0F3E084918F016C
:103430000F5F1F4F882321F00E940E7CF801F6CF0A
:10344000E9EFF2E084918F010F5F1F4F882321F095
:103450000E940E7CF801F6CFE3EEF2E084918F013A
:103460000F5F1F4F882321F00E940E7CF801F6CFDA
:10347000EEECF2E084918F010F5F1F4F882321F063
:103480000E940E7CF801F6CFE1EBF2E084918F010F
:103490000F5F1F4F882321F00E940E7CF801F6CFAA
:1034A000E9E9F2E084918F010F5F1F4F882311F447
:1034B0000C9462240E940E7CF801F4CF85E40E94F3
:1034C000DE7D882381F00E94907C882361F0E3EF09
:1034D000FBE184918F010F5F1F4F882321F00E9431
:1034E0000E7CF801F6CF81E40E94DE7D882381F016
:1034F0000E94907C882361F0EBE6F4E084918F01D8
:103500000F5F1F4F882321F00E940E7CF801F6CF39
:103510000091850310918603D8018D918D01882338
:1035200009F4A9CD0E940E7CF7CF24982C9AEFE9DC
:10353000F4E084918F010F5F1F4F882321F00E94D8
:103540000E7CF801F6CFE7E9F4E084918F010F5F7C
:103550001F4F882321F00E940E7CF801F6CF1E99A0
:1035600003C00BE912E002C006E912E0F801819104
:103570008F01882319F00E940E7CF8CF8AE00E9408
:103580000E7CEFE8F4E084918F010F5F1F4F8823DA
:1035900021F00E940E7CF801F6CF379903C00BE9A9
:1035A00012E002C006E912E0D8018D918D01882356
:1035B00019F00E940E7CF8CF8AE00E940E7CE7E8AA
:1035C000F4E084918F010F5F1F4F882321F00E9448
:1035D0000E7CF801F6CF1D9903C00BE912E002C082
:1035E00006E912E0F80181918F01882319F00E9409
:1035F0000E7CF8CF8AE00E940E7CEFE7F4E0849125
:103600008F010F5F1F4F882321F00E940E7CF8016D
:10361000F6CF029903C00BE912E002C006E912E0FE
:10362000D8018D918D01882319F00E940E7CF8CF6E
:103630008AE00E940E7CE7E7F4E084918F010F5F3F
:103640001F4F882321F00E940E7CF801F6CF1C99B1
:1036500003C00BE912E002C006E912E0F801819113
:103660008F01882319F00E940E7CF8CF8AE00E9417
:103670000E7CEFE6F4E084918F010F5F1F4F8823EB
:1036800021F00E940E7CF801F6CF019903C00BE9EE
:1036900012E002C006E912E0D8018D918D01882365
:1036A00019F00E940E7CF8CF8AE00E940E7C249ACA
:1036B0002C980C94622481E08093600C80938703A3
:1036C0000C9462241092600C109287030C94622474
:1036D00088EC90E00E94848181110C94622484E43F
:1036E0000E94DE7D8823D1F10E949F7C11E020E0C2
:1036F00030E0A9010E94068C811101C010E01093F6
:103700008C03112359F10091F60310E00E949F7C75
:10371000F801EE0FFF1FEE0FFF1FE857FC4F60830D
:1037200071838283938320E030E0A9016091880354
:103730007091890380918A0390918B030E94068C7B
:1037400081110CC080E090E0A0E4B0E48093880395
:1037500090938903A0938A03B0938B030E94D07C3B
:103760000C94622402E013E02DE8E22E23E0F22E16
:10377000F80181918F010E94DE7D882351F00E9423
:103780009F7C0E947C91D7016D937D938D939C9338
:103790001397B4E0EB0EF11CE3E006301E0741F78F
:1037A0000E94A47B0C946224F4E0EF0EF11C23E051
:1037B0000630120711F40C946224D8018D918D010A
:1037C0000E94DE7D882381F30E949F7CF701608345
:1037D000718382839383E8CF83E50E94DE7D882313
:1037E000D9F00E949F7CAB01BC014093B50350937C
:1037F000B6036093B7037093B8034093B10350933B
:10380000B2036093B3037093B40383E195E00E9425
:10381000ED808AE00E940E7C80E50E94DE7D882398
:1038200099F00E949F7CAB01BC014093B50350937B
:10383000B6036093B7037093B80386EF94E00E94D9
:10384000ED808AE00E940E7C82E50E94DE7D882366
:1038500099F00E949F7CAB01BC014093AD03509353
:10386000AE036093AF037093B00387ED94E00E94C2
:10387000ED808AE00E940E7C84E50E94DE7D882334
:1038800011F40C9462240E949F7CAB01BC01409314
:10389000B1035093B2036093B3037093B40389EB05
:1038A00094E00E94ED808AE00E940E7C0C946224D9
:1038B00083E50E94DE7D882351F00E949F7C609307
:1038C000D1037093D2038093D3039093D40384E500
:1038D0000E94DE7D882351F00E949F7C6093CD037F
:1038E0007093CE038093CF039093D00382E40E9421
:1038F000DE7D882351F00E945F7C6093C903709342
:10390000CA038093CB039093CC0388E50E94DE7DAD
:10391000882351F00E949F7C6093B9037093BA038F
:103920008093BB039093BC0389E50E94DE7D8823CE
:1039300051F00E949F7C6093BD037093BE038093FF
:10394000BF039093C0038AE50E94DE7D882351F077
:103950000E949F7C6093C1037093C2038093C30352
:103960009093C40385E40E94DE7D882309F4AAC7EE
:103970000E949F7C6093C5037093C6038093C70326
:103980009093C8039FC702E0802E03E0902E81E74A
:10399000A82E8CE0B82E05E61CE0712CD4018D9188
:1039A0004D010E94DE7D882311F10E949F7C6B01F6
:1039B0007C01F80120813181428153810E94329043
:1039C0009B01AC01D5016D917D918D919C910E94DF
:1039D0003390F5016083718382839383D801CD9204
:1039E000DD92ED92FC921397872D0E94747D739463
:1039F000B4E0AB0EB11C0C5F1F4FE3E07E12CECFE4
:103A00000E94C5750E94FA7F5DC784918F010F5F88
:103A10001F4F882321F00E940E7CF801F6CF83E52A
:103A20000E94DE7D882321F00E94907C80930E020C
:103A3000E3E6F5E084918F010F5F1F4F882321F0AB
:103A40000E940E7CF801F6CF80910E02882319F0B7
:103A5000EBE5F5E002C0EFE5F5E084918F010F5F43
:103A60001F4F882321F00E940E7CF801F6CFE3E57A
:103A7000F5E084918F010F5F1F4F882321F00E9492
:103A80000E7CF801F6CF4091210250912202609104
:103A900023027091240281E595E00E94ED8040911F
:103AA00025025091260260912702709128028EE42F
:103AB00095E00E94ED804091290250912A02609188
:103AC0002B0270912C028BE495E00E94ED80E3E4E0
:103AD000F5E084918F010F5F1F4F882321F00E9432
:103AE0000E7CF801F6CF40911502509116026091BC
:103AF00017027091180281E495E00E94ED804091D8
:103B0000190250911A0260911B0270911C028EE3FF
:103B100095E00E94ED8040911D0250911E0260913F
:103B20001F02709120028BE395E00E94ED808AE0F5
:103B30000E940E7CC7C683E50E940C7E882309F490
:103B4000C1C60E946F7C7093100260930F02BAC6C8
:103B50008DED90E00E9484818111B4C683E50E94BE
:103B60000C7E882309F4AEC60091F60310E00E9493
:103B70006F7CF801EE0FFF1FEF5EFD4F71836083D6
:103B8000A1C680E50E94DE7D882309F49BC60E94C1
:103B90006F7CF62E062F172F83E50E940C7E88235C
:103BA00021F00E946F7C6B0103C0CC24CA94DC2CF2
:103BB00096012F5F3F4F2330310508F083C617FD74
:103BC00081C60E946D6CFFEFCF16DF0631F0CA94FC
:103BD000CD2871F000E010E00DC08F2D0E94C37E53
:103BE00031E020E0892B09F030E0032F122F02C0D2
:103BF00001E010E08F2D0E94C37E8017910709F429
:103C000061C60E948C53F6CF85E40E940C7E811120
:103C100010C080E50E94DE7D882391F00E949F7C89
:103C20006093DE037093DF038093E0039093E103DE
:103C300007C00E947F7C882361F3E4EDFAE171C044
:103C400089E40E94DE7D882381F00E949F7C2CEA1B
:103C500035EC47E25EE30E946B8C6093DA0370936D
:103C6000DB038093DC039093DD0384E40E94DE7D1C
:103C7000882381F00E949F7C2CEA35EC47E25EE3CA
:103C80000E940F916093D6037093D7038093D8035B
:103C90009093D903E3EFFBE184918F010F5F1F4FF6
:103CA000882321F00E940E7CF801F6CF4091DE03BC
:103CB0005091DF036091E0037091E1038BE795E0A1
:103CC0000E94ED802CEA35EC47E25EE36091DA0376
:103CD0007091DB038091DC039091DD030E940F91D2
:103CE000AB01BC0187E795E00E94BE812CEA35EC70
:103CF00047E25EE36091D6037091D7038091D803C9
:103D00009091D9030E946B8CAB01BC0183E795E0D5
:103D10000E94BE818AE00E940E7CD4C50E940E7C67
:103D2000F80184918F010F5F1F4F8111F7CF05EBD1
:103D300012E0D8018D918D01882309F49CC90E945D
:103D40000E7CF7CF80E50E94DE7D882351F00E9433
:103D50009F7C6093EA037093EB038093EC03909352
:103D6000ED0389E40E94DE7D882381F00E949F7C20
:103D70002CEA35EC47E25EE30E946B8C6093E6032D
:103D80007093E7038093E8039093E90384E40E942F
:103D9000DE7D882381F00E949F7C2CEA35EC47E28F
:103DA0005EE30E940F916093E2037093E3038093BC
:103DB000E4039093E503E3EFFBE184918F010F5F50
:103DC0001F4F882321F00E940E7CF801F6CF40910E
:103DD000EA035091EB036091EC037091ED0387E8E7
:103DE00095E00E94ED802CEA35EC47E25EE36091BD
:103DF000E6037091E7038091E8039091E9030E9444
:103E00000F91AB01BC0183E895E00E94BE812CEAD2
:103E100035EC47E25EE36091E2037091E303809149
:103E2000E4039091E5030E946B8CAB01BC018FE72A
:103E300095E00E94BE818AE00E940E7C43C583E526
:103E40000E94DE7D182F882371F00E949F7C0E94C3
:103E50007791709314026093130221E0672B09F0AD
:103E600020E02093D50380E50E94DE7D882369F061
:103E70008091130290911402892B19F00E94907C7A
:103E800001C081E08093D5031DC511111BC5E3EF6F
:103E9000FBE184918F010F5F1F4F882321F00E9467
:103EA0000E7CF801F6CF8091D503882319F068E9DC
:103EB00072E002C065EA72E080EA95E00E94B12BF0
:103EC00060911302709114028FE895E00E946B815B
:103ED000EBE8F5E084918F010F5F1F4F882309F411
:103EE000F1C40E940E7CF801F5CF85E40E940C7E9F
:103EF000882321F00E946F7C1B0102C0212C312CF1
:103F000083E40E940C7E882339F00E946F7C6296C5
:103F10007FAF6EAF629706C0E5E0F0E06296FFAF5C
:103F2000EEAF629785E50E94DE7D882331F00E9426
:103F3000907C63968FAF639703C063961FAE6397C1
:103F4000E12CF12C37FE03C00CE812E402C006E1BC
:103F500013E483E50E940C7E882321F00E949F7C5D
:103F60007B018C012114310411F41092F6030E949C
:103F7000207F2B013C01C1010196029728F4A6EC99
:103F8000CA2EA2E0DA2E0BC009ED12E0D8018D9105
:103F90008D01882309F46FC80E940E7CF7CFF601CB
:103FA00081916F01882319F00E940E7CF8CF8AE07E
:103FB0000E940E7C0E940C508FE7FFEF2F163F06E9
:103FC00019F48093200C02C08093220CB701C80121
:103FD0000E947791882777FD8095982F0E940C8CFE
:103FE0006BAF7CAF8DAF9EAF81E0809348022C9683
:103FF0004CAE5DAE6EAE7FAE2C9767964CAE5DAEAE
:104000006EAE7FAE67971FAE20E421962FAF21974B
:104010003CE122963FAF229746E423964FAF239789
:1040200024961FAE249725961FAE259726961FAE81
:10403000269727961FAE27971FAA18AE19AE1AAE5D
:104040001BAA1CAA1DAA1EAAC12CD12C7601FFE70F
:104050008F2E912CA12CB12C8FE790E0A0E0B0E046
:104060008BA79CA7ADA7BEA760961CAE1DAE1EAECB
:104070001FAE609791E028969FAF289718AA1FA6B9
:1040800010E01F8E1BA200E080914802882309F4F3
:1040900033C20E94207F6FA378A789A79AA7809137
:1040A0000E0C882309F408C10E945C50AFEF2A1659
:1040B0003A0659F41091F203B091F303BF8FE091E7
:1040C000F403EBA30091F5030AC01091EE03F09105
:1040D000EF03FF8F2091F0032BA30091F103212F19
:1040E0003F8D4BA1502F24966FAD249725967FAD21
:1040F000259726968FAD269727969FAD27970E94E6
:10410000068C87FF0EC024961FAF24973F8D2596FF
:104110003FAF25974BA126964FAF269727960FAF17
:104120002797212F3F8D4BA1502F6FAD21967FAD4B
:10413000219722968FAD229723969FAD23970E94B9
:104140005992181664F41FAF5F8D21965FAF2197C7
:104150008BA122968FAF229723960FAF2397289695
:104160009FAD2897992309F452C02BAD3CAD4DADBE
:104170005EAD612F7F8D8BA1902F0E9459921816F2
:104180000CF09AC08FA198A5A9A5BAA58419950984
:10419000A609B709AC01BD0148585341610971092D
:1041A00077FD8AC04BA55CA56DA57EA54819590968
:1041B0006A097B097595679557954795EFEF2E1618
:1041C0003E0619F44093200C02C04093220C6096E6
:1041D0008CAF9DAFAEAFBFAF6097FBAD2496FFAF86
:1041E00024972CAD25962FAF25973DAD26963FAF52
:1041F00026974EAD27964FAF27978FA198A5A9A5D3
:10420000BAA52C968CAF9DAFAEAFBFAF2C972BADA0
:104210003CAD4DAD5EAD612F7F8D8BA1902F0E9487
:10422000068C87FF7AC68FA198A5A9A5BAA52C965A
:104230002CAD3DAD4EAD5FAD2C97821B930BA40B07
:10424000B50BAC01BD01485853416109710977FDB7
:1042500064C64FA558A9452B09F004C58BA59CA59C
:10426000ADA5BEA5880D991DAA1DBB1DB595A79529
:10427000979587954FEF2416340609F04BC6809327
:10428000200C8FA598A9019698AB8FA79BAD9FAFE7
:10429000ACAD2196AFAF2197BDAD2296BFAF2297AF
:1042A000EEAD2396EFAF23974FA058A469A47AA44C
:1042B000F1E02896FFAF289720E030E040EA51E493
:1042C0006BAD7CAD8DAD9EAD0E9433909B01AC017A
:1042D000612F7F8D8BA1902F0E94599218166CF43C
:1042E000E0E7F6E084918F010F5F1F4F882309F408
:1042F000E9C20E940E7CF801F5CF80E398EFAFEFA2
:10430000BFEF67962CAD3DAD4EAD5FAD6797821B9D
:10431000930BA40BB50B2FA138A549A55AA5820F65
:10432000931FA41FB51FB7FD0FC00E94214C8AE048
:104330000E940E7C8FA198A5A9A5BAA567968CAFFF
:104340009DAFAEAFBFAF67978FA198A5A9A5BAA53E
:10435000880F991FAA1FBB1F84199509A609B709C1
:104360002C962CAD3DAD4EAD5FAD2C97821B930BC3
:10437000A40BB50B81389F44A241B10568F0E2E57A
:10438000F6E084918F010F5F1F4F882309F49AC2D2
:104390000E940E7CF801F5CF4FA558A962968EAD0C
:1043A0009FAD6297841795070CF06ECEE5EFF5E0B0
:1043B00084918F010F5F1F4F882321F00E940E7C94
:1043C000F801F6CF9FEF2916390619F409EA12E031
:1043D00002C009E113E0B80183EE95E00E94B12B21
:1043E000B701A6018FED95E00E94ED808AE00E9462
:1043F0000E7CB8018DEC95E00E94B12B4BA95CA915
:104400006DA97EA989EC95E00E94ED808AE00E946A
:104410000E7CB80187EB95E00E94B12B4FA958ADF7
:1044200069AD7AAD83EB95E00E94ED808AE00E9451
:104430000E7C6396AFAD6397AA2309F443C2232091
:10444000209469F5C092EA03D092EB03E092EC036A
:10445000F092ED032CEA35EC47E25EE36BA97CA910
:104460008DA99EA90E946B8C6093E6037093E7036D
:104470008093E8039093E9032CEA35EC47E25EE38E
:104480006FA978AD89AD9AAD0E940F916093E20358
:104490007093E3038093E4039093E50313C2C09207
:1044A000DE03D092DF03E092E003F092E1032CEA16
:1044B00035EC47E25EE36BA97CA98DA99EA90E9419
:1044C0006B8C6093DA037093DB038093DC0390932F
:1044D000DD032CEA35EC47E25EE36FA978AD89ADE8
:1044E0009AAD0E940F916093D6037093D703809387
:1044F000D8039093D903E6C1809148028111E2C1AB
:104500000E940C50DFC10E946D6CDCC181E00E94F2
:10451000243AD8C180E00E94243AD4C186E50E94A2
:10452000DE7D882321F081E197E00E94B18083E560
:104530000E94DE7D882321F00E94907C182F01C00C
:1045400010E083E50E94DE7D882319F0812F0E9410
:104550009E4DF090F703111103C0E3EFFBE11AC089
:10456000F110FBCFE4EDFAE184918F010F5F1F4F53
:10457000882321F00E940E7CF801F6CFE2EFF6E0EE
:1045800084918F010F5F1F4F882339F30E940E7CA7
:10459000F801F6CF84918F010F5F1F4F882321F020
:1045A0000E940E7CF801F6CFFF2019F06DEA72E050
:1045B00002C061EB72E084EE96E00E94B12B8AE0CB
:1045C0000E940E7C7FC185E6882E8CE0982E91E7B4
:1045D000A92E9CE0B92E24E0222E24E0322E00E009
:1045E00010E0E22DE095EF8FD1018D911D01882320
:1045F00009F48BC0F5014080518062807380F8011E
:10460000EB5EFD4F2081318142815381F801EF5DE6
:10461000FD4F60817181828193810E94339020E0FF
:1046200030E040E05FE30E946B8C9B01AC01C30172
:10463000B2010E945992181644F4F801E25DF84F55
:10464000C590D590E590F49003C0C12CD12C760193
:10465000F801E850FC4F2081318142815381C30130
:10466000B2010E9432909B01AC01C701B6010E94C9
:1046700032906B017C0120E030E040EA51EC0E9476
:10468000599287FD29C020E030E040EA51E4C7019B
:10469000B6010E94068C1816FCF0D4012D913D91B4
:1046A0004D915C91C701B6010E9432909B01AC0113
:1046B000C301B2010E943390F5016083718382834C
:1046C0009383D401CD92DD92ED92FC9213978F8D5E
:1046D000820D0E94747D19C0E4EDFAE184918F018E
:1046E0000F5F1F4F882321F00E940E7CF801F6CF48
:1046F000EAE3F7E084918F010F5F1F4F882309F4ED
:10470000E1C00E940E7CF801F5CFB4E08B0E911C45
:104710000C5F1F4FE4E0AE0EB11C0C30110509F028
:1047200063CF6EC90E94CE70CDC00E946D6FCAC0AB
:1047300083E50E94DE7D882319F00E94907C01C0F1
:1047400081E091E089270E941648BCC084918F01C6
:104750000F5F1F4F882321F00E940E7CF801F6CFD7
:10476000E0E7F7E084918F010F5F1F4F882311F47A
:104770000C9405180E940E7CF801F4CFEBE5F7E0ED
:1047800084918F010F5F1F4F882311F40C943B1805
:104790000E940E7CF801F4CF409107045091080468
:1047A0006091090470910A0488E597E00E94ED8009
:1047B0000C943B180E94504D85C00E94358182C0E8
:1047C000E4EDFAE184918F010F5F1F4F882321F000
:1047D0000E940E7CF801F6CFEAE7F7E084918F01A2
:1047E0000F5F1F4F882309F46DC00E940E7CF801F3
:1047F000F5CF81E08093310283E50E94DE7D811157
:1048000003C00E94704E5EC00E94907C81115AC00D
:10481000F8CFF0901304FF2021F1E3EFFBE1849146
:104820008F010F5F1F4F882321F00E940E7CF8013B
:10483000F6CF84E50E940E7C6F2D70E080E090E062
:104840004AE087D480E20E940E7C05EB12E0D8019A
:104850008D918D01882311F40C943B180E940E7CDD
:10486000F6CF10920B04E3EFFBE184918F010F5F11
:104870001F4F882321F00E940E7CF801F6CF60E0E4
:1048800070E089E897E00E946B818AE00E940E7CCC
:1048900019C0E3EFFBE184918F010F5F1F4F882365
:1048A00021F00E940E7CF801F6CF60910C0470910B
:1048B0000D048BE997E055D782E20E940E7C8AE0D6
:1048C0000E940E7C0E94024E2CC3209185033091E1
:1048D0008603232B39F49F0121503109309386033D
:1048E0002093850320E030E00C946A0F80E00E9462
:1048F0009E4D0E944F7F83E50E94DE7D882309F450
:1049000049C00E94907C21E0482FBE016F5F7F4F1D
:10491000CE0146960E94B23A6B017C019B01AC012C
:104920000E94DF92811131C02CEA35EC47E257E357
:104930006E897F89888D998D0E943390AB01BC016F
:1049400085EF91E00E94BE812CEA35EC47E257E307
:1049500069817A818B819C810E943390AB01BC017B
:1049600080EF91E00E94BE812CEA35EC47E257E3EC
:10497000C701B6010E943390AB01BC018BEE91E000
:104980000E94BE818AE00E940E7C0E94367F0E94B7
:10499000FA7F98CF81E0B7CF802FDBD46E2D802FA8
:1049A0000E94EB7EF12CB701802FF2D40830110564
:1049B00009F088CFF0926003E0925F0383CF0E94FA
:1049C0009F7C0E9477916739710514F066E970E069
:1049D0007093070C6093060C0E9430300E949F7CFD
:1049E00020E030E040EA50E40E945992181614F496
:1049F0000E94AD4C81E08093480280910B0480932B
:104A0000F6031BA21CA21DA21EA21BA61CA61DA66D
:104A10001EA61F8E1FA63CE33BAB4CE14FAB56E4FA
:104A20005BAFC12CD12C50E8E52E6FEBF62E812C1C
:104A3000912C54016091060C7091070C882777FD2A
:104A40008095982F0E940C8C162F072F782E692E98
:104A5000262F372F482F592FB601C7010E94068CE9
:104A60008823D9F02091F2033091F3034091F403AD
:104A70005091F503612F702F872D962D0E94068C83
:104A8000881F8827881F8F8F8FA1882351F09F8DC3
:104A9000992339F08091480215CF1C2D0D2D7E2CC5
:104AA0006F2C0E94207F6B017C01DC01CB012BA5C8
:104AB0003CA54DA55EA5821B930BA40BB50BB7FDC2
:104AC00038C0D701C60188519C4FAF4FBF4F8BA74D
:104AD0009CA7ADA7BEA70E94214CE5E9F2E0849116
:104AE0002F019FEF491A590A882321F00E940E7C5A
:104AF000F201F5CF81149104A104B104A1F0C50124
:104B0000B40168517C4F8F4F9F4F6C197D098E09FE
:104B10009F0928EE33E040E050E00E94DB8FCA019D
:104B2000B90188D303C08FE30E940E7C8AE00E9403
:104B30000E7C0E948C530E942C7F2090F2033090B8
:104B4000F3034090F4035090F5039101A201612F0B
:104B5000702F872D962D0E9432909F7720E030E0B5
:104B600040EA50E481149104A104B10429F40E94A4
:104B7000068C87FD05C006C00E945992181614F4D1
:104B800046015701AF8DAA2379F12BA13CA14DA17C
:104B90005EA1211531054105510541F0D701C6013E
:104BA000821B930BA40BB50BB7FD1EC09101A20194
:104BB0006FA57BA98FA99BAD0E94329020E030E0C9
:104BC00040EC5FE30E94068C87FD64CFD701C601ED
:104BD000805A9541AF4FBF4F8BA39CA3ADA3BEA3FB
:104BE0002FA63BAA4FAA5BAE80914802882309F406
:104BF00051CF81149104A104B10429F4C12ED02E07
:104C0000E72CF62C17CF98EEC91A93E0D90AE108E1
:104C1000F108C818D908EA08FB08F7FE3BCFEECF29
:104C20000E946D6C88E50E94DE7D882319F0179A3A
:104C30001092610C89E50E94DE7D882319F0169A96
:104C40001092620C8AE50E94DE7D882319F0159A85
:104C50001092630C85E40E94DE7D882309F432CE35
:104C6000149A30CE60964CAC5DAC6EAC7FAC609765
:104C7000480E591E6A1E7B1E60962CAD3DAD4EAD92
:104C80005FAD6097281B390B4A0B5B0BCA01B9015A
:104C9000A50194010E94CC8FA30192010E94FD8F77
:104CA00049015A018BA59CA5ADA5BEA5880E991EEC
:104CB000AA1EBB1E94E189169104A104B1040CF153
:104CC000ACEE8A169104A104B1043CF4B0E88B1652
:104CD0009104A104B1041CF105C06BEE862E912C49
:104CE000A12CB12C8BA69CA6ADA6BEA62EEF30E0C3
:104CF00040E050E0281939094A095B0949015A0185
:104D000012C084E190E0A0E0B0E08BA79CA7ADA723
:104D1000BEA754E1852E912CA12CB12C04C08BA6EA
:104D20009CA6ADA6BEA62CED36E0F90184918823A1
:104D300089F02F5F3F4F68962FAF689769963FAF16
:104D400069970E940E7C68962FAD689769963FAD73
:104D50006997EBCF6BA57CA58DA59EA56BD227EDA2
:104D600036E0F9018491882389F02F5F3F4F6896E0
:104D70002FAF689769963FAF69970E940E7C68963F
:104D80002FAD689769963FAD6997EBCFC501B40128
:104D900051D24FAD21965FAD219722966FAD2297EC
:104DA00023967FAD239780ED96E00E94ED802496B8
:104DB0004FAD249725965FAD259726966FAD269724
:104DC00027967FAD279789EC96E00E94ED802FA56E
:104DD00038A9233031050CF441CAC501B4010E9441
:104DE0000C8C20E030E040E850E40E946B8C6B01BA
:104DF0007C012FAD21963FAD219722964FAD229792
:104E000023965FAD239724966FAD249725967FADAB
:104E1000259726968FAD269727969FAD27970E94B8
:104E200032902BED3FE049E450E40E946B8C20E08F
:104E300030E040E05FE30E946B8C9B01AC01C70156
:104E4000B6010E940F916B017C01C301B2010E9467
:104E50000C8C2FE632E143E85AE30E946B8C2B0165
:104E60003C01B701A60183EC96E00E94ED80B301FE
:104E7000A2018DEB96E00E94ED802AE939E949E133
:104E80005FE3C701B6010E946B8C6B017C019B0143
:104E9000AC010E943390A30192010E940F916BAB71
:104EA0007CAB8DAB9EABA3019201C701B6010E9402
:104EB0006B8C20E030E040E05EE30E946B8C6FABD7
:104EC00078AF89AF9AAFEDEAF6E084913F013FEF0A
:104ED000631A730A882321F00E940E7CF301F5CF38
:104EE000B701A60187EA96E00E94ED804BA95CA974
:104EF0006DA97EA981EA96E00E94ED804FA958AD88
:104F000069AD7AAD8BE996E00E94ED808AE00E945F
:104F10000E7CA4C98093220CB4C928961FAE289792
:104F2000CBC9C75ADF4F0FB6F894DEBF0FBECDBF57
:104F3000DF91CF911F910F91FF90EF90DF90CF9075
:104F4000BF90AF909F908F907F906F905F904F90A9
:104F50003F902F900895FB014081FC012081318119
:104F6000342768E0A901440F551F37FD07C09A0197
:104F70006150C1F7FC013183208308959A01F1E269
:104F80002F27F0E13F27F4CF4F925F926F927F92ED
:104F90008F929F92AF92BF92CF92DF92EF92FF9249
:104FA000CF93DF93CDB7DEB728970FB6F894DEBF67
:104FB0000FBECDBF2496AEADBFAD24978D919D9110
:104FC0000D90BC91A02D89839A83AB83BC832296DC
:104FD000EEADFFAD2297C080D180E280F380AEAD10
:104FE000BFAD8D909D90AD90BC902E8D3F8D48A112
:104FF00059A1C501B4010E946B8C2B013C012AA56B
:105000003BA54CA55DA5C701B6010E946B8C9B0119
:10501000AC01C301B2010E9433902B013C012EA9C7
:105020003FA948AD59AD69817A818B819C810E94ED
:105030006B8C9B01AC01C301B2010E9433906D8364
:105040007E838F8398872AA13BA14CA15DA1C501D6
:10505000B4010E946B8C2B013C012EA53FA548A9F1
:1050600059A9C701B6010E946B8C9B01AC01C30119
:10507000B2010E9433902B013C012AAD3BAD4CADF7
:105080005DAD69817A818B819C810E946B8C9B01D3
:10509000AC01C301B2010E9433902B013C012A8D67
:1050A0003B8D4C8D5D8DC501B4010E946B8C4B0115
:1050B0005C012EA13FA148A559A5C701B6010E94D8
:1050C0006B8C9B01AC01C501B4010E9433906B0154
:1050D0007C012AA93BA94CA95DA969817A818B81B0
:1050E0009C810E946B8C9B01AC01C701B6010E94A0
:1050F0003390EEADFFAD60837183828393838D81A6
:105100009E81AF81B8852296EEADFFAD2297808358
:105110009183A283B3832496AEADBFAD24974D9205
:105120005D926D927C92139728960FB6F894DEBF2D
:105130000FBECDBFDF91CF91FF90EF90DF90CF906A
:10514000BF90AF909F908F907F906F905F904F90A7
:105150000895AF92BF92CF92DF92EF92FF920F939A
:105160001F93CF93DF93CDB7DEB7A0970FB6F89418
:10517000DEBF0FBECDBF6115710581059105B1F18F
:10518000B12CC42ED12CE12CF12CAA24A394AB0C6D
:1051900001E010E00C0F1D1F0B0D111DB7FC1A953F
:1051A000A70196010E94DB8FF8016083B901CA0153
:1051B000611571058105910511F41B2D12C0BA2CE2
:1051C000E4CFE1E0F0E0EC0FFD1FE10FF11D17FD72
:1051D000FA9580818A3040F490E3890F0E940E7C1A
:1051E00011501F3F71F715C097E3F7CF80E3A096EA
:1051F0000FB6F894DEBF0FBECDBFDF91CF911F91E8
:105200000F91FF90EF90DF90CF90BF90AF900C94F4
:105210000E7CA0960FB6F894DEBF0FBECDBFDF9117
:10522000CF911F910F91FF90EF90DF90CF90BF90A3
:10523000AF900895CF92DF92EF92FF926B017C01C5
:1052400097FF0BC08DE20E940E7CF094E094D09406
:10525000C094C11CD11CE11CF11C4AE0C701B6017D
:10526000FF90EF90DF90CF9074CF8F929F92AF928C
:10527000BF92CF92DF92EF92FF92CF936B017C01AE
:10528000B42E20E030E0A9010E94068C87FF07C001
:105290008DE20E940E7CF7FAF094F7F8F094C0E0EB
:1052A00060E070E080E09FE3CB1541F02DEC3CEC3A
:1052B0004CEC5DE30E946B8CCF5FF6CF9B01AC01A1
:1052C000C701B6010E9433906B017C010E947C9162
:1052D0004B015C014AE03DDFCC2389F1C501B401FB
:1052E0000E940A8C9B01AC01C701B6010E9432905A
:1052F0006B017C018EE20E940E7C20E030E040E2F7
:1053000051E4C701B6010E946B8C6B017C010E94C5
:1053100077914B01AA2497FCA094BA2CC501B40143
:1053200089DFC501B4010E940C8C9B01AC01C7014F
:10533000B6010E9432906B017C01C150F1F6CF9111
:10534000FF90EF90DF90CF90BF90AF909F908F90A5
:10535000089590E0FC01E55BF64F2491FC01EB5FC2
:10536000F64F8491882399F090E0880F991FFC01F3
:10537000E551F74FA591B4918F52974FFC0185915C
:1053800094919FB7F8948C91822B8C939FBF089532
:105390001F93CF93DF93182FEB01DBDF209711F4DE
:1053A00060E004C0CF3FD10539F461E0812FDF9187
:1053B000CF911F910C94EB7EE12FF0E0EF56F64F6A
:1053C000449150E0FA013197E231F10508F09BC0B9
:1053D000EE58FF4F0C94229384B5806884BDC7BDFE
:1053E00097C084B5806284BDC8BD92C080918000A2
:1053F000806880938000D0938900C093880088C023
:1054000080918000806280938000D0938B00C09355
:105410008A007EC080918000886080938000D09355
:105420008D00C0938C0074C08091B0008068809320
:10543000B000C093B3006CC08091B00080628093D4
:10544000B000C093B40064C08091900080688093E5
:105450009000D0939900C09398005AC0809190001A
:10546000806280939000D0939B00C0939A0050C0BC
:1054700080919000886080939000D0939D00C093AD
:105480009C0046C08091A00080688093A00080911D
:10549000A0008F7B8093A000D093A900C093A800A8
:1054A00037C08091A00080628093A000D093AB00B1
:1054B000C093AA002DC08091A00088608093A000B6
:1054C000D093AD00C093AC0023C0809120018068D0
:1054D00080932001D0932901C093280119C08091A5
:1054E0002001806280932001D0932B01C0932A0178
:1054F0000FC080912001886080932001D0932D01FE
:10550000C0932C0105C0C038D1050CF04ECF48CF58
:10551000DF91CF911F9108958091EE0C81508230E0
:1055200010F080E008951092EE0C0E94207F6093AE
:10553000F70C7093F80C8093F90C9093FA0C81E0BF
:105540000895FF920F931F93CF93DF93F09004047D
:1055500081E0F82600910504082710910604182719
:10556000F11002C0002319F0E3EFFBE104C01111B8
:10557000FBCF80E048C08491EF012196882321F081
:105580000E940E7CFE01F7CFEEEBF8E08491EF0174
:105590002196882321F00E940E7CFE01F7CFFF2088
:1055A00059F0ECEBF8E08491EF012196882321F08B
:1055B0000E940E7CFE01F7CF002359F0EAEBF8E0E1
:1055C0008491EF012196882321F00E940E7CFE0138
:1055D000F7CF111103C0E0EBF8E00BC0E8EBF8E007
:1055E0008491EF0121968823B1F30E940E7CFE0185
:1055F000F7CF8491EF012196882321F00E940E7C41
:10560000FE01F7CF81E0DF91CF911F910F91FF90C5
:1056100008958F929F92AF92BF92CF92DF92EF92B6
:10562000FF920F931F93CF93DF931F921F92CDB7DB
:10563000DEB77C0149018091240C811147C08B01A8
:105640005B01A40EB51E0A151B0509F43FC0F70146
:10565000C080D180F80161918F016983C6016A839E
:105660000E94BC8E6A81681729F1C6010E94C48E0F
:10567000C6010E94BC8E99818917E1F0E3EFFBE13E
:1056800084918F010F5F1F4F882321F00E940E7CB1
:10569000F801F6CFE6E9F8E084918F010F5F1F4F24
:1056A000882321F00E940E7CF801F6CF81E08093E0
:1056B000240C0CC0BE016F5F7F4FC4014CDCF701AE
:1056C00080819181019691838083BDCF0F900F904F
:1056D000DF91CF911F910F91FF90EF90DF90CF90CE
:1056E000BF90AF909F908F900895AF92BF92CF924E
:1056F000DF92EF92FF920F931F93CF93DF931F924E
:10570000CDB7DEB78C016B017A0159018091240C71
:1057100081111BC0F801808191810E94BC8E898318
:10572000F60181936F01BE016F5F7F4FC50113DCEE
:10573000F801408151814F5F5F4F51834083F1E019
:10574000EF1AF108E114F10429F70F90DF91CF91DE
:105750001F910F91FF90EF90DF90CF90BF90AF908F
:1057600008950F931F93CF93DF931F921F92CDB78E
:10577000DEB7FC0184918F010F5F1F4F811102C0C2
:105780008B0108C069837A830E940E7CF8016981CD
:105790007A81F0CFD8018D918D01882319F00E9474
:1057A0000E7CF8CF0F900F90DF91CF911F910F914A
:1057B0000895BF92CF92DF92EF92FF920F931F93C3
:1057C000CF93DF93CDB7DEB76E970FB6F894DEBFF9
:1057D0000FBECDBF6091B1057091B2056115710525
:1057E00069F14DE150E08E010F5F1F4FC8010E942B
:1057F000AF8B1E8EF8017F01E01AF10AB190BB2039
:1058000031F18AE0B812F7CF22C0B80184EC98E0F9
:10581000A8DF82E20E940E7C8AE00E940E7CBB2000
:1058200069F18FEFE81AF80A8091B1059091B205FD
:105830008E0D9F1D9093B2058093B10581E020915C
:10584000B1053091B205232BE1F480E01AC0F801D4
:10585000EE0DFF1D108260E0C8010E942C7C8823A1
:1058600069F3E3EFFBE184916F019FEFC91AD90A55
:10587000882359F20E940E7CF601F5CF80E090E07B
:10588000D9CF6E960FB6F894DEBF0FBECDBFDF91B5
:10589000CF911F910F91FF90EF90DF90CF90BF902D
:1058A0000895CF92DF92EF92FF920F931F93CF93C1
:1058B000DF93E091FE0BF091FF0B82819381A48135
:1058C000B581181619061A061B06E4F58091FD0B22
:1058D0009091B0054091AF0580FF15C083B18295CE
:1058E00086958695837051E08527282F21709E7FAD
:1058F000292B2093B005942F9170922319F1809158
:10590000A10C81601AC086B1292F30E0992787FD4C
:10591000909580959095990F880B982F82279327C3
:1059200080719927822793278093B005942F9071D7
:10593000982341F08091A10C80618093A10C80E0BC
:105940000E94917AE091FE0BF091FF0B8681978186
:10595000A085B185181619061A061B060CF049C059
:105960009091FD0B8091B0053091AF0591FF1FC064
:1059700023B190E022952695277041E0242720FB53
:10598000CC24C0F8D12CD194C194D108C826D926F2
:1059900022E0C222DD24C826D926C092B005832F7A
:1059A00082708C2131F18091A10C82601DC020B1E8
:1059B00090E02695269541E0242720FBEE24E0F890
:1059C000F12CF194E194F108E826F92620E2E22294
:1059D000FF24E826F926E092B005832F80728E21FD
:1059E00041F08091A10C80628093A10C81E00E9423
:1059F000917AE091FE0BF091FF0B82859385A4854F
:105A0000B585181619061A061B060CF049C09091A8
:105A1000FD0B8091B00592FF22C09091640C9923F8
:105A200009F43EC023B190E022952F7031E0232786
:105A3000022F017010E0119501951109082719270F
:105A400004701127082719270093B0058091AF052E
:105A50008470802329F18091A10C84601CC020B146
:105A600090E0269531E023272170C22F20E0D22F2D
:105A7000D195C195D109C827D927C074DD27C8277A
:105A8000D927C093B0058091AF0580748C2341F075
:105A90008091A10C80648093A10C82E00E94917A95
:105AA0008091B0058093AF05DF91CF911F910F9149
:105AB000FF90EF90DF90CF9008954F925F926F929A
:105AC0007F928F929F92AF92BF92CF92DF92EF928E
:105AD000FF920F931F93CF93DF9300D01F92CDB708
