:100000000C9418280C944FF10C9424F10C94F9F0F2
:100010000C94CEF00C94A3F00C9478F00C944DF06A
:100020000C9422F00C9449280C9449280C944928EB
:100030000C9449280C940D6D0C9449280C94492873
:100040000C9449280C94D4B10C9449280C94492858
:100050000C9449280C9449280C94DE7C0C94DCF216
:100060000C9449280D9496060D9430070C94492859
:100070000C9449280C9449280C9449280C9449283C
:100080000C9449280C9449280C9449280C9449282C
:100090000C9449280C9449280C9449280C9449281C
:1000A0000C9449280C9449280C9449280C9449280C
:1000B0000C9449280C9449280C9449280C944928FC
:1000C0000C9449280C9449280C9449280C944928EC
:1000D0000C9449280C9449280C9449280C944928DC
:1000E0000C94492878A978A97FA97FA97FA986A916
:1000F00086A986A993A98DA98DA98DA9B1EDB4ED85
:10010000A3EDA7EDADEDEBEDB8EDBCEDC2EDC6EDA9
:10011000CAEDD0EDD4EDD8EDEBEDDEEDE2EDE6EDA0
:10012000F8F1FDF102F20CF216F28FF220F228F251
:1001300030F23AF244F24EF25DF267F28FF271F26F
:100140007BF285F2E200E600EE00EA00F000E0005B
:10015000DA00E000D600DC00E000D800084AD73B17
:100160003BCE016E84BCBFFDC12F3D6C74319ABD86
:1001700056833DDA3D00C77F11BED9E4BB4C3E91AA
:100180006BAAAABE000000803F05A84CCDB2D44E99
:10019000B93836A9020C50B9918688083CA6AAAA9B
:1001A0002ABE000000803F000D9492010D94FB06D2
:1001B0000D9405070D94F7060D94FF060D94890123
:1001C0000D9408070D94C9060D9448100D94CF06A0
:1001D0000D9488010D94EB060D94930B0D94E0069D
:1001E0000D94F3060D942D000D9494014E414E494B
:1001F0004E495459494E46CDCCCC3D0AD7233C17E5
:10020000B7D13877CC2B329595E6241FB14F0A0031
:100210000020410000C84200401C4620BCBE4CCA21
:100220001B0E5AAEC59D74434F4D4D554E4943412B
:1002300054494F4E0044525952554E004552524F68
:10024000525300494E464F004543484F0020746FBB
:100250006F206C6F6E6720657874727573696F6E4E
:100260002070726576656E7465640A0020636F6C39
:100270006420657874727573696F6E20707265762C
:10028000656E7465640A0047322F473320626164EB
:1002900020706172616D65746572730A00536C65DC
:1002A00065702E2E2E00205A3A200020593A200048
:1002B00042656420583A2000526573756D696E6717
:1002C000207072696E74004C756C7A426F74204DA8
:1002D000696E69204C43442072656164792E004345
:1002E0006C69636B20746F20726573756D652E2E5B
:1002F0002E004E6F206D6F76652E004D3132350029
:1003000046696C652064656C657465643A00446593
:100310006C6574696F6E206661696C65642C20463B
:10032000696C653A20006F70656E206661696C6566
:10033000642C2046696C653A2000457874727564B7
:100340006572202573004C756C7A426F74204D697C
:100350006E69204C43442072656164792E00480226
:1003600043023C02350227026F666600444542554F
:10037000473A006F6B00436F6F6C696E6720646F64
:100380006E652E0048656174696E6720646F6E65E6
:100390002E0020573A0045787472756465722025E6
:1003A00073004C756C7A426F74204D696E69204CF5
:1003B00043442072656164792E0042656420646F55
:1003C0006E652E0020573A004265642068656174AE
:1003D000696E672E0042656420636F6F6C696E679B
:1003E0002E004C756C7A426F74204D696E69204CFA
:1003F0004344204F66662E00454D455247454E43C7
:10040000595F50415253455200434153455F4C4957
:100410004748545F4252494748544E45535300544D
:100420004F47474C455F4C494748545300534F464C
:1004300054574152455F504F574552004255494C21
:10044000445F50455243454E54004C4556454C4937
:100450004E475F44415441005A5F50524F4245005D
:100460004155544F4C4556454C005052494E545FEF
:100470004A4F420050524F47524553530041555442
:100480004F5245504F52545F54454D5000564F4CBB
:10049000554D455452494300454550524F4D005328
:1004A000455249414C5F584F4E5F584F46460046B3
:1004B00049524D574152455F4E414D453A4D61724B
:1004C0006C696E20204649524D574152455F564552
:1004D0005253494F4E3A312E312E382E382045583E
:1004E0005452554445525F545950453A466C6578CC
:1004F000797374727564657220534F555243455F2A
:10050000434F44455F55524C3A68747470733A2FA8
:100510002F636F64652E616C6570686F626A6563D6
:1005200074732E636F6D2F646966667573696F6E81
:100530002F4D41524C494E2050524F544F434F4C37
:100540005F56455253494F4E3A312E30204D41436C
:1005500048494E455F545950453A4C756C7A426F44
:1005600074204D696E69204C4344204558545255BF
:100570004445525F434F554E543A312055554944F6
:100580003A30383366363866312D303238652D349E
:100590003934632D393865312D66326530646661D2
:1005A00065653961350A002F2F20007A5F6D61780B
:1005B0003A20007A5F6D696E3A2000795F6D61784C
:1005C0003A2000795F6D696E3A2000785F6D61783E
:1005D0003A2000785F6D696E3A20005265706F7244
:1005E00074696E6720656E6473746F7020737461D4
:1005F0007475730A004D31343520533C696E64655F
:10060000783E206F7574206F662072616E6765207A
:1006100028302D31290A0053657474696E6720549F
:10062000726176656C20416363656C6572617469A3
:100630006F6E3A200053657474696E67205265745A
:100640007261637420416363656C65726174696F84
:100650006E3A200053657474696E67205072696E3B
:100660007420416363656C65726174696F6E3A20D2
:100670000053657474696E67205072696E742061EE
:100680006E642054726176656C20416363656C65AD
:10069000726174696F6E3A2000205A002059005828
:1006A0000020204D61783A2000205A00205900583F
:1006B0000020204D696E3A20004F6E20004F666684
:1006C00000536F667420656E6473746F70733A20A4
:1006D0000050726F6265205A204F66667365743AE7
:1006E000200020643A0020693A0020703A0020641B
:1006F0003A0020693A0020703A0043290A006162FA
:100700006C656420286D696E2074656D70200043EF
:100710006F6C6420657874727564657320617265AE
:100720002000426564204C6576656C696E67200028
:100730004661696C656420746F20656E61626C65EA
:1007400020426564204C6576656C696E670A0042DC
:100750006564204C6576656C20436F7272656374C6
:10076000696F6E204D61747269783A0041637469F3
:1007700076652045787472756465723A2000556E0E
:100780006B6E6F776E20636F6D6D616E643A2022C1
:10079000004D6F76652059004D6F7665205A0045F3
:1007A00078747275646572004D6F766520302E31F5
:1007B0006D6D004D6F766520316D6D004D6F766506
:1007C0002031306D6D004D6F766520617869730062
:1007D0004578747275646572004D6F7665205A00B5
:1007E0004D6F76652059004D6F766520580045782D
:1007F000747275646572004D6F7665205A004D6F96
:1008000076652059004D6F76652058004D6F7665EE
:100810006D656E7400436F6F6C646F776E00466138
:100820006E2073706565640046616E207370656547
:10083000640042656400426564004E6F7A7A6C65BC
:10084000004E6F7A7A6C65004D61696E0056547285
:100850006176206D696E005654726176206D696E06
:10086000005654726176206D696E00566D696E0097
:10087000566D696E00566D696E00566D6178204543
:1008800000566D6178204500566D61782045005610
:100890006D6178205A00566D6178205A00566D615E
:1008A00078205A00566D6178205900566D61782085
:1008B0005900566D6178205900566D6178205800B6
:1008C000566D6178205800566D61782058004D6F44
:1008D00074696F6E00416D6178204500416D6178EB
:1008E000204500416D6178205A00416D6178205AA1
:1008F00000416D6178205900416D617820590041B7
:100900006D6178205800416D6178205800412D7448
:10091000726176656C00412D74726176656C004180
:100920002D7265747261637400412D726574726119
:10093000637400416363656C00416363656C004DE3
:100940006F74696F6E0025753A2530327500253059
:1009500032753A25303275002575642025303275A0
:100960003A253032750000060900FE000000000044
:1009700001090008FE000005080806000040F0C854
:100980008888987810050808060000C0F8888888CC
:100990008888F80505050600012030F83020050894
:1009A000080600002070F820202020E00509090634
:1009B00000FF2070A8A8B8888870200509090600E3
:1009C000FFE080C0B0A8283028280509090600FFEC
:1009D000F8A88888888888A8F8050A0A0600FE20F2
:1009E0005050505088A8A8887003030306000340A5
:1009F000A04000060900FE0701920321207FFF07A7
:100A0000FF07FF0000000600000107070602008044
:100A1000808080800080030202060105A0A00507F7
:100A2000070600005050F850F85050050707060020
:100A3000002078A07028F020050707060000C0C835
:100A400010204098180507070600006090A040A8F5
:100A50009068020303060104C040800307070601F3
:100A6000002040808080402003070706010080406E
:100A7000202020408005050506000120A870A82040
:100A80000505050600012020F820200203030602C8
:100A9000FFC04080050101060003F80202020602C1
:100AA00000C0C005050506000108102040800507AC
:100AB0000706000070888888888870030707060189
:100AC0000040C040404040E0050707060000708835
:100AD00008708080F8050707060000F8102010084D
:100AE00008F005070706000010305090F8101005B8
:100AF0000707060000F880F0080888700507070659
:100B00000000708080F0888870050707060000F8F4
:100B10000810202020200507070600007088887034
:100B200088887005070706000070888878080870B4
:100B3000020505060200C0C000C0C002060606028B
:100B4000FFC0C000C040800407070600001020401E
:100B500080402010050303060002F800F804070790
:100B60000601008040201020408005070706000095
:100B7000708808102000200507070600007088080C
:100B800068A8A870050707060000708888F888889C
:100B900088050707060000F08888F08888F00507B8
:100BA00007060000708880808088700507070600AF
:100BB00000F08888888888F0050707060000F8801C
:100BC00080F08080F8050707060000F88080F0803C
:100BD0008080050707060000708880B88888700547
:100BE0000707060000888888F888888801070706B4
:100BF0000200808080808080800507070600003822
:100C00001010101090600507070600008890A0C023
:100C1000A09088050707060000808080808080F80B
:100C200005070706000088D8A88888888805070770
:100C30000600008888C8A89888880507070600006D
:100C400070888888888870050707060000F0888803
:100C5000F080808005070706000070888888A890CB
:100C600068050707060000F08888F0A0908805074F
:100C700007060000788080700808F0050707060066
:100C800000F8202020202020050707060000888883
:100C90008888888870050707060000888888888803
:100CA00050200507070600008888888888A8500516
:100CB0000707060000888850205088880507070627
:100CC000000088888850202020050707060000F8CB
:100CD0000810204080F8030707060100E0808080AC
:100CE0008080E0050505060001804020100803070C
:100CF00007060100E02020202020E0050303060075
:100D000004205088050101060000F80202020602D4
:100D100005804005050506000070087888780507FD
:100D2000070600008080B0C88888F0050505060029
:100D30000070808088700507070600000808689822
:100D40008888780505050600007088F8807005071A
:100D5000070600003048E040404040050606060017
:100D6000FF7088887808700507070600008080B04B
:100D7000C88888880107070602008000808080807C
:100D8000800308080601FF200020202020A0400446
:100D90000707060000808090A0C0A0900307070608
:100DA0000100C04040404040E0050505060000D07D
:100DB000A8A8A8A8050505060000B0C88888880569
:100DC000050506000070888888700506060600FF85
:100DD000F08888F080800506060600FF788888780D
:100DE0000808050505060000B0C8808080050505D7
:100DF00006000070807008F00407070600004040FD
:100E0000E040404030050505060000888888986865
:100E100005050506000088888850200505050600A0
:100E2000008888A8A85005050506000088502050B5
:100E3000880506060600FF8888887808700505057D
:100E4000060000F8102040F80307070601002040C4
:100E5000408040402001070706020080808080809B
:100E60008080030707060100804040204040800545
:100E7000020206000268900000000600005A0059B5
:100E800000580009200000000000000000000000E1
:100E900000007FFFE00000000000000000000000F4
:100EA000007000E0000000000000000000000000F2
:100EB00061F8600000000000000000000000004138
:100EC000F82000000000000000000000000040F0DA
:100ED0002000000000000000000000000040602032
:100EE0000000000000000000000000005801A07F8A
:100EF00080000000000000004104005C63A0FFC00F
:100F0000000000000000002082005EF7A0FFC0008B
:100F10000000000000002082005EF7A0FFC000007B
:100F200000000000004104005C63A07F800000001E
:100F3000000000008208005801A07F80000000002F
:100F4000000001041000406020FFC000000000000D
:100F5000000104100040F020FFC00000000000006D
:100F60000082080041F820FFC000000000000000DF
:100F700041040061F8603F00000000000000000034
:100F800000007000E01E0000000000000001FFFFF4
:100F9000807FFFE00C0000000000000001FFFF80E8
:100FA0000000000000000000000000000000007FC2
:100FB000FFE00000000000000000000000007000E2
:100FC000E0000000000000000000000000630C6072
:100FD000000000000000000000000000470E20009C
:100FE00000000000000000000000004F0F20000083
:100FF000000000000000000000005F0FA0000000E3
:101000000000000000000000005E07A07F800000DC
:101010000000000000410400406020FFC00000000C
:101020000000000020820040F020FFC0000000000F
:1010300000000020820040F020FFC00000000000FF
:1010400000004104004060207F800000000000009C
:10105000008208005E07A07F800000000000000101
:101060000410005F0FA0FFC000000000000001049A
:1010700010004F0F20FFC000000000000000820899
:1010800000470E20FFC000000000000000410400E7
:10109000630C603F000000000000000000000070D2
:1010A00000E01E0000000000000001FFFF807FFF45
:1010B000E00C0000000000000001FFFF80000000C5
:1010C00045303A20005A3A2000593A2000583A2038
:1010D000004D53312C4D53322050696E730A004538
:1010E00072726F722077726974696E6720746F20F4
:1010F000454550524F4D210A0020706F7369746945
:101100006F6E206F7574206F662072616E67652E3A
:101110000A003F50726F626520000A0A426564202F
:101120004C6576656C20436F7272656374696F6E8F
:10113000204D61747269783A00202B000A436F7267
:1011400072656374656420426564204865696768F8
:10115000742076732E2042656420546F706F6C6F1C
:1011600067793A0A00202B000A42656420486569C5
:1011700067687420546F706F6772617068793A0A9B
:101180002020202B2D2D2D204241434B202D2D2B77
:101190000A2020207C202020202020202020202009
:1011A0007C0A204C207C20202020282B2920202055
:1011B000207C20520A2045207C2020202020202036
:1011C000202020207C20490A2046207C20282D2910
:1011D000204E20282B29207C20470A2054207C20C8
:1011E000202020202020202020207C20480A202091
:1011F000207C20202020282D29202020207C2054E5
:101200000A2020207C202020202020202020202098
:101210007C0A2020204F2D2D2046524F4E54202D49
:101220002D2B0A2028302C30290A004D65616E20B4
:101230006F662073616D706C656420706F696E7489
:10124000733A200020643A200020623A2000457161
:101250006E20636F656666696369656E74733A20B4
:10126000613A2000202844525952554E29004732F5
:1012700039204175746F20426564204C6576656C39
:10128000696E670028422961636B00284629726FE6
:101290006E74002852296967687400284C296566B5
:1012A00074003F4E756D626572206F662070726FBC
:1012B000626520706F696E747320697320696D7048
:1012C0006C61757369626C65202832206D696E6986
:1012D0006D756D292E0A003F2856296572626F735D
:1012E00065206C6576656C20697320696D706C6132
:1012F000757369626C652028302D34292E0A00022E
:1013000001050800FF060121023520FFFF07FF0647
:10131000FF090050221656808080800080153353CC
:10132000A0A0A00257575050F850F85050025757FD
:101330002070A07028702013355580A040A0200296
:10134000475740A0A040A0A0502513538080801292
:101350002656408080808040122656804040404083
:10136000800245559060F060900255552020F8208D
:1013700020113353604080044151F011335340E059
:101380004002465610102040808012365640A0A0E1
:10139000A0A04012365640C0404040E00246566091
:1013A00090106080F0024656F02060109060024677
:1013B000562060A0F02020024656F080E010906099
:1013C0000246566080E0909060024656F010202061
:1013D0004040024656609060909060024656609091
:1013E00090701060122555C0C000C0C01136566004
:1013F00060006040801236562040808040200343C9
:1014000053F000F0123656804020204080123656AD
:1014100040A020400040015858304898A8A890406B
:1014200030024656609090F09090024656E090E070
:101430009090E0024656609080809060024656E0B0
:1014400090909090E0024656F080E08080F0024656
:1014500056F080E0808080024656609080B09060B8
:101460000246569090F0909090123656E0404040E0
:1014700040E002465670202020A04002465690A030
:10148000C0A0A0900246568080808080F002465620
:1014900090F0F090909002465690D0F0B0B090024C
:1014A0004656609090909060024656E09090E080A2
:1014B00080014757609090D0B06010024656E0908F
:1014C00090E0909002465660904020906012365610
:1014D000E04040404040024656909090909060021C
:1014E0004656909090906060024656909090F0F032
:1014F00090024656909060609090025656888850B0
:10150000202020024656F010204080F0123656E08F
:1015100080808080E0024656808040201010123685
:1015200056E020202020E016325240A0014151F028
:1015300016225280400244547090907002465680A9
:1015400080E09090E0123454608080600246561033
:10155000107090907002445460B0C06002465620F3
:101560005040E04040014555609070106002465682
:101570008080E09090901236564000C04040E011CC
:1015800037572000202020A040024656808090E05F
:101590009090123656C040404040E0025454D0A8CB
:1015A000A8A8024454E09090900244546090906047
:1015B000014555E090E08080014555709070101015
:1015C000024454A0D0808012345460C020C002462F
:1015D000564040E0405020024454909090701234A5
:1015E00054A0A0A04002545488A8A850024454908B
:1015F0006060900145559090709060024454F020D6
:1016000040F0024757304020C0204030221656801C
:101610008080808080024757C02040304020C00634
:10162000425250A0FFFFFFFFFFFFFFFFFFFFFFFF42
:10163000FFFFFFFFFFFFFFFFFFFFFFFFFFFFFFFFBA
:10164000FFFFFFFFFF0900502216568000808080B8
:10165000800146562070A0A070200246562050E01F
:101660004050A002555588705070880256568850D8
:10167000F820F82022175780808000808080024761
:10168000577080E0907010E0173151A002565670EC
:10169000A8C8C8A87014355560A06000E003435383
:1016A00050A050123353E02020143151E00256561E
:1016B00070E8D8E8D870173151E015335340A04096
:1016C00012355540E04000E014355540A02040E080
:1016D000143555C020C020C0162252408001455507
:1016E000909090E08002565678E8E8682828241107
:1016F0005180112252408014355540C04040E014C2
:10170000355540A04000E0034353A050A002475786
:10171000808080A060F0200247578080A0D01020F9
:101720007002475780408060A0F02012365640007B
:101730004080A04002475740206090F090900247C0
:101740005720406090F0909002475760906090F072
:10175000909002475750A06090F0909002475790A9
:10176000006090F0909002475760906090F09090E9
:1017700002465670A0A0F0A0B0014757609080804C
:101780009060400247574020F080E080F0024757C9
:101790002040F080E080F00247576090F080E080C9
:1017A000F00247579000F080E080F01237578040F9
:1017B000E0404040E01237572040E0404040E01217
:1017C000375740A0E0404040E0123757A000E040CB
:1017D0004040E00256567048E8484870024757506B
:1017E000A090D0B0909002475740206090909060B9
:1017F0000247572040609090906002475760906089
:101800009090906002475750A0609090906002477F
:101810005790006090909060123353A040A0024611
:101820005670B0B0D0D0E0024757402090909090D2
:101830006002475720409090909060024757609018
:101840009090909060024757900090909090600226
:1018500057571020885020202002465680E0909054
:10186000E0800246566090A0A090A002475740201A
:101870000070909070024757204000709090700266
:1018800047572050007090907002475750A000704A
:1018900090907002465650007090907002475760CA
:1018A000906070909070025454F068B07811355583
:1018B000608080604002475740200060B0C06002F6
:1018C000475720400060B0C06002475760900060FA
:1018D000B0C060024656500060B0C06012375780FA
:1018E0004000C04040E0123757204000C04040E078
:1018F00012375740A000C04040E0123656A000C04A
:101900004040E0024757A040A01070906002475747
:1019100050A000E0909090024757402000609090C7
:1019200060024757204000609090600247576090E7
:10193000006090906002475750A000609090600255
:1019400046569000609090601235554000E000408F
:1019500002445470B0D0E00247574020009090906D
:101960007002475720400090909070024757609057
:1019700000909090700246569000909090700148B0
:101980005820400090907090600147578080E09010
:10199000E0808001475790009090709060010507AB
:1019A00000FE0500FB01F220FFFE05FE05FE020021
:1019B000400215258080800080053242A0A002559B
:1019C0006550F850F8500146562070C030E02002B3
:1019D0005565901020404802556560806890680504
:1019E000122280800225354080808040022535808B
:1019F00040404080043343A040A003334340E040D4
:101A00000122324080043141E002112180025565FB
:101A10000810204080024555609090906002253566
:101A2000C040404040024555E0106080F0024555FE
:101A3000E0106010E00245552060A0F020024555FE
:101A4000F080E010E00245556080E090600245556E
:101A5000F01020404002455560906090600245556E
:101A600060907010600313238000800214248000B3
:101A700080800235452040804020033343E000E071
:101A80000235458040204080024555E0106000400E
:101A90000255657088B8A870024555609090F09026
:101AA000024555E090E090E002354560808080601E
:101AB000024555E0909090E0023545E080E080E0FE
:101AC000023545E080E080800245557080B090701E
:101AD0000245559090F09090023545E0404040E03E
:101AE000024555301010906002455590A0C0A0905E
:101AF00002354580808080E002556588D8A88888B6
:101B000002455590D0B090900245556090909060FD
:101B1000024555E09090E0800146566090909060BC
:101B200010024555E09090E090024555708060109D
:101B3000E0023545E040404040024555909090908D
:101B4000600245559090A0A04002556588A8A8A8BD
:101B500050024555909060909002455590907010BD
:101B600060023545E0204080E0022535C08080805D
:101B7000C00255658040201008022535C040404015
:101B8000C005324240A0024151F00522328040029D
:101B900044547090907002455580E09090E002347B
:101BA00044608080600245551070909070024454EB
:101BB00060B0C0600235452040E0404000465670AD
:101BC000909070106002455580E09090900215252D
:101BD00080008080800027374000404040408002E5
:101BE00045558090A0E0900215258080808080027D
:101BF0005464F0A8A8A8024454E090909002445481
:101C000060909060004656E09090E08080004656DC
:101C1000709090701010023444A0C0808002445430
:101C200070C030E002354540E0404020024454900E
:101C30009090700244549090A040025464A8A85020
:101C400050023444A04040A000465690909070103E
:101C500060024454F02040F002354560408040600E
:101C60000215258080808080023545C0402040C01C
:101C700005425250A0FFFFFFFFFFFFFFFFFFFFFFE6
:101C8000FFFFFFFFFFFFFFFFFFFFFFFFFFFFFFFF64
:101C9000FFFFFFFFFFFF020040FFFFFFFFFFFFFF0F
:101CA000FFFFFFFFFFFFFFFFFFFFFFFFFFFFFFFF44
:101CB000FFFFFFFFFFFFFFFFFFFFFFFFFFFFFFFF34
:101CC000FFFFFFFFFFFFFFFFFFFFFFFFFFFFFFFF24
:101CD000FFFFFFFFFFFFFFFFFFFFFFFFFFFFFFFF14
:101CE000FFFFFFFFFFFFFFFFFFFFFFFFFFFFFFFF04
:101CF000FFFFFFFFFFFFFFFF01060D00FE0901666A
:101D000002D620FFFE0BFE0AFE0D0060221969803C
:101D10008080808080800080183363A0A0A003575B
:101D2000675050F850F850500259692078A0A070C0
:101D30002828F02002596948A85010204050A89047
:101D400002586840A0A040A0989068281363808043
:101D500080113B6B2040408080808080404020117B
:101D60003B6B80404020202020204040800655656D
:101D700020A870A8200455652020F8202011336386
:101D8000604080065161F811336340E040025969B8
:101D9000080810102040408080025969205088882F
:101DA00088888850200259692060A02020202020A7
:101DB000F80259697088880810204080F802596933
:101DC000F808102070080888700259691010305007
:101DD0005090F81010025969F88080B0C80808883F
:101DE0007002596970888080F0888888700259690B
:101DF000F8081010202040404002596970888888F7
:101E0000708888887002596970888888780808887E
:101E10007011386840E040000040E04011386840F0
:101E2000E040000060408002596908102040804076
:101E3000201008045464F80000F80259698040201A
:101E400010081020408002596970888808102020EE
:101E5000002002596970888898A8A8B08078025933
:101E6000692050888888F8888888025969F048482D
:101E70004870484848F002596970888080808080A6
:101E80008870025969F048484848484848F0025963
:101E900069F8808080F0808080F8025969F880803D
:101EA00080F0808080800259697088808080988866
:101EB000887002596988888888F8888888881239E3
:101EC00069E040404040404040E00259693810100D
:101ED000101010109060025969888890A0C0A090DE
:101EE00088880259698080808080808080F80259CB
:101EF000698888D8A8A88888888802596988C8C845
:101F0000A8A89898888802596970888888888888DD
:101F10008870025969F0888888F080808080015A32
:101F20006A70888888888888A87008025969F0884B
:101F30008888F0A09088880259697088808070082D
:101F4000088870025969F8202020202020202002D3
:101F5000596988888888888888887002596988883B
:101F60008888505050202002596988888888A8A8FD
:101F7000A8A850025969888850502050508888027B
:101F80005969888850502020202020025969F8087B
:101F9000101020404080F8113B6BE08080808080F2
:101FA00080808080E00259698080404020101008C5
:101FB00008113B6BE0202020202020202020E0087A
:101FC0005363205088015161F82A226280400256F2
:101FD00066700878889868025969808080F08888DF
:101FE0008888F00256667088808088700259690877
:101FF00008087888888888780256667088F880880B
:102000007002596930484040F040404040005868F4
:102010007088888878088870025969808080B0C884
:10202000888888881238684000C040404040E000FE
:102030004A6A1000301010101090906002596980A8
:10204000808090A0C0A09088123969C04040404074
:10205000404040E0025666D0A8A8A8A8880256666C
:10206000B0C888888888025666708888888870001A
:102070005868F0888888F080808000586878888860
:102080008878080808025666B0C8808080800256AA
:10209000667088601088700258684040F040404088
:1020A000483002566688888888986802566688880C
:1020B000885050200256668888A8A8A85002566604
:1020C0008850202050880058688888889868088838
:1020D00070025666F810204080F8015B6B182020D3
:1020E0002020C02020202018221969808080808034
:1020F00080808080015B6BC0202020201820202061
:1021000020C008536348A890FFFFFFFFFFFFFFFFB9
:10211000FFFFFFFFFFFFFFFFFFFFFFFFFFFFFFFFCF
:10212000FFFFFFFFFFFFFFFFFF0D00602219698027
:1021300000808080808080800358682070A8A0A0E4
:10214000A8702002596930484040E0404048B00340
:10215000566688705050708802596988885050F8C7
:1021600020F8202022196980808080008080808073
:10217000124A6A609080609090601090601A32629B
:10218000A0A00359697088A8D8C8D8A88870045737
:1021900067700878887800F80356662850A0A05029
:1021A00028045363F80808163161E0035969708800
:1021B000E8D8D8E8D888700A5161F817446460906C
:1021C00090600357672020F8202000F8073565400D
:1021D000A02040E007356540A04020C02A22624090
:1021E000800058688888888898E8808002596978D3
:1021F000E8E8E8E868282828262161C02022624013
:102200008007356540C04040E00457677088888883
:102210007000F8035666A050282850A0025A6A4061
:10222000C04040E00818283808025A6A40C04040C0
:10223000E01028081038025A6A40A04020A0481830
:1022400028380802596920002020408088887002C0
:102250005A6A40200020508888F88888025A6A10FC
:10226000200020508888F88888025A6A3048002068
:10227000508888F88888025A6A2850002050888838
:10228000F88888025A6A50500020508888F8888858
:10229000025A6A20502020508888F888880259699C
:1022A00058A0A0A0B0E0A0A0B8005B6B70888080B0
:1022B00080808088702040025A6A402000F8808028
:1022C000F08080F8025A6A102000F88080F0808048
:1022D000F8025A6A304800F88080F08080F8025A8C
:1022E0006A505000F88080F08080F8123A6A80408E
:1022F00000E04040404040E0123A6A204000E040A8
:1023000040404040E0124A6A609000E04040404057
:1023100040E0123A6AA0A000E04040404040E002A5
:102320005969F0484848E8484848F0025A6A285035
:10233000008888C8A8988888025A6A402000708857
:102340008888888870025A6A102000708888888877
:102350008870025A6A3048007088888888887002BD
:102360005A6A28500070888888888870025A6A5093
:102370005000708888888888700355658850205080
:1023800088015B6B08709898A8A8A8C8C8708002DC
:102390005A6A40200088888888888870025A6A10A3
:1023A000200088888888888870025A6A30480088A7
:1023B000888888888870025A6A505000888888887F
:1023C000888870025A6A10200088885020202020B7
:1023D00002596980F0888888F0808080025969609D
:1023E0009090A0A0908888B00259694020007008A1
:1023F0007888986802596910200070087888986871
:10240000025969304800700878889868025969282C
:102410005000700878889868025969505000700818
:1024200078889868025A6A3048300070087888982E
:1024300068025666702870A0A8500058687088809E
:1024400080887020400259694020007088F8808898
:10245000700259691020007088F8808870025969EC
:102460003048007088F880887002596950500070B8
:1024700088F8808870123969804000C04040404030
:10248000E0123969204000C040404040E0124969F4
:10249000609000C040404040E0123969A0A000C0F8
:1024A00040404040E0025A6A50206010708888889E
:1024B0008870025969285000B0C8888888880259F5
:1024C000694020007088888888700259691020004F
:1024D00070888888887002596930480070888888B8
:1024E000887002596928500070888888887002595D
:1024F00069505000708888888870035767202000D2
:10250000F8002020015868087098A8A8C8708002B8
:102510005969402000888888889868025969102085
:1025200000888888889868025969304800888888B7
:10253000889868025969505000888888889868008F
:102540005B6B1020008888889868088870005A6A39
:102550008080B0C88888C8B08080005B6B50500015
:1025600088888898680888700000000000000000D3
:10257000000000000000000000000000000000005B
:1025800000000000000000000000000C000000003F
:102590000000000C0000000000000012000000001D
:1025A00000000023000000000000002100000000E7
:1025B0000000004C800000000000005E8000000071
:1025C0000000009240000000000000A14000000058
:1025D00000000121200000000000027F90000000A8
:1025E0000000020010000000000007FFF8000000DB
:1025F00000000400080000000000080004000000C3
:1026000000000800060000000000100002000000AA
:102610000000301E010000000000207F810000004B
:10262000000041FFE0800000000043FCF08000005B
:102630000000873B7840000000018EDBFC6000005A
:1026400000010FEBCC20000000021FEDB6100000CF
:1026500000021FDEB6100000000439CD7F08000024
:10266000000436E0FF08000000087EC0BB840000C4
:1026700000187F005D86000000107FC0ED82000022
:1026800000203CC07301000000203B337F010000AC
:1026900000701BE77E03800000C81DEEDE04C00052
:1026A00000880FDEDC04400001240FDF3C0920001D
:1026B000012607DBF8192000027203E7F0139000EF
:1026C000025101FFE02290000489007F802448002D
:1026D0000904801E004824000BFE400000DFF400C7
:1026E00010004000008002001FFFFFFFFFFFFE0000
:1026F00000000000000000000000000000000000DA
:1027000000000000000000001022103C3C0E1F00E2
:1027100010221004221104001022100822110400BB
:10272000102210083C110400102210102211040085
:1027300010221020221104001E1C1E3C3C0E04001E
:102740000000000000000000000000000000000089
:102750000000000000000000000000000000000079
:102760000000000000000000000000000000000069
:102770000000000000000000000000000000000059
:102780000000000000000000000000000000000049
:102790000000000000000000000000000000000039
:1027A00000000000000053442063617264206F6BDE
:1027B0000A006F70656E526F6F74206661696C6598
:1027C000640A00766F6C756D652E696E697420669B
:1027D00061696C65640A00534420696E69742066FF
:1027E00061696C0A006175746F25692E67004D324E
:1027F00034004D32332025730057726974696E6757
:1028000020746F2066696C653A20006F70656E20D9
:102810006661696C65642C2046696C653A20006FBE
:1028200070656E206661696C65642C2046696C6514
:102830003A200046696C652073656C656374656455
:102840000A002053697A653A200046696C65206F5A
:1028500070656E65643A20006F70656E2066616910
:102860006C65642C2046696C653A20002066696CB2
:10287000653A2000646F696E670066726573680070
:102880004E6F772000454E4420535542524F5554C9
:10289000494E450A002220706F7300222070617239
:1028A000656E743A2200535542524F5554494E4575
:1028B0002043414C4C207461726765743A22004B8E
:1028C000494C4C45442E2000747279696E6720741F
:1028D0006F2063616C6C207375622D67636F646534
:1028E0002066696C6573207769746820746F6F2047
:1028F0006D616E79206C6576656C732E204D415844
:10290000206C6576656C2069733A004572726F724F
:102910003A001000C90210012C014001220170018F
:102920001801B0010E01F00104015002FA00B002DA
:10293000F0003003E600D003DC009004D200700504
:10294000C800A006BE000008B400B009AA00D00B61
:10295000A000600E960060118C0000158200201906
:102960007800C01D6E00A0226400B0275A00902C91
:10297000500000314600E0343C0010383200903AFC
:102980002800603C1E00A03D1400803E0A00203F4D
:1029900000004572723A204D494E54454D50204238
:1029A0004544004D494E54454D5020747269676747
:1029B00065726564004572723A204D494E54454D2A
:1029C00050204531004572723A204D494E54454DD4
:1029D00050204530004572723A204D415854454DC3
:1029E0005020424544004D415854454D502074728A
:1029F00069676765726564004572723A204D415897
:102A000054454D50204531004572723A204D415891
:102A100054454D5020453000202F002042403A00C0
:102A200020403A007C3C3E5E2B3D3F2F5B5D3B2CC3
:102A30002A225C001FFFFFFFFFFFFF600000000075
:102A400001FF400000000000FF8000000000007F48
:102A500083CF00000C303F87FF80000C301F867949
:102A600080000C000F8C30C7838C30E78C30CFC7D0
:102A7000CC31F38C30DCECEC33B98C30D86C6C336B
:102A8000198C30D06C0C33198C30D86C0C33198CF9
:102A900030DC6C0E3B198C30CF7C079F198C30C713
:102AA0007C038F194000000000000260000000005D
:102AB00000061FFFFFFFFFFFF82020506C616E6EC5
:102AC000657242756666657242797465733A200074
:102AD0002046726565204D656D6F72793A2000431E
:102AE0006F6D70696C65643A2046656220313520EF
:102AF000323031380A00207C20417574686F723A98
:102B00002028416C657068204F626A656374732089
:102B1000496E632E2C204C756C7A426F7420476985
:102B200074205265706F7369746F7279290A004658
:102B30006562203135203230313831343A35303A1F
:102B4000353000204C617374205570646174656485
:102B50003A2000312E312E380A004D61726C696EB8
:102B60000020536F667477617265205265736574D7
:102B70000A00205761746368646F6720526573654B
:102B8000740A002042726F776E206F757420526550
:102B90007365740A002045787465726E616C20520A
:102BA000657365740A00506F77657255700A00731B
:102BB000746172740A006572726F72207772697440
:102BC000696E6720746F2066696C650A00456E64E3
:102BD00073746F707320256320256320256320257F
:102BE0006300205A3A0020593A0020583A00656E96
:102BF0006473746F7073206869743A2000446F6E58
:102C00006520736176696E672066696C652E0A00BF
:102C10004D3239003A004361703A004B6420002382
:102C2000646566696E65202044454641554C545F95
:102C3000004B69200023646566696E652020444569
:102C40004641554C545F004B702000236465666913
:102C50006E65202044454641554C545F0050494420
:102C6000204175746F74756E652066696E6973684E
:102C70006564212050757420746865206C617374DC
:102C8000204B702C204B6920616E64204B642063C4
:102C90006F6E7374616E74732066726F6D206265FF
:102CA0006C6F7720696E746F20436F6E666967750D
:102CB000726174696F6E2E680A0050494420417534
:102CC000746F74756E65206661696C65642120742B
:102CD000696D656F75740A00544845524D414C202A
:102CE00052554E4157415900546865726D616C20D0
:102CF00052756E617761790048656174696E67200D
:102D00006661696C65640048656174696E67206618
:102D100061696C656400504944204175746F747535
:102D20006E65206661696C6564212054656D70650F
:102D300072617475726520746F6F20686967680AC4
:102D400000204B643A2000204B693A2000204B7051
:102D50003A20000A20436C61737369632050494430
:102D6000200A002054753A2000204B753A2000209C
:102D70006D61783A2000206D696E3A200020643A37
:102D8000200020626961733A20004F6666736574A3
:102D900073206170706C696564004572723A2054EA
:102DA0006F6F206661722100546F6F206661722020
:102DB00066726F6D207265666572656E6365207000
:102DC0006F696E740A003A2000207A5F6D696E3A6E
:102DD00020202D32207A5F6D61783A2020350A005C
:102DE00050726F6265205A204F6666736574004E9C
:102DF0006F2063617365206C696768740A002074D2
:102E00006F6F206C6F6E6720657874727573696F71
:102E10006E2070726576656E7465640A0020636F5B
:102E20006C6420657874727573696F6E207072655A
:102E300076656E7465640A0043616E6E6F74206F10
:102E400070656E2073756264697220006563686FD7
:102E50003A00544845524D414C2052554E4157413D
:102E6000592042454400546865726D616C2052756A
:102E70006E6177617900544845524D414C2052555E
:102E80004E4157415920453100544845524D414C1F
:102E90002052554E41574159204530000000220034
:102EA000250028002B002E00310034000201000014
:102EB000050108010B0100002100240027002A0061
:102EC0002D003000330001010000040107010A0158
:102ED00005050505070508080808020202020A0A96
:102EE00008080404040401010101010101010303B4
:102EF000030303030303040707070C0C0C0C0C0C5F
:102F00000C0C0202020206060606060606060B0B5B
:102F10000B0B0B0B0B0B010210202008081020409C
:102F2000102040800201020108040201010204088D
:102F3000102040808040201008040201800402011B
:102F40008040201008040201080402010102040864
:102F500010204080010204081020408052657769EB
:102F600070696E670050726F62696E672066616992
:102F70006C65640050726F62696E67206661696C8F
:102F800065640050524F4245204641494C20434C15
:102F900045414E204E4F5A5A4C450A0052657769BA
:102FA00070696E670A005265776970696E670050D4
:102FB000726F62696E67206661696C656400507249
:102FC0006F62696E67206661696C65640050524F7C
:102FD0004245204641494C20434C45414E204E4FEE
:102FE0005A5A4C450A005265776970696E670A0043
:102FF00050726F62696E67206661696C65640A0071
:1030000050726F62696E67206661696C656400204A
:103010005A3A200020593A200042656420583A204C
:103020000000000A0B02090C0D0E08070304010042
:103030000000000000000000000000000000000090
:10304000000000000000000000000000001211104D
:103050000000000000000000000000000000000070
:1030600000000000000000486F6D65202573257387
:103070002573206669727374002066697273740A1E
:10308000005A0059005800486F6D65200024F4D4A0
:103090003050C38E20C2A24017828B7011127A91D9
:1030A0000D816CD90AA861E108C7586607615143D0
:1030B000061E4B5D05C145A7041A411104093D9840
:1030C00003713931034036DB0265339102D4305449
:1030D00002802E1D02632CEE01752AC501B028A0C6
:1030E00001102781018F2564012B244B01E022343C
:1030F00001AC211F018D200D01801FFC00841EEDFD
:1031000000971DDF00B81CD200E61BC600201BBCC8
:1031100000641AB200B219A8000A19A0006A18992E
:1031200000D117910040178B00B516840031167E30
:1031300000B31579003A157300C7146F0058146A6C
:1031400000EE1366008813630025135E00C7125B50
:10315000006C12570015125400C111510070114F2C
:103160000021114B00D61049008D10470046104435
:103170000002104200C00F4000800F3E00420F3C92
:1031800000060F3B00CB0E3800930E37005C0E3567
:1031900000270E3400F30D3200C10D3100900D30C8
:1031A00000600D2E00320D2D00050D2C00D90C2BCA
:1031B00000AE0C2900850C29005C0C2700350C277B
:1031C000000E0C2600E80B2400C40B2400A00B23E7
:1031D000007D0B23005A0B2100390B2100180B2016
:1031E00000F80A1F00D90A1E00BB0A1E009D0A1D16
:1031F00000800A1D00630A1C00470A1B002C0A1BE2
:1032000000110A1A00F7091A00DD091900C409198A
:1032100000AB091900920917007B09180063091710
:10322000004C09160036091600200916000A091577
:1032300000F5081500E0081400CC081400B80814C4
:1032400000A4081400900813007D0812006B0813F6
:103250000058081200460812003408110023081113
:10326000001208110001081100F0071000E007101B
:1032700000D0071000C0071000B0070F00A1071012
:103280000091070E0083070F0074070F0065070EFB
:103290000057070E0049070E003B070D002E070ED2
:1032A0000020070D0013070D0006070D00F9060C9E
:1032B00000ED060D00E0060C00D4060C00C8060C5C
:1032C00000BC060C00B0060C00A4060B0099060C0E
:1032D000008D060B0082060B0077060B006C060BB8
:1032E0000061060A0057060B004C060A0042060A57
:1032F0000038060A002E060A0024060A001A060AEA
:10330000001006090007060A00FD050900F405097A
:1033100000EB050900E2050900D9050900D00509FF
:1033200000C7050900BE050900B5050800AD050880
:1033300000A50509009C050800940508008C0508F7
:1033400000840508007C050800740508006C05076A
:1033500000650508005D050700560508004E0507D5
:10336000004705070040050800380507003105073C
:10337000002A050700230507001C0506001605079F
:10338000000F0507000805060002050700FB0406FC
:1033900000F5040700EE040600E8040600E2040756
:1033A00000DB040600D5040600CF040600C90406AD
:1033B00000C3040600BD040600B7040600B10405FE
:1033C00000AC040600A6040600A00405009B040649
:1033D0000095040500900406008A04050085040594
:1033E00000800406007A04050075040500700405D9
:1033F000006B04050066040500610405005C04051B
:103400000057040500520405004D0405004804055A
:1034100000430405003E0404003A04050035040599
:1034200000300404002C04050027040400230405D4
:10343000001E0404001A040400160405001104040C
:10344000000D040400090405000404040000040441
:1034500000FC030400F8030400F4030400F0030478
:1034600000EC030400E8030400E4030400E00304A8
:1034700000DC030400D8030400D4030400D00304D8
:1034800000CC030400C8030300C503030024F404B4
:10349000D9201BC40C5C0E9804C4095F0265077137
:1034A00001F405F900FB04B30048048700C1036977
:1034B000005803550003034500BE023A0084023160
:1034C0000053022A002902250004022000E4011C06
:1034D00000C8011900AF01170098011400840113FE
:1034E00000710110006101100051010E0043010D37
:1034F0000036010B002B010B0020010B0015010908
:10350000000C01090003010800FB000800F300089B
:1035100000EB000700E4000600DE000600D800060D
:1035200000D2000600CC000500C7000500C200055F
:1035300000BD000400B9000400B5000400B100049F
:1035400000AD000400A9000400A5000300A20003D0
:10355000009F0004009B00030098000300950002F8
:103560000093000300900003008D0002008B000315
:10357000008800020086000200840003008100022F
:10358000007F0002007D0002007B00020079000243
:103590000077000100760002007400020072000152
:1035A00000710002006F0002006D0001006C00025B
:1035B000006A000100690002006700010066000166
:1035C000006500010064000200620001006100016A
:1035D00000600001005F0002005D0001005C00016E
:1035E000005B0001005A0001005900010058000171
:1035F0000057000100560001005500010054000171
:10360000005300000053000100520001005100016E
:1036100000500001004F0001004E0000004E00016C
:10362000004D0001004C0001004B0000004B000168
:10363000004A000100490001004800000048000164
:103640000047000100460000004600010045000060
:103650000045000100440001004300000043000158
:103660000042000000420001004100000041000152
:1036700000400001003F0000003F0001003E00004C
:10368000003E0001003D0000003D0001003C000044
:10369000003C0000003C0001003B0000003B00013A
:1036A000003A0000003A0001003900000039000132
:1036B000003800000038000000380001003700002A
:1036C000003700010036000000360000003600011F
:1036D0000035000000350000003500010034000016
:1036E000003400000034000100330000003300000B
:1036F00000330001003200000032000000320001FF
:1037000000310000003100000031000100300000F5
:103710000030000000300001002F0000002F0000EA
:10372000002F0000002F0001002E0000002E0000DE
:10373000002E0001002D0000002D0000002D0000D3
:10374000002D0001002C0000002C0000002C0000C7
:10375000002C0001002B0000002B0000002B0000BB
:10376000002B0001002A0000002A0000002A0000AF
:10377000002A0001002900000029000000290000A3
:103780000029000000290001002800000028000096
:103790000028000000280000002800010027000089
:1037A000002700000027000000270000002700017C
:1037B0000026000000260000002600000026000071
:1037C0000026000100250000002500000025000063
:1037D0000025000000250000002500010024000055
:1037E0000024000000240000002400000024000148
:1037F000002300000023000000230000002300003D
:10380000002300000023000000230001002200002C
:103810000022000000220000002200000022000020
:103820000022000100210000002100000021000012
:103830000021000000210000002100000021000103
:1038400000200000002000000020000000200000F8
:1038500000200000002000000020000000200001E7
:10386000001F0000001F0000001F0000001F0000DC
:10387000001F0000001F0000001F0001001E0000CC
:10388000001E0000001E0000001E0000004D383425
:1038900020582059205A20450000060900FE060144
:1038A0008902FE20FFFE07FE06FE0000000600075C
:1038B0000106060602008080808000800303030664
:1038C0000103A0A0A00507070600FF5050F850F81C
:1038D00050500509090600FE2070A8A07028A870A5
:1038E000200608080600FF40A84810204854080594
:1038F00007070600FF609090609890680103030638
:1039000002038080800207070602FF4080808080DB
:1039100080400207070602FF80404040404080058B
:1039200005050600008850F85088050505060000CA
:103930002020F820200204040602FEC0404080053A
:103940000101060002F8020202060200C0C00406DD
:1039500006060100101020408080040606060100C3
:1039600060909090906003060606010040C04040C1
:1039700040E00406060601006090102040F00406B6
:1039800006060100F020601010E0050606060000A3
:1039900010305090F810040606060100F080E01088
:1039A00010E00406060601006080E09090600406C6
:1039B00006060100F0101020404004060606010033
:1039C0006090609090600406060601006090907020
:1039D0001060020505060200C0C000C0C002070753
:1039E0000602FEC0C000C04040800505050600007C
:1039F0001860806018050303060001F800F805054B
:103A000005060000C0300830C0040707060100604A
:103A10009010604000400506060600007090A8B0B7
:103A20008070050606060000205088F88888050684
:103A300006060000F088F08888F0040606060100FB
:103A4000609080809060040606060100E0909090EF
:103A500090E0040606060100F080E08080F0040695
:103A600006060100F080E080808004060606010062
:103A7000609080B090600406060601009090F0907F
:103A80009090030606060100E040404040E0050635
:103A900006060000381010109060040606060100AB
:103AA00090A0C0A09090040606060100808080804F
:103AB00080F005060606000088D8A8A888880406B5
:103AC0000606010090D0B090909005060606000012
:103AD000708888888870040606060100E09090E0EF
:103AE00080800407070601FF609090D0B06010044A
:103AF0000606060100E09090E0909004060606019C
:103B000000609040209060050606060000F8202026
:103B100020202004060606010090909090906004FA
:103B20000606060100909090F0606005060606000B
:103B3000008888A8A8D888050606060000885020B6
:103B400020508805060606000088885020202004A2
:103B50000606060100F010204080F003060606016C
:103B600000E080808080E00406060601008080403E
:103B7000201010030606060100E020202020E005AA
:103B800003030600032050880501010600FEF80229
:103B900002020602048040040404060100709090B2
:103BA000700406060601008080E09090E0040404A2
:103BB0000601007080807004060606010010107077
:103BC00090907004040406010060B0C07004060602
:103BD000060100205040E040400406060601FE6059
:103BE00090907010600406060601008080E09090BE
:103BF000900306060601004000C04040E0030808AC
:103C00000601FE200060202020A0400406060601D8
:103C1000008080A0C0A090030606060100C04040BE
:103C20004040E0050404060000D0A8A8880404046D
:103C3000060100E09090900404040601006090905A
:103C4000600406060601FEE09090E080800406060F
:103C50000601FE709090701010040404060100A08C
:103C6000D0808004040406010070C030E004060621
:103C70000601004040E0405020040404060100908A
:103C800090907004040406010090906060050404A4
:103C900006000088A8A85004040406010090606093
:103CA000900406060601FE90909070906004040453
:103CB000060100F02040F003070706010020404005
:103CC000804040200107070602FF808080808080BE
:103CD0008003070706010080404020404080040226
:103CE0000206010350A0FFFFFFFFFFFFFFFFFFFFE2
:103CF000FFFFFFFFFFFFFFFFFFFFFFFFFFFFFFFFD4
:103D0000FFFFFFFFFFFFFF000000060007010606A0
:103D10000602008000808080800406060601FF20E5
:103D200070A0A070200507070600FF304840F04053
:103D300040F8050505060000A8508850A8050606AD
:103D40000600008850F820F8200107070602FF80CF
:103D50008080008080800407070601FF70806090EB
:103D60006010E0030101060105A006070706000038
:103D7000788494A494847803050506010160A0600A
:103D800000E00505050600002850A05028040303A4
:103D9000060100F01010040101060102F0060707F9
:103DA0000600007884B4A4A4847804010106010507
:103DB000F00403030601026090600507070600FF98
:103DC0002020F8202000F803050506010140A0206E
:103DD00040E0030505060101C0204020C0020202A8
:103DE00006020440800405050601FF9090B0D080D3
:103DF00005060606000078E8E868282801010106A3
:103E00000202800202020602FE408003050506014E
:103E10000140C04040E003050506010140A040000C
:103E2000E0050505060000A0502850A0050808067A
:103E300000FF40C04050703078100508080600FFB1
:103E400040C04050680810380508080600FFC02030
:103E50004030F03078100407070601002000206091
:103E60008090600507070600004020205070888879
:103E700005070706000010202050708888050707F6
:103E800006000020502050708888050707060000B3
:103E90002850205070888805070706000050002031
:103EA0005070888805070706000020502050708851
:103EB0008805060606000078A0F0A0A0B80408084F
:103EC0000601FE6090808090602040040707060194
:103ED000004020F080E080F0040707060100204049
:103EE000F080E080F00407070601002050F080E039
:103EF00080F00407070601005000F080E080F00326
:103F000007070601008040E0404040E00307070645
:103F100001002040E0404040E00307070601004068
:103F2000A0E0404040E0030707060100A000E04099
:103F30004040E00506060600007048E84848700466
:103F4000070706010050A090D0B090900407070624
:103F50000100402060909090600407070601002057
:103F60004060909090600407070601002050609028
:103F700090906004070706010050A0609090906048
:103F80000407070601005000609090906005050549
:103F900006000088502050880408080601FF1070B1
:103FA000B0B0D0D0E0800407070601004020909018
:103FB0009090600407070601002040909090906068
:103FC00004070706010020509090909060040707B6
:103FD00006010050009090909060050707060000D1
:103FE0001020885020202004060606010080E09062
:103FF00090E0800406060601006090A0A090A00456
:104000000707060100402000709090700407070623
:104010000100204000709090700407070601002006
:1040200050007090907004070706010050A00070C7
:104030009090700406060601005000709090700485
:1040400007070601002050207090907005040406B8
:10405000000070A8B0780406060601FE708080702B
:10406000204004070706010040200060B0C0700433
:10407000070706010020400060B0C0700407070673
:10408000010020500060B0C0700406060601005018
:104090000060B0C070030707060100804000C04008
:1040A00040E0030707060100204000C04040E00355
:1040B000070706010040A000C04040E003060606D6
:1040C0000100A000C04040E0040707060100306086
:1040D000107090906004070706010050A000E09067
:1040E0009090040707060100402000609090600453
:1040F0000707060100204000609090600407070653
:1041000001002050006090906004070706010050F5
:10411000A0006090906004060606010050006090C8
:1041200090600505050600002000F8002004040446
:1041300006010070B0D0E00407070601004020002F
:104140009090907004070706010020400090909026
:10415000700407070601002050009090907004063C
:10416000060601005000909090700409090601FEB7
:104170002040009090907090600408080601FE8036
:1041800080E09090E080800408080601FE500090D6
:1041900090907090604C696E65204E756D6265728E
:1041A000206973206E6F74204C617374204C696EAB
:1041B00065204E756D6265722B312C204C617374D5
:1041C000204C696E653A200053544F505045442EA0
:1041D00020005072696E7465722073746F70706520
:1041E000642064756520746F206572726F72732E1F
:1041F0002046697820746865206572726F7220614C
:104200006E6420757365204D39393920746F2072C2
:104210006573746172742E202854656D70657261C7
:10422000747572652069732072657365742E2053EE
:104230006574206974206166746572207265737498
:10424000617274696E67290A004E6F204368656366
:104250006B73756D2077697468206C696E65206E6C
:10426000756D6265722C204C617374204C696E65AB
:104270003A2000636865636B73756D206D69736DBB
:10428000617463682C204C617374204C696E653ACC
:1042900020004D313130004D3331005344207265E0
:1042A0006164206572726F720A00446F6E652070DF
:1042B00072696E74696E672066696C650A002049D0
:1042C0006E76616C696420657874727564657220BD
:1042D00000000040C00000E0C0000000C00000225C
:1042E0004300003E4300001F434B494C4C45442EC5
:1042F00020004B494C4C20636175736564206279E2
:1043000020746F6F206D75636820696E61637469D6
:1043100076652074696D65202D2063757272656EF7
:104320007420636F6D6D616E643A2000506C65613E
:104330007365207265736574005052494E5445523E
:104340002048414C544544005072696E7465722097
:1043500068616C7465642E206B696C6C282920631D
:10436000616C6C6564210A00656E717565756569BF
:104370006E67202200000040C000003E4300001F86
:10438000430000F0410000F0410000004100000047
:10439000005761726E696E673A20486F6D696E678B
:1043A0002042756D702044697669736F72203C20DD
:1043B000310A000202040000A0400000A0400000FA
:1043C0000040000025430000454300002143FF0159
:1043D00001290A002062797465733B2063726320AF
:1043E0000053657474696E67732053746F726564EB
:1043F000202800202863616C63756C6174656429F2
:10440000210A0020213D2000454550524F4D2043B8
:104410005243206D69736D61746368202D20287389
:10442000746F726564292000290A0020627974651E
:10443000733B2063726320002073746F7265642085
:1044400073657474696E67732072657472696576DA
:104450006564202800204D61726C696E3D563437CA
:10446000290A0028454550524F4D3D0045455052C0
:104470004F4D2076657273696F6E206D69736D6143
:10448000746368200020204E6F7A7A6C653A2000B1
:1044900020004261636B004D696E696D756D20543B
:1044A000656D70206973203132302E00486561746B
:1044B000696E67206661696C656400457874727521
:1044C0006465206D6F726500526573756D6520704F
:1044D00072696E7400524553554D45204F505449F2
:1044E0004F4E533A0020204E6F7A7A6C653A200086
:1044F0006368616E6765006F662074686520666931
:104500006C616D656E74005761697420666F72200E
:104510007374617274005052494E54205041555387
:1045200045440020204E6F7A7A6C653A20002000C6
:1045300066696C616D656E7420756E6C6F61640088
:104540005761697420666F72005052494E54205072
:1045500041555345440020204E6F7A7A6C653A20CD
:10456000002000506C6561736520776169742E2EA0
:104570002E0048656174696E67206E6F7A7A6C658B
:10458000005052494E54205041555345440020207C
:104590004E6F7A7A6C653A2000200068656174205D
:1045A0006E6F7A7A6C652E00507265737320627537
:1045B00074746F6E20746F005052494E54205041F5
:1045C000555345440020204E6F7A7A6C653A20009E
:1045D000746F20636F6E74696E75652E2E2E006188
:1045E0006E6420707265737320627574746F6E00F0
:1045F000496E736572742066696C616D656E7400D6
:104600005052494E54205041555345440020204EAD
:104610006F7A7A6C653A2000200066696C616D657E
:104620006E74206C6F6164005761697420666F72EC
:10463000005052494E5420504155534544002020CB
:104640004E6F7A7A6C653A2000200066696C616D65
:10465000656E74206578747275646500576169745D
:1046600020666F72005052494E54205041555345B8
:104670004400746F20726573756D650057616974CD
:1046800020666F72207072696E74005052494E54E9
:10469000205041555345440048617264636F64651E
:1046A000642044656661756C742053657474696E2A
:1046B0006773204C6F616465640A0028230000283A
:1046C00023000064000000E803000000009643009F
:1046D00000964300000041000020420000C9420053
:1046E00000C9420000C84400405044204500205A00
:1046F0000020204D393037205800537465707065A4
:1047000072206D6F746F722063757272656E747350
:104710003A0A0020204D383531205A005A2D507267
:104720006F6265204F666673657420286D6D293A47
:104730000A0020440020490020204D33303420500E
:104740000020440020490020204D3330312050000B
:104750005049442073657474696E67733A0A002087
:10476000460020420020480020204D31343520539F
:10477000004D6174657269616C2068656174757063
:1047800020706172616D65746572733A0A00202051
:104790004D3432302053004175746F2042656420DF
:1047A0004C6576656C696E673A0A00205A0020599C
:1047B0000020204D323036205800486F6D65206F44
:1047C00066667365743A0A00204500205A00205935
:1047D0000020580020420020540020204D32303567
:1047E000205300416476616E6365643A20533C6DEA
:1047F000696E5F66656564726174653E20543C6DE8
:10480000696E5F74726176656C5F6665656472611E
:1048100074653E20423C6D696E5F7365676D656EC1
:10482000745F74696D655F75733E20583C6D617887
:104830005F78795F6A65726B3E205A3C6D61785F84
:104840007A5F6A65726B3E20453C6D61785F655F9B
:104850006A65726B3E0A0020540020520020204DF1
:10486000323034205000416363656C657261746955
:104870006F6E2028756E6974732F7332293A205039
:104880003C7072696E745F616363656C3E20523C7C
:10489000726574726163745F616363656C3E20541A
:1048A0003C74726176656C5F616363656C3E0A009F
:1048B000204500205A0020590020204D3230312060
:1048C00058004D6178696D756D20416363656C6555
:1048D000726174696F6E2028756E6974732F7332FC
:1048E000293A0A00204500205A0020590020204D76
:1048F0003230332058004D6178696D756D206665E2
:10490000656472617465732028756E6974732F73A2
:10491000293A0A00204500205A0020590020204D45
:104920003932205800537465707320706572207599
:104930006E69743A0A0020204D3230302044300A2B
:104940000020204D323030204400204469736162E1
:104950006C65640A0046696C616D656E74207365F0
:104960007474696E67733A0020204D3134392043E6
:10497000203B20556E69747320696E2043656C730B
:104980006975730A002020473231202020203B2007
:10499000556E69747320696E206D6D0A0056652D21
:1049A0006A65726B0056652D6A65726B0056652DDF
:1049B0006A65726B00567A2D6A65726B00567A2DA5
:1049C0006A65726B0056792D6A65726B0056792D97
:1049D0006A65726B0056792D6A65726B0056782D88
:1049E0006A65726B0056782D6A65726B0056782D79
:1049F0006A65726B004D6F74696F6E004573746504
:104A000070732F6D6D004573746570732F6D6D003D
:104A10005A73746570732F6D6D005A73746570737B
:104A20002F6D6D005973746570732F6D6D00597320
:104A3000746570732F6D6D005873746570732F6D8E
:104A40006D005873746570732F6D6D004D6F7469D0
:104A50006F6E004F6666004F6E2000456E64737483
:104A60006F702061626F72740053746570732F6D84
:104A70006D004A65726B00416363656C65726174B9
:104A8000696F6E0056656C6F63697479005A204FC8
:104A9000666673657400416476616E636564205375
:104AA000657474696E67730043616E6E6F74206520
:104AB0006E746572207375626469723A2000022E0A
:104AC0002E004D61696E004D6F76652061786973C7
:104AD0000044697361626C652073746570706572FF
:104AE00073004D383400426564204C6576656C690E
:104AF0006E67004732382058590A4D3130392053FB
:104B00003137350A473238205A0A4D313039205270
:104B10003134350A4731320A4732390A4D3130349F
:104B2000205330004175746F20686F6D6500473207
:104B300038004D61696E004D3530320A4D353030E8
:104B4000004C6F61642073657474696E6773005202
:104B50006573746F7265206661696C736166650068
:104B600053746F72652073657474696E6773004166
:104B70006476616E6365642053657474696E6773EF
:104B8000004D61696E000A003B20454550524F4D73
:104B900020496E6465783A20005570646174696ECE
:104BA00067207A6F666673657420696E204545508C
:104BB000524F4D3A20000E000E000E000E000E0067
:104BC0000E000E000E007FC03F801F000E0004008C
:104BD00004000E001F003F807FC00E000E000E007C
:104BE0000E000E000E000E000E0007F8000C0C0068
:104BF0001002002001006001804000804003E0407E
:104C000001C0400080400000400000600000200023
:104C1000001000000C0C0007F80001FE0003030068
:104C20000400800800401800601000207C0020383C
:104C30000020100020000020000020000060000084
:104C40004000008003030001FE00FFFFFF7F80FFA4
:104C5000C0FFC0FFC07F807F80FFC0FFC0FFC03F9C
:104C6000001E000C005A204F6666736574005A20BF
:104C70004F666673657400466C6F7700466C6F779D
:104C80000046616E2073706565640046616E207336
:104C9000706565640042656400426564004E6F7A29
:104CA0007A6C65004E6F7A7A6C6500537065656446
:104CB000005370656564004D61696E004D6F7665E7
:104CC000205800000020002300260029002C002F7F
:104CD000003200000100000301060109014D3630D9
:104CE0003020486F74656E6420746F6F20636F6C42
:104CF0006420746F206368616E67652066696C610B
:104D00006D656E740A006265640A002C2073797305
:104D100074656D2073746F707065642120486561DF
:104D20007465725F49443A200048656174696E6732
:104D3000206661696C656420424544004865617481
:104D4000696E67206661696C6564004865617469B5
:104D50006E67206661696C65640048656174696EA0
:104D600067206661696C6564204530001000AD0302
:104D700030016A0150022B0170030A019004F50012
:104D8000B005E500D006D800F007CE001009C50038
:104D9000300ABE00500BB700700CB100900DAB0094
:104DA000B00EA600D00FA200F0109D0010129900C6
:104DB000301395005014920070158E0090168B00E1
:104DC000B0178700D0188400F0198100101B7E00F6
:104DD000301C7B00501D7900701E7600901F730000
:104DE000B0207000D0216E00F0226B00102469000A
:104DF00030256600502663007027610090285E0011
:104E0000B0295C00D02A5900F02B5600102D540018
:104E1000302E5100502F4E0070304B009031480022
:104E2000B0324500D0334200F0343E0010363B0033
:104E3000303737005038330070392E00903A29004F
:104E4000B03B2300D03C1B00F03D1100103F01009F
:104E5000F03F0000456E642066696C65206C6973E4
:104E6000740A00426567696E2066696C65206C692A
:104E700073740A005344207072696E74696E6720FF
:104E80006279746520004E6F7420534420707269FB
:104E90006E74696E670A002569730025696D2025A7
:104EA0006973002569682025696D202569730025CF
:104EB0006964202569682025696D202569730025AE
:104EC000697920256964202569682025696D202578
:104ED0006973005072696E742074696D653A2000C0
:104EE000000125301D0C1E24311C0B18232F1B0A1A
:104EF00017FFFF040806FF06222B1A41420438035D
:104F0000FF3628294527444350726F7465637465E2
:104F1000642050696E0A00205A3A0020593A002055
:104F2000436F756E7420583A0020453A00205A3A73
:104F30000020593A00583A00436172642072656D4E
:104F40006F766564004361726420696E7365727484
:104F50006564004B494C4C45442E20004D363030A2
:104F6000204230005072696E742070617573656400
:104F7000004D31323500004D3234005072696E748C
:104F80002061626F72746564004E6F205344206329
:104F9000617264005072696E742066726F6D205386
:104FA000440053746F70207072696E7400526573A0
:104FB000756D65207072696E740041626F75742042
:104FC0004669726D77617265005061757365207016
:104FD00072696E74004368616E67652066696C6112
:104FE0006D656E7400436F6E666967757261746992
:104FF0006F6E0054656D7065726174757265004DF9
:105000006F76656D656E740054756E6500496E66E9
:105010006F2073637265656E00526573656E643AE6
:1050200020002042002050006F6B0000B79EADC4EE
:1050300011241FBECFEFD1E2DEBFCDBF00E00CBF19
:1050400014E0A0E0B2E0E6E2F0E402E00BBF02C050
:1050500007900D92A231B107D9F725E1A2E1B4E0A2
:1050600001C01D92A230B207E1F718E2C7E1D8E211
:1050700000E006C021970109802FFE010F947E1FDA
:10508000C631D10780E00807A9F70E946A7F0D9416
:1050900002200C9400002F923F924F925F926F92E9
:1050A0007F928F929F92AF92BF92CF92DF92EF92B8
:1050B000FF920F931F93CF93DF93CDB7DEB7C35605
:1050C000D1090FB6F894DEBF0FBECDBF8091FB149F
:1050D0008D3409F4C4C3843511F40C94293B87340E
:1050E00011F00C946B3B8091F9149091FA148A3171
:1050F000910509F488C29CF4843091053CF4823017
:1051000091058CF597FF28C00C94853B8430910560
:1051100009F4F0C10C9709F434C20C94853B8E312C
:10512000910509F4BBC23CF48C31910509F4A2C28B
:105130000CF470C2A4C28B35910509F41DC38C35E3
:10514000910509F41EC38A35910511F00C94853B35
:10515000109216040C94853B8091A50281110C9449
:10516000883B0C94853B2091A502222311F40C94DA
:10517000853B11E0029709F010E00E94455A198220
:105180001A821B821C821D821E821F82188682E563
:105190000E94BDBF882309F45EC10E945BBF6B0102
:1051A0007C018091420D9091430DA091440DB091EE
:1051B000450D2B968CAF9DAFAEAFBFAF2B974090F8
:1051C000460D5090470D6090480D7090490D20910C
:1051D000040D3091050D4091060D5091070D2F964D
:1051E0002CAF3DAF4EAF5FAF2F978091080D9091E0
:1051F000090DA0910A0DB0910B0D63968CAF9DAF78
:10520000AEAFBFAF639720E030E0A901C701B601A0
:105210000F945618882309F434C12B962CAD3DAD5C
:105220004EAD5FAD2B972F966CAD7DAD8EAD9FAD26
:105230002F970F94561881110DC0A3019201639608
:105240006CAD7DAD8EAD9FAD63970F9456188823DE
:1052500009F417C120E030E0A901C701B6010F949D
:105260005618881F8827881F18130BC020E030E0CD
:1052700040E85FE3A3962CAF3DAF4EAF5FAFA3977F
:105280000AC080E090E0A0E8BFEBA3968CAF9DAF92
:10529000AEAFBFAFA3972B962CAD3DAD4EAD5FAD7E
:1052A0002B972F966CAD7DAD8EAD9FAD2F970F9444
:1052B0008E1C6B966CAF7DAF8EAF9FAF6B97A301CB
:1052C000920163966CAD7DAD8EAD9FAD63970F94EB
:1052D0008E1C6F966CAF7DAF8EAF9FAF6F976B9646
:1052E0002CAD3DAD4EAD5FAD6B97CA01B9010F94CA
:1052F000BB184B015C016F962CAD3DAD4EAD5FAD63
:105300006F97CA01B9010F94BB189B01AC01C5018D
:10531000B4010F948F1C0F94FA1E67966CAF7DAF8B
:105320008EAF9FAF679720E030E040E05FE30F94DF
:10533000BB184B015C01A7019601C701B6010F9490
:10534000BB186B017C01A5019401C501B4010F9448
:10535000BB189B01AC01C701B6010F948E1C0F94C2
:10536000FA1E9B01AC01A3966CAD7DAD8EAD9FADD9
:10537000A3970F94BB186B017C012F962CAD3DAD0C
:105380004EAD5FAD2F972B966CAD7DAD8EAD9FADC5
:105390002B970F948F1C20E030E040E05FE30F94E8
:1053A000BB184B015C016F966CAD7DAD8EAD9FADB2
:1053B0006F97905867962CAD3DAD4EAD5FAD67973A
:1053C0000F946B1D9B01AC01C701B6010F94BB1874
:1053D0009B01AC01C501B4010F948F1C2B962CAD21
:1053E0003DAD4EAD5FAD2B970F948E1C69837A83D4
:1053F0008B839C8363962CAD3DAD4EAD5FAD6397C3
:10540000C301B2010F948F1C20E030E040E05FE365
:105410000F94BB184B015C0167962CAD3DAD4EADB2
:105420005FAD67976B966CAD7DAD8EAD9FAD6B97A5
:105430000F946B1D9B01AC01C701B6010F94BB1803
:105440009B01AC01C501B4010F948F1CA301920113
:105450000F948E1C12C089E40E94BDBF882331F0D6
:105460000E945BBF69837A838B839C838AE40E945A
:10547000BDBF882331F00E945BBF6D837E838F8325
:10548000988720E030E0A90169817A818B819C8135
:105490000F94561881110BC020E030E0A9016D81F6
:1054A0007E818F8198850F945618882349F0612F4B
:1054B000CE0101960E9489AD0E94F46B0C94853B4D
:1054C000EBE0F9E284918F010F5F1F4F882321F0F9
:1054D0000F942506F801F6CFE7E8F2E084918F01FA
:1054E0000F5F1F4F882311F40C94853B0F94250602
:1054F000F801F4CF80E50E94BDBF882329F00E9407
:105500001BBF6B017C0103C0C12CD12C760183E54C
:105510000E94BDBF882361F00E945BBF20E030E0A5
:105520004AE754E40F94BB180F94D81D6B017C011B
:105530000E94725880912F02811105C060E08DE9B0
:1055400092E00E94DCC00E94F46B8091081390915D
:105550000913A0910A13B0910B13C80ED91EEA1EAD
:10556000FB1E0E94D0F2DC01CB018C199D09AE0913
:10557000BF09B7FD02C00C94853B80E00E9443C583
:10558000F0CF0E94F0A781110C94853B80E50E942A
:10559000BDBF882319F00E942BBF01C060E06FAF30
:1055A00083E50E94BDBF882319F00E942BBF01C074
:1055B0006CE06BAF84E50E94BDBF882319F00E94A8
:1055C0002BBF01C063E068A382E50E94BDBF8823B2
:1055D00019F00E945BBF04C060E070E080ED90E4D1
:1055E00069837A838B839C839E01205E3F4FAE014B
:1055F0004F5F5F4FBE01655C7F4FCE01CF960F942A
:10560000CE110C94853B81E08093A50210929909FC
:105610000C94853B0E94F0A781110C94853B80E09F
:1056200090E0A0EEB0E489839A83AB83BC8380E0F2
:1056300090E0A4E3B3E48D839E83AF83B88780E0DA
:1056400090E0A0EAB1E489879A87AB87BC8780E5C0
:105650000E94BDBF882319F00E942BBF01C060E0EB
:1056600068A3BE016F5F7F4FCE0180960F94391102
:105670000C94853B80E00E94BA580C94853B81E0F5
:105680008093CD0724982C9A149A0E94AB5B1092B9
:10569000CD07249A2C9814980C94853BC090420D09
:1056A000D090430DE090440DF090450D88E50E94A8
:1056B000BDBF811108C020E030E0A901C701B601DB
:1056C0000F948F1C02C00E945BBF68A379A38AA3BA
:1056D0009BA3C090460DD090470DE090480DF090F0
:1056E000490D89E50E94BDBF811108C020E030E06E
:1056F000A901C701B6010F948F1C02C00E945BBFB5
:105700006B017C0169837A838B839C8388A099A039
:10571000AAA0BBA022E630E140E450ECC501B401F0
:105720000F94B51E87FF02C00C94853B22E430E045
:1057300041E253E4C501B4010F945618181614F44D
:105740000C94853B21E338E040EE50ECC701B601F4
:105750000F94B51E87FF02C00C94853B22E430E015
:1057600041E253E4C701B6010F945618181614F419
:105770000C94853B0C94393C81E0809316040C9486
:10578000853B0E947258A8E2B3E02996BFAFAEAF46
:105790002997E2E4EE2EEDE0FE2EF5E1CF2EFDE0BE
:1057A000DF2E312C00E010E02996EEADFFAD2997F9
:1057B00081912996FFAFEEAF29970E94BDBF882344
:1057C000C1F10E945BBF2B013C01133049F0D601AF
:1057D0002D913D914D915C910F948E1C2B013C01BC
:1057E000F7012081318142815381C301B2010F94BD
:1057F0008E1C4B015C012DEB37E346E855EB0F9413
:10580000B51E87FD0AC02DEB37E346E855E3C50119
:10581000B4010F945618181664F4133011F001E017
:1058200002C033243394D7014D925D926D927C92E5
:1058300013971F5FB4E0EB0EF11CE4E0CE0ED11C19
:10584000143009F0B1CF002319F00E94BFBE03C08D
:1058500031100E948DA80E94FBF90C94853B809129
:10586000F9149091FA148837910511F40C944D3481
:105870000CF0D0C08C34910509F41EC40CF056C055
:105880008931910509F485C234F58431910509F413
:105890005CC27CF48131910509F44CC22CF402976E
:1058A00008F4C4C10C94853B429709F440C60C949B
:1058B000853B8631910509F450C20CF44AC2873108
:1058C000910509F450C2489711F00C94853B0E9451
:1058D00015FD0C94853B8F31910509F4E1C37CF4EF
:1058E0008B31910509F467C20CF461C28C319105CA
:1058F00009F465C24E9709F46CC20C94853B8A3258
:10590000910509F4D1C32CF4809709F47AC30C945F
:10591000853B8934910509F4CBC38B34910511F093
:105920000C94853B0E94B6A10C94853B8A36910568
:1059300009F430C5B4F58435910509F4F8C5E4F4EB
:105940008135910509F4D8C54CF48D34910511F0D9
:105950000C94853B0E946DA10C94853B823591058A
:1059600009F4E1C58335910511F00C94853B81E084
:10597000809315040C94853B8C35910509F425C65C
:1059800034F48535910509F405C60C94853B8836B9
:10599000910509F495C38936910509F485C40C94E1
:1059A000853B8237910509F414C6ACF48D36910518
:1059B00009F4BBC434F48B36910509F410C50C947A
:1059C000853B8E36910509F4CDC38F36910509F4D8
:1059D000DCC30C94853B8537910509F452C644F429
:1059E0008337910511F00C94853BEFEAF4E0F7C59D
:1059F0008637910509F44EC68737910511F00C944E
:105A0000853B81E08093CD0724982C9A149AEBED86
:105A1000F5E07FC68E32F1E09F0711F40C94043953
:105A20000CF079C08C3C910511F40C9446350CF0C7
:105A30003DC08B39910509F451C4D4F48D379105DB
:105A400009F4DFC45CF48937910511F00C94853BAF
:105A50001092030D1092020D0C94853B8C38910529
:105A600009F404C48139910509F41DC70C94853BE0
:105A7000883C910509F48EC734F48E3B910509F4F6
:105A800072C40C94853B893C910509F4C9C78B3CD1
:105A9000910511F00C94853BE2E9EE2EE3E1FE2E38
:105AA00008E213E0F4E0DF2ED00EE1C78D3D910552
:105AB00011F40C942A37A4F48E3C910511F40C9443
:105AC0001B3614F40C94B035833D910511F40C94FD
:105AD0003D368C3D910511F40C941D370C94853B9B
