:100000000C94172B0D94FF0E0D94D40E0D94A90E85
:100010000D947E0E0D94530E0D94280E0D94FD0D2F
:100020000C9410CF0C94482B0C94482B0C94482B18
:100030000C94482B0C946EB50C94482B0C94482BC4
:100040000C94482B0C9493C70C94482B0C94482B7D
:100050000C94482B0C94482B0C94FAC50D942A0F41
:100060000C94482B0C9456CE0C94482B0C94482B93
:100070000C94482B0C94482B0C94482B0C94482B34
:100080000C94482B0C94482B0C94482B0C94482B24
:100090000C94482B0C94482B0C94482B0C94482B14
:1000A0000C94482B0C94482B0C94482B0C94482B04
:1000B0000C94482B0C94482B0C94482B0C94482BF4
:1000C0000C94482B0C94482B0C94482B0C94482BE4
:1000D0000C94482B0C94482B0C94482B0C94482BD4
:1000E0000C94482BF24FF74FFC4F0650105089509C
:1000F0001A5022502A5034503E50485057506150A8
:1001000089506B5075507F50297829783078307835
:10011000307837783778377844783E783E783E784C
:100120008ACE90CEA1CEACCEB4CEC9CEB8CEC9CEFA
:10013000BCCEC0CEC9CEC6CEF200F0000201D600C1
:100140000A01E2000001FE00F400D4000801D8001A
:10015000FC00EE00E200E400E800DC00084AD73BC7
:100160003BCE016E84BCBFFDC12F3D6C74319ABD86
:1001700056833DDA3D00C77F11BED9E4BB4C3E91AA
:100180006BAAAABE000000803F05A84CCDB2D44E99
:10019000B93836A9020C50B9918688083CA6AAAA9B
:1001A0002ABE000000803F000D94E8050D94C905AB
:1001B0000D94F2050D94DF140D9408060D945C0C5B
:1001C0000D94B7050D940D060D9400060D9487054A
:1001D0000D9404060D9476050D9479050D94FA0599
:1001E0000D94D6050D94D3050D94E4050D94991343
:1001F0000D94670A0D94B9050D94F6050D94DE056E
:100200000D94DA050D94C5050D9475050D944D05F5
:100210000D94EC050D94CF05434F4D4D554E49437C
:100220004154494F4E0044525952554E0045525286
:100230004F525300494E464F004543484F002074EB
:100240006F6F206C6F6E6720657874727573696F5D
:100250006E2070726576656E7465640A0020636F47
:100260006C6420657874727573696F6E2070726546
:1002700076656E7465640A0047322F4733206261E9
:100280006420706172616D65746572730A00536CED
:100290006565702E2E2E00205A3A200020593A20F3
:1002A0000042656420583A20004C756C7A426F74A5
:1002B0002054415A20362072656164792E005265BF
:1002C00073756D696E67207072696E7400436C6936
:1002D000636B20746F20726573756D652E2E2E0012
:1002E0004E6F206D6F76652E00456E642066696CDA
:1002F00065206C6973740A00426567696E206669DF
:100300006C65206C6973740A004D313235005344BA
:10031000207072696E74696E67206279746520005E
:100320004E6F74205344207072696E74696E670A50
:100330000046696C652064656C657465643A0044C8
:10034000656C6574696F6E206661696C65642C20EC
:1003500046696C653A20006F70656E206661696C55
:1003600065642C2046696C653A2000256973002578
:10037000696D20256973002569682025696D202530
:10038000697300256964202569682025696D202529
:10039000697300256979202569642025696820250D
:1003A000696D20256973005072696E742074696DDF
:1003B000653A2000000125301D0C1824311C0B1754
:1003C000232F1B0A1E16040308060202222B1A41C1
:1003D00042033809FF3628294527444350726F7479
:1003E00065637465642050696E0A0045787472759F
:1003F000646572202573004C756C7A426F742054CA
:10040000415A20362072656164792E003902340227
:100410002D02260218026F66660044454255473A8F
:10042000006F6B00436F6F6C696E6720646F6E6561
:100430002E0048656174696E6720646F6E652E00DA
:1004400020573A00457874727564657220257300F0
:100450004C756C7A426F742054415A203620726574
:100460006164792E0042656420646F6E652E002001
:10047000573A004265642068656174696E672E00B2
:1004800042656420636F6F6C696E672E002F2F20AA
:10049000007A5F70726F62653A20007A5F6D6178F2
:1004A0003A20007A5F6D696E3A2000795F6D61785D
:1004B0003A2000795F6D696E3A2000785F6D61784F
:1004C0003A2000785F6D696E3A20005265706F7255
:1004D00074696E6720656E6473746F7020737461E5
:1004E0007475730A00426564204C6576656C696EAC
:1004F0006720004661696C656420746F20656E61D9
:10050000626C6520426564204C6576656C696E6737
:100510000A00426564204C6576656C20436F7272F8
:10052000656374696F6E204D61747269783A004E2C
:100530006F2063617365206C696768740A004163AA
:10054000746976652045787472756465723A200026
:10055000556E6B6E6F776E20636F6D6D616E643A72
:1005600020220020204E6F7A7A6C653A200020000D
:1005700066696C616D656E7420756E6C6F61640088
:100580005761697420666F72005052494E54205072
:1005900041555345440020204E6F7A7A6C653A20CD
:1005A000006368616E6765006F6620746865206629
:1005B000696C616D656E74005761697420666F7255
:1005C000207374617274005052494E54205041554A
:1005D0005345440020204E6F7A7A6C653A20002003
:1005E000004261636B004D696E696D756D205465E5
:1005F0006D70206973203132302E00486561746956
:100600006E67206661696C65640025753A25303235
:100610007500253032753A25303275002575642015
:10062000253032753A253032750000060900FE008B
:100630000000000001090008FE000005080806008F
:100640000040F0C88888987810050808060000C0A7
:10065000F88888888888F80505050600012030F8A4
:1006600030200508080600002070F820202020E037
:100670000509090600FF2070A8A8B8888870200521
:1006800009090600FFE080C0B0A828302828050925
:10069000090600FFF8A88888888888A8F8050A0A4B
:1006A0000600FE205050505088A8A888700303030D
:1006B00006000340A04000060900FE070192032146
:1006C00020FFFF08FF07FF000000060000010707EA
:1006D00006020080808080800080030202060105FF
:1006E000A0A00507070600005050F850F85050052C
:1006F00007070600002078A07028F02005070706ED
:100700000000C0C8102040981805070706000060C8
:1007100090A040A89068020303060104C040800333
:10072000070706010020408080804020030707065D
:1007300001008040202020408005050506000120A2
:10074000A870A8200505050600012020F820200239
:1007500003030602FFC04080050101060003F80202
:100760000202060200C0C0050505060001081020AF
:100770004080050707060000708888888888700315
:10078000070706010040C040404040E0050707065B
:100790000000708808708080F8050707060000F8E0
:1007A0001020100808F005070706000010305090D0
:1007B000F81010050707060000F880F00808887098
:1007C000050707060000708080F08888700507071D
:1007D000060000F80810202020200507070600006A
:1007E0007088887088887005070706000070888800
:1007F00078080870020505060200C0C000C0C002EB
:1008000006060602FFC0C000C040800407070600BD
:100810000010204080402010050303060002F8006D
:10082000F8040707060100804020102040800507DB
:100830000706000070880810200020050707060042
:100840000070880868A8A87005070706000070886F
:1008500088F8888888050707060000F08888F088EF
:1008600088F0050707060000708880808088700582
:100870000707060000F08888888888F005070706C3
:100880000000F88080F08080F8050707060000F877
:100890008080F0808080050707060000708880B89F
:1008A000888870050707060000888888F888888887
:1008B000010707060200808080808080800507078E
:1008C00006000038101010109060050707060000A1
:1008D0008890A0C0A090880507070600008080804F
:1008E000808080F805070706000088D8A8888888D7
:1008F000880507070600008888C8A8988888050723
:100900000706000070888888888870050707060039
:1009100000F08888F0808080050707060000708856
:100920008888A89068050707060000F08888F0A06E
:100930009088050707060000788080700808F00599
:100940000707060000F820202020202005070706C2
:100950000000888888888888700507070600008856
:1009600088888888502005070706000088888888BE
:1009700088A85005070706000088885020508888FE
:1009800005070706000088888850202020050707F3
:10099000060000F80810204080F803070706010051
:1009A000E08080808080E005050506000180402011
:1009B0001008030707060100E02020202020E005A2
:1009C0000303060004205088050101060000F80218
:1009D0000202060205804005050506000070087841
:1009E00088780507070600008080B0C88888F00571
:1009F0000505060000708080887005070706000066
:100A0000080868988888780505050600007088F849
:100A100080700507070600003048E0404040400570
:100A200006060600FF70888878087005070706002C
:100A3000008080B0C888888801070706020080000F
:100A400080808080800308080601FF20002020208D
:100A500020A040040707060000808090A0C0A0905E
:100A6000030707060100C04040404040E00505057F
:100A7000060000D0A8A8A8A8050505060000B0C873
:100A80008888880505050600007088888870050636
:100A9000060600FFF08888F080800506060600FF45
:100AA000788888780808050505060000B0C88080A9
:100AB0008005050506000070807008F00407070631
:100AC00000004040E0404040300505050600008839
:100AD00088889868050505060000888888502005E4
:100AE00005050600008888A8A85005050506000031
:100AF00088502050880506060600FF8888887808F8
:100B000070050505060000F8102040F803070706E9
:100B1000010020404080404020010707060200807D
:100B2000808080808080030707060100804040208D
:100B300040408005020206000268900000000600A6
:100B40000000000006000000000006000000000099
:100B50000600000000000600000000000600000083
:100B60000000060000000000060000000000060073
:100B70000000000006000000000006000000000069
:100B80000600000000000600000000000600000053
:100B90000000060000000000060000000000060043
:100BA0000000000006000000000006000000000039
:100BB0000600000000000600000000000600000023
:100BC0000000060000000000060000000000060013
:100BD0000000000006000000000006000000000009
:100BE00006000000000006000000000006000000F3
:100BF00000000600000000000600000000000600E3
:100C000000000000060000010707060200800080C7
:100C1000808080800507070600002070A8A0A870CB
:100C200020050707060000304040E04050A80505B9
:100C300005060000887050708805070706000088C8
:100C40005020F820F820010707060200808080006D
:100C50008080800508080600003048205050209011
:100C600060030101060107A0050707060000F888D8
:100C7000B8B8B888F80507070600017008788878C2
:100C800000F80505050600012850A05028050303BB
:100C9000060001F808080202020602064080050765
:100CA00007060000F888A88898A8F8050101060042
:100CB00006F8040404060003609090600507070628
:100CC00000002020F8202000F8040505060003603D
:100CD000902040F0030505060003E020E020E0023C
:100CE000020206020640800508080600FF88888880
:100CF0008898E8808005070706000078989878189B
:100D00001818020202060202C0C00202020602FF16
:100D1000408003050506000340C04040E00507078A
:100D2000060001708888887000F805050506000136
:100D3000A0502850A00507070600008890A858B8C2
:100D400008080507070600008890B848982038056D
:100D50000808060000C040C048D838080805070742
:100D6000060000200020408088700508080600006A
:100D70004020007088F888880508080600001020C8
:100D8000007088F888880508080600002050007068
:100D900088F888880508080600006890007088F8C0
:100DA00088880508080600005000708888F8888840
:100DB0000508080600002050207088F8888805077C
:100DC000070600003860A0B8E0A0B80508080600D3
:100DD000FF70888080887020600508080600004049
:100DE0002000F880F080F8050808060000081000D0
:100DF000F880F080F8050808060000205000F88010
:100E0000F080F80507070600005000F880F080F831
:100E1000030808060100804000E0404040E003086D
:100E200008060100204000E0404040E003080806BA
:100E3000010040A000E0404040E003070706010039
:100E4000A000E0404040E005070706000070484869
:100E5000E848487005080806000068900088C8A89F
:100E600098880508080600004020708888888870E7
:100E7000050808060000102070888888887005081A
:100E80000806000020500070888888700508080651
:100E900000006890007088888870050808060000C7
:100EA0005000708888888870050505060001885004
:100EB0002050880508080600FF1070A8A8A8A87090
:100EC000400508080600004020888888888870054A
:100ED000080806000010208888888888700508089F
:100EE00006000020500088888888700508080600E1
:100EF000005000888888888870050808060000105F
:100F0000208850202020200509090600FFC04070DD
:100F10004848704040E00408080601FF609090A037
:100F20009090E080050808060000402000700878D6
:100F30008878050808060000102000700878887876
:100F40000508080600002050007008788878050819
:100F50000806000068900070087888780507070682
:100F60000000500070087888780508080600002006
:100F700050207008788878050606060000D028788A
:100F8000A0A8500506060600FF7080887020600546
:100F900008080600004020007088F88070050808E6
:100FA0000600001020007088F88070050808060010
:100FB000002050007088F880700507070600005078
:100FC000007088F880700308080601008040004027
:100FD000C04040E003080806010020400040C04037
:100FE00040E003080806010040A00040C04040E087
:100FF000030707060100A00040C04040E0050707C6
:10100000060000A040A010788870050808060000BF
:10101000689000B0C888888805080806000040204D
:10102000007088888870050808060000102000708D
:10103000888888700508080600002050007088889D
:10104000887005080806000068900070888888701D
:1010500005070706000050007088888870050505A0
:101060000600012000F800200507070600FF1070A9
:10107000A8A8A8704005080806000040200088883D
:10108000889868050808060000102000888888985D
:1010900068050808060000205000888888986805C0
:1010A0000707060000500088888898680509090627
:1010B00000FF102000888888F808700407070601E0
:1010C000FFC04060506040E00508080600FF500087
:1010D0008888887808705A00590058000920000054
:1010E00000000000000000000000007FFFE00000A2
:1010F000000000000000000000007000E0000000A0
:1011000000000000000000000061F8600000000026
:10111000000000000000000041F820000000000076
:101120000000000000000040F0200000000000006F
:1011300000000000000040602000000000000000EF
:1011400000000000005801A07F80000000000000A7
:10115000004104005C63A0FFC0000000000000002C
:101160002082005EF7A0FFC0000000000000002009
:1011700082005EF7A0FFC0000000000000004104F4
:10118000005C63A07F800000000000000082080077
:101190005801A07F80000000000000010410004002
:1011A0006020FFC00000000000000104100040F0BB
:1011B00020FFC00000000000000082080041F8206D
:1011C000FFC00000000000000041040061F8603F23
:1011D00000000000000000000000007000E01E00A1
:1011E00000000000000001FFFF807FFFE00C000016
:1011F000000000000001FFFF800000000000000070
:1012000000000000000000007FFFE0000000000080
:10121000000000000000007000E00000000000007E
:10122000000000000000630C6000000000000000EF
:101230000000000000470E20000000000000000039
:10124000000000004F0F2000000000000000000020
:101250000000005F0FA00000000000000000000080
:1012600000005E07A07F8000000000000000410435
:1012700000406020FFC0000000000000002082004D
:1012800040F020FFC000000000000000208200406D
:10129000F020FFC00000000000000041040040609A
:1012A000207F80000000000000008208005E07A090
:1012B0007F80000000000000010410005F0FA0FF0D
:1012C000C0000000000000010410004F0F20FFC00C
:1012D00000000000000000820800470E20FFC00050
:1012E000000000000000410400630C603F000000AB
:1012F00000000000000000007000E01E0000000080
:1013000000000001FFFF807FFFE00C0000000000F4
:10131000000001FFFF8000000000002200250028DF
:10132000002B002E003100340002010000050108EE
:10133000010B0100000A0B02090C0D0E0807030443
:10134000010000000000000000000000000000009C
:10135000000000000000000000000000000000127B
:10136000111000000000000000000000000000005C
:1013700000000000000000000043290A0061626CC8
:10138000656420286D696E2074656D702000436F60
:101390006C64206578747275646573206172652071
:1013A0000045313A200045303A20005A3A20005991
:1013B0003A2000583A20004D53312C4D53322050E2
:1013C000696E730A002042002050006F6B00526566
:1013D00073656E643A20001000C90210012C0140B0
:1013E00001220170011801B0010E01F00104015049
:1013F00002FA00B002F0003003E600D003DC0090F7
:1014000004D2007005C800A006BE000008B400B0F9
:1014100009AA00D00BA000600E960060118C00009D
:1014200015820020197800C01D6E00A0226400B053
:10143000275A00902C500000314600E0343C001048
:10144000383200903A2800603C1E00A03D14008015
:101450003E0A00203F00004361703A454D45524727
:10146000454E43595F5041525345523A310A004369
:1014700061703A434153455F4C494748545F42527B
:10148000494748544E4553533A300A004361703A35
:10149000544F47474C455F4C49474854533A300AEC
:1014A000004361703A534F4654574152455F504F85
:1014B0005745523A300A004361703A4C4556454C04
:1014C000494E475F444154413A310A004361703A02
:1014D0005A5F50524F42453A310A004361703A41D7
:1014E00055544F4C4556454C3A310A004361703AC9
:1014F0005052494E545F4A4F423A310A004361709C
:101500003A50524F47524553533A300A00436170A4
:101510003A4155544F5245504F52545F54454D50E7
:101520003A310A004361703A454550524F4D3A31C5
:101530000A004649524D574152455F4E414D453A8A
:101540004D61726C696E20204649524D574152459B
:101550005F56455253494F4E3A312E312E352E3675
:10156000342045585452554445525F545950453AD9
:101570004165726F7374727564657220534F555272
:1015800043455F434F44455F55524C3A687474700D
:10159000733A2F2F636F64652E616C6570686F629C
:1015A0006A656374732E636F6D2F64696666757305
:1015B000696F6E2F4D41524C494E2050524F544F3F
:1015C000434F4C5F56455253494F4E3A312E3020CF
:1015D0004D414348494E455F545950453A4C756C0E
:1015E0007A426F742054415A20362045585452553F
:1015F0004445525F434F554E543A31205555494466
:101600003A38343566303033632D616562642D3489
:101610006535332D613662392D376430393834669B
:1016200064653630390A004D31343520533C696EDB
:101630006465783E206F7574206F662072616E67F6
:10164000652028302D31290A0020706F7369746974
:101650006F6E206F7574206F662072616E67652EE5
:101660000A003F50726F626520001000AD03300128
:101670006A0150022B0170030A019004F500B005C5
:10168000E500D006D800F007CE001009C500300AEA
:10169000BE00500BB700700CB100900DAB00B00E47
:1016A000A600D00FA200F0109D0010129900301378
:1016B00095005014920070158E0090168B00B01794
:1016C0008700D0188400F0198100101B7E00301CA8
:1016D0007B00501D7900701E7600901F7300B020B3
:1016E0007000D0216E00F0226B00102469003025BC
:1016F0006600502663007027610090285E00B029C4
:101700005C00D02A5900F02B5600102D5400302ECA
:101710005100502F4E0070304B0090314800B032D5
:101720004500D0334200F0343E0010363B003037E5
:1017300037005038330070392E00903A2900B03B02
:101740002300D03C1B00F03D1100103F0100F03F92
:10175000000020204D383531205A005A2D50726F2C
:101760006265204F666673657420286D6D293A0A9C
:101770000020440020490020204D33303420500008
:1017800020440020490020204D33303120500050AB
:1017900049442073657474696E67733A0A00204681
:1017A0000020420020480020204D313435205300D5
:1017B0004D6174657269616C206865617475702033
:1017C000706172616D65746572733A0A0020204D14
:1017D0003432302053004175746F20426564204CD0
:1017E0006576656C696E673A0A00205A00205900D8
:1017F00020204D323036205800486F6D65206F66CE
:10180000667365743A0A00204500205A002059008A
:1018100020580020420020540020204D3230352036
:101820005300416476616E6365643A20533C6D6990
:101830006E5F66656564726174653E20543C6D69D7
:101840006E5F74726176656C5F6665656472617403
:10185000653E20423C6D696E5F7365676D656E74B1
:101860005F74696D655F6D733E20583C6D61785F94
:1018700078795F6A65726B3E205A3C6D61785F7A59
:101880005F6A65726B3E20453C6D61785F655F6A9B
:1018900065726B3E0A0020540020520020204D3219
:1018A0003034205000416363656C65726174696F08
:1018B0006E2028756E6974732F7332293A20503C5C
:1018C0007072696E745F616363656C3E20523C7236
:1018D0006574726163745F616363656C3E20543C40
:1018E00074726176656C5F616363656C3E0A0020AB
:1018F0004500205A0020590020204D323031205818
:10190000004D6178696D756D20416363656C65722A
:101910006174696F6E2028756E6974732F73322934
:101920003A0A00204500205A0020590020204D325C
:1019300030332058004D6178696D756D206665659E
:101940006472617465732028756E6974732F7329CE
:101950003A0A00204500205A0020590020204D3925
:101960003220580053746570732070657220756E54
:1019700069743A0A0020204D3230302044300A0089
:1019800020204D3230302044002044697361626C65
:1019900065640A0046696C616D656E7420736574D8
:1019A00074696E67733A0020204D3134392043202A
:1019B0003B20556E69747320696E2043656C7369B2
:1019C00075730A002020473231202020203B20550B
:1019D0006E69747320696E206D6D0A003A20007A7A
:1019E0005F6D696E3A20202D32207A5F6D61783A02
:1019F000202035005A204F66667365742000506CB5
:101A000065617365207265736574005052494E5468
:101A100045522048414C544544005072696E7465EB
:101A2000722068616C7465642E206B696C6C282967
:101A30002063616C6C6564210A006265640A002C95
:101A40002073797374656D2073746F707065642191
:101A5000204865617465725F49443A2000544845E6
:101A6000524D414C2052554E415741592042454418
:101A700000546865726D616C2052756E6177617992
:101A800000544845524D414C2052554E4157415902
:101A900020453100544845524D414C2052554E414D
:101AA0005741592045300048656174696E6720666A
:101AB00061696C6564204245440048656174696EE3
:101AC00067206661696C65640048656174696E676A
:101AD000206661696C65640048656174696E6720A1
:101AE0006661696C65642045300057726974696E7F
:101AF0006720746F2066696C653A20006F70656EB0
:101B0000206661696C65642C2046696C653A20002A
:101B10006F70656E206661696C65642C2046696C27
:101B2000653A200046696C652073656C6563746571
:101B3000640A002053697A653A200046696C652082
:101B40006F70656E65643A20006F70656E20666127
:101B5000696C65642C2046696C653A2000206669D2
:101B60006C653A20004E6F7720002220706F730062
:101B70002220706172656E743A2200535542524FB2
:101B80005554494E452043414C4C20746172676561
:101B9000743A22004B494C4C45442E200074727913
:101BA000696E6720746F2063616C6C207375622DA1
:101BB00067636F64652066696C6573207769746814
:101BC00020746F6F206D616E79206C6576656C7323
:101BD0002E204D4158206C6576656C2069733A0063
:101BE0004572726F722077726974696E6720746FC4
:101BF00020454550524F4D210A00486F6D65202504
:101C00007325732573206669727374002066697288
:101C100073740A005A0059005800486F6D6520001F
:101C200000060900FE06018902FE20FFFE07FE06EF
:101C3000FE00000006000701060606020080808004
:101C4000800080030303060103A0A0A00507070688
:101C500000FF5050F850F850500509090600FE20CA
:101C600070A8A07028A870200608080600FF40A8E9
:101C70004810204854080507070600FF6090906050
:101C8000989068010303060203808080020707061C
:101C900002FF408080808080400207070602FF80AC
:101CA0004040404040800505050600008850F8503F
:101CB000880505050600002020F8202002040406FF
:101CC00002FEC0404080050101060002F802020247
:101CD000060200C0C0040606060100101020408065
:101CE000800406060601006090909090600306064E
:101CF00006010040C0404040E004060606010060C6
:101D000090102040F0040606060100F0206010103C
:101D1000E005060606000010305090F81004060694
:101D2000060100F080E01010E004060606010060E5
:101D300080E0909060040606060100F0101020403C
:101D4000400406060601006090609090600406065C
:101D5000060100609090701060020505060200C048
:101D6000C000C0C00207070602FEC0C000C040405D
:101D7000800505050600001860806018050303064D
:101D80000001F800F8050505060000C0300830C065
:101D90000407070601006090106040004005060639
:101DA0000600007090A8B0807005060606000020AE
:101DB0005088F88888050606060000F088F08888B4
:101DC000F00406060601006090808090600406061C
:101DD000060100E090909090E0040606060100F0F5
:101DE00080E08080F0040606060100F080E080803C
:101DF00080040606060100609080B090600406062C
:101E00000601009090F0909090030606060100E015
:101E100040404040E00506060600003810101090D3
:101E20006004060606010090A0C0A090900406067B
:101E30000601008080808080F0050606060000888C
:101E4000D8A8A8888804060606010090D0B0909013
:101E500090050606060000708888888870040606CB
:101E6000060100E09090E080800407070601FF6013
:101E70009090D0B06010040606060100E09090E05B
:101E800090900406060601006090402090600506D0
:101E900006060000F8202020202004060606010087
:101EA000909090909060040606060100909090F04B
:101EB00060600506060600008888A8A8D888050680
:101EC00006060000885020205088050606060000FF
:101ED000888850202020040606060100F0102040CB
:101EE00080F0030606060100E080808080E00406A2
:101EF000060601008080402010100306060601003F
:101F0000E020202020E00503030600032050880580
:101F100001010600FEF802020206020480400404E9
:101F2000040601007090907004060606010080808F
:101F3000E09090E0040404060100708080700406C4
:101F40000606010010107090907004040406010051
:101F500060B0C070040606060100205040E040401A
:101F60000406060601FE60909070106004060606E6
:101F700001008080E090909003060606010040007A
:101F8000C04040E00308080601FE20006020202039
:101F9000A0400406060601008080A0C0A0900306B1
:101FA00006060100C040404040E005040406000071
:101FB000D0A8A888040404060100E09090900404CE
:101FC00004060100609090600406060601FEE090A1
:101FD00090E080800406060601FE7090907010105C
:101FE000040404060100A0D080800404040601005B
:101FF00070C030E00406060601004040E04050207A
:10200000040404060100909090700404040601008A
:102010009090606005040406000088A8A85004049D
:1020200004060100906060900406060601FE909090
:1020300090709060040404060100F02040F0030753
:1020400007060100204040804040200107070602AB
:10205000FF80808080808080030707060100804029
:10206000402040408004020206010350A0FFFFFF11
:10207000FFFFFFFFFFFFFFFFFFFFFFFFFFFFFFFF70
:10208000FFFFFFFFFFFFFFFFFFFFFFFFFFFF00005E
:10209000000600070106060602008000808080809E
:1020A0000406060601FF2070A0A0702005070706A1
:1020B00000FF304840F04040F8050505060000A844
:1020C000508850A80506060600008850F820F82021
:1020D0000107070602FF80808000808080040707D8
:1020E0000601FF708060906010E0030101060105A9
:1020F000A0060707060000788494A494847803055A
:102100000506010160A06000E00505050600002845
:1021100050A05028040303060100F0101004010130
:10212000060102F00607070600007884B4A4A48420
:1021300078040101060105F0040303060102609022
:10214000600507070600FF2020F8202000F803059F
:102150000506010140A02040E0030505060101C07D
:10216000204020C002020206020440800405050649
:1021700001FF9090B0D08005060606000078E8E8E0
:10218000682828010101060202800202020602FEFE
:10219000408003050506010140C04040E0030505FD
:1021A00006010140A04000E0050505060000A05022
:1021B0002850A00508080600FF40C0405070307845
:1021C000100508080600FF40C04050680810380598
:1021D00008080600FFC0204030F0307810040707E0
:1021E00006010020002060809060050707060000BF
:1021F0004020205070888805070706000010202026
:10220000507088880507070600002050205070880D
:1022100088050707060000285020507088880507A9
:102220000706000050002050708888050707060048
:10223000002050205070888805060606000078A00F
:10224000F0A0A0B80408080601FE609080809060AD
:1022500020400407070601004020F080E080F004E1
:1022600007070601002040F080E080F00407070621
:1022700001002050F080E080F004070706010050C4
:1022800000F080E080F00307070601008040E04096
:102290004040E00307070601002040E0404040E0E6
:1022A00003070706010040A0E0404040E0030707A5
:1022B000060100A000E0404040E0050606060000E0
:1022C0007048E848487004070706010050A090D005
:1022D000B090900407070601004020609090906045
:1022E00004070706010020406090909060040707F3
:1022F00006010020506090909060040707060100DE
:1023000050A06090909060040707060100500060A4
:1023100090909060050505060000885020508804C4
:1023200008080601FF1070B0B0D0D0E080040707A5
:10233000060100402090909090600407070601007D
:102340002040909090906004070706010020509074
:1023500090909060040707060100500090909090C4
:102360006005070706000010208850202020040682
:102370000606010080E09090E08004060606010059
:102380006090A0A090A00407070601004020007004
:102390009090700407070601002040007090907034
:1023A0000407070601002050007090907004070792
:1023B00006010050A000709090700406060601000F
:1023C00050007090907004070706010020502070A4
:1023D00090907005040406000070A8B0780406060A
:1023E0000601FE708080702040040707060100404F
:1023F000200060B0C07004070706010020400060A4
:10240000B0C07004070706010020500060B0C07023
:10241000040606060100500060B0C07003070706FE
:102420000100804000C04040E00307070601002093
:102430004000C04040E003070706010040A000C084
:102440004040E0030606060100A000C04040E00452
:1024500007070601003060107090906004070706BF
:10246000010050A000E09090900407070601004092
:102470002000609090600407070601002040006083
:102480009090600407070601002050006090906063
:1024900004070706010050A0006090906004060643
:1024A00006010050006090906005050506000020C0
:1024B00000F8002004040406010070B0D0E0040716
:1024C0000706010040200090909070040707060165
:1024D00000204000909090700407070601002050F3
:1024E00000909090700406060601005000909090B5
:1024F000700409090601FE204000909090709060E1
:102500000408080601FE8080E09090E080800408C6
:10251000080601FE500090909070906052657769B7
:1025200070696E670050726F62696E6720666169DC
:102530006C65640050726F62696E67206661696CD9
:1025400065640050524F4245204641494C20434C5F
:1025500045414E204E4F5A5A4C450A005265776904
:1025600070696E670A005265776970696E6700501E
:10257000726F62696E67206661696C656400507293
:102580006F62696E67206661696C65640050524FC6
:102590004245204641494C20434C45414E204E4F38
:1025A0005A5A4C450A005265776970696E670A008D
:1025B00050726F62696E67206661696C65640A00BB
:1025C00050726F62696E67206661696C6564002095
:1025D0005A3A200020593A200042656420583A2097
:1025E000000A0A426564204C6576656C20436F7270
:1025F00072656374696F6E204D61747269783A0018
:10260000202B000A436F7272656374656420426513
:1026100064204865696768742076732E204265647B
:1026200020546F706F6C6F67793A0A00202B000A94
:102630004265642048656967687420546F706F67ED
:1026400072617068793A0A2020202B2D2D2D2042AE
:1026500041434B202D2D2B0A2020207C20202020A0
:10266000202020202020207C0A204C207C2020209C
:1026700020282B29202020207C20520A2045207C45
:1026800020202020202020202020207C20490A20DB
:1026900046207C20282D29204E20282B29207C20F4
:1026A000470A2054207C2020202020202020202089
:1026B000207C20480A2020207C20202020282D2932
:1026C000202020207C20540A2020207C2020202034
:1026D000202020202020207C0A2020204F2D2D206B
:1026E00046524F4E54202D2D2B0A2028302C3029B5
:1026F0000A004D65616E206F662073616D706C65B8
:102700006420706F696E74733A200020643A200070
:1027100020623A200045716E20636F6566666963CA
:1027200069656E74733A20613A200052756E6E6965
:102730006E6720696E204452592D52554E206D6FA0
:1027400064650A00473239204175746F2042656420
:10275000204C6576656C696E670A002842296163C2
:102760006B00284629726F6E7400285229696768C9
:102770007400284C29656674003F4E756D62657261
:10278000206F662070726F626520706F696E74735F
:1027900020697320696D706C61757369626C652066
:1027A0002832206D696E696D756D292E0A003F28EB
:1027B00056296572626F7365206C6576656C206959
:1027C0007320696D706C61757369626C6520283067
:1027D0002D34292E0A0053442063617264206F6BEC
:1027E0000A006F70656E526F6F74206661696C6568
:1027F000640A00766F6C756D652E696E697420666B
:1028000061696C65640A00534420696E69742066CE
:1028100061696C0A0043616E6E6F7420656E746549
:1028200072207375626469723A2000022E2E004D88
:1028300061696E004D6F766520302E316D6D004DF3
:102840006F766520316D6D004D6F76652031306D8E
:102850006D004D6F766520617869730045787472FC
:1028600075646572004D6F7665205A004D6F766510
:102870002059004D6F7665205800746F2072657383
:10288000756D65005761697420666F72207072699A
:102890006E74005052494E542050415553454400E7
:1028A00045787472756465206D6F7265005265734A
:1028B000756D65207072696E7400524553554D45B3
:1028C000204F5054494F4E533A0020204E6F7A7A91
:1028D0006C653A20002000506C656173652077615B
:1028E00069742E2E2E0048656174696E67206E6FC4
:1028F0007A7A6C65005052494E54205041555345E8
:10290000440020204E6F7A7A6C653A2000200068DF
:10291000656174206E6F7A7A6C652E0050726573F3
:102920007320627574746F6E20746F005052494E3C
:1029300054205041555345440020204E6F7A7A6C04
:10294000653A2000200066696C616D656E742065D3
:10295000787472756465005761697420666F7200DF
:102960005052494E54205041555345440020204E6A
:102970006F7A7A6C653A2000200066696C616D653B
:102980006E74206C6F6164005761697420666F72A9
:10299000005052494E542050415553454400202088
:1029A0004E6F7A7A6C653A2000746F20636F6E7494
:1029B000696E75652E2E2E00616E642070726573CF
:1029C0007320627574746F6E00496E736572742043
:1029D00066696C616D656E74005052494E542050AA
:1029E000415553454400656E7175657565696E673F
:1029F0002022007C3C3E5E2B3D3F2F5B5D3B2C2A22
:102A0000225C0043616E6E6F74206F70656E207380
:102A10007562646972200001050800FF0601210249
:102A20003520FFFF07FF06FF090050221656808061
:102A300080800080153353A0A0A00257575050F853
:102A400050F850500257572070A07028702013354E
:102A50005580A040A02002475740A0A040A0A05011
:102A6000251353808080122656408080808040123B
:102A700026568040404040800245559060F060906E
:102A80000255552020F82020113353604080044126
:102A900051F011335340E040024656101020408060
:102AA0008012365640A0A0A0A04012365640C0402A
:102AB0004040E00246566090106080F0024656F0BA
:102AC00020601090600246562060A0F02020024650
:102AD00056F080E01090600246566080E090906072
:102AE000024656F01020204040024656609060900A
:102AF0009060024656609090701060122555C0C0DC
:102B000000C0C0113656606000604080123656200A
:102B10004080804020034353F000F012365680403E
:102B20002020408012365640A020400040015858D6
:102B3000304898A8A8904030024656609090F09097
:102B400090024656E090E09090E0024656609080F9
:102B5000809060024656E090909090E0024656F0D9
:102B600080E08080F0024656F080E080808002465F
:102B700056609080B090600246569090F090909091
:102B8000123656E040404040E00246567020202079
:102B9000A04002465690A0C0A0A090024656808059
:102BA000808080F002465690F0F090909002465659
:102BB00090D0F0B0B0900246566090909090600235
:102BC0004656E09090E08080014757609090D0B0EA
:102BD0006010024656E09090E09090024656609059
:102BE00040209060123656E0404040404002465639
:102BF0009090909090600246569090909060600205
:102C00004656909090F0F0900246569090606090FA
:102C100090025656888850202020024656F01020F8
:102C20004080F0123656E080808080E00246568078
:102C30008040201010123656E020202020E016326E
:102C40005240A0014151F01622528040024454707B
:102C50009090700246568080E09090E0123454606C
:102C6000808060024656101070909070024454604C
:102C7000B0C060024656205040E0404001455560DB
:102C8000907010600246568080E090909012365608
:102C90004000C04040E01137572000202020A040D5
:102CA000024656808090E09090123656C0404040D8
:102CB00040E0025454D0A8A8A8024454E090909058
:102CC00002445460909060014555E090E08080019E
:102CD00045557090701010024454A0D0808012347A
:102CE0005460C020C00246564040E040502002449C
:102CF0005490909070123454A0A0A0400254548874
:102D0000A8A850024454906060900145559090707E
:102D10009060024454F02040F0024757304020C0F9
:102D2000204030221656808080808080024757C025
:102D30002040304020C006425250A0FFFFFFFFFF5E
:102D4000FFFFFFFFFFFFFFFFFFFFFFFFFFFFFFFF93
:102D5000FFFFFFFFFFFFFFFFFFFFFFFF0900502204
:102D600016568000808080800146562070A0A0709A
:102D7000200246562050E04050A002555588705021
:102D800070880256568850F820F820221757808005
:102D900080008080800247577080E0907010E017BC
:102DA0003151A002565670A8C8C8A8701435556095
:102DB000A06000E003435350A050123353E02020A2
:102DC000143151E002565670E8D8E8D870173151E6
:102DD000E015335340A04012355540E04000E01468
:102DE000355540A02040E0143555C020C020C01605
:102DF00022524080014555909090E08002565678CE
:102E0000E8E86828282411518011225240801435A6
:102E10005540C04040E014355540A04000E0034319
:102E200053A050A0024757808080A060F020024746
:102E3000578080A0D010207002475780408060A04B
:102E4000F02012365640004080A0400247574020F4
:102E50006090F0909002475720406090F090900270
:102E6000475760906090F0909002475750A0609054
:102E7000F0909002475790006090F0909002475772
:102E800060906090F0909002465670A0A0F0A0B0C4
:102E9000014757609080809060400247574020F083
:102EA00080E080F00247572040F080E080F0024749
:102EB000576090F080E080F00247579000F080E08B
:102EC00080F01237578040E0404040E012375720F2
:102ED00040E0404040E012375740A0E0404040E032
:102EE000123757A000E0404040E00256567048E8D4
:102EF00048487002475750A090D0B0909002475772
:102F000040206090909060024757204060909090E1
:102F1000600247576090609090906002475750A0C1
:102F2000609090906002475790006090909060127F
:102F30003353A040A002465670B0B0D0D0E0024754
:102F4000574020909090906002475720409090907A
:102F50009060024757609090909090600247579021
:102F600000909090906002575710208850202020A9
:102F700002465680E09090E0800246566090A0A005
:102F800090A0024757402000709090700247572051
:102F900040007090907002475720500070909070E1
:102FA00002475750A0007090907002465650007033
:102FB00090907002475760906070909070025454E7
:102FC000F068B07811355560808060400247574006
:102FD000200060B0C06002475720400060B0C06071
:102FE00002475760900060B0C060024656500060D3
:102FF000B0C060123757804000C04040E0123757E1
:10300000204000C04040E012375740A000C0404080
:10301000E0123656A000C04040E0024757A040A052
:103020001070906002475750A000E09090900247C7
:103030005740200060909060024757204000609009
:103040009060024757609000609090600247575030
:10305000A0006090906002465690006090906012D0
:1030600035554000E0004002445470B0D0E00247C3
:103070005740200090909070024757204000909059
:103080009070024757609000909090700246569062
:10309000009090907001485820400090907090608F
:1030A0000147578080E090E0808001475790009072
:1030B0009070906001050700FE0500FB01F220FF03
:1030C000FE05FE05FE02004002152580808000807E
:1030D000053242A0A002556550F850F850014656FE
:1030E0002070C030E0200255659010204048025505
:1030F00065608068906805122280800225354080D6
:103100008080400225358040404080043343A04009
:10311000A003334340E0400122324080043141E0CB
:10312000021121800255650810204080024555603B
:1031300090909060022535C040404040024555E0E7
:10314000106080F0024555E0106010E00245552007
:1031500060A0F020024555F080E010E00245556087
:1031600080E09060024555F01020404002455560D7
:10317000906090600245556090701060031323804A
:103180000080021424800080800235452040804069
:1031900020033343E000E0023545804020408002B8
:1031A0004555E0106000400255657088B8A870026F
:1031B0004555609090F090024555E090E090E00217
:1031C00035456080808060024555E0909090E00237
:1031D0003545E080E080E0023545E080E080800217
:1031E00045557080B090700245559090F0909002D7
:1031F0003545E0404040E0024555301010906002F7
:10320000455590A0C0A09002354580808080E002A6
:10321000556588D8A8888802455590D0B09090020E
:1032200045556090909060024555E09090E0800197
:103230004656609090906010024555E09090E09066
:1032400002455570806010E0023545E04040404046
:1032500002455590909090600245559090A0A040F6
:1032600002556588A8A8A850024555909060909096
:103270000245559090701060023545E0204080E096
:10328000022535C0808080C002556580402010082E
:10329000022535C0404040C005324240A0024151A5
:1032A000F0052232804002445470909070024555DF
:1032B00080E09090E00234446080806002455510C8
:1032C0007090907002445460B0C060023545204058
:1032D000E040400046567090907010600245558066
:1032E000E090909002152580008080800027374074
:1032F0000040404040800245558090A0E09002157B
:10330000258080808080025464F0A8A8A8024454DC
:10331000E090909002445460909060004656E09097
:1033200090E08080004656709090701010023444F7
:10333000A0C0808002445470C030E002354540E0B7
:10334000404020024454909090700244549090A0C9
:1033500040025464A8A85050023444A04040A00049
:103360004656909090701060024454F02040F00255
:103370003545604080406002152580808080800255
:103380003545C0402040C005425250A0FFFFFFFF1E
:10339000FFFFFFFFFFFFFFFFFFFFFFFFFFFFFFFF3D
:1033A000FFFFFFFFFFFFFFFFFFFFFFFFFF020040E8
:1033B000FFFFFFFFFFFFFFFFFFFFFFFFFFFFFFFF1D
:1033C000FFFFFFFFFFFFFFFFFFFFFFFFFFFFFFFF0D
:1033D000FFFFFFFFFFFFFFFFFFFFFFFFFFFFFFFFFD
:1033E000FFFFFFFFFFFFFFFFFFFFFFFFFFFFFFFFED
:1033F000FFFFFFFFFFFFFFFFFFFFFFFFFFFFFFFFDD
:10340000FFFFFFFFFFFFFFFFFFFFFFFFFFFFFF01CA
:10341000060D00FE09016602D620FFFE0BFE0AFE25
:103420000D00602219698080808080808000801873
:103430003363A0A0A00357675050F850F8505002D3
:1034400059692078A0A0702828F02002596948A85E
:103450005010204050A89002586840A0A040A0986A
:103460009068281363808080113B6B2040408080EF
:10347000808080404020113B6B80404020202020F5
:103480002040408006556520A870A820045565207E
:1034900020F82020113363604080065161F8113319
:1034A0006340E040025969080810102040408080C5
:1034B00002596920508888888888502002596920DC
:1034C00060A02020202020F8025969708888081008
:1034D000204080F8025969F80810207008088870A8
:1034E000025969101030505090F81010025969F8C4
:1034F0008080B0C80808887002596970888080F0A0
:1035000088888870025969F80810102020404040CF
:103510000259697088888870888888700259697033
:10352000888888780808887011386840E040000072
:1035300040E04011386840E040000060408002599F
:1035400069081020408040201008045464F80000EE
:10355000F802596980402010081020408002596903
:103560007088880810202000200259697088889887
:10357000A8A8B080780259692050888888F888887F
:1035800088025969F048484870484848F00259692B
:10359000708880808080808870025969F04848482F
:1035A00048484848F0025969F8808080F08080805F
:1035B000F8025969F8808080F08080808002596923
:1035C0007088808080988888700259698888888887
:1035D000F888888888123969E0404040404040407F
:1035E000E0025969381010101010109060025969EB
:1035F000888890A0C0A090888802596980808080C7
:1036000080808080F80259698888D8A8A88888882E
:103610008802596988C8C8A8A898988888025969F2
:10362000708888888888888870025969F0888888B6
:10363000F080808080015A6A70888888888888A88D
:103640007008025969F0888888F0A090888802592B
:1036500069708880807008088870025969F8202095
:10366000202020202020025969888888888888881E
:1036700088700259698888888850505020200259E3
:103680006988888888A8A8A8A8500259698888509D
:103690005020505088880259698888505020202036
:1036A0002020025969F808101020404080F8113B92
:1036B0006BE0808080808080808080E0025969801B
:1036C0008040402010100808113B6BE02020202093
:1036D0002020202020E0085363205088015161F809
:1036E0002A226280400256667008788898680259DB
:1036F00069808080F088888888F0025666708880AB
:103700008088700259690808087888888888780253
:1037100056667088F880887002596930484040F0D9
:103720004040404000586870888888780888700257
:103730005969808080B0C8888888881238684000BD
:10374000C040404040E0004A6A10003010101010A5
:1037500090906002596980808090A0C0A0908812EB
:103760003969C040404040404040E0025666D0A821
:10377000A8A8A888025666B0C888888888025666B5
:10378000708888888870005868F0888888F0808001
:10379000800058687888888878080808025666B0DB
:1037A000C8808080800256667088601088700258D9
:1037B000684040F04040404830025666888888881B
:1037C0009868025666888888505020025666888815
:1037D000A8A8A85002566688502020508800586833
:1037E0008888889868088870025666F8102040809B
:1037F000F8015B6B1820202020C0202020201822F8
:103800001969808080808080808080015B6BC0200F
:103810002020201820202020C008536348A890FFB3
:10382000FFFFFFFFFFFFFFFFFFFFFFFFFFFFFFFFA8
:10383000FFFFFFFFFFFFFFFFFFFFFFFFFFFFFFFF98
:103840000D00602219698000808080808080800364
:1038500058682070A8A0A0A870200259693048407C
:1038600040E0404048B0035666887050507088026F
:10387000596988885050F820F820202219698080E2
:1038800080800080808080124A6A60908060909082
:10389000601090601A3262A0A00359697088A8D89D
:1038A000C8D8A88870045767700878887800F8032B
:1038B00056662850A0A05028045363F80808163113
:1038C00061E00359697088E8D8D8E8D888700A514F
:1038D00061F8174464609090600357672020F820D7
:1038E0002000F807356540A02040E007356540A07E
:1038F0004020C02A226240800058688888888898C2
:10390000E8808002596978E8E8E8E86828282826ED
:103910002161C0202262408007356540C04040E000
:10392000045767708888887000F8035666A050288E
:103930002850A0025A6A40C04040E00818283808C1
:10394000025A6A40C04040E01028081038025A6A03
:1039500040A04020A04818283808025969200020BB
:10396000204080888870025A6A4020002050888851
:10397000F88888025A6A10200020508888F88888C1
:10398000025A6A30480020508888F88888025A6AAB
:1039900028500020508888F88888025A6A505000C1
:1039A00020508888F88888025A6A20502020508841
:1039B00088F8888802596958A0A0A0B0E0A0A0B8F3
:1039C000005B6B7088808080808088702040025A05
:1039D0006A402000F88080F08080F8025A6A102047
:1039E00000F88080F08080F8025A6A304800F88041
:1039F00080F08080F8025A6A505000F88080F08091
:103A000080F8123A6A804000E04040404040E012B6
:103A10003A6A204000E04040404040E0124A6A607C
:103A20009000E04040404040E0123A6AA0A000E030
:103A30004040404040E0025969F0484848E8484862
:103A400048F0025A6A2850008888C8A898888802D6
:103A50005A6A40200070888888888870025A6A10E4
:103A6000200070888888888870025A6A3048007000
:103A7000888888888870025A6A28500070888888E8
:103A8000888870025A6A50500070888888888870C8
:103A90000355658850205088015B6B08709898A882
:103AA000A8A8C8C87080025A6A4020008888888800
:103AB000888870025A6A10200088888888888870F0
:103AC000025A6A30480088888888888870025A6A52
:103AD00050500088888888888870025A6A102000B0
:103AE0008888502020202002596980F0888888F03A
:103AF000808080025969609090A0A0908888B00270
:103B00005969402000700878889868025969102027
:103B10000070087888986802596930480070087801
:103B20008898680259692850007008788898680257
:103B30005969505000700878889868025A6A30486D
:103B40003000700878889868025666702870A0A8BF
:103B50005000586870888080887020400259694001
:103B600020007088F88088700259691020007088E1
:103B7000F88088700259693048007088F880887031
:103B80000259695050007088F88088701239698035
:103B90004000C040404040E0123969204000C04031
:103BA000404040E0124969609000C040404040E021
:103BB000123969A0A000C040404040E0025A6A505B
:103BC000206010708888888870025969285000B079
:103BD000C888888888025969402000708888888849
:103BE00070025969102000708888888870025969AD
:103BF00030480070888888887002596928500070A1
:103C00008888888870025969505000708888888830
:103C100070035767202000F80020200158680870C2
:103C200098A8A8C8708002596940200088888888B0
:103C30009868025969102000888888889868025915
:103C4000693048008888888898680259695050000F
:103C5000888888889868005B6B102000888888981E
:103C600068088870005A6A8080B0C88888C8B080A8
:103C700080005B6B505000888888986808887000C6
:103C80000000000000000000000000000000000034
:103C90000000000000000000000000000000000024
:103CA00000000C000000000000000C0000000000FC
:103CB00000001200000000000000230000000000CF
:103CC000000021000000000000004C800000000007
:103CD00000005E8000000000000092400000000034
:103CE0000000A140000000000001212000000000B1
:103CF00000027F90000000000002001000000000A1
:103D00000007FFF8000000000004000800000000A9
:103D10000008000400000000000800060000000089
:103D2000001000020000000000301E010000000032
:103D300000207F81000000000041FFE080000000C3
:103D40000043FCF08000000000873B78400000004A
:103D5000018EDBFC60000000010FEBCC20000000B6
:103D6000021FEDB610000000021FDEB610000000BA
:103D70000439CD7F080000000436E0FF0800000091
:103D8000087EC0BB84000000187F005D8600000034
:103D9000107FC0ED82000000203CC07301000000D5
:103DA000203B337F01000000701BE77E0380000092
:103DB000C81DEEDE04C00000880FDEDC04400001F8
:103DC000240FDF3C092000012607DBF81920000240
:103DD0007203E7F0139000025101FFE0229000040B
:103DE00089007F802448000904801E004824000BBD
:103DF000FE400000DFF40010004000008002001FC1
:103E0000FFFFFFFFFFFE00000000000000000000B9
:103E10000000000000000000000000000000001092
:103E200022103C3C0E1F001022100422110400102E
:103E300022100822110400102210083C1104001066
:103E40002210102211040010221020221104001E42
:103E50001C1E3C3C0E04000000000000000000009E
:103E60000000000000000000000000000000000052
:103E70000000000000000000000000000000000042
:103E80000000000000000000000000000000000032
:103E90000000000000000000000000000000000022
:103EA0000000000000000000000000000000000012
:103EB000000000000000000000000000000A003BBD
:103EC00020454550524F4D20496E6465783A200098
:103ED0005570646174696E67207A6F666673657485
:103EE00020696E20454550524F4D3A20000600068D
:103EF0000006000600060006000600060006003F59
:103F0000C01F800F00060006000F001F803FC00684
:103F10000006000600060006000600060006000671
:103F20000007F8000C0C0010020020010060018066
:103F30004000804003E04001C0400080400000405D
:103F400000006000002000001000000C0C0007F8CA
:103F50000001FE0003030004008008004018006018
:103F60001000207C002038002010002000002000DD
:103F7000002000006000004000008003030001FEFC
:103F800000FFFFFF7F80FFC0FFC0FFC07F807F80FA
:103F9000FFC0FFC0FFC03F001E000C005A204F664C
:103FA00066736574004D6F76652058004D6F7665B9
:103FB0002059004D6F7665205A00457874727564FB
:103FC0006572000200002100240027002A002D0055
:103FD0003000330001010000040107010A01010261
:103FE000102020080810204010204080020102010B
:103FF00008040201010204081020408080402010C3
:10400000080402018004020180402010080402011B
:104010000804020101020408102040800102040883
:10402000102040800505050507050808080802025C
:1040300002020A0A08080404040401010101010142
:1040400001010303030303030303040707070C0C25
:104050000C0C0C0C0C0C02020202060606060606EC
:1040600006060B0B0B0B0B0B0B0B1FFFFFFFFFFFD2
:10407000FF600000000001FF400000000000FF8022
:1040800000000000007F83CF00000C303F87FF80DE
:10409000000C301F867980000C000F8C30C7838C99
:1040A00030E78C30CFC7CC31F38C30DCECEC33B95B
:1040B0008C30D86C6C33198C30D06C0C33198C303C
:1040C000D86C0C33198C30DC6C0E3B198C30CF7CE7
:1040D000079F198C30C77C038F1940000000000037
:1040E00002600000000000061FFFFFFFFFFFF82036
:1040F00020506C616E6E65724275666665724279BB
:104100007465733A20002046726565204D656D6FB9
:1041100072793A2000436F6D70696C65643A20448F
:10412000656320313520323031370A00207C204150
:104130007574686F723A2028416C657068204F6210
:104140006A6563747320496E632E2C204C756C7AFB
:10415000426F7420476974205265706F7369746F81
:104160007279290A004465632031352032303137B5
:1041700031353A32353A303000204C617374205575
:104180007064617465643A2000312E312E350A0066
:104190004D61726C696E0020536F66747761726551
:1041A0002052657365740A00205761746368646FF8
:1041B000672052657365740A002042726F776E2023
:1041C0006F75742052657365740A002045787465B4
:1041D000726E616C2052657365740A00506F77656A
:1041E0007255700A0073746172740A006572726F9E
:1041F000722077726974696E6720746F2066696CCB
:10420000650A004572726F723A00456E6473746F8E
:1042100070732025632025632025632025630020FB
:10422000503A00205A3A0020593A0020583A006586
:104230006E6473746F7073206869743A20006563EC
:10424000686F3A00446F6E6520736176696E67200F
:1042500066696C652E0A004D323900004D3234001B
:104260005072696E7420706175736564004D3132EF
:1042700035004D363030204230004D3234004D3262
:1042800033202573006175746F25692E67004578AA
:10429000747275646572004D6F7665205A004D6FBB
:1042A00076652059004D6F76652058004D6F766514
:1042B0006D656E74004D6F7665206178697300449A
:1042C000697361626C6520737465707065727300E8
:1042D0004D383400426564204C6576656C696E67C4
:1042E000004732382058590A4D3130392053313780
:1042F000350A473238205A0A4D313039205231348C
:10430000350A4731320A4732390A4D3130342053A9
:1043100030004175746F20686F6D6500473238005A
:104320004D61696E00290A002062797465733B2033
:10433000637263200053657474696E6773205374ED
:104340006F72656420280020496E76616C69642074
:1043500065787472756465722000205A3A0020599D
:104360003A0020436F756E7420583A0020453A0099
:10437000205A3A0020593A00583A00205A00205951
:1043800000580020204D61783A2000205A00205922
:1043900000580020204D696E3A20004F6E20004FDB
:1043A000666600536F667420656E6473746F707315
:1043B0003A200053657474696E67205472617665A3
:1043C0006C20416363656C65726174696F6E3A203D
:1043D0000053657474696E6720526574726163740A
:1043E00020416363656C65726174696F6E3A200089
:1043F00053657474696E67205072696E74204163EE
:1044000063656C65726174696F6E3A200053657400
:1044100074696E67205072696E7420616E642054F6
:10442000726176656C20416363656C657261746965
:104430006F6E3A200020643A0020693A0020703AFA
:104440000020643A0020693A0020703A004B494C41
:104450004C45442E200024F4D43050C38E20C2A2F8
:104460004017828B7011127A910D816CD90AA86164
:10447000E108C7586607615143061E4B5D05C145FB
:10448000A7041A411104093D9803713931034036DC
:10449000DB0265339102D4305402802E1D02632C5E
:1044A000EE01752AC501B028A001102781018F25D2
:1044B00064012B244B01E0223401AC211F018D202B
:1044C0000D01801FFC00841EED00971DDF00B81C4D
:1044D000D200E61BC600201BBC00641AB200B21951
:1044E000A8000A19A0006A189900D1179100401776
:1044F0008B00B516840031167E00B31579003A158D
:104500007300C7146F0058146A00EE136600881316
:10451000630025135E00C7125B006C125700151272
:104520005400C111510070114F0021114B00D610E1
:1045300049008D1047004610440002104200C00F91
:104540004000800F3E00420F3C00060F3B00CB0EA8
:104550003800930E37005C0E3500270E3400F30D43
:104560003200C10D3100900D3000600D2E00320D73
:104570002D00050D2C00D90C2B00AE0C2900850C4C
:1045800029005C0C2700350C27000E0C2600E80BD8
:104590002400C40B2400A00B23007D0B23005A0B26
:1045A0002100390B2100180B2000F80A1F00D90A3E
:1045B0001E00BB0A1E009D0A1D00800A1D00630A22
:1045C0001C00470A1B002C0A1B00110A1A00F709DD
:1045D0001A00DD091900C4091900AB091900920974
:1045E00017007B091800630917004C0916003609EB
:1045F0001600200916000A091500F5081500E00844
:104600001400CC081400B8081400A4081400900882
:1046100013007D0812006B081300580812004608AA
:1046200012003408110023081100120811000108BB
:104630001100F0071000E0071000D0071000C007BD
:104640001000B0070F00A107100091070E008307AC
:104650000F0074070F0065070E0057070E0049078B
:104660000E003B070D002E070E0020070D0013075C
:104670000D0006070D00F9060C00ED060D00E00622
:104680000C00D4060C00C8060C00BC060C00B006DA
:104690000C00A4060B0099060C008D060B00820688
:1046A0000B0077060B006C060B0061060A0057062C
:1046B0000B004C060A0042060A0038060A002E06C5
:1046C0000A0024060A001A060A0010060900070656
:1046D0000A00FD050900F4050900EB050900E205E3
:1046E0000900D9050900D0050900C7050900BE0564
:1046F0000900B5050800AD050800A50509009C05E1
:104700000800940508008C050800840508007C0555
:104710000800740508006C050700650508005D05C4
:104720000700560508004E0507004705070040052D
:10473000080038050700310507002A050700230592
:1047400007001C050600160507000F0507000805F1
:10475000060002050700FB040600F5040700EE044E
:104760000600E8040600E2040700DB040600D504A6
:104770000600CF040600C9040600C3040600BD04F9
:104780000600B7040600B1040500AC040600A60448
:104790000600A00405009B04060095040500900493
:1047A00006008A04050085040500800406007A04DA
:1047B000050075040500700405006B04050066041F
:1047C0000500610405005C0405005704050052045F
:1047D00005004D04050048040500430405003E049F
:1047E00004003A04050035040500300404002C04DC
:1047F000050027040400230405001E0404001A0415
:10480000040016040500110404000D04040009044A
:1048100005000404040000040400FC030400F80381
:104820000400F4030400F0030400EC030400E803B4
:104830000400E4030400E0030400DC030400D803E4
:104840000400D4030400D0030400CC030400C80314
:104850000300C503030024F404D9201BC40C5C0E20
:104860009804C4095F0265077101F405F900FB04AF
:10487000B30048048700C1036900580355000303CF
:104880004500BE023A008402310053022A00290288
:10489000250004022000E4011C00C8011900AF013A
:1048A00017009801140084011300710110006101C8
:1048B000100051010E0043010D0036010B002B01C9
:1048C0000B0020010B00150109000C010900030178
:1048D0000800FB000800F3000800EB000700E400FC
:1048E0000600DE000600D8000600D2000600CC005C
:1048F0000500C7000500C2000500BD000400B900A6
:104900000400B5000400B1000400AD000400A900DB
:104910000400A5000300A20003009F0004009B0008
:10492000030098000300950002009300030090002C
:1049300003008D0002008B00030088000200860047
:10494000020084000300810002007F0002007D005D
:1049500002007B000200790002007700010076006F
:1049600002007400020072000100710002006F007A
:1049700002006D0001006C0002006A000100690085
:10498000020067000100660001006500010064008C
:1049900002006200010061000100600001005F0090
:1049A00002005D0001005C0001005B0001005A0094
:1049B0000100590001005800010057000100560095
:1049C0000100550001005400010053000000530095
:1049D00001005200010051000100500001004F0091
:1049E00001004E0000004E0001004D0001004C008F
:1049F00001004B0000004B0001004A00010049008B
:104A00000100480000004800010047000100460086
:104A10000000460001004500000045000100440080
:104A2000010043000000430001004200000042007A
:104A300001004100000041000100400001003F0072
:104A400000003F0001003E0000003E0001003D006C
:104A500000003D0001003C0000003C0000003C0064
:104A600001003B0000003B0001003A0000003A005A
:104A70000100390000003900010038000000380052
:104A80000000380001003700000037000100360048
:104A9000000036000000360001003500000035003F
:104AA0000000350001003400000034000000340034
:104AB0000100330000003300000033000100320029
:104AC000000032000000320001003100000031001F
:104AD0000000310001003000000030000000300014
:104AE00001002F0000002F0000002F0000002F0009
:104AF00001002E0000002E0000002E0001002D00FD
:104B000000002D0000002D0000002D0001002C00F1
:104B100000002C0000002C0000002C0001002B00E5
:104B200000002B0000002B0000002B0001002A00D9
:104B300000002A0000002A0000002A0001002900CD
:104B400000002900000029000000290000002900C1
:104B500001002800000028000000280000002800B4
:104B600000002800010027000000270000002700A7
:104B7000000027000000270001002600000026009A
:104B8000000026000000260000002600010025008D
:104B90000000250000002500000025000000250081
:104BA0000000250001002400000024000000240073
:104BB0000000240000002400010023000000230066
:104BC0000000230000002300000023000000230059
:104BD000000023000100220000002200000022004B
:104BE000000022000000220000002200010021003D
:104BF0000000210000002100000021000000210031
:104C00000000210000002100010020000000200021
:104C10000000200000002000000020000000200014
:104C2000000020000000200001001F0000001F0005
:104C300000001F0000001F0000001F0000001F00F8
:104C400000001F0001001E0000001E0000001E00EA
:104C500000001E0000004D383420582059205A20F2
:104C600045004572723A204D494E54454D50204200
:104C70004544004D494E54454D5020747269676754
:104C800065726564004572723A204D494E54454D37
:104C900050204531004572723A204D494E54454DE1
:104CA00050204530004572723A204D415854454DD0
:104CB0005020424544004D415854454D5020747297
:104CC00069676765726564004572723A204D4158A4
:104CD00054454D50204531004572723A204D41589F
:104CE00054454D502045300020746F6F206C6F6E1E
:104CF0006720657874727573696F6E20707265765F
:104D0000656E7465640A0020636F6C642065787456
:104D1000727573696F6E2070726576656E74656406
:104D20000A00436172642072656D6F7665640043AA
:104D300061726420696E736572746564004D36300B
:104D40003020486F74656E6420746F6F20636F6CE1
:104D50006420746F206368616E67652066696C61AA
:104D60006D656E740A004B64200023646566696E8D
:104D700065202044454641554C545F004B69200056
:104D800023646566696E65202044454641554C5450
:104D90005F004B70200023646566696E65202044C7
:104DA000454641554C545F00504944204175746F4D
:104DB00074756E652066696E69736865642120503C
:104DC000757420746865206C617374204B702C209E
:104DD0004B6920616E64204B6420636F6E73746155
:104DE0006E74732066726F6D2062656C6F772069D8
:104DF0006E746F20436F6E66696775726174696F58
:104E00006E2E680A00504944204175746F74756EA7
:104E100065206661696C6564212074696D656F75D4
:104E2000740A00504944204175746F74756E652092
:104E30006661696C6564212054656D70657261748A
:104E400075726520746F6F20686967680A00204B6F
:104E5000643A2000204B693A2000204B703A200031
:104E60000A20436C617373696320504944200A002F
:104E70002054753A2000204B753A2000206D61784F
:104E80003A2000206D696E3A200020643A2000200C
:104E9000626961733A2000526573746F72652066AF
:104EA00061696C73616665004D3530320A4D35308D
:104EB00030004C6F61642073657474696E677300B1
:104EC00053746F72652073657474696E6773004103
:104ED0006476616E6365642053657474696E67738C
:104EE000004D61696E005072696E742061626F726C
:104EF0007465640041626F7574204669726D7761F4
:104F00007265004E6F2053442063617264005072DA
:104F1000696E742066726F6D2053440053746F7015
:104F2000207072696E7400526573756D65207072C1
:104F3000696E74005061757365207072696E7400DB
:104F40004368616E67652066696C616D656E7400AB
:104F5000436F6E66696775726174696F6E00546540
:104F60006D7065726174757265004D6F76656D6503
:104F70006E740054756E6500496E666F20736372BF
:104F800065656E00202F002042403A0020403A0024
:104F90004E6F204C696E65204E756D62657220778C
:104FA00069746820636865636B73756D2C204C6150
:104FB0007374204C696E653A200053544F5050452D
:104FC000442E20005072696E7465722073746F7085
:104FD0007065642064756520746F206572726F72ED
:104FE000732E2046697820746865206572726F722E
:104FF00020616E6420757365204D39393920746FD6
:1050000020726573746172742E202854656D70650A
:105010007261747572652069732072657365742E90
:10502000205365742069742061667465722072650E
:105030007374617274696E67290A004E6F20436849
:1050400065636B73756D2077697468206C696E6534
:10505000206E756D6265722C204C617374204C69F2
:105060006E653A2000636865636B73756D206D69CA
:10507000736D617463682C204C617374204C696E8D
:10508000653A20004C696E65204E756D6265722030
:105090006973206E6F74204C617374204C696E6567
:1050A000204E756D6265722B312C204C617374201B
:1050B0004C696E653A20004D313130004D3331007E
:1050C0004D383420582059205A204500534420722E
:1050D000656164206572726F720A00446F6E6520AC
:1050E0007072696E74696E672066696C650A004B40
:1050F000494C4C45442E20004B494C4C2063617573
:10510000736564206279204B494C4C20627574743D
:105110006F6E2F70696E0A004B494C4C45442E202F
:10512000004B494C4C2063617573656420627920A3
:10513000746F6F206D75636820696E616374697642
:10514000652074696D65202D2063757272656E74BB
:1051500020636F6D6D616E643A20004C756C7A420D
:105160006F742054415A2036204F66662E004F66D9
:1051700066004F6E2000456E6473746F702061622C
:105180006F72740053746570732F6D6D004A657291
:105190006B00416363656C65726174696F6E005684
:1051A000656C6F63697479005A204F666673657425
:1051B00000416476616E6365642053657474696E42
:1051C0006773005654726176206D696E0056547292
:1051D0006176206D696E005654726176206D696E3D
:1051E00000566D696E00566D696E00566D696E00F1
:1051F000566D6178204500566D6178204500566DEA
:105200006178204500566D6178205A00566D6178AE
:10521000205A00566D6178205A00566D61782059E9
:1052200000566D6178205900566D617820590056FE
:105230006D6178205800566D6178205800566D6178
:10524000782058004D6F74696F6E004573746570F7
:10525000732F6D6D004573746570732F6D6D005AFB
:1052600073746570732F6D6D005A73746570732F4E
:105270006D6D005973746570732F6D6D0059737483
:105280006570732F6D6D005873746570732F6D6D3D
:10529000005873746570732F6D6D004D6F74696F76
:1052A0006E0056652D6A65726B0056652D6A6572D3
:1052B0006B0056652D6A65726B00567A2D6A6572B1
:1052C0006B00567A2D6A65726B0056792D6A65728D
:1052D0006B0056792D6A65726B0056792D6A65727E
:1052E0006B0056782D6A65726B0056782D6A657270
:1052F0006B0056782D6A65726B004D6F74696F6E26
:10530000004F666673657473206170706C696564C4
:10531000004572723A20546F6F206661722100540A
:105320006F6F206661722066726F6D2072656665B0
:1053300072656E636520706F696E740A00486172F1
:1053400064636F6465642044656661756C742053A2
:10535000657474696E6773204C6F616465640A00DC
:10536000282300002823000064000000102700000C
:105370000000964300009643000040400000C841F2
:105380000000C9420000C9420000C8440000D243E6
:10539000202863616C63756C6174656429210A005F
:1053A00020213D2000454550524F4D20435243207F
:1053B0006D69736D61746368202D202873746F723A
:1053C0006564292000290A002062797465733B20F6
:1053D00063726320002073746F7265642073657458
:1053E00074696E677320726574726965766564208E
:1053F0002800204D61726C696E3D563430290A00D8
:1054000028454550524F4D3D00454550524F4D2087
:1054100076657273696F6E206D69736D6174636810
:105420002000000020002300260029002C002F006F
:105430003200000100000301060109010000A0C1C3
:105440000000A0C1000000000000964300809743C8
:10545000000087435A204F666673657400466C6F80
:105460007700466C6F770046616E207370656564E7
:1054700020310046616E2073706565642031004202
:10548000656400426564004E6F7A7A6C65004E6F09
:105490007A7A6C6500537065656400537065656465
:1054A000004D61696E00416D6178204500416D617C
:1054B00078204500416D6178205A00416D61782067
:1054C0005A00416D6178205900416D617820590082
:1054D000416D6178205800416D6178205800412D60
:1054E00074726176656C00412D74726176656C0032
:1054F000412D7265747261637400412D726574721E
:1055000061637400416363656C00416363656C00B3
:105510004D6F74696F6E000000A0C100809743005A
:105520000000005761726E696E673A20486F6D69BE
:105530006E672042756D702044697669736F7220C2
:105540003C20310A000202040000A0400000A040FC
:10555000000000400000A0430080A14300008743FA
:1055600000004842000048420000404000000000A7
:10557000FF01FF5A2070726F6265206F75742E20D4
:105580006265640A005A2070726F6265206F7574DC
:105590002E2062656400486F6D6520585920666949
:1055A0007273740A00486F6D6520585920666972DD
:1055B000737400436F6F6C646F776E0046616E208A
:1055C000737065656420310046616E207370656597
:1055D0006420310042656400426564004E6F7A7A4F
:1055E0006C65004E6F7A7A6C65004D61696E004E95
:1055F000414E494E495459494E46CDCCCC3D0AD72F
:10560000233C17B7D13877CC2B329595E6241FB1C0
:105610004F0A000020410000C84200401C4620BC48
:10562000BE4CCA1B0E5AAEC59D74DA00F1CE1124D1
:105630001FBECFEFD1E2DEBFCDBF00E00CBF14E054
:10564000A0E0B2E0E2E1F3E402E00BBF02C00790A9
:105650000D92A831B107D9F725E1A8E1B4E001C066
:105660001D92A531B207E1F716E5CCE2D6E500E0E0
:1056700006C022970109FE010BBF0F940921CA320F
:10568000D10780E00807A9F70E9437B00D94782170
:105690000C9400002F923F924F925F926F927F92F4
:1056A0008F929F92AF92BF92CF92DF92EF92FF9232
:1056B0000F931F93CF93DF93CDB7DEB7C958D109AE
:1056C0000FB6F894DEBF0FBECDBF00912E0920E6C5
:1056D000029F800111240255184F8091800680FF9F
:1056E0001AC0EEE3F2E484917F013FEFE31AF30A7C
:1056F000811102C0780104C00E944159F701F3CF23
:10570000D7018D917D01882319F00E944159F8CF6E
:105710008AE00E94415910926A06109269068FE34E
:1057200080937F0610927E0610927D0610923204BE
:10573000109233041092340410923504F8018081E1
:105740000F5F1F4F8032D1F38E34B1F4818190ED21
:10575000980F9A3020F08D3211F08B3269F4329626
:10576000DF0131962C9120532A30D0F3CD01FC017A
:10577000019620812032D9F3F0937706E0937606E4
:105780007F01BFEFEB1AFB0A10816AE270E0C701EC
:105790000F944921009739F0DC0111978C918032E8
:1057A000E1F311961C921D3429F0143519F01734C9
:1057B00009F0CAC0F7014E2F9F2F81918032D9F393
:1057C00080538A3008F0C0C010937F0620917D0678
:1057D00030917E06E42FF92F6AE0AF014F5F5F4FF3
:1057E000629FC001639F900D1124208130E02053FF
:1057F0003109820F931F218120532A3030F090937A
:105800007E0680937D069A0103C09C01FA01E5CFD4
:10581000D9012F5F3F4F4C914032D1F31D34D1F469
:105820008E31910591F03CF48731910571F08C3106
:10583000910581F40AC08537910564F08737910599
:1058400024F0803AE3E09E0729F4B0936A06A0931F
:1058500069067AC010926A0610926906D0907606A0
:1058600041E050E0FD0131962C91222309F46CC0F7
:105870002132A1F41D3491F48032910579F4F09332
:105880006A06E093690663E270E0CF010F94492154
:10589000009709F459C0DC011C9256C00FEB020FAF
:1058A0000A31A0F59F01F90160812F5F3F4F6032FF
:1058B000D1F320ED260F2A3040F023ED260F2230C1
:1058C00020F06B3211F00C9455419F01602F70E075
:1058D000DB01B595A795B595A795B595A795AE5C50
:1058E000BB4F07707A01002E01C0EE0C0A94EAF754
:1058F000FC90FE28FC922115310511F02D1901C0F4
:1059000020E0DB01A85EBB4F2C930AC02091690602
:1059100030916A06232B21F4B0936A06A09369069E
:10592000208121542A3110F4DF019CCFDF01319610
:105930006C9160536A30D0F39D01F9012F5F3F4FA6
:1059400060816032D1F3F0CF80917F068D3411F405
:105950000C948735843511F40C94F840873411F099
:105960000C94384180917D0690917E068A31910594
:1059700009F47CC7A4F48430910544F48230910585
:105980000CF01FC197FF2BC00C945241843091053D
:1059900009F4E5C60C9709F427C70C9452418E31DF
:1059A000910511F40C94D5343CF48C31910509F433
:1059B000E6C70CF462C7E8C78B35910511F40C9467
:1059C0007E358C35910511F40C9483358A3591051B
:1059D00011F00C94524110927C060C94524180912B
:1059E0005702882311F40C9452410F94260887E340
:1059F00094E00F94C7060F94250A8091800683FDDA
:105A00008FC0C0904304D0904404E0904504F090CF
:105A10004604209188073091890740918A07509168
:105A20008B07C701B6010F94E119882309F478C0E8
:105A300080913604811138C060910A0270910B0286
:105A4000882777FD8095982F0F94E7199B01AC016B
:105A50006091600670916106809162069091630684
:105A60000F94E11987FF20C0C0928807D092890760
:105A7000E0928A07F0928B07EEE3F2E484918F01C3
:105A80000F5F1F4F882321F00E944159F801F6CF84
:105A9000EDE5F2E084918F010F5F1F4F882321F025
:105AA0000E944159F801F6CFC0904304D0904404BD
:105AB000E0904504F09046042091880730918907D2
:105AC00040918A0750918B07C701B6010F94131EAE
:105AD00020E030E048E453E40F943A20181604F52F
