:100000000C94DE270C944F4F0C94244F0C94F94E13
:100010000C94CE4E0C94A34E0C94784E0C944D4EF2
:100020000C94224E0C940F280C940F280C940F283B
:100030000C940F280C94D14F0C940F280C940F287B
:100040000C940F280C9491B70C940F280C940F2843
:100050000C940F280C940F280C94CB7C0C94BB515F
:100060000C940F280C94A4FF0D943E000C940F28C0
:100070000C940F280C940F280C940F280C940F2824
:100080000C940F280C940F280C940F280C940F2814
:100090000C940F280C940F280C940F280C940F2804
:1000A0000C940F280C940F280C940F280C940F28F4
:1000B0000C940F280C940F280C940F280C940F28E4
:1000C0000C940F280C940F280C940F280C940F28D4
:1000D0000C940F280C940F280C940F280C940F28C4
:1000E0000C940F289448974886488A489048CE48F0
:1000F0009B489F48A548A948AD48B348B748BB4866
:10010000CE48C148C548C94896509B50A050AA50F7
:10011000B4502D51BE50C650CE50D850E250EC5085
:10012000FB5005512D510F5119512351D7FFDDFFC0
:10013000EEFFF9FFE000EE00D600EE00E800D4008C
:10014000EE00D800EC00EC00EA00EA00EA00DE0075
:10015000DE00DE00E400DA00DA00DA00084AD73B0D
:100160003BCE016E84BCBFFDC12F3D6C74319ABD86
:1001700056833DDA3D00C77F11BED9E4BB4C3E91AA
:100180006BAAAABE000000803F05A84CCDB2D44E99
:10019000B93836A9020C50B9918688083CA6AAAA9B
:1001A0002ABE000000803F000D940D000D94050054
:1001B0000D9413000D94140E0D94CA120D940D0E8F
:1001C0000D9401000D94B1130D941A0E0D94111598
:1001D0000D9409000D94060E0D94FF0D0D9416005C
:1001E0004E414E494E495459494E46CDCCCC3D0A1C
:1001F000D7233C17B7D13877CC2B329595E6241FFF
:10020000B14F0A000020410000C84200401C4620B7
:10021000BCBE4CCA1B0E5AAEC59D7420746F6F20B5
:100220006C6F6E6720657874727573696F6E20707D
:10023000726576656E7465640A0020636F6C642075
:10024000657874727573696F6E2070726576656E0D
:100250007465640A0047322F47332062616420705E
:100260006172616D65746572730A00536C656570C7
:100270002E2E2E00205A3A200020593A20004265A6
:100280006420583A20004E6F206D6F76652E004531
:100290006E642066696C65206C6973740A0042653F
:1002A00067696E2066696C65206C6973740A004D1D
:1002B0003132350046696C652064656C657465642F
:1002C0003A0044656C6574696F6E206661696C659F
:1002D000642C2046696C653A20006F70656E20665C
:1002E00061696C65642C2046696C653A2000507227
:1002F000696E742074696D653A2000000125301D17
:100300000C1824311C0B17232F1B0A1EFF04030893
:10031000060202222B1A4142033809FF36282945DA
:1003200027444350726F7465637465642050696E2E
:100330000A0042656420646F6E652E0020573A0003
:100340004265642068656174696E672E0042656469
:1003500020636F6F6C696E672E004C756C7A426F0C
:10036000742054415A2037204F66662E004D313498
:100370003520533C696E6465783E206F7574206F3C
:10038000662072616E67652028302D31290A00537E
:10039000657474696E672054726176656C20416380
:1003A00063656C65726174696F6E3A2000536574A1
:1003B00074696E672052657472616374204163636F
:1003C000656C65726174696F6E3A20005365747470
:1003D000696E67205072696E7420416363656C6555
:1003E000726174696F6E3A200053657474696E6748
:1003F000205072696E7420616E642054726176655B
:100400006C20416363656C65726174696F6E3A203C
:1004100000205A00205900580020204D61783A20D1
:1004200000205A00205900580020204D696E3A20C3
:10043000004F6E20004F666600536F667420656E35
:100440006473746F70733A200050726F6265205A43
:10045000204F66667365743A200020643A00206974
:100460003A0020703A0020643A0020693A00207077
:100470003A0043290A0061626C656420286D696E48
:100480002074656D702000436F6C64206578747211
:10049000756465732061726520004B6420002364DD
:1004A0006566696E65202044454641554C545F00A1
:1004B0004B69200023646566696E652020444546CB
:1004C00041554C545F004B70200023646566696E93
:1004D00065202044454641554C545F005049442016
:1004E0004175746F74756E652066696E69736865B1
:1004F00064212050757420746865206C61737420C9
:100500004B702C204B6920616E64204B6420636F1C
:100510006E7374616E74732066726F6D2062656CA9
:100520006F7720696E746F20436F6E6669677572AE
:100530006174696F6E2E680A0050494420417574D9
:100540006F74756E65206661696C656421207469DD
:100550006D656F75740A00544845524D414C2052E8
:10056000554E4157415900546865726D616C205277
:10057000756E617761790048656174696E672066A0
:1005800061696C65640048656174696E67206661C5
:10059000696C656400504944204175746F74756ED0
:1005A00065206661696C6564212054656D706572B3
:1005B000617475726520746F6F20686967680A00DE
:1005C000204B643A2000204B693A2000204B703ABF
:1005D00020000A20436C61737369632050494420F2
:1005E0000A002054753A2000204B753A2000206DF7
:1005F00061783A2000206D696E3A200020643A202C
:100600000020626961733A20004175746F002045D3
:100610002F443D00416476616E6365204B3D004E82
:100620006F2063617365206C696768740A004163B9
:10063000746976652045787472756465723A200035
:10064000556E6B6E6F776E20636F6D6D616E643A81
:10065000202200000020002300260029002C002F6B
:1006600000320000010000030106010901022569B2
:10067000730025696D202569730025696820256947
:100680006D20256973002569642025696820256926
:100690006D20256973002569792025696420256905
:1006A000682025696D20256973007A5F6D61783A4D
:1006B00020007A5F6D696E3A2000795F6D61783A4B
:1006C0002000795F6D696E3A2000785F6D61783A3D
:1006D0002000785F6D696E3A20005265706F727409
:1006E000696E6720656E6473746F702073746174D3
:1006F00075730A002F2F616374696F6E3A726573A8
:10070000756D650A004D36303020486F74656E6433
:1007100020746F6F20636F6C6420746F2063686156
:100720006E67652066696C616D656E740A002F2FB7
:10073000616374696F6E3A70617573650A00626512
:10074000640A002C2073797374656D2073746F7064
:1007500070656421204865617465725F49443A2080
:100760000048656174696E67206661696C65642024
:100770004245440048656174696E67206661696C32
:1007800065640048656174696E67206661696C65BF
:10079000640048656174696E67206661696C6564B0
:1007A000204530001000AD0330016A0150022B01DA
:1007B00070030A019004F500B005E500D006D800EA
:1007C000F007CE001009C500300ABE00500BB7007C
:1007D000700CB100900DAB00B00EA600D00FA200BF
:1007E000F0109D00101299003013950050149200E3
:1007F00070158E0090168B00B0178700D0188400FB
:10080000F0198100101B7E00301C7B00501D790008
:10081000701E7600901F7300B0207000D0216E0013
:10082000F0226B001024690030256600502663001A
:100830007027610090285E00B0295C00D02A590022
:10084000F02B5600102D5400302E5100502F4E002A
:1008500070304B0090314800B0324500D033420038
:10086000F0343E0010363B0030373700503833004C
:1008700070392E00903A2900B03B2300D03C1B0079
:10088000F03D1100103F0100F03F000020706F7339
:100890006974696F6E206F7574206F662072616E67
:1008A00067652E0A003F50726F626520000A0A4297
:1008B0006564204C6576656C20436F727265637465
:1008C000696F6E204D61747269783A00202B000ABE
:1008D000436F727265637465642042656420486585
:1008E000696768742076732E2042656420546F70A7
:1008F0006F6C6F67793A0A00202B000A426564200A
:1009000048656967687420546F706F6772617068BA
:10091000793A0A2020202B2D2D2D204241434B20B7
:100920002D2D2B0A2020207C20202020202020205C
:100930002020207C0A204C207C20202020282B29CD
:10094000202020207C20520A2045207C20202020AE
:10095000202020202020207C20490A2046207C20A6
:10096000282D29204E20282B29207C20470A20547E
:10097000207C20202020202020202020207C204897
:100980000A2020207C20202020282D292020202003
:100990007C20540A2020207C202020202020202081
:1009A0002020207C0A2020204F2D2D2046524F4E03
:1009B00054202D2D2B0A2028302C30290A004D657B
:1009C000616E206F662073616D706C656420706F5E
:1009D000696E74733A200020643A200020623A2045
:1009E0000045716E20636F656666696369656E7444
:1009F000733A20613A2000202844525952554E291A
:100A000000473239204175746F20426564204C657F
:100A100076656C696E670028422961636B00284621
:100A200029726F6E74002852296967687400284C17
:100A300029656674003F4E756D626572206F662091
:100A400070726F626520706F696E747320697320B5
:100A5000696D706C61757369626C65202832206DF8
:100A6000696E696D756D292E0A003F2856296572D9
:100A7000626F7365206C6576656C20697320696DA3
:100A8000706C61757369626C652028302D34292E75
:100A90000A0053442063617264206F6B0A006F7018
:100AA000656E526F6F74206661696C65640A0076CA
:100AB0006F6C756D652E696E6974206661696C6511
:100AC000640A00534420696E6974206661696C0A87
:100AD000006175746F25692E67004D3234004D3208
:100AE000332025730057726974696E6720746F2014
:100AF00066696C653A20006F70656E206661696C8E
:100B000065642C2046696C653A20006F70656E2024
:100B10006661696C65642C2046696C653A20004604
:100B2000696C652073656C65637465640A002053A5
:100B3000697A653A200046696C65206F70656E655C
:100B4000643A20006F70656E206661696C65642C84
:100B50002046696C653A20002066696C653A200081
:100B6000646F696E67006672657368004E6F772008
:100B700000454E4420535542524F5554494E450A64
:100B8000002220706F73002220706172656E743ACB
:100B90002200535542524F5554494E452043414C33
:100BA0004C207461726765743A22004B494C4C4585
:100BB000442E2000747279696E6720746F2063611F
:100BC0006C6C207375622D67636F64652066696C59
:100BD0006573207769746820746F6F206D616E791A
:100BE000206C6576656C732E204D4158206C6576BF
:100BF000656C2069733A004572726F723A001FFF8C
:100C0000FFFFFFFFFF600000000001FF4000000049
:100C10000000FF8000000000007F83CF00000C3048
:100C20003F87FF80000C301F867980000C000F8CFE
:100C300030C7838C30E78C30CFC7CC31F38C30DCBD
:100C4000ECEC33B98C30D86C6C33198C30D06C0C24
:100C500033198C30D86C0C33198C30DC6C0E3B198A
:100C60008C30CF7C079F198C30C77C038F194000D4
:100C70000000000002600000000000061FFFFFFFF0
:100C8000FFFFF82020506C616E6E657242756666DB
:100C9000657242797465733A20002046726565205A
:100CA0004D656D6F72793A2000436F6D70696C65A8
:100CB000643A204D617220323820323031380A00D7
:100CC000207C20417574686F723A2028416C6570F1
:100CD00068204F626A6563747320496E632E2C200E
:100CE0004C756C7A426F7420476974205265706F3E
:100CF0007369746F7279290A004D6172203238204D
:100D00003230313831353A31343A343000204C61A8
:100D1000737420557064617465643A2000312E311B
:100D20002E380A004D61726C696E0020536F667434
:100D3000776172652052657365740A00205761748B
:100D40006368646F672052657365740A002042729D
:100D50006F776E206F75742052657365740A00207A
:100D600045787465726E616C2052657365740A0013
:100D7000506F77657255700A0073746172740A005F
:100D80006572726F722077726974696E6720746F12
:100D90002066696C650A00456E6473746F70732019
:100DA000256320256320256320256300205A3A000F
:100DB00020593A0020583A00656E6473746F70735E
:100DC000206869743A2000446F6E6520736176690B
:100DD0006E672066696C652E0A004D32390010007E
:100DE000C90210012C014001220170011801B0015B
:100DF0000E01F00104015002FA00B002F0003003CD
:100E0000E600D003DC009004D2007005C800A00604
:100E1000BE000008B400B009AA00D00BA000600E0C
:100E2000960060118C000015820020197800C01D0A
:100E30006E00A0226400B0275A00902C50000031B0
:100E40004600E0343C0010383200903A2800603C04
:100E50001E00A03D1400803E0A00203F00004572A5
:100E6000723A204D494E54454D5020424544004D64
:100E7000494E54454D5020747269676765726564C8
:100E8000004572723A204D494E54454D502045312F
:100E9000004572723A204D494E54454D5020453020
:100EA000004572723A204D415854454D50204245FC
:100EB00044004D415854454D502074726967676530
:100EC000726564004572723A204D415854454D5048
:100ED000204531004572723A204D415854454D50DD
:100EE00020453000202F002042403A0020403A00A8
:100EF0007C3C3E5E2B3D3F2F5B5D3B2C2A225C0001
:100F00004D363030204230005072696E742070616E
:100F100075736564004D31323500004D3234005038
:100F200072696E742061626F72746564004E6F2026
:100F300053442063617264005072696E742066725B
:100F40006F6D2053440053746F70207072696E741B
:100F500000526573756D65207072696E7400506122
:100F6000757365207072696E740041626F757420CC
:100F70004669726D77617265004368616E676520CE
:100F800066696C616D656E7400436F6E6669677546
:100F9000726174696F6E0054656D7065726174750D
:100FA0007265004D6F76656D656E740054756E6583
:100FB00000496E666F2073637265656E004D6F76D3
:100FC0006520617869730044697361626C652073A0
:100FD00074657070657273004D383400426564202A
:100FE0004C6576656C696E67004732382058590A3F
:100FF0004D31303920533137350A473238205A0ABB
:101000004D31303920523134350A4731320A4732B6
:10101000390A4D313034205330004175746F2D6CD6
:101020006576656C004732380A4730205A352046CD
:10103000363030300A4739310A4D323131205330A1
:101040000A4D3430300A4D393036205A3630300AA5
:101050004730205A2D313520463530300A47393057
:101060000A4D3430300A4D393036205A3936300A7C
:101070004D3231312053310A4732380A4D31313740
:10108000204C6576656C696E6720646F6E652E0016
:101090004175746F20686F6D6500473238004D618F
:1010A000696E00526573656E643A2000204200202C
:1010B00050006F6B004B494C4C45442E20004B496F
:1010C0004C4C2063617573656420627920746F6F86
:1010D000206D75636820696E61637469766520743C
:1010E000696D65202D2063757272656E7420636F63
:1010F0006D6D616E643A2000506C6561736520729D
:1011000065736574005052494E5445522048414C15
:10111000544544005072696E7465722068616C7445
:1011200065642E206B696C6C28292063616C6C658A
:1011300064210A00656E7175657565696E672022A8
:1011400000000080C1008097430080954300004864
:101150004200004842000020410000000057617238
:101160006E696E673A20486F6D696E672042756DD3
:10117000702044697669736F72203C20310A000246
:1011800002040000A0400000A04000000040000059
:101190009E430080A14300809543FF010145313A01
:1011A000200045303A20005A3A2000593A20005891
:1011B0003A20004D53312C4D53322050696E730A42
:1011C000004572726F722077726974696E6720745D
:1011D0006F20454550524F4D210A0020204E6F7A16
:1011E0007A6C653A2000200066696C616D656E74EA
:1011F000206C6F6164005761697420666F720050E3
:1012000052494E54205041555345440020204E6FC2
:101210007A7A6C653A2000200066696C616D656EB3
:10122000742065787472756465005761697420660E
:101230006F72005052494E5420504155534544005E
:10124000746F20726573756D6500576169742066EF
:101250006F72207072696E74005052494E54205063
:101260004155534544000000007E0060006000606E
:10127000F87ECC60CC60CC60F860CC00CC00CC00B8
:10128000CC00000000000000000000000000000092
:10129000000000000000000000000000FE7FFE7F54
:1012A00006600000000000000000F00FF81FF81FAB
:1012B000F81FF00FF00FF81FF81FF81FE007C0032A
:1012C0008001000000000000FE7F0E702664724E58
:1012D0007A5E324C8241324C7A5E724E26640E70D7
:1012E000FE7F000000000000FE7F0E70C663C24358
:1012F00082411A58BA5D1A588241C243C6630E70C1
:10130000FE7F0000000000008808880810112022DD
:101310002022101188088808101100000000000029
:10132000000000000000000020221011880888083A
:101330001011202220221011880800000000000057
:10134000000000000000436172642072656D6F76DA
:101350006564004361726420696E736572746564CC
:10136000004D3530320A4D353030004C6F6164200D
:1013700073657474696E677300526573746F726518
:10138000206661696C736166650053746F726520D5
:1013900073657474696E677300416476616E63652A
:1013A000642053657474696E6773004D61696E00E3
:1013B0000A003B20454550524F4D20496E646578E8
:1013C0003A20005570646174696E67207A6F6666B2
:1013D00073657420696E20454550524F4D3A200088
:1013E0000E000E000E000E000E000E000E000E008D
:1013F0007FC03F801F000E00040004000E001F008D
:101400003F807FC00E000E000E000E000E000E008A
:101410000E000E0007F8000C0C0010020020010066
:101420006001804000804003E04001C040008040F7
:1014300000004000006000002000001000000C0CC4
:101440000007F80001FE00030300040080080040CC
:101450001800601000207C002038002010002000C0
:101460000020000020000060000040000080030316
:101470000001FE00FFFFFF7F80FFC0FFC0FFC07FB5
:10148000807F80FFC0FFC0FFC03F001E000C005ADD
:10149000204F6666736574005A204F6666736574E4
:1014A00000466C6F7700466C6F770046616E207364
:1014B0007065656420310046616E207370656564F7
:1014C00020310042656400426564004E6F7A7A6C98
:1014D00065004E6F7A7A6C650053706565640053E1
:1014E00070656564004D61696E004D6F76652058CA
:1014F000004D6F76652059004D6F7665205A004586
:1015000078747275646572004D6F766520302E3187
:101510006D6D004D6F766520316D6D004D6F766598
:101520002031306D6D004D6F7665206178697300F4
:101530004578747275646572004D6F7665205A0047
:101540004D6F76652059004D6F76652058004578BF
:10155000747275646572004D6F7665205A004D6F28
:1015600076652059004D6F76652058004D6F766581
:101570006D656E7400436F6F6C646F776E004661CB
:101580006E20737065656420310046616E20737053
:1015900065656420310042656400426564004E6FF9
:1015A0007A7A6C65004E6F7A7A6C65004D61696E6F
:1015B000005654726176206D696E005654726176E1
:1015C000206D696E005654726176206D696E00560A
:1015D0006D696E00566D696E00566D696E00566DD0
:1015E0006178204500566D6178204500566D617820
:1015F000204500566D6178205A00566D6178205A5A
:1016000000566D6178205A00566D61782059005659
:101610006D6178205900566D6178205900566D61D2
:1016200078205800566D6178205800566D617820FA
:1016300058004D6F74696F6E00416D6178204500F0
:10164000416D6178204500416D6178205A00416DFF
:101650006178205A00416D6178205900416D6178B0
:10166000205900416D6178205800416D6178205803
:1016700000412D74726176656C00412D7472617643
:10168000656C00412D7265747261637400412D7246
:1016900065747261637400416363656C00416363E8
:1016A000656C004D6F74696F6E0056652D6A6572CA
:1016B0006B0056652D6A65726B0056652D6A657202
:1016C0006B00567A2D6A65726B00567A2D6A6572C8
:1016D0006B0056792D6A65726B0056792D6A6572BA
:1016E0006B0056792D6A65726B0056782D6A6572AB
:1016F0006B0056782D6A65726B0056782D6A65729C
:101700006B004D6F74696F6E004573746570732F55
:101710006D6D004573746570732F6D6D005A737431
:101720006570732F6D6D005A73746570732F6D6DD6
:10173000005973746570732F6D6D00597374657003
:10174000732F6D6D005873746570732F6D6D005835
:1017500073746570732F6D6D004D6F74696F6E00DB
:1017600043616E6E6F74206F70656E207375626476
:10177000697220006563686F3A00544845524D41D4
:101780004C2052554E41574159204245440054681F
:1017900065726D616C2052756E6177617900544895
:1017A00045524D414C2052554E41574159204531EB
:1017B00000544845524D414C2052554E41574159D5
:1017C0002045300000002200250028002B002E00BC
:1017D0003100340002010000050108010B01000086
:1017E0002100240027002A002D00300033000101D1
:1017F0000000040107010A010505050507050808A1
:101800000808020202020A0A08080404040401018A
:10181000010101010101030303030303030304079F
:1018200007070C0C0C0C0C0C0C0C02020202060636
:101830000606060606060B0B0B0B0B0B0B0B010229
:1018400010202008081020401020408002010201D2
:10185000080402010102040810204080804020108A
:1018600008040201800402018040201008040201E3
:10187000080402010102040810204080010204084B
:101880001020408024F4D43050C38E20C2A24017D0
:10189000828B7011127A910D816CD90AA861E108CE
:1018A000C7586607615143061E4B5D05C145A70435
:1018B0001A411104093D9803713931034036DB02A6
:1018C00065339102D4305402802E1D02632CEE0148
:1018D000752AC501B028A001102781018F25640158
:1018E0002B244B01E0223401AC211F018D200D017E
:1018F000801FFC00841EED00971DDF00B81CD20085
:10190000E61BC600201BBC00641AB200B219A80076
:101910000A19A0006A189900D117910040178B008E
:10192000B516840031167E00B31579003A157300A0
:10193000C7146F0058146A00EE1366008813630022
:1019400025135E00C7125B006C125700151254007D
:10195000C111510070114F0021114B00D6104900E8
:101960008D1047004610440002104200C00F400096
:10197000800F3E00420F3C00060F3B00CB0E3800AC
:10198000930E37005C0E3500270E3400F30D320045
:10199000C10D3100900D3000600D2E00320D2D0074
:1019A000050D2C00D90C2B00AE0C2900850C29004C
:1019B0005C0C2700350C27000E0C2600E80B2400D9
:1019C000C40B2400A00B23007D0B23005A0B210025
:1019D000390B2100180B2000F80A1F00D90A1E003D
:1019E000BB0A1E009D0A1D00800A1D00630A1C0020
:1019F000470A1B002C0A1B00110A1A00F7091A00DB
:101A0000DD091900C4091900AB0919009209170072
:101A10007B091800630917004C09160036091600E7
:101A2000200916000A091500F5081500E008140041
:101A3000CC081400B8081400A4081400900813007F
:101A40007D0812006B0813005808120046081200A7
:101A500034081100230811001208110001081100B8
:101A6000F0071000E0071000D0071000C0071000BA
:101A7000B0070F00A107100091070E0083070F00A9
:101A800074070F0065070E0057070E0049070E0088
:101A90003B070D002E070E0020070D0013070D0059
:101AA00006070D00F9060C00ED060D00E0060C001F
:101AB000D4060C00C8060C00BC060C00B0060C00D6
:101AC000A4060B0099060C008D060B0082060B0085
:101AD00077060B006C060B0061060A0057060B0028
:101AE0004C060A0042060A0038060A002E060A00C2
:101AF00024060A001A060A001006090007060A0052
:101B0000FD050900F4050900EB050900E2050900DF
:101B1000D9050900D0050900C7050900BE0509005F
:101B2000B5050800AD050800A50509009C050800DD
:101B3000940508008C050800840508007C05080051
:101B4000740508006C050700650508005D050700C1
:101B5000560508004E050700470507004005080028
:101B600038050700310507002A050700230507008F
:101B70001C050600160507000F05070008050600EE
:101B800002050700FB040600F5040700EE0406004A
:101B9000E8040600E2040700DB040600D5040600A2
:101BA000CF040600C9040600C3040600BD040600F5
:101BB000B7040600B1040500AC040600A604060044
:101BC000A00405009B04060095040500900406008F
:101BD0008A04050085040500800406007A040500D7
:101BE00075040500700405006B040500660405001B
:101BF000610405005C04050057040500520405005B
:101C00004D04050048040500430405003E0404009B
:101C10003A04050035040500300404002C040500D6
:101C200027040400230405001E0404001A04040011
:101C300016040500110404000D0404000904050045
:101C40000404040000040400FC030400F80304007E
:101C5000F4030400F0030400EC030400E8030400B0
:101C6000E4030400E0030400DC030400D8030400E0
:101C7000D4030400D0030400CC030400C803030011
:101C8000C503030024F404D9201BC40C5C0E980483
:101C9000C4095F0265077101F405F900FB04B30094
:101CA00048048700C1036900580355000303450039
:101CB000BE023A008402310053022A0029022500A4
:101CC00004022000E4011C00C8011900AF01170044
:101CD00098011400840113007101100061011000CB
:101CE00051010E0043010D0036010B002B010B00CA
:101CF00020010B00150109000C0109000301080077
:101D0000FB000800F3000800EB000700E4000600F9
:101D1000DE000600D8000600D2000600CC00050058
:101D2000C7000500C2000500BD000400B9000400A2
:101D3000B5000400B1000400AD000400A9000400D7
:101D4000A5000300A20003009F0004009B00030005
:101D50009800030095000200930003009000030028
:101D60008D0002008B000300880002008600020044
:101D700084000300810002007F0002007D00020059
:101D80007B0002007900020077000100760002006B
:101D90007400020072000100710002006F00020076
:101DA0006D0001006C0002006A0001006900020081
:101DB0006700010066000100650001006400020088
:101DC0006200010061000100600001005F0002008C
:101DD0005D0001005C0001005B0001005A00010091
:101DE0005900010058000100570001005600010091
:101DF0005500010054000100530000005300010091
:101E00005200010051000100500001004F0001008C
:101E10004E0000004E0001004D0001004C0001008A
:101E20004B0000004B0001004A0001004900010086
:101E30004800000048000100470001004600000083
:101E4000460001004500000045000100440001007B
:101E50004300000043000100420000004200010076
:101E60004100000041000100400001003F0000006F
:101E70003F0001003E0000003E0001003D00000068
:101E80003D0001003C0000003C0000003C0001005F
:101E90003B0000003B0001003A0000003A00010056
:101EA000390000003900010038000000380000004F
:101EB0003800010037000000370001003600000044
:101EC000360000003600010035000000350000003B
:101ED000350001003400000034000000340001002F
:101EE0003300000033000000330001003200000026
:101EF000320000003200010031000000310000001B
:101F0000310001003000000030000000300001000E
:101F10002F0000002F0000002F0000002F00010004
:101F20002E0000002E0000002E0001002D000000F9
:101F30002D0000002D0000002D0001002C000000ED
:101F40002C0000002C0000002C0001002B000000E1
:101F50002B0000002B0000002B0001002A000000D5
:101F60002A0000002A0000002A00010029000000C9
:101F700029000000290000002900000029000100BC
:101F800028000000280000002800000028000000B1
:101F900028000100270000002700000027000000A3
:101FA0002700000027000100260000002600000096
:101FB0002600000026000000260001002500000089
:101FC000250000002500000025000000250000007D
:101FD000250001002400000024000000240000006F
:101FE0002400000024000100230000002300000062
:101FF0002300000023000000230000002300000055
:102000002300010022000000220000002200000046
:102010002200000022000000220001002100000038
:10202000210000002100000021000000210000002C
:10203000210000002100010020000000200000001D
:102040002000000020000000200000002000000010
:1020500020000000200001001F0000001F00000001
:102060001F0000001F0000001F0000001F000000F4
:102070001F0001001E0000001E0000001E000000E6
:102080001E0000004D383420582059205A204500A9
:10209000205A3A0020593A0020436F756E74205838
:1020A0003A0020453A00205A3A0020593A00583A5E
:1020B000003A004361703A00454D455247454E4352
:1020C000595F50415253455200434153455F4C497B
:1020D0004748545F4252494748544E455353005471
:1020E0004F47474C455F4C494748545300534F4670
:1020F00054574152455F504F574552004255494C45
:10210000445F50455243454E54004C4556454C495A
:102110004E475F44415441005A5F50524F42450080
:102120004155544F4C4556454C005052494E545F12
:102130004A4F420050524F47524553530041555465
:102140004F5245504F52545F54454D5000564F4CDE
:10215000554D455452494300454550524F4D00534B
:10216000455249414C5F584F4E5F584F46460046D6
:1021700049524D574152455F4E414D453A4D61726E
:102180006C696E20204649524D574152455F564575
:102190005253494F4E3A312E312E382E323120458E
:1021A000585452554445525F545950453A4165720E
:1021B0006F7374727564657220534F555243455F57
:1021C000434F44455F55524C3A68747470733A2FCC
:1021D0002F636F64652E616C6570686F626A6563FA
:1021E00074732E636F6D2F646966667573696F6EA5
:1021F0002F4D41524C494E2050524F544F434F4C5B
:102200005F56455253494F4E3A312E30204D41438F
:1022100048494E455F545950453A4C756C7A426F67
:10222000742054415A203720455854525544455241
:102230005F434F554E543A3120555549443A613920
:102240003532353737642D383732322D34383361F3
:102250002D393939642D61636463396537373262EA
:1022600037620A002F2F2000426564204C65766596
:102270006C696E6720004661696C656420746F202C
:10228000656E61626C6520426564204C6576656CA4
:10229000696E670A00426564204C6576656C204370
:1022A0006F7272656374696F6E204D6174726978C4
:1022B0003A004F666673657473206170706C69656F
:1022C00064004572723A20546F6F2066617221007B
:1022D000546F6F206661722066726F6D2072656642
:1022E0006572656E636520706F696E740A003A20CE
:1022F00000207A5F6D696E3A20202D32207A5F6D62
:1023000061783A2020350A0050726F6265205A20A9
:102310004F6666736574003048483025753A25303D
:10232000327500253032753A25303275001A002595
:10233000336400253464002520200025200020205F
:102340002020004C696E65204E756D6265722069B3
:1023500073206E6F74204C617374204C696E65201D
:102360004E756D6265722B312C204C617374204C5C
:10237000696E653A200053544F505045442E20005A
:102380005072696E7465722073746F70706564202A
:1023900064756520746F206572726F72732E2046AB
:1023A000697820746865206572726F7220616E644E
:1023B00020757365204D39393920746F207265732B
:1023C000746172742E202854656D70657261747525
:1023D00072652069732072657365742E205365746D
:1023E000206974206166746572207265737461720D
:1023F00074696E67290A004E6F20436865636B73CA
:10240000756D2077697468206C696E65206E756DD6
:102410006265722C204C617374204C696E653A20A1
:1024200000636865636B73756D206D69736D6174AE
:1024300063682C204C617374204C696E653A2000EF
:102440004D313130004D33310053442072656164A9
:10245000206572726F720A00446F6E652070726937
:102460006E74696E672066696C650A0020496E7635
:10247000616C69642065787472756465722000000F
:102480000080C10000A0C1000000000000964300D1
:102490008097430080954320746F6F206C6F6E6748
:1024A00020657874727573696F6E207072657665D9
:1024B0006E7465640A0020636F6C642065787472C2
:1024C0007573696F6E2070726576656E7465640AE7
:1024D000004F6666004F6E2000456E6473746F7027
:1024E0002061626F72740053746570732F6D6D009C
:1024F0004A65726B00416363656C65726174696FF4
:102500006E0056656C6F63697479005A204F666679
:1025100073657400416476616E636564205365740D
:1025200074696E67730043616E6E6F7420656E74BC
:102530006572207375626469723A2000022E2E0063
:102540004D61696E0020204E6F7A7A6C653A2000EA
:1025500020004261636B004D696E696D756D20549A
:10256000656D70206973203132302E0048656174CA
:10257000696E67206661696C656400457874727580
:102580006465206D6F726500526573756D652070AE
:1025900072696E7400524553554D45204F50544951
:1025A0004F4E533A0020204E6F7A7A6C653A2000E5
:1025B0006368616E6765006F662074686520666990
:1025C0006C616D656E74005761697420666F72206E
:1025D0007374617274005052494E542050415553E7
:1025E00045440020204E6F7A7A6C653A2000200026
:1025F00066696C616D656E7420756E6C6F616400E8
:102600005761697420666F72005052494E542050D1
:1026100041555345440020204E6F7A7A6C653A202C
:10262000002000506C6561736520776169742E2EFF
:102630002E0048656174696E67206E6F7A7A6C65EA
:10264000005052494E5420504155534544002020DB
:102650004E6F7A7A6C653A200020006865617420BC
:102660006E6F7A7A6C652E00507265737320627596
:1026700074746F6E20746F005052494E5420504154
:10268000555345440020204E6F7A7A6C653A2000FD
:10269000746F20636F6E74696E75652E2E2E0061E7
:1026A0006E6420707265737320627574746F6E004F
:1026B000496E736572742066696C616D656E740035
:1026C0005052494E542050415553454400290A0068
:1026D0002062797465733B206372632000536574D4
:1026E00074696E67732053746F72656420280020CC
:1026F0002863616C63756C6174656429210A00202C
:10270000213D2000454550524F4D20435243206DFE
:1027100069736D61746368202D202873746F72650E
:1027200064292000290A002062797465733B2063C4
:10273000726320002073746F726564207365747413
:10274000696E6773207265747269657665642028A6
:1027500000204D61726C696E3D563437290A00289D
:10276000454550524F4D3D00454550524F4D207606
:10277000657273696F6E206D69736D617463682033
:1027800000434F4D4D554E49434154494F4E00442F
:10279000525952554E004552524F525300494E46DF
:1027A0004F004543484F00526573756D696E672051
:1027B0007072696E740054415A20372072656164EA
:1027C000792E00436C69636B20746F20726573759A
:1027D0006D652E2E2E005344207072696E74696EE2
:1027E00067206279746520004E6F74205344207016
:1027F00072696E74696E670A006D0046696C616D7E
:10280000656E7420757365643A2000537461747347
:102810003A20002C204C6F6E67657374206A6F62DB
:102820003A2000546F74616C2074696D653A200021
:1028300053746174733A20002C204661696C65649E
:102840003A20002C2046696E69736865643A20005E
:102850005072696E74733A200053746174733A2035
:102860000045787472756465722025730054415A6E
:1028700020372072656164792E006F6B00436F6FA3
:102880006C696E6720646F6E652E004865617469BF
:102890006E6720646F6E652E0020573A004578748D
:1028A00072756465722025730054415A2037207276
:1028B000656164792E00A2279D2796278F2781279F
:1028C0006F66660044454255473A004B494C4C45BB
:1028D000442E200048617264636F6465642044651F
:1028E0006661756C742053657474696E6773204CEF
:1028F0006F616465640A0028230000282300000A31
:1029000000000010270000000096430000964300DE
:102910000020410000C8410000C8420000C842A594
:10292000C2DF440000D24320520020204D39303015
:10293000204B004C696E65617220416476616E6364
:10294000653A0A0020204D383531205A005A2D5062
:10295000726F6265204F666673657420286D6D29FD
:102960003A0A0020440020490020204D3330342012
:10297000500020440020490020204D3330312050A9
:10298000005049442073657474696E67733A0A0095
:1029900020460020420020480020204D31343520C0
:1029A00053004D6174657269616C2068656174756E
:1029B0007020706172616D65746572733A0A0020EF
:1029C000204D3432302053004175746F20426564CD
:1029D000204C6576656C696E673A0A00205A0020C3
:1029E000590020204D323036205800486F6D652048
:1029F0006F66667365743A0A00204500205A00200D
:102A0000590020580020420020540020204D323030
:102A100035205300416476616E6365643A20533C0F
:102A20006D696E5F66656564726174653E20543CD5
:102A30006D696E5F74726176656C5F666565647200
:102A40006174653E20423C6D696E5F7365676D65BC
:102A50006E745F74696D655F75733E20583C6D617F
:102A6000785F78795F6A65726B3E205A3C6D617859
:102A70005F7A5F6A65726B3E20453C6D61785F6589
:102A80005F6A65726B3E0A002054002052002020CD
:102A90004D323034205000416363656C657261745F
:102AA000696F6E2028756E6974732F7332293A200E
:102AB000503C7072696E745F616363656C3E205256
:102AC0003C726574726163745F616363656C3E2020
:102AD000543C74726176656C5F616363656C3E0A39
:102AE00000204500205A0020590020204D3230316E
:102AF0002058004D6178696D756D20416363656C88
:102B000065726174696F6E2028756E6974732F73B6
:102B100032293A0A00204500205A0020590020207E
:102B20004D3230332058004D6178696D756D2066E7
:102B300065656472617465732028756E6974732F9E
:102B400073293A0A00204500205A0020590020200D
:102B50004D393220580053746570732070657220AF
:102B6000756E69743A0A0020204D323030204430AE
:102B70000A0020204D323030204400204469736127
:102B8000626C65640A0046696C616D656E742073E1
:102B9000657474696E67733A0020204D31343920B2
:102BA00043203B20556E69747320696E2043656C29
:102BB000736975730A002020473231202020203BA2
:102BC00020556E69747320696E206D6D0A00526520
:102BD000776970696E670050726F62696E67206610
:102BE00061696C65640050726F62696E672066612E
:102BF000696C65640050524F4245204641494C2063
:102C0000434C45414E204E4F5A5A4C450A0052659E
:102C1000776970696E670A005265776970696E67D7
:102C20000050726F62696E67206661696C6564004E
:102C300050726F62696E67206661696C65640050EE
:102C4000524F4245204641494C20434C45414E207D
:102C50004E4F5A5A4C450A005265776970696E6743
:102C60000A0050726F62696E67206661696C656404
:102C70000A0050726F62696E67206661696C6564F4
:102C800000205A3A200020593A200042656420581A
:102C90003A200000000A0B02090C0D0E080703047D
:102CA0000100000000000000000000000000000023
:102CB0000000000000000000000000000000001202
:102CC00011100000000000000000000000000000E3
:102CD000000000000000000000486F6D65202573B3
:102CE0002573257320666972737400206669727398
:102CF000740A005A0059005800486F6D65200000A2
:102D0000060900FE06018902FE20FFFE07FE06FE00
:102D10000000000600070106060602008080808091
:102D20000080030303060103A0A0A0050707060017
:102D3000FF5050F850F850500509090600FE207069
:102D4000A8A07028A870200608080600FF40A84820
:102D500010204854080507070600FF60909060980F
:102D600090680103030602038080800207070602C1
:102D7000FF408080808080400207070602FF80407D
:102D800040404040800505050600008850F8508806
:102D90000505050600002020F82020020404060294
:102DA000FEC0404080050101060002F80202020652
:102DB0000200C0C0040606060100101020408080FA
:102DC00004060606010060909090906003060606D7
:102DD000010040C0404040E004060606010060904B
:102DE000102040F0040606060100F020601010E0FC
:102DF00005060606000010305090F810040606067E
:102E00000100F080E01010E004060606010060807A
:102E1000E0909060040606060100F010102040408B
:102E200004060606010060906090906004060606A5
:102E30000100609090701060020505060200C0C09D
:102E400000C0C00207070602FEC0C000C0404080AC
:102E500005050506000018608060180503030600DC
:102E600001F800F8050505060000C0300830C00470
:102E70000707060100609010604000400506060646
:102E800000007090A8B08070050606060000205073
:102E900088F88888050606060000F088F08888F023
:102EA0000406060601006090808090600406060615
:102EB0000100E090909090E0040606060100F0808A
:102EC000E08080F0040606060100F080E08080804B
:102ED000040606060100609080B0906004060606B5
:102EE00001009090F0909090030606060100E040EB
:102EF000404040E0050606060000381010109060C3
:102F000004060606010090A0C0A0909004060606E4
:102F100001008080808080F005060606000088D8C9
:102F2000A8A8888804060606010090D0B09090906A
:102F30000506060600007088888888700406060664
:102F40000100E09090E080800407070601FF609098
:102F500090D0B06010040606060100E09090E0906A
:102F60009004060606010060904020906005060669
:102F7000060000F82020202020040606060100900C
:102F80009090909060040606060100909090F0608A
:102F9000600506060600008888A8A8D888050606E9
:102FA000060000885020205088050606060000888C
:102FB0008850202020040606060100F010204080E2
:102FC000F0030606060100E080808080E00406062B
:102FD000060100808040201010030606060100E074
:102FE00020202020E005030306000320508805016F
:102FF000010600FEF80202020602048040040404F6
:10300000060100709090700406060601008080E0C2
:103010009090E004040406010070808070040606AD
:103020000601001010709090700404040601006006
:10303000B0C070040606060100205040E040400485
:1030400006060601FE6090907010600406060601F8
:10305000008080E09090900306060601004000C0CA
:103060004040E00308080601FE200060202020A068
:10307000400406060601008080A0C0A0900306065A
:10308000060100C040404040E0050404060000D0B6
:10309000A8A888040404060100E0909090040404A9
:1030A000060100609090600406060601FEE0909024
:1030B000E080800406060601FE70909070101004F7
:1030C0000404060100A0D0808004040406010070FE
:1030D000C030E00406060601004040E040502004F5
:1030E000040406010090909070040404060100900E
:1030F00090606005040406000088A8A85004040439
:10310000060100906060900406060601FE90909013
:10311000709060040404060100F02040F0030707EB
:10312000060100204040804040200107070602FFC2
:1031300080808080808080030707060100804040F7
:103140002040408004020206010350A0FFFFFFFF61
:10315000FFFFFFFFFFFFFFFFFFFFFFFFFFFFFFFF7F
:10316000FFFFFFFFFFFFFFFFFFFFFFFFFF0000006C
:1031700006000701060606020080008080808004A9
:1031800006060601FF2070A0A070200507070600B4
:10319000FF304840F04040F8050505060000A85003
:1031A0008850A80506060600008850F820F820017F
:1031B00007070602FF8080800080808004070706E2
:1031C00001FF708060906010E0030101060105A01E
:1031D000060707060000788494A494847803050504
:1031E00006010160A06000E005050506000028500A
:1031F000A05028040303060100F01010040101068A
:103200000102F00607070600007884B4A4A48478BD
:10321000040101060105F004030306010260906049
:103220000507070600FF2020F8202000F803050509
:1032300006010140A02040E0030505060101C02071
:103240004020C00202020602044080040505060177
:10325000FF9090B0D08005060606000078E8E86888
:103260002828010101060202800202020602FE4035
:103270008003050506010140C04040E00305050646
:10328000010140A04000E0050505060000A050280F
:1032900050A00508080600FF40C04050703078106C
:1032A0000508080600FF40C04050680810380508AF
:1032B000080600FFC0204030F030781004070706F1
:1032C0000100200020608090600507070600004094
:1032D0002020507088880507070600001020205025
:1032E00070888805070706000020502050708888E5
:1032F000050707060000285020507088880507073A
:10330000060000500020507088880507070600005E
:103310002050205070888805060606000078A0F02E
:10332000A0A0B80408080601FE609080809060208C
:10333000400407070601004020F080E080F0040709
:10334000070601002040F080E080F0040707060136
:10335000002050F080E080F00407070601005000D4
:10336000F080E080F00307070601008040E0404065
:1033700040E00307070601002040E0404040E00332
:10338000070706010040A0E0404040E003070706B1
:103390000100A000E0404040E00506060600007085
:1033A00048E848487004070706010050A090D0B0D4
:1033B0009090040707060100402060909090600400
:1033C0000707060100204060909090600407070600
:1033D00001002050609090906004070706010050A3
:1033E000A060909090600407070601005000609074
:1033F000909060050505060000885020508804085C
:10340000080601FF1070B0B0D0D0E08004070706B6
:103410000100402090909090600407070601002072
:103420004090909090600407070601002050909013
:103430009090600407070601005000909090906003
:1034400005070706000010208850202020040606EB
:1034500006010080E09090E080040606060100600E
:1034600090A0A090A00407070601004020007090E3
:1034700090700407070601002040007090907004CF
:10348000070706010020500070909070040707069F
:10349000010050A0007090907004060606010050D4
:1034A0000070909070040707060100205020709073
:1034B000907005040406000070A8B07804060606A3
:1034C00001FE708080702040040707060100402044
:1034D0000060B0C07004070706010020400060B023
:1034E000C07004070706010020500060B0C07004DF
:1034F0000606060100500060B0C070030707060111
:1035000000804000C04040E0030707060100204063
:1035100000C04040E003070706010040A000C04093
:1035200040E0030606060100A000C04040E004079A
:1035300007060100306010709090600407070601D4
:103540000050A000E0909090040707060100402082
:103550000060909060040707060100204000609022
:1035600090600407070601002050006090906004FE
:10357000070706010050A000609090600406060650
:1035800001005000609090600505050600002000D5
:10359000F8002004040406010070B0D0E00407071E
:1035A000060100402000909090700407070601007B
:1035B0002040009090907004070706010020500002
:1035C0009090907004060606010050009090907054
:1035D0000409090601FE204000909090709060045C
:1035E00008080601FE8080E09090E08080040808D2
:1035F0000601FE500090909070906000060900FE59
:103600000701920321207FFF07FF07FF000000064C
:103610000000010707060200808080808000800390
:103620000202060105A0A00507070600005050F899
:1036300050F850500507070600002078A07028F0C9
:1036400020050707060000C0C8102040981805078D
:10365000070600006090A040A890680203030601DE
:1036600004C040800307070601002040808080409E
:103670002003070706010080402020204080050528
:103680000506000120A870A82005050506000120F8
:1036900020F820200203030602FFC040800501013C
:1036A000060003F8020202060200C0C00505050676
:1036B0000001081020408005070706000070888878
:1036C0008888887003070706010040C040404040DA
:1036D000E0050707060000708808708080F805077D
:1036E00007060000F81020100808F005070706007C
:1036F0000010305090F81010050707060000F88001
:10370000F008088870050707060000708080F088C0
:103710008870050707060000F80810202020200503
:1037200007070600007088887088887005070706FC
:10373000000070888878080870020505060200C03D
:10374000C000C0C00206060602FFC0C000C0408024
:1037500004070706000010204080402010050303E6
:10376000060002F800F80407070601008040201058
:103770002040800507070600007088081020002000
:1037800005070706000070880868A8A870050707E5
:10379000060000708888F8888888050707060000FA
:1037A000F08888F08888F005070706000070888098
:1037B00080808870050707060000F0888888888860
:1037C000F0050707060000F88080F08080F8050704
:1037D00007060000F88080F080808005070706005B
:1037E00000708880B8888870050707060000888800
:1037F00088F888888801070706020080808080801A
:103800008080050707060000381010101090600532
:1038100007070600008890A0C0A09088050707064B
:103820000000808080808080F805070706000088FF
:10383000D8A8888888880507070600008888C8A84F
:10384000988888050707060000708888888888702F
:10385000050707060000F08888F0808080050707CC
:1038600006000070888888A8906805070706000091
:10387000F08888F0A090880507070600007880800F
:10388000700808F0050707060000F8202020202017
:103890002005070706000088888888888870050743
:1038A00007060000888888888850200507070600DA
:1038B000008888888888A85005070706000088883F
:1038C0005020508888050707060000888888502007
:1038D0002020050707060000F80810204080F803A4
:1038E0000707060100E08080808080E0050505066E
:1038F00000018040201008030707060100E0202097
:10390000202020E005030306000420508805010163
:10391000060000F8020202060205804005050506C1
:10392000000070087888780507070600008080B0DE
:10393000C88888F00505050600007080808870053D
:1039400007070600000808689888887805050506B6
:1039500000007088F880700507070600003048E016
:10396000404040400506060600FF708888780870D1
:103970000507070600008080B0C88888880107070F
:10398000060200800080808080800308080601FF16
:10399000200020202020A04004070706000080808F
:1039A00090A0C0A090030707060100C0404040401F
:1039B00040E0050505060000D0A8A8A8A805050553
:1039C000060000B0C88888880505050600007088D4
:1039D0008888700506060600FFF08888F08080055C
:1039E00006060600FF7888887808080505050600A1
:1039F00000B0C88080800505050600007080700852
:103A0000F00407070600004040E040404030050554
:103A10000506000088888898680505050600008866
:103A2000888850200505050600008888A8A850054C
:103A3000050506000088502050880506060600FF90
:103A4000888888780870050505060000F810204071
:103A5000F80307070601002040408040402001078E
:103A600007060200808080808080800307070601AF
:103A7000008040402040408005020206000268901D
:103A800000000006000000060900FE000000000023
:103A900001090008FE000005080806000040F0C803
:103AA0008888987810050808060000C0F88888887B
:103AB0008888F80505050600012030F83020050843
:103AC000080600002070F820202020E005090906E3
:103AD00000FF2070A8A8B888887020050909060092
:103AE000FFE080C0B0A8283028280509090600FF9B
:103AF000F8A88888888888A8F8050A0A0600FE20A1
:103B00005050505088A8A888700303030600034053
:103B1000A04001050800FF060121023520FFFF0734
:103B2000FF06FF0900502216568080808000801515
:103B30003353A0A0A00257575050F850F8505002ED
:103B400057572070A07028702013355580A040A0D2
:103B50002002475740A0A040A0A0502513538080CA
:103B60008012265640808080804012265680404039
:103B70004040800245559060F060900255552020ED
:103B8000F82020113353604080044151F011335329
:103B900040E04002465610102040808012365640C9
:103BA000A0A0A0A04012365640C0404040E00246CF
:103BB000566090106080F0024656F02060109060D1
:103BC0000246562060A0F02020024656F080E01009
:103BD00090600246566080E0909060024656F01079
:103BE0002020404002465660906090906002465609
:103BF000609090701060122555C0C000C0C0113692
:103C00005660600060408012365620408080402020
:103C1000034353F000F012365680402020408012BB
:103C2000365640A020400040015858304898A8A877
:103C3000904030024656609090F09090024656E0D8
:103C400090E09090E002465660908080906002463E
:103C500056E090909090E0024656F080E08080F030
:103C6000024656F080E0808080024656609080B028
:103C700090600246569090F0909090123656E04038
:103C8000404040E002465670202020A040024656A8
:103C900090A0C0A0A0900246568080808080F00254
:103CA000465690F0F090909002465690D0F0B0B00A
:103CB00090024656609090909060024656E0909038
:103CC000E08080014757609090D0B0601002465667
:103CD000E09090E0909002465660904020906012F4
:103CE0003656E040404040400246569090909090BA
:103CF0006002465690909090606002465690909078
:103D0000F0F090024656909060609090025656886F
:103D10008850202020024656F010204080F01236B5
:103D200056E080808080E00246568080402010105F
:103D3000123656E020202020E016325240A00141E9
:103D400051F0162252804002445470909070024606
:103D5000568080E09090E01234546080806002468B
:103D60005610107090907002445460B0C0600246CB
:103D700056205040E0404001455560907010600270
:103D800046568080E09090901236564000C04040E9
:103D9000E01137572000202020A0400246568080A6
:103DA00090E09090123656C040404040E00254549B
:103DB000D0A8A8A8024454E0909090024454609087
:103DC0009060014555E090E080800145557090700D
:103DD0001010024454A0D0808012345460C020C01F
:103DE0000246564040E0405020024454909090706B
:103DF000123454A0A0A04002545488A8A8500244F1
:103E000054906060900145559090709060024454C9
:103E1000F02040F0024757304020C02040302216AA
:103E200056808080808080024757C02040304020EC
:103E3000C006425250A0FFFFFFFFFFFFFFFFFFFF42
:103E4000FFFFFFFFFFFFFFFFFFFFFFFFFFFFFFFF82
:103E5000FFFFFFFFFFFFFF09005022165680008082
:103E60008080800146562070A0A070200246562017
:103E700050E04050A0025555887050708802565648
:103E80008850F820F820221757808080008080809A
:103E90000247577080E0907010E0173151A0025631
:103EA0005670A8C8C8A87014355560A06000E0031B
:103EB000435350A050123353E02020143151E002FC
:103EC000565670E8D8E8D870173151E01533534092
:103ED000A04012355540E04000E014355540A02088
:103EE00040E0143555C020C020C016225240800149
:103EF0004555909090E08002565678E8E86828286A
:103F000024115180112252408014355540C0404048
:103F1000E014355540A04000E0034353A050A002F8
:103F20004757808080A060F0200247578080A0D053
:103F300010207002475780408060A0F02012365653
:103F400040004080A04002475740206090F0909091
:103F500002475720406090F0909002475760906071
:103F600090F0909002475750A06090F090900247D8
:103F70005790006090F0909002475760906090F0EA
:103F8000909002465670A0A0F0A0B00147576090F4
:103F900080809060400247574020F080E080F0022F
:103FA00047572040F080E080F00247576090F08053
:103FB000E080F00247579000F080E080F012375721
:103FC0008040E0404040E01237572040E040404011
:103FD000E012375740A0E0404040E0123757A000C1
:103FE000E0404040E00256567048E84848700247BA
:103FF0005750A090D0B090900247574020609090CA
:104000009060024757204060909090600247576050
:1040100090609090906002475750A06090909060A0
:1040200002475790006090909060123353A040A0D8
:1040300002465670B0B0D0D0E00247574020909072
:1040400090906002475720409090909060024757B0
:104050006090909090906002475790009090909060
:10406000600257571020885020202002465680E0DA
:104070009090E0800246566090A0A090A002475722
:104080004020007090907002475720400070909040
:10409000700247572050007090907002475750A010
:1040A00000709090700246565000709090700247D9
:1040B0005760906070909070025454F068B078111E
:1040C0003555608080604002475740200060B0C096
:1040D0006002475720400060B0C0600247576090C0
:1040E0000060B0C060024656500060B0C060123739
:1040F00057804000C04040E0123757204000C04089
:1041000040E012375740A000C04040E0123656A0B1
:1041100000C04040E0024757A040A01070906002ED
:10412000475750A000E09090900247574020006011
:10413000909060024757204000609090600247577F
:104140006090006090906002475750A0006090908F
:10415000600246569000609090601235554000E035
:10416000004002445470B0D0E00247574020009015
:1041700090907002475720400090909070024757EF
:1041800060900090909070024656900090909070D1
:1041900001485820400090907090600147578080FF
:1041A000E090E0808001475790009090709060010F
:1041B000050700FE0500FB01F220FFFE05FE05FEDF
:1041C0000200400215258080800080053242A0A0B8
:1041D00002556550F850F8500146562070C030E046
:1041E0002002556590102040480255656080689017
:1041F000680512228080022535408080804002259B
:10420000358040404080043343A040A00333434006
:10421000E0400122324080043141E002112180025D
:1042200055650810204080024555609090906002CE
:104230002535C040404040024555E0106080F00206
:104240004555E0106010E00245552060A0F02002C6
:104250004555F080E010E00245556080E090600236
:104260004555F01020404002455560906090600236
:104270004555609070106003132380008002142461
:10428000800080800235452040804020033343E099
:1042900000E00235458040204080024555E0106036
:1042A00000400255657088B8A8700245556090902E
:1042B000F090024555E090E090E002354560808046
:1042C0008060024555E0909090E0023545E080E046
:1042D00080E0023545E080E080800245557080B086
:1042E00090700245559090F09090023545E0404026
:1042F00040E0024555301010906002455590A0C036
:10430000A09002354580808080E002556588D8A85D
:10431000888802455590D0B09090024555609090A5
:104320009060024555E09090E08001465660909084
:10433000906010024555E09090E0900245557080E5
:104340006010E0023545E040404040024555909005
:104350009090600245559090A0A04002556588A8B5
:10436000A8A85002455590906090900245559090B5
:10437000701060023545E0204080E0022535C080A5
:104380008080C00255658040201008022535C0405D
:104390004040C005324240A0024151F00522328027
:1043A000400244547090907002455580E09090E037
:1043B0000234446080806002455510709090700215
:1043C000445460B0C0600235452040E040400046A3
:1043D0005670909070106002455580E09090900269
:1043E00015258000808080002737400040404040F5
:1043F000800245558090A0E0900215258080808045
:1044000080025464F0A8A8A8024454E0909090025E
:10441000445460909060004656E09090E0808000A8
:104420004656709090701010023444A0C0808002F4
:10443000445470C030E002354540E0404020024422
:1044400054909090700244549090A040025464A8FC
:10445000A85050023444A04040A00046569090908E
:10446000701060024454F02040F0023545604080F6
:1044700040600215258080808080023545C0402044
:1044800040C005425250A0FFFFFFFFFFFFFFFFFFAC
:10449000FFFFFFFFFFFFFFFFFFFFFFFFFFFFFFFF2C
:1044A000FFFFFFFFFFFFFFFF020040FFFFFFFFFFD7
:1044B000FFFFFFFFFFFFFFFFFFFFFFFFFFFFFFFF0C
:1044C000FFFFFFFFFFFFFFFFFFFFFFFFFFFFFFFFFC
:1044D000FFFFFFFFFFFFFFFFFFFFFFFFFFFFFFFFEC
:1044E000FFFFFFFFFFFFFFFFFFFFFFFFFFFFFFFFDC
:1044F000FFFFFFFFFFFFFFFFFFFFFFFFFFFFFFFFCC
:10450000FFFFFFFFFFFFFFFFFFFF01060D00FE099A
:10451000016602D620FFFE0BFE0AFE0D0060221986
:1045200069808080808080800080183363A0A0A094
:104530000357675050F850F850500259692078A03E
:10454000A0702828F02002596948A8501020405037
:10455000A89002586840A0A040A0989068281363D3
:10456000808080113B6B2040408080808080404074
:1045700020113B6B804040202020202040408006BE
:10458000556520A870A8200455652020F82020112A
:104590003363604080065161F811336340E04002AC
:1045A0005969080810102040408080025969205045
:1045B000888888888850200259692060A02020209F
:1045C0002020F80259697088880810204080F8027D
:1045D0005969F8081020700808887002596910108D
:1045E00030505090F81010025969F88080B0C80817
:1045F00008887002596970888080F0888888700205
:104600005969F8081010202040404002596970880C
:1046100088887088888870025969708888887808C6
:1046200008887011386840E040000040E0401138D0
:104630006840E04000006040800259690810204056
:104640008040201008045464F80000F80259698082
:104650004020100810204080025969708888081096
:104660002020002002596970888898A8A8B0807816
:104670000259692050888888F8888888025969F02A
:1046800048484870484848F00259697088808080DE
:1046900080808870025969F048484848484848F086
:1046A000025969F8808080F0808080F8025969F8AA
:1046B000808080F08080808002596970888080804E
:1046C0009888887002596988888888F888888888D6
:1046D000123969E040404040404040E002596938AA
:1046E0001010101010109060025969888890A0C0B6
:1046F000A09088880259698080808080808080F8BE
:104700000259698888D8A8A8888888880259698841
:10471000C8C8A8A898988888025969708888888825
:1047200088888870025969F0888888F08080808045
:10473000015A6A70888888888888A8700802596930
:10474000F0888888F0A090888802596970888080F5
:104750007008088870025969F82020202020202045
:1047600020025969888888888888888870025969F1
:104770008888888850505020200259698888888805
:10478000A8A8A8A85002596988885050205050887D
:1047900088025969888850502020202020025969B9
:1047A000F808101020404080F8113B6BE0808080BA
:1047B000808080808080E0025969808040402010A5
:1047C000100808113B6BE020202020202020202012
:1047D000E0085363205088015161F82A226280402A
:1047E000025666700878889868025969808080F05F
:1047F00088888888F00256667088808088700259A0
:10480000690808087888888888780256667088F869
:1048100080887002596930484040F0404040400074
:104820005868708888887808887002596980808004
:10483000B0C8888888881238684000C0404040402E
:10484000E0004A6A10003010101010909060025979
:104850006980808090A0C0A09088123969C04040D3
:104860004040404040E0025666D0A8A8A8A8880270
:104870005666B0C888888888025666708888888896
:1048800070005868F0888888F080808000586878C8
:1048900088888878080808025666B0C880808080BA
:1048A0000256667088601088700258684040F04078
:1048B0004040483002566688888888986802566664
:1048C0008888885050200256668888A8A8A8500278
:1048D00056668850202050880058688888889868D4
:1048E000088870025666F810204080F8015B6B184B
:1048F00020202020C02020202018221969808080BC
:10490000808080808080015B6BC020202020182068
:10491000202020C008536348A890FFFFFFFFFFFF3F
:10492000FFFFFFFFFFFFFFFFFFFFFFFFFFFFFFFF97
:10493000FFFFFFFFFFFFFFFFFFFFFF0D00602219DA
:10494000698000808080808080800358682070A803
:10495000A0A0A8702002596930484040E04040487B
:10496000B003566688705050708802596988885024
:1049700050F820F8202022196980808080008080F3
:104980008080124A6A609080609090601090601AF7
:104990003262A0A00359697088A8D8C8D8A88870C6
:1049A000045767700878887800F80356662850A086
:1049B000A05028045363F80808163161E0035969D0
:1049C0007088E8D8D8E8D888700A5161F81744642C
:1049D000609090600357672020F8202000F807358A
:1049E0006540A02040E007356540A04020C02A2255
:1049F0006240800058688888888898E880800259DA
:104A00006978E8E8E8E868282828262161C020229B
:104A100062408007356540C04040E00457677088B9
:104A200088887000F8035666A050282850A0025AC3
:104A30006A40C04040E00818283808025A6A40C05E
:104A40004040E01028081038025A6A40A04020A0D8
:104A5000481828380802596920002020408088889A
:104A600070025A6A40200020508888F88888025ACC
:104A70006A10200020508888F88888025A6A3048D6
:104A80000020508888F88888025A6A2850002050F0
:104A90008888F88888025A6A50500020508888F820
:104AA0008888025A6A20502020508888F888880216
:104AB000596958A0A0A0B0E0A0A0B8005B6B7088B6
:104AC000808080808088702040025A6A402000F8F0
:104AD0008080F08080F8025A6A102000F88080F010
:104AE0008080F8025A6A304800F88080F08080F8B0
:104AF000025A6A505000F88080F08080F8123A6ABA
:104B0000804000E04040404040E0123A6A204000CF
:104B1000E04040404040E0124A6A609000E040407F
:104B2000404040E0123A6AA0A000E04040404040CF
:104B3000E0025969F0484848E8484848F0025A6A93
:104B40002850008888C8A8988888025A6A4020009F
:104B500070888888888870025A6A10200070888857
:104B600088888870025A6A304800708888888888E7
:104B700070025A6A28500070888888888870025AA3
:104B80006A505000708888888888700355658850FE
:104B9000205088015B6B08709898A8A8A8C8C870B6
:104BA00080025A6A40200088888888888870025A63
:104BB0006A10200088888888888870025A6A30487D
:104BC0000088888888888870025A6A5050008888CF
:104BD0008888888870025A6A1020008888502020AF
:104BE000202002596980F0888888F08080800259EE
:104BF00069609090A0A0908888B002596940200018
:104C000070087888986802596910200070087888C0
:104C10009868025969304800700878889868025985
:104C200069285000700878889868025969505000C7
:104C3000700878889868025A6A304830007008789E
:104C4000889868025666702870A0A850005868704E
:104C5000888080887020400259694020007088F860
:104C60008088700259691020007088F8808870026E
:104C700059693048007088F880887002596950502E
:104C8000007088F8808870123969804000C0404008
:104C90004040E0123969204000C040404040E012EE
:104CA0004969609000C040404040E0123969A0A0CE
:104CB00000C040404040E0025A6A502060107088B6
:104CC00088888870025969285000B0C88888888808
:104CD00002596940200070888888887002596910DC
:104CE0002000708888888870025969304800708870
:104CF0008888887002596928500070888888887070
:104D0000025969505000708888888870035767205E
:104D10002000F8002020015868087098A8A8C870E2
:104D200080025969402000888888889868025969FB
:104D3000102000888888889868025969304800885F
:104D400088888898680259695050008888888898AF
:104D500068005B6B1020008888889868088870005D
:104D60005A6A8080B0C88888C8B08080005B6B5069
:104D7000500088888898680888700000000000004B
:104D80000000000000000000000000000000000023
:104D9000000000000000000000000000000C000007
:104DA00000000000000C00000000000000120000E5
:104DB00000000000002300000000000000210000AF
:104DC00000000000004C800000000000005E800039
:104DD00000000000009240000000000000A1400020
:104DE000000000000121200000000000027F900070
:104DF00000000000020010000000000007FFF800A3
:104E0000000000000400080000000000080004008A
:104E10000000000008000600000000001000020072
:104E200000000000301E010000000000207F810013
:104E30000000000041FFE0800000000043FCF08023
:104E400000000000873B7840000000018EDBFC6022
:104E5000000000010FEBCC20000000021FEDB61097
:104E6000000000021FDEB6100000000439CD7F08EC
:104E70000000000436E0FF08000000087EC0BB848C
:104E8000000000187F005D86000000107FC0ED82EA
:104E9000000000203CC07301000000203B337F0174
:104EA000000000701BE77E03800000C81DEEDE04DA
:104EB000C00000880FDEDC04400001240FDF3C0945
:104EC0002000012607DBF8192000027203E7F01327
:104ED0009000025101FFE02290000489007F8024AD
:104EE00048000904801E004824000BFE400000DF3B
:104EF000F40010004000008002001FFFFFFFFFFFD2
:104F0000FE000000000000000000000000000000A3
:104F1000000000000000000000001022103C3C0EC9
:104F20001F00102210042211040010221008221168
:104F30000400102210083C1104001022101022114D
:104F4000040010221020221104001E1C1E3C3C0EE6
:104F5000040000000000000000000000000000004D
:104F60000000000000000000000000000000000041
:104F70000000000000000000000000000000000031
:104F80000000000000000000000000000000000021
:104F90000000000000000000000000000000000011
:104FA0000000000000000000000000000000000001
:104FB000000000000000000086AFC78711241FBE5C
:104FC000CFEFD1E2DEBFCDBF00E00CBF14E0A0E028
:104FD000B2E0EEE3FBE402E00BBF02C007900D92EB
:104FE000A630B107D9F728E1A6E0B4E001C01D92D0
:104FF000A830B207E1F717E2CDEDD7E200E006C036
:1050000021970109802FFE010F941025CC3DD10777
:1050100080E00807A9F70E9411720D948E250C9468
:1050200000002F923F924F925F926F927F928F92E9
:105030009F92AF92BF92CF92DF92EF92FF920F9327
:105040001F93CF93DF93CDB7DEB7C45BD1090FB603
:10505000F894DEBF0FBECDBF8091270B8D3409F4CD
:10506000B1C7843511F40C946C42873411F00C9460
:10507000AD428091250B9091260B8A31910509F460
:1050800081C69CF4843091053CF4823091058CF506
:1050900097FF28C00C94C7428430910509F4E9C5F4
:1050A0000C9709F42DC60C94C7428E31910509F472
:1050B000A9C63CF48C31910509F49BC60CF469C671
:1050C0009DC68B35910509F40BC78C35910509F404
:1050D0000CC78A35910511F00C94C74210920A044E
:1050E0000C94C7428091140281110C94CA420C9412
:1050F000C74220911402222311F40C94C74211E0FC
:10510000029709F010E00E94AE6882E50E94AFD0DD
:10511000882309F45CC10E944DD06B017C01409052
:10512000D3165090D4166090D5167090D6168091F4
:10513000D7169091D816A091D916B091DA16249668
:105140008CAF9DAFAEAFBFAF249720911D043091BF
:105150001E0440911F045091200428962CAF3DAFAF
:105160004EAF5FAF28978091210490912204A091C7
:105170002304B09124042C968CAF9DAFAEAFBFAF8B
:105180002C9720E030E0A901C701B6010F94AB1DB8
:10519000882309F454C5A301920128966CAD7DAD16
:1051A0008EAD9FAD28970F94AB1D811111C0249631
:1051B0002CAD3DAD4EAD5FAD24972C966CAD7DAD65
:1051C0008EAD9FAD2C970F94AB1D882309F437C586
:1051D00020E030E0A901C701B6010F94AB1D881F84
:1051E0008827881F18130BC020E030E040E85FE3F9
:1051F0006C962CAF3DAF4EAF5FAF6C970AC080E0AE
:1052000090E0A0E8BFEB6C968CAF9DAFAEAFBFAFA8
:105210006C97A301920128966CAD7DAD8EAD9FADCC
:1052200028970F94142264966CAF7DAF8EAF9FAF1A
:10523000649724962CAD3DAD4EAD5FAD24972C9672
:105240006CAD7DAD8EAD9FAD2C970F9414226896FA
:105250006CAF7DAF8EAF9FAF689764962CAD3DADC0
:105260004EAD5FAD6497CA01B9010F94101E4B019A
:105270005C0168962CAD3DAD4EAD5FAD6897CA013F
:10528000B9010F94101E9B01AC01C501B4010F942C
:1052900015220F94802460966CAF7DAF8EAF9FAFC8
:1052A000609720E030E040E05FE30F94101E4B0178
:1052B0005C01A7019601C701B6010F94101E6B0196
:1052C0007C01A5019401C501B4010F94101E9B013E
:1052D000AC01C701B6010F9414220F9480249B01E6
:1052E000AC016C966CAD7DAD8EAD9FAD6C970F949F
:1052F000101E4B015C0128962CAD3DAD4EAD5FAD4F
:105300002897C301B2010F94152220E030E040E05D
:105310005FE30F94101E6B017C0168966CAD7DAD50
:105320008EAD9FAD6897905860962CAD3DAD4EAD5B
:105330005FAD60970F94F1229B01AC01C501B401F0
:105340000F94101E9B01AC01C701B6010F941522EA
:10535000A30192010F9414226B017C012C962CADB9
:105360003DAD4EAD5FAD2C9724966CAD7DAD8EAD51
:105370009FAD24970F94152220E030E040E05FE3DA
:105380000F94101E2B013C0160962CAD3DAD4EAD2F
:105390005FAD609764966CAD7DAD8EAD9FAD64974B
:1053A0000F94F1229B01AC01C501B4010F94101EB2
:1053B0009B01AC01C301B2010F94152224962CADC0
:1053C0003DAD4EAD5FAD24970F94142214C089E417
:1053D0000E94AFD0882329F00E944DD06B017C0140
:1053E00003C0C12CD12C76018AE40E94AFD088235F
:1053F000F9F00E944DD02C966CAF7DAF8EAF9FAF71
:105400002C9720E030E0A901C701B6010F94AB1D35
:1054100081111EC020E030E0A9012C966CAD7DAD5D
:105420008EAD9FAD2C970F94AB1D811111C007C499
:1054300020E030E0A901C701B6010F94AB1D88231D
:1054400009F4FDC32C961CAE1DAE1EAE1FAE2C97EC
:10545000A7019601505824962CAF3DAF4EAF5FAFD9
:1054600024972C968CAD9DADAEADBFAD2C97B058AA
:1054700028968CAF9DAFAEAFBFAF2897CA01B901D8
:105480000F94101E4B015C0128962CAD3DAD4EAD26
:105490005FAD2897CA01B9010F94101E9B01AC01A2
:1054A000C501B4010F9415220F948024AC966CAF03
:1054B0007DAF8EAF9FAFAC972091D3163091D416AD
:1054C0004091D5165091D61660962CAF3DAF4EAF99
:1054D0005FAF6097A701960160966CAD7DAD8EAD14
:1054E0009FAD60970F9415226C966CAF7DAF8EAF19
:1054F0009FAF6C978091D7169091D816A091D9162E
:10550000B091DA1668968CAF9DAFAEAFBFAF68971B
:105510002C962CAD3DAD4EAD5FAD2C97BC01CD01B1
:105520000F941522A0966CAF7DAF8EAF9FAFA09762
:1055300020911D0430911E0440911F0450912004BD
:10554000A4962CAF3DAF4EAF5FAFA4976C962CAD39
:105550003DAD4EAD5FAD6C97A4966CAD7DAD8EAD9F
:105560009FADA4970F9414226B017C0180912104BC
:1055700090912204A0912304B0912404A8968CAFAA
:105580009DAFAEAFBFAFA897A0962CAD3DAD4EADD1
:105590005FADA097BC01CD010F9414224B015C01BB
:1055A0002091DB163091DC164091DD165091DE160D
:1055B000E4962CAF3DAF4EAF5FAFE497609125040A
:1055C0007091260480912704909128040F9414224E
:1055D00064966CAF7DAF8EAF9FAF649780912904C6
:1055E00090912A04A0912B04B0912C04E0968CAFEA
:1055F0009DAFAEAFBFAFE0972091DF163091E016C0
:105600004091E1165091E216E8962CAF3DAF4EAFB7
:105610005FAFE897A701960124966CAD7DAD8EAD86
:105620009FAD24970F94101E2B013C01A5019401FE
:1056300028966CAD7DAD8EAD9FAD28970F94101E52
:105640009B01AC01C301B2010F9415222B013C0157
:10565000A501940124966CAD7DAD8EAD9FAD2497D0
:105660000F94101E4B015C01A701960128966CADAA
:105670007DAD8EAD9FAD28970F94101E9B01AC01A0
:10568000C501B4010F941422A30192010F94882242
:105690006B017C0120E030E0A9010F94AB1D87FF76
:1056A0000AC02BED3FE049EC50E4C701B6010F946E
:1056B00015226B017C01112351F02BED3FE049ECE9
:1056C00050E4C701B6010F9414226B017C0120E065
:1056D00030E0A901C701B6010F94AB1D811128C0AC
:1056E000A4962CAD3DAD4EAD5FADA49760966CAD6C
:1056F0007DAD8EAD9FAD60970F94AB1D811118C02D
:10570000A8962CAD3DAD4EAD5FADA89768966CAD3B
:105710007DAD8EAD9FAD68970F94AB1D811108C014
:10572000ABEDCA2EAFE0DA2EA9ECEA2EA0E4FA2EF9
:10573000AC962CAD3DAD4EAD5FADAC97C701B6019B
:105740000F94101E9B01AC010F94101E4B015C01C5
:1057500064962CAD3DAD4EAD5FAD6497CA01B90105
:105760000F94101E9B01AC01C501B4010F941522CA
:105770000F9480244B015C012FE632E143E85AE3A9
:105780000F94AB1D87FD57C2C501B4010F948A2346
:105790000F945E231B01672B19F422242394312CD0
:1057A000B10180E090E00F94AF1D4B015C019B01C3
:1057B000AC01C701B6010F94F12260966CAF7DAFCA
:1057C0008EAF9FAF6097A501940164966CAD7DADDF
:1057D0008EAD9FAD64970F94F122AC966CAF7DAF08
:1057E0008EAF9FAFAC97E8962CAD3DAD4EAD5FADA3
:1057F000E897E0966CAD7DAD8EAD9FADE0970F94D0
:105800001422A50194010F94F122E0966CAF7DAFB4
:105810008EAF9FAFE09760962CAD3DAD4EAD5FADC6
:105820006097CA01B9010F94101E20E030E040E0FB
:105830005FE30F94101E9B01AC0160E070E080E814
:105840009FE30F941422A4966CAF7DAF8EAF9FAFF1
:10585000A497E4968CAD9DADAEADBFADE4978987BE
:105860009A87AB87BC87E8962CAD3DAD4EAD5FAD5A
:10587000E8972D873E874F87588B60910102709182
:105880000202072E000C880B990B0F94B11D20917A
:1058900090023091910240919202509193020F94A4
:1058A000101E2AE037ED43E25CE30F94101E6BAF4D
:1058B0007CAF8DAF9EAF0E9470519B01AC0128530D
:1058C0003F4F4F4F5F4FA8962CAF3DAF4EAF5FAFEE
:1058D000A89721964FAC219722965FAC22972396EA
:1058E0006FAC239724967FAC249741E050E06696F6
:1058F0005FAF4EAF669759E161965FAF619766966D
:10590000AEADBFAD6697A215B30509F459C10E94AB
:10591000D1550E947051DC01CB01A8962CAD3DAD54
:105920004EAD5FADA897821B930BA40BB50BB7FDD3
:1059300011C00E9470519B01AC0128533F4F4F4F43
:105940005F4FA8962CAF3DAF4EAF5FAFA89780E0FA
:105950000E94788861963FAD6197315061963FAF64
:105960006197332309F44BC0A4962CAD3DAD4EADE9
:105970005FADA49728966CAD7DAD8EAD9FAD289799
:105980000F94101E6B017C0160962CAD3DAD4EADA9
:105990005FAD6097B201C3010F94101EA70196017D
:1059A0000F9415227B018C01A4962CAD3DAD4EAD1C
:1059B0005FADA497B201C3010F94101E4B015C01AF
:1059C00060962CAD3DAD4EAD5FAD609728966CAD49
:1059D0007DAD8EAD9FAD28970F94101E9B01AC013D
:1059E000C501B4010F9414222B013C01C701D80159
:1059F00028968CAF9DAFAEAFBFAF289761C06696BB
:105A00004EAD5FAD6697BA0180E090E00F94AF1D98
:105A100060962CAD3DAD4EAD5FAD60970F94101EFE
:105A20004B015C010F94EE226B017C01C501B401B6
:105A30000F9476244B015C01A701960124966CAD6E
:105A40007DAD8EAD9FAD24970F94101E2B013C01B0
:105A5000A50194012C966CAD7DAD8EAD9FAD2C97BC
:105A60000F94101E9B01AC01C301B2010F941522CB
:105A70002B013C01A501940124966CAD7DAD8EAD4A
:105A80009FAD24970F94101E4B015C01A701960156
:105A90002C966CAD7DAD8EAD9FAD2C970F94101EE6
:105AA0009B01AC01C501B4010F94142228966CAF80
:105AB0007DAF8EAF9FAF289759E161965FAF619739
:105AC0009201A3016C966CAD7DAD8EAD9FAD6C97D0
:105AD0000F94152269837A838B839C8328962CAD3F
