:100000000C942A0F0C9406980C94DB970C94B097E0
:100010000C9485970C945A970C942F970C940497F2
:100020000C94F6910C945B0F0C945B0F0C945B0F8B
:100030000C945B0F0C94BA950C945B0F0C945B0FB3
:100040000C945B0F0C949F8A0C945B0F0C945B0FC9
:100050000C945B0F0C945B0F0C943E890C943198BC
:100060000C945B0F0C9434910C945B0F0C945B0F0D
:100070000C945B0F0C945B0F0C945B0F0C945B0F58
:100080000C945B0F0C945B0F0C945B0F0C945B0F48
:100090000C945B0F0C945B0F0C945B0F0C945B0F38
:1000A0000C945B0F0C945B0F0C945B0F0C945B0F28
:1000B0000C945B0F0C945B0F0C945B0F0C945B0F18
:1000C0000C945B0F0C945B0F0C945B0F0C945B0F08
:1000D0000C945B0F0C945B0F0C945B0F0C945B0FF8
:1000E0000C945B0F452C482C372C3B2C412C7F2C3F
:1000F0004C2C502C562C5A2C5E2C642C682C6C2CBE
:100100007F2C722C762C7A2C746B796B7E6B886BBF
:10011000926B0B6C9C6BA46BAC6BB66BC06BCA6BBD
:10012000D96BE36B0B6CED6BF76B016C796D796DD3
:10013000806D806D806D876D876D876D946D8E6D20
:100140008E6D8E6D68916E917F918A919291A7913B
:100150009691A7919A919E91A791A491084AD73B15
:100160003BCE016E84BCBFFDC12F3D6C74319ABD86
:1001700056833DDA3D00C77F11BED9E4BB4C3E91AA
:100180006BAAAABE000000803F05A84CCDB2D44E99
:10019000B93836A9020C50B9918688083CA6AAAA9B
:1001A0002ABE000000803F00434F4D4D554E49434D
:1001B0004154494F4E0044525952554E00455252F7
:1001C0004F525300494E464F004543484F0020745C
:1001D0006F6F206C6F6E6720657874727573696FCE
:1001E0006E2070726576656E7465640A0020636FB8
:1001F0006C6420657874727573696F6E20707265B7
:1002000076656E7465640A0047322F473320626159
:100210006420706172616D65746572730A0000001C
:10022000254300004543000037430000F041000033
:10023000F0410000004100000000FF0101205A3A97
:10024000200020593A200042656420583A2000508E
:1002500072696E742074696D653A20000001253062
:100260001D0C1E24311C0B18232F1B0A17FFFF0423
:100270000806FF06222B1A4142043803FF362829BC
:100280004527444350726F746563746564205069F8
:100290006E0A006D0046696C616D656E7420757341
:1002A00065643A200053746174733A20002C204C2A
:1002B0006F6E67657374206A6F623A2000546F74C2
:1002C000616C2074696D653A200053746174733AEF
:1002D00020002C204661696C65643A20002C204681
:1002E000696E69736865643A20005072696E747350
:1002F0003A200053746174733A2000C901C401BDEF
:1003000001B601A8016F66660044454255473A00B0
:100310006F6B0020573A004361703A454D45524794
:10032000454E43595F5041525345523A310A0043BA
:1003300061703A434153455F4C494748545F4252CC
:10034000494748544E4553533A300A004361703A86
:10035000544F47474C455F4C49474854533A300A3D
:10036000004361703A534F4654574152455F504FD6
:100370005745523A300A004361703A4C4556454C55
:10038000494E475F444154413A310A004361703A53
:100390005A5F50524F42453A310A004361703A4128
:1003A00055544F4C4556454C3A310A004361703A1A
:1003B0005052494E545F4A4F423A310A00436170ED
:1003C0003A50524F47524553533A300A00436170F6
:1003D0003A4155544F5245504F52545F54454D5039
:1003E0003A310A004361703A454550524F4D3A3117
:1003F0000A004649524D574152455F4E414D453ADC
:100400004D61726C696E20204649524D57415245EC
:100410005F56455253494F4E3A312E312E352E34C8
:10042000302045585452554445525F545950453A2E
:100430004165726F7374727564657220534F5552C3
:1004400043455F434F44455F55524C3A687474705E
:10045000733A2F2F636F64652E616C6570686F62ED
:100460006A656374732E636F6D2F64696666757356
:10047000696F6E2F4D41524C494E2050524F544F90
:10048000434F4C5F56455253494F4E3A312E302020
:100490004D414348494E455F545950453A4C756C5F
:1004A0007A426F74204D696E69203220455854524B
:1004B000554445525F434F554E543A3120555549A6
:1004C000443A31623864333264332D303539362D55
:1004D000343333352D386364342D6633373431612A
:1004E0003039353038370A002F2F200053657474A7
:1004F000696E672054726176656C20416363656C38
:1005000065726174696F6E3A200053657474696E28
:1005100067205265747261637420416363656C6522
:10052000726174696F6E3A200053657474696E6706
:10053000205072696E7420416363656C65726174EA
:10054000696F6E3A200053657474696E672050724B
:10055000696E7420616E642054726176656C20410E
:100560006363656C65726174696F6E3A2000205A2E
:1005700000205900580020204D61783A2000205A70
:1005800000205900580020204D696E3A20004F6E1F
:1005900020004F666600536F667420656E64737446
:1005A0006F70733A200020643A0020693A0020708E
:1005B0003A0020643A0020693A0020703A0043294A
:1005C0000A0061626C656420286D696E2074656D37
:1005D000702000436F6C6420657874727564657375
:1005E0002061726520004B64200023646566696E9B
:1005F00065202044454641554C545F004B6920001E
:1006000023646566696E65202044454641554C5417
:100610005F004B70200023646566696E652020448E
:10062000454641554C545F00504944204175746F14
:1006300074756E652066696E697368656421205003
:10064000757420746865206C617374204B702C2065
:100650004B6920616E64204B6420636F6E7374611C
:100660006E74732066726F6D2062656C6F7720699F
:100670006E746F20436F6E66696775726174696F1F
:100680006E2E680A00504944204175746F74756E6F
:1006900065206661696C6564212074696D656F759C
:1006A000740A00504944204175746F74756E65205A
:1006B0006661696C6564212054656D706572617452
:1006C00075726520746F6F20686967680A00204B37
:1006D000643A2000204B693A2000204B703A2000F9
:1006E0000A20436C617373696320504944200A00F7
:1006F0002054753A2000204B753A2000206D617817
:100700003A2000206D696E3A200020643A200020D3
:10071000626961733A2000426564204C6576656CBD
:10072000696E6720004661696C656420746F20659E
:100730006E61626C6520426564204C6576656C690B
:100740006E670A00426564204C6576656C20436FD5
:100750007272656374696F6E204D61747269783A64
:10076000000000000000003F4300003743546F6F5B
:10077000206661722066726F6D20726566657265B3
:100780006E636520706F696E740A003A20007A5FAC
:100790006D696E3A20202D32207A5F6D61783A20A3
:1007A0002035005A204F66667365742000416374DB
:1007B0006976652045787472756465723A200055D3
:1007C0006E6B6E6F776E20636F6D6D616E643A2035
:1007D00022001000C90210012C0140012201700109
:1007E0001801B0010E01F00104015002FA00B0023C
:1007F000F0003003E600D003DC009004D200700566
:10080000C800A006BE000008B400B009AA00D00BC2
:10081000A000600E960060118C0000158200201967
:100820007800C01D6E00A0226400B0275A00902CF2
:10083000500000314600E0343C0010383200903A5D
:100840002800603C1E00A03D1400803E0A00203FAE
:100850000000000020002300260029002C002F00AB
:100860003200000100000301060109010000000040
:100870000000C0C0000000000000254300003F430E
:10088000000037434E6F2063617365206C696768B1
:10089000740A0020706F736974696F6E206F7574CD
:1008A000206F662072616E67652E0A003F50726F7E
:1008B000626520001000AD0330016A0150022B0177
:1008C00070030A019004F500B005E500D006D800D9
:1008D000F007CE001009C500300ABE00500BB7006B
:1008E000700CB100900DAB00B00EA600D00FA200AE
:1008F000F0109D00101299003013950050149200D2
:1009000070158E0090168B00B0178700D0188400E9
:10091000F0198100101B7E00301C7B00501D7900F7
:10092000701E7600901F7300B0207000D0216E0002
:10093000F0226B0010246900302566005026630009
:100940007027610090285E00B0295C00D02A590011
:10095000F02B5600102D5400302E5100502F4E0019
:1009600070304B0090314800B0324500D033420027
:10097000F0343E0010363B0030373700503833003B
:1009800070392E00903A2900B03B2300D03C1B0068
:10099000F03D1100103F0100F03F00007A5F6D61F3
:1009A000783A20007A5F6D696E3A2000795F6D6158
:1009B000783A2000795F6D696E3A2000785F6D614A
:1009C000783A2000785F6D696E3A20005265706F4A
:1009D0007274696E6720656E6473746F70207374CF
:1009E000617475730A0048617264636F64656420A2
:1009F00044656661756C742053657474696E6773C1
:100A0000204C6F616465640A0028230000282300DD
:100A10000064000000E80300000000964300009618
:100A200043000000410000C8410000C9420000C965
:100A300042A5C2DF440000D243202863616C637585
:100A40006C6174656429210A0020213D2000454520
:100A500050524F4D20435243206D69736D61746352
:100A600068202D202873746F726564292000290A7C
:100A7000002062797465733B2063726320002073E9
:100A8000746F7265642073657474696E6773207225
:100A90006574726965766564202800204D61726C0A
:100AA000696E3D563430290A0028454550524F4D55
:100AB0003D00454550524F4D2076657273696F6E0B
:100AC000206D69736D6174636820005761726E698F
:100AD0006E673A20486F6D696E672042756D7020B1
:100AE00044697669736F72203C20310A0002020467
:100AF0000000A0400000A0400000004050524F42C3
:100B000045204641494C20434C45414E204E4F5ACA
:100B10005A4C450A005265776970696E670A005041
:100B2000524F4245204641494C20434C45414E20BE
:100B30004E4F5A5A4C450A005265776970696E6784
:100B40000A0050726F62696E67206661696C656445
:100B50000A00205A3A200020593A200042656420B9
:100B6000583A20000A0A426564204C6576656C207C
:100B7000436F7272656374696F6E204D6174726940
:100B8000783A00202B000A436F72726563746564C3
:100B900020426564204865696768742076732E205A
:100BA00042656420546F706F6C6F67793A0A002059
:100BB0002B000A4265642048656967687420546F99
:100BC000706F6772617068793A0A2020202B2D2D92
:100BD0002D204241434B202D2D2B0A2020207C200C
:100BE000202020202020202020207C0A204C207C37
:100BF00020202020282B29202020207C20520A2061
:100C000045207C20202020202020202020207C2007
:100C1000490A2046207C20282D29204E20282B29D7
:100C2000207C20470A2054207C20202020202020C7
:100C3000202020207C20480A2020207C20202020EA
:100C4000282D29202020207C20540A2020207C20B0
:100C5000202020202020202020207C0A2020204F1F
:100C60002D2D2046524F4E54202D2D2B0A2028305A
:100C70002C30290A004D65616E206F662073616D0E
:100C8000706C656420706F696E74733A2000206424
:100C90003A200020623A200045716E20636F65663D
:100CA00066696369656E74733A20613A2000527513
:100CB0006E6E696E6720696E204452592D52554EF2
:100CC000206D6F64650A00473239204175746F20CA
:100CD000426564204C6576656C696E670A0028423F
:100CE0002961636B00284629726F6E7400285229AF
:100CF0006967687400284C29656674003F4E756DFD
:100D0000626572206F662070726F626520706F6915
:100D10006E747320697320696D706C61757369629C
:100D20006C65202832206D696E696D756D292E0AFB
:100D3000003F2856296572626F7365206C65766581
:100D40006C20697320696D706C61757369626C6584
:100D50002028302D34292E0A00205A3A0020593AF2
:100D60000020436F756E7420583A0020453A0020E9
:100D70005A3A0020593A00583A00204500205A00BB
:100D800020204D39303720580053746570706572DB
:100D9000206D6F746F722063757272656E74733A32
:100DA0000A0020204D383531205A005A2D50726FDC
:100DB0006265204F666673657420286D6D293A0A56
:100DC0000020440020490020204D333034205000C2
:100DD00020440020490020204D3330312050005065
:100DE00049442073657474696E67733A0A00202061
:100DF0004D3432302053004175746F2042656420B9
:100E00004C6576656C696E673A0A00205A00205975
:100E10000020204D323036205800486F6D65206F1D
:100E200066667365743A0A00204500205A0020590E
:100E30000020580020420020540020204D32303540
:100E4000205300416476616E6365643A20533C6DC3
:100E5000696E5F66656564726174653E20543C6DC1
:100E6000696E5F74726176656C5F666565647261F8
:100E700074653E20423C6D696E5F7365676D656E9B
:100E8000745F74696D655F6D733E20583C6D617869
:100E90005F78795F6A65726B3E205A3C6D61785F5E
:100EA0007A5F6A65726B3E20453C6D61785F655F75
:100EB0006A65726B3E0A0020540020520020204DCB
:100EC000323034205000416363656C65726174692F
:100ED0006F6E2028756E6974732F7332293A205013
:100EE0003C7072696E745F616363656C3E20523C56
:100EF000726574726163745F616363656C3E2054F4
:100F00003C74726176656C5F616363656C3E0A0078
:100F1000204500205A0020590020204D3230312039
:100F200058004D6178696D756D20416363656C652E
:100F3000726174696F6E2028756E6974732F7332D5
:100F4000293A0A00204500205A0020590020204D4F
:100F50003230332058004D6178696D756D206665BB
:100F6000656472617465732028756E6974732F737C
:100F7000293A0A00204500205A0020590020204D1F
:100F80003932205800537465707320706572207573
:100F90006E69743A0A0020204D3230302044300A05
:100FA0000020204D323030204400204469736162BB
:100FB0006C65640A0046696C616D656E74207365CA
:100FC0007474696E67733A00202047323120202004
:100FD000203B20556E69747320696E206D6D0A0088
:100FE0005072696E7465722068616C7465642E203D
:100FF0006B696C6C28292063616C6C6564210A0044
:101000006265640A002C2073797374656D207374B3
:101010006F7070656421204865617465725F494432
:101020003A2000544845524D414C2052554E4157AC
:10103000415900546865726D616C2052756E61771C
:1010400061790048656174696E67206661696C65E5
:10105000640048656174696E67206661696C6564E7
:101060000048656174696E67206661696C6564003B
:1010700048656174696E67206661696C65640050DB
:1010800072696E7465722073746F70706564206429
:10109000756520746F206572726F72732E204669B9
:1010A0007820746865206572726F7220616E6420AA
:1010B000757365204D39393920746F2072657374EA
:1010C0006172742E202854656D706572617475723A
:1010D000652069732072657365742E2053657420D2
:1010E00069742061667465722072657374617274CC
:1010F000696E67290A00202F002042403A002040F4
:101100003A004E6F204C696E65204E756D626572B7
:10111000207769746820636865636B73756D2C2034
:101120004C617374204C696E653A20005072696E90
:101130007465722073746F707065642064756520C7
:10114000746F206572726F72732E204669782074F6
:101150006865206572726F7220616E6420757365B8
:10116000204D39393920746F20726573746172743F
:101170002E202854656D70657261747572652069E2
:10118000732072657365742E205365742069742012
:1011900061667465722072657374617274696E67DA
:1011A000290A004E6F20436865636B73756D207765
:1011B000697468206C696E65206E756D6265722C4D
:1011C000204C617374204C696E653A200063686539
:1011D000636B73756D206D69736D617463682C202A
:1011E0004C617374204C696E653A20004C696E65E1
:1011F000204E756D626572206973206E6F74204C8D
:10120000617374204C696E65204E756D6265722B3A
:10121000312C204C617374204C696E653A20004D6E
:10122000313130004B494C4C45442E20004B494C49
:101230004C2063617573656420627920746F6F2040
:101240006D75636820696E61637469766520746981
:101250006D65202D2063757272656E7420636F6DED
:101260006D616E643A20004572726F722077726908
:1012700074696E6720746F20454550524F4D210AA6
:10128000002066697273740A005A005900580048B9
:101290006F6D652000656E7175657565696E672097
:1012A000220000002200250028002B002E00310023
:1012B000340002010000050108010B0100002100BB
:1012C000240027002A002D00300033000101000017
:1012D000040107010A0105050505070508080808B6
:1012E000020202020A0A08080404040401010101BE
:1012F00001010101030303030303030304070707B9
:101300000C0C0C0C0C0C0C0C02020202060606065D
:10131000060606060B0B0B0B0B0B0B0B010210202A
:10132000200808102040102040800201020108041B
:1013300002010102040810204080804020100804AF
:101340000201800402018040201008040201080408
:10135000020101020408102040800102040810204C
:10136000408000000A0B02090C0D0E08070304015F
:10137000000000000000000000000000000000006D
:10138000000000000000000000000000000012113A
:10139000100000000000000000000000000000003D
:1013A000000000000000000045303A20005A3A20BA
:1013B00000593A2000583A20004D53312C4D5332F9
:1013C0002050696E730A00290A00206279746573DF
:1013D0003B20637263200053657474696E677320E9
:1013E00053746F72656420280020496E76616C69C1
:1013F00064206578747275646572200025697300D5
:1014000025696D20256973002569682025696D208F
:1014100025697300256964202569682025696D2088
:10142000256973002569792025696420256968206C
:1014300025696D20256973002042002050006F6BE4
:1014400000526573656E643A200020573A0020749C
:101450006F6F206C6F6E6720657874727573696F3B
:101460006E2070726576656E7465640A0020636F25
:101470006C6420657874727573696F6E2070726524
:1014800076656E7465640A004B494C4C45442E20C9
:101490000024F4D43050C38E20C2A24017828B7037
:1014A00011127A910D816CD90AA861E108C75866BA
:1014B00007615143061E4B5D05C145A7041A411142
:1014C00004093D9803713931034036DB02653391DD
:1014D00002D4305402802E1D02632CEE01752AC501
:1014E00001B028A001102781018F2564012B244B16
:1014F00001E0223401AC211F018D200D01801FFC71
:1015000000841EED00971DDF00B81CD200E61BC64C
:1015100000201BBC00641AB200B219A8000A19A06E
:10152000006A189900D117910040178B00B51684F6
:101530000031167E00B31579003A157300C7146F99
:101540000058146A00EE1366008813630025135ECA
:1015500000C7125B006C12570015125400C11151E4
:101560000070114F0021114B00D61049008D10471B
:10157000004610440002104200C00F4000800F3EA1
:1015800000420F3C00060F3B00CB0E3800930E3795
:10159000005C0E3500270E3400F30D3200C10D3112
:1015A00000900D3000600D2E00320D2D00050D2C29
:1015B00000D90C2B00AE0C2900850C29005C0C27EF
:1015C00000350C27000E0C2600E80B2400C40B2469
:1015D00000A00B23007D0B23005A0B2100390B21A7
:1015E00000180B2000F80A1F00D90A1E00BB0A1EB3
:1015F000009D0A1D00800A1D00630A1C00470A1B8B
:10160000002C0A1B00110A1A00F7091A00DD09193B
:1016100000C4091900AB091900920917007B0918C9
:1016200000630917004C0916003609160020091638
:10163000000A091500F5081500E0081400CC08148C
:1016400000B8081400A4081400900813007D0812C4
:10165000006B0813005808120046081200340811E5
:1016600000230811001208110001081100F00710F2
:1016700000E0071000D0071000C0071000B0070FEF
:1016800000A107100091070E0083070F0074070FD9
:101690000065070E0057070E0049070E003B070DB7
:1016A000002E070E0020070D0013070D0006070D82
:1016B00000F9060C00ED060D00E0060C00D4060C47
:1016C00000C8060C00BC060C00B0060C00A4060BFB
:1016D0000099060C008D060B0082060B0077060BA6
:1016E000006C060B0061060A0057060B004C060A48
:1016F0000042060A0038060A002E060A0024060ADE
:10170000001A060A001006090007060A00FD05096E
:1017100000F4050900EB050900E2050900D90509F7
:1017200000D0050900C7050900BE050900B5050878
:1017300000AD050800A50509009C050800940508F2
:10174000008C050800840508007C05080074050865
:10175000006C050700650508005D050700560508D3
:10176000004E05070047050700400508003805073B
:1017700000310507002A050700230507001C0506A0
:1017800000160507000F05070008050600020507FB
:1017900000FB040600F5040700EE040600E804065A
:1017A00000E2040700DB040600D5040600CF0406AF
:1017B00000C9040600C3040600BD040600B7040601
:1017C00000B1040500AC040600A6040600A0040550
:1017D000009B04060095040500900406008A040599
:1017E0000085040500800406007A040500750405E0
:1017F00000700405006B0405006604050061040523
:10180000005C04050057040500520405004D040562
:101810000048040500430405003E0404003A0405A2
:101820000035040500300404002C040500270404DE
:1018300000230405001E0404001A04040016040515
:1018400000110404000D040400090405000404044C
:101850000000040400FC030400F8030400F4030483
:1018600000F0030400EC030400E8030400E40304B4
:1018700000E0030400DC030400D8030400D40304E4
:1018800000D0030400CC030400C8030300C5030315
:101890000024F404D9201BC40C5C0E9804C4095F16
:1018A0000265077101F405F900FB04B300480487E1
:1018B00000C10369005803550003034500BE023A06
:1018C000008402310053022A00290225000402206C
:1018D00000E4011C00C8011900AF011700980114B1
:1018E0000084011300710110006101100051010E0C
:1018F0000043010D0036010B002B010B0020010BF2
:1019000000150109000C01090003010800FB000893
:1019100000F3000800EB000700E4000600DE00060C
:1019200000D8000600D2000600CC000500C7000564
:1019300000C2000500BD000400B9000400B50004A9
:1019400000B1000400AD000400A9000400A50003DC
:1019500000A20003009F0004009B00030098000306
:10196000009500020093000300900003008D000228
:10197000008B000300880002008600020084000340
:1019800000810002007F0002007D0002007B000257
:101990000079000200770001007600020074000266
:1019A0000072000100710002006F0002006D000172
:1019B000006C0002006A000100690002006700017B
:1019C0000066000100650001006400020062000181
:1019D0000061000100600001005F0002005D000185
:1019E000005C0001005B0001005A00010059000189
:1019F0000058000100570001005600010055000189
:101A00000054000100530000005300010052000187
:101A10000051000100500001004F0001004E000085
:101A2000004E0001004D0001004C0001004B000081
:101A3000004B0001004A000100490001004800007D
:101A40000048000100470001004600000046000178
:101A50000045000000450001004400010043000073
:101A6000004300010042000000420001004100006C
:101A70000041000100400001003F0000003F000164
:101A8000003E0000003E0001003D0000003D00015E
:101A9000003C0000003C0000003C0001003B000056
:101AA000003B0001003A0000003A0001003900004C
:101AB0000039000100380000003800000038000143
:101AC000003700000037000100360000003600003B
:101AD000003600010035000000350000003500012F
:101AE0000034000000340000003400010033000026
:101AF000003300000033000100320000003200001B
:101B0000003200010031000000310000003100010E
:101B1000003000000030000000300001002F000005
:101B2000002F0000002F0000002F0001002E0000F9
:101B3000002E0000002E0001002D0000002D0000EE
:101B4000002D0000002D0001002C0000002C0000E2
:101B5000002C0000002C0001002B0000002B0000D6
:101B6000002B0000002B0001002A0000002A0000CA
:101B7000002A0000002A00010029000000290000BE
:101B800000290000002900000029000100280000B1
:101B900000280000002800000028000000280001A4
:101BA0000027000000270000002700000027000099
:101BB000002700010026000000260000002600008B
:101BC000002600000026000100250000002500007E
:101BD0000025000000250000002500000025000170
:101BE0000024000000240000002400000024000065
:101BF0000024000100230000002300000023000057
:101C00000023000000230000002300000023000147
:101C1000002200000022000000220000002200003C
:101C2000002200000022000100210000002100002D
:101C30000021000000210000002100000021000020
:101C40000021000100200000002000000020000012
:101C50000020000000200000002000000020000004
:101C600000200001001F0000001F0000001F0000F6
:101C7000001F0000001F0000001F0000001F0001E7
:101C8000001E0000001E0000001E0000001E0000DC
:101C9000004572723A204D494E54454D5020424500
:101CA00044004572723A204D494E54454D50004D06
:101CB000494E54454D50207472696767657265647A
:101CC000004572723A204D415854454D50204245CE
:101CD00044004572723A204D415854454D50004DD4
:101CE000415854454D502074726967676572656448
:101CF00000024572726F723A002020506C616E6E65
:101D0000657242756666657242797465733A200041
:101D10002046726565204D656D6F72793A200043EB
:101D20006F6D70696C65643A204E6F76203230209A
:101D3000323031370A00207C20417574686F723A66
:101D40002028416C657068204F626A656374732057
:101D5000496E632E2C204C756C7A426F7420476953
:101D600074205265706F7369746F7279290A004E1E
:101D70006F76203230203230313731363A30373AD0
:101D8000313100204C617374205570646174656456
:101D90003A2000312E312E350A004D61726C696E89
:101DA0000020536F667477617265205265736574A5
:101DB0000A00205761746368646F67205265736519
:101DC000740A002042726F776E206F75742052651E
:101DD0007365740A002045787465726E616C2052D8
:101DE000657365740A00506F77657255700A0073E9
:101DF000746172740A00205A3A0020593A0020583F
:101E00003A00656E6473746F7073206869743A2069
:101E1000006563686F3A004E414E494E4954594936
:101E20004E46CDCCCC3D0AD7233C17B7D13877CC22
:101E30002B329595E6241FB14F0A00002041000087
:101E4000C84200401C4620BCBE4CCA1B0E5AAEC540
:101E50009D74599611241FBECFEFD1E2DEBFCDBFD6
:101E600000E00CBF13E0A0E0B2E0E6E3F8E401E03C
:101E70000BBF02C007900D92AC31B107D9F72DE02E
:101E8000ACE1B3E001C01D92A735B207E1F71EE156
:101E9000C4E5DEE100E006C022970109FE010BBFA8
:101EA0000E94F5A3C235D10780E00807A9F70E9478
:101EB00021920C9419A40C9400002F923F924F92FF
:101EC0005F926F927F928F929F92AF92BF92CF92CA
:101ED000DF92EF92FF920F931F93CF93DF93CDB7D3
:101EE000DEB7C557D1090FB6F894DEBF0FBECDBF20
:101EF0000091D40C20E6029F80011124055E1B4F47
:101F000080911A0480FF1AC0E1E1FEE184917F0113
:101F10003FEFE31AF30A811102C0780104C00E9466
:101F20003537F701F3CFD7018D917D01882319F063
:101F30000E943537F8CF8AE00E94353710927E0331
:101F400010927D038FE3809319041092180410926D
:101F50001704109236031092370310923803109230
:101F60003903F80180810F5F1F4F8032D1F38E3427
:101F7000B1F4818190ED980F9A3020F08D3211F0FC
:101F80008B3269F43296DF0131962C9120532A303E
:101F9000D0F3CD01FC01019620812032D9F3F093DA
:101FA0001104E09310047F01BFEFEB1AFB0A1081CC
:101FB0006AE270E0C7010E94F9A3009739F0DC01E2
:101FC00011978C918032E1F311961C921D3429F007
:101FD000143519F0173409F0CDC0F7014E2F9F2F9B
:101FE00081918032D9F380538A3008F0C3C01093B6
:101FF00019042091170430911804E42FF92F6AE096
:10200000AF014F5F5F4F629FC001639F900D11242E
:10201000208130E020533109820F931F218120530A
:102020002A3030F090931804809317049A0103C06B
:102030009C01FA01E5CFD9012F5F3F4F4C9140320F
:10204000D1F31D3449F0B090100440917D035091BC
:102050007E0361E070E050C08E31910591F03CF458
:102060008731910571F08C31910569F70AC0853788
:1020700091054CF38737910524F0803AE3E09E0701
:1020800011F7B0937E03A0937D0374C02132F1F168
:102090000FEB020F0A3108F05AC09F01F901A0812D
:1020A0002F5F3F4FA032D1F320ED2A0F2A3008F0E6
:1020B00042C09F01E02EF12CD701B595A795B595AB
:1020C000A795B595A795AA5CBC4F07706B01002E2C
:1020D00001C0CC0C0A94EAF7DC90DC28DC922115D4
:1020E000310599F12B19D701A45EBC4F2C932081A7
:1020F00021542A3188F5DF01FD0131962C912111FF
:10210000C5CF50937E0340937D0334C01D3409F046
:10211000BFCF8032910509F0BBCFF0937E03E093EF
:102120007D0363E270E0CF010E94F9A3009711F1F3
:10213000DC011C921FC023ED2A0F223008F4B9CF16
:10214000AB3211F00C94BB28B4CF20E0CCCF4115BA
:10215000510569F6AD01CBCF9F013196D9010C91A4
:1021600000530A30C8F3F9012F5F3F4FA081A0321E
:10217000D1F3C1CF809119048D3411F40C949119CD
:10218000843511F40C945D28873411F00C949E284A
:1021900080911704909118048A31910509F4A0C622
:1021A000BCF48430910544F4823091050CF021C1D7
:1021B00097FF2DC00C94B8288430910509F455C6BA
:1021C0000C9711F00C94B8280E94D23E0C94B828B9
:1021D0008E31910509F4CEC73CF48C31910509F498
:1021E00099C60CF482C6B9C78B35910511F40C94CD
:1021F00057198C35910511F40C945C198A359105A9
:1022000011F00C94B828109216040C94B828809100
:102210002502882311F40C94B8280E94BA6C8AE332
:1022200093E00E9429390E94883B80911A0483FD23
:102230008FC0C0904603D0904703E0904803F090D1
:1022400049032091AF0C3091B00C4091B10C5091EA
:10225000B20CC701B6010E949C9C882309F478C087
:102260008091CD03811138C06091130270911402E6
:10227000882777FD8095982F0E94A29C9B01AC0136
:102280006091E6037091E7038091E8039091E90380
:102290000E949C9C87FF20C0C092AF0CD092B00CD3
:1022A000E092B10CF092B20CE1E1FEE184918F0179
:1022B0000F5F1F4F882321F00E943537F801F6CFBA
:1022C000EDEEF1E084918F010F5F1F4F882321F025
:1022D0000E943537F801F6CFC0904603D0904703EF
:1022E000E0904803F09049032091AF0C3091B00C7E
:1022F0004091B10C5091B20CC701B6010E94F9A0F7
:1023000020E030E048E453E40E9420A3181604F5CE
:10231000C092AF0CD092B00CE092B10CF092B20C23
:10232000E1E1FEE184918F010F5F1F4F882321F0CF
:102330000E943537F801F6CFEEECF1E084918F0181
:102340000F5F1F4F882321F00E943537F801F6CF29
:1023500020913A0330913B0340913C0350913D035F
:102360006091A30C7091A40C8091A50C9091A60C87
:102370000E949C9C81111DC020913E0330913F031F
:1023800040914003509141036091A70C7091A80CBB
:102390008091A90C9091AA0C0E949C9C811109C06B
:1023A00060910A0270910B0280910C0290910D02D3
:1023B0001AC060910F0270911002882777FD8095F6
:1023C000982F0E94A29C20910A0230910B0240910A
:1023D0000C0250910D020E94019D2AE037ED43E26C
:1023E0005CE30E94019D0E9461870E947E390C94EB
:1023F000B82820912502222311F40C94B82811E06A
:10240000029709F010E00E94BA6C82E50E94203A1F
:10241000882309F430C10E94B3386B017C014090DD
:10242000A30C5090A40C6090A50C7090A60C209169
:10243000A70C3091A80C4091A90C5091AA0C2EA386
:102440003FA348A759A780913A0390913B03A091DD
:102450003C03B0913D038AA79BA7ACA7BDA72091E1
:102460003E0330913F0340914003509141032AAB1A
:102470003BAB4CAB5DAB20E030E0A901C701B6013E
:102480000E949C9C882309F4D6C4A30192016AA5EA
:102490007BA58CA59DA50E949C9C81110DC02EA1A1
:1024A0003FA148A559A56AA97BA98CA99DA90E940D
:1024B0009C9C882309F4BFC420E030E0A901C70137
:1024C000B6010E949C9C881F8827881F181759F006
:1024D00080E090E0A0E8BFEB22968CAF9DAFAEAF5E
:1024E000BFAF22970AC020E030E040E85FE32296C9
:1024F0002CAF3DAF4EAF5FAF2297A30192016AA50B
:102500007BA58CA59DA50E94F9A06EAB7FAB88AF83
:1025100099AF2EA13FA148A559A56AA97BA98CA96D
:102520009DA90E94F9A06AAF7BAF8CAF9DAF2EA989
:102530003FA948AD59ADCA01B9010E94019D4B01A7
:102540005C012AAD3BAD4CAD5DADCA01B9010E9445
:10255000019D9B01AC01C501B4010E94FAA00E943B
:1025600065A36EA77FA788AB99AB20E030E040E081
:102570005FE30E94019D4B015C01A7019601C70129
:10258000B6010E94019D6B017C01A5019401C5016A
:10259000B4010E94019D9B01AC01C701B6010E94DC
:1025A000F9A00E9465A39B01AC0122966CAD7DADA4
:1025B0008EAD9FAD22970E94019D4B015C012AA523
:1025C0003BA54CA55DA5C301B2010E94FAA020E085
:1025D00030E040E05FE30E94019D6B017C016AAD49
:1025E0007BAD8CAD9DAD90582EA53FA548A959A9AE
:1025F0000E94D6A19B01AC01C501B4010E94019DBE
:102600009B01AC01C701B6010E94FAA0A30192018F
:102610000E94F9A06B017C012AA93BA94CA95DA9E4
:102620006EA17FA188A599A50E94FAA020E030E0C4
:1026300040E05FE30E94019D2B013C012EA53FA5D8
:1026400048A959A96EA97FA988AD99AD0E94D6A1C4
:102650009B01AC01C501B4010E94019D9B01AC012D
:10266000C301B2010E94FAA02EA13FA148A559A51D
:102670000E94F9A014C089E40E94203A882329F01E
:102680000E94B3386B017C0103C0C12CD12C7601B0
:102690008AE40E94203A8823D9F00E94B3386AABBA
:1026A0007BAB8CAB9DAB20E030E0A901C701B6014C
:1026B0000E949C9C81111AC020E030E0A9016AA907
:1026C0007BA98CA99DA90E949C9C81110FC0B3C3BA
:1026D00020E030E0A901C701B6010E949C9C88233C
:1026E00009F4A9C31AAA1BAA1CAA1DAAD701C601CC
:1026F000B0588EA39FA3A8A7B9A72AA93BA94CA904
:102700005DA950582AA73BA74CA75DA79C01AD0126
:10271000BC01CD010E94019D4B015C012AA53BA596
:102720004CA55DA5CA01B9010E94019D9B01AC01A8
:10273000C501B4010E94FAA00E9465A362966CAF25
:102740007DAF8EAF9FAF62978091A30C9091A40C48
:10275000A091A50CB091A60C8EAB9FABA8AFB9AF62
:10276000A7019601BC01CD010E94FAA022966CAF90
:102770007DAF8EAF9FAF22972091A70C3091A80C10
:102780004091A90C5091AA0C2AAF3BAF4CAF5DAF62
:102790002AA93BA94CA95DA96AAD7BAD8CAD9DADC5
:1027A0000E94FAA026966CAF7DAF8EAF9FAF2697A2
:1027B00080913A0390913B03A0913C03B0913D037B
:1027C0002A968CAF9DAFAEAFBFAF2A9722962CADA5
:1027D0003DAD4EAD5FAD2297BC01CD010E94F9A089
:1027E0006B017C0120913E0330913F0340914003F7
:1027F000509141032E962CAF3DAF4EAF5FAF2E9759
:1028000026962CAD3DAD4EAD5FAD26972E966CADA8
:102810007DAD8EAD9FAD2E970E94F9A04B015C015E
:102820008091AB0C9091AC0CA091AD0CB091AE0C22
:102830006A968CAF9DAFAEAFBFAF6A979C01AD01FA
:10284000609142037091430380914403909145034A
:102850000E94F9A06EA77FA788AB99AB2091AF0C1F
:102860003091B00C4091B10C5091B20C6E962CAFDF
:102870003DAF4EAF5FAF6E976091460370914703D7
:1028800080914803909149030E94F9A066966CAF2D
:102890007DAF8EAF9FAF6697A70196016EA17FA116
:1028A00088A599A50E94019D2B013C01A5019401D9
:1028B0006AA57BA58CA59DA50E94019D9B01AC01ED
:1028C000C301B2010E94FAA02B013C01A5019401B1
:1028D0006EA17FA188A599A50E94019D4B015C0175
:1028E000A70196016AA57BA58CA59DA50E94019DC7
:1028F0009B01AC01C501B4010E94F9A0A3019201A2
:102900000E946DA16B017C0120E030E0A9010E94D2
:102910009C9C87FF0AC02BED3FE049EC50E4C701C7
:10292000B6010E94FAA06B017C01112351F02BED3E
:102930003FE049EC50E4C701B6010E94F9A06B01E9
:102940007C0120E030E0A901C701B6010E949C9CF7
:10295000811124C02A962CAD3DAD4EAD5FAD2A97B6
:102960006EA97FA988AD99AD0E949C9C811116C06B
:102970002E962CAD3DAD4EAD5FAD2E976AAD7BADC5
:102980008CAD9DAD0E949C9C811108C00BEDC02EAA
:102990000FE0D02E09ECE02E00E4F02E62962CAD74
:1029A0003DAD4EAD5FAD6297C701B6010E94019D7E
:1029B0009B01AC010E94019D4B015C012EA53FA52E
:1029C00048A959A9CA01B9010E94019D9B01AC0106
:1029D000C501B4010E94FAA00E9465A34B015C01ED
:1029E0002FE632E143E85AE30E949C9C87FD1FC218
:1029F000C501B4010E946FA20E9443A27BAF6AAFDF
:102A00006115710521F481E090E09BAF8AAFAAAD1A
:102A1000BBADBD0180E090E00E94A09C4B015C0139
:102A20009B01AC01C701B6010E94D6A16EAB7FAB82
:102A300088AF99AFA50194016EA57FA588A999A932
:102A40000E94D6A162966CAF7DAF8EAF9FAF6297AA
:102A5000A501940166966CAD7DAD8EAD9FAD669778
:102A60000E94D6A166966CAF7DAF8EAF9FAF669782
:102A70002EA93FA948AD59ADCA01B9010E94019DD7
:102A800020E030E040E05FE30E94019D9B01AC014B
:102A900060E070E080E89FE30E94F9A02A966CAFA6
:102AA0007DAF8EAF9FAF2A976A962CAD3DAD4EADF0
:102AB0005FAD6A9729873A874B875C876E968CADA6
:102AC0009DADAEADBFAD6E978D879E87AF87B88B3E
:102AD00060910F0270911002882777FD8095982FE2
:102AE0000E94A29C20910A0230910B0240910C029C
:102AF00050910D020E94019D2AE037ED43E25CE314
:102B00000E94019D2E966CAF7DAF8EAF9FAF2E972A
:102B10000E94EA3A9B01AC0128533F4F4F4F5F4F51
:102B20002EA73FA748AB59AB4EA05FA068A479A4DD
:102B300022242394312C19E1912EAAADBBAD2A1683
:102B40003B0608F030C10E946C650E94EA3A2EA54F
:102B50003FA548A959A9621B730B840B950B97FDE0
:102B60000EC00E94EA3ADC01CB0188539F4FAF4F61
:102B7000BF4F8EA79FA7A8ABB9AB0E94D7669A9408
:102B800009F445C02A962CAD3DAD4EAD5FAD2A97F8
:102B90006AA57BA58CA59DA50E94019D6B017C016A
:102BA0002EA93FA948AD59ADB201C3010E94019DB4
:102BB000A70196010E94FAA0162F072FB82EA92E62
:102BC0002A962CAD3DAD4EAD5FAD2A97B201C30143
:102BD0000E94019D6B017C012EA93FA948AD59AD12
:102BE0006AA57BA58CA59DA50E94019D9B01AC01BA
:102BF000C701B6010E94F9A02B013C01812F902F43
:102C0000AB2DBA2D8AA79BA7ACA7BDA74FC0B1011A
:102C100080E090E00E94A09C2EA93FA948AD59AD4C
:102C20000E94019D4B015C010E94D3A16B017C01BC
:102C3000C501B4010E945BA34B015C01A701960191
:102C40006EA17FA188A599A50E94019D2B013C0141
:102C5000A50194016AA97BA98CA99DA90E94019D47
:102C60009B01AC01C301B2010E94FAA02B013C01FF
:102C7000A50194016EA17FA188A599A50E94019D3F
:102C80004B015C01A70196016AA97BA98CA99DA9AA
:102C90000E94019D9B01AC01C501B4010E94F9A0F5
:102CA0006AA77BA78CA79DA7A9E19A2E9201A301F1
:102CB00022966CAD7DAD8EAD9FAD22970E94FAA09D
:102CC00069837A838B839C832AA53BA54CA55DA54C
:102CD00026966CAD7DAD8EAD9FAD26970E94FAA075
:102CE0006D837E838F83988762962CAD3DAD4EAD0C
:102CF0005FAD629769857A858B859C850E94FAA075
:102D000069877A878B879C8766962CAD3DAD4EADE3
:102D10005FAD66976D857E858F8598890E94FAA044
:102D20006D877E878F87988BCE0101960E94293907
:102D3000C0900F0489819A81AB81BC818E8B9F8B5F
:102D4000A88FB98F8D819E81AF81B8858A8F9B8F27
:102D5000AC8FBD8F89859A85AB85BC858E8F9F8F03
:102D6000A8A3B9A3AE01425E5F4FBE01665E7F4F6E
:102D7000CE0146960E9484302E96ECACFDAC0EAD92
:102D80001FAD2E979E01235F3F4FAE01425E5F4F06
:102D9000BE01665E7F4FCE0146960E9433799FEF5B
:102DA000291A390ACACEC0900F0480913A03909133
:102DB0003B03A0913C03B0913D038E8B9F8BA88F6A
:102DC000B98F80913E0390913F03A0914003B09151
:102DD00041038A8F9B8FAC8FBD8F8091420390916E
:102DE0004303A0914403B09145038E8F9F8FA8A306
:102DF000B9A3AE01425E5F4FBE01665E7F4FCE015A
:102E000046960E9484302E96ECACFDAC0EAD1FAD04
:102E10002E9726E433E0AE01425E5F4FBE01665E50
:102E20007F4FCE0146960E9433790E947E390E94E0
:102E3000883B0C94B828E2EFFCE184918F010F5F8E
:102E40001F4F882321F00E943537F801F6CFE8E0C4
:102E5000F2E084918F010F5F1F4F882311F40C94CF
:102E6000B8280E943537F801F4CF80E50E94203A57
:102E7000882329F00E9473384B015C0103C0812C28
:102E8000912C540183E50E94203A882361F00E942E
:102E9000B33820E030E04AE754E40E94019D0E94EC
:102EA00043A24B015C010E9454780E94883BC09071
:102EB0004A03D0904B03E0904C03F0904D03C80CB4
:102EC000D91CEA1CFB1C0E94EA3A6C197D098E0988
:102ED0009F0997FD02C00C94B8280E94D766F3CFD3
:102EE00081E0809325020C94B8280E94526C8111D5
:102EF0000C94B82880E50E94203A882319F00E949B
:102F0000833801C060E06983CE0101960E94A73F2B
:102F10000C94B8280E9454782090EF0380E00E941F
:102F20009A6F0E94AB3B81E08093920C88E50E94EF
:102F3000F239382E89E50E94F239082F8AE50E947D
:102F4000F239311005C0011107C011E0182705C082
:102F5000002311F0182F01C010E090E1E3EAFCE03B
:102F6000AAE3B3E001900D929A95E1F7111105C023
:102F7000811103C0311035C03BC082E00E945E5A0F
:102F80001123C1F31092A70C1092A80C1092A90C57
:102F90001092AA0C1092A30C1092A40C1092A50CE3
:102FA0001092A60C0E94AE47EAE3F2E0B491BAA7F1
:102FB000EEE1F2E0C590D590E590F490E2E2F2E027
:102FC00085909590A590B490A5019401C701B60194
:102FD0000E9420A318167CF4A7019601C501B40134
:102FE0000EC00111CFCF80E00E945E5A1111A3C024
:102FF0000111A1C0A3C0A5019401C701B6010E949F
:10300000D6A16EA37FA388A799A7EAE26E2EE2E07D
:103010007E2EF3016591759185919491FEE24F2E7C
:10302000F2E05F2EF20125913591459154910E9475
:103030009C9C87FF02C0F30101C0F20145905590AE
:10304000659074902EA13FA148A559A5CA01B90168
:103050000E94019D20E030E040E85FE30E94FAA07A
:103060000E9465A39B01AC01C301B2010E94019DB6
:103070006AA37BA38CA39DA3EBE3F2E024912EA390
:1030800020E030E040EC5FE3C501B4010E94019D07
:103090002B013C013EA1632F772767FD7095872F99
:1030A000972F0E94A29C9B01AC01C301B2010E9418
:1030B000019D69837A838B839C8320E030E040EC20
:1030C0005FE3C701B6010E94019D6B017C014AA527
:1030D000642F772767FD7095872F972F0E94A29CFA
:1030E0009B01AC01C701B6010E94019D6E8B7F8BD5
:1030F000888F998FAE014E5D5F4FBE016F5F7F4F2E
:10310000CE0146960E94BC3C1092D30C1092A70CA4
:103110001092A80C1092A90C1092AA0C1092A30C59
:103120001092A40C1092A50C1092A60C11115BCF5A
:10313000311059CF5DCF81E00E945E5A0E94AE47A8
:1031400080917F038093920C822D0E949A6F0E943F
:10315000923B0E94005C0C94B82881E08093960C0E
:1031600024982C9A0E94C94B1092960C249A2C9861
:103170000C94B82820E030E0A9016091A30C709174
:10318000A40C8091A50C9091A60C0E94FAA0182F77
:1031900088E5E4966FAFE497E5967FAFE597E6960E
:1031A0009FAFE6970E94203AE4966FADE497E596CC
:1031B0007FADE597E6969FADE697882321F00E94C4
:1031C000B3389B0102C09B01812FA901BC014E8B2A
:1031D0005F8B688F798F20E030E0A9016091A70CA8
:1031E0007091A80C8091A90C9091AA0C0E94FAA051
:1031F0005B018C0189E50E94203A882321F00E941E
:10320000B3385B018C01A501B80149835A836B83F4
:103210007C834090F4035090F5036090F603709027
:10322000F7032091F0033091F1034091F2035091A4
:10323000F3036E897F89888D998D0E94F9A06B01B7
:103240007C012FE632E143E85AEB0E9420A387FF7E
:1032500002C00C94B82822E430E045E253E4C701F0
:10326000B6010E949C9C181614F40C94B828A30173
:103270009201B501C8010E94F9A06B017C0121E314
:1032800038E040EC50EC0E9420A387FF02C00C9471
:10329000B82822E430E04FE353E4C701B6010E94AE
:1032A0009C9C181614F40C94B8280C94C52881E042
:1032B000809316040C94B82885E40E94203AC82E06
:1032C000811102C00E9454787BEEE72E72E0F72E47
:1032D00003EA1CE0B12CD12CD7018D917D010E9415
:1032E000203A882361F00E94B338F801608371832B
:1032F00082839383F3E0DF1611F0BB24B394D3945D
:103300000C5F1F4F24E0D212E7CFBB2019F00E94C0
:10331000AE4703C0C1100E94146C0E94005C0C9464
:10332000B82880911704909118048B39910509F4FD
:103330007FC40CF089C08535910509F4F3C4BCF550
:103340008B34910509F43AC2BCF48131910509F43A
:10335000B3C12CF4029708F42AC10C94B8288F3119
:10336000910509F4AFC18A32910509F4D2C142979F
:1033700011F00C94B828D2C48135910509F4B7C472
:1033800064F48D34910509F421C20CF41BC28E340F
:10339000910509F41FC20C94B8288335910509F4EE
:1033A000B8C40CF0BBC4109215040C94B8288F3626
:1033B000910509F464C324F58A36910509F481C4A2
:1033C0009CF48836910509F418C30CF017C48C35A9
:1033D000910511F00C94B8283BEEA32E32E0B32EE9
:1033E0000DE613E0912CB9C48D36910509F449C45A
:1033F0000CF032C38B36910509F467C40C94B828DD
:103400008737910509F4F1C59CF48337910509F4D8
:1034100023C58637910509F4B1C58237910511F0AE
:103420000C94B8280E9454780E94005C0C94B82830
:103430008937910509F4EDC50CF4E4C58C38910584
:1034400009F4BEC30C94B828803331E0930711F41B
:103450000C94C8220CF04AC08E3C910509F438C780
:103460000CF5893C910509F424C654F48E3B910572
:1034700009F423C4883C910509F4D1C50C94B828FB
:103480008C3C910509F44FC60CF0B7C68B3C9105F6
:1034900011F00C94B8280BEE12E085E9E82E83E0D9
:1034A000F82E32C6823E910509F4D1C784F48C3DD2
:1034B000910509F4A6C78D3D910509F4AFC7833D79
:1034C000910511F00C94B828E1E1FEE104C78E32B9
:1034D00051E0950711F40C94452314F00C949B23B0
:1034E0008D32914009F4B6C70C94B8288C3AE1E0CB
:1034F0009E0711F40C94492764F5803921E0920766
:1035000011F40C94E926ACF48F3541E0940711F4E2
:103510000C944728833651E0950711F40C944A28FF
:103520008E35914011F00C94B8280E94F6600C94EE
:10353000B8288239B1E09B0711F40C94F02614F4FA
:103540000C94EC26843A914011F40C94F4260C94DB
:10355000B828873F21E0920711F40C94022894F4D4
:10356000853F41E0940711F40C94FC2714F00C946F
:10357000FF27843F914011F00C94B8280E94CC732F
:103580000C94B8288B38B3E09B0711F40C944428B2
:10359000873EE3E09E0711F40C944D288335934059
:1035A00011F00C94B828E1E1FEE10C941028009190
:1035B0007D0310917E0380E50E94203A882369F004
:1035C0000E9473386B017C01BB24B39461157105B3
:1035D0008105910531F4B12C04C0B12CC12CD12C42
:1035E000760183E50E94203A882311F40C941B296C
:1035F0000E94B33820E030E04AE754E40E94019D85
:103600000E9443A26B017C01B11024C061157105B9
:1036100081059105F9F401151105E1F0D8018C91AE
:103620008823C1F0E1E1FEE184915F01BFEFAB1AB5
:10363000BB0A882321F00E943537F501F5CFF80148
:1036400081918F01882319F00E943537F8CF8AE0E5
:103650000E94353781E08093DA060E9454780E94F8
:10366000883BC114D104E104F104F9F080904A03CD
:1036700090904B03A0904C03B0904D038C0C9D1C7C
:10368000AE1CBF1C0E94EA3A681979098A099B0995
:1036900097FD04C01092DA060C94B8288091DA06DF
:1036A0008823C1F30E94D766EDCF8091DA06882384
:1036B00089F30E94D766F9CF179816981598149831
:1036C0000C94B82880E29DE00E94DD6E6E8B7F8BAB
:1036D000888F998FBE016F5F7F4FCE0146960E9403
:1036E000DD70E1E1FEE184918F010F5F1F4F8823C0
:1036F00021F00E943537F801F6CFBE016F5F7F4F92
:103700008FE492E00E943D6E8AE00E9435370C946F
:10371000B82883E50E94203A882311F40C94B82835
:103720000E949338E82E80E50E94203A811110C053
:1037300081E0E11001C080E08093960C882321F0A5
:1037400024982C9A0C94B828249A2C980C94B82875
:1037500080E50E94203A882341F00E94833877FF59
:1037600002C00C94B8288B0102C00DE010E0802F3D
:10377000ECE5F2E09491891739F0319622E0E438D3
:10378000F207C1F70C942029E2EFFCE184918F014C
:103790000F5F1F4F882321F00E943537F801F6CFC5
:1037A000E4E8F2E084918F010F5F1F4F882311F44A
:1037B0000C94B8280E943537F801F4CF0E94096FA5
:1037C0000C94B8280E94586D0C94B8280E94266367
:1037D0000C94B82883E50E94203A882359F00E946F
:1037E00083386E34710531F480E29DE00E94657388
:1037F0000C94B8281E8A1F8A188E198EE3EFF2E007
:1038000084918F010F5F1F4F882321F00E9435376D
:10381000F801F6CFEAEEF2E084918F010F5F1F4FBF
:10382000882321F00E943537F801F6CF60912D0DE5
:1038300070912E0D80E090E04AE00E94FF69EDED6E
:10384000F2E084918F010F5F1F4F882321F00E94C7
:103850003537F801F6CF60912F0D7091300D80E073
:1038600090E04AE00E94FF69E2EDF2E084918F016E
:103870000F5F1F4F882321F00E943537F801F6CFE4
:1038800080912D0D90912E0D20912F0D3091300DA6
:10389000821B930B4091200D415021E030E04230DB
:1038A00010F020E030E0BC01621B730B80E090E080
:1038B0004AE00E94FF698AE00E943537EAECF2E0B4
:1038C00084918F010F5F1F4F882321F00E943537AD
:1038D000F801F6CF8091310D9091320DA091330D0A
:1038E000B091340D8E8B9F8BA88FB98FBE016F5F07
:1038F0007F4FCE0146960E94DD70EDEBF2E08491A1
:103900008F010F5F1F4F811104C08E010F5F1F4F8A
:1039100004C00E943537F801F2CFD8018D918D0196
:10392000882319F00E943537F8CF8091350D90919A
:10393000360DA091370DB091380D8E8B9F8BA88FCF
:10394000B98FBE016F5F7F4FCE0146960E94DD703A
:10395000EDEAF2E084918F010F5F1F4F811104C0E7
:103960008E010F5F1F4F04C00E943537F801F2CF60
:10397000F80181918F01882319F00E943537F8CF23
:103980008AE00E943537E5EAF2E084918F010F5F0B
:103990001F4F882321F00E943537F801F6CFE5E963
:1039A000F2E084918F010F5F1F4F882321F00E9466
:1039B0003537F801F6CF20E030E04AE754E4609173
:1039C000390D70913A0D80913B0D90913C0D0E9404
:1039D000D6A142E00E946E5BE3E9F2E084918F01A0
:1039E0000F5F1F4F882321F00E943537F801F6CF73
:1039F0008AE00E9435370C94B82888E690E00E944F
:103A00008C7381110C94B82880911A0483FF02C032
:103A10000C94B82883E50E94203A882311F40C9472
:103A2000B8280E94B3380E943EA270936E0C609337
:103A30006D0C80E00E943F3B0E94B33820E030E0F4
:103A400040E752E40E949C9C181614F00E942663E2
:103A50000E94B3380C94B8288EE40E94203A882340
:103A600011F40C94B8280E94833860934E0370932D
:103A70004F0380935003909351030C94B82883E52F
:103A80000E94203A882321F00E949338C82E01C05A
:103A9000C12CC0921A04E1E1FEE184918F010F5F15
:103AA0001F4F882321F00E943537F801F6CFE9E057
:103AB000F3E084918F010F5F1F4F882321F00E9454
:103AC0003537F801F6CFCC20A1F16BEFE62E62E09E
:103AD000F62E00E010E020E0D12CC601002E02C03E
:103AE000959587950A94E2F780FF17C099249394DF
:103AF000920E222319F08CE20E943537F7012591AE
:103B00003491F90184915901FFEFAF1ABF0A88235C
:103B100029F00E9435379501F4CF922E0F5F1F4F89
:103B200022E0E20EF11C0530110509F444C0292DF4
:103B3000D4CFE5E0F3E084918F010F5F1F4F88231E
:103B4000D1F10E943537F801F6CF8AE50E94F239AB
:103B5000882311F40C9436280E94B3386B017C0141
:103B600020E030E040E050EC0E9420A387FF02C03C
:103B70000C94282820E030E040EA50E4C701B60168
:103B80000E949C9C181614F40C942828C0920B04D4
:103B9000D0920C04E0920D04F0920E04C092210227
:103BA000D0922202E0922302F092240242E0C70166
:103BB000B6010E946E5B8AE00E9435370C94B828EB
:103BC00080911A0483FF02C00C94B82883E50E94F8
:103BD000203A882311F40C94B8280E94B3380E942C
:103BE0003EA26739710514F066E970E070936A0CC3
:103BF0006093690C0E94F63A0C94B82889E690E02C
:103C00000E948C7381110C94D12BE0E1F3E084913C
:103C10008F010F5F1F4F882321F00E943537F80175
:103C2000F6CF0E94A0628AE00E9435370C94D12B17
:103C300083E50E94203A882311F40C94B8280E944E
:103C40009338809356038D3318F08CE3809356039A
:103C50000E94EA3A6B017C012091560330E0A8EE05
:103C6000B3E00E94EAA0C60ED71EE81EF91EC0925D
:103C70005203D0925303E0925403F09255030C94F4
:103C8000B8288DE690E00E948C7381110C94B828BE
:103C900080911A0483FF02C00C94B82883E50E9427
:103CA000203A8AAB81110C94352982E50E94203A92
:103CB00081110C9435290C94B8280E94C6870C9465
:103CC000B8280E942C3A0C94B82880E50E94203A2B
:103CD000811106C010925803109257030C94B82813
:103CE0000E948338672B11F00C94B828F3CF0E9400
:103CF000AD630E9454780E94D270109258031092C3
:103D0000570368EE73E080E090E00E9445690C94F0
:103D1000B82881E0809315040C94B8280E943340A1
:103D20000C94B82883E50E94F239882311F40C948E
:103D3000B8280E94B33820E030E04AE754E40E94FB
:103D4000019D0E9443A26093590370935A0380938C
:103D50005B0390935C030C94B828D5018D915D01B1
:103D60000E94F239882309F46DC0B3E09B1263C04E
:103D70000E94B3386B017C0120E030E040EA51E45E
:103D80000E949C9C87FF4EC0A70196016091790319
:103D900070917A0380917B0390917C030E94D6A15D
:103DA0002B013C019B01AC016091BD037091BE03EE
:103DB0008091BF039091C0030E94019D6093BD0359
:103DC0007093BE038093BF039093C003A30192013D
:103DD0006091A1037091A2038091A3039091A40329
:103DE0000E94019D6093A1037093A2038093A3039B
:103DF0009093A4036091690370916A0380916B03AF
:103E000090916C030E94A09CA30192010E94019DCD
:103E10000E9443A26093690370936A0380936B03CB
:103E200090936C03C0927903D0927A03E0927B0363
:103E3000F0927C0307C00E94B338F801608371835D
:103E40008283938393940C5F1F4FF4E09F1285CF7E
:103E50000E94BF400C94B828E2EFF3E084918F01F8
:103E60000F5F1F4F882321F00E943537F801F6CFEE
:103E7000E4EEF3E084918F010F5F1F4F882321F060
:103E80000E943537F801F6CFEDECF3E084918F0115
:103E90000F5F1F4F882321F00E943537F801F6CFBE
:103EA000EDEBF3E084918F010F5F1F4F882321F02A
:103EB0000E943537F801F6CFECEAF3E084918F01E8
:103EC0000F5F1F4F882321F00E943537F801F6CF8E
:103ED000EBE9F3E084918F010F5F1F4F882321F0FE
:103EE0000E943537F801F6CFECE8F3E084918F01BA
:103EF0000F5F1F4F882321F00E943537F801F6CF5E
:103F0000E7E7F3E084918F010F5F1F4F882321F0D3
:103F10000E943537F801F6CFE1E6F3E084918F0196
:103F20000F5F1F4F882321F00E943537F801F6CF2D
:103F3000ECE4F3E084918F010F5F1F4F882321F0A1
:103F40000E943537F801F6CFEFE2F3E084918F015C
:103F50000F5F1F4F882321F00E943537F801F6CFFD
:103F6000E7E1F3E084918F010F5F1F4F882311F485
:103F70000C94B8280E943537F801F4CF85E40E94EC
:103F8000F239882381F00E94A438882361F0E1E1AE
:103F9000FEE184918F010F5F1F4F882321F00E9463
:103FA0003537F801F6CF81E40E94F239882381F099
:103FB0000E94A438882361F0E8EEF4E084918F0138
:103FC0000F5F1F4F882321F00E943537F801F6CF8D
:103FD00000917D0310917E03D8018D918D0188237E
:103FE00009F4E9CD0E943537F7CF81E08093960C34
:103FF00024982C9A0E943C371092960C249A2C9864
:104000000C94B82881E08093920C80937F030C94E9
:10401000B8281092920C10927F030C94B82888EC68
:1040200090E00E948C7381110C94B82884E40E9463
:10403000F2398823D1F10E94B33811E020E030E05A
:10404000A9010E949C9C811101C010E0109384037F
:10405000112359F10091EE0310E00E94B338F801EA
:10406000EE0FFF1FEE0FFF1FE058FC4F60837183C0
:104070008283938320E030E0A901609180037091F6
:10408000810380918203909183030E949C9C811103
:104090000CC080E090E0A0E4B0E4809380039093B3
:1040A0008103A0938203B09383030E94E4380C94AD
:1040B000B8280BEE12E095E8E92E93E0F92EF8010E
:1040C00081918F010E94F239882351F00E94B33808
:1040D0000E9443A2D7016D937D938D939C93139778
:1040E000B4E0EB0EF11CE2E00F3E1E0741F70E9428
:1040F000CB360C94B828F4E0EF0EF11C22E00F3E12
:10410000120711F40C94B828D8018D918D010E94EA
:10411000F239882381F30E94B338F70160837183F9
:1041200082839383E8CF83E50E94F2398823D9F014
:104130000E94B338AB01BC014093AD035093AE0372
:104140006093AF037093B0034093A9035093AA0305
:104150006093AB037093AC0386E495E00E94E45B4C
:104160008AE00E94353780E50E94F239882399F071
:104170000E94B338AB01BC014093AD035093AE0332
:104180006093AF037093B00389E295E00E94E45B13
:104190008AE00E94353782E50E94F239882399F03F
:1041A0000E94B338AB01BC014093A5035093A60312
:1041B0006093A7037093A8038AE095E00E94E45BF4
:1041C0008AE00E94353784E50E94F239882309F499
:1041D000CFC70E94B338AB01BC014093A9035093F1
:1041E000AA036093AB037093AC038CEE94E00E943F
:1041F000E45B8AE00E943537BBC783E50E94F23951
:10420000882351F00E94B3386093C9037093CA03A6
:104210008093CB039093CC0384E50E94F2398823EA
:1042200051F00E94B3386093C5037093C603809326
:10423000C7039093C80382E40E94F239882351F0A7
:104240000E9473386093C1037093C2038093C303C9
:104250009093C40388E50E94F239882351F00E94AC
:10426000B3386093B1037093B2038093B303909318
:10427000B40389E50E94F239882351F00E94B338D3
:104280006093B5037093B6038093B7039093B8031C
:104290008AE50E94F239882351F00E94B338609376
:1042A000B9037093BA038093BB039093BC0385E476
:1042B0000E94F239882309F45BC70E94B3386093E7
:1042C000BD037093BE038093BF039093C00350C798
:1042D0000E944F484DC784918F010F5F1F4F882365
:1042E00021F00E943537F801F6CF83E50E94F239BC
:1042F000882321F00E94A43880930E02E6E9F5E0BD
:1043000084918F010F5F1F4F882321F00E94353762
:10431000F801F6CF80910E02882319F0EEE8F5E05F
:1043200002C0E2E9F5E084918F010F5F1F4F8823FF
:1043300021F00E943537F801F6CFE6E8F5E08491E8
:104340008F010F5F1F4F882321F00E943537F8013E
:10435000F6CF4091FC035091FD036091FE037091F4
:10436000FF0384E895E00E94E45B409100045091D3
:104370000104609102047091030481E895E00E94B9
:10438000E45B40910404509105046091060470912F
:1043900007048EE795E00E94E45BE6E7F5E0849190
:1043A0008F010F5F1F4F882321F00E943537F801DE
:1043B000F6CF40911502509116026091170270914C
:1043C000180284E795E00E94E45B40911902509145
:1043D0001A0260911B0270911C0281E795E00E9415
:1043E000E45B40911D0250911E0260911F0270918A
:1043F00020028EE695E00E94E45B8AE00E94353759
:10440000B7C683E50E94203A882309F4B1C60E940A
:1044100083387093100260930F02AAC68DED90E06E
:104420000E948C738111A4C683E50E94203A8823E0
:1044300009F49EC60091EE0310E00E948338F80153
:10444000EE0FFF1FEF5EFD4F7183608391C60E94E8
:104450007B408EC685E40E94203A811110C080E521
:104460000E94F239882391F00E94B3386093D603FA
:104470007093D7038093D8039093D90307C00E9409
:104480009338882361F3E2EFFCE171C089E40E9474
:10449000F239882381F00E94B3382CEA35EC47E2E8
:1044A0005EE30E94019D6093D2037093D3038093D7
:1044B000D4039093D50384E40E94F239882381F0D9
:1044C0000E94B3382CEA35EC47E25EE30E94D6A1A5
:1044D0006093CE037093CF038093D0039093D10366
:1044E000E1E1FEE184918F010F5F1F4F882321F0EE
:1044F0000E943537F801F6CF4091D6035091D7038B
:104500006091D8037091D9038EEA95E00E94E45B34
:104510002CEA35EC47E25EE36091D2037091D3035D
:104520008091D4039091D5030E94D6A1AB01BC0128
:104530008AEA95E00E94FA5C2CEA35EC47E25EE3F9
:104540006091CE037091CF038091D0039091D103FD
:104550000E94019DAB01BC0186EA95E00E94FA5CD5
:104560008AE00E94353704C60E943537F8018491ED
:104570008F010F5F1F4F8111F7CF0EE912E0D801B5
:104580008D918D01882309F416CB0E943537F7CF22
:1045900080E50E94F239882351F00E94B33860937D
:1045A000E2037093E3038093E4039093E50389E4CB
:1045B0000E94F239882381F00E94B3382CEA35EC4E
:1045C00047E25EE30E94019D6093DE037093DF0388
:1045D0008093E0039093E10384E40E94F2398823FE
:1045E00081F00E94B3382CEA35EC47E25EE30E948A
:1045F000D6A16093DA037093DB038093DC0390937E
:10460000DD03E1E1FEE184918F010F5F1F4F8823FD
:1046100021F00E943537F801F6CF4091E203509126
:10462000E3036091E4037091E5038AEB95E00E9457
:10463000E45B2CEA35EC47E25EE36091DE037091C7
:10464000DF038091E0039091E1030E94D6A1AB01CA
:10465000BC0186EB95E00E94FA5C2CEA35EC47E25F
:104660005EE36091DA037091DB038091DC0390914B
:10467000DD030E94019DAB01BC0182EB95E00E942D
:10468000FA5C8AE00E94353773C583E50E94F239EF
:10469000182F882371F00E94B3380E943EA27093B5
:1046A00014026093130221E0672B09F020E02093AD
:1046B000CD0380E50E94F239882369F080911302CE
:1046C00090911402892B19F00E94A43801C081E056
:1046D0008093CD034DC511114BC5E1E1FEE18491FD
:1046E0008F010F5F1F4F882321F00E943537F8019B
:1046F000F6CF8091CD03882319F061EF72E002C0FC
:104700006EE872E083ED95E00E943D6E60911302C9
:104710007091140282EC95E00E94186BEEEBF5E0CC
:1047200084918F010F5F1F4F882309F421C50E94D8
:104730003537F801F5CF85E40E94203A882321F02F
:104740000E9483381B0102C0212C312C83E40E947B
:10475000203A882339F00E948338AE967FAF6EAF3F
:10476000AE9706C0E5E0F0E0AE96FFAFEEAFAE97D5
:1047700085E50E94F239882331F00E94A438AF9673
:104780008FAFAF9703C0AF961FAEAF97E12CF12C60
:1047900037FE03C00CE812E402C006E113E483E52F
:1047A0000E94203A882321F00E94B3387B018C01BB
:1047B0002114310411F41092EE030E94EA3A2B0105
:1047C0003C01C1010196029728F4AFEACA2EA2E08B
:1047D000DA2E0BC002EC12E0D8018D918D018823F6
:1047E00009F4E9C90E943537F7CFF60181916F01CD
:1047F000882319F00E943537F8CF8AE00E943537B8
:104800000E94AD638FE7FFEF2F163F0619F48093E8
:10481000810C02C08093830CB701C8010E943EA2A4
:10482000882777FD8095982F0E94A29C23966FAFD2
:10483000239727967FAF27972B968FAF2B97679657
:104840009FAF679781E080934202A8964CAE5DAE21
:104850006EAE7FAEA897E3964CAE5DAE6EAE7FAE09
:10486000E3976B961FAE6B9720E42F962FAF2F9791
:104870003CE163963FAF639746E46F964FAF6F9707
:10488000A0961FAEA097A1961FAEA197A2961FAEAD
:10489000A297A3961FAEA39722961CAE1DAE1EAE86
:1048A0001FAE22971AAE1BAE1CAE1DAEC12CD12C72
:1048B0007601FFE78F2E912CA12CB12C8FE790E091
:1048C000A0E0B0E08EA79FA7A8ABB9ABAC961CAE9A
:1048D0001DAE1EAE1FAEAC9791E0A4969FAFA497FD
:1048E0001FAA1EAA10E01EA21AA600E08091420292
:1048F000882309F467C20E94EA3A6AAB7BAB8CABAF
:104900009DAB8091710C882309F42EC10E94FC6339
:10491000AFEF2A163A0659F41091EA03B091EB036F
:10492000BEA3E091EC03EAA70091ED030AC0109149
:10493000E603F091E703FEA32091E8032AA7009184
:10494000E903212F3EA14AA5502FA0966FADA09755
:10495000A1967FADA197A2968FADA297A3969FAD8A
:10496000A3970E949C9C87FF0EC0A0961FAFA097A4
:104970003EA1A1963FAFA1974AA5A2964FAFA2979D
:10498000A3960FAFA397212F3EA14AA5502F6B9658
:104990006FAD6B972F967FAD2F9763968FAD639713
:1049A0006F969FAD6F970E9420A3181674F46B96B4
:1049B0001FAF6B975EA12F965FAF2F978AA5639667
:1049C0008FAF63976F960FAF6F97A4969FADA49725
:1049D000992309F462C023962FAD239727963FAD04
:1049E00027972B964FAD2B9767965FAD6797612FF3
:1049F0007EA18AA5902F0E9420A318160CF0B4C0A7
:104A00008AA99BA9ACA9BDA984199509A609B709CA
:104A1000AC01BD01485853416109710977FDA4C03B
:104A20004EA55FA568A979A9481959096A097B09A2
:104A30007595679557954795EFEF2E163E0619F435
:104A40004093810C02C04093830CAC968CAF9DAF19
:104A5000AEAFBFAFAC972396FFAD2397A096FFAF45
:104A6000A09727962FAD2797A1962FAFA1972B96AA
:104A70003FAD2B97A2963FAFA29767964FAD679732
:104A8000A3964FAFA3978AA99BA9ACA9BDA9A89645
:104A90008CAF9DAFAEAFBFAFA89723962FAD239736
:104AA00027963FAD27972B964FAD2B9767965FAD17
:104AB0006797612F7EA18AA5902F0E949C9C87FFFB
:104AC0006CC68AA99BA9ACA9BDA9A8962CAD3DAD81
:104AD0004EAD5FADA897821B930BA40BB50BAC0139
:104AE000BD01485853416109710977FD56C64EA969
:104AF0005FA9452B09F0ECC48EA59FA5A8A9B9A96B
:104B0000880D991DAA1DBB1DB595A79597958795ED
:104B10004FEF2416340609F03DC68093810C8EA910
:104B20009FA901969FAB8EAB23969FAD23976B9663
:104B30009FAF6B972796AFAD27972F96AFAF2F9765
:104B40002B96BFAD2B976396BFAF63976796EFAD7C
:104B500067976F96EFAF6F974AA85BA86CA87DA880
:104B6000F1E0A496FFAFA49720E030E040EA51E4E2
:104B700023966FAD239727967FAD27972B968FAD02
:104B80002B9767969FAD67970E94FAA09B01AC0197
:104B9000612F7EA18AA5902F0E9420A318166CF485
:104BA000E3EAF6E084918F010F5F1F4F882309F439
:104BB000DFC20E943537F801F5CF80E398EFAFEF01
:104BC000BFEFE3962CAD3DAD4EAD5FADE397821BDD
:104BD000930BA40BB50B2AA93BA94CA95DA9820F85
:104BE000931FA41FB51FB7FD0FC00E94A0628AE0EB
:104BF0000E9435378AA99BA9ACA9BDA9E3968CAFC1
:104C00009DAFAEAFBFAFE3978AA99BA9ACA9BDA9E1
:104C1000880F991FAA1FBB1F84199509A609B709F8
:104C2000A8962CAD3DAD4EAD5FADA897821B930B02
:104C3000A40BB50B81389F44A241B10568F0E5E8AB
:104C4000F6E084918F010F5F1F4F882309F490C213
:104C50000E943537F801F5CF4EA95FA9AE968EAD0B
:104C60009FADAE97841795070CF040CEE8E2F6E0D2
:104C700084918F010F5F1F4F882321F00E943537E9
:104C8000F801F6CF9FEF2916390619F402E912E070
:104C900002C005E113E0B80186E196E00E943D6E96
:104CA000B701A60182E196E00E94E45B8AE00E94DF
:104CB0003537B80180E096E00E943D6E4AAD5BADAD
:104CC0006CAD7DAD8CEF95E00E94E45B8AE00E94C4
:104CD0003537B8018AEE95E00E943D6E22964CADC4
:104CE0005DAD6EAD7FAD229786EE95E00E94E45BF0
:104CF0008AE00E943537AF96AFADAF97AA2309F48B
:104D000037C22320209479F5C092E203D092E303C6
:104D1000E092E403F092E5032CEA35EC47E25EE32F
:104D20006AAD7BAD8CAD9DAD0E94019D6093DE03AD
:104D30007093DF038093E0039093E1032CEA35EC5A
:104D400047E25EE322966CAD7DAD8EAD9FAD2297BE
:104D50000E94D6A16093DA037093DB038093DC0397
:104D60009093DD0305C2C092D603D092D703E092A0
:104D7000D803F092D9032CEA35EC47E25EE36AAD42
:104D80007BAD8CAD9DAD0E94019D6093D20370936D
:104D9000D3038093D4039093D5032CEA35EC47E2F8
:104DA0005EE322966CAD7DAD8EAD9FAD22970E94E5
:104DB000D6A16093CE037093CF038093D0039093DA
:104DC000D103D6C1809142028111D2C10E94AD634C
:104DD000CFC10E945478CCC181E00E941B3FC8C162
:104DE00080E00E941B3FC4C186E50E94F2398823FF
:104DF00021F084E497E00E94BB5C83E50E94F239D5
:104E0000882321F00E94A438182F01C010E083E508
:104E10000E94F239882319F0812F0E949A6FF09036
:104E2000EF03111103C0E1E1FEE11AC0F110FBCF65
:104E3000E2EFFCE184918F010F5F1F4F882321F087
:104E40000E943537F801F6CFE5E2F7E084918F0153
:104E50000F5F1F4F882339F30E943537F801F6CFD3
:104E600084918F010F5F1F4F882321F00E943537F7
:104E7000F801F6CFFF2019F066E972E002C06AE996
:104E800072E087E197E00E943D6E8AE00E9435372C
:104E90006FC187E9882E8CE0982E93EAA92E9CE0BA
:104EA000B92E28E0222E24E0322E00E010E0E22D80
:104EB000E095EEA3D1018D911D01882309F48BC0EB
:104EC000F5014080518062807380F801EB5EFD4FF8
:104ED0002081318142815381F801E450FC4F60818F
:104EE0007181828193810E94FAA020E030E040E04D
:104EF0005FE30E94019D9B01AC01C301B2010E94CE
:104F000020A3181644F4F801EF59F84FC590D59036
:104F1000E590F49003C0C12CD12C7601F801E0514A
:104F2000FC4F2081318142815381C301B2010E9433
:104F3000F9A09B01AC01C701B6010E94F9A06B0169
:104F40007C0120E030E040EA51EC0E9420A387FD84
:104F500029C020E030E040EA51E4C701B6010E94D8
:104F60009C9C1816FCF0D4012D913D914D915C91C3
:104F7000C701B6010E94F9A09B01AC01C301B201B7
:104F80000E94FAA0F5016083718382839383D40128
:104F9000CD92DD92ED92FC9213978EA1820D0E942C
:104FA000883919C0E2EFFCE184918F010F5F1F4F38
:104FB000882321F00E943537F801F6CFEDE6F7E0BF
:104FC00084918F010F5F1F4F882309F4D1C00E9485
:104FD0003537F801F5CFB4E08B0E911C0C5F1F4FF5
:104FE000E4E0AE0EB11C0C30110509F063CF0E9455
:104FF000AE470E94005CBCC00E94B042B9C00E9493
:105000004F41B6C083E50E94F239882319F00E940F
:10501000A43801C081E091E089270E94165DA8C0F4
:1050200084918F010F5F1F4F882321F00E94353735
:10503000F801F6CFE3EAF7E084918F010F5F1F4F8D
:10504000882311F40C94A51D0E943537F801F4CF84
:10505000EEE8F7E084918F010F5F1F4F882311F472
:105060000C94DB1D0E943537F801F4CF40910B04FE
:1050700050910C0460910D0470910E048BE897E040
:105080000E94E45B0C94DB1D0E94996971C00E9430
:105090002C616EC00E9410386BC081E080932502A5
:1050A00083E50E94F239811103C00E946A7060C0DA
:1050B0000E94A43881115CC0F8CFF0901704FF2043
:1050C00029F1E1E1FEE184918F010F5F1F4F8823F9
:1050D00021F00E943537F801F6CF84E50E9435377C
:1050E0006F2D70E080E090E04AE00E94FF6980E26E
:1050F0000E9435370EE912E0D8018D918D01882389
:1051000011F40C94DB1D0E943537F6CF10920F047A
:10511000E1E1FEE184918F010F5F1F4F882321F0B1
:105120000E943537F801F6CF60E070E08DEA97E035
:105130000E94186B8AE00E9435371AC0E1E1FEE157
:1051400084918F010F5F1F4F882321F00E94353714
:10515000F801F6CF60911004709111048FEB97E085
:105160000E943D6E82E20E9435378AE00E94353708
:105170000E94FE6F16C34115510519F4AF0141504D
:10518000510920E030E00C945A1080E00E949A6FA0
:105190000E94AB3B83E50E94F239882309F449C0A1
:1051A0000E94A43821E0482FBE016F5F7F4FCE01DF
:1051B00046960E9437496B017C019B01AC010E941D
:1051C000A6A3811131C02CEA35EC47E257E36E8982
:1051D0007F89888D998D0E94FAA0AB01BC0187E47C
:1051E00092E00E94FA5C2CEA35EC47E257E36981D1
:1051F0007A818B819C810E94FAA0AB01BC0182E480
:1052000092E00E94FA5C2CEA35EC47E257E3C701D2
:10521000B6010E94FAA0AB01BC018DE392E00E94AE
:10522000FA5C8AE00E9435370E94923B0E94005C43
:105230009FCF81E0B7CFB1100C942A1B0C940B1BAD
:10524000802F0E94316B6E2D802F0E94B43AF12C7A
:10525000B701802F0E94506B0830110509F088CFEC
:10526000F0925803E092570383CF0E94B3380E9414
:105270003EA270936E0C60936D0C80E00E943F3BE9
:105280000E94B33820E030E040E752E40E949C9C4A
:1052900018161CF00E94266302C00E94096F81E06C
:1052A000809342021AA61BA61CA61DA61EA61FA618
:1052B00018AA19AA1EA21EAA3CE33AAF4CE14EAFAF
:1052C00056E423965FAF2397C12CD12C40E8E42EFF
:1052D0005FEBF52E812C912C540160916D0C709137
:1052E0006E0C882777FD8095982F0E94A29C162F20
:1052F000072F782E692E262F372F482F592FB601CA
:10530000C7010E949C9C8823D9F02091E60330912C
:10531000E7034091E8035091E903612F702F872D37
:10532000962D0E949C9C881F8827881F8EA38AA97F
:10533000882351F09EA1992339F08091420218CF21
:105340001C2D0D2D7E2C6F2C0E94EA3A6B017C01E6
:10535000DC01CB012EA53FA548A959A9821B930BBF
:10536000A40BB50BB7FD39C0D701C60188519C4FBE
:10537000AF4FBF4F8EA79FA7A8ABB9AB0E94A0624B
:10538000E3E1F3E084912F019FEF491A590A882342
:1053900021F00E943537F201F5CF81149104A10468
:1053A000B104A9F0C501B40168517C4F8F4F9F4FE4
:1053B0006C197D098E099F0928EE33E040E050E02A
:1053C0000E94A2A0CA01B9010E94706A03C08FE3C3
:1053D0000E9435378AE00E9435370E94D7660E94C6
:1053E000883B2090E6033090E7034090E80350901C
:1053F000E9039101A201612F702F872D962D0E9444
:10540000F9A09F7720E030E040E251E4811491045C
:10541000A104B10429F40E949C9C87FD05C006C02C
:105420000E9420A3181614F446015701AEA1AA2326
:1054300099F12AA53BA54CA55DA52115310541058E
:10544000510541F0D701C601821B930BA40BB50B8C
:10545000B7FD22C09101A2016EA97AAD8EAD23964F
:105460009FAD23970E94F9A020E030E040EC5FE37D
:105470000E949C9C87FD61CFD701C601805A95414F
:10548000AF4FBF4F8AA79BA7ACA7BDA72EAA3AAE26
:105490004EAE23965FAE239780914202882309F493
:1054A0004CCF81149104A104B10429F4C12ED02E53
:1054B000E72CF62C12CF98EEC91A93E0D90AE1082E
:1054C000F108C818D908EA08FB08F7FE36CFEECF76
:1054D000AC964CAC5DAC6EAC7FACAC97480E591E34
:1054E0006A1E7B1EAC962CAD3DAD4EAD5FADAC974C
:1054F000281B390B4A0B5B0BCA01B901A5019401AA
:105500000E9493A0A30192010E94C4A049015A01E4
:105510008EA59FA5A8A9B9A9880E991EAA1EBB1E73
:1055200094E189169104A104B1040CF1ACEE8A1641
:105530009104A104B1043CF4B0E88B169104A104D9
:10554000B1041CF105C06BEE862E912CA12CB12C60
:105550008EA69FA6A8AAB9AA2EEF30E040E050E0A0
:10556000281939094A095B0949015A0112C084E125
:1055700090E0A0E0B0E08EA79FA7A8ABB9AB54E144
:10558000852E912CA12CB12C04C08EA69FA6A8AA72
:10559000B9AA2FE037E0F9018491882389F02F5FC1
:1055A0003F4FE4962FAFE497E5963FAFE5970E9413
:1055B0003537E4962FADE497E5963FADE597EBCF11
:1055C0006EA57FA588A999A90E94706A2AE037E094
:1055D000F9018491882389F02F5F3F4FE4962FAF24
:1055E000E497E5963FAFE5970E943537E4962FADF7
:1055F000E497E5963FADE597EBCFC501B4010E9476
:10560000706A6B964FAD6B972F965FAD2F97639631
:105610006FAD63976F967FAD6F9783E097E00E94C1
:10562000E45BA0964FADA097A1965FADA197A2961F
:105630006FADA297A3967FADA3978CEF96E00E94E3
:10564000E45B2EA93FA9233031050CF455CAC501EE
:10565000B4010E94A29C20E030E040E850E40E94A7
:10566000019D6B017C016B962FAD6B972F963FAD23
:105670002F9763964FAD63976F965FAD6F97A09628
:105680006FADA097A1967FADA197A2968FADA2977F
:10569000A3969FADA3970E94F9A02BED3FE049E4AC
:1056A00050E40E94019D20E030E040E05FE30E9472
:1056B000019D9B01AC01C701B6010E94D6A16B01FF
:1056C0007C01C301B2010E94A29C2FE632E143E8B3
:1056D0005AE30E94019D2B013C01B701A60186EF10
:1056E00096E00E94E45BB301A20180EF96E00E9485
:1056F000E45B2AE939E949E15FE3C701B6010E94A9
:10570000019D6B017C019B01AC010E94FAA0A301E9
:1057100092010E94D6A16AAF7BAF8CAF9DAFA3016F
:105720009201C701B6010E94019D20E030E040E0F7
:105730005EE30E94019D22966CAF7DAF8EAF9FAF5E
:105740002297E0EEF6E084913F013FEF631A730A7F
:10575000882321F00E943537F301F5CFB701A60168
:105760008AED96E00E94E45B4AAD5BAD6CAD7DAD29
:1057700084ED96E00E94E45B22964CAD5DAD6EAD8B
:105780007FAD22978EEC96E00E94E45B8AE00E9457
:105790003537B2C98093830CC2C9A4961FAEA497B3
:1057A000E3C9CB58DF4F0FB6F894DEBF0FBECDBFB5
:1057B000DF91CF911F910F91FF90EF90DF90CF90ED
:1057C000BF90AF909F908F907F906F905F904F9021
:1057D0003F902F90089524E08202C0011124FC0123
:1057E000E25DF34F4081518162817381FC01E95395
:1057F000F34F4083518362837383E091610CF09196
:10580000620C82899389A489B58980933E0C909318
:105810003F0CA093400CB093410C0895CF93DF93BD
:105820002FB7F89494E08902E0011124FE01E25DB3
:10583000F34F60817181828193812FBF0E94A29C6E
:10584000C954D34F288139814A815B810E94019DCF
:10585000DF91CF910895089590E0FC013197E231F6
:10586000F10508F04CC0EE58FF4F0C94E9A380916D
:1058700080008F7703C0809180008F7D80938000AF
:10588000089580918000877FF9CF84B58F7702C01B
:1058900084B58F7D84BD08958091B0008F7703C05B
:1058A0008091B0008F7D8093B0000895809190002A
:1058B0008F7707C0809190008F7D03C0809190000A
:1058C000877F8093900008958091A0008F7707C014
:1058D0008091A0008F7D03C08091A000877F80937E
:1058E000A0000895809120018F7707C0809120014A
:1058F0008F7D03C080912001877F809320010895D0
:105900003FB7F8948091480D9091490DA0914A0DB0
:10591000B0914B0D26B5A89B05C02F3F19F00196FD
:10592000A11DB11D3FBF6627782F892F9A2F620FC7
:10593000711D811D911D42E0660F771F881F991F01
:105940004A95D1F70895CF92DF92EF92FF920F938D
:105950001F93CF93DF93E091610CF091620C8281F1
:105960009381A481B581181619061A061B06A4F5A1
:105970008091600C9091D6054091D50580FF10C0B4
:1059800083B186FB222720F99E7F292B2093D60501
:10599000942F9170922301F18091D30C816018C0F3
:1059A00086B1292F30E0992787FD9095990F880BB4
:1059B000982F822793278071992782279327809396
:1059C000D605942F9071982339F08091D30C806183
:1059D0008093D30C80E0FFDEE091610CF091620CCB
:1059E00086819781A085B185181619061A061B06AF
:1059F0000CF03FC09091600C8091D6052091D505A8
:105A000091FF1AC033B190E035FBCC24C0F8D12C03
:105A1000D194C194D108C826D92632E0C322DD240E
:105A2000C826D926C092D605822F82708C2109F112
:105A30008091D30C826019C030B190E032FBEE242B
:105A4000E0F8F12CF194E194F108E826F92630E22F
:105A5000E322FF24E826F926E092D605822F807201
:105A60008E2139F08091D30C80628093D30C81E039
:105A7000B2DEE091610CF091620C82859385A48581
:105A8000B585181619061A061B060CF045C090912C
:105A9000600C8091D60592FF21C09091960C9923BD
:105AA000D9F123B190E022952F7031E02327022F06
:105AB000017010E01195019511090827192704704C
:105AC0001127082719270093D6058091D5058470E2
:105AD000802311F18091D30C84601AC020B190E032
