:100000000C94E02A0D94B40F0D94890F0D945E0F9B
:100010000D94330F0D94080F0D94DD0E0D94B20E58
:100020000C9427B60C94112B0C94112B0C94112BBF
:100030000C94112B0C94FDD70C94112B0C94112BB8
:100040000C94112B0C94A6AE0C94112B0C94112B28
:100050000C94112B0C94112B0C941CAD0D94DF0FF0
:100060000C94112B0C946DB50C94112B0C94112B3A
:100070000C94112B0C94112B0C94112B0C94112B10
:100080000C94112B0C94112B0C94112B0C94112B00
:100090000C94112B0C94112B0C94112B0C94112BF0
:1000A0000C94112B0C94112B0C94112B0C94112BE0
:1000B0000C94112B0C94112B0C94112B0C94112BD0
:1000C0000C94112B0C94112B0C94112B0C94112BC0
:1000D0000C94112B0C94112B0C94112B0C94112BB0
:1000E0000C94112B80468346724676467C46BA466F
:1000F00087468B469146954699469F46A346A74616
:10010000BA46AD46B146B546D952DE52E352ED523B
:10011000F75270530153095311531B5325532F5357
:100120003E534853705352535C536653CE77CE7749
:10013000D577D577D577DC77DC77DC77E977E37728
:10014000E377E377A1B5A7B5B8B5C3B5CBB5E0B54F
:10015000CFB5E0B5D3B5D7B5E0B5DDB5084AD73BE7
:100160003BCE016E84BCBFFDC12F3D6C74319ABD86
:1001700056833DDA3D00C77F11BED9E4BB4C3E91AA
:100180006BAAAABE000000803F05A84CCDB2D44E99
:10019000B93836A9020C50B9918688083CA6AAAA9B
:1001A0002ABE000000803F000D941C0B0D946F11BF
:1001B0000D9429100D94110D434F4D4D554E49434B
:1001C0004154494F4E0044525952554E00455252E7
:1001D0004F525300494E464F004543484F0020744C
:1001E0006F6F206C6F6E6720657874727573696FBE
:1001F0006E2070726576656E7465640A0020636FA8
:100200006C6420657874727573696F6E20707265A6
:1002100076656E7465640A0047322F473320626149
:100220006420706172616D65746572730A00536C4D
:100230006565702E2E2E00205A3A200020593A2053
:100240000042656420583A20004C756C7A426F7405
:10025000204D696E69204C43442072656164792E9B
:1002600000526573756D696E67207072696E7400F7
:10027000436C69636B20746F20726573756D652EB6
:100280002E2E004E6F206D6F76652E00456E642019
:1002900066696C65206C6973740A00426567696EF3
:1002A0002066696C65206C6973740A004D313235C3
:1002B000005344207072696E74696E6720627974AD
:1002C0006520004E6F74205344207072696E74690B
:1002D0006E670A0046696C652064656C65746564C8
:1002E0003A0044656C6574696F6E206661696C657F
:1002F000642C2046696C653A20006F70656E20663C
:1003000061696C65642C2046696C653A200025693A
:10031000730025696D2025697300256968202569AA
:100320006D20256973002569642025696820256989
:100330006D20256973002569792025696420256968
:10034000682025696D20256973005072696E7420DC
:1003500074696D653A2000000125301D0C1E2431A2
:100360001C0B18232F1B0A17FFFF040806FF062289
:100370002B1A4142043803FF3628294527444350AD
:10038000726F7465637465642050696E0A00457805
:10039000747275646572202573004C756C7A426FB7
:1003A00074204D696E69204C434420726561647904
:1003B0002E00D901D401CD01C601B8016F666600D7
:1003C00044454255473A006F6B00436F6F6C696E4E
:1003D0006720646F6E652E0048656174696E6720E2
:1003E000646F6E652E0020573A004578747275640C
:1003F0006572202573004C756C7A426F74204D69CC
:100400006E69204C43442072656164792E00426518
:100410006420646F6E652E0020573A0042656420A8
:1004200068656174696E672E0042656420636F6F52
:100430006C696E672E007A5F6D61783A20007A5F92
:100440006D696E3A2000795F6D61783A2000795FBE
:100450006D696E3A2000785F6D61783A2000785FB0
:100460006D696E3A20005265706F7274696E672014
:10047000656E6473746F70207374617475730A00B1
:10048000426564204C6576656C696E672000466144
:10049000696C656420746F20656E61626C652042D2
:1004A0006564204C6576656C696E670A0042656418
:1004B000204C6576656C20436F7272656374696F5A
:1004C0006E204D61747269783A00000000000000EF
:1004D0003F4300001F434F6666736574732061706D
:1004E000706C696564004572723A20546F6F2066C3
:1004F00061722100546F6F206661722066726F6DA9
:10050000207265666572656E636520706F696E74D2
:100510000A003A20007A5F6D696E3A20202D322061
:100520007A5F6D61783A202035005A204F666673F5
:10053000657420004E6F2063617365206C69676885
:10054000740A00556E6B6E6F776E20636F6D6D6110
:100550006E643A2022001000C90210012C014001F3
:10056000220170011801B0010E01F00104015002D6
:10057000FA00B002F0003003E600D003DC00900483
:10058000D2007005C800A006BE000008B400B00983
:10059000AA00D00BA000600E960060118C00001520
:1005A000820020197800C01D6E00A0226400B027D0
:1005B0005A00902C500000314600E0343C001038C6
:1005C0003200903A2800603C1E00A03D1400803E9E
:1005D0000A00203F00000000200023002600290020
:1005E0002C002F0032000001000003010601090168
:1005F000000000000000C0C0000000C00000254353
:1006000000003F4300001F432F2F20004361703A3A
:10061000454D455247454E43595F5041525345520F
:100620003A310A004361703A434153455F4C4947B0
:1006300048545F4252494748544E4553533A300A52
:10064000004361703A544F47474C455F4C49474817
:1006500054533A300A004361703A534F465457415D
:1006600052455F504F5745523A300A004361703A45
:100670004C4556454C494E475F444154413A310A36
:10068000004361703A5A5F50524F42453A310A0076
:100690004361703A4155544F4C4556454C3A310AE6
:1006A000004361703A5052494E545F4A4F423A31CA
:1006B0000A004361703A50524F47524553533A3003
:1006C0000A004361703A4155544F5245504F5254BD
:1006D0005F54454D503A310A004361703A454550E8
:1006E000524F4D3A310A004649524D574152455FEB
:1006F0004E414D453A4D61726C696E20204649521B
:100700004D574152455F56455253494F4E3A312E4F
:10071000312E352E36302045585452554445525FBF
:10072000545950453A4165726F73747275646572BD
:1007300020534F555243455F434F44455F55524CFC
:100740003A68747470733A2F2F636F64652E616C0E
:100750006570686F626A656374732E636F6D2F6472
:100760006966667573696F6E2F4D41524C494E2014
:1007700050524F544F434F4C5F56455253494F4E82
:100780003A312E30204D414348494E455F5459502F
:10079000453A4C756C7A426F74204D696E69204CF5
:1007A00043442045585452554445525F434F554E9B
:1007B000543A3120555549443A3038336636386614
:1007C000312D303238652D343934632D3938653167
:1007D0002D6632653064666165653961350A004DA4
:1007E00031343520533C696E6465783E206F7574F2
:1007F000206F662072616E67652028302D31290ACE
:100800000020706F736974696F6E206F7574206F4C
:10081000662072616E67652E0A003F50726F6265D6
:10082000200000060900FE06018902FE20FFFE07E7
:10083000FE06FE0000000600070106060602008014
:100840008080800080030303060103A0A0A00507A9
:10085000070600FF5050F850F850500509090600EF
:10086000FE2070A8A07028A870200608080600FFC7
:1008700040A84810204854080507070600FF60906C
:10088000906098906801030306020380808002074D
:10089000070602FF40808080808040020707060232
:1008A000FF8040404040408005050506000088501C
:1008B000F850880505050600002020F820200204D5
:1008C000040602FEC0404080050101060002F80255
:1008D0000202060200C0C004060606010010102035
:1008E00040808004060606010060909090906003AE
:1008F000060606010040C0404040E004060606012E
:10090000006090102040F0040606060100F0206010
:100910001010E005060606000010305090F8100494
:100920000606060100F080E01010E004060606014D
:10093000006080E0909060040606060100F0101050
:10094000204040040606060100609060909060041C
:100950000606060100609090701060020505060210
:1009600000C0C000C0C00207070602FEC0C000C031
:1009700040408005050506000018608060180503EA
:1009800003060001F800F8050505060000C0300860
:1009900030C0040707060100609010604000400569
:1009A00006060600007090A8B080700506060600D6
:1009B00000205088F88888050606060000F088F0B8
:1009C0008888F0040606060100609080809060042C
:1009D0000606060100E090909090E00406060601ED
:1009E00000F080E08080F0040606060100F080E060
:1009F000808080040606060100609080B09060044C
:100A000006060601009090F09090900306060601FD
:100A100000E040404040E0050606060000381010A7
:100A200010906004060606010090A0C0A0909004FB
:100A300006060601008080808080F005060606001C
:100A40000088D8A8A8888804060606010090D0B0BF
:100A500090909005060606000070888888887004CB
:100A60000606060100E09090E0808004070706017A
:100A7000FF609090D0B06010040606060100E09080
:100A800090E090900406060601006090402090607F
:100A9000050606060000F820202020200406060691
:100AA00001009090909090600406060601009090DE
:100AB00090F060600506060600008888A8A8D8881F
:100AC0000506060600008850202050880506060608
:100AD0000000888850202020040606060100F0103F
:100AE000204080F0030606060100E080808080E060
:100AF000040606060100808040201010030606064A
:100B00000100E020202020E0050303060003205020
:100B1000880501010600FEF8020202060204804078
:100B2000040404060100709090700406060601009B
:100B30008080E09090E004040406010070808070E2
:100B4000040606060100101070909070040404065C
:100B5000010060B0C070040606060100205040E0AD
:100B600040400406060601FE609090701060040686
:100B7000060601008080E0909090030606060100C2
:100B80004000C04040E00308080601FE200060204D
:100B90002020A0400406060601008080A0C0A0908E
:100BA000030606060100C040404040E0050404067C
:100BB0000000D0A8A888040404060100E0909090EA
:100BC000040404060100609090600406060601FE1D
:100BD000E09090E080800406060601FE7090907020
:100BE0001010040404060100A0D080800404040650
:100BF000010070C030E00406060601004040E040FD
:100C0000502004040406010090909070040404062F
:100C100001009090606005040406000088A8A850B8
:100C2000040404060100906060900406060601FEBC
:100C3000909090709060040404060100F02040F051
:100C400003070706010020404080404020010707BD
:100C50000602FF80808080808080030707060100F5
:100C60008040402040408004020206010350A0FF63
:100C7000FFFFFFFFFFFFFFFFFFFFFFFFFFFFFFFF84
:100C8000FFFFFFFFFFFFFFFFFFFFFFFFFFFFFFFF74
:100C900000000006000701060606020080008080B2
:100CA00080800406060601FF2070A0A070200507C2
:100CB000070600FF304840F04040F80505050600F3
:100CC00000A8508850A80506060600008850F820A5
:100CD000F8200107070602FF8080800080808004E2
:100CE00007070601FF708060906010E003010106B5
:100CF0000105A0060707060000788494A494847870
:100D000003050506010160A06000E0050505060079
:100D1000002850A05028040303060100F01010041E
:100D20000101060102F00607070600007884B4A45A
:100D3000A48478040101060105F0040303060102FE
:100D40006090600507070600FF2020F8202000F8CB
:100D500003050506010140A02040E003050506014A
:100D600001C0204020C002020206020440800405A7
:100D7000050601FF9090B0D08005060606000078B9
:100D8000E8E8682828010101060202800202020642
:100D900002FE408003050506010140C04040E0031B
:100DA000050506010140A04000E00505050600001C
:100DB000A0502850A00508080600FF40C040507011
:100DC0003078100508080600FF40C0405068081041
:100DD000380508080600FFC0204030F030781004C5
:100DE00007070601002000206080906005070706C5
:100DF000000040202050708888050707060000107A
:100E000020205070888805070706000020502050D9
:100E100070888805070706000028502050708888D1
:100E20000507070600005000205070888805070756
:100E30000600002050205070888805060606000035
:100E400078A0F0A0A0B80408080601FE6090808099
:100E5000906020400407070601004020F080E080F9
:100E6000F00407070601002040F080E080F004074E
:100E7000070601002050F080E080F004070706011B
:100E8000005000F080E080F003070706010080407A
:100E9000E0404040E00307070601002040E04040FA
:100EA00040E003070706010040A0E0404040E003A7
:100EB0000707060100A000E0404040E005060606E6
:100EC00000007048E848487004070706010050A079
:100ED00090D0B090900407070601004020609090E9
:100EE0009060040707060100204060909090600425
:100EF00007070601002050609090906004070706E5
:100F0000010050A060909090600407070601005017
:100F10000060909090600505050600008850205004
:100F2000880408080601FF1070B0B0D0D0E080043B
:100F30000707060100402090909090600407070684
:100F40000100204090909090600407070601002067
:100F50005090909090600407070601005000909018
:100F60009090600507070600001020885020202080
:100F700004060606010080E09090E0800406060664
:100F800001006090A0A090A0040707060100402087
:100F900000709090700407070601002040007090D8
:100FA00090700407070601002050007090907004B4
:100FB000070706010050A000709090700406060616
:100FC0000100500070909070040707060100205047
:100FD000207090907005040406000070A8B078049A
:100FE00006060601FE708080702040040707060197
:100FF0000040200060B0C0700407070601002040D8
:101000000060B0C07004070706010020500060B007
:10101000C070040606060100500060B0C0700307EF
:1010200007060100804000C04040E00307070601BA
:1010300000204000C04040E003070706010040A038
:1010400000C04040E0030606060100A000C040408A
:10105000E0040707060100306010709090600407FC
:101060000706010050A000E09090900407070601D9
:1010700000402000609090600407070601002040B7
:101080000060909060040707060100205000609007
:10109000906004070706010050A000609090600473
:1010A00006060601005000609090600505050600E8
:1010B000002000F8002004040406010070B0D0E015
:1010C0000407070601004020009090907004070775
:1010D0000601002040009090907004070706010070
:1010E0002050009090907004060606010050009079
:1010F0009090700409090601FE20400090909070C5
:1011000090600408080601FE8080E09090E08080F6
:101110000408080601FE5000909090709060000056
:101120002200250028002B002E003100340002018F
:101130000000050108010B01000021002400270028
:101140002A002D00300033000101000004010701D6
:101150000A0105050505070508080808020202023C
:101160000A0A080804040404010101010101010143
:101170000303030303030303040707070C0C0C0C0E
:101180000C0C0C0C020202020606060606060606F7
:101190000B0B0B0B0B0B0B0B010210202008081084
:1011A00020401020408002010201080402010102D7
:1011B00004081020408080402010080402018004B0
:1011C000020180402010080402010804020101020B
:1011D0000408102040800102040810204080000014
:1011E0000A0B02090C0D0E080703040100000000A1
:1011F00000000000000000000000000000000000EF
:1012000000000000000000000000121110000000AB
:1012100000000000000000000000000000000000CE
:101220000000000043290A0061626C656420286D9B
:10123000696E2074656D702000436F6C6420657862
:1012400074727564657320617265200045303A20C0
:10125000005A3A2000593A2000583A20004D5331A4
:101260002C4D53322050696E730A004578747275A4
:10127000646572004D6F7665205A004D6F7665206B
:1012800059004D6F76652058004D6F76656D656E1F
:1012900074004D6F766520302E316D6D004D6F7688
:1012A0006520316D6D004D6F76652031306D6D00BC
:1012B0004D6F766520617869730045787472756446
:1012C0006572004D6F7665205A004D6F7665205926
:1012D000004D6F766520580053442063617264208E
:1012E0006F6B0A006F70656E526F6F742066616974
:1012F0006C65640A00766F6C756D652E696E697435
:10130000206661696C65640A00534420696E6974E3
:10131000206661696C0A007C3C3E5E2B3D3F2F5B82
:101320005D3B2C2A225C0043616E6E6F74206F70EF
:10133000656E207375626469722000506C6561731C
:1013400065207265736574005052494E54455220B1
:1013500048414C544544005072696E74657220686F
:10136000616C7465642E206B696C6C282920636144
:101370006C6C6564210A006265640A002C20737934
:101380007374656D2073746F707065642120486597
:10139000617465725F49443A2000544845524D419A
:1013A0004C2052554E415741592042454400546803
:1013B00065726D616C2052756E6177617900544879
:1013C00045524D414C2052554E41574159204531CF
:1013D00000544845524D414C2052554E41574159B9
:1013E0002045300048656174696E67206661696CEC
:1013F0006564204245440048656174696E672066F3
:1014000061696C65640048656174696E6720666136
:10141000696C65640048656174696E67206661691E
:101420006C65642045300057726974696E6720747A
:101430006F2066696C653A20006F70656E2066618A
:10144000696C65642C2046696C653A20006F706594
:101450006E206661696C65642C2046696C653A2073
:101460000046696C652073656C65637465640A0089
:101470002053697A653A200046696C65206F706573
:101480006E65643A20006F70656E206661696C65F8
:10149000642C2046696C653A20002066696C653AC8
:1014A00020004E6F7720002220706F730022207082
:1014B0006172656E743A2200535542524F55544939
:1014C0004E452043414C4C207461726765743A224A
:1014D000004B494C4C45442E2000747279696E676C
:1014E00020746F2063616C6C207375622D67636F6D
:1014F00064652066696C6573207769746820746F11
:101500006F206D616E79206C6576656C732E204D51
:101510004158206C6576656C2069733A00656E7180
:1015200075657565696E672022004572726F72205D
:1015300077726974696E6720746F20454550524F09
:101540004D210A00486F6D65202573257325732092
:101550006669727374002066697273740A005A00B7
:1015600059005800486F6D6520005072696E7420F4
:1015700061626F727465640041626F7574204669C0
:10158000726D77617265004E6F2053442063617203
:1015900064005072696E742066726F6D205344004F
:1015A00053746F70207072696E7400526573756D3C
:1015B00065207072696E7400506175736520707279
:1015C000696E74004368616E67652066696C616D61
:1015D000656E74204532004368616E6765206669F8
:1015E0006C616D656E7420453100436F6E6669678E
:1015F00075726174696F6E0054656D7065726174A7
:10160000757265004D6F76656D656E740054756E0C
:101610006500496E666F2073637265656E00526582
:10162000776970696E670050726F62696E672066D5
:1016300061696C65640050726F62696E67206661F3
:10164000696C65640050524F4245204641494C2028
:10165000434C45414E204E4F5A5A4C450A00526564
:10166000776970696E670A005265776970696E679D
:101670000050726F62696E67206661696C65640014
:1016800050726F62696E67206661696C65640050B4
:10169000524F4245204641494C20434C45414E2043
:1016A0004E4F5A5A4C450A005265776970696E6709
:1016B0000A0050726F62696E67206661696C6564CA
:1016C0000A0050726F62696E67206661696C6564BA
:1016D00000205A3A200020593A20004265642058E0
:1016E0003A20001000AD0330016A0150022B017056
:1016F000030A019004F500B005E500D006D800F01B
:1017000007CE001009C500300ABE00500BB70070AC
:101710000CB100900DAB00B00EA600D00FA200F0EF
:10172000109D001012990030139500501492007013
:10173000158E0090168B00B0178700D0188400F02B
:10174000198100101B7E00301C7B00501D79007039
:101750001E7600901F7300B0207000D0216E00F044
:10176000226B00102469003025660050266300704B
:1017700027610090285E00B0295C00D02A5900F053
:101780002B5600102D5400302E5100502F4E00705B
:10179000304B0090314800B0324500D0334200F069
:1017A000343E0010363B003037370050383300707D
:1017B000392E00903A2900B03B2300D03C1B00F0AA
:1017C0003D1100103F0100F03F0000205A3A002078
:1017D000593A0020436F756E7420583A0020453AFC
:1017E00000205A3A0020593A00583A0020643A0042
:1017F00020693A0020703A00205A00205900580011
:1018000020204D61783A2000205A002059005800CD
:1018100020204D696E3A20004F6E20004F66660012
:10182000536F667420656E6473746F70733A200032
:1018300020643A0020693A0020703A0053657474BD
:10184000696E672054726176656C20416363656CD4
:1018500065726174696F6E3A200053657474696EC5
:1018600067205265747261637420416363656C65BF
:10187000726174696F6E3A200053657474696E67A3
:10188000205072696E7420416363656C6572617487
:10189000696F6E3A200053657474696E67205072E8
:1018A000696E7420616E642054726176656C2041AB
:1018B0006363656C65726174696F6E3A20002045E0
:1018C00000205A0020204D393037205800537465CD
:1018D00070706572206D6F746F72206375727265BF
:1018E0006E74733A0A0020204D383531205A005A60
:1018F0002D50726F6265204F666673657420286D87
:101900006D293A0A0020440020490020204D333040
:101910003420500020440020490020204D33303135
:101920002050005049442073657474696E67733A9F
:101930000A0020460020420020480020204D31347B
:10194000352053004D6174657269616C2068656172
:1019500074757020706172616D65746572733A0A96
:101960000020204D3432302053004175746F2042E6
:101970006564204C6576656C696E673A0A00205A8A
:101980000020590020204D323036205800486F6D1D
:1019900065206F66667365743A0A00204500205A18
:1019A0000020590020580020420020540020204DE3
:1019B000323035205300416476616E6365643A20AD
:1019C000533C6D696E5F66656564726174653E2047
:1019D000543C6D696E5F74726176656C5F666565B7
:1019E00064726174653E20423C6D696E5F73656729
:1019F0006D656E745F74696D655F6D733E20583CF4
:101A00006D61785F78795F6A65726B3E205A3C6DD4
:101A100061785F7A5F6A65726B3E20453C6D6178E4
:101A20005F655F6A65726B3E0A00205400205200B9
:101A300020204D323034205000416363656C657264
:101A40006174696F6E2028756E6974732F73322903
:101A50003A20503C7072696E745F616363656C3EDE
:101A600020523C726574726163745F616363656C7C
:101A70003E20543C74726176656C5F616363656C93
:101A80003E0A00204500205A0020590020204D32F7
:101A900030312058004D6178696D756D2041636368
:101AA000656C65726174696F6E2028756E697473F8
:101AB0002F7332293A0A00204500205A002059008D
:101AC00020204D3230332058004D6178696D756D9E
:101AD000206665656472617465732028756E69742B
:101AE000732F73293A0A00204500205A002059001C
:101AF00020204D3932205800537465707320706572
:101B00007220756E69743A0A0020204D3230302000
:101B100044300A0020204D323030204400204469F7
:101B20007361626C65640A0046696C616D656E7410
:101B30002073657474696E67733A0020204D3134E8
:101B4000392043203B20556E69747320696E204311
:101B5000656C736975730A0020204732312020209C
:101B6000203B20556E69747320696E206D6D0A00EC
:101B7000746F20726573756D6500576169742066B6
:101B80006F72207072696E74005052494E5420502A
:101B900041555345440045787472756465206D6FF6
:101BA000726500526573756D65207072696E7400A0
:101BB000524553554D45204F5054494F4E533A00CE
:101BC00020204E6F7A7A6C653A20002000506C65B8
:101BD00061736520776169742E2E2E0048656174EB
:101BE000696E67206E6F7A7A6C65005052494E5468
:101BF000205041555345440020204E6F7A7A6C6541
:101C00003A2000200068656174206E6F7A7A6C65F6
:101C10002E00507265737320627574746F6E207439
:101C20006F005052494E54205041555345440020B6
:101C3000204E6F7A7A6C653A2000200066696C61EC
:101C40006D656E742065787472756465005761699E
:101C50007420666F72005052494E542050415553C3
:101C600045440020204E6F7A7A6C653A20002000AF
:101C700066696C616D656E74206C6F61640057619C
:101C8000697420666F72005052494E54205041557D
:101C90005345440020204E6F7A7A6C653A200074D8
:101CA0006F20636F6E74696E75652E2E2E00616EE7
:101CB0006420707265737320627574746F6E00496E
:101CC0006E736572742066696C616D656E74005028
:101CD00052494E54205041555345440020204E6FE8
:101CE0007A7A6C653A2000200066696C616D656ED9
:101CF0007420756E6C6F6164005761697420666F43
:101D000072005052494E54205041555345440020D2
:101D1000204E6F7A7A6C653A20006368616E676561
:101D2000006F66207468652066696C616D656E740D
:101D3000005761697420666F722073746172740059
:101D40005052494E54205041555345440020204E96
:101D50006F7A7A6C653A200020004261636B004D17
:101D6000696E696D756D2054656D702069732031E1
:101D700032302E0048656174696E67206661696C57
:101D80006564000000254300004543000021430036
:101D900000F0410000F0410000004100000000FFA1
:101DA00001014C756C7A426F74204D696E69204C4C
:101DB0004344204F66662E004F6666004F6E20003B
:101DC000456E6473746F702061626F727400537437
:101DD0006570732F6D6D004A65726B0041636365BA
:101DE0006C65726174696F6E0056656C6F636974BF
:101DF00079005A204F666673657400416476616E9F
:101E00006365642053657474696E67730056547219
:101E10006176206D696E005654726176206D696E30
:101E2000005654726176206D696E00566D696E00C1
:101E3000566D696E00566D696E00566D617820456D
:101E400000566D6178204500566D6178204500563A
:101E50006D6178205A00566D6178205A00566D6188
:101E600078205A00566D6178205900566D617820AF
:101E70005900566D6178205900566D6178205800E0
:101E8000566D6178205800566D61782058004D6F6E
:101E900074696F6E004573746570732F6D6D0045C6
:101EA00073746570732F6D6D005A73746570732F42
:101EB0006D6D005A73746570732F6D6D0059737476
:101EC0006570732F6D6D005973746570732F6D6D30
:101ED000005873746570732F6D6D0058737465705E
:101EE000732F6D6D004D6F74696F6E0056652D6AAE
:101EF00065726B0056652D6A65726B0056652D6ABA
:101F000065726B00567A2D6A65726B00567A2D6A7F
:101F100065726B0056792D6A65726B0056792D6A71
:101F200065726B0056792D6A65726B0056782D6A62
:101F300065726B0056782D6A65726B0056782D6A53
:101F400065726B004D6F74696F6E004B494C4C4568
:101F5000442E200024F4D43050C38E20C2A2401757
:101F6000828B7011127A910D816CD90AA861E108F7
:101F7000C7586607615143061E4B5D05C145A7045E
:101F80001A411104093D9803713931034036DB02CF
:101F900065339102D4305402802E1D02632CEE0171
:101FA000752AC501B028A001102781018F25640181
:101FB0002B244B01E0223401AC211F018D200D01A7
:101FC000801FFC00841EED00971DDF00B81CD200AE
:101FD000E61BC600201BBC00641AB200B219A800A0
:101FE0000A19A0006A189900D117910040178B00B8
:101FF000B516840031167E00B31579003A157300CA
:10200000C7146F0058146A00EE136600881363004B
:1020100025135E00C7125B006C12570015125400A6
:10202000C111510070114F0021114B00D610490011
:102030008D1047004610440002104200C00F4000BF
:10204000800F3E00420F3C00060F3B00CB0E3800D5
:10205000930E37005C0E3500270E3400F30D32006E
:10206000C10D3100900D3000600D2E00320D2D009D
:10207000050D2C00D90C2B00AE0C2900850C290075
:102080005C0C2700350C27000E0C2600E80B240002
:10209000C40B2400A00B23007D0B23005A0B21004E
:1020A000390B2100180B2000F80A1F00D90A1E0066
:1020B000BB0A1E009D0A1D00800A1D00630A1C0049
:1020C000470A1B002C0A1B00110A1A00F7091A0004
:1020D000DD091900C4091900AB091900920917009C
:1020E0007B091800630917004C0916003609160011
:1020F000200916000A091500F5081500E00814006B
:10210000CC081400B8081400A408140090081300A8
:102110007D0812006B0813005808120046081200D0
:1021200034081100230811001208110001081100E1
:10213000F0071000E0071000D0071000C0071000E3
:10214000B0070F00A107100091070E0083070F00D2
:1021500074070F0065070E0057070E0049070E00B1
:102160003B070D002E070E0020070D0013070D0082
:1021700006070D00F9060C00ED060D00E0060C0048
:10218000D4060C00C8060C00BC060C00B0060C00FF
:10219000A4060B0099060C008D060B0082060B00AE
:1021A00077060B006C060B0061060A0057060B0051
:1021B0004C060A0042060A0038060A002E060A00EB
:1021C00024060A001A060A001006090007060A007B
:1021D000FD050900F4050900EB050900E205090009
:1021E000D9050900D0050900C7050900BE05090089
:1021F000B5050800AD050800A50509009C05080007
:10220000940508008C050800840508007C0508007A
:10221000740508006C050700650508005D050700EA
:10222000560508004E050700470507004005080051
:1022300038050700310507002A05070023050700B8
:102240001C050600160507000F0507000805060017
:1022500002050700FB040600F5040700EE04060073
:10226000E8040600E2040700DB040600D5040600CB
:10227000CF040600C9040600C3040600BD0406001E
:10228000B7040600B1040500AC040600A60406006D
:10229000A00405009B0406009504050090040600B8
:1022A0008A04050085040500800406007A04050000
:1022B00075040500700405006B0405006604050044
:1022C000610405005C040500570405005204050084
:1022D0004D04050048040500430405003E040400C5
:1022E0003A04050035040500300404002C04050000
:1022F00027040400230405001E0404001A0404003B
:1023000016040500110404000D040400090405006E
:102310000404040000040400FC030400F8030400A7
:10232000F4030400F0030400EC030400E8030400D9
:10233000E4030400E0030400DC030400D803040009
:10234000D4030400D0030400CC030400C80303003A
:10235000C503030024F404D9201BC40C5C0E9804AC
:10236000C4095F0265077101F405F900FB04B300BD
:1023700048048700C1036900580355000303450062
:10238000BE023A008402310053022A0029022500CD
:1023900004022000E4011C00C8011900AF0117006D
:1023A00098011400840113007101100061011000F4
:1023B00051010E0043010D0036010B002B010B00F3
:1023C00020010B00150109000C01090003010800A0
:1023D000FB000800F3000800EB000700E400060023
:1023E000DE000600D8000600D2000600CC00050082
:1023F000C7000500C2000500BD000400B9000400CC
:10240000B5000400B1000400AD000400A900040000
:10241000A5000300A20003009F0004009B0003002E
:102420009800030095000200930003009000030051
:102430008D0002008B00030088000200860002006D
:1024400084000300810002007F0002007D00020082
:102450007B00020079000200770001007600020094
:102460007400020072000100710002006F0002009F
:102470006D0001006C0002006A00010069000200AA
:1024800067000100660001006500010064000200B1
:102490006200010061000100600001005F000200B5
:1024A0005D0001005C0001005B0001005A000100BA
:1024B00059000100580001005700010056000100BA
:1024C00055000100540001005300000053000100BA
:1024D0005200010051000100500001004F000100B6
:1024E0004E0000004E0001004D0001004C000100B4
:1024F0004B0000004B0001004A00010049000100B0
:1025000048000000480001004700010046000000AC
:1025100046000100450000004500010044000100A4
:10252000430000004300010042000000420001009F
:102530004100000041000100400001003F00000098
:102540003F0001003E0000003E0001003D00000091
:102550003D0001003C0000003C0000003C00010088
:102560003B0000003B0001003A0000003A0001007F
:102570003900000039000100380000003800000078
:10258000380001003700000037000100360000006D
:102590003600000036000100350000003500000064
:1025A0003500010034000000340000003400010058
:1025B000330000003300000033000100320000004F
:1025C0003200000032000100310000003100000044
:1025D0003100010030000000300000003000010038
:1025E0002F0000002F0000002F0000002F0001002E
:1025F0002E0000002E0000002E0001002D00000023
:102600002D0000002D0000002D0001002C00000016
:102610002C0000002C0000002C0001002B0000000A
:102620002B0000002B0000002B0001002A000000FE
:102630002A0000002A0000002A00010029000000F2
:1026400029000000290000002900000029000100E5
:1026500028000000280000002800000028000000DA
:1026600028000100270000002700000027000000CC
:1026700027000000270001002600000026000000BF
:1026800026000000260000002600010025000000B2
:1026900025000000250000002500000025000000A6
:1026A0002500010024000000240000002400000098
:1026B000240000002400010023000000230000008B
:1026C000230000002300000023000000230000007E
:1026D0002300010022000000220000002200000070
:1026E0002200000022000000220001002100000062
:1026F0002100000021000000210000002100000056
:102700002100000021000100200000002000000046
:102710002000000020000000200000002000000039
:1027200020000000200001001F0000001F0000002A
:102730001F0000001F0000001F0000001F0000001D
:102740001F0001001E0000001E0000001E0000000F
:102750001E0000004D383420582059205A204500D2
:102760004572723A204D494E54454D5020424544E1
:10277000004D494E54454D5020747269676765722B
:102780006564004572723A204D494E54454D5020C3
:102790004531004572723A204D494E54454D502006
:1027A0004530004572723A204D415854454D5020F5
:1027B000424544004D415854454D5020747269675C
:1027C0006765726564004572723A204D4158544500
:1027D0004D50204531004572723A204D41585445C4
:1027E0004D50204530004D36303020486F74656EB6
:1027F0006420746F6F20636F6C6420746F20636853
:10280000616E67652066696C616D656E740A004B68
:1028100064200023646566696E6520204445464156
:10282000554C545F004B69200023646566696E65F2
:10283000202044454641554C545F004B70200023F6
:10284000646566696E65202044454641554C545F79
:1028500000504944204175746F74756E6520666937
:102860006E697368656421205075742074686520F2
:102870006C617374204B702C204B6920616E642056
:102880004B6420636F6E7374616E74732066726F35
:102890006D2062656C6F7720696E746F20436F6E78
:1028A00066696775726174696F6E2E680A005049B7
:1028B00044204175746F74756E65206661696C653E
:1028C00064212074696D656F75740A005049442055
:1028D0004175746F74756E65206661696C656421FD
:1028E0002054656D706572617475726520746F6FC8
:1028F00020686967680A00204B643A2000204B6911
:102900003A2000204B703A20000A20436C61737318
:10291000696320504944200A002054753A20002061
:102920004B753A2000206D61783A2000206D696E69
:102930003A200020643A200020626961733A200046
:102940002042002050006F6B00526573656E643A40
:10295000200020496E76616C696420657874727518
:102960006465722000290A002062797465733B2037
:10297000637263200053657474696E6773205374C7
:102980006F72656420280020746F6F206C6F6E6713
:1029900020657874727573696F6E207072657665E4
:1029A0006E7465640A0020636F6C642065787472CD
:1029B0007573696F6E2070726576656E7465640AF2
:1029C00000436172642072656D6F766564004361D7
:1029D000726420696E73657274656400021FFFFF84
:1029E000FFFFFFFF600000000001FF40000000004B
:1029F00000FF8000000000007F83CF00000C303F0C
:102A000087FF80000C301F867980000C000F8C300F
:102A1000C7838C30E78C30CFC7CC31F38C30DCEC03
:102A2000EC33B98C30D86C6C33198C30D06C0C33DF
:102A3000198C30D86C0C33198C30DC6C0E3B198C33
:102A400030CF7C079F198C30C77C038F1940000062
:102A500000000002600000000000061FFFFFFFFFF3
:102A6000FFF82020506C616E6E6572427566666577
:102A70007242797465733A20002046726565204D74
:102A8000656D6F72793A2000436F6D70696C656493
:102A90003A2044656320313220323031370A002039
:102AA0007C20417574686F723A2028416C657068AB
:102AB000204F626A6563747320496E632E2C204C2C
:102AC000756C7A426F7420476974205265706F7319
:102AD00069746F7279290A004465632031322032AB
:102AE00030313731303A31383A353600204C617365
:102AF0007420557064617465643A2000312E312E63
:102B0000350A004D61726C696E0020536F667477F0
:102B10006172652052657365740A002057617463A1
:102B200068646F672052657365740A002042726F93
:102B3000776E206F75742052657365740A002045A6
:102B4000787465726E616C2052657365740A00500A
:102B50006F77657255700A0073746172740A00654C
:102B600072726F722077726974696E6720746F2059
:102B700066696C650A004572726F723A00456E6450
:102B800073746F70732025632025632025632025CF
:102B90006300205A3A0020593A0020583A00656EE6
:102BA0006473746F7073206869743A200065636899
:102BB0006F3A00446F6E6520736176696E672066B8
:102BC000696C652E0A004D32390001050800FF06C8
:102BD0000121023520FFFF07FF06FF0900502216E2
:102BE00056808080800080153353A0A0A0025757E4
:102BF0005050F850F850500257572070A07028706D
:102C00002013355580A040A02002475740A0A04087
:102C1000A0A05025135380808012265640808080CB
:102C200080401226568040404040800245559060CA
:102C3000F060900255552020F82020113353604059
:102C400080044151F011335340E0400246561010C9
:102C50002040808012365640A0A0A0A040123656D8
:102C600040C0404040E00246566090106080F00254
:102C70004656F020601090600246562060A0F0207A
:102C800020024656F080E01090600246566080E0D8
:102C9000909060024656F010202040400246566058
:102CA000906090906002465660909070106012257F
:102CB00055C0C000C0C01136566060006040801230
:102CC0003656204080804020034353F000F01236F7
:102CD0005680402020408012365640A020400040C0
:102CE000015858304898A8A8904030024656609045
:102CF00090F09090024656E090E09090E0024656A8
:102D0000609080809060024656E090909090E00243
:102D10004656F080E08080F0024656F080E08080E9
:102D200080024656609080B090600246569090F0C7
:102D3000909090123656E040404040E00246567077
:102D4000202020A04002465690A0C0A0A09002469D
:102D5000568080808080F002465690F0F0909090EF
:102D600002465690D0F0B0B09002465660909090D7
:102D70009060024656E09090E08080014757609056
:102D800090D0B06010024656E09090E090900246DD
:102D900056609040209060123656E04040404040DF
:102DA0000246569090909090600246569090909077
:102DB0006060024656909090F0F0900246569090D7
:102DC0006060909002565688885020202002465617
:102DD000F010204080F0123656E080808080E002C3
:102DE0004656808040201010123656E020202020C9
:102DF000E016325240A0014151F0162252804002AA
:102E00004454709090700246568080E09090E0129A
:102E100034546080806002465610107090907002AA
:102E2000445460B0C060024656205040E04040012B
:102E3000455560907010600246568080E0909090FA
:102E40001236564000C04040E01137572000202085
:102E500020A040024656808090E09090123656C0E6
:102E600040404040E0025454D0A8A8A8024454E096
:102E700090909002445460909060014555E090E03D
:102E800080800145557090701010024454A0D0808D
:102E90008012345460C020C00246564040E040508A
:102EA0002002445490909070123454A0A0A040028C
:102EB000545488A8A850024454906060900145552D
:102EC0009090709060024454F02040F002475730D8
:102ED0004020C020403022165680808080808002B2
:102EE0004757C02040304020C006425250A0FFFF4C
:102EF000FFFFFFFFFFFFFFFFFFFFFFFFFFFFFFFFE2
:102F0000FFFFFFFFFFFFFFFFFFFFFFFFFFFFFF09C7
:102F10000050221656800080808080014656207026
:102F2000A0A070200246562050E04050A002555507
:102F300088705070880256568850F820F820221762
:102F400057808080008080800247577080E09070BA
:102F500010E0173151A002565670A8C8C8A87014C6
:102F6000355560A06000E003435350A05012335326
:102F7000E02020143151E002565670E8D8E8D870AD
:102F8000173151E015335340A04012355540E04011
:102F900000E014355540A02040E0143555C020C055
:102FA00020C01622524080014555909090E080024A
:102FB000565678E8E868282824115180112252409A
:102FC0008014355540C04040E014355540A04000C5
:102FD000E0034353A050A0024757808080A060F0D8
:102FE000200247578080A0D01020700247578040B1
:102FF0008060A0F02012365640004080A04002477A
:103000005740206090F0909002475720406090F029
:10301000909002475760906090F090900247575010
:10302000A06090F0909002475790006090F09090D0
:1030300002475760906090F0909002465670A0A0B2
:10304000F0A0B001475760908080906040024757E1
:103050004020F080E080F00247572040F080E08080
:10306000F00247576090F080E080F00247579000F0
:10307000F080E080F01237578040E0404040E0129E
:1030800037572040E0404040E012375740A0E04032
:103090004040E0123757A000E0404040E002565662
:1030A0007048E848487002475750A090D0B09090C0
:1030B0000247574020609090906002475720406040
:1030C00090909060024757609060909090600247A7
:1030D0005750A06090909060024757900060909089
:1030E0009060123353A040A002465670B0B0D0D0CA
:1030F000E002475740209090909060024757204050
:1031000090909090600247576090909090906002ED
:103110004757900090909090600257571020885029
:1031200020202002465680E09090E08002465660C3
:1031300090A0A090A002475740200070909070028D
:103140004757204000709090700247572050007001
:1031500090907002475750A00070909070024656B1
:10316000500070909070024757609060709090701F
:10317000025454F068B07811355560808060400288
:10318000475740200060B0C06002475720400060B1
:10319000B0C06002475760900060B0C06002465601
:1031A000500060B0C060123757804000C04040E01F
:1031B000123757204000C04040E012375740A0006F
:1031C000C04040E0123656A000C04040E0024757E1
:1031D000A040A01070906002475750A000E090906F
:1031E000900247574020006090906002475720406F
:1031F000006090906002475760900060909060027D
:10320000475750A000609090600246569000609032
:1032100090601235554000E0004002445470B0D038
:10322000E00247574020009090907002475720409E
:1032300000909090700247576090009090907002BC
:103240004656900090909070014858204000909011
:103250007090600147578080E090E0808001475780
:103260009000909070906001050700FE0500FB0142
:10327000F220FFFE05FE05FE0200400215258080BB
:10328000800080053242A0A002556550F850F850E9
:103290000146562070C030E0200255659010204055
:1032A000480255656080689068051222808002257A
:1032B0003540808080400225358040404080043386
:1032C00043A040A003334340E04001223240800449
:1032D0003141E00211218002556508102040800232
:1032E00045556090909060022535C04040404002B6
:1032F0004555E0106080F0024555E0106010E00296
:1033000045552060A0F020024555F080E010E00215
:1033100045556080E09060024555F0102040400225
:103320004555609060906002455560907010600354
:103330001323800080021424800080800235452001
:1033400040804020033343E000E0023545804020C8
:103350004080024555E0106000400255657088B815
:10336000A870024555609090F090024555E090E0BD
:1033700090E00235456080808060024555E0909085
:1033800090E0023545E080E080E0023545E080E0F5
:1033900080800245557080B090700245559090F045
:1033A0009090023545E0404040E002455530101015
:1033B000906002455590A0C0A09002354580808065
:1033C00080E002556588D8A8888802455590D0B01D
:1033D00090900245556090909060024555E0909025
:1033E000E080014656609090906010024555E09054
:1033F00090E09002455570806010E0023545E04055
:103400004040400245559090909060024555909004
:10341000A0A04002556588A8A8A8500245559090E4
:103420006090900245559090701060023545E02004
:103430004080E0022535C0808080C0025565804014
:10344000201008022535C0404040C005324240A04F
:10345000024151F005223280400244547090907035
:1034600002455580E09090E0023444608080600224
:103470004555107090907002445460B0C0600235A1
:10348000452040E040400046567090907010600229
:10349000455580E090909002152580008080800046
:1034A0002737400040404040800245558090A0E0D2
:1034B000900215258080808080025464F0A8A8A81E
:1034C000024454E090909002445460909060004612
:1034D00056E09090E08080004656709090701010FA
:1034E000023444A0C0808002445470C030E00235F1
:1034F0004540E04040200244549090907002445473
:103500009090A040025464A8A85050023444A040B7
:1035100040A0004656909090701060024454F020F5
:1035200040F0023545604080406002152580808073
:103530008080023545C0402040C005425250A0FF67
:10354000FFFFFFFFFFFFFFFFFFFFFFFFFFFFFFFF8B
:10355000FFFFFFFFFFFFFFFFFFFFFFFFFFFFFFFF7B
:10356000020040FFFFFFFFFFFFFFFFFFFFFFFFFF26
:10357000FFFFFFFFFFFFFFFFFFFFFFFFFFFFFFFF5B
:10358000FFFFFFFFFFFFFFFFFFFFFFFFFFFFFFFF4B
:10359000FFFFFFFFFFFFFFFFFFFFFFFFFFFFFFFF3B
:1035A000FFFFFFFFFFFFFFFFFFFFFFFFFFFFFFFF2B
:1035B000FFFFFFFFFFFFFFFFFFFFFFFFFFFFFFFF1B
:1035C000FFFF01060D00FE09016602D620FFFE0B7B
:1035D000FE0AFE0D00602219698080808080808054
:1035E0000080183363A0A0A00357675050F850F82C
:1035F00050500259692078A0A0702828F020025964
:103600006948A85010204050A89002586840A0A0D7
:1036100040A0989068281363808080113B6B204005
:10362000408080808080404020113B6B8040402063
:103630002020202040408006556520A870A8200446
:1036400055652020F82020113363604080065161C9
:10365000F811336340E04002596908081010204017
:1036600040808002596920508888888888502002CC
:1036700059692060A02020202020F8025969708814
:10368000880810204080F8025969F8081020700856
:10369000088870025969101030505090F8101002CC
:1036A0005969F88080B0C808088870025969708824
:1036B0008080F088888870025969F80810102020EE
:1036C00040404002596970888888708888887002F4
:1036D000596970888888780808887011386840E0CF
:1036E00040000040E04011386840E0400000604089
:1036F000800259690810204080402010080454645A
:10370000F80000F80259698040201008102040801D
:1037100002596970888808102020002002596970B9
:10372000888898A8A8B0807802596920508888882D
:10373000F8888888025969F048484870484848F035
:10374000025969708880808080808870025969F091
:1037500048484848484848F0025969F8808080F055
:10376000808080F8025969F8808080F080808080B5
:1037700002596970888080809888887002596988A9
:10378000888888F888888888123969E040404040F5
:10379000404040E00259693810101010101090603D
:1037A000025969888890A0C0A090888802596980D1
:1037B00080808080808080F80259698888D8A8A895
:1037C0008888888802596988C8C8A8A8989888886D
:1037D000025969708888888888888870025969F0D9
:1037E000888888F080808080015A6A7088888888FC
:1037F0008888A87008025969F0888888F0A09088A5
:103800008802596970888080700808887002596938
:10381000F8202020202020202002596988888888CC
:103820008888888870025969888888885050502014
:103830002002596988888888A8A8A8A850025969D0
:103840008888505020505088880259698888505084
:103850002020202020025969F808101020404080C4
:10386000F8113B6BE0808080808080808080E00267
:103870005969808040402010100808113B6BE020FF
:103880002020202020202020E008536320508801A1
:103890005161F82A22628040025666700878889842
:1038A00068025969808080F088888888F0025666AE
:1038B000708880808870025969080808788888882C
:1038C00088780256667088F8808870025969304896
:1038D0004040F04040404000586870888888780830
:1038E0008870025969808080B0C8888888881238BA
:1038F000684000C040404040E0004A6A100030107C
:1039000010101090906002596980808090A0C0A033
:103910009088123969C040404040404040E0025623
:1039200066D0A8A8A8A888025666B0C888888888E3
:10393000025666708888888870005868F088888881
:10394000F0808080005868788888887808080802A5
:103950005666B0C880808080025666708860108885
:10396000700258684040F040404048300256668837
:103970008888889868025666888888505020025641
:10398000668888A8A8A850025666885020205088CB
:103990000058688888889868088870025666F81009
:1039A000204080F8015B6B1820202020C0202020C0
:1039B0002018221969808080808080808080015B4F
:1039C0006BC0202020201820202020C008536348EE
:1039D000A890FFFFFFFFFFFFFFFFFFFFFFFFFFFFBD
:1039E000FFFFFFFFFFFFFFFFFFFFFFFFFFFFFFFFE7
:1039F000FFFFFF0D006022196980008080808080B9
:103A000080800358682070A8A0A0A870200259697F
:103A100030484040E0404048B003566688705050FF
:103A2000708802596988885050F820F8202022199F
:103A300069808080800080808080124A6A609080E7
:103A4000609090601090601A3262A0A00359697073
:103A500088A8D8C8D8A8887004576770087888786C
:103A600000F80356662850A0A05028045363F808B5
:103A700008163161E00359697088E8D8D8E8D88819
:103A8000700A5161F8174464609090600357672092
:103A900020F8202000F807356540A02040E00735D9
:103AA0006540A04020C02A22624080005868888873
:103AB000888898E8808002596978E8E8E8E868280A
:103AC0002828262161C0202262408007356540C039
:103AD0004040E0045767708888887000F803566695
:103AE000A050282850A0025A6A40C04040E0081860
:103AF000283808025A6A40C04040E01028081038B0
:103B0000025A6A40A04020A0481828380802596983
:103B1000200020204080888870025A6A40200020BF
:103B2000508888F88888025A6A10200020508888B7
:103B3000F88888025A6A30480020508888F88888B7
:103B4000025A6A28500020508888F88888025A6AE9
:103B500050500020508888F88888025A6A205020E7
:103B600020508888F8888802596958A0A0A0B0E041
:103B7000A0A0B8005B6B70888080808080887020F7
:103B800040025A6A402000F88080F08080F8025A93
:103B90006A102000F88080F08080F8025A6A30486D
:103BA00000F88080F08080F8025A6A505000F88057
:103BB00080F08080F8123A6A804000E04040404047
:103BC00040E0123A6A204000E04040404040E012AD
:103BD0004A6A609000E04040404040E0123A6AA0EB
:103BE000A000E04040404040E0025969F0484848A9
:103BF000E8484848F0025A6A2850008888C8A898BF
:103C00008888025A6A4020007088888888887002F4
:103C10005A6A10200070888888888870025A6A3032
:103C2000480070888888888870025A6A2850007016
:103C3000888888888870025A6A50500070888888FE
:103C40008888700355658850205088015B6B087028
:103C50009898A8A8A8C8C87080025A6A402000880E
:103C6000888888888870025A6A1020008888888826
:103C7000888870025A6A30480088888888888870E6
:103C8000025A6A50500088888888888870025A6A68
:103C90001020008888502020202002596980F08858
:103CA0008888F0808080025969609090A0A09088F8
:103CB00088B00259694020007008788898680259D5
:103CC00069102000700878889868025969304800A7
:103CD00070087888986802596928500070087888B8
:103CE0009868025969505000700878889868025A9C
:103CF0006A304830007008788898680256667028E4
:103D000070A0A85000586870888080887020400299
:103D100059694020007088F8808870025969102025
:103D2000007088F88088700259693048007088F8FF
:103D30008088700259695050007088F8808870122D
:103D40003969804000C040404040E012396920405D
:103D500000C040404040E0124969609000C04040CF
:103D60004040E0123969A0A000C040404040E0025D
:103D70005A6A5020601070888888887002596928B3
:103D80005000B0C88888888802596940200070882F
:103D90008888887002596910200070888888887027
:103DA00002596930480070888888887002596928EB
:103DB0005000708888888870025969505000708857
:103DC00088888870035767202000F8002020015859
:103DD00068087098A8A8C8708002596940200088B7
:103DE000888888986802596910200088888888988F
:103DF000680259693048008888888898680259693B
:103E0000505000888888889868005B6B1020008874
:103E100088889868088870005A6A8080B0C8888846
:103E2000C8B08080005B6B50500088888898680814
:103E3000887000000000000000000000000000008A
:103E40000000000000000000000000000000000072
:103E500000000000000C000000000000000C00004A
:103E6000000000000012000000000000002300001D
:103E7000000000000021000000000000004C800055
:103E800000000000005E8000000000000092400082
:103E90000000000000A140000000000001212000FF
:103EA00000000000027F90000000000002001000EF
:103EB0000000000007FFF8000000000004000800F8
:103EC00000000000080004000000000008000600D8
:103ED000000000001000020000000000301E010081
:103EE00000000000207F81000000000041FFE08012
:103EF0000000000043FCF08000000000873B784099
:103F0000000000018EDBFC60000000010FEBCC2004
:103F1000000000021FEDB610000000021FDEB61008
:103F20000000000439CD7F080000000436E0FF08DF
:103F3000000000087EC0BB84000000187F005D8682
:103F4000000000107FC0ED82000000203CC0730123
:103F5000000000203B337F01000000701BE77E0360
:103F6000800000C81DEEDE04C00000880FDEDC0407
:103F7000400001240FDF3C092000012607DBF8196F
:103F80002000027203E7F0139000025101FFE022CB
:103F900090000489007F802448000904801E0048A6
:103FA00024000BFE400000DFF40010004000008001
:103FB00002001FFFFFFFFFFFFE00000000000000E7
:103FC00000000000000000000000000000000000F1
:103FD00000001022103C3C0E1F0010221004221181
:103FE00004001022100822110400102210083C11B5
:103FF000040010221010221104001022102022119F
:1040000004001E1C1E3C3C0E0400000000000000CA
:1040100000000000000000000000000000000000A0
:104020000000000000000000000000000000000090
:104030000000000000000000000000000000000080
:104040000000000000000000000000000000000070
:104050000000000000000000000000000000000060
:104060000000000000000000000000000000000050
:104070000A003B20454550524F4D20496E646578FB
:104080003A20005570646174696E67207A6F6666C5
:1040900073657420696E20454550524F4D3A20009B
:1040A00006000600060006000600060006000600E0
:1040B00006003FC01F800F00060006000F001F8093
:1040C0003FC00600060006000600060006000600C7
:1040D0000600060007F8000C0C001002002001008A
:1040E0006001804000804003E04001C0400080400B
:1040F00000004000006000002000001000000C0CD8
:104100000007F80001FE00030300040080080040DF
:104110001800601000207C002038002010002000D3
:104120000020000020000060000040000080030329
:104130000001FE00FFFFFF7F80FFC0FFC0FFC07FC8
:10414000807F80FFC0FFC0FFC03F001E000C005AF0
:10415000204F6666736574004D6F76652058004D7C
:104160006F76652059004D6F7665205A004578744A
:1041700072756465720048617264636F646564207F
:1041800044656661756C742053657474696E6773F9
:10419000204C6F616465640A002823000028230016
:1041A0000064000000E80300000000964300009651
:1041B0004300000041000020420000C9420000C945
:1041C000420000C8440000D243202863616C63753C
:1041D0006C6174656429210A0020213D2000454559
:1041E00050524F4D20435243206D69736D6174638B
:1041F00068202D202873746F726564292000290AB5
:10420000002062797465733B206372632000207321
:10421000746F7265642073657474696E677320725D
:104220006574726965766564202800204D61726C42
:10423000696E3D563430290A0028454550524F4D8D
:104240003D00454550524F4D2076657273696F6E43
:10425000206D69736D617463682000526573746FBB
:104260007265206661696C73616665004D35303238
:104270000A4D353030004C6F616420736574746989
:104280006E67730053746F72652073657474696E22
:10429000677300416476616E63656420536574746E
:1042A000696E6773004D61696E0025753A2530327D
:1042B0007500253032753A25303275002575642039
:1042C000253032753A253032750000060900FE00AF
:1042D0000000000001090008FE00000508080600B3
:1042E0000040F0C88888987810050808060000C0CB
:1042F000F88888888888F80505050600012030F8C8
:1043000030200508080600002070F820202020E05A
:104310000509090600FF2070A8A8B8888870200544
:1043200009090600FFE080C0B0A828302828050948
:10433000090600FFF8A88888888888A8F8050A0A6E
:104340000600FE205050505088A8A8887003030330
:1043500006000340A04000060900FE070192032169
:1043600020FFFF08FF07FF0000000600000107070D
:104370000602008080808080008003020206010522
:10438000A0A00507070600005050F850F85050054F
:1043900007070600002078A07028F0200507070610
:1043A0000000C0C8102040981805070706000060EC
:1043B00090A040A89068020303060104C040800357
:1043C0000707060100204080808040200307070681
:1043D00001008040202020408005050506000120C6
:1043E000A870A8200505050600012020F82020025D
:1043F00003030602FFC04080050101060003F80226
:104400000202060200C0C0050505060001081020D2
:104410004080050707060000708888888888700338
:10442000070706010040C040404040E0050707067E
:104430000000708808708080F8050707060000F803
:104440001020100808F005070706000010305090F3
:10445000F81010050707060000F880F008088870BB
:10446000050707060000708080F088887005070740
:10447000060000F80810202020200507070600008D
:104480007088887088887005070706000070888823
:1044900078080870020505060200C0C000C0C0020E
:1044A00006060602FFC0C000C040800407070600E1
:1044B0000010204080402010050303060002F80091
:1044C000F8040707060100804020102040800507FF
:1044D0000706000070880810200020050707060066
:1044E0000070880868A8A870050707060000708893
:1044F00088F8888888050707060000F08888F08813
:1045000088F00507070600007088808080887005A5
:104510000707060000F08888888888F005070706E6
:104520000000F88080F08080F8050707060000F89A
:104530008080F0808080050707060000708880B8C2
:10454000888870050707060000888888F8888888AA
:1045500001070706020080808080808080050707B1
:1045600006000038101010109060050707060000C4
:104570008890A0C0A0908805070706000080808072
:10458000808080F805070706000088D8A8888888FA
:10459000880507070600008888C8A8988888050746
:1045A000070600007088888888887005070706005D
:1045B00000F08888F080808005070706000070887A
:1045C0008888A89068050707060000F08888F0A092
:1045D0009088050707060000788080700808F005BD
:1045E0000707060000F820202020202005070706E6
:1045F000000088888888888870050707060000887A
:1046000088888888502005070706000088888888E1
:1046100088A8500507070600008888502050888821
:104620000507070600008888885020202005070716
:10463000060000F80810204080F803070706010074
:10464000E08080808080E005050506000180402034
:104650001008030707060100E02020202020E005C5
:104660000303060004205088050101060000F8023B
:104670000202060205804005050506000070087864
:1046800088780507070600008080B0C88888F00594
:104690000505060000708080887005070706000089
:1046A000080868988888780505050600007088F86D
:1046B00080700507070600003048E0404040400594
:1046C00006060600FF708888780870050707060050
:1046D000008080B0C8888888010707060200800033
:1046E00080808080800308080601FF2000202020B1
:1046F00020A040040707060000808090A0C0A09082
:10470000030707060100C04040404040E0050505A2
:10471000060000D0A8A8A8A8050505060000B0C896
:104720008888880505050600007088888870050659
:10473000060600FFF08888F080800506060600FF68
:10474000788888780808050505060000B0C88080CC
:104750008005050506000070807008F00407070654
:1047600000004040E040404030050505060000885C
:104770008888986805050506000088888850200507
:1047800005050600008888A8A85005050506000054
:1047900088502050880506060600FF88888878081B
:1047A00070050505060000F8102040F8030707060D
:1047B00001002040408040402001070706020080A1
:1047C00080808080808003070706010080404020B1
:1047D00040408005020206000268900000000600CA
:1047E00000000000060000000000060000000000BD
:1047F00006000000000006000000000006000000A7
:104800000000060000000000060000000000060096
:10481000000000000600000000000600000000008C
:104820000600000000000600000000000600000076
:104830000000060000000000060000000000060066
:10484000000000000600000000000600000000005C
:104850000600000000000600000000000600000046
:104860000000060000000000060000000000060036
:10487000000000000600000000000600000000002C
:104880000600000000000600000000000600000016
:104890000000060000000000060000000000060006
:1048A00000000000060000010707060200800080EB
:1048B000808080800507070600002070A8A0A870EF
:1048C00020050707060000304040E04050A80505DD
:1048D00005060000887050708805070706000088EC
:1048E0005020F820F8200107070602008080800091
:1048F0008080800508080600003048205050209035
:1049000060030101060107A0050707060000F888FB
:10491000B8B8B888F80507070600017008788878E5
:1049200000F80505050600012850A05028050303DE
:10493000060001F808080202020602064080050788
:1049400007060000F888A88898A8F8050101060065
:1049500006F804040406000360909060050707064B
:1049600000002020F8202000F80405050600036060
:10497000902040F0030505060003E020E020E0025F
:10498000020206020640800508080600FF888888A3
:104990008898E880800507070600007898987818BE
:1049A0001818020202060202C0C00202020602FF3A
:1049B000408003050506000340C04040E0050707AE
:1049C000060001708888887000F80505050600015A
:1049D000A0502850A00507070600008890A858B8E6
:1049E00008080507070600008890B8489820380591
:1049F0000808060000C040C048D838080805070766
:104A0000060000200020408088700508080600008D
:104A10004020007088F888880508080600001020EB
:104A2000007088F88888050808060000205000708B
:104A300088F888880508080600006890007088F8E3
:104A400088880508080600005000708888F8888863
:104A50000508080600002050207088F8888805079F
:104A6000070600003860A0B8E0A0B80508080600F6
:104A7000FF7088808088702060050808060000406C
:104A80002000F880F080F8050808060000081000F3
:104A9000F880F080F8050808060000205000F88033
:104AA000F080F80507070600005000F880F080F855
:104AB000030808060100804000E0404040E0030891
:104AC00008060100204000E0404040E003080806DE
:104AD000010040A000E0404040E00307070601005D
:104AE000A000E0404040E00507070600007048488D
:104AF000E848487005080806000068900088C8A8C3
:104B0000988805080806000040207088888888700A
:104B1000050808060000102070888888887005083D
:104B20000806000020500070888888700508080674
:104B300000006890007088888870050808060000EA
:104B40005000708888888870050505060001885027
:104B50002050880508080600FF1070A8A8A8A870B3
:104B6000400508080600004020888888888870056D
:104B700008080600001020888888888870050808C2
:104B80000600002050008888888870050808060004
:104B90000050008888888888700508080600001082
:104BA000208850202020200509090600FFC0407001
:104BB0004848704040E00408080601FF609090A05B
:104BC0009090E080050808060000402000700878FA
:104BD000887805080806000010200070087888789A
:104BE000050808060000205000700878887805083D
:104BF00008060000689000700878887805070706A6
:104C00000000500070087888780508080600002029
:104C100050207008788878050606060000D02878AD
:104C2000A0A8500506060600FF7080887020600569
:104C300008080600004020007088F8807005080809
:104C40000600001020007088F88070050808060033
:104C5000002050007088F88070050707060000509B
:104C6000007088F88070030808060100804000404A
:104C7000C04040E003080806010020400040C0405A
:104C800040E003080806010040A00040C04040E0AA
:104C9000030707060100A00040C04040E0050707E9
:104CA000060000A040A010788870050808060000E3
:104CB000689000B0C8888888050808060000402071
:104CC00000708888887005080806000010200070B1
:104CD00088888870050808060000205000708888C1
:104CE0008870050808060000689000708888887041
:104CF00005070706000050007088888870050505C4
:104D00000600012000F800200507070600FF1070CC
:104D1000A8A8A87040050808060000402000888860
:104D20008898680508080600001020008888889880
:104D300068050808060000205000888888986805E3
:104D4000070706000050008888889868050909064A
:104D500000FF102000888888F80870040707060103
:104D6000FFC04060506040E00508080600FF5000AA
:104D70008888887808705A00590058000920000077
:104D800000000000000000000000007FFFE00000C5
:104D9000000000000000000000007000E0000000C3
:104DA00000000000000000000061F860000000004A
:104DB000000000000000000041F82000000000009A
:104DC0000000000000000040F02000000000000093
:104DD0000000000000004060200000000000000013
:104DE00000000000005801A07F80000000000000CB
:104DF000004104005C63A0FFC00000000000000050
:104E00002082005EF7A0FFC000000000000000202C
:104E100082005EF7A0FFC000000000000000410417
:104E2000005C63A07F80000000000000008208009A
:104E30005801A07F80000000000000010410004025
:104E40006020FFC00000000000000104100040F0DE
:104E500020FFC00000000000000082080041F82090
:104E6000FFC00000000000000041040061F8603F46
:104E700000000000000000000000007000E01E00C4
:104E800000000000000001FFFF807FFFE00C000039
:104E9000000000000001FFFF800000000000000093
:104EA00000000000000000007FFFE00000000000A4
:104EB000000000000000007000E0000000000000A2
:104EC000000000000000630C600000000000000013
:104ED0000000000000470E2000000000000000005D
:104EE000000000004F0F2000000000000000000044
:104EF0000000005F0FA000000000000000000000A4
:104F000000005E07A07F8000000000000000410458
:104F100000406020FFC00000000000000020820070
:104F200040F020FFC0000000000000002082004090
:104F3000F020FFC0000000000000004104004060BD
:104F4000207F80000000000000008208005E07A0B3
:104F50007F80000000000000010410005F0FA0FF30
:104F6000C0000000000000010410004F0F20FFC02F
:104F700000000000000000820800470E20FFC00073
:104F8000000000000000410400630C603F000000CE
:104F900000000000000000007000E01E00000000A3
:104FA00000000001FFFF807FFFE00C000000000018
:104FB000000001FFFF80000000004D3234005072FD
:104FC000696E7420706175736564004D313235000F
:104FD0004D6F766520617869730044697361626C16
:104FE00065207374657070657273004D38340042CB
:104FF0006564204C6576656C696E670047323820C1
:1050000058590A4D31303920533137350A47323833
:10501000205A0A4D31303920523134350A47313265
:105020000A4732390A4D313034205330004175740B
:105030006F20686F6D6500473238004D61696E0002
:105040004D3630302042300041637469766520452A
:10505000787472756465723A20004D3234004D32B6
:1050600033202573006175746F25692E67004361D5
:105070006E6E6F7420656E746572207375626469FC
:10508000723A2000022E2E004D61696E00202F0022
:105090002042403A0020403A004E6F204C696E6535
:1050A000204E756D6265722077697468206368654B
:1050B000636B73756D2C204C617374204C696E6545
:1050C0003A200053544F505045442E2000507269EE
:1050D0006E7465722073746F70706564206475659A
:1050E00020746F206572726F72732E20466978206B
:1050F000746865206572726F7220616E64207573CA
:1051000065204D39393920746F207265737461726E
:10511000742E202854656D706572617475726520F7
:1051200069732072657365742E20536574206974E9
:105130002061667465722072657374617274696E41
:1051400067290A004E6F20436865636B73756D2095
:1051500077697468206C696E65206E756D62657222
:105160002C204C617374204C696E653A2000636892
:1051700065636B73756D206D69736D617463682C05
:10518000204C617374204C696E653A20004C696E46
:1051900065204E756D626572206973206E6F742094
:1051A0004C617374204C696E65204E756D6265723A
:1051B0002B312C204C617374204C696E653A2000B1
:1051C0004D313130004D3331004D383420582059A5
:1051D000205A204500534420726561642065727234
:1051E0006F720A00446F6E65207072696E74696E2A
:1051F000672066696C650A004B494C4C45442E207B
:10520000004B494C4C2063617573656420627920C2
:105210004B494C4C20627574746F6E2F70696E0A26
:10522000004B494C4C45442E20004B494C4C2063CC
:10523000617573656420627920746F6F206D75638A
:105240006820696E6163746976652074696D652094
:105250002D2063757272656E7420636F6D6D616E63
:10526000643A20000A0A426564204C6576656C2029
:10527000436F7272656374696F6E204D61747269F9
:10528000783A00202B000A436F727265637465647C
:1052900020426564204865696768742076732E2013
:1052A00042656420546F706F6C6F67793A0A002012
:1052B0002B000A4265642048656967687420546F52
:1052C000706F6772617068793A0A2020202B2D2D4B
:1052D0002D204241434B202D2D2B0A2020207C20C5
:1052E000202020202020202020207C0A204C207CF0
:1052F00020202020282B29202020207C20520A201A
:1053000045207C20202020202020202020207C20C0
:10531000490A2046207C20282D29204E20282B2990
:10532000207C20470A2054207C2020202020202080
:10533000202020207C20480A2020207C20202020A3
:10534000282D29202020207C20540A2020207C2069
:10535000202020202020202020207C0A2020204FD8
:105360002D2D2046524F4E54202D2D2B0A20283013
:105370002C30290A004D65616E206F662073616DC7
:10538000706C656420706F696E74733A20002064DD
:105390003A200020623A200045716E20636F6566F6
:1053A00066696369656E74733A20613A20005275CC
:1053B0006E6E696E6720696E204452592D52554EAB
:1053C000206D6F64650A00473239204175746F2083
:1053D000426564204C6576656C696E670A002842F8
:1053E0002961636B00284629726F6E740028522968
:1053F0006967687400284C29656674003F4E756DB6
:10540000626572206F662070726F626520706F69CE
:105410006E747320697320696D706C617573696255
:105420006C65202832206D696E696D756D292E0AB4
:10543000003F2856296572626F7365206C6576653A
:105440006C20697320696D706C61757369626C653D
:105450002028302D34292E0A005761726E696E673C
:105460003A20486F6D696E672042756D70204469FF
:105470007669736F72203C20310A0002020400003A
:10548000A0400000A040000000405A204F66667314
:10549000657400466C6F7700466C6F770046616EEE
:1054A0002073706565640046616E20737065656485
:1054B0000042656400426564004E6F7A7A6C650054
:1054C0004E6F7A7A6C650053706565640053706541
:1054D0006564004D61696E00416D61782045004151
:1054E0006D6178204500416D6178205A00416D6101
:1054F00078205A00416D6178205900416D61782013
:105500005900416D6178205800416D617820580044
:10551000412D74726176656C00412D7472617665FF
:105520006C00412D7265747261637400412D726567
:10553000747261637400416363656C004163636509
:105540006C004D6F74696F6E00436F6F6C646F77A2
:105550006E0046616E2073706565640046616E2062
:1055600073706565640042656400426564004E6F57
:105570007A7A6C65004E6F7A7A6C65004D61696E5F
:10558000004E414E494E495459494E46CDCCCC3D32
:105590000AD7233C17B7D13877CC2B329595E62420
:1055A0001FB14F0A000020410000C84200401C46C5
:1055B00020BCBE4CCA1B0E5AAEC59D74D60008B6A0
:1055C00011241FBECFEFD1E2DEBFCDBF00E00CBF84
:1055D00014E0A0E0B2E0E0E5FCE302E00BBF02C0B3
:1055E00007900D92AA32B107D9F725E1AAE2B4E0FB
:1055F00001C01D92A030B207E1F715E5CEEBD5E56D
:1056000000E006C022970109FE010BBF0F94A81D00
:10561000CC3BD10780E00807A9F70E942AD30D945C
:10562000171E0C9400002F923F924F925F926F9240
:105630007F928F929F92AF92BF92CF92DF92EF9222
:10564000FF920F931F93CF93DF93CDB7DEB7C95867
:10565000D1090FB6F894DEBF0FBECDBF00917E0F0B
:1056600020E6029F800111240250124F8091AA0669
:1056700080FF1AC0EDEAFBE284917F013FEFE31A5D
:10568000F30A811102C0780104C00E94A649F70103
:10569000F3CFD7018D917D01882319F00E94A6498F
:1056A000F8CF8AE00E94A6491092700610926F0609
:1056B0008FE38093A9061092A8061092A706109275
:1056C0004404109245041092460410924704F801D5
:1056D00080810F5F1F4F8032D1F38E34B1F481810E
:1056E00090ED980F9A3020F08D3211F08B3269F4E2
:1056F0003296DF0131962C9120532A30D0F3CD0120
:10570000FC01019620812032D9F3F093A106E093A9
:10571000A0067F01BFEFEB1AFB0A10816AE270E07E
:10572000C7010F94E81D009739F0DC0111978C91A7
:105730008032E1F311961C921D3429F0143519F0D2
:10574000173409F0CAC0F7014E2F9F2F8191803284
:10575000D9F380538A3008F0C0C01093A906209175
:10576000A7063091A806E42FF92F6AE0AF014F5F3A
:105770005F4F629FC001639F900D1124208130E034
:1057800020533109820F931F218120532A3030F09A
:105790009093A8068093A7069A0103C09C01FA0182
:1057A000E5CFD9012F5F3F4F4C914032D1F31D34EB
:1057B000D1F48E31910591F03CF48731910571F06F
:1057C0008C31910581F40AC08537910564F08737E3
:1057D000910524F0803AE3E09E0729F4B093700627
:1057E000A0936F067AC01092700610926F06D09048
:1057F000A00641E050E0FD0131962C91222309F4EE
:105800006CC02132A1F41D3491F48032910579F4F9
:10581000F0937006E0936F0663E270E0CF010F949F
:10582000E81D009709F459C0DC011C9256C00FEB2B
:10583000020F0A31A0F59F01F90160812F5F3F4FF0
:105840006032D1F320ED260F2A3040F023ED260FF1
:10585000223020F06B3211F00C9413429F01602F24
:1058600070E0DB01B595A795B595A795B595A7957A
:10587000AC5BBB4F07707A01002E01C0EE0C0A949E
:10588000EAF7FC90FE28FC922115310511F02D1944
:1058900001C020E0DB01A65DBB4F2C930AC0209124
:1058A0006F0630917006232B21F4B0937006A093FD
:1058B0006F06208121542A3110F4DF019CCFDF01D3
:1058C00031966C9160536A30D0F39D01F9012F5FDE
:1058D0003F4F60816032D1F3F0CF8091A9068D34C3
:1058E00011F40C947C35843511F40C94F441873414
:1058F00011F00C94F9418091A7069091A8068A3185
:10590000910509F478C7A4F48430910544F48230F9
:1059100091050CF01EC197FF2AC00C9410428430F0
:10592000910509F4E1C60C9709F423C70C941042C1
:105930008E31910509F4FCC73CF48C31910509F4D2
:10594000E3C70CF45FC7E5C78B35910511F40C94E0
:1059500041358C35910511F40C9446358A35910505
:1059600011F00C9410421092A6060C9410428091F3
:105970006B02882311F40C9410420E94D34D89E4E9
:1059800094E00E94394B0E94C9508091AA0683FD81
:105990008FC0C0905504D0905604E0905704F0900A
:1059A00058042091D80D3091D90D4091DA0D5091C5
:1059B000DB0DC701B6010F947A16882309F478C06D
:1059C00080914804811138C060910A0270910B02E5
:1059D000882777FD8095982F0F9480169B01AC0146
:1059E00060916606709167068091680690916906DD
:1059F0000F947A1687FF20C0C092D80DD092D90D8F
:105A0000E092DA0DF092DB0DEDEAFBE284918F017A
:105A10000F5F1F4F882321F00E94A649F801F6CF9F
:105A2000EDEFF1E084918F010F5F1F4F882321F08C
:105A30000E94A649F801F6CFC0905504D0905604B4
:105A4000E0905704F09058042091D80D3091D90D72
:105A50004091DA0D5091DB0DC701B6010F94AC1ADD
:105A600020E030E048E453E40F94D31C181604F50A
:105A7000C092D80DD092D90DE092DA0DF092DB0DE4
:105A8000EDEAFBE284918F010F5F1F4F882321F025
:105A90000E94A649F801F6CFEEEDF1E084918F0166
:105AA0000F5F1F4F882321F00E94A649F801F6CF0F
:105AB0002091490430914A0440914B0450914C0488
:105AC0006091CC0D7091CD0D8091CE0D9091CF0D48
:105AD0000F947A1681111DC020914D0430914E040F
