:100000000C94FA2A0C94E2F00C94B7F00C948CF057
:100010000C9461F00C9436F00C940BF00C94E0EF1F
:100020000C94B5EF0C942B2B0C942B2B0C942B2BAA
:100030000C942B2B0D944E0D0C942B2B0C942B2BE2
:100040000C942B2B0C9451E40C942B2B0C942B2BF9
:100050000C942B2B0C942B2B0C9473B70C946FF2E9
:100060000C942B2B0D94C5150D9462160C942B2B10
:100070000C942B2B0C942B2B0C942B2B0C942B2BA8
:100080000C942B2B0C942B2B0C942B2B0C942B2B98
:100090000C942B2B0C942B2B0C942B2B0C942B2B88
:1000A0000C942B2B0C942B2B0C942B2B0C942B2B78
:1000B0000C942B2B0C942B2B0C942B2B0C942B2B68
:1000C0000C942B2B0C942B2B0C942B2B0C942B2B58
:1000D0000C942B2B0C942B2B0C942B2B0C942B2B48
:1000E0000C942B2B9BD89BD8A2D8A2D8A2D8A9D845
:1000F000A9D8A9D8B6D8B0D8B0D8B0D844ED47ED73
:1001000036ED3AED40ED7EED4BED4FED55ED59ED11
:100110005DED63ED67ED6BED7EED71ED75ED79ED08
:100120008BF190F195F19FF1A9F122F2B3F1BBF1BE
:10013000C3F1CDF1D7F1E1F1F0F1FAF122F204F2DD
:100140000EF218F2DE00E600E200DC00D600E0006D
:10015000E400E000D400DA00E000EC00084AD73BFD
:100160003BCE016E84BCBFFDC12F3D6C74319ABD86
:1001700056833DDA3D00C77F11BED9E4BB4C3E91AA
:100180006BAAAABE000000803F05A84CCDB2D44E99
:10019000B93836A9020C50B9918688083CA6AAAA9B
:1001A0002ABE000000803F000D942D160D942516E8
:1001B0000D946D0B0D9431160D941D160D94FB15B9
:1001C0000D943A160D9412160D9429160D940116DD
:1001D0000D943E110D94480C0D9437164E414E4926
:1001E0004E495459494E46CDCCCC3D0AD7233C17F5
:1001F000B7D13877CC2B329595E6241FB14F0A0042
:100200000020410000C84200401C4620BCBE4CCA31
:100210001B0E5AAEC59D74434F4D4D554E4943413B
:1002200054494F4E0044525952554E004552524F78
:10023000525300494E464F004543484F0020746FCB
:100240006F206C6F6E6720657874727573696F6E5E
:100250002070726576656E7465640A0020636F6C49
:100260006420657874727573696F6E20707265763C
:10027000656E7465640A0047322F473320626164FB
:1002800020706172616D65746572730A00536C65EC
:1002900065702E2E2E00205A3A200020593A200058
:1002A00042656420583A20004C756C7A426F742085
:1002B00054415A20362072656164792E005265736C
:1002C000756D696E67207072696E7400436C696346
:1002D0006B20746F20726573756D652E2E2E004E27
:1002E0006F206D6F76652E00456E642066696C65C3
:1002F000206C6973740A00426567696E2066696CD8
:1003000065206C6973740A004D3132350053442006
:100310007072696E74696E67206279746520004E30
:100320006F74205344207072696E74696E670A009E
:100330002569730025696D2025697300256968208A
:1003400025696D2025697300256964202569682069
:1003500025696D2025697300256979202569642048
:100360002569682025696D20256973005072696EC2
:10037000742074696D653A2000000125301D0C1849
:1003800024311C0B17232F1B0A1E16040308060218
:1003900002222B1A4142033809FF362829452744F7
:1003A0004350726F7465637465642050696E0A000F
:1003B0004578747275646572202573004C756C7A8B
:1003C000426F742054415A20362072656164792E40
:1003D00000380233022C02250217026F66660044C1
:1003E000454255473A0042656420646F6E652E00B1
:1003F00020573A004265642068656174696E672E13
:100400000042656420636F6F6C696E672E004C75E7
:100410006C7A426F742054415A2036204F66662E03
:10042000004361703A454D455247454E43595F5030
:1004300041525345523A310A004361703A434153A5
:10044000455F4C494748545F4252494748544E45DE
:1004500053533A300A004361703A544F47474C4572
:100460005F4C49474854533A300A004361703A534D
:100470004F4654574152455F504F5745523A300A04
:10048000004361703A4C4556454C494E475F4441E4
:1004900054413A310A004361703A5A5F50524F4218
:1004A000453A310A004361703A4155544F4C455624
:1004B000454C3A310A004361703A5052494E545FFC
:1004C0004A4F423A310A004361703A50524F475204
:1004D0004553533A300A004361703A4155544F52E4
:1004E00045504F52545F54454D503A310A004361D4
:1004F000703A454550524F4D3A310A004649524DE7
:10050000574152455F4E414D453A4D61726C696E9F
:1005100020204649524D574152455F564552534956
:100520004F4E3A312E312E352E3730204558545209
:10053000554445525F545950453A466C6578797335
:1005400074727564657220534F555243455F434F33
:1005500044455F55524C3A68747470733A2F2F6358
:100560006F64652E616C6570686F626A6563747331
:100570002E636F6D2F646966667573696F6E2F4D9C
:1005800041524C494E2050524F544F434F4C5F56AE
:10059000455253494F4E3A312E30204D4143484940
:1005A0004E455F545950453A4C756C7A426F7420F1
:1005B00054415A20362045585452554445525F43C1
:1005C0004F554E543A3120555549443A38343566E2
:1005D000303033632D616562642D346535332D61B0
:1005E0003662392D376430393834666465363039CF
:1005F0000A002F2F20007A5F70726F62653A200028
:100600007A5F6D61783A20007A5F6D696E3A2000FA
:10061000795F6D61783A2000795F6D696E3A2000EC
:10062000785F6D61783A2000785F6D696E3A2000DE
:100630005265706F7274696E6720656E6473746F53
:1006400070207374617475730A004D313435205312
:100650003C696E6465783E206F7574206F66207209
:10066000616E67652028302D31290A004F66667358
:10067000657473206170706C696564004572723ACC
:1006800020546F6F206661722100546F6F20666185
:10069000722066726F6D207265666572656E636545
:1006A00020706F696E740A003A20007A5F6D696E7F
:1006B0003A20202D32207A5F6D61783A2020350073
:1006C0005A204F666673657420004E6F2063617315
:1006D00065206C696768740A0041637469766520F7
:1006E00045787472756465723A2000556E6B6E6F52
:1006F000776E20636F6D6D616E643A2022004D6FDE
:1007000076652059004D6F7665205A0045787472E1
:1007100075646572004D6F766520302E316D6D0009
:100720004D6F766520316D6D004D6F7665203130EF
:100730006D6D004D6F766520617869730045787442
:100740007275646572004D6F7665205A004D6F7644
:10075000652059004D6F7665205800457874727594
:10076000646572004D6F7665205A004D6F76652086
:1007700059004D6F76652058004D6F76656D656E3A
:100780007400436F6F6C646F776E0046616E207308
:100790007065656420310046616E20737065656424
:1007A00020310042656400426564004E6F7A7A6CC5
:1007B00065004E6F7A7A6C65004D61696E00565423
:1007C000726176206D696E005654726176206D6993
:1007D0006E005654726176206D696E00566D696EBA
:1007E00000566D696E00566D696E00566D61782019
:1007F0004500566D6178204500566D6178204500B2
:10080000566D6178205A00566D6178205A00566DF9
:100810006178205A00566D6178205900566D6178D4
:10082000205900566D6178205900566D6178205826
:1008300000566D6178205800566D61782058004D43
:100840006F74696F6E00416D6178204500416D6184
:1008500078204500416D6178205A00416D61782013
:100860005A00416D6178205900416D61782059002E
:10087000416D6178205800416D6178205800412D0C
:1008800074726176656C00412D74726176656C00DE
:10089000412D7265747261637400412D72657472CA
:1008A00061637400416363656C00416363656C0060
:1008B0004D6F74696F6E00205A3A0020593A00203B
:1008C000436F756E7420583A0020453A00205A3A1A
:1008D0000020593A00583A0053657474696E6720D5
:1008E00054726176656C20416363656C65726174F6
:1008F000696F6E3A200053657474696E67205265A3
:10090000747261637420416363656C6572617469BC
:100910006F6E3A200053657474696E672050726977
:100920006E7420416363656C65726174696F6E3AC1
:10093000200053657474696E67205072696E74206C
:10094000616E642054726176656C20416363656CEE
:1009500065726174696F6E3A2000205A0020590058
:10096000580020204D61783A2000205A002059007C
:10097000580020204D696E3A20004F6E20004F66CF
:100980006600536F667420656E6473746F70733A9B
:10099000200020643A0020693A0020703A00206468
:1009A0003A0020693A0020703A0043290A00616247
:1009B0006C656420286D696E2074656D702000433D
:1009C0006F6C6420657874727564657320617265FC
:1009D00020004B64200023646566696E6520204416
:1009E000454641554C545F004B69200023646566C1
:1009F000696E65202044454641554C545F004B705C
:100A0000200023646566696E652020444546415593
:100A10004C545F00504944204175746F74756E6585
:100A20002066696E6973686564212050757420744E
:100A30006865206C617374204B702C204B692061B9
:100A40006E64204B6420636F6E7374616E747320E8
:100A500066726F6D2062656C6F7720696E746F20AF
:100A6000436F6E66696775726174696F6E2E680A8E
:100A700000504944204175746F74756E652066613D
:100A8000696C6564212074696D656F75740A005026
:100A90004944204175746F74756E65206661696C98
:100AA0006564212054656D7065726174757265208E
:100AB000746F6F20686967680A00204B643A2000F1
:100AC000204B693A2000204B703A20000A20436CEA
:100AD000617373696320504944200A002054753AB9
:100AE0002000204B753A2000206D61783A200020CC
:100AF0006D696E3A200020643A20002062696173BB
:100B00003A2000426564204C6576656C696E67200A
:100B1000004661696C656420746F20656E61626C6B
:100B20006520426564204C6576656C696E670A00D5
:100B3000426564204C6576656C20436F7272656314
:100B400074696F6E204D61747269783A0025753A48
:100B50002530327500253032753A25303275002542
:100B6000756420253032753A25303275000006094B
:100B700000FE000000000001090008FE000005085A
:100B80000806000040F0C888889878100508080614
:100B90000000C0F88888888888F8050505060001E7
:100BA0002030F830200508080600002070F82020CA
:100BB0002020E00509090600FF2070A8A8B8888851
:100BC00070200509090600FFE080C0B0A828302881
:100BD000280509090600FFF8A88888888888A8F8E9
:100BE000050A0A0600FE205050505088A8A88870B8
:100BF00003030306000340A04000060900FE0701AE
:100C000092032120FFFF08FF07FF000000060000FD
:100C100001070706020080808080800080030202B6
:100C2000060105A0A00507070600005050F850F87F
:100C300050500507070600002078A07028F0200516
:100C40000707060000C0C8102040981805070706CF
:100C500000006090A040A89068020303060104C051
:100C60004080030707060100204080808040200369
:100C7000070706010080402020204080050505066A
:100C8000000120A870A8200505050600012020F815
:100C900020200203030602FFC04080050101060078
:100CA00003F8020202060200C0C0050505060001A5
:100CB0000810204080050707060000708888888893
:100CC000887003070706010040C040404040E0052F
:100CD0000707060000708808708080F8050707067F
:100CE0000000F81020100808F005070706000010A3
:100CF000305090F81010050707060000F880F00843
:100D0000088870050707060000708080F0888870EA
:100D1000050707060000F808102020202005070717
:100D20000600007088887088887005070706000034
:100D300070888878080870020505060200C0C000A7
:100D4000C0C00206060602FFC0C000C04080040703
:100D50000706000010204080402010050303060015
:100D600002F800F804070706010080402010204028
:100D7000800507070600007088081020002005077E
:100D80000706000070880868A8A870050707060015
:100D900000708888F8888888050707060000F088B2
:100DA00088F08888F005070706000070888080803A
:100DB0008870050707060000F08888888888F00595
:100DC0000707060000F88080F08080F80507070616
:100DD0000000F88080F08080800507070600007022
:100DE0008880B8888870050707060000888888F81A
:100DF00088888801070706020080808080808080C4
:100E0000050707060000381010101090600507074E
:100E10000600008890A0C0A0908805070706000083
:100E2000808080808080F805070706000088D8A8A9
:100E3000888888880507070600008888C8A89888D9
:100E4000880507070600007088888888887005076D
:100E500007060000F08888F08080800507070600FC
:100E60000070888888A89068050707060000F08849
:100E700088F0A09088050707060000788080700839
:100E800008F0050707060000F82020202020200594
:100E90000707060000888888888888700507070685
:100EA0000000888888888850200507070600008889
:100EB00088888888A8500507070600008888502081
:100EC0005088880507070600008888885020202061
:100ED000050707060000F80810204080F803070700
:100EE000060100E08080808080E0050505060001A5
:100EF0008040201008030707060100E02020202082
:100F000020E00503030600042050880501010600C7
:100F100000F80202020602058040050505060000F1
:100F200070087888780507070600008080B0C888B8
:100F300088F00505050600007080808870050707A9
:100F400006000008086898888878050505060000EE
:100F50007088F880700507070600003048E04040C0
:100F600040400506060600FF70888878087005076F
:100F7000070600008080B0C888888801070706023D
:100F800000800080808080800308080601FF200028
:100F900020202020A040040707060000808090A0A9
:100FA000C0A090030707060100C04040404040E059
:100FB000050505060000D0A8A8A8A8050505060097
:100FC00000B0C888888805050506000070888888F4
:100FD000700506060600FFF08888F080800506068A
:100FE0000600FF788888780808050505060000B027
:100FF000C880808005050506000070807008F00438
:1010000007070600004040E0404040300505050667
:10101000000088888898680505050600008888888B
:1010200050200505050600008888A8A8500505057C
:1010300006000088502050880506060600FF8888B4
:1010400088780870050505060000F8102040F803B0
:1010500007070601002040408040402001070706A6
:101060000200808080808080800307070601008066
:1010700040402040408005020206000268900000C7
:10108000000600000000000600000000000600004E
:10109000000000060000000000060000000000063E
:1010A0000000000000060000000000060000000034
:1010B000000600000000000600000000000600001E
:1010C000000000060000000000060000000000060E
:1010D0000000000000060000000000060000000004
:1010E00000060000000000060000000000060000EE
:1010F00000000006000000000006000000000006DE
:1011000000000000000600000000000600000000D3
:1011100000060000000000060000000000060000BD
:1011200000000006000000000006000000000006AD
:1011300000000000000600000000000600000000A3
:10114000000600000000000600000107070602007C
:10115000800080808080800507070600002070A83E
:10116000A0A87020050707060000304040E040506E
:10117000A805050506000088705070880507070659
:101180000000885020F820F82001070706020080A0
:1011900080800080808005080806000030482050CC
:1011A00050209060030101060107A0050707060013
:1011B00000F888B8B8B888F8050707060001700875
:1011C00078887800F80505050600012850A0502809
:1011D000050303060001F8080802020206020640A1
:1011E00080050707060000F888A88898A8F8050178
:1011F00001060006F80404040600036090906005F0
:1012000007070600002020F8202000F80405050646
:10121000000360902040F0030505060003E020E095
:1012200020E002020206020640800508080600FFD0
:101230008888888898E880800507070600007898E5
:101240009878181818020202060202C0C0020202B0
:101250000602FF408003050506000340C04040E051
:10126000050707060001708888887000F8050505E5
:10127000060001A0502850A005070706000088902E
:10128000A858B808080507070600008890B84898CD
:101290002038050808060000C040C048D8380808B3
:1012A0000507070600002000204080887005080818
:1012B0000600004020007088F888880508080600AD
:1012C000001020007088F8888805080806000020B3
:1012D00050007088F88888050808060000689000AB
:1012E0007088F88888050808060000500070888813
:1012F000F888880508080600002050207088F888C3
:10130000880507070600003860A0B8E0A0B8050807
:10131000080600FF70888080887020600508080635
:101320000000402000F880F080F805080806000062
:10133000081000F880F080F805080806000020502A
:1013400000F880F080F80507070600005000F880DC
:10135000F080F8030808060100804000E0404040AB
:10136000E0030808060100204000E0404040E003A0
:10137000080806010040A000E0404040E0030707E5
:10138000060100A000E0404040E00507070600001D
:10139000704848E848487005080806000068900052
:1013A00088C8A8988805080806000040207088882A
:1013B00088887005080806000010207088888888D2
:1013C00070050808060000205000708888887005A5
:1013D0000808060000689000708888887005080872
:1013E0000600005000708888888870050505060092
:1013F0000188502050880508080600FF1070A8A832
:10140000A8A8704005080806000040208888888841
:101410008870050808060000102088888888887071
:101420000508080600002050008888888870050894
:10143000080600005000888888888870050808061B
:10144000000010208850202020200509090600FFF8
:10145000C040704848704040E00408080601FF6042
:101460009090A09090E080050808060000402000C1
:1014700070087888780508080600001020007008B9
:1014800078887805080806000020500070087888E1
:1014900078050808060000689000700878887805CC
:1014A00007070600005000700878887805080806CD
:1014B0000000205020700878887805060606000095
:1014C000D02878A0A8500506060600FF7080887016
:1014D00020600508080600004020007088F8807031
:1014E0000508080600001020007088F880700508C4
:1014F000080600002050007088F880700507070675
:10150000000050007088F880700308080601008011
:10151000400040C04040E0030808060100204000B1
:1015200040C04040E003080806010040A00040C061
:101530004040E0030707060100A00040C04040E033
:10154000050707060000A040A0107888700508086D
:10155000060000689000B0C8888888050808060062
:101560000040200070888888700508080600001078
:101570002000708888887005080806000020500048
:1015800070888888700508080600006890007088D8
:1015900088887005070706000050007088888870EA
:1015A0000505050600012000F800200507070600D4
:1015B000FF1070A8A8A87040050808060000402089
:1015C00000888888986805080806000010200088B0
:1015D00088889868050808060000205000888888D8
:1015E00098680507070600005000888888986805F5
:1015F00009090600FF102000888888F80870040791
:10160000070601FFC04060506040E0050808060082
:10161000FF50008888887808705A005900580009DF
:1016200020000000000000000000000000007FFF1C
:10163000E00000000000000000000000007000E07A
:1016400000000000000000000000000061F86000E1
:10165000000000000000000000000041F820000031
:101660000000000000000000000040F0200000002A
:1016700000000000000000000040602000000000AA
:1016800000000000000000005801A07F8000000062
:10169000000000004104005C63A0FFC000000000E7
:1016A0000000002082005EF7A0FFC00000000000E4
:1016B00000002082005EF7A0FFC0000000000000D4
:1016C000004104005C63A07F800000000000000077
:1016D0008208005801A07F80000000000000010483
:1016E0001000406020FFC000000000000001041056
:1016F0000040F020FFC00000000000000082080051
:1017000041F820FFC000000000000000410400611B
:10171000F8603F00000000000000000000007000C2
:10172000E01E0000000000000001FFFF807FFFE0DE
:101730000C0000000000000001FFFF80000000001E
:1017400000000000000000000000007FFFE000003B
:10175000000000000000000000007000E000000039
:10176000000000000000000000630C6000000000AA
:101770000000000000000000470E200000000000F4
:10178000000000000000004F0F20000000000000DB
:101790000000000000005F0FA0000000000000003B
:1017A00000000000005E07A07F8000000000000035
:1017B00000410400406020FFC00000000000000065
:1017C00020820040F020FFC0000000000000002048
:1017D000820040F020FFC000000000000000410433
:1017E000004060207F8000000000000000820800B0
:1017F0005E07A07F80000000000000010410005F71
:101800000FA0FFC0000000000000010410004F0FF7
:1018100020FFC000000000000000820800470E20EA
:10182000FFC000000000000000410400630C603FA6
:1018300000000000000000000000007000E01E003A
:1018400000000000000001FFFF807FFFE00C0000AF
:10185000000000000001FFFF800000005A207072AD
:101860006F6265206F75742E206265640A005A20CD
:1018700070726F6265206F75742E20626564004817
:101880006F6D652058592066697273740A00486F3D
:101890006D652058592066697273740020706F73EB
:1018A0006974696F6E206F7574206F662072616E47
:1018B00067652E0A003F50726F626520000A0A4277
:1018C0006564204C6576656C20436F727265637445
:1018D000696F6E204D61747269783A00202B000A9E
:1018E000436F727265637465642042656420486565
:1018F000696768742076732E2042656420546F7087
:101900006F6C6F67793A0A00202B000A42656420E9
:1019100048656967687420546F706F67726170689A
:10192000793A0A2020202B2D2D2D204241434B2097
:101930002D2D2B0A2020207C20202020202020203C
:101940002020207C0A204C207C20202020282B29AD
:10195000202020207C20520A2045207C202020208E
:10196000202020202020207C20490A2046207C2086
:10197000282D29204E20282B29207C20470A20545E
:10198000207C20202020202020202020207C204877
:101990000A2020207C20202020282D2920202020E3
:1019A0007C20540A2020207C202020202020202061
:1019B0002020207C0A2020204F2D2D2046524F4EE3
:1019C00054202D2D2B0A2028302C30290A004D655B
:1019D000616E206F662073616D706C656420706F3E
:1019E000696E74733A200020643A200020623A2025
:1019F0000045716E20636F656666696369656E7424
:101A0000733A20613A200052756E6E696E672069E4
:101A10006E204452592D52554E206D6F64650A0058
:101A2000473239204175746F20426564204C6576D9
:101A3000656C696E670A0028422961636B0028465D
:101A400029726F6E74002852296967687400284CE7
:101A500029656674003F4E756D626572206F662061
:101A600070726F626520706F696E74732069732085
:101A7000696D706C61757369626C65202832206DC8
:101A8000696E696D756D292E0A003F2856296572A9
:101A9000626F7365206C6576656C20697320696D73
:101AA000706C61757369626C652028302D34292E45
:101AB0000A00436172642072656D6F76656400434D
:101AC00061726420696E7365727465640000060952
:101AD00000FE06018902FE20FFFE07FE06FE000052
:101AE0000006000701060606020080808080008054
:101AF000030303060103A0A0A00507070600FF508B
:101B000050F850F850500509090600FE2070A8A0B2
:101B10007028A870200608080600FF40A84810207A
:101B20004854080507070600FF6090906098906889
:101B30000103030602038080800207070602FF40BC
:101B40008080808080400207070602FF804040407E
:101B50004040800505050600008850F850880505BE
:101B6000050600002020F820200204040602FEC022
:101B7000404080050101060002F802020206020050
:101B8000C0C0040606060100101020408080040634
:101B90000606010060909090906003060606010022
:101BA00040C0404040E0040606060100609010205E
:101BB00040F0040606060100F020601010E0050663
:101BC0000606000010305090F810040606060100CA
:101BD000F080E01010E00406060601006080E0904E
:101BE0009060040606060100F01010204040040634
:101BF00006060100609060909060040606060100F1
:101C0000609090701060020505060200C0C000C020
:101C1000C00207070602FEC0C000C04040800505A4
:101C2000050600001860806018050303060001F82F
:101C300000F8050505060000C0300830C00407079D
:101C40000601006090106040004005060606000096
:101C50007090A8B08070050606060000205088F835
:101C60008888050606060000F088F08888F00406DB
:101C70000606010060908080906004060606010060
:101C8000E090909090E0040606060100F080E0806D
:101C900080F0040606060100F080E08080800406E3
:101CA00006060100609080B0906004060606010000
:101CB0009090F0909090030606060100E0404040AE
:101CC00040E005060606000038101010906004067B
:101CD0000606010090A0C0A0909004060606010030
:101CE0008080808080F005060606000088D8A8A8BD
:101CF000888804060606010090D0B09090900506F2
:101D000006060000708888888870040606060100B0
:101D1000E09090E080800407070601FF609090D07B
:101D2000B06010040606060100E09090E090900478
:101D30000606060100609040209060050606060039
:101D400000F8202020202004060606010090909034
:101D5000909060040606060100909090F060600587
:101D600006060600008888A8A8D88805060606008A
:101D700000885020205088050606060000888850FC
:101D8000202020040606060100F010204080F00309
:101D90000606060100E080808080E0040606060159
:101DA00000808040201010030606060100E020207D
:101DB0002020E005030306000320508805010106EA
:101DC00000FEF80202020602048040040404060138
:101DD00000709090700406060601008080E09090EC
:101DE000E004040406010070808070040606060109
:101DF0000010107090907004040406010060B0C0E0
:101E000070040606060100205040E040400406062B
:101E10000601FE60909070106004060606010080C6
:101E200080E09090900306060601004000C040400C
:101E3000E00308080601FE200060202020A04004E6
:101E400006060601008080A0C0A0900306060601D9
:101E500000C040404040E0050404060000D0A8A8AF
:101E600088040404060100E0909090040404060134
:101E700000609090600406060601FEE09090E0800D
:101E8000800406060601FE70909070101004040491
:101E9000060100A0D0808004040406010070C03058
:101EA000E00406060601004040E04050200404041F
:101EB0000601009090907004040406010090906068
:101EC0006005040406000088A8A850040404060164
:101ED00000906060900406060601FE90909070905D
:101EE00060040404060100F02040F0030707060127
:101EF00000204040804040200107070602FF80800C
:101F000080808080800307070601008040402040D9
:101F1000408004020206010350A0FFFFFFFFFFFF05
:101F2000FFFFFFFFFFFFFFFFFFFFFFFFFFFFFFFFC1
:101F3000FFFFFFFFFFFFFFFFFFFFFF0000000600A6
:101F400007010606060200800080808080040606E5
:101F50000601FF2070A0A070200507070600FF30D3
:101F60004840F04040F8050505060000A85088509C
:101F7000A80506060600008850F820F8200107078B
:101F80000602FF808080008080800407070601FF32
:101F9000708060906010E0030101060105A0060753
:101FA00007060000788494A494847803050506014C
:101FB0000160A06000E00505050600002850A05063
:101FC00028040303060100F01010040101060102B9
:101FD000F00607070600007884B4A4A484780401FE
:101FE00001060105F0040303060102609060050785
:101FF000070600FF2020F8202000F8030505060151
:102000000140A02040E0030505060101C02040205A
:10201000C002020206020440800405050601FF908A
:1020200090B0D08005060606000078E8E868282809
:10203000010101060202800202020602FE40800344
:10204000050506010140C04040E003050506010109
:1020500040A04000E0050505060000A0502850A063
:102060000508080600FF40C0405070307810050891
:10207000080600FF40C040506808103805080806F0
:1020800000FFC0204030F030781004070706010040
:102090002000206080906005070706000040202097
:1020A00050708888050707060000102020507088AF
:1020B0008805070706000020502050708888050713
:1020C0000706000028502050708888050707060082
:1020D0000050002050708888050707060000205037
:1020E000205070888805060606000078A0F0A0A0A1
:1020F000B80408080601FE609080809060204004CB
:1021000007070601004020F080E080F00407070682
:1021100001002040F080E080F00407070601002065
:1021200050F080E080F00407070601005000F080C6
:10213000E080F00307070601008040E0404040E0F7
:102140000307070601002040E0404040E003070786
:1021500006010040A0E0404040E003070706010000
:10216000A000E0404040E00506060600007048E898
:1021700048487004070706010050A090D0B0909026
:102180000407070601004020609090906004070754
:10219000060100204060909090600407070601004F
:1021A0002050609090906004070706010050A060E6
:1021B0009090906004070706010050006090909096
:1021C00060050505060000885020508804080806B0
:1021D00001FF1070B0B0D0D0E08004070706010006
:1021E00040209090909060040707060100204090E6
:1021F0009090906004070706010020509090909006
:102200006004070706010050009090909060050759
:102210000706000010208850202020040606060132
:102220000080E09090E0800406060601006090A027
:10223000A090A00407070601004020007090907055
:102240000407070601002040007090907004070703
:1022500006010020500070909070040707060100EE
:1022600050A00070909070040606060100500070A7
:102270009090700407070601002050207090907025
:1022800005040406000070A8B0780406060601FEE6
:102290007080807020400407070601004020006025
:1022A000B0C07004070706010020400060B0C07095
:1022B00004070706010020500060B0C07004060645
:1022C000060100500060B0C07003070706010080DF
:1022D0004000C04040E0030707060100204000C066
:1022E0004040E003070706010040A000C04040E076
:1022F000030606060100A000C04040E004070706F0
:1023000001003060107090906004070706010050D3
:10231000A000E090909004070706010040200060B4
:1023200090906004070706010020400060909060D4
:102330000407070601002050006090906004070722
:1023400006010050A000609090600406060601009F
:102350005000609090600505050600002000F80020
:102360002004040406010070B0D0E0040707060151
:102370000040200090909070040707060100204064
:102380000090909070040707060100205000909084
:1023900090700406060601005000909090700409A9
:1023A000090601FE2040009090907090600408089B
:1023B0000601FE8080E09090E0808004080806011D
:1023C000FE50009090907090604E6F204C696E654A
:1023D000204E756D62657220776974682063686548
:1023E000636B73756D2C204C617374204C696E6542
:1023F0003A200053544F505045442E2000507269EB
:102400006E7465722073746F707065642064756596
:1024100020746F206572726F72732E204669782067
:10242000746865206572726F7220616E64207573C6
:1024300065204D39393920746F207265737461726B
:10244000742E202854656D706572617475726520F4
:1024500069732072657365742E20536574206974E6
:102460002061667465722072657374617274696E3E
:1024700067290A004E6F20436865636B73756D2092
:1024800077697468206C696E65206E756D6265721F
:102490002C204C617374204C696E653A200063688F
:1024A00065636B73756D206D69736D617463682C02
:1024B000204C617374204C696E653A20004C696E43
:1024C00065204E756D626572206973206E6F742091
:1024D0004C617374204C696E65204E756D62657237
:1024E0002B312C204C617374204C696E653A2000AE
:1024F0004D313130004D3331004D383420582059A2
:10250000205A204500534420726561642065727230
:102510006F720A00446F6E65207072696E74696E26
:10252000672066696C650A0020496E76616C696493
:1025300020657874727564657220000000D8C1004F
:1025400000A0C1000000000000904300009743007D
:102550000087431FFFFFFFFFFFFF60000000000137
:10256000FF400000000000FF8000000000007F83AB
:10257000CF00000C303F87FF80000C301F86798031
:10258000000C000F8C30C7838C30E78C30CFC7CC69
:1025900031F38C30DCECEC33B98C30D86C6C331903
:1025A0008C30D06C0C33198C30D86C0C33198C30C7
:1025B000DC6C0E3B198C30CF7C079F198C30C77CAC
:1025C000038F1940000000000002600000000000BE
:1025D000061FFFFFFFFFFFF82020506C616E6E6545
:1025E0007242756666657242797465733A2000209E
:1025F00046726565204D656D6F72793A2000436FB4
:102600006D70696C65643A204A616E203131203208
:102610003031380A00207C20417574686F723A208E
:1026200028416C657068204F626A65637473204945
:102630006E632E2C204C756C7A426F74204769743F
:10264000205265706F7369746F7279290A004A614C
:102650006E203131203230313830383A34303A312E
:102660003800204C61737420557064617465643A5D
:102670002000312E312E350A004D61726C696E00DA
:1026800020536F6674776172652052657365740AB2
:1026900000205761746368646F67205265736574C6
:1026A0000A002042726F776E206F75742052657336
:1026B00065740A002045787465726E616C205265FD
:1026C0007365740A00506F77657255700A007374F1
:1026D0006172740A006572726F7220777269746930
:1026E0006E6720746F2066696C650A00456E6473BE
:1026F000746F707320256320256320256320256374
:102700000020503A00205A3A0020593A0020583A06
:1027100000656E6473746F7073206869743A20008A
:10272000446F6E6520736176696E672066696C65BB
:102730002E0A004D3239007C3C3E5E2B3D3F2F5B24
:102740005D3B2C2A225C0020746F6F206C6F6E67DB
:1027500020657874727573696F6E20707265766526
:102760006E7465640A0020636F6C6420657874720F
:102770007573696F6E2070726576656E7465640A34
:102780000056652D6A65726B0056652D6A65726B21
:102790000056652D6A65726B00567A2D6A65726BFC
:1027A00000567A2D6A65726B0056792D6A65726BD8
:1027B0000056792D6A65726B0056792D6A65726BC9
:1027C0000056782D6A65726B0056782D6A65726BBB
:1027D0000056782D6A65726B004D6F74696F6E00DC
:1027E0004573746570732F6D6D00457374657073F8
:1027F0002F6D6D005A73746570732F6D6D005A7371
:10280000746570732F6D6D005973746570732F6DDF
:102810006D005973746570732F6D6D005873746516
:1028200070732F6D6D005873746570732F6D6D002C
:102830004D6F74696F6E004F6666004F6E200045E5
:102840006E6473746F702061626F7274005374658C
:1028500070732F6D6D004A65726B00416363656C28
:1028600065726174696F6E0056656C6F6369747927
:10287000005A204F666673657400416476616E632A
:1028800065642053657474696E67730043616E6E8E
:102890006F7420656E746572207375626469723A34
:1028A0002000022E2E004D61696E0020204E6F7AAE
:1028B0007A6C653A200020004261636B004D696EBE
:1028C000696D756D2054656D7020697320313230EB
:1028D0002E0048656174696E67206661696C656485
:1028E0000045787472756465206D6F72650052657D
:1028F00073756D65207072696E7400524553554D45
:1029000045204F5054494F4E533A001000C9021011
:10291000012C014001220170011801B0010E01F0EB
:102920000104015002FA00B002F0003003E600D0CA
:1029300003DC009004D2007005C800A006BE0000B1
:1029400008B400B009AA00D00BA000600E96006089
:10295000118C000015820020197800C01D6E00A0A7
:10296000226400B0275A00902C500000314600E04D
:10297000343C0010383200903A2800603C1E00A021
:102980003D1400803E0A00203F00004865617469E4
:102990006E67206661696C65642042454400486545
:1029A0006174696E67206661696C65640048656181
:1029B00074696E67206661696C656400486561745E
:1029C000696E67206661696C65642045300010009F
:1029D000AD0330016A0150022B0170030A0190041B
:1029E000F500B005E500D006D800F007CE001009CC
:1029F000C500300ABE00500BB700700CB100900D3E
:102A0000AB00B00EA600D00FA200F0109D00101277
:102A10009900301395005014920070158E00901696
:102A20008B00B0178700D0188400F0198100101BAC
:102A30007E00301C7B00501D7900701E7600901FB8
:102A40007300B0207000D0216E00F0226B001024C3
:102A500069003025660050266300702761009028C9
:102A60005E00B0295C00D02A5900F02B5600102DD2
:102A70005400302E5100502F4E0070304B009031DA
:102A80004800B0324500D0334200F0343E001036EA
:102A90003B00303737005038330070392E00903A01
:102AA0002900B03B2300D03C1B00F03D1100103F3B
:102AB0000100F03F00004572723A204D494E5445E6
:102AC0004D5020424544004D494E54454D502074D0
:102AD0007269676765726564004572723A204D4994
:102AE0004E54454D50204531004572723A204D49B3
:102AF0004E54454D50204530004572723A204D41AC
:102B00005854454D5020424544004D415854454D80
:102B10005020747269676765726564004572723A25
:102B2000204D415854454D50204531004572723A70
:102B3000204D415854454D50204530004572726F2C
:102B4000722077726974696E6720746F20454550F2
:102B5000524F4D210A00290A002062797465733BA7
:102B600020637263200053657474696E6773205329
:102B7000746F726564202800202863616C63756C33
:102B80006174656429210A0020213D2000454550DB
:102B9000524F4D20435243206D69736D61746368D9
:102BA000202D202873746F726564292000290A0083
:102BB0002062797465733B20637263200020737414
:102BC0006F7265642073657474696E6773207265D3
:102BD00074726965766564202800204D61726C69A5
:102BE0006E3D563430290A0028454550524F4D3D20
:102BF00000454550524F4D2076657273696F6E20C7
:102C00006D69736D61746368200048617264636FFD
:102C10006465642044656661756C742053657474E2
:102C2000696E6773204C6F616465640A0028230035
:102C30000028230000640000001027000000009618
:102C40004300009643000040400000C8410000C916
:102C5000420000C9420000C84400804F4420204D7B
:102C6000383531205A005A2D50726F6265204F66F8
:102C70006673657420286D6D293A0A00204400208F
:102C8000490020204D33303420500020440020499A
:102C90000020204D333031205000504944207365CE
:102CA0007474696E67733A0A00204600204200205F
:102CB000480020204D3134352053004D6174657239
:102CC00069616C2068656174757020706172616DF6
:102CD00065746572733A0A0020204D3432302053F7
:102CE000004175746F20426564204C6576656C699F
:102CF0006E673A0A00205A0020590020204D3230D9
:102D000036205800486F6D65206F66667365743AAB
:102D10000A00204500205A00205900205800204277
:102D20000020540020204D3230352053004164767D
:102D3000616E6365643A20533C6D696E5F666565DC
:102D400064726174653E20543C6D696E5F7472619B
:102D500076656C5F66656564726174653E20423CB1
:102D60006D696E5F7365676D656E745F74696D65BF
:102D70005F6D733E20583C6D61785F78795F6A655E
:102D8000726B3E205A3C6D61785F7A5F6A65726B48
:102D90003E20453C6D61785F655F6A65726B3E0AF7
:102DA0000020540020520020204D323034205000AA
:102DB000416363656C65726174696F6E2028756E1E
:102DC0006974732F7332293A20503C7072696E74A3
:102DD0005F616363656C3E20523C7265747261632F
:102DE000745F616363656C3E20543C747261766508
:102DF0006C5F616363656C3E0A00204500205A00E9
:102E000020590020204D3230312058004D61786922
:102E10006D756D20416363656C65726174696F6E79
:102E20002028756E6974732F7332293A0A00204581
:102E300000205A0020590020204D32303320580005
:102E40004D6178696D756D20666565647261746544
:102E5000732028756E6974732F73293A0A00204510
:102E600000205A0020590020204D393220580053AC
:102E7000746570732070657220756E69743A0A000B
:102E800020204D3230302044300A0020204D323096
:102E9000302044002044697361626C65640A004616
:102EA000696C616D656E742073657474696E6773A7
:102EB0003A0020204D3134392043203B20556E69A3
:102EC000747320696E2043656C736975730A002002
:102ED00020473231202020203B20556E697473201A
:102EE000696E206D6D0A0020204E6F7A7A6C653A0B
:102EF00020006368616E6765006F662074686520F6
:102F000066696C616D656E74005761697420666FE7
:102F100072207374617274005052494E54205041B3
:102F2000555345440020204E6F7A7A6C653A200054
:102F3000200066696C616D656E7420756E6C6F61E2
:102F400064005761697420666F72005052494E5494
:102F5000205041555345440020204E6F7A7A6C65CD
:102F60003A20002000506C656173652077616974B8
:102F70002E2E2E0048656174696E67206E6F7A7A16
:102F80006C65005052494E54205041555345440001
:102F900020204E6F7A7A6C653A20002000686561C7
:102FA00074206E6F7A7A6C652E0050726573732090
:102FB000627574746F6E20746F005052494E5420C5
:102FC0005041555345440020204E6F7A7A6C653A43
:102FD0002000746F20636F6E74696E75652E2E2EDF
:102FE00000616E6420707265737320627574746F13
:102FF0006E00496E736572742066696C616D656EF2
:1030000074005052494E54205041555345440020BD
:10301000204E6F7A7A6C653A2000200066696C61F8
:103020006D656E74206C6F61640057616974206611
:103030006F72005052494E54205041555345440040
:1030400020204E6F7A7A6C653A2000200066696C09
:10305000616D656E74206578747275646500576182
:10306000697420666F72005052494E542050415589
:1030700053454400746F20726573756D6500576128
:10308000697420666F72207072696E7400505249C4
:103090004E54205041555345440000000A0B02098C
:1030A0000C0D0E08070304010000000000000000E2
:1030B0000000000000000000000000000000000010
:1030C00000000000000012111000000000000000CD
:1030D00000000000000000000000000000000000F0
:1030E000486F6D652025732573257320666972739B
:1030F00074002066697273740A005A0059005800FF
:10310000486F6D65200053442063617264206F6BCB
:103110000A006F70656E526F6F74206661696C652E
:10312000640A00766F6C756D652E696E6974206631
:1031300061696C65640A00534420696E6974206695
:1031400061696C0A006175746F25692E67004D32E4
:1031500034004D32332025730057726974696E67ED
:1031600020746F2066696C653A20006F70656E2070
:103170006661696C65642C2046696C653A20006F55
:1031800070656E206661696C65642C2046696C65AB
:103190003A200046696C652073656C6563746564EC
:1031A0000A002053697A653A200046696C65206FF1
:1031B00070656E65643A20006F70656E20666169A7
:1031C0006C65642C2046696C653A20002066696C49
:1031D000653A20004E6F7720002220706F73002226
:1031E00020706172656E743A2200535542524F55F9
:1031F00054494E452043414C4C20746172676574BC
:103200003A22004B494C4C45442E20007472796997
:103210006E6720746F2063616C6C207375622D671C
:10322000636F64652066696C6573207769746820D4
:10323000746F6F206D616E79206C6576656C732E8E
:10324000204D4158206C6576656C2069733A0045C5
:1032500072726F723A0043616E6E6F74206F7065A8
:103260006E2073756264697220006563686F3A004E
:10327000544845524D414C2052554E4157415920DA
:1032800042454400546865726D616C2052756E61F0
:1032900077617900544845524D414C2052554E417A
:1032A00057415920453100544845524D414C205218
:1032B000554E41574159204530000000220025005D
:1032C00028002B002E00310034000201000005010F
:1032D00008010B0100002100240027002A002D0016
:1032E0003000330001010000040107010A01050557
:1032F0000505070508080808020202020A0A08086C
:103300000404040401010101010101010303030399
:1033100003030303040707070C0C0C0C0C0C0C0C28
:103320000202020206060606060606060B0B0B0B39
:103330000B0B0B0B0102102020080810204010205E
:103340004080020102010804020101020408102069
:103350004080804020100804020180040201804067
:1033600020100804020108040201010204081020D0
:1033700040800102040810204080506C6561736534
:10338000207265736574005052494E54455220486E
:10339000414C544544005072696E746572206861F6
:1033A0006C7465642E206B696C6C28292063616CD9
:1033B0006C6564210A00656E7175657565696E6777
:1033C0002022000000D8C100009743000000000048
:1033D0000048420000484200004040000000005702
:1033E00061726E696E673A20486F6D696E67204240
:1033F000756D702044697669736F72203C20310AC4
:10340000000202040000A0400000A04000000040B4
:1034100000809D430000A14300008743FF01FF4D52
:1034200036303020486F74656E6420746F6F20638F
:103430006F6C6420746F206368616E6765206669D5
:103440006C616D656E740A0024F4D43050C38E2014
:10345000C2A24017828B7011127A910D816CD90A29
:10346000A861E108C7586607615143061E4B5D0518
:10347000C145A7041A411104093D9803713931036C
:103480004036DB0265339102D4305402802E1D0297
:10349000632CEE01752AC501B028A0011027810117
:1034A0008F2564012B244B01E0223401AC211F0144
:1034B0008D200D01801FFC00841EED00971DDF0094
:1034C000B81CD200E61BC600201BBC00641AB20068
:1034D000B219A8000A19A0006A189900D117910022
:1034E00040178B00B516840031167E00B3157900A5
:1034F0003A157300C7146F0058146A00EE13660083
:103500008813630025135E00C7125B006C1257001E
:1035100015125400C111510070114F0021114B00C0
:10352000D61049008D10470046104400021042009A
:10353000C00F4000800F3E00420F3C00060F3B00D2
:10354000CB0E3800930E37005C0E3500270E34008A
:10355000F30D3200C10D3100900D3000600D2E00D2
:10356000320D2D00050D2C00D90C2B00AE0C2900BE
:10357000850C29005C0C2700350C27000E0C26005A
:10358000E80B2400C40B2400A00B23007D0B2300B8
:103590005A0B2100390B2100180B2000F80A1F00DC
:1035A000D90A1E00BB0A1E009D0A1D00800A1D00CC
:1035B000630A1C00470A1B002C0A1B00110A1A0090
:1035C000F7091A00DD091900C4091900AB0919002F
:1035D000920917007B091800630917004C091600AF
:1035E00036091600200916000A091500F50815000D
:1035F000E0081400CC081400B8081400A408140053
:10360000900813007D0812006B0813005808120080
:103610004608120034081100230811001208110096
:1036200001081100F0071000E0071000D00710009B
:10363000C0071000B0070F00A107100091070E008F
:1036400083070F0074070F0065070E0057070E0071
:1036500049070E003B070D002E070E0020070D0046
:1036600013070D0006070D00F9060C00ED060D000E
:10367000E0060C00D4060C00C8060C00BC060C00CA
:10368000B0060C00A4060B0099060C008D060B007A
:1036900082060B0077060B006C060B0061060A0021
:1036A00057060B004C060A0042060A0038060A00BC
:1036B0002E060A0024060A001A060A00100609004F
:1036C00007060A00FD050900F4050900EB050900DD
:1036D000E2050900D9050900D0050900C705090060
:1036E000BE050900B5050800AD050800A5050900DF
:1036F0009C050800940508008C0508008405080056
:103700007C050800740508006C05070065050800C5
:103710005D050700560508004E0507004705070030
:103720004005080038050700310507002A05070095
:10373000230507001C050600160507000F050700F6
:103740000805060002050700FB040600F504070053
:10375000EE040600E8040600E2040700DB040600AD
:10376000D5040600CF040600C9040600C304060001
:10377000BD040600B7040600B1040500AC04060051
:10378000A6040600A00405009B040600950405009D
:10379000900406008A0405008504050080040600E4
:1037A0007A04050075040500700405006B0405002B
:1037B00066040500610405005C040500570405006B
:1037C000520405004D0405004804050043040500AB
:1037D0003E0404003A0405003504050030040400EA
:1037E0002C04050027040400230405001E04040023
:1037F0001A04040016040500110404000D0404005A
:10380000090405000404040000040400FC0304008F
:10381000F8030400F4030400F0030400EC030400C4
:10382000E8030400E4030400E0030400DC030400F4
:10383000D8030400D4030400D0030400CC03040024
:10384000C8030300C503030024F404D9201BC40CDF
:103850005C0E9804C4095F0265077101F405F90064
:10386000FB04B30048048700C103690058035500F6
:1038700003034500BE023A008402310053022A00CD
:103880002902250004022000E4011C00C8011900DF
:10389000AF0117009801140084011300710110009A
:1038A0006101100051010E0043010D0036010B00B3
:1038B0002B010B0020010B00150109000C01090070
:1038C00003010800FB000800F3000800EB000700FC
:1038D000E4000600DE000600D8000600D200060064
:1038E000CC000500C7000500C2000500BD000400B3
:1038F000B9000400B5000400B1000400AD000400EC
:10390000A9000400A5000300A20003009F0004001A
:103910009B00030098000300950002009300030041
:10392000900003008D0002008B000300880002005D
:103930008600020084000300810002007F00020074
:103940007D0002007B000200790002007700010088
:103950007600020074000200720001007100020093
:103960006F0002006D0001006C0002006A0001009F
:1039700069000200670001006600010065000100A7
:1039800064000200620001006100010060000100AB
:103990005F0002005D0001005C0001005B000100AF
:1039A0005A000100590001005800010057000100B1
:1039B00056000100550001005400010053000000B2
:1039C00053000100520001005100010050000100AD
:1039D0004F0001004E0000004E0001004D000100AC
:1039E0004C0001004B0000004B0001004A000100A8
:1039F00049000100480000004800010047000100A4
:103A0000460000004600010045000000450001009E
:103A10004400010043000000430001004200000098
:103A2000420001004100000041000100400001008F
:103A30003F0000003F0001003E0000003E0001008A
:103A40003D0000003D0001003C0000003C00000083
:103A50003C0001003B0000003B0001003A00000078
:103A60003A00010039000000390001003800000070
:103A70003800000038000100370000003700010066
:103A8000360000003600000036000100350000005E
:103A90003500000035000100340000003400000053
:103AA0003400010033000000330000003300010047
:103AB000320000003200000032000100310000003E
:103AC0003100000031000100300000003000000033
:103AD000300001002F0000002F0000002F00000028
:103AE0002F0001002E0000002E0000002E0001001B
:103AF0002D0000002D0000002D0000002D00010011
:103B00002C0000002C0000002C0000002C00010004
:103B10002B0000002B0000002B0000002B000100F8
:103B20002A0000002A0000002A0000002A000100EC
:103B300029000000290000002900000029000000E1
:103B400029000100280000002800000028000000D3
:103B500028000000280001002700000027000000C6
:103B600027000000270000002700010026000000B9
:103B700026000000260000002600000026000100AC
:103B800025000000250000002500000025000000A1
:103B90002500000025000100240000002400000092
:103BA0002400000024000000240001002300000085
:103BB0002300000023000000230000002300000079
:103BC000230000002300010022000000220000006A
:103BD000220000002200000022000000220001005C
:103BE0002100000021000000210000002100000051
:103BF0002100000021000000210001002000000041
:103C00002000000020000000200000002000000034
:103C10002000000020000000200001001F00000024
:103C20001F0000001F0000001F0000001F00000018
:103C30001F0000001F0001001E0000001E00000009
:103C40001E0000001E0000004D383420582059206E
:103C50005A204500000020002300260029002C00E7
:103C60002F003200000100000301060109014D6F21
:103C7000766520617869730044697361626C6520C0
:103C80007374657070657273004D383400426564FA
:103C9000204C6576656C696E67004732382058594C
:103CA0000A4D31303920533137350A473238205ADE
:103CB0000A4D31303920523134350A4731320A4702
:103CC00032390A4D313034205330004175746F2041
:103CD000686F6D6500473238004D61696E004D3583
:103CE00030320A4D353030004C6F6164207365749A
:103CF00074696E677300526573746F7265206661D4
:103D0000696C736166650053746F726520736574C6
:103D100074696E677300416476616E6365642053F5
:103D2000657474696E6773004D61696E000A003BCB
:103D300020454550524F4D20496E6465783A200029
:103D40005570646174696E67207A6F666673657416
:103D500020696E20454550524F4D3A20000600061E
:103D60000006000600060006000600060006003FEA
:103D7000C01F800F00060006000F001F803FC00616
:103D80000006000600060006000600060006000603
:103D90000007F8000C0C00100200200100600180F8
:103DA0004000804003E04001C040008040000040EF
:103DB00000006000002000001000000C0C0007F85C
:103DC0000001FE00030300040080080040180060AA
:103DD0001000207C0020380020100020000020006F
:103DE000002000006000004000008003030001FE8E
:103DF00000FFFFFF7F80FFC0FFC0FFC07F807F808C
:103E0000FFC0FFC0FFC03F001E000C005A204F66DD
:103E100066736574005A204F666673657400466C5D
:103E20006F7700466C6F770046616E207370656532
:103E30006420310046616E20737065656420310036
:103E400042656400426564004E6F7A7A6C65004E8C
:103E50006F7A7A6C650053706565640053706565B0
:103E600064004D61696E004D6F76652058004531E4
:103E70003A200045303A20005A3A2000593A2000B2
:103E8000583A20004D53312C4D53322050696E73F7
:103E90000A006265640A002C2073797374656D20D2
:103EA00073746F7070656421204865617465725F1A
:103EB00049443A200046696C652064656C65746508
:103EC000643A0044656C6574696F6E206661696C64
:103ED00065642C2046696C653A20006F70656E2021
:103EE0006661696C65642C2046696C653A20002027
:103EF0002F002042403A0020403A006F6B00436F91
:103F00006F6C696E6720646F6E652E004865617422
:103F1000696E6720646F6E652E0020573A00457801
:103F2000747275646572202573004C756C7A426FEB
:103F3000742054415A20362072656164792E0052F3
:103F400065776970696E670050726F62696E67208D
:103F50006661696C65640050726F62696E672066A5
:103F600061696C65640050524F4245204641494C9E
:103F700020434C45414E204E4F5A5A4C450A005260
:103F800065776970696E670A005265776970696E56
:103F9000670050726F62696E67206661696C656464
:103FA0000050726F62696E67206661696C656400BB
:103FB00050524F4245204641494C20434C45414ECA
:103FC000204E4F5A5A4C450A005265776970696E07
:103FD000670A0050726F62696E67206661696C657E
:103FE000640A0050726F62696E67206661696C6571
:103FF0006400205A3A200020593A2000426564208B
:10400000583A20000201050800FF06012102352070
:10401000FFFF07FF06FF09005022165680808080B0
:104020000080153353A0A0A00257575050F850F805
:1040300050500257572070A07028702013355580BB
:10404000A040A02002475740A0A040A0A0502513A8
:1040500053808080122656408080808040122656F1
:104060008040404040800245559060F0609002558D
:10407000552020F82020113353604080044151F036
:1040800011335340E0400246561010204080801209
:10409000365640A0A0A0A04012365640C040404036
:1040A000E00246566090106080F0024656F02060B4
:1040B0001090600246562060A0F02020024656F084
:1040C00080E01090600246566080E090906002466A
:1040D00056F010202040400246566090609090605C
:1040E000024656609090701060122555C0C000C006
:1040F000C011365660600060408012365620408005
:10410000804020034353F000F012365680402020B8
:10411000408012365640A020400040015858304898
:1041200098A8A8904030024656609090F090900277
:104130004656E090E09090E0024656609080809075
:1041400060024656E090909090E0024656F080E083
:104150008080F0024656F080E08080800246566003
:104160009080B090600246569090F09090901236F9
:1041700056E040404040E002465670202020A040DB
:1041800002465690A0C0A0A0900246568080808033
:1041900080F002465690F0F090909002465690D0F3
:1041A000F0B0B090024656609090909060024656F3
:1041B000E09090E08080014757609090D0B0601010
:1041C000024656E09090E090900246566090402063
:1041D0009060123656E04040404040024656909073
:1041E0009090906002465690909090606002465683
:1041F000909090F0F09002465690906060909002FF
:104200005656888850202020024656F010204080C4
:10421000F0123656E080808080E002465680804072
:10422000201010123656E020202020E01632524096
:10423000A0014151F01622528040024454709090E7
:10424000700246568080E09090E012345460808086
:104250006002465610107090907002445460B0C0D6
:1042600060024656205040E0404001455560907045
:1042700010600246568080E09090901236564000C2
:10428000C04040E01137572000202020A0400246C7
:1042900056808090E09090123656C040404040E0FA
:1042A000025454D0A8A8A8024454E090909002442C
:1042B0005460909060014555E090E0808001455544
:1042C0007090701010024454A0D08080123454605A
:1042D000C020C00246564040E04050200244549066
:1042E000909070123454A0A0A04002545488A8A802
:1042F00050024454906060900145559090709060D9
:10430000024454F02040F0024757304020C0204083
:1043100030221656808080808080024757C020401F
:10432000304020C006425250A0FFFFFFFFFFFFFFBA
:10433000FFFFFFFFFFFFFFFFFFFFFFFFFFFFFFFF8D
:10434000FFFFFFFFFFFFFFFFFFFF09005022165690
:104350008000808080800146562070A0A0702002DE
:1043600046562050E04050A0025555887050708845
:104370000256568850F820F8202217578080800077
:104380008080800247577080E0907010E0173151B4
:10439000A002565670A8C8C8A87014355560A06011
:1043A00000E003435350A050123353E02020143157
:1043B00051E002565670E8D8E8D870173151E01530
:1043C000335340A04012355540E04000E0143555CD
:1043D00040A02040E0143555C020C020C016225215
:1043E0004080014555909090E08002565678E8E86C
:1043F00068282824115180112252408014355540DC
:10440000C04040E014355540A04000E0034353A0B5
:1044100050A0024757808080A060F020024757805C
:1044200080A0D010207002475780408060A0F0200C
:1044300012365640004080A040024757402060900E
:10444000F0909002475720406090F09090024757BC
:1044500060906090F0909002475750A06090F0906C
:104460009002475790006090F090900247576090FC
:104470006090F0909002465670A0A0F0A0B0014766
:1044800057609080809060400247574020F080E065
:1044900080F00247572040F080E080F002475760EC
:1044A00090F080E080F00247579000F080E080F0CC
:1044B0001237578040E0404040E01237572040E03C
:1044C000404040E012375740A0E0404040E0123703
:1044D00057A000E0404040E00256567048E8484887
:1044E0007002475750A090D0B0909002475740209C
:1044F00060909090600247572040609090906002DA
:1045000047576090609090906002475750A060902D
:1045100090906002475790006090909060123353E3
:10452000A040A002465670B0B0D0D0E0024757403D
:10453000209090909060024757204090909090601B
:10454000024757609090909090600247579000907B
:1045500090909060025757102088502020200246EB
:104560005680E09090E0800246566090A0A090A017
:10457000024757402000709090700247572040003B
:1045800070909070024757205000709090700247D2
:104590005750A00070909070024656500070909056
:1045A0007002475760906070909070025454F068A9
:1045B000B078113555608080604002475740200038
:1045C00060B0C06002475720400060B0C060024742
:1045D0005760900060B0C060024656500060B0C0A6
:1045E00060123757804000C04040E01237572040EB
:1045F00000C04040E012375740A000C04040E012E9
:104600003656A000C04040E0024757A040A01070BE
:10461000906002475750A000E090909002475740AA
:1046200020006090906002475720400060909060AA
:104630000247576090006090906002475750A0007A
:1046400060909060024656900060909060123555E0
:104650004000E0004002445470B0D0E002475740B0
:1046600020009090907002475720400090909070EA
:1046700002475760900090909070024656900090CC
:1046800090907001485820400090907090600147D1
:10469000578080E090E080800147579000909070B4
:1046A000906001050700FE0500FB01F220FFFE05FA
:1046B000FE05FE0200400215258080800080053244
:1046C00042A0A002556550F850F85001465620709F
:1046D000C030E020025565901020404802556560CA
:1046E0008068906805122280800225354080808095
:1046F000400225358040404080043343A040A00361
:10470000334340E0400122324080043141E0021155
:104710002180025565081020408002455560909028
:104720009060022535C040404040024555E0106091
:1047300080F0024555E0106010E00245552060A071
:10474000F020024555F080E010E00245556080E021
:104750009060024555F01020404002455560906041
:1047600090600245556090701060031323800080B4
:1047700002142480008080023545204080402003C0
:104780003343E000E002354580402040800245553B
:10479000E0106000400255657088B8A87002455569
:1047A000609090F090024555E090E090E002354531
:1047B0006080808060024555E0909090E002354531
:1047C000E080E080E0023545E080E08080024555F1
:1047D0007080B090700245559090F09090023545F1
:1047E000E0404040E00245553010109060024555D1
:1047F00090A0C0A09002354580808080E002556581
:1048000088D8A8888802455590D0B0909002455528
:104810006090909060024555E09090E0800146568F
:10482000609090906010024555E09090E0900245B5
:104830005570806010E0023545E040404040024540
:104840005590909090600245559090A0A0400255E0
:104850006588A8A8A85002455590906090900245A0
:10486000559090701060023545E0204080E00225B0
:1048700035C0808080C00255658040201008022528
:1048800035C0404040C005324240A0024151F005D1
:10489000223280400244547090907002455580E06E
:1048A0009090E00234446080806002455510709022
:1048B000907002445460B0C0600235452040E04032
:1048C0004000465670909070106002455580E09010
:1048D000909002152580008080800027374000409E
:1048E000404040800245558090A0E0900215258010
:1048F00080808080025464F0A8A8A8024454E0900C
:10490000909002445460909060004656E09090E091
:104910008080004656709090701010023444A0C001
:10492000808002445470C030E002354540E0404091
:1049300020024454909090700244549090A0400201
:104940005464A8A85050023444A04040A0004656E9
:10495000909090701060024454F02040F002354571
:10496000604080406002152580808080800235454F
:10497000C0402040C005425250A0FFFFFFFFFFFF94
:10498000FFFFFFFFFFFFFFFFFFFFFFFFFFFFFFFF37
:10499000FFFFFFFFFFFFFFFFFFFFFF020040FFFFE2
:1049A000FFFFFFFFFFFFFFFFFFFFFFFFFFFFFFFF17
:1049B000FFFFFFFFFFFFFFFFFFFFFFFFFFFFFFFF07
:1049C000FFFFFFFFFFFFFFFFFFFFFFFFFFFFFFFFF7
:1049D000FFFFFFFFFFFFFFFFFFFFFFFFFFFFFFFFE7
:1049E000FFFFFFFFFFFFFFFFFFFFFFFFFFFFFFFFD7
:1049F000FFFFFFFFFFFFFFFFFFFFFFFFFF01060DB0
:104A000000FE09016602D620FFFE0BFE0AFE0D0025
:104A100060221969808080808080800080183363E4
:104A2000A0A0A00357675050F850F85050025969A1
:104A30002078A0A0702828F02002596948A85010BA
:104A4000204050A89002586840A0A040A0989068CC
:104A5000281363808080113B6B20404080808080E1
:104A600080404020113B6B8040402020202020408F
:104A7000408006556520A870A8200455652020F8C0
:104A80002020113363604080065161F81133634088
:104A9000E040025969080810102040408080025907
:104AA000692050888888888850200259692060A031
:104AB0002020202020F802596970888808102040A2
:104AC00080F8025969F808102070080888700259A7
:104AD00069101030505090F81010025969F8808019
:104AE000B0C80808887002596970888080F088888A
:104AF0008870025969F8081010202040404002597F
:104B00006970888888708888887002596970888878
:104B100088780808887011386840E040000040E05C
:104B20004011386840E04000006040800259690848
:104B30001020408040201008045464F80000F8025F
:104B400059698040201008102040800259697088FF
:104B50008808102020002002596970888898A8A829
:104B6000B080780259692050888888F8888888023F
:104B70005969F048484870484848F00259697088B7
:104B800080808080808870025969F0484848484891
:104B90004848F0025969F8808080F0808080F802EF
:104BA0005969F8808080F08080808002596970881F
:104BB0008080809888887002596988888888F888F9
:104BC000888888123969E040404040404040E00217
:104BD00059693810101010101090600259698888B7
:104BE00090A0C0A0908888025969808080808080D1
:104BF0008080F80259698888D8A8A888888888029F
:104C0000596988C8C8A8A89898888802596970887E
:104C100088888888888870025969F0888888F08038
:104C2000808080015A6A70888888888888A870087F
:104C3000025969F0888888F0A090888802596970C4
:104C40008880807008088870025969F82020202028
:104C50002020202002596988888888888888887060
:104C600002596988888888505050202002596988E4
:104C7000888888A8A8A8A850025969888850502018
:104C80005050888802596988885050202020202060
:104C9000025969F808101020404080F8113B6BE081
:104CA000808080808080808080E0025969808040A0
:104CB000402010100808113B6BE02020202020200D
:104CC000202020E0085363205088015161F82A22F7
:104CD0006280400256667008788898680259698038
:104CE0008080F088888888F0025666708880808886
:104CF000700259690808087888888888780256669A
:104D00007088F880887002596930484040F040400F
:104D1000404000586870888888780888700259690F
:104D2000808080B0C8888888881238684000C04079
:104D3000404040E0004A6A1000301010101090907F
:104D40006002596980808090A0C0A0908812396963
:104D5000C040404040404040E0025666D0A8A8A86D
:104D6000A888025666B0C888888888025666708807
:104D700088888870005868F0888888F08080800073
:104D800058687888888878080808025666B0C8800D
:104D90008080800256667088601088700258684073
:104DA00040F04040404830025666888888889868BD
:104DB0000256668888885050200256668888A8A8BF
:104DC000A85002566688502020508800586888886D
:104DD000889868088870025666F810204080F801AC
:104DE0005B6B1820202020C0202020201822196969
:104DF000808080808080808080015B6BC02020204C
:104E0000201820202020C008536348A890FFFFFFEF
:104E1000FFFFFFFFFFFFFFFFFFFFFFFFFFFFFFFFA2
:104E2000FFFFFFFFFFFFFFFFFFFFFFFFFFFF0D0083
:104E300060221969800080808080808080035868AB
:104E40002070A8A0A0A8702002596930484040E016
:104E5000404048B0035666887050507088025969C7
:104E600088885050F820F82020221969808080809E
:104E70000080808080124A6A60908060909060100C
:104E800090601A3262A0A00359697088A8D8C8D867
:104E9000A88870045767700878887800F803566609
:104EA0002850A0A05028045363F80808163161E088
:104EB0000359697088E8D8D8E8D888700A5161F831
:104EC000174464609090600357672020F82020000A
:104ED000F807356540A02040E007356540A0402038
:104EE000C02A226240800058688888888898E880B4
:104EF0008002596978E8E8E8E868282828262161CE
:104F0000C0202262408007356540C04040E0045721
:104F100067708888887000F8035666A0502828506B
:104F2000A0025A6A40C04040E00818283808025AD7
:104F30006A40C04040E01028081038025A6A40A079
:104F40004020A04818283808025969200020204035
:104F500080888870025A6A40200020508888F8882B
:104F600088025A6A10200020508888F88888025ADF
:104F70006A30480020508888F88888025A6A285089
:104F80000020508888F88888025A6A5050002050C3
:104F90008888F88888025A6A20502020508888F82B
:104FA000888802596958A0A0A0B0E0A0A0B8005B12
:104FB0006B7088808080808088702040025A6A40B0
:104FC0002000F88080F08080F8025A6A102000F8F3
:104FD0008080F08080F8025A6A304800F88080F0C3
:104FE0008080F8025A6A505000F88080F08080F883
:104FF000123A6A804000E04040404040E0123A6A85
:10500000204000E04040404040E0124A6A6090008A
:10501000E04040404040E0123A6AA0A000E040403A
:10502000404040E0025969F0484848E8484848F0A4
:10503000025A6A2850008888C8A8988888025A6A44
:1050400040200070888888888870025A6A10200082
:1050500070888888888870025A6A3048007088880A
:1050600088888870025A6A285000708888888888E2
:1050700070025A6A5050007088888888887003557A
:10508000658850205088015B6B08709898A8A8A884
:10509000C8C87080025A6A4020008888888888883A
:1050A00070025A6A10200088888888888870025A9E
:1050B0006A30480088888888888870025A6A505008
:1050C0000088888888888870025A6A10200088883A
:1050D000502020202002596980F0888888F0808044
:1050E00080025969609090A0A0908888B0025969A8
:1050F0004020007008788898680259691020007074
:10510000087888986802596930480070087888984B
:1051100068025969285000700878889868025969AF
:10512000505000700878889868025A6A30483000F9
:10513000700878889868025666702870A0A8500099
:10514000586870888080887020400259694020002B
:105150007088F88088700259691020007088F88083
:1051600088700259693048007088F8808870025948
:10517000695050007088F88088701239698040004A
:10518000C040404040E0123969204000C0404040EB
:1051900040E0124969609000C040404040E0123950
:1051A00069A0A000C040404040E0025A6A50206020
:1051B00010708888888870025969285000B0C888A3
:1051C0008888880259694020007088888888700221
:1051D00059691020007088888888700259693048A1
:1051E0000070888888887002596928500070888803
:1051F00088887002596950500070888888887003C8
:105200005767202000F8002020015868087098A8EF
:10521000A8C87080025969402000888888889868EA
:105220000259691020008888888898680259693076
:105230004800888888889868025969505000888892
:1052400088889868005B6B102000888888986808B8
:105250008870005A6A8080B0C88888C8B080800092
:105260005B6B505000888888986808887000000040
:10527000000000000000000000000000000000002E
:10528000000000000000000000000000000000001E
:105290000C000000000000000C00000000000000F6
:1052A00012000000000000002300000000000000C9
:1052B00021000000000000004C8000000000000001
:1052C0005E8000000000000092400000000000002E
:1052D000A1400000000000012120000000000002A9
:1052E0007F90000000000002001000000000000796
:1052F000FFF80000000000040008000000000008A3
:10530000000400000000000800060000000000107B
:1053100000020000000000301E010000000000201C
:105320007F81000000000041FFE08000000000439A
:10533000FCF08000000000873B7840000000018EF8
:10534000DBFC60000000010FEBCC20000000021F1E
:10535000EDB610000000021FDEB610000000043998
:10536000CD7F080000000436E0FF08000000087E42
:10537000C0BB84000000187F005D86000000107F25
:10538000C0ED82000000203CC07301000000203B03
:10539000337F01000000701BE77E03800000C81D02
:1053A000EEDE04C00000880FDEDC04400001240FA4
:1053B000DF3C092000012607DBF8192000027203F8
:1053C000E7F0139000025101FFE0229000048900F1
:1053D0007F802448000904801E004824000BFE4002
:1053E0000000DFF40010004000008002001FFFFFFB
:1053F000FFFFFFFE000000000000000000000000B2
:10540000000000000000000000000000001022105A
:105410003C3C0E1F00102210042211040010221028
:105420000822110400102210083C11040010221060
:10543000102211040010221020221104001E1C1E34
:105440003C3C0E04000000000000000000000000D2
:10545000000000000000000000000000000000004C
:10546000000000000000000000000000000000003C
:10547000000000000000000000000000000000002C
:10548000000000000000000000000000000000001C
:10549000000000000000000000000000000000000C
:1054A0000000000000000000000000526573656EFF
:1054B000643A20002042002050006F6B004B494CA2
:1054C0004C45442E20004B494C4C2063617573655C
:1054D00064206279204B494C4C20627574746F6E65
:1054E0002F70696E0A004B494C4C45442E20004BEE
:1054F000494C4C2063617573656420627920746F38
:105500006F206D75636820696E61637469766520CC
:1055100074696D65202D2063757272656E742063E9
:105520006F6D6D616E643A20004D36303020423030
:10553000005072696E7420706175736564004D313E
:10554000323500004D3234005072696E7420616251
:105550006F72746564004E6F2053442063617264FF
:10556000005072696E742066726F6D205344005350
:10557000746F70207072696E7400526573756D651A
:10558000207072696E740050617573652070726965
:105590006E740041626F7574204669726D77617236
:1055A00065004368616E67652066696C616D656E54
:1055B0007400436F6E66696775726174696F6E001F
:1055C00054656D7065726174757265004D6F7665B6
:1055D0006D656E740054756E6500496E666F20735C
:1055E000637265656E004B494C4C45442E200000AB
:1055F000E1D857E311241FBECFEFD1E2DEBFCDBF0C
:1056000000E00CBF14E0A0E0B2E0E8E6F5E402E060
:105610000BBF02C007900D92AE30B107D9F725E15C
:10562000AEE0B4E001C01D92AE32B207E1F71AE27B
:10563000C9EFDAE200E006C021970109802FFE01E0
:105640000F943022C83FD10780E00807A9F70E94D5
:1056500012870D94A3220C9400002F923F924F9238
:105660005F926F927F928F929F92AF92BF92CF92F2
:10567000DF92EF92FF920F931F93CF93DF93CDB7FB
:10568000DEB7C757D1090FB6F894DEBF0FBECDBF46
:1056900000911F0720E6029F8001112401561A4F36
:1056A0008091801480FF1AC0EAE6F2E384917F01C2
:1056B0003FEFE31AF30A811102C0780104C00F948E
:1056C0006814F701F3CFD7018D917D01882319F07C
:1056D0000F946814F8CF8AE00F94681410922D0488
:1056E00010922C048FE38093420410924104109294
:1056F0004004109228041092290410922A04109257
:105700002B04F80180810F5F1F4F8032D1F38E345C
:10571000B1F4818190ED980F9A3020F08D3211F024
:105720008B3269F43296DF0131962C9120532A3066
:10573000D0F3CD01FC01019620812032D9F3F09302
:105740007714E09376147F01BFEFEB1AFB0A108108
:105750006AE270E0C7010F947422009731F0FC01F7
:10576000319780818032E1F311821D3429F01435A4
:1057700019F0173409F0C9C0F70180812FEFE21A40
:10578000F20A8032C9F380538A3008F0BEC0109309
:10579000420420914004309141044AE03196429FF6
:1057A000C001439F900D1124DF0111972C9130E02F
:1057B00020533109280F391F808180538A3070F3BC
:1057C0003093410420934004DF0131968C91803264
:1057D000D9F31D34D1F42E31310591F03CF4273149
:1057E000310571F02C31310581F40AC025373105BE
:1057F00064F02737310524F0203A43E0340729F4D8
:10580000B0932D04A0932C0480C010922D0410920C
:105810002C040091761461E070E0FD0131968C91CA
:10582000882309F472C08132A1F41D3491F420322E
:10583000310579F4F0932D04E0932C0463E270E0D9
:10584000CF010F947422009709F45FC0DC011C9211
:105850005CC09FEBD92ED80E49E1C42ECD14C0F107
:10586000AF01FA0190814F5F5F4F9032D1F340ED6D
:10587000490F4A3040F043ED490F423020F09B324F
:1058800011F00C94A742AF01AD2CB12C7501A3E02F
:10589000F594E794AA95E1F7C701885D9B4F7C01D9
:1058A0008D2D8770DB0102C0AA0FBB1F8A95E2F71E
:1058B000CD01D7019C91892B8C934115510511F095
:1058C000401B01C040E0D501A25FBB4F4C930AC012
:1058D00080912C0490912D04892B21F4B0932D04F8
:1058E000A0932C04808181548A3110F4DF0195CF7C
:1058F000DF0131969C9190539A30D0F3CD01FC0199
:10590000019640814032D9F3F1CF809142048D3429
:1059100011F40C947335843511F40C944942873496
:1059200011F00C948A4280914004909141048A3194
:10593000910509F470C7A4F48430910544F48230D1
:1059400091050CF01EC197FF2AC00C94A44284302C
:10595000910509F4D7C60C9709F41BC70C94A4420F
:105960008E31910509F4FEC73CF48C31910509F4A0
:10597000E3C70CF457C7E5C78B35910511F40C94B8
:1059800038358C35910511F40C943D358A359105E7
:1059900011F00C94A44210923F040C94A442809104
:1059A0007F02882311F40C94A4420E9438628BE792
:1059B0009DE00F9460100E9415858091801483FDF6
:1059C0008FC0C090870DD090880DE090890DF09029
:1059D0008A0D2091D8073091D9074091DA0750916C
:1059E000DB07C701B6010F94081B882309F478C0B0
:1059F0008091D212811138C060916B0270916C025B
:105A0000072E000C880B990B0F940E1B9B01AC0109
:105A10006091CE127091CF128091D0129091D112DC
:105A20000F94081B87FF20C0C092D807D092D907D7
:105A3000E092DA07F092DB07EAE6F2E384918F0165
:105A40000F5F1F4F882321F00F946814F801F6CFE1
:105A5000ECE5F2E084918F010F5F1F4F882321F066
:105A60000F946814F801F6CFC090870DD090880D80
:105A7000E090890DF0908A0D2091D8073091D907D8
:105A80004091DA075091DB07C701B6010F94401F20
:105A900020E030E048E453E40F946721181604F541
:105AA000C092D807D092D907E092DA07F092DB07CC
:105AB000EAE6F2E384918F010F5F1F4F882321F004
:105AC0000F946814F801F6CFEDE3F2E084918F01B2
:105AD0000F5F1F4F882321F00F946814F801F6CF51
