:100000000C94EC2A0D94140F0D94E90E0D94BE0E71
:100010000D94930E0D94680E0D943D0E0D94120EDA
:100020000C94AED30C941D2B0C941D2B0C941D2BF7
:100030000C941D2B0C9484DF0C941D2B0C941D2B05
:100040000C941D2B0C942DCC0C941D2B0C941D2B5F
:100050000C941D2B0C941D2B0C94A4CA0D943F0FD3
:100060000C941D2B0C94F4D20C941D2B0C941D2B72
:100070000C941D2B0C941D2B0C941D2B0C941D2BE0
:100080000C941D2B0C941D2B0C941D2B0C941D2BD0
:100090000C941D2B0C941D2B0C941D2B0C941D2BC0
:1000A0000C941D2B0C941D2B0C941D2B0C941D2BB0
:1000B0000C941D2B0C941D2B0C941D2B0C941D2BA0
:1000C0000C941D2B0C941D2B0C941D2B0C941D2B90
:1000D0000C941D2B0C941D2B0C941D2B0C941D2B80
:1000E0000C941D2B29442C441B441F442544634479
:1000F000304434443A443E44424448444C445044DE
:10010000634456445A445E44D09CD09CD79CD79CB0
:10011000D79CDE9CDE9CDE9CEB9CE59CE59CE59CF4
:1001200028D32ED33FD34AD352D367D356D367D3E2
:100130005AD35ED367D364D312EC17EC1CEC26ECD5
:1001400030ECA9EC3AEC42EC4AEC54EC5EEC68EC96
:1001500077EC81ECA9EC8BEC95EC9FEC084AD73B53
:100160003BCE016E84BCBFFDC12F3D6C74319ABD86
:1001700056833DDA3D00C77F11BED9E4BB4C3E91AA
:100180006BAAAABE000000803F05A84CCDB2D44E99
:10019000B93836A9020C50B9918688083CA6AAAA9B
:1001A0002ABE000000803F000D94890F0D94710C51
:1001B0000D94CF100D947C0A434F4D4D554E49433D
:1001C0004154494F4E0044525952554E00455252E7
:1001D0004F525300494E464F004543484F0020744C
:1001E0006F6F206C6F6E6720657874727573696FBE
:1001F0006E2070726576656E7465640A0020636FA8
:100200006C6420657874727573696F6E20707265A6
:1002100076656E7465640A0047322F473320626149
:100220006420706172616D65746572730A00205A92
:100230003A200020593A200042656420583A2000B4
:100240004E6F206D6F76652E004D31323500466958
:100250006C652064656C657465643A0044656C6522
:1002600074696F6E206661696C65642C2046696CE8
:10027000653A20006F70656E206661696C65642C5C
:100280002046696C653A20002569730025696D2058
:10029000256973002569682025696D20256973002B
:1002A000256964202569682025696D20256973000A
:1002B00025697920256964202569682025696D20D4
:1002C000256973005072696E742074696D653A20F7
:1002D000004578747275646572202573004C756CE6
:1002E0007A426F74204D696E69204C4344207265D8
:1002F0006164792E00D901D401CD01C601B8016F26
:1003000066660044454255473A006F6B00436F6F85
:100310006C696E6720646F6E652E00486561746954
:100320006E6720646F6E652E0020573A0045787422
:100330007275646572202573004C756C7A426F7417
:10034000204D696E69204C43442072656164792EAA
:100350000042656420646F6E652E0020573A0042AB
:1003600065642068656174696E672E00426564206B
:10037000636F6F6C696E672E004C756C7A426F7498
:10038000204D696E69204C4344204F66662E004321
:1003900061703A454D455247454E43595F50415271
:1003A0005345523A310A004361703A434153455F25
:1003B0004C494748545F4252494748544E4553536D
:1003C0003A300A004361703A544F47474C455F4CFE
:1003D00049474854533A300A004361703A534F46F4
:1003E00054574152455F504F5745523A300A0043E7
:1003F00061703A4C4556454C494E475F4441544123
:100400003A310A004361703A5A5F50524F42453ABE
:10041000310A004361703A4155544F4C4556454CA2
:100420003A310A004361703A5052494E545F4A4F84
:10043000423A310A004361703A50524F4752455395
:10044000533A300A004361703A4155544F52455077
:100450004F52545F54454D503A310A004361703A4F
:10046000454550524F4D3A310A004649524D574189
:1004700052455F4E414D453A4D61726C696E202088
:100480004649524D574152455F56455253494F4E8A
:100490003A312E312E352E343020455854525544A1
:1004A00045525F545950453A53696E676C654578BB
:1004B00074727564657220534F555243455F434FC4
:1004C00044455F55524C3A68747470733A2F2F63E9
:1004D0006F64652E616C6570686F626A65637473C2
:1004E0002E636F6D2F646966667573696F6E2F4D2D
:1004F00041524C494E2050524F544F434F4C5F563F
:10050000455253494F4E3A312E30204D41434849D0
:100510004E455F545950453A4C756C7A426F742081
:100520004D696E69204C434420455854525544450A
:10053000525F434F554E543A3120555549443A3055
:10054000383366363866312D303238652D343934DB
:10055000632D393865312D663265306466616565B5
:100560003961350A002F2F20004D31343520533C9E
:10057000696E6465783E206F7574206F66207261C5
:100580006E67652028302D31290A0053657474691F
:100590006E672054726176656C20416363656C659B
:1005A000726174696F6E3A200053657474696E6786
:1005B000205265747261637420416363656C657277
:1005C0006174696F6E3A200053657474696E6720B8
:1005D0005072696E7420416363656C657261746901
:1005E0006F6E3A200053657474696E6720507269AB
:1005F0006E7420616E642054726176656C20416374
:1006000063656C65726174696F6E3A2000205A00F0
:10061000205900580020204D61783A2000205A00CF
:10062000205900580020204D696E3A20004F6E205E
:10063000004F666600536F667420656E6473746F56
:1006400070733A200020643A0020693A0020703A22
:100650000020643A0020693A0020703A0043290AD9
:100660000061626C656420286D696E2074656D7030
:100670002000436F6C642065787472756465732024
:100680006172652000426564204C6576656C696E18
:100690006720004661696C656420746F20656E6137
:1006A000626C6520426564204C6576656C696E6796
:1006B0000A00426564204C6576656C20436F727257
:1006C000656374696F6E204D61747269783A003A9F
:1006D00020007A5F6D696E3A20202D32207A5F6D9E
:1006E00061783A202035005A204F66667365742081
:1006F000004E6F2063617365206C696768740A003F
:100700004163746976652045787472756465723AE0
:100710002000556E6B6E6F776E20636F6D6D616E2E
:10072000643A202200000020002300260029002C2B
:10073000002F003200000100000301060109010042
:100740000000000000C0C0000000C0000025430001
:10075000003F4300001F4320706F736974696F6E20
:10076000206F7574206F662072616E67652E0A00B7
:100770003F50726F6265200020204E6F7A7A6C6560
:100780003A2000200066696C616D656E7420756E9C
:100790006C6F6164005761697420666F720050521B
:1007A000494E54205041555345440020204E6F7A05
:1007B0007A6C653A20006368616E6765006F662039
:1007C0007468652066696C616D656E740057616957
:1007D0007420666F72207374617274005052494EB7
:1007E00054205041555345440020204E6F7A7A6C76
:1007F000653A200020004261636B004D696E696DAF
:10080000756D2054656D70206973203132302E0073
:1008100048656174696E67206661696C656400256E
:10082000753A2530327500253032753A25303275EB
:100830000025756420253032753A25303275000068
:10084000060900FE000000000001090008FE00008B
:1008500005080806000040F0C88888987810050848
:1008600008060000C0F88888888888F8050505060D
:1008700000012030F830200508080600002070F83C
:1008800020202020E00509090600FF2070A8A8B854
:10089000888870200509090600FFE080C0B0A828FC
:1008A0003028280509090600FFF8A8888888888864
:1008B000A8F8050A0A0600FE205050505088A8A843
:1008C000887003030306000340A04000060900FEF1
:1008D000070192032120FFFF08FF07FF0000000629
:1008E00000000107070602008080808080008003EE
:1008F0000202060105A0A00507070600005050F8F7
:1009000050F850500507070600002078A07028F026
:1009100020050707060000C0C810204098180507EA
:10092000070600006090A040A8906802030306013B
:1009300004C04080030707060100204080808040FB
:100940002003070706010080402020204080050585
:100950000506000120A870A8200505050600012055
:1009600020F820200203030602FFC0408005010199
:10097000060003F8020202060200C0C005050506D3
:1009800000010810204080050707060000708888D5
:100990008888887003070706010040C04040404037
:1009A000E0050707060000708808708080F80507DA
:1009B00007060000F81020100808F00507070600D9
:1009C0000010305090F81010050707060000F8805E
:1009D000F008088870050707060000708080F0881E
:1009E0008870050707060000F80810202020200561
:1009F000070706000070888870888870050707065A
:100A0000000070888878080870020505060200C09A
:100A1000C000C0C00206060602FFC0C000C0408081
:100A20000407070600001020408040201005030343
:100A3000060002F800F804070706010080402010B5
:100A4000204080050707060000708808102000205D
:100A500005070706000070880868A8A87005070742
:100A6000060000708888F888888805070706000057
:100A7000F08888F08888F0050707060000708880F5
:100A800080808870050707060000F08888888888BD
:100A9000F0050707060000F88080F08080F8050761
:100AA00007060000F88080F08080800507070600B8
:100AB00000708880B888887005070706000088885D
:100AC00088F8888888010707060200808080808077
:100AD0008080050707060000381010101090600590
:100AE00007070600008890A0C0A0908805070706A9
:100AF0000000808080808080F8050707060000885D
:100B0000D8A8888888880507070600008888C8A8AC
:100B1000988888050707060000708888888888708C
:100B2000050707060000F08888F080808005070729
:100B300006000070888888A89068050707060000EE
:100B4000F08888F0A090880507070600007880806C
:100B5000700808F0050707060000F8202020202074
:100B600020050707060000888888888888700507A0
:100B70000706000088888888885020050707060037
:100B8000008888888888A85005070706000088889C
:100B90005020508888050707060000888888502064
:100BA0002020050707060000F80810204080F80301
:100BB0000707060100E08080808080E005050506CB
:100BC00000018040201008030707060100E02020F4
:100BD000202020E0050303060004205088050101C1
:100BE000060000F80202020602058040050505061F
:100BF000000070087888780507070600008080B03C
:100C0000C88888F00505050600007080808870059A
:100C10000707060000080868988888780505050613
:100C200000007088F880700507070600003048E073
:100C3000404040400506060600FF7088887808702E
:100C40000507070600008080B0C88888880107076C
:100C5000060200800080808080800308080601FF73
:100C6000200020202020A0400407070600008080EC
:100C700090A0C0A090030707060100C0404040407C
:100C800040E0050505060000D0A8A8A8A8050505B0
:100C9000060000B0C8888888050505060000708831
:100CA0008888700506060600FFF08888F0808005B9
:100CB00006060600FF7888887808080505050600FE
:100CC00000B0C880808005050506000070807008AF
:100CD000F00407070600004040E0404040300505B2
:100CE00005060000888888986805050506000088C4
:100CF000888850200505050600008888A8A85005AA
:100D0000050506000088502050880506060600FFED
:100D1000888888780870050505060000F8102040CE
:100D2000F8030707060100204040804040200107EB
:100D3000070602008080808080808003070706010C
:100D4000008040402040408005020206000268907A
:100D50000000000600000000000600000000000681
:100D60000000000000060000000000060000000077
:100D70000006000000000006000000000006000061
:100D80000000000600000000000600000000000651
:100D90000000000000060000000000060000000047
:100DA0000006000000000006000000000006000031
:100DB0000000000600000000000600000000000621
:100DC0000000000000060000000000060000000017
:100DD0000006000000000006000000000006000001
:100DE00000000006000000000006000000000006F1
:100DF00000000000000600000000000600000000E7
:100E000000060000000000060000000000060000D0
:100E100000000006000000000006000001070706B1
:100E20000200800080808080800507070600002087
:100E300070A8A0A87020050707060000304040E019
:100E40004050A80505050600008870507088050709
:100E500007060000885020F820F820010707060246
:100E600000808080008080800508080600003048EF
:100E7000205050209060030101060107A0050707DC
:100E8000060000F888B8B8B888F80507070600011A
:100E9000700878887800F80505050600012850A03C
:100EA0005028050303060001F808080202020602A2
:100EB000064080050707060000F888A88898A8F86B
:100EC000050101060006F804040406000360909082
:100ED000600507070600002020F8202000F8040520
:100EE0000506000360902040F0030505060003E0BE
:100EF00020E020E002020206020640800508080603
:100F000000FF8888888898E8808005070706000029
:100F100078989878181818020202060202C0C002D7
:100F200002020602FF408003050506000340C040A0
:100F300040E0050707060001708888887000F80502
:100F40000505060001A0502850A00507070600006F
:100F50008890A858B808080507070600008890B8C8
:100F600048982038050808060000C040C048D83816
:100F7000080805070706000020002040808870054B
:100F800008080600004020007088F88888050808D6
:100F90000600001020007088F88888050808060000
:100FA000002050007088F88888050808060000684E
:100FB00090007088F88888050808060000500070C6
:100FC0008888F88888050808060000205020708866
:100FD000F888880507070600003860A0B8E0A0B8C8
:100FE0000508080600FF708880808870206005086A
:100FF00008060000402000F880F080F80508080688
:101000000000081000F880F080F8050808060000CD
:10101000205000F880F080F8050707060000500017
:10102000F880F080F8030808060100804000E040E6
:101030004040E0030808060100204000E040404036
:10104000E003080806010040A000E0404040E00343
:101050000707060100A000E0404040E00507070642
:101060000000704848E84848700508080600006815
:10107000900088C8A89888050808060000402070DD
:101080008888888870050808060000102070888805
:10109000888870050808060000205000708888883D
:1010A0007005080806000068900070888888700540
:1010B00008080600005000708888888870050505BB
:1010C00006000188502050880508080600FF1070AF
:1010D000A8A8A8A870400508080600004020888835
:1010E000888888700508080600001020888888888D
:1010F00088700508080600002050008888888870DD
:10110000050808060000500088888888887005084F
:10111000080600001020885020202020050909061C
:1011200000FFC040704848704040E00408080601D5
:10113000FF609090A09090E08005080806000040B5
:101140002000700878887805080806000010200044
:10115000700878887805080806000020500070089C
:10116000788878050808060000689000700878887C
:101170007805070706000050007008788878050891
:1011800008060000205020700878887805060606BA
:101190000000D02878A0A8500506060600FF708041
:1011A000887020600508080600004020007088F85C
:1011B00080700508080600001020007088F8807014
:1011C0000508080600002050007088F880700507A8
:1011D0000706000050007088F880700308080601B8
:1011E0000080400040C04040E003080806010020A5
:1011F000400040C04040E003080806010040A00055
:1012000040C04040E0030707060100A00040C04086
:1012100040E0050707060000A040A0107888700590
:101220000808060000689000B0C88888880508088B
:1012300006000040200070888888700508080600B5
:1012400000102000708888887005080806000020BB
:1012500050007088888870050808060000689000B3
:10126000708888887005070706000050007088881D
:1012700088700505050600012000F8002005070715
:101280000600FF1070A8A8A8704005080806000016
:10129000402000888888986805080806000010200B
:1012A0000088888898680508080600002050008893
:1012B0008888986805070706000050008888889885
:1012C000680509090600FF102000888888F8087062
:1012D0000407070601FFC04060506040E0050808B1
:1012E0000600FF50008888887808705A0059005816
:1012F00000092000000000000000000000000000C5
:101300007FFFE0000000000000000000000000700F
:1013100000E000000000000000000000000061F894
:101320006000000000000000000000000041F82004
:1013300000000000000000000000000040F020005D
:1013400000000000000000000000004060200000DD
:10135000000000000000000000005801A07F800095
:101360000000000000004104005C63A0FFC000001A
:1013700000000000002082005EF7A0FFC000000017
:10138000000000002082005EF7A0FFC00000000007
:101390000000004104005C63A07F800000000000AA
:1013A00000008208005801A07F80000000000000BB
:1013B00001041000406020FFC00000000000000198
:1013C00004100040F020FFC0000000000000008278
:1013D000080041F820FFC0000000000000004104A8
:1013E0000061F8603F000000000000000000000005
:1013F0007000E01E0000000000000001FFFF807F81
:10140000FFE00C0000000000000001FFFF80000072
:10141000000000000000000000000000007FFFE06E
:101420000000000000000000000000007000E0006C
:101430000000000000000000000000630C600000DD
:1014400000000000000000000000470E2000000027
:101450000000000000000000004F0F20000000000E
:1014600000000000000000005F0FA000000000006E
:10147000000000000000005E07A07F800000000068
:10148000000000410400406020FFC0000000000098
:10149000000020820040F020FFC00000000000009B
:1014A0000020820040F020FFC0000000000000008B
:1014B0004104004060207F800000000000000082A6
:1014C00008005E07A07F80000000000000010410FB
:1014D000005F0FA0FFC0000000000000010410002A
:1014E0004F0F20FFC00000000000000082080047EE
:1014F0000E20FFC000000000000000410400630C4B
:10150000603F00000000000000000000007000E0EC
:101510001E0000000000000001FFFF807FFFE00CC4
:101520000000000000000001FFFF800000004530C7
:101530003A20005A3A2000593A2000583A20004DEB
:1015400053312C4D53322050696E730A00204200F3
:101550002050006F6B00526573656E643A2000295D
:101560000A002062797465733B2063726320005324
:10157000657474696E67732053746F726564202894
:1015800000456E642066696C65206C6973740A009E
:10159000426567696E2066696C65206C6973740AC0
:1015A0000001050800FF060121023520FFFF07FFAB
:1015B00006FF090050221656808080800080153377
:1015C00053A0A0A00257575050F850F8505002575F
:1015D000572070A07028702013355580A040A0209F
:1015E00002475740A0A040A0A05025135380808000
:1015F000122656408080808040122656804040400F
:1016000040800245559060F060900255552020F8CA
:101610002020113353604080044151F01133534076
:10162000E04002465610102040808012365640A0FE
:10163000A0A0A04012365640C0404040E0024656AE
:101640006090106080F0024656F0206010906002BA
:1016500046562060A0F02020024656F080E0109010
:10166000600246566080E0909060024656F010207E
:10167000204040024656609060909060024656605E
:101680009090701060122555C0C000C0C011365631
:101690006060006040801236562040808040200309
:1016A0004353F000F012365680402020408012361E
:1016B0005640A020400040015858304898A8A890B3
:1016C0004030024656609090F09090024656E0906E
:1016D000E09090E00246566090808090600246560E
:1016E000E090909090E0024656F080E08080F0021A
:1016F0004656F080E0808080024656609080B09030
:10170000600246569090F0909090123656E040401D
:101710004040E002465670202020A04002465690ED
:10172000A0C0A0A0900246568080808080F0024633
:101730005690F0F090909002465690D0F0B0B09055
:10174000024656609090909060024656E09090E07D
:101750008080014757609090D0B06010024656E0FC
:101760009090E09090024656609040209060123633
:1017700056E0404040404002465690909090906025
:10178000024656909090906060024656909090F07D
:10179000F09002465690906060909002565688886D
:1017A00050202020024656F010204080F01236567D
:1017B000E080808080E00246568080402010101239
:1017C0003656E020202020E016325240A001415140
:1017D000F016225280400244547090907002465697
:1017E0008080E09090E01234546080806002465621
:1017F00010107090907002445460B0C06002465661
:10180000205040E040400145556090701060024615
:10181000568080E09090901236564000C04040E0E4
:101820001137572000202020A0400246568080908B
:10183000E09090123656C040404040E0025454D0F0
:10184000A8A8A8024454E09090900244546090905C
:1018500060014555E090E080800145557090701022
:1018600010024454A0D0808012345460C020C002C2
:1018700046564040E04050200244549090907012F0
:101880003454A0A0A04002545488A8A85002445444
:10189000906060900145559090709060024454F0C3
:1018A0002040F0024757304020C0204030221656DA
:1018B000808080808080024757C02040304020C018
:1018C00006425250A0FFFFFFFFFFFFFFFFFFFFFF99
:1018D000FFFFFFFFFFFFFFFFFFFFFFFFFFFFFFFF18
:1018E000FFFFFFFFFFFF0900502216568000808097
:1018F00080800146562070A0A070200246562050DD
:10190000E04050A0025555887050708802565688A5
:1019100050F820F8202217578080800080808002B5
:1019200047577080E0907010E0173151A002565672
:1019300070A8C8C8A87014355560A06000E00343C3
:101940005350A050123353E02020143151E002567E
:101950005670E8D8E8D870173151E015335340A0DD
:101960004012355540E04000E014355540A020407D
:10197000E0143555C020C020C016225240800145D9
:1019800055909090E08002565678E8E86828282420
:10199000115180112252408014355540C04040E022
:1019A00014355540A04000E0034353A050A0024727
:1019B00057808080A060F0200247578080A0D01020
:1019C000207002475780408060A0F02012365640B9
:1019D000004080A04002475740206090F090900265
:1019E000475720406090F090900247576090609079
:1019F000F0909002475750A06090F09090024757A7
:101A000090006090F0909002475760906090F09046
:101A10009002465670A0A0F0A0B001475760908099
:101A2000809060400247574020F080E080F00247FD
:101A3000572040F080E080F00247576090F080E04F
:101A400080F00247579000F080E080F01237578016
:101A500040E0404040E01237572040E0404040E046
:101A600012375740A0E0404040E0123757A000E056
:101A7000404040E00256567048E8484870024757D8
:101A800050A090D0B0909002475740206090909026
:101A900060024757204060909090600247576090E6
:101AA000609090906002475750A0609090906002C4
:101AB000475790006090909060123353A040A0026E
:101AC000465670B0B0D0D0E002475740209090907A
:101AD0009060024757204090909090600247576076
:101AE00090909090906002475790009090909060F6
:101AF0000257571020885020202002465680E09040
:101B000090E0800246566090A0A090A00247574007
:101B100020007090907002475720400070909070A5
:101B20000247572050007090907002475750A00015
:101B30007090907002465650007090907002475717
:101B400060906070909070025454F068B0781135D5
:101B500055608080604002475740200060B0C06000
:101B600002475720400060B0C060024757609000B5
:101B700060B0C060024656500060B0C06012375777
:101B8000804000C04040E0123757204000C0404035
:101B9000E012375740A000C04040E0123656A00087
:101BA000C04040E0024757A040A01070906002473C
:101BB0005750A000E090909002475740200060905E
:101BC0009060024757204000609090600247576045
:101BD00090006090906002475750A0006090906025
:101BE0000246569000609090601235554000E0002B
:101BF0004002445470B0D0E002475740200090901B
:101C000090700247572040009090907002475760B4
:101C100090009090907002465690009090907001C5
:101C2000485820400090907090600147578080E0B5
:101C300090E080800147579000909070906001057F
:101C40000700FE0500FB01F220FFFE05FE05FE0277
:101C500000400215258080800080053242A0A0024D
:101C6000556550F850F8500146562070C030E020BD
:101C70000255659010204048025565608068906864
:101C80000512228080022535408080804002253563
:101C90008040404080043343A040A003334340E0F1
:101CA000400122324080043141E00211218002557E
:101CB0006508102040800245556090909060022594
:101CC00035C040404040024555E0106080F002457C
:101CD00055E0106010E00245552060A0F02002455C
:101CE00055F080E010E00245556080E090600245CC
:101CF00055F01020404002455560906090600245CC
:101D000055609070106003132380008002142480BB
:101D10000080800235452040804020033343E000AE
:101D2000E00235458040204080024555E0106000CB
:101D3000400255657088B8A870024555609090F0D3
:101D400090024555E090E090E0023545608080804B
:101D500060024555E0909090E0023545E080E080DB
:101D6000E0023545E080E080800245557080B0900B
:101D7000700245559090F09090023545E04040400B
:101D8000E0024555301010906002455590A0C0A06B
:101D90009002354580808080E002556588D8A8880B
:101DA0008802455590D0B090900245556090909033
:101DB00060024555E09090E080014656609090901A
:101DC0006010024555E09090E090024555708060AB
:101DD00010E0023545E0404040400245559090906B
:101DE00090600245559090A0A04002556588A8A833
:101DF000A850024555909060909002455590907083
:101E00001060023545E0204080E0022535C080802A
:101E100080C00255658040201008022535C0404032
:101E200040C005324240A0024151F00522328040BC
:101E30000244547090907002455580E09090E0020A
:101E40003444608080600245551070909070024468
:101E50005460B0C0600235452040E0404000465626
:101E600070909070106002455580E090909002153F
:101E7000258000808080002737400040404040801F
:101E80000245558090A0E0900215258080808080DA
:101E9000025464F0A8A8A8024454E0909090024430
:101EA0005460909060004656E09090E0808000463C
:101EB00056709090701010023444A0C0808002448C
:101EC0005470C030E002354540E0404020024454A8
:101ED000909090700244549090A040025464A8A83E
:101EE0005050023444A04040A0004656909090705C
:101EF0001060024454F02040F002354560408040BC
:101F0000600215258080808080023545C0402040D9
:101F1000C005425250A0FFFFFFFFFFFFFFFFFFFF82
:101F2000FFFFFFFFFFFFFFFFFFFFFFFFFFFFFFFFC1
:101F3000FFFFFFFFFFFFFF020040FFFFFFFFFFFF6C
:101F4000FFFFFFFFFFFFFFFFFFFFFFFFFFFFFFFFA1
:101F5000FFFFFFFFFFFFFFFFFFFFFFFFFFFFFFFF91
:101F6000FFFFFFFFFFFFFFFFFFFFFFFFFFFFFFFF81
:101F7000FFFFFFFFFFFFFFFFFFFFFFFFFFFFFFFF71
:101F8000FFFFFFFFFFFFFFFFFFFFFFFFFFFFFFFF61
:101F9000FFFFFFFFFFFFFFFFFF01060D00FE09012E
:101FA0006602D620FFFE0BFE0AFE0D0060221969B4
:101FB000808080808080800080183363A0A0A00390
:101FC00057675050F850F850500259692078A0A037
:101FD000702828F02002596948A85010204050A8C5
:101FE0009002586840A0A040A09890682813638091
:101FF0008080113B6B20404080808080804040206A
:10200000113B6B804040202020202040408006551E
:102010006520A870A8200455652020F820201133E1
:1020200063604080065161F811336340E04002591B
:1020300069080810102040408080025969205088AB
:102040008888888850200259692060A0202020209C
:1020500020F80259697088880810204080F80259D9
:1020600069F808102070080888700259691010304B
:10207000505090F81010025969F88080B0C80808D4
:10208000887002596970888080F088888870025949
:1020900069F8081010202040404002596970888873
:1020A00088708888887002596970888888780808DC
:1020B000887011386840E040000040E04011386806
:1020C00040E04000006040800259690810204080D4
:1020D00040201008045464F80000F8025969804058
:1020E000201008102040800259697088880810204C
:1020F00020002002596970888898A8A8B0807802CA
:1021000059692050888888F8888888025969F04879
:10211000484870484848F00259697088808080803B
:10212000808870025969F048484848484848F00299
:102130005969F8808080F0808080F8025969F880C1
:102140008080F080808080025969708880808098CB
:1021500088887002596988888888F88888888812F1
:102160003969E040404040404040E0025969381041
:1021700010101010109060025969888890A0C0A0BB
:102180009088880259698080808080808080F802F1
:1021900059698888D8A8A88888888802596988C811
:1021A000C8A8A898988888025969708888888888FB
:1021B000888870025969F0888888F0808080800162
:1021C0005A6A70888888888888A87008025969F0D7
:1021D000888888F0A090888802596970888080700B
:1021E00008088870025969F820202020202020202B
:1021F000025969888888888888888870025969881F
:10220000888888505050202002596988888888A87A
:10221000A8A8A85002596988885050205050888832
:10222000025969888850502020202020025969F8DE
:1022300008101020404080F8113B6BE080808080C7
:102240008080808080E002596980804040201010AA
:102250000808113B6BE0202020202020202020E0D7
:10226000085363205088015161F82A22628040029D
:102270005666700878889868025969808080F0886E
:10228000888888F002566670888080887002596954
:102290000808087888888888780256667088F880E8
:1022A000887002596930484040F040404040005832
:1022B000687088888878088870025969808080B042
:1022C000C8888888881238684000C040404040E094
:1022D000004A6A1000301010101090906002596986
:1022E00080808090A0C0A09088123969C040404092
:1022F00040404040E0025666D0A8A8A8A8880256F0
:1023000066B0C88888888802566670888888887011
:10231000005868F0888888F0808080005868788845
:10232000888878080808025666B0C88080808002D5
:1023300056667088601088700258684040F04040CF
:1023400040483002566688888888986802566688B1
:1023500088885050200256668888A8A8A85002563F
:1023600066885020205088005868888888986808B7
:102370008870025666F810204080F8015B6B1820C8
:10238000202020C0202020201822196980808080F1
:102390008080808080015B6BC0202020201820205E
:1023A0002020C008536348A890FFFFFFFFFFFFFFF6
:1023B000FFFFFFFFFFFFFFFFFFFFFFFFFFFFFFFF2D
:1023C000FFFFFFFFFFFFFFFFFFFF0D006022196906
:1023D0008000808080808080800358682070A8A062
:1023E000A0A8702002596930484040E0404048B001
:1023F000035666887050507088025969888850501A
:10240000F820F82020221969808080800080808058
:1024100080124A6A609080609090601090601A32DA
:1024200062A0A00359697088A8D8C8D8A888700489
:102430005767700878887800F80356662850A0A07F
:102440005028045363F80808163161E00359697095
:1024500088E8D8D8E8D888700A5161F817446460D1
:102460009090600357672020F8202000F80735651A
:1024700040A02040E007356540A04020C02A2262ED
:1024800040800058688888888898E8808002596968
:1024900078E8E8E8E868282828262161C020226238
:1024A000408007356540C04040E004576770888829
:1024B000887000F8035666A050282850A0025A6A77
:1024C00040C04040E00818283808025A6A40C0401E
:1024D00040E01028081038025A6A40A04020A04866
:1024E0001828380802596920002020408088887008
:1024F000025A6A40200020508888F88888025A6A68
:1025000010200020508888F88888025A6A304800D5
:1025100020508888F88888025A6A285000205088FD
:1025200088F88888025A6A50500020508888F888B5
:1025300088025A6A20502020508888F888880259DA
:102540006958A0A0A0B0E0A0A0B8005B6B70888024
:102550008080808088702040025A6A402000F88085
:1025600080F08080F8025A6A102000F88080F080A5
:1025700080F8025A6A304800F88080F08080F802C3
:102580005A6A505000F88080F08080F8123A6A80D1
:102590004000E04040404040E0123A6A204000E005
:1025A0004040404040E0124A6A609000E0404040B5
:1025B0004040E0123A6AA0A000E04040404040E0C5
:1025C000025969F0484848E8484848F0025A6A28E1
:1025D00050008888C8A8988888025A6A40200070ED
:1025E000888888888870025A6A10200070888888D5
:1025F000888870025A6A3048007088888888887095
:10260000025A6A28500070888888888870025A6A3E
:1026100050500070888888888870035565885020DD
:102620005088015B6B08709898A8A8A8C8C87080EB
:10263000025A6A40200088888888888870025A6A0E
:1026400010200088888888888870025A6A3048007C
:1026500088888888888870025A6A505000888888DC
:1026600088888870025A6A102000888850202020AC
:102670002002596980F0888888F08080800259693A
:10268000609090A0A0908888B002596940200070A6
:10269000087888986802596910200070087888982E
:1026A000680259693048007008788898680259694A
:1026B0002850007008788898680259695050007056
:1026C0000878889868025A6A30483000700878881C
:1026D0009868025666702870A0A8500058687088E4
:1026E0008080887020400259694020007088F880FE
:1026F00088700259691020007088F880887002592B
:10270000693048007088F88088700259695050001C
:102710007088F8808870123969804000C04040405D
:1027200040E0123969204000C040404040E012497A
:1027300069609000C040404040E0123969A0A000AC
:10274000C040404040E0025A6A50206010708888C3
:10275000888870025969285000B0C8888888880223
:102760005969402000708888888870025969102053
:10277000007088888888700259693048007088889D
:10278000888870025969285000708888888870028B
:1027900059695050007088888888700357672020D6
:1027A00000F8002020015868087098A8A8C8708018
:1027B0000259694020008888888898680259691001
:1027C000200088888888986802596930480088887D
:1027D0008888986802596950500088888888986865
:1027E000005B6B1020008888889868088870005A01
:1027F0006A8080B0C88888C8B08080005B6B505009
:102800000088888898680888700000000000000030
:1028100000000000000000000000000000000000B8
:102820000000000000000000000000000C0000009C
:10283000000000000C00000000000000120000007A
:102840000000000023000000000000002100000044
:10285000000000004C800000000000005E800000CE
:10286000000000009240000000000000A1400000B5
:102870000000000121200000000000027F90000005
:10288000000000020010000000000007FFF8000038
:102890000000000400080000000000080004000020
:1028A0000000000800060000000000100002000008
:1028B000000000301E010000000000207F810000A9
:1028C00000000041FFE0800000000043FCF08000B9
:1028D000000000873B7840000000018EDBFC6000B8
:1028E0000000010FEBCC20000000021FEDB610002D
:1028F0000000021FDEB6100000000439CD7F080082
:1029000000000436E0FF08000000087EC0BB840021
:102910000000187F005D86000000107FC0ED82007F
:102920000000203CC07301000000203B337F010009
:102930000000701BE77E03800000C81DEEDE04C0AF
:102940000000880FDEDC04400001240FDF3C09207A
:1029500000012607DBF8192000027203E7F013904C
:1029600000025101FFE02290000489007F8024488A
:10297000000904801E004824000BFE400000DFF424
:102980000010004000008002001FFFFFFFFFFFFE5D
:102990000000000000000000000000000000000037
:1029A0000000000000000000001022103C3C0E1F40
:1029B0000010221004221104001022100822110419
:1029C00000102210083C11040010221010221104E3
:1029D0000010221020221104001E1C1E3C3C0E047C
:1029E00000000000000000000000000000000000E7
:1029F00000000000000000000000000000000000D7
:102A000000000000000000000000000000000000C6
:102A100000000000000000000000000000000000B6
:102A200000000000000000000000000000000000A6
:102A30000000000000000000000000000000000096
:102A4000000000000000000A003B20454550524FA6
:102A50004D20496E6465783A200055706461746950
:102A60006E67207A6F666673657420696E204545CF
:102A700050524F4D3A2000060006000600060006A0
:102A80000006000600060006003FC01F800F00067B
:102A90000006000F001F803FC0060006000600066B
:102AA000000600060006000600060007F8000C0CF1
:102AB000001002002001006001804000804003E01F
:102AC0004001C04000804000004000006000002045
:102AD00000001000000C0C0007F80001FE000303CA
:102AE000000400800800401800601000207C0020D6
:102AF00038002010002000002000002000006000AE
:102B0000004000008003030001FE00FFFFFF7F8004
:102B1000FFC0FFC0FFC07F807F80FFC0FFC0FFC03D
:102B20003F001E000C005A204F6666736574004D0E
:102B30006F76652058004D6F76652059004D6F7691
:102B400065205A004578747275646572005344209C
:102B500063617264206F6B0A006F70656E526F6FF5
:102B600074206661696C65640A00766F6C756D65CA
:102B70002E696E6974206661696C65640A0053444D
:102B800020696E6974206661696C0A007C3C3E5E57
:102B90002B3D3F2F5B5D3B2C2A225C0043616E6E18
:102BA0006F74206F70656E207375626469722000A7
:102BB0004F666673657473206170706C696564003C
:102BC0004572723A20546F6F206661722100546F13
:102BD0006F206661722066726F6D20726566657225
:102BE000656E636520706F696E740A004861726477
:102BF000636F6465642044656661756C7420536519
:102C00007474696E6773204C6F616465640A002890
:102C10002300002823000064000000E803000000F7
:102C2000009643000096430000004100002042004F
:102C300000C9420000C9420000C84400405044207E
:102C40002863616C63756C6174656429210A0020D6
:102C5000213D2000454550524F4D20435243206DA9
:102C600069736D61746368202D202873746F7265B9
:102C700064292000290A002062797465733B20636F
:102C8000726320002073746F7265642073657474BE
:102C9000696E677320726574726965766564202851
:102CA00000204D61726C696E3D563430290A00284F
:102CB000454550524F4D3D00454550524F4D2076B1
:102CC000657273696F6E206D69736D6174636820DE
:102CD00000526573746F7265206661696C7361661A
:102CE00065004D3530320A4D353030004C6F61642F
:102CF0002073657474696E67730053746F72652016
:102D000073657474696E677300416476616E6365A0
:102D1000642053657474696E6773004D61696E0059
:102D20004C756C7A426F74204D696E69204C434437
:102D30002072656164792E00526573756D696E67E6
:102D4000207072696E7400436C69636B20746F202D
:102D5000726573756D652E2E2E00536C6565702E31
:102D60002E2E0020746F6F206C6F6E672065787454
:102D7000727573696F6E2070726576656E746564C6
:102D80000A0020636F6C6420657874727573696FD4
:102D90006E2070726576656E7465640A00436172B8
:102DA000642072656D6F76656400436172642069AA
:102DB0006E736572746564005265776970696E67D9
:102DC0000050726F62696E67206661696C656400AD
:102DD00050726F62696E67206661696C656400504D
:102DE000524F4245204641494C20434C45414E20DC
:102DF0004E4F5A5A4C450A005265776970696E67A2
:102E00000A005265776970696E670050726F626977
:102E10006E67206661696C65640050726F62696EEE
:102E200067206661696C65640050524F42452046D8
:102E300041494C20434C45414E204E4F5A5A4C4537
:102E40000A005265776970696E670A0050726F6296
:102E5000696E67206661696C65640A0050726F6212
:102E6000696E67206661696C656400205A3A2000CB
:102E700020593A200042656420583A20000A0A424C
:102E80006564204C6576656C20436F72726563746F
:102E9000696F6E204D61747269783A00202B000AC8
:102EA000436F72726563746564204265642048658F
:102EB000696768742076732E2042656420546F70B1
:102EC0006F6C6F67793A0A00202B000A4265642014
:102ED00048656967687420546F706F6772617068C5
:102EE000793A0A2020202B2D2D2D204241434B20C2
:102EF0002D2D2B0A2020207C202020202020202067
:102F00002020207C0A204C207C20202020282B29D7
:102F1000202020207C20520A2045207C20202020B8
:102F2000202020202020207C20490A2046207C20B0
:102F3000282D29204E20282B29207C20470A205488
:102F4000207C20202020202020202020207C2048A1
:102F50000A2020207C20202020282D29202020200D
:102F60007C20540A2020207C20202020202020208B
:102F70002020207C0A2020204F2D2D2046524F4E0D
:102F800054202D2D2B0A2028302C30290A004D6585
:102F9000616E206F662073616D706C656420706F68
:102FA000696E74733A200020643A200020623A204F
:102FB0000045716E20636F656666696369656E744E
:102FC000733A20613A200052756E6E696E6720690F
:102FD0006E204452592D52554E206D6F64650A0083
:102FE000473239204175746F20426564204C657604
:102FF000656C696E670A0028422961636B00284688
:1030000029726F6E74002852296967687400284C11
:1030100029656674003F4E756D626572206F66208B
:1030200070726F626520706F696E747320697320AF
:10303000696D706C61757369626C65202832206DF2
:10304000696E696D756D292E0A003F2856296572D3
:10305000626F7365206C6576656C20697320696D9D
:10306000706C61757369626C652028302D34292E6F
:103070000A00656E7175657565696E672022004589
:1030800072726F722077726974696E6720746F2034
:10309000454550524F4D210A00486F6D65202573FC
:1030A00025732573206669727374002066697273D4
:1030B000740A005A0059005800486F6D652000439B
:1030C000616E6E6F7420656E7465722073756264D4
:1030D00069723A2000022E2E004D61696E004D6F1C
:1030E000766520302E316D6D004D6F766520316D27
:1030F0006D004D6F76652031306D6D004D6F7665DA
:103100002061786973004578747275646572004D4A
:103110006F7665205A004D6F76652059004D6F76A9
:1031200065205800746F20726573756D6500576176
:10313000697420666F72207072696E740050524913
:103140004E5420504155534544004578747275647F
:1031500065206D6F726500526573756D65207072C4
:10316000696E7400524553554D45204F5054494F98
:103170004E533A0020204E6F7A7A6C653A20002038
:1031800000506C6561736520776169742E2E2E0086
:1031900048656174696E67206E6F7A7A6C6500505D
:1031A00052494E54205041555345440020204E6F03
:1031B0007A7A6C653A2000200068656174206E6F31
:1031C0007A7A6C652E005072657373206275747420
:1031D0006F6E20746F005052494E54205041555329
:1031E00045440020204E6F7A7A6C653A200020001A
:1031F00066696C616D656E7420657874727564655E
:10320000005761697420666F72005052494E542015
:103210005041555345440020204E6F7A7A6C653AF0
:103220002000200066696C616D656E74206C6F61B2
:1032300064005761697420666F72005052494E54A1
:10324000205041555345440020204E6F7A7A6C65DA
:103250003A2000746F20636F6E74696E75652E2E50
:103260002E00616E642070726573732062757474D1
:103270006F6E00496E736572742066696C616D656E
:103280006E74005052494E542050415553454400ED
:10329000506C6561736520726573657400505249A6
:1032A0004E5445522048414C544544005072696E7A
:1032B0007465722068616C7465642E206B696C6C37
:1032C00028292063616C6C6564210A006265640AC8
:1032D000002C2073797374656D2073746F70706542
:1032E0006421204865617465725F49443A20005446
:1032F0004845524D414C2052554E4157415900547A
:103300006865726D616C2052756E617761790048F5
:10331000656174696E67206661696C656400486503
:103320006174696E67206661696C656400486561F7
:1033300074696E67206661696C65640048656174D4
:10334000696E67206661696C65640053544F505024
:1033500045442E20005072696E7465722073746F3C
:10336000707065642064756520746F206572726F7B
:1033700072732E2046697820746865206572726FBA
:103380007220616E6420757365204D39393920745F
:103390006F20726573746172742E202854656D708D
:1033A00065726174757265206973207265736574E6
:1033B0002E205365742069742061667465722072D2
:1033C000657374617274696E67290A005772697453
:1033D000696E6720746F2066696C653A20006F70B3
:1033E000656E206661696C65642C2046696C653A7F
:1033F00020006F70656E206661696C65642C2046E4
:10340000696C653A200046696C652073656C65637C
:103410007465640A002053697A653A200046696C35
:1034200065206F70656E65643A20006F70656E2070
:103430006661696C65642C2046696C653A200020E1
:1034400066696C653A20004E6F7720002220706F0D
:1034500073002220706172656E743A2200535542E7
:10346000524F5554494E452043414C4C2074617293
:103470006765743A22004B494C4C45442E20007439
:103480007279696E6720746F2063616C6C2073754C
:10349000622D67636F64652066696C657320776968
:1034A000746820746F6F206D616E79206C6576652D
:1034B0006C732E204D4158206C6576656C206973C5
:1034C0003A005072696E742061626F7274656400B4
:1034D00041626F7574204669726D77617265004E46
:1034E0006F2053442063617264005072696E7420CF
:1034F00066726F6D2053440053746F702070726950
:103500006E7400526573756D65207072696E74001B
:103510005061757365207072696E7400436F6E66DA
:10352000696775726174696F6E0054656D7065725C
:103530006174757265004D6F76656D656E740043DC
:1035400068616E67652066696C616D656E740054B4
:10355000756E6500496E666F2073637265656E00F7
:103560000000000000003F4300001F435761726EDF
:10357000696E673A20486F6D696E672042756D709D
:103580002044697669736F72203C20310A00020280
:10359000040000A0400000A0400000004000002502
:1035A0004300004543000021430000F0410000F0CB
:1035B000410000004100000000FF01011000C902AD
:1035C00010012C014001220170011801B0010E010F
:1035D000F00104015002FA00B002F0003003E600EE
:1035E000D003DC009004D2007005C800A006BE0025
:1035F0000008B400B009AA00D00BA000600E96002D
:1036000060118C000015820020197800C01D6E002A
:10361000A0226400B0275A00902C500000314600D0
:10362000E0343C0010383200903A2800603C1E0024
:10363000A03D1400803E0A00203F00001000AD03B2
:1036400030016A0150022B0170030A019004F50059
:10365000B005E500D006D800F007CE001009C5007F
:10366000300ABE00500BB700700CB100900DAB00DB
:10367000B00EA600D00FA200F0109D00101299000D
:10368000301395005014920070158E0090168B0028
:10369000B0178700D0188400F0198100101B7E003D
:1036A000301C7B00501D7900701E7600901F730047
:1036B000B0207000D0216E00F0226B001024690051
:1036C00030256600502663007027610090285E0058
:1036D000B0295C00D02A5900F02B5600102D540060
:1036E000302E5100502F4E0070304B00903148006A
:1036F000B0324500D0334200F0343E0010363B007B
:10370000303737005038330070392E00903A290096
:10371000B03B2300D03C1B00F03D1100103F0100E6
:10372000F03F00007A5F6D61783A20007A5F6D6942
:103730006E3A2000795F6D61783A2000795F6D699B
:103740006E3A2000785F6D61783A2000785F6D698D
:103750006E3A20005265706F7274696E6720656EF4
:103760006473746F70207374617475730A004B49CD
:103770004C4C45442E200024F4D43050C38E20C23B
:10378000A24017828B7011127A910D816CD90AA810
:1037900061E108C7586607615143061E4B5D05C1CC
:1037A00045A7041A411104093D98037139310340BA
:1037B00036DB0265339102D4305402802E1D026341
:1037C0002CEE01752AC501B028A001102781018FB8
:1037D0002564012B244B01E0223401AC211F018D13
:1037E000200D01801FFC00841EED00971DDF00B836
:1037F0001CD200E61BC600201BBC00641AB200B23B
:1038000019A8000A19A0006A189900D11791004060
:10381000178B00B516840031167E00B31579003A77
:10382000157300C7146F0058146A00EE1366008801
:1038300013630025135E00C7125B006C125700155E
:10384000125400C111510070114F0021114B00D6CC
:103850001049008D1047004610440002104200C07D
:103860000F4000800F3E00420F3C00060F3B00CB94
:103870000E3800930E37005C0E3500270E3400F32F
:103880000D3200C10D3100900D3000600D2E003260
:103890000D2D00050D2C00D90C2B00AE0C29008538
:1038A0000C29005C0C2700350C27000E0C2600E8C4
:1038B0000B2400C40B2400A00B23007D0B23005A13
:1038C0000B2100390B2100180B2000F80A1F00D92A
:1038D0000A1E00BB0A1E009D0A1D00800A1D00630F
:1038E0000A1C00470A1B002C0A1B00110A1A00F7C9
:1038F000091A00DD091900C4091900AB0919009261
:103900000917007B091800630917004C09160036D7
:10391000091600200916000A091500F5081500E02F
:10392000081400CC081400B8081400A4081400906F
:103930000813007D0812006B081300580812004697
:1039400008120034081100230811001208110001A8
:10395000081100F0071000E0071000D0071000C0A9
:10396000071000B0070F00A107100091070E008399
:10397000070F0074070F0065070E0057070E004978
:10398000070E003B070D002E070E0020070D001349
:10399000070D0006070D00F9060C00ED060D00E00E
:1039A000060C00D4060C00C8060C00BC060C00B0C7
:1039B000060C00A4060B0099060C008D060B008275
:1039C000060B0077060B006C060B0061060A005719
:1039D000060B004C060A0042060A0038060A002EB2
:1039E000060A0024060A001A060A00100609000743
:1039F000060A00FD050900F4050900EB050900E2CF
:103A0000050900D9050900D0050900C7050900BE50
:103A1000050900B5050800AD050800A50509009CCD
:103A2000050800940508008C050800840508007C42
:103A3000050800740508006C050700650508005DB1
:103A4000050700560508004E05070047050700401A
:103A500005080038050700310507002A050700237F
:103A60000507001C050600160507000F05070008DE
:103A700005060002050700FB040600F5040700EE3A
:103A8000040600E8040600E2040700DB040600D593
:103A9000040600CF040600C9040600C3040600BDE6
:103AA000040600B7040600B1040500AC040600A635
:103AB000040600A00405009B040600950405009080
:103AC0000406008A04050085040500800406007AC7
:103AD00004050075040500700405006B040500660C
:103AE000040500610405005C04050057040500524C
:103AF0000405004D04050048040500430405003E8C
:103B00000404003A04050035040500300404002CC8
:103B100004050027040400230405001E0404001A01
:103B200004040016040500110404000D0404000937
:103B30000405000404040000040400FC030400F86D
:103B4000030400F4030400F0030400EC030400E8A1
:103B5000030400E4030400E0030400DC030400D8D1
:103B6000030400D4030400D0030400CC030400C801
:103B7000030300C503030024F404D9201BC40C5C18
:103B80000E9804C4095F0265077101F405F900FB92
:103B900004B30048048700C10369005803550003BB
:103BA000034500BE023A008402310053022A002974
:103BB00002250004022000E4011C00C8011900AF26
:103BC00001170098011400840113007101100061B5
:103BD00001100051010E0043010D0036010B002BB6
:103BE000010B0020010B00150109000C0109000365
:103BF000010800FB000800F3000800EB000700E4E8
:103C0000000600DE000600D8000600D2000600CC48
:103C1000000500C7000500C2000500BD000400B992
:103C2000000400B5000400B1000400AD000400A9C8
:103C3000000400A5000300A20003009F0004009BF5
:103C40000003009800030095000200930003009019
:103C50000003008D0002008B000300880002008634
:103C600000020084000300810002007F0002007D4A
:103C70000002007B0002007900020077000100765C
:103C80000002007400020072000100710002006F67
:103C90000002006D0001006C0002006A0001006972
:103CA0000002006700010066000100650001006479
:103CB0000002006200010061000100600001005F7D
:103CC0000002005D0001005C0001005B0001005A81
:103CD0000001005900010058000100570001005682
:103CE0000001005500010054000100530000005382
:103CF0000001005200010051000100500001004F7E
:103D00000001004E0000004E0001004D0001004C7B
:103D10000001004B0000004B0001004A0001004977
:103D20000001004800000048000100470001004673
:103D3000000000460001004500000045000100446D
:103D40000001004300000043000100420000004267
:103D50000001004100000041000100400001003F5F
:103D60000000003F0001003E0000003E0001003D59
:103D70000000003D0001003C0000003C0000003C51
:103D80000001003B0000003B0001003A0000003A47
:103D9000000100390000003900010038000000383F
:103DA0000000003800010037000000370001003635
:103DB000000000360000003600010035000000352C
:103DC0000000003500010034000000340000003421
:103DD0000001003300000033000000330001003216
:103DE000000000320000003200010031000000310C
:103DF0000000003100010030000000300000003001
:103E00000001002F0000002F0000002F0000002FF5
:103E10000001002E0000002E0000002E0001002DE9
:103E20000000002D0000002D0000002D0001002CDE
:103E30000000002C0000002C0000002C0001002BD2
:103E40000000002B0000002B0000002B0001002AC6
:103E50000000002A0000002A0000002A00010029BA
:103E600000000029000000290000002900000029AE
:103E700000010028000000280000002800000028A1
:103E80000000002800010027000000270000002794
:103E90000000002700000027000100260000002687
:103EA000000000260000002600000026000100257A
:103EB000000000250000002500000025000000256E
:103EC0000000002500010024000000240000002460
:103ED0000000002400000024000100230000002353
:103EE0000000002300000023000000230000002346
:103EF0000000002300010022000000220000002238
:103F00000000002200000022000000220001002129
:103F1000000000210000002100000021000000211D
:103F2000000000210000002100010020000000200E
:103F30000000002000000020000000200000002001
:103F400000000020000000200001001F0000001FF2
:103F50000000001F0000001F0000001F0000001FE5
:103F60000000001F0001001E0000001E0000001ED7
:103F70000000001E0000004D383420582059205AFF
:103F80002045004572723A204D494E54454D50200F
:103F9000424544004572723A204D494E54454D50B9
:103FA000004D494E54454D502074726967676572E3
:103FB0006564004572723A204D415854454D502079
:103FC000424544004572723A204D415854454D5087
:103FD000004D415854454D502074726967676572B1
:103FE0006564004D36303020486F74656E6420740F
:103FF0006F6F20636F6C6420746F206368616E67FD
:10400000652066696C616D656E740A004B64200002
:1040100023646566696E65202044454641554C54CD
:104020005F004B69200023646566696E652020444B
:10403000454641554C545F004B7020002364656633
:10404000696E65202044454641554C545F005049F7
:1040500044204175746F74756E652066696E69736E
:10406000686564212050757420746865206C6173E4
:1040700074204B702C204B6920616E64204B6420AF
:10408000636F6E7374616E74732066726F6D2062FD
:10409000656C6F7720696E746F20436F6E66696719
:1040A00075726174696F6E2E680A00504944204130
:1040B00075746F74756E65206661696C6564212026
:1040C00074696D656F75740A0050494420417574B8
:1040D0006F74756E65206661696C65642120546536
:1040E0006D706572617475726520746F6F20686998
:1040F00067680A00204B643A2000204B693A200090
:10410000204B703A20000A20436C6173736963206E
:10411000504944200A002054753A2000204B753A3B
:104120002000206D61783A2000206D696E3A2000F1
:1041300020643A200020626961733A2000021FFF68
:10414000FFFFFFFFFF600000000001FF40000000D4
:104150000000FF8000000000007F83CF00000C30D3
:104160003F87FF80000C301F867980000C000F8C89
:1041700030C7838C30E78C30CFC7CC31F38C30DC48
:10418000ECEC33B98C30D86C6C33198C30D06C0CAF
:1041900033198C30D86C0C33198C30DC6C0E3B1915
:1041A0008C30CF7C079F198C30C77C038F1940005F
:1041B0000000000002600000000000061FFFFFFF7B
:1041C000FFFFF82020506C616E6E65724275666666
:1041D000657242797465733A2000204672656520E5
:1041E0004D656D6F72793A2000436F6D70696C6533
:1041F000643A204E6F7620323020323031370A0058
:10420000207C20417574686F723A2028416C65707B
:1042100068204F626A6563747320496E632E2C2098
:104220004C756C7A426F7420476974205265706FC8
:104230007369746F7279290A004E6F7620323020CC
:104240003230313731363A30353A323100204C6134
:10425000737420557064617465643A2000312E31A6
:104260002E350A004D61726C696E0020536F6674C2
:10427000776172652052657365740A002057617416
:104280006368646F672052657365740A0020427228
:104290006F776E206F75742052657365740A002005
:1042A00045787465726E616C2052657365740A009E
:1042B000506F77657255700A0073746172740A00EA
:1042C0006572726F722077726974696E6720746F9D
:1042D0002066696C650A004572726F723A00456E1D
:1042E0006473746F70732025632025632025632019
:1042F000256300205A3A0020593A0020583A0065B8
:104300006E6473746F7073206869743A200065631B
:10431000686F3A00446F6E6520736176696E67203E
:1043200066696C652E0A004D3239004F6666004F93
:104330006E2000456E6473746F702061626F7274DA
:104340000053746570732F6D6D004A65726B004188
:104350006363656C65726174696F6E0056656C6F3E
:1043600063697479005A204F66667365740041640E
:1043700076616E6365642053657474696E6773005B
:104380005654726176206D696E00565472617620C3
:104390006D696E005654726176206D696E00566DBF
:1043A000696E00566D696E00566D696E00566D61DE
:1043B00078204500566D6178204500566D61782063
:1043C0004500566D6178205A00566D6178205A007C
:1043D000566D6178205A00566D6178205900566DEF
:1043E0006178205900566D6178205900566D6178CA
:1043F000205800566D6178205800566D617820581D
:10440000004D6F74696F6E004573746570732F6D26
:104410006D004573746570732F6D6D005A7374650C
:1044200070732F6D6D005A73746570732F6D6D000E
:104430005973746570732F6D6D0059737465707363
:104440002F6D6D005873746570732F6D6D00587308
:10445000746570732F6D6D004D6F74696F6E0056CB
:10446000652D6A65726B0056652D6A65726B005624
:10447000652D6A65726B00567A2D6A65726B0056FF
:104480007A2D6A65726B0056792D6A65726B0056DB
:10449000792D6A65726B0056792D6A65726B0056CC
:1044A000782D6A65726B0056782D6A65726B0056BE
:1044B000782D6A65726B004D6F74696F6E0000062F
:1044C0000900FE06018902FE20FFFE07FE06FE002F
:1044D00000000600070106060602008080808000BA
:1044E00080030303060103A0A0A00507070600FF41
:1044F0005050F850F850500509090600FE2070A8E9
:10450000A07028A870200608080600FF40A84810E0
:10451000204854080507070600FF609090609890B7
:10452000680103030602038080800207070602FF7A
:10453000408080808080400207070602FF80404064
:10454000404040800505050600008850F850880569
:1045500005050600002020F820200204040602FEC3
:10456000C0404080050101060002F8020202060276
:1045700000C0C00406060601001010204080800420
:104580000606060100609090909060030606060102
:104590000040C0404040E004060606010060901064
:1045A0002040F0040606060100F020601010E0052F
:1045B000060606000010305090F8100406060601AA
:1045C00000F080E01010E00406060601006080E0C4
:1045D000909060040606060100F010102040400490
:1045E00006060601006090609090600406060601D1
:1045F00000609090701060020505060200C0C000C7
:10460000C0C00207070602FEC0C000C040408005CF
:104610000505060000186080601805030306000108
:10462000F800F8050505060000C0300830C0040792
:104630000706010060901060400040050606060075
:10464000007090A8B0807005060606000020508813
:10465000F88888050606060000F088F08888F004CF
:104660000606060100609080809060040606060140
:1046700000E090909090E0040606060100F080E0D3
:104680008080F0040606060100F080E0808080044F
:104690000606060100609080B090600406060601E0
:1046A000009090F0909090030606060100E04040D4
:1046B0004040E00506060600003810101090600427
:1046C000060606010090A0C0A09090040606060110
:1046D000008080808080F005060606000088D8A84B
:1046E000A8888804060606010090D0B09090900536
:1046F0000606060000708888888870040606060191
:1047000000E09090E080800407070601FF60909031
:10471000D0B06010040606060100E09090E0909092
:10472000040606060100609040209060050606061B
:104730000000F820202020200406060601009090AA
:1047400090909060040606060100909090F06060E2
:104750000506060600008888A8A8D888050606066B
:104760000000885020205088050606060000888832
:1047700050202020040606060100F010204080F0A2
:10478000030606060100E080808080E0040606063D
:104790000100808040201010030606060100E02082
:1047A000202020E0050303060003205088050101B6
:1047B0000600FEF802020206020480400404040619
:1047C0000100709090700406060601008080E09061
:1047D00090E0040404060100708080700406060660
:1047E000010010107090907004040406010060B085
:1047F000C070040606060100205040E04040040658
:10480000060601FE60909070106004060606010026
:104810008080E09090900306060601004000C040B2
:1048200040E00308080601FE200060202020A04090
:104830000406060601008080A0C0A09003060606BC
:104840000100C040404040E0050404060000D0A83C
:10485000A888040404060100E09090900404040673
:104860000100609090600406060601FEE09090E072
:1048700080800406060601FE7090907010100404FB
:1048800004060100A0D0808004040406010070C06A
:1048900030E00406060601004040E04050200404D9
:1048A00004060100909090700404040601009090AA
:1048B000606005040406000088A8A85004040406EB
:1048C0000100906060900406060601FE90909070D2
:1048D0009060040404060100F02040F0030707067E
:1048E0000100204040804040200107070602FF8071
:1048F0008080808080800307070601008040402080
:1049000040408004020206010350A0FFFFFFFFFFAA
:10491000FFFFFFFFFFFFFFFFFFFFFFFFFFFFFFFFA7
:10492000FFFFFFFFFFFFFFFFFFFFFFFF000000068D
:1049300000070106060602008000808080800406D1
:10494000060601FF2070A0A070200507070600FFE3
:10495000304840F04040F8050505060000A85088A2
:1049600050A80506060600008850F820F820010728
:10497000070602FF80808000808080040707060110
:10498000FF708060906010E0030101060105A00641
:104990000707060000788494A4948478030505062C
:1049A000010160A06000E00505050600002850A098
:1049B0005028040303060100F01010040101060151
:1049C00002F00607070600007884B4A4A4847804E3
:1049D0000101060105F00403030601026090600571
:1049E00007070600FF2020F8202000F80305050631
:1049F000010140A02040E0030505060101C0204060
:104A000020C002020206020440800405050601FFE0
:104A10009090B0D08005060606000078E8E8682887
:104A200028010101060202800202020602FE408005
:104A300003050506010140C04040E00305050601ED
:104A40000140A04000E0050505060000A0502850E8
:104A5000A00508080600FF40C040507030781005DF
:104A600008080600FF40C0405068081038050808D4
:104A70000600FFC0204030F0307810040707060120
:104A8000002000206080906005070706000040209D
:104A900020507088880507070600001020205070FD
:104AA0008888050707060000205020507088880578
:104AB0000707060000285020507088880507070661
:104AC000000050002050708888050707060000206D
:104AD00050205070888805060606000078A0F0A0D7
:104AE000A0B80408080601FE609080809060204015
:104AF0000407070601004020F080E080F00407076B
:104B00000601002040F080E080F004070706010065
:104B10002050F080E080F00407070601005000F00C
:104B200080E080F00307070601008040E04040403D
:104B3000E00307070601002040E0404040E0030793
:104B40000706010040A0E0404040E00307070601DF
:104B500000A000E0404040E0050606060000704866
:104B6000E848487004070706010050A090D0B090B4
:104B700090040707060100402060909090600407B1
:104B8000070601002040609090906004070706012E
:104B9000002050609090906004070706010050A02C
:104BA00060909090600407070601005000609090AC
:104BB000906005050506000088502050880408080C
:104BC0000601FF1070B0B0D0D0E0800407070601E6
:104BD000004020909090906004070706010020405C
:104BE00090909090600407070601002050909090EC
:104BF00090600407070601005000909090906005B7
:104C00000707060000102088502020200406060612
:104C1000010080E09090E0800406060601006090AC
:104C2000A0A090A00407070601004020007090900B
:104C30007004070706010020400070909070040780
:104C400007060100205000709090700407070601CD
:104C50000050A000709090700406060601005000FD
:104C6000709090700407070601002050207090900B
:104C70007005040406000070A8B07804060606015A
:104C8000FE7080807020400407070601004020006D
:104C900060B0C07004070706010020400060B0C08B
:104CA0007004070706010020500060B0C0700406C1
:104CB00006060100500060B0C0700307070601003F
:104CC000804000C04040E00307070601002040008C
:104CD000C04040E003070706010040A000C040407C
:104CE000E0030606060100A000C04040E0040707FC
:104CF0000601003060107090906004070706010004
:104D000050A000E0909090040707060100402000AA
:104D100060909060040707060100204000609090BA
:104D200060040707060100205000609090600407AF
:104D30000706010050A0006090906004060606017E
:104D4000005000609090600505050600002000F806
:104D5000002004040406010070B0D0E00407070638
:104D60000100402000909090700407070601002089
:104D700040009090907004070706010020500090BA
:104D80009090700406060601005000909090700408
:104D900009090601FE204000909090709060040880
:104DA000080601FE8080E09090E0808004080806FC
:104DB00001FE50009090907090600000220025004D
:104DC00028002B002E0031003400020100000501F4
:104DD00008010B0100002100240027002A002D00FB
:104DE0003000330001010000040107010A0105053C
:104DF0000505070508080808020202020A0A080851
:104E0000040404040101010101010101030303037E
:104E100003030303040707070C0C0C0C0C0C0C0C0D
:104E20000202020206060606060606060B0B0B0B1E
:104E30000B0B0B0B01021020200808102040102043
:104E4000408002010201080402010102040810204E
:104E5000408080402010080402018004020180404C
:104E600020100804020108040201010204081020B5
:104E70004080010204081020408000000A0B020953
:104E80000C0D0E08070304010000000000000000E4
:104E90000000000000000000000000000000000012
:104EA00000000000000012111000000000000000CF
:104EB00000000000000000000000000000000000F2
:104EC000000125301D0C1E24311C0B18232F1B0A3A
:104ED00017FFFF040806FF06222B1A41420438037D
:104EE000FF3628294527444350726F746563746503
:104EF000642050696E0A00004D3234005072696EB1
:104F00007420706175736564004D313235004D3623
:104F10003030204230004D3234004D323320257382
:104F2000006175746F25692E670045787472756429
:104F30006572004D6F7665205A004D6F7665205979
:104F4000004D6F76652058004D6F76656D656E7407
:104F5000004D6F7665206178697300446973616202
:104F60006C65207374657070657273004D38340021
:104F7000426564204C6576656C696E67004732381F
:104F80002058590A4D31303920533137350A4732CC
:104F900038205A0A4D31303920523134350A4731E0
:104FA000320A4732390A4D313034205330004175CE
:104FB000746F20686F6D6500473238004D61696E0F
:104FC0000020496E76616C6964206578747275643E
:104FD000657220005344207072696E74696E672098
:104FE0006279746520004E6F74205344207072699A
:104FF0006E74696E670A00202F002042403A00203C
:10500000403A004E6F204C696E65204E756D6265AA
:1050100072207769746820636865636B73756D2CA3
:10502000204C617374204C696E653A200053544FD4
:10503000505045442E20005072696E746572207382
:10504000746F707065642064756520746F2065727C
:10505000726F72732E2046697820746865206572BD
:10506000726F7220616E6420757365204D39393915
:1050700020746F20726573746172742E20285465D9
:105080006D706572617475726520697320726573E5
:1050900065742E205365742069742061667465728E
:1050A0002072657374617274696E67290A004E6FAD
:1050B00020436865636B73756D2077697468206C35
:1050C000696E65206E756D6265722C204C6173741B
:1050D000204C696E653A2000636865636B73756D7B
:1050E000206D69736D617463682C204C617374204A
:1050F0004C696E653A20004C696E65204E756D6294
:105100006572206973206E6F74204C617374204C3B
:10511000696E65204E756D6265722B312C204C6175
:105120007374204C696E653A20004D313130004D6A
:105130003331004D383420582059205A204500532F
:10514000442072656164206572726F720A00446F58
:105150006E65207072696E74696E672066696C6531
:105160000A004B494C4C45442E20004B494C4C20E6
:10517000636175736564206279204B494C4C2062F1
:105180007574746F6E2F70696E0A004B494C4C45F4
:10519000442E20004B494C4C20636175736564209C
:1051A000627920746F6F206D75636820696E61632A
:1051B000746976652074696D65202D20637572723F
:1051C000656E7420636F6D6D616E643A2000205AC5
:1051D0003A0020593A0020436F756E7420583A0007
:1051E00020453A00205A3A0020593A00583A002007
:1051F0004500205A0020204D393037205800537484
:105200006570706572206D6F746F72206375727255
:10521000656E74733A0A0020204D383531205A00EB
:105220005A2D50726F6265204F6666736574202830
:105230006D6D293A0A0020440020490020204D339A
:10524000303420500020440020490020204D3330CD
:10525000312050005049442073657474696E67733F
:105260003A0A0020460020420020480020204D310C
:1052700034352053004D6174657269616C20686536
:105280006174757020706172616D65746572733AD6
:105290000A0020204D3432302053004175746F20B5
:1052A000426564204C6576656C696E673A0A002039
:1052B0005A0020590020204D323036205800486FC7
:1052C0006D65206F66667365743A0A00204500209C
:1052D0005A0020590020580020420020540020206D
:1052E0004D323035205300416476616E6365643A17
:1052F00020533C6D696E5F66656564726174653EDE
:1053000020543C6D696E5F74726176656C5F666592
:105310006564726174653E20423C6D696E5F7365C1
:10532000676D656E745F74696D655F6D733E20585F
:105330003C6D61785F78795F6A65726B3E205A3C9C
:105340006D61785F7A5F6A65726B3E20453C6D6186
:10535000785F655F6A65726B3E0A002054002052D8
:105360000020204D323034205000416363656C656D
:10537000726174696F6E2028756E6974732F733251
:10538000293A20503C7072696E745F616363656C8A
:105390003E20523C726574726163745F6163636541
:1053A0006C3E20543C74726176656C5F616363652A
:1053B0006C3E0A00204500205A0020590020204D54
:1053C0003230312058004D6178696D756D20416330
:1053D00063656C65726174696F6E2028756E69749F
:1053E000732F7332293A0A00204500205A002059B1
:1053F0000020204D3230332058004D6178696D75A2
:105400006D206665656472617465732028756E69C8
:1054100074732F73293A0A00204500205A0020593E
:105420000020204D3932205800537465707320706D
:10543000657220756E69743A0A0020204D32303052
:105440002044300A0020204D3230302044002044D7
:10545000697361626C65640A0046696C616D656EB2
:10546000742073657474696E67733A0020204D313F
:1054700034392043203B20556E69747320696E20B7
:1054800043656C736975730A002020473231202010
:1054900020203B20556E69747320696E206D6D0A63
:1054A000005A204F666673657400466C6F7700463D
:1054B0006C6F770046616E207370656564004661AD
:1054C0006E20737065656400426564004265640027
:1054D0004E6F7A7A6C65004E6F7A7A6C6500537005
:1054E000656564005370656564004D61696E0041D7
:1054F0006D6178204500416D6178204500416D6106
:1055000078205A00416D6178205A00416D61782001
:105510005900416D6178205900416D617820580033
:10552000416D6178205800412D74726176656C0080
:10553000412D74726176656C00412D7265747261E3
:10554000637400412D72657472616374004163631A
:10555000656C00416363656C004D6F74696F6E002C
:10556000436F6F6C646F776E0046616E2073706579
:1055700065640046616E2073706565640042656411
:1055800000426564004E6F7A7A6C65004E6F7A7ADD
:105590006C65004D61696E004E414E494E4954594B
:1055A000494E46CDCCCC3D0AD7233C17B7D13877EE
:1055B000CC2B329595E6241FB14F0A000020410004
:1055C00000C84200401C4620BCBE4CCA1B0E5AAE4E
:1055D000C59D7400D8008FD311241FBECFEFD1E238
:1055E000DEBFCDBF00E00CBF14E0A0E0B2E0E0E120
:1055F000FBE302E00BBF02C007900D92AA33B10794
:10560000D9F725E1AAE3B4E001C01D92A233B207A5
:10561000E1F715E5C6EDD5E500E006C022970109E2
:10562000FE010BBF0F94081DC43DD10780E00807A1
:10563000A9F70E94B6DA0D94771D0C9400002F9202
:105640003F924F925F926F927F928F929F92AF9212
:10565000BF92CF92DF92EF92FF920F931F93CF935F
:10566000DF93CDB7DEB7CE56D1090FB6F894DEBFC3
:105670000FBECDBF0091F70F20E6029F80011124DD
:105680000958114F8091170780FF1AC0EEE0F3E42C
:1056900084917F013FEFE31AF30A811102C0780180
:1056A00004C00E94BC46F701F3CFD7018D917D0164
:1056B000882319F00E94BC46F8CF8AE00E94BC46BD
:1056C0001092A5061092A4068FE3809316071092FD
:1056D000150710921407109254041092550410925A
:1056E000560410925704F80180810F5F1F4F8032DB
:1056F000D1F38E34B1F4818190ED980F9A3020F07F
:105700008D3211F08B3269F43296DF0131962C9193
:1057100020532A30D0F3CD01FC01019620812032A4
:10572000D9F3F0930E07E0930D077F01BFEFEB1A5B
:10573000FB0A10816AE270E0C7010F94481D0097D0
:1057400039F0DC0111978C918032E1F311961C92B3
:105750001D3429F0143519F0173409F0CAC0F701C7
:105760004E2F9F2F81918032D9F380538A3008F0D9
:10577000C0C0109316072091140730911507E42F2D
:10578000F92F6AE0AF014F5F5F4F629FC001639FD7
:10579000900D1124208130E020533109820F931F96
:1057A000218120532A3030F09093150780931407FD
:1057B0009A0103C09C01FA01E5CFD9012F5F3F4F49
:1057C0004C914032D1F31D34D1F48E31910591F0DA
:1057D0003CF48731910571F08C31910581F40AC058
:1057E0008537910564F08737910524F0803AE3E02E
:1057F0009E0729F4B093A506A093A4067AC0109240
:10580000A5061092A406D0900D0741E050E0FD01DE
:1058100031962C91222309F46CC02132A1F41D345D
:1058200091F48032910579F4F093A506E093A406F3
:1058300063E270E0CF010F94481D009709F459C04E
:10584000DC011C9256C00FEB020F0A31A0F59F013C
:10585000F90160812F5F3F4F6032D1F320ED260FB9
:105860002A3040F023ED260F223020F06B3211F069
:105870000C94D93F9F01602F70E0DB01B595A7958F
:10588000B595A795B595A795AC5ABB4F07707A010A
:10589000002E01C0EE0C0A94EAF7FC90FE28FC9260
:1058A0002115310511F02D1901C020E0DB01A65CA6
:1058B000BB4F2C930AC02091A4063091A506232B40
:1058C00021F4B093A506A093A406208121542A3187
:1058D00010F4DF019CCFDF0131966C9160536A3088
:1058E000D0F39D01F9012F5F3F4F60816032D1F30A
:1058F000F0CF809116078D3409F474C4843511F407
:105900000C94843F873411F00C94BF3F80911407AE
:10591000909115078A31910509F4F2C2BCF48430E4
:10592000910544F4823091050CF01FC197FF2BC004
:105930000C94D63F8430910509F4DEC20C9711F027
:105940000C94D63F0E94F1BA0C94D63F8E3191054B
:1059500009F471C33CF48C31910509F45AC30CF479
:10596000D6C25CC38B35910509F402C48C35910510
:1059700009F403C48A35910511F00C94D63F1092B6
:1059800013070C94D63F80912902882311F40C94BC
:10599000D63F0E94104988E594E00E94D2470E94B9
:1059A000284C8091170783FD8FC0C0906404D0906D
:1059B0006504E0906604F09067042091510E3091E8
:1059C000520E4091530E5091540EC701B6010F94E0
:1059D000DA15882309F478C08091FD06811138C05A
:1059E0006091270270912802882777FD8095982F73
:1059F0000F94E0159B01AC016091780670917906D7
:105A000080917A0690917B060F94DA1587FF20C06B
:105A1000C092510ED092520EE092530EF092540E5C
:105A2000EEE0F3E484918F010F5F1F4F882321F094
:105A30000E94BC46F801F6CFEDEFF1E084918F01B2
:105A40000F5F1F4F882321F00E94BC46F801F6CF5C
:105A5000C0906404D0906504E0906604F090670400
:105A60002091510E3091520E4091530E5091540E90
:105A7000C701B6010F940C1A20E030E048E453E46B
:105A80000F94331C181604F5C092510ED092520E8A
:105A9000E092530EF092540EEEE0F3E484918F0105
:105AA0000F5F1F4F882321F00E94BC46F801F6CFFC
:105AB000EEEDF1E084918F010F5F1F4F882321F0FD
:105AC0000E94BC46F801F6CF209158043091590449
:105AD00040915A0450915B046091450E7091460EBE
