:100000000C94912A0D940A100D94DF0F0D94B40FE7
:100010000D94890F0D945E0F0D94330F0D94080FFE
:100020000D94DD0E0C94C22A0C94C22A0C94C22AA0
:100030000C94C22A0C94FBAE0C94C22A0C94C22AD3
:100040000C94C22A0C94C7B10C94C22A0C94C22AF4
:100050000C94C22A0C94C22A0C949AAF0D943510B9
:100060000C94C22A0C9498B80C94C22A0C94C22AFC
:100070000C94C22A0C94C22A0C94C22A0C94C22A50
:100080000C94C22A0C94C22A0C94C22A0C94C22A40
:100090000C94C22A0C94C22A0C94C22A0C94C22A30
:1000A0000C94C22A0C94C22A0C94C22A0C94C22A20
:1000B0000C94C22A0C94C22A0C94C22A0C94C22A10
:1000C0000C94C22A0C94C22A0C94C22A0C94C22A00
:1000D0000C94C22A0C94C22A0C94C22A0C94C22AF0
:1000E0000C94C22A434A464A354A394A3F4A7D4A15
:1000F0004A4A4E4A544A584A5C4A624A664A6A4ADE
:100100007D4A704A744A784ACF73CF73D673D673D8
:10011000D673DD73DD73DD73EA73E473E473E47344
:1001200089A68EA693A69DA6A7A620A7B1A6B9A626
:10013000C1A6CBA6D5A6DFA6EEA6F8A620A702A745
:100140000CA716A74BB04FB078B07CB05EB069B0CA
:1001500038B0CCB8D2B8E3B8EEB8F6B80BB9FAB844
:100160000BB9FEB802B90BB908B9084AD73B3BCE68
:10017000016E84BCBFFDC12F3D6C74319ABD5683A6
:100180003DDA3D00C77F11BED9E4BB4C3E916BAA5E
:10019000AABE000000803F05A84CCDB2D44EB938AD
:1001A00036A9020C50B9918688083CA6AAAA2ABE94
:1001B000000000803F000D94470C0D948D170D94A6
:1001C000BE0E0D94501520746F6F206C6F6E6720FB
:1001D000657874727573696F6E2070726576656E7E
:1001E0007465640A0020636F6C64206578747275AE
:1001F00073696F6E2070726576656E7465640A004F
:1002000047322F47332062616420706172616D65EF
:10021000746572730A00536C6565702E2E2E000A89
:100220000A426564204C6576656C20436F72726586
:100230006374696F6E204D61747269783A0052750B
:100240006E6E696E6720696E204452592D52554E6C
:10025000206D6F64650A00473239204175746F2044
:10026000426564204C6576656C696E670A003F28BC
:1002700056296572626F7365206C6576656C2069BE
:100280007320696D706C61757369626C65202830CC
:100290002D34292E0A00205A3A200020593A2000F5
:1002A00042656420583A20004C756C7A426F742085
:1002B00054415A20362072656164792E005265736C
:1002C000756D696E67207072696E7400436C696346
:1002D0006B20746F20726573756D652E2E2E004D28
:1002E000313235005344207072696E74696E672034
:1002F0006279746520004E6F7420534420707269D7
:100300006E74696E670A002569730025696D202582
:100310006973002569682025696D202569730025AA
:100320006964202569682025696D20256973002589
:10033000697920256964202569682025696D202553
:100340006973005072696E742074696D653A20009B
:100350006F6B00436F6F6C696E6720646F6E652E04
:100360000048656174696E6720646F6E652E0020B9
:10037000573A0045787472756465722025692025A6
:1003800073004C756C7A426F742054415A203620A9
:1003900072656164792E0042656420646F6E652E1B
:1003A0000020573A004265642068656174696E6791
:1003B0002E0042656420636F6F6C696E672E007A51
:1003C0005F70726F62653A20007A5F6D61783A20E3
:1003D000007A5F6D696E3A2000795F6D61783A202E
:1003E00000795F6D696E3A2000785F6D61783A2020
:1003F00000785F6D696E3A20005265706F727469A3
:100400006E6720656E6473746F70207374617475A9
:10041000730A00205A00205900580020204D6178AE
:100420003A2000205A00205900580020204D696EC3
:100430003A20004F6E20004F666600536F667420AE
:10044000656E6473746F70733A2000486F74656EE4
:1004500064206F6666736574733A0020643A002006
:10046000693A0020703A0020643A0020693A00207E
:10047000703A0043290A0061626C656420286D6946
:100480006E2074656D702000436F6C642065787415
:100490007275646573206172652000426564204C4A
:1004A0006576656C696E6720004661696C656420DD
:1004B000746F20656E61626C6520426564204C65D6
:1004C00076656C696E670A00426564204C657665E6
:1004D0006C20436F7272656374696F6E204D617436
:1004E0007269783A00416374697665204578747260
:1004F000756465723A2000556E6B6E6F776E20637F
:100500006F6D6D616E643A202200434F4D4D554E24
:1005100049434154494F4E0044525952554E0045AB
:1005200052524F525300494E464F004543484F00E8
:10053000000020002300260029002C002F0032009C
:10054000000100000301060109010000B0C1000024
:10055000A0C100000000000091430080974300000C
:1005600087434E6F2063617365206C696768740A06
:10057000002F2F20004361703A454D455247454EAC
:1005800043595F5041525345523A310A004361701A
:100590003A434153455F4C494748545F42524947AB
:1005A00048544E4553533A300A004361703A544F11
:1005B00047474C455F4C49474854533A300A00433B
:1005C00061703A534F4654574152455F504F57451B
:1005D000523A300A004361703A4C4556454C494EF8
:1005E000475F444154413A310A004361703A5A5FCF
:1005F00050524F42453A310A004361703A415554D6
:100600004F4C4556454C3A310A004361703A5052BE
:10061000494E545F4A4F423A310A004361703A50A2
:10062000524F47524553533A300A004361703A41A2
:1006300055544F5245504F52545F54454D503A31E6
:100640000A004361703A454550524F4D3A310A0015
:100650004649524D574152455F4E414D453A4D61D5
:10066000726C696E20204649524D574152455F5683
:10067000455253494F4E3A312E312E352E313620C8
:1006800045585452554445525F545950453A447563
:10069000616C457874727564657220763320534FAF
:1006A000555243455F434F44455F55524C3A687439
:1006B0007470733A2F2F636F64652E616C65706878
:1006C0006F626A656374732E636F6D2F646966660B
:1006D0007573696F6E2F4D41524C494E2050524FE9
:1006E000544F434F4C5F56455253494F4E3A312E6B
:1006F00030204D414348494E455F545950453A4C8E
:10070000756C7A426F742054415A203620455854F3
:1007100052554445525F434F554E543A3220555539
:1007200049443A38343566303033632D616562644C
:100730002D346535332D613662392D3764303938C3
:10074000346664653630390A004D31343520533C07
:10075000696E6465783E206F7574206F66207261E3
:100760006E67652028302D31290A002B0526051FCC
:100770000518050A056F66660044454255473A006C
:10078000746F20726573756D6500576169742066BA
:100790006F72207072696E74005052494E5420502E
:1007A00041555345440045787472756465206D6FFA
:1007B000726500526573756D65207072696E7400A4
:1007C000524553554D45204F5054494F4E533A00D2
:1007D00020204E6F7A7A6C653A20002000506C65BC
:1007E00061736520776169742E2E2E0048656174EF
:1007F000696E67206E6F7A7A6C65005052494E546C
:10080000205041555345440020204E6F7A7A6C6544
:100810003A2000200068656174206E6F7A7A6C65FA
:100820002E00507265737320627574746F6E20743D
:100830006F005052494E54205041555345440020BA
:10084000204E6F7A7A6C653A2000200066696C61F0
:100850006D656E74206578747275646500576169A2
:100860007420666F72005052494E542050415553C7
:1008700045440020204E6F7A7A6C653A20002000B3
:1008800066696C616D656E74206C6F6164005761A0
:10089000697420666F72005052494E542050415581
:1008A0005345440020204E6F7A7A6C653A200074DC
:1008B0006F20636F6E74696E75652E2E2E00616EEB
:1008C0006420707265737320627574746F6E004972
:1008D0006E736572742066696C616D656E7400502C
:1008E00052494E54205041555345440020204E6FEC
:1008F0007A7A6C653A2000200066696C616D656EDD
:100900007420756E6C6F6164005761697420666F46
:1009100072005052494E54205041555345440020D6
:10092000204E6F7A7A6C653A20006368616E676565
:10093000006F66207468652066696C616D656E7411
:10094000005761697420666F72207374617274005D
:100950005052494E54205041555345440020204E9A
:100960006F7A7A6C653A200020004261636B004D1B
:10097000696E696D756D2054656D702069732031E5
:1009800032302E0048656174696E67206661696C5B
:1009900065640043616E6E6F7420656E74657220CD
:1009A0007375626469723A2000022E2E004D6169EF
:1009B0006E007C3C3E5E2B3D3F2F5B5D3B2C2A2234
:1009C0005C0043616E6E6F74206F70656E2073758E
:1009D000626469722000456E642066696C65206CF3
:1009E0006973740A00426567696E2066696C6520E8
:1009F0006C6973740A0046696C652064656C657483
:100A000065643A0044656C6574696F6E206661695F
:100A10006C65642C2046696C653A20006F70656EC9
:100A2000206661696C65642C2046696C653A20001B
:100A30002042002050006F6B00526573656E643A6F
:100A4000200053442063617264206F6B0A006F7052
:100A5000656E526F6F74206661696C65640A00761A
:100A60006F6C756D652E696E6974206661696C6561
:100A7000640A00534420696E6974206661696C0AD7
:100A800000506C6561736520726573657400505227
:100A9000494E5445522048414C54454400507269D7
:100AA0006E7465722068616C7465642E206B696C6D
:100AB0006C28292063616C6C6564210A006265649E
:100AC0000A002C2073797374656D2073746F7070D5
:100AD000656421204865617465725F49443A20006D
:100AE000544845524D414C2052554E4157415900B2
:100AF000546865726D616C2052756E617761790022
:100B000048656174696E67206661696C6564004858
:100B1000656174696E67206661696C65640048652B
:100B20006174696E67206661696C6564004865611F
:100B300074696E67206661696C65640053544F5038
:100B40005045442E20005072696E74657220737493
:100B50006F707065642064756520746F20657272B3
:100B60006F72732E204669782074686520657272F2
:100B70006F7220616E6420757365204D393939209C
:100B8000746F20726573746172742E202854656DC1
:100B90007065726174757265206973207265736522
:100BA000742E205365742069742061667465722008
:100BB00072657374617274696E67290A005772698D
:100BC00074696E6720746F2066696C653A20006FE7
:100BD00070656E206661696C65642C2046696C6581
:100BE0003A20006F70656E206661696C65642C2028
:100BF00046696C653A200046696C652073656C65D2
:100C0000637465640A002053697A653A2000466976
:100C10006C65206F70656E65643A20006F70656E5C
:100C2000206661696C65642C2046696C653A200019
:100C30002066696C653A20004E6F77200022207094
:100C40006F73002220706172656E743A22005355F2
:100C500042524F5554494E452043414C4C207461FB
:100C6000726765743A22004B494C4C45442E200073
:100C7000747279696E6720746F2063616C6C207385
:100C800075622D67636F64652066696C6573207794
:100C900069746820746F6F206D616E79206C657661
:100CA000656C732E204D4158206C6576656C20690B
:100CB000733A004E6F206D6F76652E00656E71750C
:100CC000657565696E672022004572726F722077C4
:100CD000726974696E6720746F20454550524F4D9C
:100CE000210A00486F6D65202573257325732066E2
:100CF00069727374002066697273740A005A00592D
:100D0000005800486F6D6520001000C90210012CCA
:100D1000014001220170011801B0010E01F001042F
:100D2000015002FA00B002F0003003E600D003DC0C
:100D3000009004D2007005C800A006BE000008B4F0
:100D400000B009AA00D00BA000600E960060118CC4
:100D5000000015820020197800C01D6E00A02264DA
:100D600000B0275A00902C500000314600E0343C7F
:100D70000010383200903A2800603C1E00A03D145C
:100D800000803E0A00203F00001000AD0330016AE1
:100D90000150022B0170030A019004F500B005E533
:100DA00000D006D800F007CE001009C500300ABEFA
:100DB00000500BB700700CB100900DAB00B00EA648
:100DC00000D00FA200F0109D001012990030139572
:100DD000005014920070158E0090168B00B017878B
:100DE00000D0188400F0198100101B7E00301C7B9D
:100DF00000501D7900701E7600901F7300B02070A7
:100E000000D0216E00F0226B0010246900302566AE
:100E100000502663007027610090285E00B0295CB6
:100E200000D02A5900F02B5600102D5400302E51BE
:100E300000502F4E0070304B0090314800B03245CA
:100E400000D0334200F0343E0010363B00303737DC
:100E5000005038330070392E00903A2900B03B23FF
:100E600000D03C1B00F03D1100103F0100F03F009E
:100E70000000002100240027002A002D003000334C
:100E80000001010000040107010A010102102020F5
:100E900008081020401020408002010201080402CE
:100EA0000101020408102040808040201008040244
:100EB000018004020180402010080402010804029D
:100EC00001010204081020408001020408102040A3
:100ED0008005050505070508080808020202020A40
:100EE0000A080804040404010101010101010103CD
:100EF00003030303030303040707070C0C0C0C0C88
:100F00000C0C0C0202020206060606060606060B7A
:100F10000B0B0B0B0B0B0B1FFFFFFFFFFFFF60000B
:100F200000000001FF400000000000FF8000000002
:100F300000007F83CF00000C303F87FF80000C3023
:100F40001F867980000C000F8C30C7838C30E78CB3
:100F500030CFC7CC31F38C30DCECEC33B98C30D8EB
:100F60006C6C33198C30D06C0C33198C30D86C0C01
:100F700033198C30DC6C0E3B198C30CF7C079F19F9
:100F80008C30C77C038F1940000000000002600015
:100F900000000000061FFFFFFFFFFFF82020506C3D
:100FA000616E6E65724275666665724279746573CC
:100FB0003A20002046726565204D656D6F72793A62
:100FC0002000436F6D70696C65643A205365702032
:100FD000323920323031370A00207C204175746864
:100FE0006F723A2028416C657068204F626A6563B1
:100FF000747320496E632E2C204C756C7A426F748A
:1010000020476974205265706F7369746F72792913
:101010000A00536570203239203230313731363A88
:1010200030323A313100204C617374205570646164
:101030007465643A2000312E312E350A004D6172FC
:101040006C696E0020536F6674776172652052651B
:101050007365740A00205761746368646F67205277
:10106000657365740A002042726F776E206F757425
:101070002052657365740A002045787465726E614C
:101080006C2052657365740A00506F7765725570F5
:101090000A0073746172740A006572726F7220774D
:1010A000726974696E6720746F2066696C650A00E6
:1010B0004572726F723A00456E6473746F7073207C
:1010C00025632025632025632025630020503A00F6
:1010D000205A3A0020593A0020583A00656E64734D
:1010E000746F7073206869743A20006563686F3AA2
:1010F00000446F6E6520736176696E672066696C67
:10110000652E0A004D3239004F6666736574732090
:101110006170706C696564004572723A20546F6F3B
:10112000206661722100546F6F20666172206672C2
:101130006F6D207265666572656E636520706F699C
:101140006E740A0048617264636F6465642044656C
:101150006661756C742053657474696E6773204C96
:101160006F616465640A002823000028230000647E
:101170000000001027000000009643000096430086
:101180000040400000C8410000C9420000C94200C0
:1011900000C84400003E4400003E44202863616CC7
:1011A00063756C6174656429210A0020213D20006B
:1011B000454550524F4D20435243206D69736D6138
:1011C000746368202D202873746F72656429200071
:1011D000290A002062797465733B206372632000E2
:1011E0002073746F7265642073657474696E6773BD
:1011F00020726574726965766564202800204D61EF
:10120000726C696E3D563430290A002845455052AB
:101210004F4D3D00454550524F4D207665727369E4
:101220006F6E206D69736D61746368200052657321
:10123000746F7265206661696C73616665004D3517
:1012400030320A4D353030004C6F61642073657464
:1012500074696E67730053746F726520736574747C
:10126000696E677300416476616E636564205365DF
:101270007474696E6773004D61696E005072696EB7
:10128000742061626F727465640041626F757420CE
:101290004669726D77617265004E6F20534420631A
:1012A000617264005072696E742066726F6D2053B3
:1012B0004400436F6E66696775726174696F6E0092
:1012C00054656D7065726174757265004D6F7665F9
:1012D0006D656E74004368616E67652066696C6158
:1012E0006D656E7400496E666F2073637265656E1E
:1012F000004368616E67652066696C616D656E7438
:101300000053746F70207072696E7400526573754B
:101310006D65207072696E74005061757365207020
:1013200072696E7400496E666F2073637265656ED4
:10133000005265776970696E670050726F62696EFE
:1013400067206661696C65640050726F62696E67E0
:10135000206661696C65640050524F4245204641E9
:10136000494C20434C45414E204E4F5A5A4C450A59
:10137000005265776970696E670A00526577697017
:10138000696E670050726F62696E67206661696C92
:1013900065640050726F62696E67206661696C6592
:1013A000640050524F4245204641494C20434C4531
:1013B000414E204E4F5A5A4C450A0052657769708B
:1013C000696E670A0050726F62696E6720666169B4
:1013D0006C65640A0050726F62696E6720666169AD
:1013E0006C656400205A3A200020593A200042657A
:1013F0006420583A200000060900FE06018902FE1A
:1014000020FFFE07FE06FE0000000600070106069C
:10141000060200808080800080030303060103A091
:10142000A0A00507070600FF5050F850F8505005DF
:1014300009090600FE2070A8A07028A870200608E0
:10144000080600FF40A84810204854080507070672
:1014500000FF60909060989068010303060203808B
:1014600080800207070602FF408080808080400263
:1014700007070602FF804040404040800505050602
:1014800000008850F850880505050600002020F867
:1014900020200204040602FEC0404080050101062F
:1014A0000002F8020202060200C0C004060606019D
:1014B0000010102040808004060606010060909015
:1014C00090906003060606010040C0404040E004E2
:1014D00006060601006090102040F0040606060192
:1014E00000F020601010E0050606060000103050E5
:1014F00090F810040606060100F080E01010E004E9
:1015000006060601006080E0909060040606060171
:1015100000F01010204040040606060100609060B4
:1015200090906004060606010060909070106002C2
:101530000505060200C0C000C0C00207070602FE83
:10154000C0C000C04040800505050600001860804E
:101550006018050303060001F800F80505050600FC
:1015600000C0300830C0040707060100609010601A
:101570004000400506060600007090A8B080700587
:101580000606060000205088F88888050606060032
:1015900000F088F08888F00406060601006090805C
:1015A000809060040606060100E090909090E004B0
:1015B0000606060100F080E08080F00406060601C1
:1015C00000F080E0808080040606060100609080C4
:1015D000B090600406060601009090F09090900391
:1015E0000606060100E040404040E0050606060011
:1015F0000038101010906004060606010090A0C08C
:10160000A090900406060601008080808080F0058E
:10161000060606000088D8A8A888880406060601E1
:101620000090D0B090909005060606000070888863
:10163000888870040606060100E09090E08080042F
:1016400007070601FF609090D0B060100406060600
:101650000100E09090E09090040606060100609082
:1016600040209060050606060000F820202020207B
:10167000040606060100909090909060040606060D
:101680000100909090F060600506060600008888D2
:10169000A8A8D88805060606000088502020508893
:1016A000050606060000888850202020040606064D
:1016B0000100F010204080F0030606060100E080E3
:1016C000808080E004060606010080804020101023
:1016D000030606060100E020202020E005030306A3
:1016E00000032050880501010600FEF802020206F0
:1016F0000204804004040406010070909070040607
:10170000060601008080E09090E0040404060100D9
:1017100070808070040606060100101070909070B2
:1017200004040406010060B0C0700406060601004F
:10173000205040E040400406060601FE6090907094
:1017400010600406060601008080E0909090030679
:10175000060601004000C04040E00308080601FE04
:10176000200060202020A0400406060601008080A2
:10177000A0C0A090030606060100C040404040E023
:10178000050404060000D0A8A8880404040601008B
:10179000E0909090040404060100609090600406BC
:1017A000060601FEE09090E080800406060601FE39
:1017B000709090701010040404060100A0D0808086
:1017C00004040406010070C030E0040606060100AF
:1017D0004040E040502004040406010090909070C6
:1017E00004040406010090906060050404060000F3
:1017F00088A8A850040404060100906060900406C4
:10180000060601FE909090709060040404060100AA
:10181000F02040F0030707060100204040804040D0
:10182000200107070602FF808080808080800307F8
:10183000070601008040402040408004020206016B
:101840000350A0FFFFFFFFFFFFFFFFFFFFFFFFFFB2
:10185000FFFFFFFFFFFFFFFFFFFFFFFFFFFFFFFF98
:10186000FFFFFFFF0000000600070106060602005A
:101870008000808080800406060601FF2070A0A002
:1018800070200507070600FF304840F04040F8058B
:101890000505060000A8508850A8050606060000A9
:1018A0008850F820F8200107070602FF808080009A
:1018B0008080800407070601FF708060906010E060
:1018C000030101060105A0060707060000788494BD
:1018D000A494847803050506010160A06000E0057A
:1018E00005050600002850A0502804030306010047
:1018F000F01010040101060102F0060707060000BF
:101900007884B4A4A48478040101060105F00403DA
:10191000030601026090600507070600FF2020F81B
:10192000202000F803050506010140A02040E00347
:101930000505060101C0204020C002020206020483
:1019400040800405050601FF9090B0D08005060692
:1019500006000078E8E868282801010106020280F4
:101960000202020602FE408003050506010140C096
:101970004040E003050506010140A04000E00505E8
:1019800005060000A0502850A00508080600FF40EA
:10199000C04050703078100508080600FF40C04075
:1019A00050680810380508080600FFC0204030F0D5
:1019B0003078100407070601002000206080906046
:1019C000050707060000402020507088880507079B
:1019D00006000010202050708888050707060000C8
:1019E00020502050708888050707060000285020E6
:1019F0005070888805070706000050002050708846
:101A000088050707060000205020507088880506CA
:101A10000606000078A0F0A0A0B80408080601FEA1
:101A200060908080906020400407070601004020FD
:101A3000F080E080F00407070601002040F080E01D
:101A400080F00407070601002050F080E080F004D9
:101A500007070601005000F080E080F0030707064A
:101A600001008040E0404040E003070706010020FD
:101A700040E0404040E003070706010040A0E0408E
:101A80004040E0030707060100A000E0404040E0BE
:101A90000506060600007048E84848700407070677
:101AA000010050A090D0B0909004070706010040BC
:101AB000206090909060040707060100204060902D
:101AC000909060040707060100205060909090609D
:101AD00004070706010050A060909090600407077B
:101AE000060100500060909090600505050600001A
:101AF00088502050880408080601FF1070B0B0D04C
:101B0000D0E080040707060100402090909090608C
:101B1000040707060100204090909090600407079A
:101B20000601002050909090906004070706010085
:101B300050009090909060050707060000102088E4
:101B40005020202004060606010080E09090E080EE
:101B50000406060601006090A0A090A004070706F6
:101B600001004020007090907004070706010020DB
:101B7000400070909070040707060100205000702C
:101B800090907004070706010050A00070909070BC
:101B900004060606010050007090907004070706C6
:101BA0000100205020709090700504040600007021
:101BB000A8B0780406060601FE70808070204004FC
:101BC000070706010040200060B0C0700407070648
:101BD000010020400060B0C070040707060100202B
:101BE000500060B0C070040606060100500060B0EE
:101BF000C070030707060100804000C04040E003BA
:101C00000707060100204000C04040E00307070628
:101C1000010040A000C04040E0030606060100A00D
:101C200000C04040E00407070601003060107090DB
:101C3000906004070706010050A000E09090900417
:101C40000707060100402000609090600407070627
:101C5000010020400060909060040707060100200A
:101C600050006090906004070706010050A00060DB
:101C70009090600406060601005000609090600598
:101C800005050600002000F80020040404060100F9
:101C900070B0D0E00407070601004020009090904B
:101CA0007004070706010020400090909070040720
:101CB000070601002050009090907004060606016F
:101CC000005000909090700409090601FE20400029
:101CD0009090907090600408080601FE8080E0906B
:101CE00090E080800408080601FE500090909070FB
:101CF000906000002200250028002B002E003100FB
:101D0000340002010000050108010B0100000A0B6C
:101D100002090C0D0E08070304010000000000007A
:101D200000000000000000000000000000000000B3
:101D30000000000000000000121110000000000070
:101D40000000000000000000000000000000000093
:101D500000004B494C4C45442E200024F4D4305014
:101D6000C38E20C2A24017828B7011127A910D810E
:101D70006CD90AA861E108C7586607615143061E7D
:101D80004B5D05C145A7041A411104093D98037133
:101D90003931034036DB0265339102D4305402807E
:101DA0002E1D02632CEE01752AC501B028A001107A
:101DB0002781018F2564012B244B01E0223401ACE3
:101DC000211F018D200D01801FFC00841EED009756
:101DD0001DDF00B81CD200E61BC600201BBC00643F
:101DE0001AB200B219A8000A19A0006A189900D105
:101DF00017910040178B00B516840031167E00B392
:101E00001579003A157300C7146F0058146A00EE74
:101E10001366008813630025135E00C7125B006C15
:101E200012570015125400C111510070114F0021BA
:101E3000114B00D61049008D104700461044000297
:101E4000104200C00F4000800F3E00420F3C0006D1
:101E50000F3B00CB0E3800930E37005C0E35002789
:101E60000E3400F30D3200C10D3100900D300060D2
:101E70000D2E00320D2D00050D2C00D90C2B00AEBF
:101E80000C2900850C29005C0C2700350C27000E5E
:101E90000C2600E80B2400C40B2400A00B23007DBB
:101EA0000B23005A0B2100390B2100180B2000F8DE
:101EB0000A1F00D90A1E00BB0A1E009D0A1D0080D1
:101EC0000A1D00630A1C00470A1B002C0A1B001194
:101ED0000A1A00F7091A00DD091900C4091900AB34
:101EE000091900920917007B091800630917004CB3
:101EF00009160036091600200916000A091500F512
:101F0000081500E0081400CC081400B8081400A458
:101F1000081400900813007D0812006B0813005885
:101F2000081200460812003408110023081100129C
:101F300008110001081100F0071000E0071000D0A0
:101F4000071000C0071000B0070F00A10710009194
:101F5000070E0083070F0074070F0065070E005778
:101F6000070E0049070E003B070D002E070E00204C
:101F7000070D0013070D0006070D00F9060C00ED14
:101F8000060D00E0060C00D4060C00C8060C00BCD0
:101F9000060C00B0060C00A4060B0099060C008D80
:101FA000060B0082060B0077060B006C060B006127
:101FB000060A0057060B004C060A0042060A0038C3
:101FC000060A002E060A0024060A001A060A001055
:101FD00006090007060A00FD050900F4050900EBE3
:101FE000050900E2050900D9050900D0050900C767
:101FF000050900BE050900B5050800AD050800A5E6
:102000000509009C050800940508008C050800845B
:102010000508007C050800740508006C05070065CC
:102020000508005D050700560508004E0507004736
:102030000507004005080038050700310507002A9C
:10204000050700230507001C050600160507000FFD
:102050000507000805060002050700FB040600F559
:10206000040700EE040600E8040600E2040700DBB3
:10207000040600D5040600CF040600C9040600C308
:10208000040600BD040600B7040600B1040500AC58
:10209000040600A6040600A00405009B04060095A3
:1020A000040500900406008A0405008504050080EC
:1020B0000406007A04050075040500700405006B31
:1020C00004050066040500610405005C0405005772
:1020D000040500520405004D0405004804050043B2
:1020E0000405003E0404003A0405003504050030F0
:1020F0000404002C04050027040400230405001E2A
:102100000404001A04040016040500110404000D60
:10211000040400090405000404040000040400FC95
:10212000030400F8030400F4030400F0030400ECCB
:10213000030400E8030400E4030400E0030400DCFB
:10214000030400D8030400D4030400D0030400CC2B
:10215000030400C8030300C503030024F404D920CA
:102160001BC40C5C0E9804C4095F0265077101F47E
:1021700005F900FB04B30048048700C10369005857
:1021800003550003034500BE023A008402310053A8
:10219000022A002902250004022000E4011C00C8D4
:1021A000011900AF01170098011400840113007198
:1021B0000110006101100051010E0043010D0036B5
:1021C000010B002B010B0020010B00150109000C75
:1021D00001090003010800FB000800F3000800EB00
:1021E000000700E4000600DE000600D8000600D26A
:1021F000000600CC000500C7000500C2000500BDB8
:10220000000400B9000400B5000400B1000400ADF2
:10221000000400A9000400A5000300A20003009F21
:102220000004009B00030098000300950002009347
:10223000000300900003008D0002008B0003008863
:102240000002008600020084000300810002007F7B
:102250000002007D0002007B00020079000200778E
:10226000000100760002007400020072000100719B
:102270000002006F0002006D0001006C0002006AA5
:1022800000010069000200670001006600010065AE
:1022900000010064000200620001006100010060B2
:1022A0000001005F0002005D0001005C0001005BB6
:1022B0000001005A000100590001005800010057B8
:1022C00000010056000100550001005400010053B8
:1022D00000000053000100520001005100010050B5
:1022E0000001004F0001004E0000004E0001004DB3
:1022F0000001004C0001004B0000004B0001004AAF
:1023000000010049000100480000004800010047AA
:1023100000010046000000460001004500000045A5
:10232000000100440001004300000043000100429E
:102330000000004200010041000000410001004097
:102340000001003F0000003F0001003E0000003E91
:102350000001003D0000003D0001003C0000003C89
:102360000000003C0001003B0000003B0001003A7F
:102370000000003A00010039000000390001003877
:10238000000000380000003800010037000000376E
:102390000001003600000036000000360001003564
:1023A000000000350000003500010034000000345A
:1023B000000000340001003300000033000000334F
:1023C0000001003200000032000000320001003144
:1023D000000000310000003100010030000000303A
:1023E000000000300001002F0000002F0000002F2F
:1023F0000000002F0001002E0000002E0000002E23
:102400000001002D0000002D0000002D0000002D17
:102410000001002C0000002C0000002C0000002C0B
:102420000001002B0000002B0000002B0000002BFF
:102430000001002A0000002A0000002A0000002AF3
:1024400000010029000000290000002900000029E7
:1024500000000029000100280000002800000028DA
:1024600000000028000000280001002700000027CD
:1024700000000027000000270000002700010026C0
:1024800000000026000000260000002600000026B4
:1024900000010025000000250000002500000025A7
:1024A0000000002500000025000100240000002499
:1024B000000000240000002400000024000100238C
:1024C0000000002300000023000000230000002380
:1024D0000000002300000023000100220000002271
:1024E0000000002200000022000000220000002264
:1024F0000001002100000021000000210000002157
:102500000000002100000021000000210001002047
:10251000000000200000002000000020000000203B
:102520000000002000000020000000200001001F2B
:102530000000001F0000001F0000001F0000001F1F
:102540000000001F0000001F0001001E0000001E10
:102550000000001E0000001E0000004D383420580E
:102560002059205A2045004572723A204D494E5458
:10257000454D5020424544004572723A204D494E27
:1025800054454D50004D494E54454D50207472698C
:10259000676765726564004572723A204D41585410
:1025A000454D5020424544004572723A204D4158F5
:1025B00054454D50004D415854454D50207472695A
:1025C000676765726564000201050800FF06012166
:1025D000023520FFFF07FF06FF0900502216568034
:1025E0008080800080153353A0A0A0025757505020
:1025F000F850F850500257572070A07028702013E0
:10260000355580A040A02002475740A0A040A0A080
:102610005025135380808012265640808080804051
:102620001226568040404040800245559060F06040
:10263000900255552020F82020113353604080042B
:102640004151F011335340E04002465610102040F3
:10265000808012365640A0A0A0A04012365640C03E
:10266000404040E00246566090106080F0024656BE
:10267000F020601090600246562060A0F0202002FA
:102680004656F080E01090600246566080E09090E0
:1026900060024656F010202040400246566090608E
:1026A000909060024656609090701060122555C060
:1026B000C000C0C0113656606000604080123656BF
:1026C000204080804020034353F000F012365680B3
:1026D000402020408012365640A020400040015843
:1026E00058304898A8A8904030024656609090F024
:1026F0009090024656E090E09090E002465660903E
:1027000080809060024656E090909090E00246569D
:10271000F080E08080F0024656F080E08080800209
:102720004656609080B090600246569090F090902F
:1027300090123656E040404040E00246567020205D
:1027400020A04002465690A0C0A0A090024656800D
:1027500080808080F002465690F0F0909090024683
:102760005690D0F0B0B09002465660909090906035
:10277000024656E09090E08080014757609090D0EC
:10278000B06010024656E09090E09090024656608D
:102790009040209060123656E04040404040024653
:1027A0005690909090906002465690909090606005
:1027B000024656909090F0F09002465690906060DD
:1027C0009090025656888850202020024656F010DD
:1027D000204080F0123656E080808080E00246562D
:1027E000808040201010123656E020202020E01675
:1027F000325240A0014151F016225280400244540E
:10280000709090700246568080E09090E0123454B0
:1028100060808060024656101070909070024454A0
:1028200060B0C060024656205040E040400145552F
:1028300060907010600246568080E0909090123652
:10284000564000C04040E01137572000202020A013
:1028500040024656808090E09090123656C040402C
:102860004040E0025454D0A8A8A8024454E09090FC
:102870009002445460909060014555E090E0808063
:102880000145557090701010024454A0D080801201
:10289000345460C020C00246564040E04050200200
:1028A000445490909070123454A0A0A0400254540C
:1028B00088A8A850024454906060900145559090BB
:1028C000709060024454F02040F00247573040209E
:1028D000C02040302216568080808080800247577A
:1028E000C02040304020C006425250A0FFFFFFFFF2
:1028F000FFFFFFFFFFFFFFFFFFFFFFFFFFFFFFFFE8
:10290000FFFFFFFFFFFFFFFFFFFFFFFFFF0900507B
:102910002216568000808080800146562070A0A03C
:1029200070200246562050E04050A0025555887055
:102930005070880256568850F820F8202217578089
:102940008080008080800247577080E0907010E0A7
:10295000173151A002565670A8C8C8A87014355532
:1029600060A06000E003435350A050123353E020B6
:1029700020143151E002565670E8D8E8D87017316B
:1029800051E015335340A04012355540E04000E07F
:1029900014355540A02040E0143555C020C020C05B
:1029A0001622524080014555909090E08002565684
:1029B00078E8E868282824115180112252408014B8
:1029C000355540C04040E014355540A04000E0037C
:1029D0004353A050A0024757808080A060F020029F
:1029E00047578080A0D010207002475780408060F9
:1029F000A0F02012365640004080A04002475740C9
:102A0000206090F0909002475720406090F09090A6
:102A100002475760906090F0909002475750A06036
:102A200090F0909002475790006090F0909002478D
:102A30005760906090F0909002465670A0A0F0A071
:102A4000B001475760908080906040024757402017
:102A5000F080E080F00247572040F080E080F002F4
:102A600047576090F080E080F00247579000F08078
:102A7000E080F01237578040E0404040E012375786
:102A80002040E0404040E012375740A0E040404046
:102A9000E0123757A000E0404040E0025656704830
:102AA000E848487002475750A090D0B09090024735
:102AB000574020609090906002475720406090906F
:102AC0009060024757609060909090600247575026
:102AD000A060909090600247579000609090906046
:102AE000123353A040A002465670B0B0D0D0E002DE
:102AF0004757402090909090600247572040909018
:102B00009090600247576090909090906002475775
:102B1000900090909090600257571020885020208D
:102B20002002465680E09090E0800246566090A0D9
:102B3000A090A00247574020007090907002475725
:102B40002040007090907002475720500070909085
:102B50007002475750A00070909070024656500087
:102B6000709090700247576090607090907002541F
:102B700054F068B078113555608080604002475746
:102B800040200060B0C06002475720400060B0C0E5
:102B90006002475760900060B0C060024656500027
:102BA00060B0C060123757804000C04040E012372C
:102BB00057204000C04040E012375740A000C040BE
:102BC00040E0123656A000C04040E0024757A04007
:102BD000A01070906002475750A000E090909002C3
:102BE00047574020006090906002475720400060A7
:102BF0009090600247576090006090906002475745
:102C000050A00060909060024656900060909060E6
:102C10001235554000E0004002445470B0D0E0024C
:102C200047574020009090907002475720400090F6
:102C300090907002475760900090909070024656B6
:102C400090009090907001485820400090907090B3
:102C5000600147578080E090E080800147579000F6
:102C6000909070906001050700FE0500FB01F220C6
:102C7000FFFE05FE05FE0200400215258080800053
:102C800080053242A0A002556550F850F850014628
:102C9000562070C030E02002556590102040480258
:102CA0005565608068906805122280800225354055
:102CB000808080400225358040404080043343A01E
:102CC00040A003334340E0400122324080043141C0
:102CD000E002112180025565081020408002455510
:102CE0006090909060022535C040404040024555BC
:102CF000E0106080F0024555E0106010E00245559C
:102D00002060A0F020024555F080E010E00245551B
:102D10006080E09060024555F0102040400245552B
:102D200060906090600245556090701060031323BE
:102D3000800080021424800080800235452040807D
:102D40004020033343E000E00235458040204080CE
:102D5000024555E0106000400255657088B8A870C3
:102D6000024555609090F090024555E090E090E06B
:102D70000235456080808060024555E0909090E08B
:102D8000023545E080E080E0023545E080E080806B
:102D90000245557080B090700245559090F090902B
:102DA000023545E0404040E002455530101090604B
:102DB00002455590A0C0A09002354580808080E0FB
:102DC00002556588D8A8888802455590D0B0909063
:102DD0000245556090909060024555E09090E080EB
:102DE000014656609090906010024555E09090E04A
:102DF0009002455570806010E0023545E04040404B
:102E00004002455590909090600245559090A0A04A
:102E10004002556588A8A8A850024555909060903A
:102E2000900245559090701060023545E02040803A
:102E3000E0022535C0808080C002556580402010AA
:102E400008022535C0404040C005324240A0024142
:102E500051F0052232804002445470909070024537
:102E60005580E09090E002344460808060024555D7
:102E7000107090907002445460B0C06002354520DC
:102E800040E04040004656709090701060024555FA
:102E900080E0909090021525800080808000273788
:102EA000400040404040800245558090A0E09002A4
:102EB00015258080808080025464F0A8A8A8024470
:102EC00054E090909002445460909060004656E028
:102ED0009090E08080004656709090701010023400
:102EE00044A0C0808002445470C030E002354540A8
:102EF000E0404020024454909090700244549090DE
:102F0000A040025464A8A85050023444A04040A0FD
:102F1000004656909090701060024454F02040F0AB
:102F200002354560408040600215258080808080A9
:102F3000023545C0402040C005425250A0FFFFFF6F
:102F4000FFFFFFFFFFFFFFFFFFFFFFFFFFFFFFFF91
:102F5000FFFFFFFFFFFFFFFFFFFFFFFFFFFF02007D
:102F600040FFFFFFFFFFFFFFFFFFFFFFFFFFFFFF30
:102F7000FFFFFFFFFFFFFFFFFFFFFFFFFFFFFFFF61
:102F8000FFFFFFFFFFFFFFFFFFFFFFFFFFFFFFFF51
:102F9000FFFFFFFFFFFFFFFFFFFFFFFFFFFFFFFF41
:102FA000FFFFFFFFFFFFFFFFFFFFFFFFFFFFFFFF31
:102FB000FFFFFFFFFFFFFFFFFFFFFFFFFFFFFFFF21
:102FC00001060D00FE09016602D620FFFE0BFE0A77
:102FD000FE0D0060221969808080808080800080E2
:102FE000183363A0A0A00357675050F850F8505012
:102FF0000259692078A0A0702828F0200259694859
:10300000A85010204050A89002586840A0A040A0AE
:10301000989068281363808080113B6B204040802B
:1030200080808080404020113B6B804040202020E9
:10303000202040408006556520A870A820045565D2
:103040002020F82020113363604080065161F81180
:10305000336340E040025969080810102040408066
:1030600080025969205088888888885020025969D0
:103070002060A02020202020F8025969708888084C
:1030800010204080F8025969F8081020700808885C
:1030900070025969101030505090F81010025969A0
:1030A000F88080B0C80808887002596970888080EC
:1030B000F088888870025969F80810102020404074
:1030C00040025969708888887088888870025969B8
:1030D00070888888780808887011386840E0400057
:1030E0000040E04011386840E0400000604080024D
:1030F0005969081020408040201008045464F800EA
:1031000000F80259698040201008102040800259C0
:10311000697088880810202000200259697088880A
:1031200098A8A8B080780259692050888888F888C3
:103130008888025969F048484870484848F0025960
:1031400069708880808080808870025969F0484862
:103150004848484848F0025969F8808080F08080EB
:1031600080F8025969F8808080F080808080025960
:1031700069708880808098888870025969888888FA
:1031800088F888888888123969E04040404040408B
:1031900040E0025969381010101010109060025968
:1031A00069888890A0C0A090888802596980808032
:1031B0008080808080F80259698888D8A8A888888B
:1031C000888802596988C8C8A8A898988888025928
:1031D00069708888888888888870025969F088882A
:1031E00088F080808080015A6A7088888888888802
:1031F000A87008025969F0888888F0A09088880231
:103200005969708880807008088870025969F820B0
:1032100020202020202020025969888888888888DA
:103220008888700259698888888850505020200208
:10323000596988888888A8A8A8A8500259698888E8
:10324000505020505088880259698888505020205A
:10325000202020025969F808101020404080F81101
:103260003B6BE0808080808080808080E0025969B4
:10327000808040402010100808113B6BE020202087
:10328000202020202020E008536320508801516135
:10329000F82A226280400256667008788898680290
:1032A0005969808080F088888888F0025666708826
:1032B000808088700259690808087888888888782A
:1032C0000256667088F8808870025969304840401C
:1032D000F0404040400058687088888878088870BE
:1032E000025969808080B0C8888888881238684010
:1032F00000C040404040E0004A6A1000301010100A
:103300001090906002596980808090A0C0A0908841
:10331000123969C040404040404040E0025666D00B
:10332000A8A8A8A888025666B0C8888888880256C7
:1033300066708888888870005868F0888888F0806F
:10334000808000586878888888780808080256665F
:10335000B0C88080808002566670886010887002D5
:1033600058684040F040404048300256668888889F
:103370008898680256668888885050200256668869
:1033800088A8A8A850025666885020205088005867
:10339000688888889868088870025666F810204007
:1033A00080F8015B6B1820202020C02020202018EE
:1033B000221969808080808080808080015B6BC062
:1033C000202020201820202020C008536348A890E7
:1033D000FFFFFFFFFFFFFFFFFFFFFFFFFFFFFFFFFD
:1033E000FFFFFFFFFFFFFFFFFFFFFFFFFFFFFFFFED
:1033F000FF0D0060221969800080808080808080BD
:103400000358682070A8A0A0A8702002596930480D
:103410004040E0404048B003566688705050708885
:1034200002596988885050F820F8202022196980B4
:103430008080800080808080124A6A6090806090E6
:1034400090601090601A3262A0A00359697088A839
:10345000D8C8D8A88870045767700878887800F8AA
:103460000356662850A0A05028045363F808081695
:103470003161E00359697088E8D8D8E8D888700AC3
:103480005161F8174464609090600357672020F8FA
:10349000202000F807356540A02040E00735654052
:1034A000A04020C02A22624080005868888888880E
:1034B00098E8808002596978E8E8E8E868282828D0
:1034C000262161C0202262408007356540C040400F
:1034D000E0045767708888887000F8035666A0502B
:1034E000282850A0025A6A40C04040E008182838F6
:1034F00008025A6A40C04040E01028081038025ABA
:103500006A40A04020A048182838080259692000C5
:1035100020204080888870025A6A4020002050880D
:1035200088F88888025A6A10200020508888F88815
:1035300088025A6A30480020508888F88888025AE1
:103540006A28500020508888F88888025A6A5050AB
:103550000020508888F88888025A6A20502020501D
:103560008888F8888802596958A0A0A0B0E0A0A077
:10357000B8005B6B708880808080808870204002FB
:103580005A6A402000F88080F08080F8025A6A1061
:103590002000F88080F08080F8025A6A304800F8F5
:1035A0008080F08080F8025A6A505000F88080F0E5
:1035B0008080F8123A6A804000E04040404040E09D
:1035C000123A6A204000E04040404040E0124A6A1F
:1035D000609000E04040404040E0123A6AA0A00005
:1035E000E04040404040E0025969F0484848E8481F
:1035F0004848F0025A6A2850008888C8A8988888E5
:10360000025A6A40200070888888888870025A6A46
:1036100010200070888888888870025A6A304800B4
:1036200070888888888870025A6A28500070888854
:1036300088888870025A6A50500070888888888804
:10364000700355658850205088015B6B087098980E
:10365000A8A8A8C8C87080025A6A40200088888834
:1036600088888870025A6A1020008888888888882C
:1036700070025A6A30480088888888888870025AA0
:103680006A50500088888888888870025A6A10209A
:10369000008888502020202002596980F08888887E
:1036A000F0808080025969609090A0A0908888B0D6
:1036B000025969402000700878889868025969109A
:1036C00020007008788898680259693048007008AE
:1036D0007888986802596928500070087888986836
:1036E000025969505000700878889868025A6A3008
:1036F000483000700878889868025666702870A074
:10370000A8500058687088808088702040025969ED
:103710004020007088F8808870025969102000707D
:1037200088F88088700259693048007088F880886D
:10373000700259695050007088F880887012396999
:10374000804000C040404040E0123969204000C045
:1037500040404040E0124969609000C04040404015
:10376000E0123969A0A000C040404040E0025A6A1F
:10377000502060107088888888700259692850002D
:10378000B0C8888888880259694020007088888875
:1037900088700259691020007088888888700259E2
:1037A00069304800708888888870025969285000FC
:1037B000708888888870025969505000708888889D
:1037C0008870035767202000F800202001586808FF
:1037D0007098A8A8C870800259694020008888881D
:1037E000889868025969102000888888889868023B
:1037F000596930480088888888986802596950500B
:1038000000888888889868005B6B1020008888880A
:103810009868088870005A6A8080B0C88888C8B0E4
:103820008080005B6B50500088888898680888709A
:103830000000000000000000000000000000000088
:103840000000000000000000000000000000000078
:103850000000000C000000000000000C0000000050
:103860000000001200000000000000230000000023
:1038700000000021000000000000004C800000005B
:103880000000005E80000000000000924000000088
:10389000000000A140000000000001212000000005
:1038A0000000027F900000000000020010000000F5
:1038B000000007FFF80000000000040008000000FE
:1038C00000000800040000000000080006000000DE
:1038D00000001000020000000000301E0100000087
:1038E0000000207F81000000000041FFE080000018
:1038F000000043FCF08000000000873B784000009F
:1039000000018EDBFC60000000010FEBCC2000000A
:1039100000021FEDB610000000021FDEB61000000E
:10392000000439CD7F080000000436E0FF080000E5
:1039300000087EC0BB84000000187F005D86000088
:1039400000107FC0ED82000000203CC07301000029
:1039500000203B337F01000000701BE77E038000E6
:1039600000C81DEEDE04C00000880FDEDC0440004D
:1039700001240FDF3C092000012607DBF819200095
:10398000027203E7F0139000025101FFE022900061
:103990000489007F802448000904801E0048240018
:1039A0000BFE400000DFF400100040000080020029
:1039B0001FFFFFFFFFFFFE000000000000000000EF
:1039C00000000000000000000000000000000000F7
:1039D0001022103C3C0E1F00102210042211040083
:1039E0001022100822110400102210083C110400BB
:1039F00010221010221104001022102022110400A5
:103A00001E1C1E3C3C0E04000000000000000000D4
:103A100000000000000000000000000000000000A6
:103A20000000000000000000000000000000000096
:103A30000000000000000000000000000000000086
:103A40000000000000000000000000000000000076
:103A50000000000000000000000000000000000066
:103A600000000000000000000000000000002040F6
:103A7000002042403A0020403A000A003B204545E1
:103A800050524F4D20496E6465783A20005570645D
:103A90006174696E67207A6F666673657420696EFB
:103AA00020454550524F4D3A2000060006000600C2
:103AB0000600060006000600060006003FC01F8044
:103AC0000F00060006000F001F803FC00600060022
:103AD000060006000600060006000600060007F8BD
:103AE000000C0C00100200200100600180400080EA
:103AF0004003E04001C04000804000004000006002
:103B000000002000001000000C0C0007F80001FE6F
:103B1000000303000400800800401800601000202B
:103B20007C00203800201000200000200000200031
:103B3000006000004000008003030001FE00FFFF62
:103B4000FF7F80FFC0FFC0FFC07F807F80FFC0FF7E
:103B5000C0FFC03F001E000C005A204F6666736510
:103B600074004D6F76652058004D6F7665205900C2
:103B70004D6F7665205A00457874727564657232AF
:103B80000045787472756465723100000125301D3E
:103B90000C1824311C0B17232F1B0A1E16040306B6
:103BA000080202212A193F40222B1A4142033807FA
:103BB000FF3709FF3628294527444350726F746543
:103BC000637465642050696E0A0045313A200045EF
:103BD000303A20005A3A2000593A2000583A200042
:103BE0004D53312C4D53322050696E730A00290A0F
:103BF000002062797465733B206372632000536513
:103C00007474696E67732053746F72656420280042
:103C1000205A3A0020593A0020436F756E7420589C
:103C20003A0020453A00205A3A0020593A00583AC2
:103C300000202F0053657474696E6720547261769A
:103C4000656C20416363656C65726174696F6E3A7F
:103C5000200053657474696E6720526574726163E5
:103C60007420416363656C65726174696F6E3A209C
:103C70000053657474696E67205072696E742041D8
:103C80006363656C65726174696F6E3A2000536599
:103C90007474696E67205072696E7420616E64205E
:103CA00054726176656C20416363656C6572617402
:103CB000696F6E3A200020204D383531205A005A65
:103CC0002D50726F6265204F666673657420286D93
:103CD0006D293A0A0020440020490020204D33304D
:103CE0003420500020440020490020204D33303142
:103CF00020500020440020490020500020204D3357
:103D000030312045005049442073657474696E67F2
:103D1000733A0A0020460020420020480020204D2F
:103D20003134352053004D6174657269616C2068CF
:103D3000656174757020706172616D657465727310
:103D40003A0A0020204D3432302053004175746F00
:103D500020426564204C6576656C696E673A0A009E
:103D600020590020580020204D323138205400487E
:103D70006F74656E64206F6666736574733A0A00CB
:103D8000205A0020590020204D323036205800485B
:103D90006F6D65206F66667365743A0A0020450092
:103DA000205A0020590020580020420020540020B2
:103DB000204D323035205300416476616E63656476
:103DC0003A20533C6D696E5F666565647261746527
:103DD0003E20543C6D696E5F74726176656C5F66FF
:103DE000656564726174653E20423C6D696E5F7307
:103DF00065676D656E745F74696D655F6D733E2098
:103E0000583C6D61785F78795F6A65726B3E205AC5
:103E10003C6D61785F7A5F6A65726B3E20453C6DF0
:103E200061785F655F6A65726B3E0A00205400200E
:103E3000520020204D323034205000416363656CC5
:103E400065726174696F6E2028756E6974732F7363
:103E500032293A20503C7072696E745F6163636509
:103E60006C3E20523C726574726163745F6163637F
:103E7000656C3E20543C74726176656C5F6163636F
:103E8000656C3E0A0020450020204D323031205420
:103E900000205A0020590020204D32303120580097
:103EA0004D6178696D756D20416363656C65726104
:103EB00074696F6E2028756E6974732F7332293A96
:103EC0000A0020450020204D323033205400205A73
:103ED0000020590020204D3230332058004D6178A9
:103EE000696D756D206665656472617465732028FF
:103EF000756E6974732F73293A0A002045002020DB
:103F00004D3932205400205A0020590020204D39CC
:103F10003220580053746570732070657220756E7E
:103F200069743A0A0020204D3230302044300A00B3
:103F300020204D32303020543120440020204D329A
:103F400030302044002044697361626C65640A006B
:103F500046696C616D656E742073657474696E6713
:103F6000733A0020204D3134392043203B20556ED8
:103F700069747320696E2043656C736975730A00F8
:103F80002020473231202020203B20556E69747359
:103F900020696E206D6D0A0020746F6F206C6F6E4B
:103FA0006720657874727573696F6E2070726576BC
:103FB000656E7465640A0020636F6C6420657874B4
:103FC000727573696F6E2070726576656E74656464
:103FD0000A000000B0C10080974300000000576154
:103FE000726E696E673A20486F6D696E6720427520
:103FF0006D702044697669736F72203C20310A002D
:104000000202040000A0400000A040000000404C5C
:10401000756C7A426F742054415A2036204F666680
:104020002E0000009C430080A14300008743000055
:104030004842000048420000404000000000FF01EC
:10404000FF5A2070726F6265206F75742E20626552
:10405000640A005A2070726F6265206F75742E209A
:1040600062656400473238205A20466F7262696484
:1040700064656E0A00473238205A20466F726269C2
:104080006464656E004F6666004F6E2000456E6486
:1040900073746F702061626F727400537465707313
:1040A0002F6D6D004A65726B00416363656C6572CC
:1040B0006174696F6E0056656C6F63697479005A3C
:1040C000204F666673657400416476616E63656453
:1040D0002053657474696E6773004D36303020422A
:1040E00030004D3234004D32332025730061757439
:1040F0006F25692E6700004D3234005072696E746E
:1041000020706175736564004D31323500457874F7
:1041100072756465723200457874727564657200F8
:104120004D6F7665205A004D6F76652059004D6FB2
:1041300076652058004D6F76656D656E74004D6F25
:10414000766520617869730044697361626C6520EB
:104150007374657070657273004D38340042656425
:10416000204C6576656C696E670047323820585977
:104170000A4D31303920533137350A473238205A09
:104180000A4D31303920523134350A4731320A472D
:1041900032390A4D313034205330004175746F206C
:1041A000686F6D6500473238004D61696E004D6F74
:1041B000766520302E316D6D004D6F766520316D46
:1041C0006D004D6F76652031306D6D004D6F7665F9
:1041D0002061786973004578747275646572004D6A
:1041E0006F7665205A004D6F76652059004D6F76C9
:1041F000652058005654726176206D696E005654E1
:10420000726176206D696E005654726176206D6918
:104210006E00566D696E00566D696E00566D696E62
:1042200000566D617820453200566D617820453228
:1042300000566D617820453200566D617820453119
:1042400000566D617820453100566D61782045310A
:1042500000566D6178205A00566D6178205A0056DC
:104260006D6178205A00566D6178205900566D6155
:1042700078205900566D6178205900566D6178207C
:104280005800566D6178205800566D6178205800AE
:104290004D6F74696F6E00453273746570732F6D66
:1042A0006D00453273746570732F6D6D0045317309
:1042B000746570732F6D6D00453173746570732F65
:1042C0006D6D005A73746570732F6D6D005A737441
:1042D0006570732F6D6D005973746570732F6D6DFC
:1042E000005973746570732F6D6D00587374657029
:1042F000732F6D6D005873746570732F6D6D004D65
:104300006F74696F6E0056652D6A65726B00566535
:104310002D6A65726B0056652D6A65726B00567A60
:104320002D6A65726B00567A2D6A65726B0056793C
:104330002D6A65726B0056792D6A65726B0056792D
:104340002D6A65726B0056782D6A65726B0056781F
:104350002D6A65726B0056782D6A65726B004D6F21
:1043600074696F6E004D36303020486F74656E642E
:1043700020746F6F20636F6C6420746F20636861BA
:104380006E67652066696C616D656E740A002575DF
:104390003A2530327500253032753A2530327500B5
:1043A00025756420253032753A25303275000006B7
:1043B0000900FE000000000001090008FE000005E1
:1043C000080806000040F0C888889878100508089A
:1043D000060000C0F88888888888F805050506006A
:1043E000012030F830200508080600002070F82071
:1043F000202020E00509090600FF2070A8A8B88841
:104400008870200509090600FFE080C0B0A82830A8
:1044100028280509090600FFF8A88888888888A840
:10442000F8050A0A0600FE205050505088A8A888B7
:104430007003030306000340A04000060900FE07C6
:104440000192032120FFFF08FF07FF000000060084
:104450000001070706020080808080800080030240
:1044600002060105A0A00507070600005050F850FD
:10447000F850500507070600002078A07028F020AB
:10448000050707060000C0C8102040981805070758
:104490000600006090A040A8906802030306010493
:1044A000C040800307070601002040808080402034
:1044B00003070706010080402020204080050505F5
:1044C00006000120A870A82005050506000120208F
:1044D000F820200203030602FFC040800501010608
:1044E0000003F8020202060200C0C005050506002E
:1044F00001081020408005070706000070888888A2
:1045000088887003070706010040C040404040E033
:10451000050707060000708808708080F805070707
:10452000060000F81020100808F005070706000034
:1045300010305090F81010050707060000F880F0C2
:1045400008088870050707060000708080F08888DA
:1045500070050707060000F8081020202020050736
:1045600007060000708888708888700507070600B5
:104570000070888878080870020505060200C0C02F
:1045800000C0C00206060602FFC0C000C040800492
:104590000707060000102040804020100503030696
:1045A0000002F800F80407070601008040201020F0
:1045B00040800507070600007088081020002005CD
:1045C000070706000070880868A8A8700507070696
:1045D0000000708888F8888888050707060000F0C2
:1045E0008888F08888F005070706000070888080BA
:1045F000808870050707060000F08888888888F0A2
:10460000050707060000F88080F08080F80507079E
:10461000060000F88080F080808005070706000013
:10462000708880B888887005070706000088888829
:10463000F8888888010707060200808080808080D3
:10464000800507070600003810101010906005075D
:10465000070600008890A0C0A09088050707060004
:1046600000808080808080F805070706000088D8D9
:10467000A8888888880507070600008888C8A89841
:104680008888050707060000708888888888700574
:104690000707060000F08888F0808080050707067D
:1046A000000070888888A89068050707060000F059
:1046B0008888F0A090880507070600007880807041
:1046C0000808F0050707060000F820202020202019
:1046D000050707060000888888888888700507070E
:1046E0000600008888888888502005070706000093
:1046F0008888888888A850050707060000888850A1
:1047000020508888050707060000888888502020E8
:1047100020050707060000F80810204080F803076E
:1047200007060100E08080808080E0050505060026
:10473000018040201008030707060100E020202028
:104740002020E0050303060004205088050101062F
:104750000000F80202020602058040050505060079
:104760000070087888780507070600008080B0C8C8
:104770008888F005050506000070808088700507B0
:10478000070600000808689888887805050506006F
:10479000007088F880700507070600003048E04088
:1047A0004040400506060600FF70888878087005BE
:1047B00007070600008080B0C888888801070706C0
:1047C0000200800080808080800308080601FF20AE
:1047D0000020202020A040040707060000808090D1
:1047E000A0C0A090030707060100C0404040404021
:1047F000E0050505060000D0A8A8A8A8050505063F
:104800000000B0C888888805050506000070888803
:1048100088700506060600FFF08888F0808005068F
:10482000060600FF78888878080805050506000058
:10483000B0C880808005050506000070807008F013
:104840000407070600004040E040404030050505F1
:104850000600008888889868050505060000888895
:104860008850200505050600008888A8A850050581
:104870000506000088502050880506060600FF88BF
:104880008888780870050505060000F8102040F8B3
:104890000307070601002040408040402001070731
:1048A0000602008080808080808003070706010068
:1048B00080404020404080050202060002689000CF
:1048C00000000600000000000600000000000600D6
:1048D00000000000060000000000060000000000CC
:1048E00006000000000006000000000006000000B6
:1048F00000000600000000000600000000000600A6
:10490000000000000600000000000600000000009B
:104910000600000000000600000000000600000085
:104920000000060000000000060000000000060075
:10493000000000000600000000000600000000006B
:104940000600000000000600000000000600000055
:104950000000060000000000060000000000060045
:10496000000000000600000000000600000000003B
:104970000600000000000600000000000600000025
:104980000000060000000000060000010707060204
:10499000008000808080808005070706000020706E
:1049A000A8A0A87020050707060000304040E0409E
:1049B00050A8050505060000887050708805070797
:1049C000060000885020F820F820010707060200A2
:1049D0008080800080808005080806000030482024
:1049E0005050209060030101060107A0050707064B
:1049F0000000F888B8B8B888F80507070600017005
:104A00000878887800F80505050600012850A050B0
:104A100028050303060001F8080802020206020640
:104A20004080050707060000F888A88898A8F805C0
:104A30000101060006F8040404060003609090607B
:104A40000507070600002020F8202000F8040505CF
:104A500006000360902040F0030505060003E020F7
:104A6000E020E00202020602064080050808060077
:104A7000FF8888888898E880800507070600007806
:104A8000989878181818020202060202C0C00202A2
:104A9000020602FF408003050506000340C04040B7
:104AA000E0050707060001708888887000F8050592
:104AB00005060001A0502850A00507070600008841
:104AC00090A858B808080507070600008890B8485D
:104AD000982038050808060000C040C048D83808AB
:104AE00008050707060000200020408088700508A0
:104AF000080600004020007088F88888050808062D
:104B000000001020007088F888880508080600005A
:104B10002050007088F88888050808060000689012
:104B2000007088F888880508080600005000708822
:104B300088F888880508080600002050207088F84A
:104B400088880507070600003860A0B8E0A0B8050F
:104B500008080600FF7088808088702060050808BB
:104B6000060000402000F880F080F80508080600E4
:104B700000081000F880F080F80508080600002002
:104B80005000F880F080F80507070600005000F894
:104B900080F080F8030808060100804000E04040F3
:104BA00040E0030808060100204000E0404040E0EB
:104BB00003080806010040A000E0404040E0030771
:104BC00007060100A000E0404040E005070706009E
:104BD00000704848E84848700508080600006890DA
:104BE0000088C8A89888050808060000402070883A
:104BF000888888700508080600001020708888885A
:104C000088700508080600002050007088888870A9
:104C100005080806000068900070888888700508FC
:104C20000806000050007088888888700505050611
:104C3000000188502050880508080600FF1070A861
:104C4000A8A8A870400508080600004020888888A9
:104C500088887005080806000010208888888888E1
:104C600070050808060000205000888888887005B4
:104C700008080600005000888888888870050808A1
:104C80000600001020885020202020050909060079
:104C9000FFC040704848704040E00408080601FF2B
:104CA000609090A09090E0800508080600004020E9
:104CB0000070087888780508080600001020007049
:104CC00008788878050808060000205000700878E9
:104CD00088780508080600006890007008788878D1
:104CE0000507070600005000700878887805080856
:104CF0000600002050207008788878050606060017
:104D000000D02878A0A8500506060600FF7080880D
:104D10007020600508080600004020007088F880B8
:104D2000700508080600001020007088F8807005E3
:104D300008080600002050007088F88070050707FA
:104D400006000050007088F8807003080806010013
:104D500080400040C04040E00308080601002040B9
:104D60000040C04040E003080806010040A00040A9
:104D7000C04040E0030707060100A00040C04040DB
:104D8000E0050707060000A040A01078887005081D
:104D900008060000689000B0C888888805080806E2
:104DA0000000402000708888887005080806000010
:104DB00010200070888888700508080600002050C0
:104DC00000708888887005080806000068900070E8
:104DD000888888700507070600005000708888885A
:104DE000700505050600012000F8002005070706EC
:104DF00000FF1070A8A8A870400508080600004031
:104E0000200088888898680508080600001020009F
:104E1000888888986805080806000020500088885F
:104E200088986805070706000050008888889868F9
:104E30000509090600FF102000888888F80870041A
:104E400007070601FFC04060506040E00508080603
:104E500000FF50008888887808705A005900580070
:104E60000920000000000000000000000000007F9A
:104E7000FFE00000000000000000000000007000E3
:104E8000E000000000000000000000000061F86089
:104E900000000000000000000000000041F82000B9
:104EA000000000000000000000000040F0200000B2
:104EB0000000000000000000000040602000000032
:104EC0000000000000000000005801A07F80003FAB
:104ED000C0000000004104005C63A0FBC00079E05A
:104EE000000000002082005EF7A0F3C00076E00022
:104EF0000000002082005EF7A0EBC0007EE0000012
:104F000000004104005C63A07B80003DC000000005
:104F1000008208005801A07B80003BC00000000117
:104F2000041000406020FBC00077E0000000010496
:104F3000100040F020FBC00070E00000000082087C
:104F40000041F820FFC0007FE000000000410400A5
:104F500061F8603F00001F8000000000000000704A
:104F600000E01E00000F0000000001FFFF807FFF37
:104F7000E00C0000060000000001FFFF80000000C0
:104F80000000000000000000000000007FFFE000C3
:104F900000000000000000000000007000E00000C1
:104FA00000000000000000000000630C6000000032
:104FB000000000000000000000470E20000000007C
:104FC00000000000000000004F0F20000000000063
:104FD000000000000000005F0FA0000000000000C3
:104FE0000000000000005E07A07F80003FC00000BE
:104FF0000000410400406020FBC00079E000000098
:105000000020820040F020F3C00076E000000000A5
:1050100020820040F020EBC0007EE0000000004154
:1050200004004060207B80003DC00000000082083A
:10503000005E07A07B80003BC00000000104100060
:105040005F0FA0FBC00077E0000000010410004FDC
:105050000F20FBC00070E000000000820800470E37
:1050600020FFC0007FE000000000410400630C60EE
:105070003F00001F80000000000000007000E01EE4
:1050800000000F0000000001FFFF807FFFE00C0028
:1050900000060000000001FFFF8000000020496EB4
:1050A00076616C696420657874727564657220003D
:1050B0004578747275646572202569202573004CEB
:1050C000756C7A426F742054415A203620726561A3
:1050D00064792E003A20007A5F6D696E3A20202DA7
:1050E00032207A5F6D61783A202035005A204F6671
:1050F0006673657420004B64200023646566696EE6
:1051000065202044454641554C545F004B692000C2
:1051100023646566696E65202044454641554C54BC
:105120005F004B70200023646566696E6520204433
:10513000454641554C545F00504944204175746FB9
:1051400074756E652066696E6973686564212050A8
:10515000757420746865206C617374204B702C200A
:105160004B6920616E64204B6420636F6E737461C1
:105170006E74732066726F6D2062656C6F77206944
:105180006E746F20436F6E66696775726174696FC4
:105190006E2E680A00504944204175746F74756E14
:1051A00065206661696C6564212074696D656F7541
:1051B000740A00504944204175746F74756E6520FF
:1051C0006661696C6564212054656D7065726174F7
:1051D00075726520746F6F20686967680A00204BDC
:1051E000643A2000204B693A2000204B703A20009E
:1051F0000A20436C617373696320504944200A009C
:105200002054753A2000204B753A2000206D6178BB
:105210003A2000206D696E3A200020643A20002078
:10522000626961733A20004E6F204C696E65204EB2
:10523000756D626572207769746820636865636B59
:1052400073756D2C204C617374204C696E653A2027
:105250000053544F505045442E20005072696E74D4
:1052600065722073746F7070656420647565207456
:105270006F206572726F72732E2046697820746891
:1052800065206572726F7220616E6420757365208F
:105290004D39393920746F20726573746172742EC0
:1052A000202854656D70657261747572652069732C
:1052B0002072657365742E205365742069742061B3
:1052C000667465722072657374617274696E6729A1
:1052D0000A004E6F20436865636B73756D207769B4
:1052E0007468206C696E65206E756D6265722C2025
:1052F0004C617374204C696E653A20006368656385
:105300006B73756D206D69736D617463682C204CCF
:10531000617374204C696E653A20004C696E65209B
:105320004E756D626572206973206E6F74204C61DA
:105330007374204C696E65204E756D6265722B31F9
:105340002C204C617374204C696E653A20004D31FD
:105350003130004D3331004D383420582059205A17
:1053600020450053442072656164206572726F723B
:105370000A00446F6E65207072696E74696E6720F2
:1053800066696C650A004B494C4C45442E20004B25
:10539000494C4C20636175736564206279204B49E8
:1053A0004C4C20627574746F6E2F70696E0A004BDE
:1053B000494C4C45442E20004B494C4C20636175B0
:1053C00073656420627920746F6F206D7563682047
:1053D000696E6163746976652074696D65202D203E
:1053E00063757272656E7420636F6D6D616E643A81
:1053F0002000436F6F6C646F776E0046616E2073A0
:105400007065656420310046616E20737065656467
:1054100020310042656400426564004E6F7A7A6C08
:10542000652032004E6F7A7A6C652032004E6F7ABA
:105430007A6C652031004E6F7A7A6C652031004DB0
:1054400061696E00436172642072656D6F76656498
:10545000004361726420696E736572746564004113
:105460006D617820453200416D6178204532004100
:105470006D617820453100416D61782045310041F2
:105480006D6178205A00416D6178205A00416D614C
:1054900078205900416D6178205900416D61782074
:1054A0005800416D6178205800412D747261766515
:1054B0006C00412D74726176656C00412D726574CB
:1054C0007261637400412D7265747261637400418E
:1054D0006363656C00416363656C004D6F74696F55
:1054E0006E004E414E494E495459494E46CDCCCCA2
:1054F0003D0AD7233C17B7D13877CC2B329595E6A8
:10550000241FB14F0A000020410000C84200401C87
:105510004620BCBE4CCA1B0E5AAEC59D7400DD00B1
:10552000DF0011241FBECFEFD1E2DEBFCDBF00E010
:105530000CBF14E0A0E0B2E0EEE6F8E402E00BBF3E
:1055400002C007900D92A832B107D9F725E1A8E271
:10555000B4E001C01D92AE39B207E1F715E5C0E233
:10556000D5E500E006C022970109FE010BBF0F94AC
:10557000B723CE31D10780E00807A9F70E94B28A8D
:105580000D9426240C9400002F923F924F925F922C
:105590006F927F928F929F92AF92BF92CF92DF9243
:1055A000EF92FF920F931F93CF93DF93CDB7DEB7A8
:1055B000C35CD1090FB6F894DEBF0FBECDBF00911A
:1055C000960A20E6029F800111240A5E164F809100
:1055D000F90480FF1AC0EBEEF0E184917F013FEF08
:1055E000E31AF30A811102C0780104C00E94A84A9C
:1055F000F701F3CFD7018D917D01882319F00E9427
:10560000A84AF8CF8AE00E94A84A10928304109218
:1056100082048FE38093F8041092F7041092F6044A
:1056200010924204109243041092440410924504D4
:10563000F80180810F5F1F4F8032D1F38E34B1F4B7
:10564000818190ED980F9A3020F08D3211F08B32DD
:1056500069F43296DF0131962C9120532A30D0F331
:10566000CD01FC01019620812032D9F3F093F004A2
:10567000E093EF047F01BFEFEB1AFB0A10816AE2AF
:1056800070E0C7010F94F723009739F0DC01119700
:105690008C918032E1F311961C921D3429F014355F
:1056A00019F0173409F0CAC0F7014E2F9F2F8191CE
:1056B0008032D9F380538A3008F0C0C01093F804C8
:1056C0002091F6043091F704E42FF92F6AE0AF013E
:1056D0004F5F5F4F629FC001639F900D1124208137
:1056E00030E020533109820F931F218120532A304B
:1056F00030F09093F7048093F6049A0103C09C0164
:10570000FA01E5CFD9012F5F3F4F4C914032D1F3E1
:105710001D34D1F48E31910591F03CF4873191051F
:1057200071F08C31910581F40AC08537910564F0E0
:105730008737910524F0803AE3E09E0729F4B0937F
:105740008304A09382047AC010928304109282048E
:10575000D090EF0441E050E0FD0131962C912223DE
:1057600009F46CC02132A1F41D3491F4803291050A
:1057700079F4F0938304E093820463E270E0CF0154
:105780000F94F723009709F459C0DC011C9256C00E
:105790000FEB020F0A31A0F59F01F90160812F5F25
:1057A0003F4F6032D1F320ED260F2A3040F023ED39
:1057B000260F223020F06B3211F00C9430459F01FF
:1057C000602F70E0DB01B595A795B595A795B595C8
:1057D000A795AE5BBB4F07707A01002E01C0EE0C9F
:1057E0000A94EAF7FC90FE28FC922115310511F08D
:1057F0002D1901C020E0DB01A85DBB4F2C930AC02E
:105800002091820430918304232B21F4B0938304EC
:10581000A0938204208121542A3110F4DF019CCF0F
:10582000DF0131966C9160536A30D0F39D01F9012C
:105830002F5F3F4F60816032D1F3F0CF8091F80449
:105840008D3411F40C94BF38843511F40C94264334
:10585000873411F00C9416458091F6049091F7046A
:105860008A31910511F40C945D34A4F484309105CF
:1058700044F4823091050CF00CC197FF2EC00C94BB
:105880002D458430910509F48CC70C9709F4CEC7D7
:105890000C942D458E31910511F40C940D3854F46F
:1058A0008C31910511F40C94E93414F40C946434A3
:1058B0000C94EE348B35910511F40C94B6388C357C
:1058C000910511F40C94BB388A35910511F00C94B4
:1058D0002D451092F5040C942D4580916602882385
:1058E00011F40C942D450E94F14E86E494E00E9440
:1058F0005B4C0E9438518091F90483FD79C0C090BF
:105900005204D0905304E0905404F0905504209138
:10591000EC083091ED084091EE085091EF08C70176
:10592000B6010F948F1C882309F462C08091EE04A5
:105930000E945C4F882301F1C092EC08D092ED08E0
:10594000E092EE08F092EF08EBEEF0E184918F0127
:105950000F5F1F4F882321F00E94A84AF801F6CF5D
:10596000E5EEF1E084918F010F5F1F4F882321F056
:105970000E94A84AF801F6CFC0905204D090530478
:10598000E0905404F09055042091EC083091ED081B
:105990004091EE085091EF08C701B6010F94C12065
:1059A00020E030E048E453E40F94E822181604F5B0
:1059B000C092EC08D092ED08E092EE08F092EF0869
:1059C000EBEEF0E184918F010F5F1F4F882321F0F0
:1059D0000E94A84AF801F6CFE6ECF1E084918F012D
:1059E0000F5F1F4F882321F00E94A84AF801F6CFCD
:1059F0002091460430914704409148045091490455
:105A00006091E0087091E1088091E2089091E308CC
:105A10000F948F1C81111DC020914A0430914B04BA
:105A200040914C0450914D046091E4087091E50858
:105A30008091E6089091E7080F948F1C811109C0AE
:105A4000609162027091630280916402909165029C
:105A50001AC060915A0270915B02882777FD809589
:105A6000982F0F94951C209162023091630240910F
:105A70006402509165020F94F41C2AE037ED43E272
:105A80005CE30F94F41C0F94EB140E94BA4C0C943A
:105A90002D4520916602222311F40C942D4511E02E
:105AA000029709F010E00E94F14E82E50E94DC4D61
:105AB000882309F48EC10E949C4B6B017C014090AD
:105AC000E0085090E1086090E2087090E3082091AF
:105AD000E4083091E5084091E6085091E708C7577F
