:100000000C94072B0D94A2110D9477110D944C11A3
:100010000D9421110D94F6100D94CB100D94A01099
:100020000C94ABB00C94382B0C94382B0C94382BCC
:100030000C94382B0C9460E80C94382B0C94382BCF
:100040000C94382B0C94F8A80C94382B0C94382B67
:100050000C94382B0C94382B0C946EA70D94CD1166
:100060000C94382B0C94BEAF0C9459B00C94382BD4
:100070000C94382B0C94382B0C94382B0C94382B74
:100080000C94382B0C94382B0C94382B0C94382B64
:100090000C94382B0C94382B0C94382B0C94382B54
:1000A0000C94382B0C94382B0C94382B0C94382B44
:1000B0000C94382B0C94382B0C94382B0C94382B34
:1000C0000C94382B0C94382B0C94382B0C94382B24
:1000D0000C94382B0C94382B0C94382B0C94382B14
:1000E0000C94382BE88DED8DF28DFC8D068E7F8E75
:1000F000108E188E208E2A8E348E3E8E4D8E578E08
:100100007F8E618E6B8E758E509850985798579849
:1001100057985E985E985E986B9865986598659814
:10012000F2AFF8AF09B014B01CB031B020B031B0AC
:1001300024B028B031B02EB0E000FA00EC00EA00A4
:10014000DC0000010401DA00E600D400EE000A0140
:10015000D60006010001DE00E800F000084AD73BA7
:100160003BCE016E84BCBFFDC12F3D6C74319ABD86
:1001700056833DDA3D00C77F11BED9E4BB4C3E91AA
:100180006BAAAABE000000803F05A84CCDB2D44E99
:10019000B93836A9020C50B9918688083CA6AAAA9B
:1001A0002ABE000000803F000D944E080D945C08AC
:1001B0000D945D130D9444080D9435080D94660854
:1001C0000D9439080D941F080D9417120D944A08C8
:1001D0000D946A080D942F080D942B080D94520865
:1001E0000D946E080D940A0D0D94DF070D946D0C9F
:1001F0000D94FF0E0D943C080D94DC070D94B3078D
:100200000D9473080D94DB070D9440080D9460085D
:100210000D941D080D9458080D94ED0720746F6F10
:10022000206C6F6E6720657874727573696F6E20CD
:1002300070726576656E7465640A0020636F6C6425
:1002400020657874727573696F6E2070726576655B
:100250006E7465640A0047322F4733206261642060
:10026000706172616D65746572730A00536C6565C7
:10027000702E2E2E00205A3A200020593A2000429B
:10028000656420583A20004C756C7A426F74204D9A
:10029000696E69204C43442072656164792E005276
:1002A0006573756D696E67207072696E7400436C5A
:1002B00069636B20746F20726573756D652E2E2EC9
:1002C000004E6F206D6F76652E00456E6420666966
:1002D0006C65206C6973740A00426567696E2066FC
:1002E000696C65206C6973740A004D313235000009
:1002F0000125301D0C1E24311C0B18232F1B0A173F
:10030000FFFF040806FF06222B1A4142043803FFB0
:100310003628294527444350726F746563746564B9
:100320002050696E0A0042656420646F6E652E007D
:1003300020573A004265642068656174696E672ED3
:100340000042656420636F6F6C696E672E004361C5
:10035000703A454D455247454E43595F50415253BF
:1003600045523A310A004361703A434153455F4C6C
:10037000494748545F4252494748544E4553533ABF
:10038000300A004361703A544F47474C455F4C492F
:10039000474854533A300A004361703A534F465429
:1003A000574152455F504F5745523A300A0043611A
:1003B000703A4C4556454C494E475F444154413A8A
:1003C000310A004361703A5A5F50524F42453A3108
:1003D0000A004361703A4155544F4C4556454C3ADA
:1003E000310A004361703A5052494E545F4A4F42BD
:1003F0003A310A004361703A50524F4752455353C5
:100400003A300A004361703A4155544F5245504FBB
:1004100052545F54454D503A310A004361703A4599
:100420004550524F4D3A310A004649524D574152BC
:10043000455F4E414D453A4D61726C696E202046D4
:1004400049524D574152455F56455253494F4E3AD6
:10045000312E312E352E36382045585452554445CC
:10046000525F545950453A4165726F7374727564A6
:10047000657220534F555243455F434F44455F5586
:10048000524C3A68747470733A2F2F636F64652E00
:10049000616C6570686F626A656374732E636F6DFB
:1004A0002F646966667573696F6E2F4D41524C49B2
:1004B0004E2050524F544F434F4C5F564552534974
:1004C0004F4E3A312E30204D414348494E455F54FE
:1004D0005950453A4C756C7A426F74204D696E697B
:1004E000204C43442045585452554445525F434F95
:1004F000554E543A3120555549443A3038336636D2
:100500003866312D303238652D343934632D393821
:1005100065312D6632653064666165653961350A1D
:10052000002F2F20007A5F6D61783A20007A5F6D8E
:10053000696E3A2000795F6D61783A2000795F6DCD
:10054000696E3A2000785F6D61783A2000785F6DBF
:10055000696E3A20005265706F7274696E6720652B
:100560006E6473746F70207374617475730A0053D2
:10057000657474696E672054726176656C2041639E
:1005800063656C65726174696F6E3A2000536574BF
:1005900074696E672052657472616374204163638D
:1005A000656C65726174696F6E3A2000536574748E
:1005B000696E67205072696E7420416363656C6573
:1005C000726174696F6E3A200053657474696E6766
:1005D000205072696E7420616E6420547261766579
:1005E0006C20416363656C65726174696F6E3A205B
:1005F00000205A00205900580020204D61783A20F0
:1006000000205A00205900580020204D696E3A20E1
:10061000004F6E20004F666600536F667420656E53
:100620006473746F70733A200020643A0020693A52
:100630000020703A0020643A0020693A0020703AA5
:100640000043290A0061626C656420286D696E2090
:1006500074656D702000436F6C64206578747275EA
:10066000646573206172652000426564204C657684
:10067000656C696E6720004661696C656420746F03
:1006800020656E61626C6520426564204C6576650C
:100690006C696E670A00426564204C6576656C2063
:1006A000436F7272656374696F6E204D6174726915
:1006B000783A003A20007A5F6D696E3A20202D3238
:1006C000207A5F6D61783A202035005A204F6666A7
:1006D00073657420004E6F2063617365206C6967D9
:1006E00068740A0041637469766520457874727590
:1006F0006465723A2000556E6B6E6F776E20636F83
:100700006D6D616E643A20220020204E6F7A7A6C03
:10071000653A2000200066696C616D656E74207515
:100720006E6C6F6164005761697420666F7200506F
:1007300052494E54205041555345440020204E6F9D
:100740007A7A6C653A20006368616E6765006F664F
:10075000207468652066696C616D656E7400576110
:10076000697420666F72207374617274005052490C
:100770004E54205041555345440020204E6F7A7A04
:100780006C653A200020004261636B004D696E6920
:100790006D756D2054656D70206973203132302E77
:1007A0000048656174696E67206661696C65640004
:1007B00025753A2530327500253032753A253032AC
:1007C000750025756420253032753A253032750064
:1007D00000060900FE000000000001090008FE00FC
:1007E0000005080806000040F0C8888898781005C1
:1007F0000808060000C0F88888888888F80505057C
:100800000600012030F8302005080806000020709E
:10081000F820202020E00509090600FF2070A8A884
:10082000B8888870200509090600FFE080C0B0A8DC
:10083000283028280509090600FFF8A88888888834
:1008400088A8F8050A0A0600FE205050505088A8D3
:10085000A8887003030306000340A04000060900B7
:10086000FE070192032120FFFF08FF07FF000000A1
:10087000060000010707060200808080808000805B
:10088000030202060105A0A005070706000050505C
:10089000F850F850500507070600002078A070288F
:1008A000F020050707060000C0C810204098180572
:1008B00007070600006090A040A8906802030306A6
:1008C0000104C040800307070601002040808080AB
:1008D00040200307070601008040202020408005BB
:1008E000050506000120A870A820050505060001E1
:1008F0002020F820200203030602FFC040800501EB
:1009000001060003F8020202060200C0C005050548
:1009100006000108102040800507070600007088C7
:10092000888888887003070706010040C04040405F
:1009300040E0050707060000708808708080F80511
:100940000707060000F81020100808F00507070642
:10095000000010305090F81010050707060000F84E
:1009600080F008088870050707060000708080F096
:10097000888870050707060000F80810202020204E
:1009800005070706000070888870888870050707CB
:1009900006000070888878080870020505060200C5
:1009A000C0C000C0C00206060602FFC0C000C040B2
:1009B0008004070706000010204080402010050337
:1009C00003060002F800F804070706010080402033
:1009D00010204080050707060000708808102000DE
:1009E0002005070706000070880868A8A87005079A
:1009F00007060000708888F88888880507070600C1
:100A000000F08888F08888F00507070600007088E5
:100A10008080808870050707060000F08888888835
:100A200088F0050707060000F88080F08080F80550
:100A30000707060000F88080F08080800507070621
:100A40000000708880B88888700507070600008855
:100A50008888F888888801070706020080808080DF
:100A60008080800507070600003810101010906085
:100A70000507070600008890A0C0A090880507071A
:100A8000060000808080808080F80507070600004F
:100A900088D8A8888888880507070600008888C83D
:100AA000A8988888050707060000708888888888C5
:100AB00070050707060000F08888F0808080050731
:100AC0000706000070888888A89068050707060058
:100AD00000F08888F0A0908805070706000078805D
:100AE00080700808F0050707060000F82020202085
:100AF00020200507070600008888888888887005F8
:100B000007070600008888888888502005070706A0
:100B100000008888888888A8500507070600008894
:100B2000885020508888050707060000888888506C
:100B3000202020050707060000F80810204080F854
:100B4000030707060100E08080808080E00505053E
:100B50000600018040201008030707060100E0207E
:100B600020202020E0050303060004205088050112
:100B700001060000F8020202060205804005050594
:100B80000600007008788878050707060000808056
:100B9000B0C88888F0050505060000708080887060
:100BA0000507070600000808689888887805050585
:100BB0000600007088F880700507070600003048BE
:100BC000E0404040400506060600FF70888878082F
:100BD000700507070600008080B0C8888888010774
:100BE00007060200800080808080800308080601DC
:100BF000FF200020202020A04004070706000080DE
:100C00008090A0C0A090030707060100C0404040AC
:100C10004040E0050505060000D0A8A8A8A80505E5
:100C200005060000B0C88888880505050600007024
:100C3000888888700506060600FFF08888F08080A6
:100C40000506060600FF7888887808080505050669
:100C50000000B0C880808005050506000070807027
:100C600008F00407070600004040E040404030051F
:100C700005050600008888889868050505060000B7
:100C800088888850200505050600008888A8A85097
:100C90000505050600008850205088050606060058
:100CA000FF888888780870050505060000F8102080
:100CB00040F8030707060100204040804040200123
:100CC0000707060200808080808080800307070677
:100CD000010080404020404080050202060002687A
:100CE0009000000006000000000006000000000068
:100CF00006000000000006000000000006000000E2
:100D000000000600000000000600000000000600D1
:100D100000000000060000000000060000000000C7
:100D200006000000000006000000000006000000B1
:100D300000000600000000000600000000000600A1
:100D40000000000006000000000006000000000097
:100D50000600000000000600000000000600000081
:100D60000000060000000000060000000000060071
:100D70000000000006000000000006000000000067
:100D80000600000000000600000000000600000051
:100D90000000060000000000060000000000060041
:100DA0000000000006000000000006000001070728
:100DB0000602008000808080808005070706000012
:100DC0002070A8A0A870200507070600003040404A
:100DD000E04050A8050505060000887050708805A1
:100DE0000707060000885020F820F82001070706B2
:100DF00002008080800080808005080806000030A6
:100E000048205050209060030101060107A005070B
:100E100007060000F888B8B8B888F8050707060084
:100E200001700878887800F805050506000128504B
:100E3000A05028050303060001F808080202020674
:100E400002064080050707060000F888A88898A8D1
:100E5000F8050101060006F804040406000360908A
:100E600090600507070600002020F8202000F80405
:100E7000050506000360902040F003050506000309
:100E8000E020E020E0020202060206408005080899
:100E90000600FF8888888898E88080050707060094
:100EA0000078989878181818020202060202C0C04A
:100EB0000202020602FF408003050506000340C04F
:100EC0004040E0050707060001708888887000F838
:100ED000050505060001A0502850A00507070600DB
:100EE000008890A858B808080507070600008890F1
:100EF000B848982038050808060000C040C048D807
:100F00003808080507070600002000204080887088
:100F10000508080600004020007088F88888050849
:100F2000080600001020007088F888880508080668
:100F300000002050007088F8888805080806000026
:100F40006890007088F8888805080806000050003E
:100F5000708888F8888805080806000020502070EE
:100F600088F888880507070600003860A0B8E0A068
:100F7000B80508080600FF7088808088702060052A
:100F80000808060000402000F880F080F8050808F6
:100F9000060000081000F880F080F8050808060038
:100FA00000205000F880F080F80507070600005088
:100FB00000F880F080F8030808060100804000E097
:100FC000404040E0030808060100204000E04040A7
:100FD00040E003080806010040A000E0404040E077
:100FE000030707060100A000E0404040E0050707B6
:100FF000060000704848E8484870050808060000E8
:1010000068900088C8A89888050808060000402055
:10101000708888888870050808060000102070888D
:1010200088888870050808060000205000708888AD
:10103000887005080806000068900070888888702D
:10104000050808060000500070888888887005052B
:101050000506000188502050880508080600FF108A
:1010600070A8A8A8A87040050808060000402088BD
:1010700088888888700508080600001020888888FD
:101080008888700508080600002050008888888835
:101090007005080806000050008888888888700558
:1010A000080806000010208850202020200509098B
:1010B0000600FFC040704848704040E00408080641
:1010C00001FF609090A09090E08005080806000065
:1010D0004020007008788878050808060000102075
:1010E0000070087888780508080600002050007015
:1010F000087888780508080600006890007008786D
:101100008878050707060000500070087888780581
:101110000808060000205020700878887805060628
:10112000060000D02878A0A8500506060600FF702B
:101130008088702060050808060000402000708844
:10114000F880700508080600001020007088F880FC
:10115000700508080600002050007088F8807005AF
:10116000070706000050007088F880700308080622
:10117000010080400040C04040E003080806010034
:1011800020400040C04040E003080806010040A0A5
:101190000040C04040E0030707060100A00040C037
:1011A0004040E0050707060000A040A010788870C6
:1011B000050808060000689000B0C88888880508FF
:1011C000080600004020007088888870050808061E
:1011D000000010200070888888700508080600004C
:1011E0002050007088888870050808060000689004
:1011F0000070888888700507070600005000708816
:101200008888700505050600012000F80020050704
:10121000070600FF1070A8A8A8704005080806007F
:10122000004020008888889868050808060000109B
:10123000200088888898680508080600002050006B
:101240008888889868050707060000500088888805
:1012500098680509090600FF102000888888F808AA
:10126000700407070601FFC04060506040E00508B9
:10127000080600FF50008888887808705A005900D6
:1012800058000920000000000000000000000000DD
:10129000007FFFE0000000000000000000000000F0
:1012A0007000E0000000000000000000000000618D
:1012B000F86000000000000000000000000041F89D
:1012C0002000000000000000000000000040F020AE
:1012D000000000000000000000000000406020004E
:1012E00000000000000000000000005801A07F8006
:1012F000000000000000004104005C63A0FFC0008B
:101300000000000000002082005EF7A0FFC0000087
:1013100000000000002082005EF7A0FFC000000077
:10132000000000004104005C63A07F80000000001A
:101330000000008208005801A07F8000000000002B
:101340000001041000406020FFC000000000000009
:101350000104100040F020FFC00000000000000069
:1013600082080041F820FFC000000000000000419A
:10137000040061F8603F0000000000000000000071
:10138000007000E01E0000000000000001FFFF8070
:101390007FFFE00C0000000000000001FFFF800064
:1013A00000000000000000000000000000007FFFBF
:1013B000E00000000000000000000000007000E0FD
:1013C000000000000000000000000000630C60004E
:1013D0000000000000000000000000470E20000098
:1013E000000000000000000000004F0F200000007F
:1013F0000000000000000000005F0FA000000000DF
:1014000000000000000000005E07A07F80000000D8
:1014100000000000410400406020FFC00000000008
:1014200000000020820040F020FFC000000000000B
:10143000000020820040F020FFC0000000000000FB
:10144000004104004060207F800000000000000098
:101450008208005E07A07F800000000000000104F9
:1014600010005F0FA0FFC00000000000000104108A
:10147000004F0F20FFC000000000000000820800A5
:10148000470E20FFC0000000000000004104006380
:101490000C603F0000000000000000000000700031
:1014A000E01E0000000000000001FFFF807FFFE061
:1014B0000C0000000000000001FFFF800000002978
:1014C0000A002062797465733B20637263200053C5
:1014D000657474696E67732053746F726564202835
:1014E0000020496E76616C69642065787472756459
:1014F000657220005344207072696E74696E6720B3
:101500006279746520004E6F7420534420707269B4
:101510006E74696E670A00204500205A0020204D35
:1015200039303720580053746570706572206D6FC4
:10153000746F722063757272656E74733A0A00205C
:10154000204D383531205A005A2D50726F62652077
:101550004F666673657420286D6D293A0A00204431
:101560000020490020204D3330342050002044001A
:1015700020490020204D3330312050005049442074
:1015800073657474696E67733A0A002046002042DE
:101590000020480020204D3134352053004D617427
:1015A000657269616C206865617475702070617224
:1015B000616D65746572733A0A0020204D343230D3
:1015C0002053004175746F20426564204C65766538
:1015D0006C696E673A0A00205A0020590020204D9D
:1015E000323036205800486F6D65206F666673652F
:1015F000743A0A00204500205A0020590020580063
:1016000020420020540020204D323035205300412C
:101610006476616E6365643A20533C6D696E5F6603
:10162000656564726174653E20543C6D696E5F74DB
:10163000726176656C5F66656564726174653E2093
:10164000423C6D696E5F7365676D656E745F74694A
:101650006D655F6D733E20583C6D61785F78795F92
:101660006A65726B3E205A3C6D61785F7A5F6A658D
:10167000726B3E20453C6D61785F655F6A65726B99
:101680003E0A0020540020520020204D32303420E9
:101690005000416363656C65726174696F6E2028E8
:1016A000756E6974732F7332293A20503C707269D9
:1016B0006E745F616363656C3E20523C7265747248
:1016C0006163745F616363656C3E20543C74726156
:1016D00076656C5F616363656C3E0A00204500209F
:1016E0005A0020590020204D3230312058004D61E1
:1016F00078696D756D20416363656C6572617469AD
:101700006F6E2028756E6974732F7332293A0A0040
:10171000204500205A0020590020204D323033202F
:1017200058004D6178696D756D20666565647261FC
:101730007465732028756E6974732F73293A0A00D3
:10174000204500205A0020590020204D39322058D1
:101750000053746570732070657220756E69743AF9
:101760000A0020204D3230302044300A0020204D25
:101770003230302044002044697361626C65640A31
:101780000046696C616D656E742073657474696E72
:1017900067733A0020204D3134392043203B2055D7
:1017A0006E69747320696E2043656C736975730A82
:1017B000002020473231202020203B20556E6974C4
:1017C0007320696E206D6D0A00434F4D4D554E4993
:1017D000434154494F4E0044525952554E004552D0
:1017E000524F525300494E464F004543484F001058
:1017F00000C90210012C014001220170011801B042
:10180000010E01F00104015002FA00B002F00030B4
:1018100003E600D003DC009004D2007005C800A0ED
:1018200006BE000008B400B009AA00D00BA00060FA
:101830000E960060118C000015820020197800C0FF
:101840001D6E00A0226400B0275A00902C500000AA
:10185000314600E0343C0010383200903A280060F5
:101860003C1E00A03D1400803E0A00203F00004DB9
:1018700031343520533C696E6465783E206F757451
:10188000206F662072616E67652028302D31290A2D
:1018900000EA17E517DE17D717C9176F6666004409
:1018A000454255473A0020706F736974696F6E2026
:1018B0006F7574206F662072616E67652E0A003F37
:1018C00050726F626520001000AD0330016A015054
:1018D000022B0170030A019004F500B005E500D069
:1018E00006D800F007CE001009C500300ABE00502F
:1018F0000BB700700CB100900DAB00B00EA600D07D
:101900000FA200F0109D00101299003013950050A6
:1019100014920070158E0090168B00B0178700D0BF
:10192000188400F0198100101B7E00301C7B0050D1
:101930001D7900701E7600901F7300B0207000D0DB
:10194000216E00F0226B00102469003025660050E3
:101950002663007027610090285E00B0295C00D0EB
:101960002A5900F02B5600102D5400302E510050F3
:101970002F4E0070304B0090314800B0324500D0FF
:10198000334200F0343E0010363B00303737005011
:1019900038330070392E00903A2900B03B2300D034
:1019A0003C1B00F03D1100103F0100F03F000050D3
:1019B00072696E742061626F727465640041626F57
:1019C0007574204669726D77617265004E6F2053A1
:1019D000442063617264005072696E742066726F95
:1019E0006D2053440053746F70207072696E7400E0
:1019F000526573756D65207072696E740050617503
:101A00007365207072696E74004368616E6765204B
:101A100066696C616D656E7400436F6E66696775AB
:101A2000726174696F6E0054656D70657261747572
:101A30007265004D6F76656D656E740054756E65E8
:101A400000496E666F2073637265656E005265773C
:101A50006970696E670050726F62696E67206661B7
:101A6000696C65640050726F62696E6720666169B7
:101A70006C65640050524F4245204641494C20431A
:101A80004C45414E204E4F5A5A4C450A00526577FC
:101A90006970696E670A005265776970696E6700E0
:101AA00050726F62696E67206661696C6564005090
:101AB000726F62696E67206661696C65640050527E
:101AC0004F4245204641494C20434C45414E204E13
:101AD0004F5A5A4C450A005265776970696E670A19
:101AE0000050726F62696E67206661696C65640A96
:101AF0000050726F62696E67206661696C65640090
:101B0000205A3A200020593A200042656420583A71
:101B1000200053442063617264206F6B0A006F7071
:101B2000656E526F6F74206661696C65640A007639
:101B30006F6C756D652E696E6974206661696C6580
:101B4000640A00534420696E6974206661696C0AF6
:101B5000007C3C3E5E2B3D3F2F5B5D3B2C2A225C94
:101B60000043616E6E6F74206F70656E20737562D6
:101B70006469722000506C656173652072657365DD
:101B800074005052494E5445522048414C544544EB
:101B9000005072696E7465722068616C7465642EA1
:101BA000206B696C6C28292063616C6C6564210A68
:101BB000006265640A002C2073797374656D20736C
:101BC000746F7070656421204865617465725F4947
:101BD000443A2000544845524D414C2052554E4104
:101BE0005741592042454400546865726D616C202C
:101BF00052756E6177617900544845524D414C20D1
:101C000052554E4157415920453100544845524D97
:101C1000414C2052554E41574159204530004865AE
:101C20006174696E67206661696C65642042454431
:101C30000048656174696E67206661696C6564005F
:101C400048656174696E67206661696C6564004807
:101C5000656174696E67206661696C6564204530F2
:101C60000057726974696E6720746F2066696C65CD
:101C70003A20006F70656E206661696C65642C2087
:101C800046696C653A20006F70656E206661696C0C
:101C900065642C2046696C653A200046696C6520B5
:101CA00073656C65637465640A002053697A653AEC
:101CB000200046696C65206F70656E65643A20008F
:101CC0006F70656E206661696C65642C2046696C76
:101CD000653A20002066696C653A20004E6F7720D7
:101CE000002220706F73002220706172656E743A5A
:101CF0002200535542524F5554494E452043414CC2
:101D00004C207461726765743A22004B494C4C4513
:101D1000442E2000747279696E6720746F206361AD
:101D20006C6C207375622D67636F64652066696CE7
:101D30006573207769746820746F6F206D616E79A8
:101D4000206C6576656C732E204D4158206C65764D
:101D5000656C2069733A00656E7175657565696EAD
:101D6000672022004572726F722077726974696E03
:101D70006720746F20454550524F4D210A000000E6
:101D80002200250028002B002E0031003400020123
:101D90000000050108010B010000210024002700BC
:101DA0002A002D003000330001010000040107016A
:101DB0000A010505050507050808080802020202D0
:101DC0000A0A0808040404040101010101010101D7
:101DD0000303030303030303040707070C0C0C0CA2
:101DE0000C0C0C0C0202020206060606060606068B
:101DF0000B0B0B0B0B0B0B0B010210202008081018
:101E0000204010204080020102010804020101026A
:101E10000408102040808040201008040201800443
:101E2000020180402010080402010804020101029E
:101E300004081020408001020408102040800000A7
:101E40000A0B02090C0D0E08070304010000000034
:101E50000000000000000000000000000000000082
:101E6000000000000000000000001211100000003F
:101E70000000000000000000000000000000000062
:101E80000000000045303A20005A3A2000593A201C
:101E900000583A20004D53312C4D53322050696E7A
:101EA000730A002042002050006F6B00526573657A
:101EB0006E643A2000205A3A0020593A0020436FBD
:101EC000756E7420583A0020453A00205A3A002096
:101ED000593A00583A00486F6D65202573257325DF
:101EE00073206669727374002066697273740A00E5
:101EF0005A0059005800486F6D652000000609001F
:101F0000FE06018902FE20FFFE07FE06FE0000001D
:101F1000060007010606060200808080800080031C
:101F20000303060103A0A0A00507070600FF505009
:101F3000F850F850500509090600FE2070A8A0705E
:101F400028A870200608080600FF40A8481020486E
:101F500054080507070600FF60909060989068019C
:101F600003030602038080800207070602FF408009
:101F700080808080400207070602FF80404040408A
:101F800040800505050600008850F85088050505C5
:101F90000600002020F820200204040602FEC040B3
:101FA0004080050101060002F8020202060200C09C
:101FB000C0040606060100101020408080040606BA
:101FC00006010060909090906003060606010040B4
:101FD000C0404040E004060606010060901020402A
:101FE000F0040606060100F020601010E005060669
:101FF00006000010305090F810040606060100F0AC
:1020000080E01010E00406060601006080E0909079
:1020100060040606060100F0101020404004060689
:102020000601006090609090600406060601006062
:102030009090701060020505060200C0C000C0C08C
:102040000207070602FEC0C000C04040800505052B
:102050000600001860806018050303060001F80000
:10206000F8050505060000C0300830C00407070663
:1020700001006090106040004005060606000070F8
:1020800090A8B08070050606060000205088F888E9
:1020900088050606060000F088F08888F004060629
:1020A000060100609080809060040606060100E052
:1020B00090909090E0040606060100F080E0808099
:1020C000F0040606060100F080E080808004060629
:1020D000060100609080B090600406060601009042
:1020E00090F0909090030606060100E040404040CA
:1020F000E005060606000038101010906004060681
:1021000006010090A0C0A090900406060601008081
:1021100080808080F005060606000088D8A8A88880
:102120008804060606010090D0B09090900506063F
:10213000060000708888888870040606060100E0A2
:102140009090E080800407070601FF609090D0B077
:102150006010040606060100E09090E090900406EE
:10216000060601006090402090600506060600000B
:10217000F820202020200406060601009090909070
:102180009060040606060100909090F060600506DD
:10219000060600008888A8A8D8880506060600005C
:1021A00088502020508805060606000088885020A8
:1021B0002020040606060100F010204080F00306EF
:1021C00006060100E080808080E00406060601002B
:1021D000808040201010030606060100E020202029
:1021E00020E00503030600032050880501010600D6
:1021F000FEF8020202060204804004040406010004
:10220000709090700406060601008080E09090E0D7
:1022100004040406010070808070040606060100B4
:1022200010107090907004040406010060B0C0703B
:10223000040606060100205040E040400406060661
:1022400001FE609090701060040606060100808018
:10225000E09090900306060601004000C04040E078
:102260000308080601FE200060202020A04004068C
:10227000060601008080A0C0A090030606060100AB
:10228000C040404040E0050404060000D0A8A888F3
:10229000040404060100E090909004040406010088
:1022A000609090600406060601FEE09090E0808059
:1022B0000406060601FE70909070101004040406D7
:1022C0000100A0D0808004040406010070C030E04A
:1022D0000406060601004040E040502004040406C5
:1022E00001009090907004040406010090906060DA
:1022F00005040406000088A8A85004040406010090
:10230000906060900406060601FE909090709060C8
:10231000040404060100F02040F003070706010052
:10232000204040804040200107070602FF80808057
:1023300080808080030707060100804040204040E5
:102340008004020206010350A0FFFFFFFFFFFFFF12
:10235000FFFFFFFFFFFFFFFFFFFFFFFFFFFFFFFF8D
:10236000FFFFFFFFFFFFFFFFFFFF0000000600076A
:1023700001060606020080008080808004060606B2
:1023800001FF2070A0A070200507070600FF30485D
:1023900040F04040F8050505060000A8508850A808
:1023A0000506060600008850F820F82001070706F9
:1023B00002FF808080008080800407070601FF7094
:1023C0008060906010E0030101060105A006070788
:1023D000060000788494A49484780305050601011E
:1023E00060A06000E00505050600002850A0502808
:1023F000040303060100F01010040101060102F0BD
:102400000607070600007884B4A4A48478040101B8
:10241000060105F00403030601026090600507074A
:102420000600FF2020F8202000F803050506010122
:1024300040A02040E0030505060101C0204020C067
:1024400002020206020440800405050601FF909086
:10245000B0D08005060606000078E8E86828280164
:102460000101060202800202020602FE408003050C
:102470000506010140C04040E0030505060101409A
:10248000A04000E0050505060000A0502850A0056A
:1024900008080600FF40C04050703078100508085A
:1024A0000600FF40C04050680810380508080600C4
:1024B000FFC0204030F030781004070706010020EC
:1024C0000020608090600507070600004020205033
:1024D0007088880507070600001020205070888843
:1024E0000507070600002050205070888805070760
:1024F0000600002850205070888805070706000055
:1025000050002050708888050707060000205020E2
:102510005070888805060606000078A0F0A0A0B8D4
:102520000408080601FE6090808090602040040747
:10253000070601004020F080E080F0040707060154
:10254000002040F080E080F00407070601002050E2
:10255000F080E080F00407070601005000F080E002
:1025600080F00307070601008040E0404040E003A0
:1025700007070601002040E0404040E0030707064F
:10258000010040A0E0404040E0030707060100A032
:1025900000E0404040E00506060600007048E848BC
:1025A000487004070706010050A090D0B090900436
:1025B000070706010040206090909060040707061E
:1025C0000100204060909090600407070601002001
:1025D00050609090906004070706010050A0609042
:1025E0009090600407070601005000609090906092
:1025F00005050506000088502050880408080601DB
:10260000FF1070B0B0D0D0E0800407070601004092
:102610002090909090600407070601002040909061
:102620009090600407070601002050909090906001
:10263000040707060100500090909090600507077E
:102640000600001020885020202004060606010005
:1026500080E09090E0800406060601006090A0A053
:1026600090A00407070601004020007090907004BD
:1026700007070601002040007090907004070706CD
:102680000100205000709090700407070601005070
:10269000A000709090700406060601005000709033
:1026A000907004070706010020502070909070057C
:1026B000040406000070A8B0780406060601FE7047
:1026C000808070204004070706010040200060B0B1
:1026D000C07004070706010020400060B0C070040D
:1026E000070706010020500060B0C070040606060F
:1026F0000100500060B0C070030707060100804071
:1027000000C04040E0030707060100204000C04031
:1027100040E003070706010040A000C04040E0037E
:102720000606060100A000C04040E00407070601BD
:10273000003060107090906004070706010050A000
:1027400000E0909090040707060100402000609090
:10275000906004070706010020400060909060042C
:1027600007070601002050006090906004070706EC
:10277000010050A000609090600406060601005021
:1027800000609090600505050600002000F800201C
:1027900004040406010070B0D0E00407070601003D
:1027A0004020009090907004070706010020400030
:1027B00090909070040707060100205000909090C0
:1027C00070040606060100500090909070040909FC
:1027D0000601FE204000909090709060040808066A
:1027E00001FE8080E09090E080800408080601FEF1
:1027F000500090909070906043616E6E6F74206591
:102800006E746572207375626469723A2000022EDC
:102810002E004D61696E004D6F766520302E316D52
:102820006D004D6F766520316D6D004D6F766520C2
:1028300031306D6D004D6F766520617869730045AC
:1028400078747275646572004D6F7665205A004D1C
:102850006F76652059004D6F7665205800746F20A3
:10286000726573756D65005761697420666F7220BB
:102870007072696E74005052494E54205041555345
:1028800045440045787472756465206D6F7265000B
:10289000526573756D65207072696E740052455390
:1028A000554D45204F5054494F4E533A0020204E2D
:1028B0006F7A7A6C653A20002000506C6561736510
:1028C00020776169742E2E2E0048656174696E67E9
:1028D000206E6F7A7A6C65005052494E54205041F8
:1028E000555345440020204E6F7A7A6C653A20009B
:1028F000200068656174206E6F7A7A6C652E0050D6
:102900007265737320627574746F6E20746F0050FB
:1029100052494E54205041555345440020204E6F9B
:102920007A7A6C653A2000200066696C616D656E8C
:1029300074206578747275646500576169742066E7
:102940006F72005052494E54205041555345440037
:1029500020204E6F7A7A6C653A2000200066696C00
:10296000616D656E74206C6F6164005761697420DD
:10297000666F72005052494E5420504155534544A1
:102980000020204E6F7A7A6C653A2000746F2063C5
:102990006F6E74696E75652E2E2E00616E642070E8
:1029A0007265737320627574746F6E00496E73651F
:1029B00072742066696C616D656E74005052494E88
:1029C000542050415553454400004D32340050725C
:1029D000696E7420706175736564004D3132350025
:1029E0004D363030204230004D3234004D323320ED
:1029F0002573006175746F25692E670045787472C0
:102A000075646572004D6F7665205A004D6F76656E
:102A10002059004D6F76652058004D6F76656D65C5
:102A20006E74004D6F766520617869730044697338
:102A300061626C65207374657070657273004D38E7
:102A40003400426564204C6576656C696E670047AA
:102A500032382058590A4D31303920533137350A30
:102A6000473238205A0A4D31303920523134350A34
:102A70004731320A4732390A4D3130342053300061
:102A80004175746F20686F6D6500473238004D6185
:102A9000696E004B494C4C45442E200024F4D43040
:102AA00050C38E20C2A24017828B7011127A910DF2
:102AB000816CD90AA861E108C758660761514306CD
:102AC0001E4B5D05C145A7041A411104093D980339
:102AD000713931034036DB0265339102D430540240
:102AE000802E1D02632CEE01752AC501B028A001BD
:102AF000102781018F2564012B244B01E022340132
:102B0000AC211F018D200D01801FFC00841EED00F3
:102B1000971DDF00B81CD200E61BC600201BBC00BE
:102B2000641AB200B219A8000A19A0006A18990024
:102B3000D117910040178B00B516840031167E0026
:102B4000B31579003A157300C7146F0058146A0062
:102B5000EE1366008813630025135E00C7125B0046
:102B60006C12570015125400C111510070114F0022
:102B700021114B00D61049008D104700461044002B
:102B800002104200C00F4000800F3E00420F3C0088
:102B9000060F3B00CB0E3800930E37005C0E35005D
:102BA000270E3400F30D3200C10D3100900D3000BE
:102BB000600D2E00320D2D00050D2C00D90C2B00C0
:102BC000AE0C2900850C29005C0C2700350C270071
:102BD0000E0C2600E80B2400C40B2400A00B2300DD
:102BE0007D0B23005A0B2100390B2100180B20000C
:102BF000F80A1F00D90A1E00BB0A1E009D0A1D000C
:102C0000800A1D00630A1C00470A1B002C0A1B00D7
:102C1000110A1A00F7091A00DD091900C409190080
:102C2000AB091900920917007B0918006309170006
:102C30004C09160036091600200916000A0915006D
:102C4000F5081500E0081400CC081400B8081400BA
:102C5000A4081400900813007D0812006B081300EC
:102C60005808120046081200340811002308110009
:102C70001208110001081100F0071000E007100011
:102C8000D0071000C0071000B0070F00A107100008
:102C900091070E0083070F0074070F0065070E00F1
:102CA00057070E0049070E003B070D002E070E00C8
:102CB00020070D0013070D0006070D00F9060C0094
:102CC000ED060D00E0060C00D4060C00C8060C0052
:102CD000BC060C00B0060C00A4060B0099060C0004
:102CE0008D060B0082060B0077060B006C060B00AE
:102CF00061060A0057060B004C060A0042060A004D
:102D000038060A002E060A0024060A001A060A00DF
:102D10001006090007060A00FD050900F405090070
:102D2000EB050900E2050900D9050900D0050900F5
:102D3000C7050900BE050900B5050800AD05080076
:102D4000A50509009C050800940508008C050800ED
:102D5000840508007C050800740508006C05070060
:102D6000650508005D050700560508004E050700CB
:102D70004705070040050800380507003105070032
:102D80002A050700230507001C0506001605070095
:102D90000F0507000805060002050700FB040600F2
:102DA000F5040700EE040600E8040600E20407004C
:102DB000DB040600D5040600CF040600C9040600A3
:102DC000C3040600BD040600B7040600B1040500F4
:102DD000AC040600A6040600A00405009B0406003F
:102DE00095040500900406008A040500850405008A
:102DF000800406007A0405007504050070040500CF
:102E00006B04050066040500610405005C04050010
:102E100057040500520405004D0405004804050050
:102E2000430405003E0404003A040500350405008F
:102E3000300404002C0405002704040023040500CA
:102E40001E0404001A040400160405001104040002
:102E50000D04040009040500040404000004040037
:102E6000FC030400F8030400F4030400F00304006E
:102E7000EC030400E8030400E4030400E00304009E
:102E8000DC030400D8030400D4030400D0030400CE
:102E9000CC030400C8030300C503030024F404D9D1
:102EA000201BC40C5C0E9804C4095F026507710105
:102EB000F405F900FB04B30048048700C10369006E
:102EC0005803550003034500BE023A008402310056
:102ED00053022A002902250004022000E4011C00FC
:102EE000C8011900AF0117009801140084011300F4
:102EF000710110006101100051010E0043010D002D
:102F000036010B002B010B0020010B0015010900FD
:102F10000C01090003010800FB000800F300080091
:102F2000EB000700E4000600DE000600D800060003
:102F3000D2000600CC000500C7000500C200050055
:102F4000BD000400B9000400B5000400B100040095
:102F5000AD000400A9000400A5000300A2000300C6
:102F60009F0004009B0003009800030095000200EE
:102F700093000300900003008D0002008B0003000B
:102F80008800020086000200840003008100020025
:102F90007F0002007D0002007B0002007900020039
:102FA0007700010076000200740002007200010048
:102FB000710002006F0002006D0001006C00020051
:102FC0006A0001006900020067000100660001005C
:102FD0006500010064000200620001006100010060
:102FE000600001005F0002005D0001005C00010064
:102FF0005B0001005A000100590001005800010067
:103000005700010056000100550001005400010066
:103010005300000053000100520001005100010064
:10302000500001004F0001004E0000004E00010062
:103030004D0001004C0001004B0000004B0001005E
:103040004A0001004900010048000000480001005A
:103050004700010046000000460001004500000056
:10306000450001004400010043000000430001004E
:103070004200000042000100410000004100010048
:10308000400001003F0000003F0001003E00000042
:103090003E0001003D0000003D0001003C0000003A
:1030A0003C0000003C0001003B0000003B00010030
:1030B0003A0000003A000100390000003900010028
:1030C0003800000038000000380001003700000020
:1030D0003700010036000000360000003600010015
:1030E000350000003500000035000100340000000C
:1030F0003400000034000100330000003300000001
:1031000033000100320000003200000032000100F4
:1031100031000000310000003100010030000000EB
:1031200030000000300001002F0000002F000000E0
:103130002F0000002F0001002E0000002E000000D4
:103140002E0001002D0000002D0000002D000000C9
:103150002D0001002C0000002C0000002C000000BD
:103160002C0001002B0000002B0000002B000000B1
:103170002B0001002A0000002A0000002A000000A5
:103180002A00010029000000290000002900000099
:10319000290000002900010028000000280000008C
:1031A000280000002800000028000100270000007F
:1031B0002700000027000000270000002700010072
:1031C0002600000026000000260000002600000067
:1031D0002600010025000000250000002500000059
:1031E000250000002500000025000100240000004B
:1031F000240000002400000024000000240001003E
:103200002300000023000000230000002300000032
:103210002300000023000000230001002200000022
:103220002200000022000000220000002200000016
:103230002200010021000000210000002100000008
:1032400021000000210000002100000021000100F9
:1032500020000000200000002000000020000000EE
:1032600020000000200000002000000020000100DD
:103270001F0000001F0000001F0000001F000000D2
:103280001F0000001F0000001F0001001E000000C2
:103290001E0000001E0000001E0000004D383420FB
:1032A000582059205A2045004572723A204D494E07
:1032B00054454D5020424544004D494E54454D50D3
:1032C00020747269676765726564004572723A209E
:1032D0004D494E54454D50204531004572723A20BB
:1032E0004D494E54454D50204530004572723A20AC
:1032F0004D415854454D5020424544004D4158548D
:10330000454D502074726967676572656400457247
:10331000723A204D415854454D5020453100457278
:10332000723A204D415854454D50204530004F666B
:103330006673657473206170706C696564004572B2
:10334000723A20546F6F206661722100546F6F20B3
:103350006661722066726F6D207265666572656E59
:10336000636520706F696E740A0048617264636FF0
:103370006465642044656661756C7420536574747B
:10338000696E6773204C6F616465640A00282300CE
:10339000002823000064000000E8030000000096FD
:1033A000430000964300000041000020420000C995
:1033B000420000C9420000C8440000D243202863F4
:1033C000616C63756C6174656429210A0020213D7C
:1033D0002000454550524F4D20435243206D6973A4
:1033E0006D61746368202D202873746F7265642981
:1033F0002000290A002062797465733B20637263A0
:1034000020002073746F7265642073657474696E34
:103410006773207265747269657665642028002080
:103420004D61726C696E3D563430290A002845455D
:1034300050524F4D3D00454550524F4D20766572DC
:1034400073696F6E206D69736D61746368200052DB
:103450006573746F7265206661696C73616665007F
:103460004D3530320A4D353030004C6F6164207379
:10347000657474696E67730053746F726520736549
:103480007474696E677300416476616E636564206D
:1034900053657474696E6773004D61696E00000056
:1034A000254300004543000021430000F041000097
:1034B000F0410000004100000000FF01014C756C6C
:1034C0007A426F74204D696E69204C4344204F66E8
:1034D000662E004F6666004F6E2000456E64737462
:1034E0006F702061626F72740053746570732F6D1A
:1034F0006D004A65726B00416363656C657261744F
:10350000696F6E0056656C6F63697479005A204F5D
:10351000666673657400416476616E63656420530A
:10352000657474696E6773005654726176206D69B4
:103530006E005654726176206D696E005654726149
:1035400076206D696E00566D696E00566D696E006D
:10355000566D696E00566D6178204500566D617834
:10356000204500566D6178204500566D6178205ADF
:1035700000566D6178205A00566D6178205A0056C9
:103580006D6178205900566D6178205900566D6143
:1035900078205900566D6178205800566D6178206A
:1035A0005800566D61782058004D6F74696F6E0039
:1035B0004573746570732F6D6D004573746570731A
:1035C0002F6D6D005A73746570732F6D6D005A7393
:1035D000746570732F6D6D005973746570732F6D02
:1035E0006D005973746570732F6D6D005873746539
:1035F00070732F6D6D005873746570732F6D6D004F
:103600004D6F74696F6E0056652D6A65726B00565A
:10361000652D6A65726B0056652D6A65726B005682
:103620007A2D6A65726B00567A2D6A65726B005648
:10363000792D6A65726B0056792D6A65726B00563A
:10364000792D6A65726B0056782D6A65726B00562B
:10365000782D6A65726B0056782D6A65726B004D25
:103660006F74696F6E00202F002042403A002040A6
:103670003A006F6B004E6F204C696E65204E756D81
:10368000626572207769746820636865636B73751F
:103690006D2C204C617374204C696E653A20005388
:1036A000544F505045442E20005072696E7465721C
:1036B0002073746F707065642064756520746F206A
:1036C0006572726F72732E20466978207468652067
:1036D0006572726F7220616E6420757365204D395A
:1036E000393920746F20726573746172742E2028CA
:1036F00054656D70657261747572652069732072AE
:10370000657365742E205365742069742061667436
:1037100065722072657374617274696E67290A003C
:103720004E6F20436865636B73756D2077697468AD
:10373000206C696E65206E756D6265722C204C611F
:103740007374204C696E653A2000636865636B731F
:10375000756D206D69736D617463682C204C6173A5
:1037600074204C696E653A20004C696E65204E7578
:103770006D626572206973206E6F74204C61737482
:10378000204C696E65204E756D6265722B312C2060
:103790004C617374204C696E653A20004D313130B4
:1037A000004D3331004D383420582059205A2045DF
:1037B0000053442072656164206572726F720A0062
:1037C000446F6E65207072696E74696E67206669F9
:1037D0006C650A004B494C4C45442E20004B494C2B
:1037E0004C20636175736564206279204B494C4CB1
:1037F00020627574746F6E2F70696E0A004B494CAD
:103800004C45442E20004B494C4C20636175736538
:103810006420627920746F6F206D75636820696E13
:103820006163746976652074696D65202D20637508
:103830007272656E7420636F6D6D616E643A200004
:10384000436F6F6C696E6720646F6E652E0048650C
:103850006174696E6720646F6E652E0020573A00B0
:103860004578747275646572202573004C756C7AA6
:10387000426F74204D696E69204C4344207265612B
:1038800064792E0020746F6F206C6F6E67206578EE
:1038900074727573696F6E2070726576656E74658B
:1038A000640A0020636F6C642065787472757369B4
:1038B0006F6E2070726576656E7465640A00436190
:1038C00072642072656D6F76656400436172642076
:1038D000696E736572746564004D36303020486FD0
:1038E00074656E6420746F6F20636F6C6420746FF6
:1038F000206368616E67652066696C616D656E74D2
:103900000A004B64200023646566696E65202044CC
:10391000454641554C545F004B6920002364656661
:10392000696E65202044454641554C545F004B70FC
:10393000200023646566696E652020444546415534
:103940004C545F00504944204175746F74756E6526
:103950002066696E697368656421205075742074EF
:103960006865206C617374204B702C204B6920615A
:103970006E64204B6420636F6E7374616E74732089
:1039800066726F6D2062656C6F7720696E746F2050
:10399000436F6E66696775726174696F6E2E680A2F
:1039A00000504944204175746F74756E65206661DE
:1039B000696C6564212074696D656F75740A0050C7
:1039C0004944204175746F74756E65206661696C39
:1039D0006564212054656D7065726174757265202F
:1039E000746F6F20686967680A00204B643A200092
:1039F000204B693A2000204B703A20000A20436C8B
:103A0000617373696320504944200A002054753A59
:103A10002000204B753A2000206D61783A2000206C
:103A20006D696E3A200020643A200020626961735B
:103A30003A2000021FFFFFFFFFFFFF6000000000B1
:103A400001FF400000000000FF8000000000007F38
:103A500083CF00000C303F87FF80000C301F867939
:103A600080000C000F8C30C7838C30E78C30CFC7C0
:103A7000CC31F38C30DCECEC33B98C30D86C6C335B
:103A8000198C30D06C0C33198C30D86C0C33198CE9
:103A900030DC6C0E3B198C30CF7C079F198C30C703
:103AA0007C038F194000000000000260000000004D
:103AB00000061FFFFFFFFFFFF82020506C616E6EB5
:103AC000657242756666657242797465733A200064
:103AD0002046726565204D656D6F72793A2000430E
:103AE0006F6D70696C65643A2044656320323820DC
:103AF000323031370A00207C20417574686F723A89
:103B00002028416C657068204F626A656374732079
:103B1000496E632E2C204C756C7A426F7420476975
:103B200074205265706F7369746F7279290A00444A
:103B30006563203238203230313731343A32303A0E
:103B4000343100204C617374205570646174656475
:103B50003A2000312E312E350A004D61726C696EAB
:103B60000020536F667477617265205265736574C7
:103B70000A00205761746368646F6720526573653B
:103B8000740A002042726F776E206F757420526540
:103B90007365740A002045787465726E616C2052FA
:103BA000657365740A00506F77657255700A00730B
:103BB000746172740A006572726F72207772697430
:103BC000696E6720746F2066696C650A00457272C1
:103BD0006F723A00456E6473746F707320256320B2
:103BE000256320256320256300205A3A0020593A96
:103BF0000020583A00656E6473746F7073206869B2
:103C0000743A20006563686F3A00446F6E652073F4
:103C10006176696E672066696C652E0A004D3239DF
:103C20000046696C652064656C657465643A00449F
:103C3000656C6574696F6E206661696C65642C20C3
:103C400046696C653A20006F70656E206661696C2C
:103C500065642C2046696C653A200001050800FF68
:103C6000060121023520FFFF07FF06FF0900502251
:103C70001656808080800080153353A0A0A0025784
:103C8000575050F850F850500257572070A07028E5
:103C9000702013355580A040A02002475740A0A0B7
:103CA00040A0A0502513538080801226564080806B
:103CB000808040122656804040404080024555900A
:103CC00060F060900255552020F820201133536099
:103CD0004080044151F011335340E04002465610F9
:103CE000102040808012365640A0A0A0A04012367E
:103CF0005640C0404040E00246566090106080F060
:103D0000024656F020601090600246562060A0F0F7
:103D10002020024656F080E01090600246566080F7
:103D2000E0909060024656F0102020404002465637
:103D300060906090906002465660909070106012A3
:103D40002555C0C000C0C01136566060006040807C
:103D5000123656204080804020034353F000F0127A
:103D6000365680402020408012365640A020400029
:103D700040015858304898A8A890403002465660F4
:103D80009090F09090024656E090E09090E00246CD
:103D900056609080809060024656E090909090E04F
:103DA000024656F080E08080F0024656F080E080C7
:103DB0008080024656609080B09060024656909097
:103DC000F0909090123656E040404040E002465657
:103DD00070202020A04002465690A0C0A0A09002D3
:103DE00046568080808080F002465690F0F0909099
:103DF0009002465690D0F0B0B09002465660909037
:103E0000909060024656E09090E0808001475760B5
:103E10009090D0B06010024656E09090E0909002F2
:103E20004656609040209060123656E04040404038
:103E30004002465690909090906002465690909026
:103E4000906060024656909090F0F0900246569036
:103E5000906060909002565688885020202002463C
:103E600056F010204080F0123656E080808080E0CE
:103E7000024656808040201010123656E020202046
:103E800020E016325240A0014151F01622528040EB
:103E9000024454709090700246568080E09090E00A
:103EA00012345460808060024656101070909070FA
:103EB00002445460B0C060024656205040E040408A
:103EC00001455560907010600246568080E09090E9
:103ED000901236564000C04040E011375720002075
:103EE0002020A040024656808090E09090123656E6
:103EF000C040404040E0025454D0A8A8A802445416
:103F0000E090909002445460909060014555E0909C
:103F1000E080800145557090701010024454A0D08C
:103F2000808012345460C020C00246564040E040B9
:103F3000502002445490909070123454A0A0A0409D
:103F400002545488A8A850024454906060900145DF
:103F5000559090709060024454F02040F002475712
:103F6000304020C0204030221656808080808080E3
:103F7000024757C02040304020C006425250A0FFA8
:103F8000FFFFFFFFFFFFFFFFFFFFFFFFFFFFFFFF41
:103F9000FFFFFFFFFFFFFFFFFFFFFFFFFFFFFFFF31
:103FA00009005022165680008080808001465620ED
:103FB00070A0A070200246562050E04050A002554C
:103FC0005588705070880256568850F820F8202284
:103FD0001757808080008080800247577080E09073
:103FE0007010E0173151A002565670A8C8C8A870CA
:103FF00014355560A06000E003435350A0501233C5
:1040000053E02020143151E002565670E8D8E8D829
:1040100070173151E015335340A04012355540E040
:104020004000E014355540A02040E0143555C02034
:10403000C020C01622524080014555909090E080EB
:1040400002565678E8E86828282411518011225237
:10405000408014355540C04040E014355540A040E4
:1040600000E0034353A050A0024757808080A06027
:10407000F0200247578080A0D01020700247578060
:10408000408060A0F02012365640004080A04002E0
:10409000475740206090F090900247572040609032
:1040A000F0909002475760906090F09090024757D0
:1040B00050A06090F0909002475790006090F09070
:1040C0009002475760906090F0909002465670A022
:1040D000A0F0A0B0014757609080809060400247F8
:1040E000574020F080E080F00247572040F080E009
:1040F00080F00247576090F080E080F002475790D0
:1041000000F080E080F01237578040E0404040E00F
:104110001237572040E0404040E012375740A0E0BF
:10412000404040E0123757A000E0404040E00256D7
:10413000567048E848487002475750A090D0B09059
:10414000900247574020609090906002475720406F
:1041500060909090600247576090609090906002ED
:10416000475750A060909090600247579000609031
:10417000909060123353A040A002465670B0B0D069
:10418000D0E002475740209090909060024757201F
:10419000409090909060024757609090909090600F
:1041A00002475790009090909060025757102088D7
:1041B0005020202002465680E09090E08002465633
:1041C0006090A0A090A0024757402000709090708F
:1041D00002475720400070909070024757205000CF
:1041E0007090907002475750A000709090700246F7
:1041F0005650007090907002475760906070909099
:1042000070025454F068B078113555608080604079
:1042100002475740200060B0C0600247572040006E
:1042200060B0C06002475760900060B0C060024656
:1042300056500060B0C060123757804000C0404008
:10424000E0123757204000C04040E012375740A0EE
:1042500000C04040E0123656A000C04040E0024797
:1042600057A040A01070906002475750A000E09007
:10427000909002475740200060909060024757207E
:10428000400060909060024757609000609090609E
:1042900002475750A0006090906002465690006020
:1042A0009090601235554000E0004002445470B0D8
:1042B000D0E002475740200090909070024757206E
:1042C00040009090907002475760900090909070DE
:1042D00002465690009090907001485820400090FF
:1042E000907090600147578080E090E080800147A7
:1042F000579000909070906001050700FE0500FB4C
:1043000001F220FFFE05FE05FE0200400215258099
:1043100080800080053242A0A002556550F850F818
:10432000500146562070C030E020025565901020A4
:1043300040480255656080689068051222808002BE
:1043400025354080808040022535804040408004F3
:104350003343A040A003334340E040012232408079
:10436000043141E00211218002556508102040808F
:104370000245556090909060022535C04040404015
:10438000024555E0106080F0024555E0106010E0F5
:104390000245552060A0F020024555F080E010E075
:1043A0000245556080E09060024555F01020404085
:1043B00002455560906090600245556090701060B5
:1043C000031323800080021424800080800235457E
:1043D0002040804020033343E000E0023545804028
:1043E000204080024555E01060004002556570880D
:1043F000B8A870024555609090F090024555E09045
:10440000E090E00235456080808060024555E09094
:104410009090E0023545E080E080E0023545E080A4
:10442000E080800245557080B090700245559090B4
:10443000F09090023545E0404040E0024555301094
:1044400010906002455590A0C0A090023545808034
:104450008080E002556588D8A8888802455590D0AC
:10446000B090900245556090909060024555E09064
:1044700090E080014656609090906010024555E0B3
:104480009090E09002455570806010E0023545E064
:1044900040404040024555909090906002455590B4
:1044A00090A0A04002556588A8A8A8500245559044
:1044B000906090900245559090701060023545E0F4
:1044C000204080E0022535C0808080C00255658094
:1044D00040201008022535C0404040C0053242400F
:1044E000A0024151F0052232804002445470909065
:1044F0007002455580E09090E00234446080806016
:10450000024555107090907002445460B0C0600233
:1045100035452040E0404000465670909070106055
:1045200002455580E09090900215258000808080A3
:10453000002737400040404040800245558090A011
:10454000E0900215258080808080025464F0A8A845
:10455000A8024454E090909002445460909060000F
:104560004656E09090E08080004656709090701023
:1045700010023444A0C0808002445470C030E00275
:10458000354540E0404020024454909090700244F1
:10459000549090A040025464A8A85050023444A003
:1045A0004040A0004656909090701060024454F035
:1045B0002040F00235456040804060021525808033
:1045C000808080023545C0402040C005425250A046
:1045D000FFFFFFFFFFFFFFFFFFFFFFFFFFFFFFFFEB
:1045E000FFFFFFFFFFFFFFFFFFFFFFFFFFFFFFFFDB
:1045F000FF020040FFFFFFFFFFFFFFFFFFFFFFFF86
:10460000FFFFFFFFFFFFFFFFFFFFFFFFFFFFFFFFBA
:10461000FFFFFFFFFFFFFFFFFFFFFFFFFFFFFFFFAA
:10462000FFFFFFFFFFFFFFFFFFFFFFFFFFFFFFFF9A
:10463000FFFFFFFFFFFFFFFFFFFFFFFFFFFFFFFF8A
:10464000FFFFFFFFFFFFFFFFFFFFFFFFFFFFFFFF7A
:10465000FFFFFF01060D00FE09016602D620FFFEE6
:104660000BFE0AFE0D006022196980808080808028
:10467000800080183363A0A0A00357675050F85003
:10468000F850500259692078A0A0702828F0200224
:10469000596948A85010204050A89002586840A07E
:1046A000A040A0989068281363808080113B6B2005
:1046B00040408080808080404020113B6B804040A3
:1046C000202020202040408006556520A870A8208A
:1046D0000455652020F82020113363604080065186
:1046E00061F811336340E040025969080810102056
:1046F00040408080025969205088888888885020EE
:104700000259692060A02020202020F802596970F9
:1047100088880810204080F8025969F80810207035
:1047200008088870025969101030505090F8101025
:10473000025969F88080B0C8080888700259697009
:10474000888080F088888870025969F808101020E5
:104750002040404002596970888888708888887035
:10476000025969708888887808088870113868400C
:10477000E040000040E04011386840E04000006048
:1047800040800259690810204080402010080454DD
:1047900064F80000F8025969804020100810204099
:1047A0008002596970888808102020002002596909
:1047B00070888898A8A8B0807802596920508888A5
:1047C00088F8888888025969F048484870484848FD
:1047D000F0025969708880808080808870025969F1
:1047E000F048484848484848F0025969F8808080B5
:1047F000F0808080F8025969F8808080F0808080A5
:104800008002596970888080809888887002596910
:1048100088888888F888888888123969E04040400C
:1048200040404040E00259693810101010101090BC
:1048300060025969888890A0C0A090888802596950
:104840008080808080808080F80259698888D8A81C
:10485000A88888888802596988C8C8A8A8989888AC
:1048600088025969708888888888888870025969A0
:10487000F0888888F080808080015A6A70888888F3
:10488000888888A87008025969F0888888F0A09004
:104890008888025969708880807008088870025979
:1048A00069F820202020202020200259698888884B
:1048B000888888888870025969888888885050500C
:1048C000202002596988888888A8A8A8A850025979
:1048D00069888850502050508888025969888850CB
:1048E000502020202020025969F808101020404054
:1048F00080F8113B6BE0808080808080808080E049
:10490000025969808040402010100808113B6BE07C
:10491000202020202020202020E0085363205088E1
:10492000015161F82A226280400256667008788838
:104930009868025969808080F088888888F00256DB
:1049400066708880808870025969080808788888AD
:104950008888780256667088F880887002596930B5
:10496000484040F04040404000586870888888784F
:10497000088870025969808080B0C8888888881249
:1049800038684000C040404040E0004A6A100030B3
:104990001010101090906002596980808090A0C023
:1049A000A09088123969C040404040404040E00239
:1049B0005666D0A8A8A8A888025666B0C888888875
:1049C00088025666708888888870005868F08888E1
:1049D00088F080808000586878888888780808087F
:1049E000025666B0C880808080025666708860106B
:1049F00088700258684040F0404040483002566697
:104A0000888888889868025666888888505020026E
:104A100056668888A8A8A85002566688502020505C
:104A2000880058688888889868088870025666F8F0
:104A300010204080F8015B6B1820202020C020202F
:104A400020201822196980808080808080808001E9
:104A50005B6BC0202020201820202020C00853633A
:104A600048A890FFFFFFFFFFFFFFFFFFFFFFFFFFD3
:104A7000FFFFFFFFFFFFFFFFFFFFFFFFFFFFFFFF46
:104A8000FFFFFFFF0D006022196980008080808099
:104A90008080800358682070A8A0A0A870200259C8
:104AA0006930484040E0404048B003566688705046
:104AB00050708802596988885050F820F8202022C8
:104AC0001969808080800080808080124A6A6090AE
:104AD00080609090601090601A3262A0A0035969C3
:104AE0007088A8D8C8D8A8887004576770087888D4
:104AF0007800F80356662850A0A05028045363F8A5
:104B00000808163161E00359697088E8D8D8E8D8F8
:104B100088700A5161F81744646090906003576789
:104B20002020F8202000F807356540A02040E0074D
:104B3000356540A04020C02A226240800058688825
:104B400088888898E8808002596978E8E8E8E86809
:104B5000282828262161C020226240800735654030
:104B6000C04040E0045767708888887000F803569A
:104B700066A050282850A0025A6A40C04040E00871
:104B800018283808025A6A40C04040E0102808102F
:104B900038025A6A40A04020A04818283808025914
:104BA00069200020204080888870025A6A402000D6
:104BB00020508888F88888025A6A1020002050887F
:104BC00088F88888025A6A30480020508888F88817
:104BD00088025A6A28500020508888F88888025A2B
:104BE0006A50500020508888F88888025A6A2050FD
:104BF0002020508888F8888802596958A0A0A0B061
:104C0000E0A0A0B8005B6B70888080808080887096
:104C10002040025A6A402000F88080F08080F8022C
:104C20005A6A102000F88080F08080F8025A6A30BA
:104C30004800F88080F08080F8025A6A505000F8EE
:104C40008080F08080F8123A6A804000E040404066
:104C50004040E0123A6A204000E04040404040E0DE
:104C6000124A6A609000E04040404040E0123A6AD8
:104C7000A0A000E04040404040E0025969F04848B0
:104C800048E8484848F0025A6A2850008888C8A86E
:104C9000988888025A6A40200070888888888870BE
:104CA000025A6A10200070888888888870025A6AC0
:104CB00030480070888888888870025A6A285000B6
:104CC00070888888888870025A6A50500070888876
:104CD000888888700355658850205088015B6B0870
:104CE000709898A8A8A8C8C87080025A6A40200086
:104CF00088888888888870025A6A10200088888886
:104D000088888870025A6A3048008888888888882D
:104D100070025A6A50500088888888888870025AC1
:104D20006A1020008888502020202002596980F0D5
:104D3000888888F0808080025969609090A0A09057
:104D40008888B00259694020007008788898680205
:104D500059691020007008788898680259693048AD
:104D6000007008788898680259692850007008789F
:104D700088986802596950500070087888986802CD
:104D80005A6A304830007008788898680256667011
:104D90002870A0A8500058687088808088702040D3
:104DA0000259694020007088F880887002596910A3
:104DB00020007088F8808870025969304800708837
:104DC000F88088700259695050007088F8808870A7
:104DD000123969804000C040404040E012396920EB
:104DE0004000C040404040E0124969609000C0402F
:104DF000404040E0123969A0A000C040404040E07F
:104E0000025A6A5020601070888888887002596938
:104E1000285000B0C88888888802596940200070EE
:104E2000888888887002596910200070888888886E
:104E30007002596930480070888888887002596902
:104E40002850007088888888700259695050007016
:104E50008888888870035767202000F80020200188
:104E60005868087098A8A8C8708002596940200046
:104E700088888888986802596910200088888888FE
:104E8000986802596930480088888888986802596B
:104E900069505000888888889868005B6B102000F3
:104EA0008888889868088870005A6A8080B0C888A6
:104EB00088C8B08080005B6B5050008888889868F4
:104EC00008887000000000000000000000000000E2
:104ED00000000000000000000000000000000000D2
:104EE0000000000000000C000000000000000C00AA
:104EF000000000000000120000000000000023007D
:104F000000000000000021000000000000004C80B4
:104F10000000000000005E800000000000009240E1
:104F2000000000000000A14000000000000121205E
:104F30000000000000027F9000000000000200104E
:104F4000000000000007FFF8000000000004000857
:104F50000000000000080004000000000008000637
:104F600000000000001000020000000000301E01E0
:104F70000000000000207F81000000000041FFE0F1
:104F8000800000000043FCF08000000000873B78B8
:104F900040000000018EDBFC60000000010FEBCC44
:104FA00020000000021FEDB610000000021FDEB658
:104FB000100000000439CD7F080000000436E0FF37
:104FC00008000000087EC0BB84000000187F005D60
:104FD00086000000107FC0ED82000000203CC073FE
:104FE00001000000203B337F01000000701BE77EC2
:104FF00003800000C81DEEDE04C00000880FDEDC68
:1050000004400001240FDF3C092000012607DBF8E3
:10501000192000027203E7F0139000025101FFE033
:105020002290000489007F802448000904801E002B
:105030004824000BFE400000DFF400100040000098
:105040008002001FFFFFFFFFFFFE000000000000C6
:105050000000000000000000000000000000000050
:105060000000001022103C3C0E1F001022100422F1
:105070001104001022100822110400102210083C14
:1050800011040010221010221104001022102022FE
:105090001104001E1C1E3C3C0E0400000000000019
:1050A0000000000000000000000000000000000000
:1050B00000000000000000000000000000000000F0
:1050C00000000000000000000000000000000000E0
:1050D00000000000000000000000000000000000D0
:1050E00000000000000000000000000000000000C0
:1050F00000000000000000000000000000000000B0
:10510000000A003B20454550524F4D20496E6465D2
:10511000783A20005570646174696E67207A6F6612
:105120006673657420696E20454550524F4D3A2094
:10513000000600060006000600060006000600063F
:105140000006003FC01F800F00060006000F001F72
:10515000803FC006000600060006000600060006A6
:10516000000600060007F8000C0C001002002001E9
:10517000006001804000804003E04001C0400080AA
:105180004000004000006000002000001000000C03
:105190000C0007F80001FE00030300040080080073
:1051A000401800601000207C0020380020100020F3
:1051B000000020000020000060000040000080038C
:1051C000030001FE00FFFFFF7F80FFC0FFC0FFC0A4
:1051D0007F807F80FFC0FFC0FFC03F001E000C002B
:1051E0005A204F6666736574004D6F7665205800CF
:1051F0004D6F76652059004D6F7665205A004578D1
:10520000747275646572002569730025696D2025C7
:105210006973002569682025696D2025697300255B
:105220006964202569682025696D2025697300253A
:10523000697920256964202569682025696D202504
:105240006973005072696E742074696D653A20004C
:105250004578747275646572202573004C756C7A9C
:10526000426F74204D696E69204C43442072656121
:1052700064792E000A0A426564204C6576656C20CC
:10528000436F7272656374696F6E204D61747269E9
:10529000783A00202B000A436F727265637465646C
:1052A00020426564204865696768742076732E2003
:1052B00042656420546F706F6C6F67793A0A002002
:1052C0002B000A4265642048656967687420546F42
:1052D000706F6772617068793A0A2020202B2D2D3B
:1052E0002D204241434B202D2D2B0A2020207C20B5
:1052F000202020202020202020207C0A204C207CE0
:1053000020202020282B29202020207C20520A2009
:1053100045207C20202020202020202020207C20B0
:10532000490A2046207C20282D29204E20282B2980
:10533000207C20470A2054207C2020202020202070
:10534000202020207C20480A2020207C2020202093
:10535000282D29202020207C20540A2020207C2059
:10536000202020202020202020207C0A2020204FC8
:105370002D2D2046524F4E54202D2D2B0A20283003
:105380002C30290A004D65616E206F662073616DB7
:10539000706C656420706F696E74733A20002064CD
:1053A0003A200020623A200045716E20636F6566E6
:1053B00066696369656E74733A20613A20005275BC
:1053C0006E6E696E6720696E204452592D52554E9B
:1053D000206D6F64650A00473239204175746F2073
:1053E000426564204C6576656C696E670A002842E8
:1053F0002961636B00284629726F6E740028522958
:105400006967687400284C29656674003F4E756DA5
:10541000626572206F662070726F626520706F69BE
:105420006E747320697320696D706C617573696245
:105430006C65202832206D696E696D756D292E0AA4
:10544000003F2856296572626F7365206C6576652A
:105450006C20697320696D706C61757369626C652D
:105460002028302D34292E0A00000040C000003EC4
:105470004300001F435761726E696E673A20486FA0
:105480006D696E672042756D702044697669736F2F
:1054900072203C20310A000202040000A0400000FB
:1054A000A04000000040000020002300260029004A
:1054B0002C002F0032000001000003010601090149
:1054C000000040C00000E0C0000000C00000224317
:1054D00000003E4300001F435A204F666673657408
:1054E00000466C6F7700466C6F770046616E2073E4
:1054F000706565640046616E207370656564004286
:10550000656400426564004E6F7A7A6C65004E6F88
:105510007A7A6C65005370656564005370656564E4
:10552000004D61696E00416D6178204500416D61FB
:1055300078204500416D6178205A00416D617820E6
:105540005A00416D6178205900416D617820590001
:10555000416D6178205800416D6178205800412DDF
:1055600074726176656C00412D74726176656C00B1
:10557000412D7265747261637400412D726574729D
:1055800061637400416363656C00416363656C0033
:105590004D6F74696F6E00436F6F6C646F776E0050
:1055A00046616E2073706565640046616E2073709D
:1055B0006565640042656400426564004E6F7A7AF6
:1055C0006C65004E6F7A7A6C65004D61696E004EB5
:1055D000414E494E495459494E46CDCCCC3D0AD74F
:1055E000233C17B7D13877CC2B329595E6241FB1E1
:1055F0004F0A000020410000C84200401C4620BC69
:10560000BE4CCA1B0E5AAEC59D74D8008CB0112476
:105610001FBECFEFD1E2DEBFCDBF00E00CBF14E074
:10562000A0E0B2E0ECE2F0E402E00BBF02C00790C1
:105630000D92A832B107D9F725E1A8E2B4E001C084
:105640001D92A132B207E1F716E5CCE0D6E500E005
:1056500006C022970109FE010BBF0F94961FCA30A6
:10566000D10780E00807A9F70E9488E30D94052080
:105670000C9400002F923F924F925F926F927F9214
:105680008F929F92AF92BF92CF92DF92EF92FF9252
:105690000F931F93CF93DF93CDB7DEB7CA57D109CE
:1056A0000FB6F894DEBF0FBECDBF0091500F20E6BD
:1056B000029F800111240053124F8091DF0480FF6C
:1056C0001AC0E4E0FCE384917F013FEFE31AF30AA0
:1056D000811102C0780104C00E94595DF701F3CF27
:1056E000D7018D917D01882319F00E94595DF8CF73
:1056F0008AE00E94595D10927304109272048FE345
:105700008093DE041092DD041092DC0410924204B7
:10571000109243041092440410924504F8018081D1
:105720000F5F1F4F8032D1F38E34B1F4818190ED41
:10573000980F9A3020F08D3211F08B3269F4329646
:10574000DF0131962C9120532A30D0F3CD01FC019A
:10575000019620812032D9F3F093D604E093D5044A
:105760007F01BFEFEB1AFB0A10816AE270E0C7010C
:105770000F94D61F009739F0DC0111978C9180327D
:10578000E1F311961C921D3429F0143519F01734E9
:1057900009F0CAC0F7014E2F9F2F81918032D9F3B3
:1057A00080538A3008F0C0C01093DE042091DC04DE
:1057B0003091DD04E42FF92F6AE0AF014F5F5F4FB6
:1057C000629FC001639F900D1124208130E020531F
:1057D0003109820F931F218120532A3030F090939A
:1057E000DD048093DC049A0103C09C01FA01E5CF3B
:1057F000D9012F5F3F4F4C914032D1F31D34D1F48A
:105800008E31910591F03CF48731910571F08C3126
:10581000910581F40AC08537910564F087379105B9
:1058200024F0803AE3E09E0729F4B0937304A09338
:1058300072047AC01092730410927204D090D5044E
:1058400041E050E0FD0131962C91222309F46CC017
:105850002132A1F41D3491F48032910579F4F09352
:105860007304E093720463E270E0CF010F94D61FDB
:10587000009709F459C0DC011C9256C00FEB020FCF
:105880000A31A0F59F01F90160812F5F3F4F60321F
:10589000D1F320ED260F2A3040F023ED260F2230E1
:1058A00020F06B3211F00C9419429F01602F70E0D0
:1058B000DB01B595A795B595A795B595A795AE5B71
:1058C000BB4F07707A01002E01C0EE0C0A94EAF774
:1058D000FC90FE28FC922115310511F02D1901C014
:1058E00020E0DB01A85DBB4F2C930AC0209172041D
:1058F00030917304232B21F4B0937304A0937204AA
:10590000208121542A3110F4DF019CCFDF01319630
:105910006C9160536A30D0F39D01F9012F5F3F4FC6
:1059200060816032D1F3F0CF8091DE048D3411F4C8
:105930000C94F334843511F40C94BC41873411F089
:105940000C94FC418091DC049091DD048A31910536
:1059500009F473C7A4F48430910544F482309105AE
:105960000CF01EC197FF2AC00C941642843091059A
:1059700009F4DCC60C9709F41EC70C9416428E314C
:10598000910509F48AC73CF48C31910509F471C77B
:105990000CF45AC773C78B35910511F40C94EA3493
:1059A0008C35910511F40C94EF348A35910511F082
:1059B0000C9416421092DB040C94164280917002F3
:1059C000882311F40C9416420F94650A8AE494E03B
:1059D0000F942D090F94C80C8091DF0483FD8FC0B4
:1059E000C0905604D0905704E0905804F0905904A9
:1059F0002091AA0D3091AB0D4091AC0D5091AD0DA1
:105A0000C701B6010F946818882309F478C0809103
:105A1000B904811138C060916E0270916F028827BD
:105A200077FD8095982F0F946E189B01AC016091C3
:105A300046047091470480914804909149040F9462
:105A4000681887FF20C0C092AA0DD092AB0DE092DB
:105A5000AC0DF092AD0DE4E0FCE384918F010F5F9B
:105A60001F4F882321F00E94595DF801F6CFEBE328
:105A7000F2E084918F010F5F1F4F882321F00E9475
:105A8000595DF801F6CFC0905604D0905704E090CD
:105A90005804F09059042091AA0D3091AB0D40911B
:105AA000AC0D5091AD0DC701B6010F949A1C20E0CA
:105AB00030E048E453E40F94C11E181604F5C09278
:105AC000AA0DD092AB0DE092AC0DF092AD0DE4E0DA
:105AD000FCE384918F010F5F1F4F882321F00E9408
