:100000000C9421280C94B7BF0C948CBF0C9461BF46
:100010000C9436BF0C940BBF0C94E0BE0C94B5BE90
:100020000C948ABE0C9452280C9452280C9452289A
:100030000C9452280C9460480C9452280C9452282A
:100040000C9452280C9482A10C9452280C9452289F
:100050000C9452280C9452280C94B44E0C9444C125
:100060000C9452280D9477050D9411060C94522887
:100070000C9452280C9452280C9452280C94522818
:100080000C9452280C9452280C9452280C94522808
:100090000C9452280C9452280C9452280C945228F8
:1000A0000C9452280C9452280C9452280C945228E8
:1000B0000C9452280C9452280C9452280C945228D8
:1000C0000C9452280C9452280C9452280C945228C8
:1000D0000C9452280C9452280C9452280C945228B8
:1000E0000C945228F1BAF4BAE3BAE7BAEDBA2BBBD2
:1000F000F8BAFCBA02BB06BB0ABB10BB14BB18BBE8
:100100002BBB1EBB22BB26BB60C065C06AC074C0CF
:100110007EC0F7C088C090C098C0A2C0ACC0B6C0B6
:10012000C5C0CFC0F7C0D9C0E3C0EDC073CD73CD9B
:100130007ACD7ACD7ACD81CD81CD81CD8ECD88CD50
:1001400088CD88CDD600DC00D800E200E800EA00C7
:10015000E400EA00E600D400EA00DA00084AD73BEF
:100160003BCE016E84BCBFFDC12F3D6C74319ABD86
:1001700056833DDA3D00C77F11BED9E4BB4C3E91AA
:100180006BAAAABE000000803F05A84CCDB2D44E99
:10019000B93836A9020C50B9918688083CA6AAAA9B
:1001A0002ABE000000803F000D94E0050D94AA05D2
:1001B0000D94C1050D94E6050D94B0050D94520300
:1001C0000D94BF000D94CC050D94D8050D94DC055D
:1001D0000D94D4050D94E9050D942E0D4E414E4914
:1001E0004E495459494E46CDCCCC3D0AD7233C17F5
:1001F000B7D13877CC2B329595E6241FB14F0A0042
:100200000020410000C84200401C4620BCBE4CCA31
:100210001B0E5AAEC59D74434F4D4D554E4943413B
:1002200054494F4E0044525952554E004552524F78
:10023000525300494E464F004543484F0047322F26
:1002400047332062616420706172616D657465720C
:10025000730A00536C6565702E2E2E00205A3A20CA
:100260000020593A200042656420583A2000526527
:1002700073756D696E67207072696E74004C756C71
:100280007A426F742054415A203620726561647935
:100290002E00436C69636B20746F20726573756DFB
:1002A000652E2E2E004E6F206D6F76652E00456EEA
:1002B000642066696C65206C6973740A0042656726
:1002C000696E2066696C65206C6973740A004D3133
:1002D0003235005344207072696E74696E67206213
:1002E00079746520004E6F74205344207072696EDB
:1002F00074696E670A002569730025696D20256998
:1003000073002569682025696D20256973002569BA
:1003100064202569682025696D2025697300256999
:100320007920256964202569682025696D20256963
:1003300073005072696E742074696D653A20000014
:100340000125301D0C1824311C0B17232F1B0A1EEE
:1003500016040308060202222B1A4142033809FF41
:100360003628294527444350726F74656374656469
:100370002050696E0A004578747275646572202594
:1003800073004C756C7A426F742054415A203620A9
:1003900072656164792E00380233022C022502173F
:1003A000026F66660044454255473A006F6B004352
:1003B0006F6F6C696E6720646F6E652E00486561B3
:1003C00074696E6720646F6E652E0020573A004591
:1003D00078747275646572202573004C756C7A426E
:1003E0006F742054415A20362072656164792E0062
:1003F00042656420646F6E652E0020573A004265A6
:10040000642068656174696E672E004265642063CC
:100410006F6F6C696E672E004C756C7A426F74203A
:1004200054415A2036204F66662E00454D455247AE
:10043000454E43595F504152534552004341534545
:100440005F4C494748545F4252494748544E4553D0
:100450005300544F47474C455F4C4947485453005D
:10046000534F4654574152455F504F5745520042F3
:1004700055494C445F50455243454E54004C4556F7
:10048000454C494E475F44415441005A5F50524FDA
:100490004245004155544F4C4556454C0050524939
:1004A0004E545F4A4F420050524F475245535300FB
:1004B0004155544F5245504F52545F54454D500092
:1004C000564F4C554D455452494300454550524FA7
:1004D0004D0053455249414C5F584F4E5F584F466F
:1004E00046004649524D574152455F4E414D453AAF
:1004F0004D61726C696E20204649524D57415245FC
:100500005F56455253494F4E3A312E312E382E32D6
:10051000312045585452554445525F545950453A3C
:10052000466C6578797374727564657220534F55A3
:100530005243455F434F44455F55524C3A6874748B
:1005400070733A2F2F636F64652E616C6570686FEE
:10055000626A656374732E636F6D2F646966667576
:1005600073696F6E2F4D41524C494E2050524F547B
:100570004F434F4C5F56455253494F4E3A312E3000
:10058000204D414348494E455F545950453A4C75BA
:100590006C7A426F742054415A2036204558545288
:1005A000554445525F434F554E543A3120555549B5
:1005B000443A38343566303033632D616562642DDA
:1005C000346535332D613662392D3764303938342E
:1005D0006664653630390A007A5F70726F62653A18
:1005E00020007A5F6D61783A20007A5F6D696E3A1B
:1005F0002000795F6D61783A2000795F6D696E3A0D
:100600002000785F6D61783A2000785F6D696E3AFE
:1006100020005265706F7274696E6720656E647336
:10062000746F70207374617475730A004D313435C2
:1006300020533C696E6465783E206F7574206F6648
:100640002072616E67652028302D31290A005365BC
:100650007474696E672054726176656C20416363BF
:10066000656C65726174696F6E3A200053657474CD
:10067000696E6720526574726163742041636365BB
:100680006C65726174696F6E3A20005365747469A9
:100690006E67205072696E7420416363656C657289
:1006A0006174696F6E3A200053657474696E6720D7
:1006B0005072696E7420616E642054726176656C4C
:1006C00020416363656C65726174696F6E3A2000E6
:1006D00043290A0061626C656420286D696E20748C
:1006E000656D702000436F6C64206578747275646A
:1006F00065732061726520004B6420002364656689
:10070000696E65202044454641554C545F004B6955
:10071000200023646566696E652020444546415586
:100720004C545F004B70200023646566696E652041
:100730002044454641554C545F0050494420417582
:10074000746F74756E652066696E6973686564217F
:100750002050757420746865206C617374204B7030
:100760002C204B6920616E64204B6420636F6E7394
:1007700074616E74732066726F6D2062656C6F7742
:1007800020696E746F20436F6E666967757261745D
:10079000696F6E2E680A00504944204175746F7469
:1007A000756E65206661696C6564212074696D658C
:1007B0006F75740A00544845524D414C2052554EB5
:1007C0004157415900546865726D616C2052756ED5
:1007D000617761790048656174696E672066616957
:1007E0006C65640048656174696E67206661696C58
:1007F000656400504944204175746F74756E6520BE
:100800006661696C6564212054656D706572617400
:1008100075726520746F6F20686967680A00204BE5
:10082000643A2000204B693A2000204B703A2000A7
:100830000A20436C617373696320504944200A00A5
:100840002054753A2000204B753A2000206D6178C5
:100850003A2000206D696E3A200020643A20002082
:10086000626961733A20003A2000207A5F6D696EF8
:100870003A20202D32207A5F6D61783A2020350AA7
:100880000050726F6265205A204F6666736574006F
:100890004E6F2063617365206C696768740A00415C
:1008A00063746976652045787472756465723A2060
:1008B00000556E6B6E6F776E20636F6D6D616E6449
:1008C0003A2022000201050800FF0601210235201E
:1008D000FFFF07FF06FF0900502216568080808028
:1008E0000080153353A0A0A00257575050F850F87D
:1008F00050500257572070A0702870201335558033
:10090000A040A02002475740A0A040A0A05025131F
:100910005380808012265640808080804012265668
:100920008040404040800245559060F06090025504
:10093000552020F82020113353604080044151F0AD
:1009400011335340E0400246561010204080801280
:10095000365640A0A0A0A04012365640C0404040AD
:10096000E00246566090106080F0024656F020602B
:100970001090600246562060A0F02020024656F0FB
:1009800080E01090600246566080E09090600246E1
:1009900056F01020204040024656609060909060D3
:1009A000024656609090701060122555C0C000C07D
:1009B000C01136566060006040801236562040807C
:1009C000804020034353F000F01236568040202030
:1009D000408012365640A020400040015858304810
:1009E00098A8A8904030024656609090F0909002EF
:1009F0004656E090E09090E00246566090808090ED
:100A000060024656E090909090E0024656F080E0FA
:100A10008080F0024656F080E0808080024656607A
:100A20009080B090600246569090F0909090123670
:100A300056E040404040E002465670202020A04052
:100A400002465690A0C0A0A09002465680808080AA
:100A500080F002465690F0F090909002465690D06A
:100A6000F0B0B0900246566090909090600246566A
:100A7000E09090E08080014757609090D0B0601087
:100A8000024656E09090E0909002465660904020DA
:100A90009060123656E040404040400246569090EA
:100AA00090909060024656909090906060024656FA
:100AB000909090F0F0900246569090606090900276
:100AC0005656888850202020024656F0102040803C
:100AD000F0123656E080808080E0024656808040EA
:100AE000201010123656E020202020E0163252400E
:100AF000A0014151F016225280400244547090905F
:100B0000700246568080E09090E0123454608080FD
:100B10006002465610107090907002445460B0C04D
:100B200060024656205040E04040014555609070BC
:100B300010600246568080E0909090123656400039
:100B4000C04040E01137572000202020A04002463E
:100B500056808090E09090123656C040404040E071
:100B6000025454D0A8A8A8024454E09090900244A3
:100B70005460909060014555E090E08080014555BB
:100B80007090701010024454A0D0808012345460D1
:100B9000C020C00246564040E040502002445490DD
:100BA000909070123454A0A0A04002545488A8A879
:100BB0005002445490606090014555909070906050
:100BC000024454F02040F0024757304020C02040FB
:100BD00030221656808080808080024757C0204097
:100BE000304020C006425250A0FFFFFFFFFFFFFF32
:100BF000FFFFFFFFFFFFFFFFFFFFFFFFFFFFFFFF05
:100C0000FFFFFFFFFFFFFFFFFFFF09005022165607
:100C10008000808080800146562070A0A070200255
:100C200046562050E04050A00255558870507088BC
:100C30000256568850F820F82022175780808000EE
:100C40008080800247577080E0907010E01731512B
:100C5000A002565670A8C8C8A87014355560A06088
:100C600000E003435350A050123353E020201431CE
:100C700051E002565670E8D8E8D870173151E015A7
:100C8000335340A04012355540E04000E014355544
:100C900040A02040E0143555C020C020C01622528C
:100CA0004080014555909090E08002565678E8E8E3
:100CB0006828282411518011225240801435554053
:100CC000C04040E014355540A04000E0034353A02D
:100CD00050A0024757808080A060F02002475780D4
:100CE00080A0D010207002475780408060A0F02084
:100CF00012365640004080A0400247574020609086
:100D0000F0909002475720406090F0909002475733
:100D100060906090F0909002475750A06090F090E3
:100D20009002475790006090F09090024757609073
:100D30006090F0909002465670A0A0F0A0B00147DD
:100D400057609080809060400247574020F080E0DC
:100D500080F00247572040F080E080F00247576063
:100D600090F080E080F00247579000F080E080F043
:100D70001237578040E0404040E01237572040E0B3
:100D8000404040E012375740A0E0404040E012377A
:100D900057A000E0404040E00256567048E84848FE
:100DA0007002475750A090D0B09090024757402013
:100DB0006090909060024757204060909090600251
:100DC00047576090609090906002475750A06090A5
:100DD000909060024757900060909090601233535B
:100DE000A040A002465670B0B0D0D0E002475740B5
:100DF0002090909090600247572040909090906093
:100E000002475760909090909060024757900090F2
:100E10009090906002575710208850202020024662
:100E20005680E09090E0800246566090A0A090A08E
:100E300002475740200070909070024757204000B2
:100E40007090907002475720500070909070024749
:100E50005750A000709090700246565000709090CD
:100E60007002475760906070909070025454F06820
:100E7000B0781135556080806040024757402000AF
:100E800060B0C06002475720400060B0C0600247B9
:100E90005760900060B0C060024656500060B0C01D
:100EA00060123757804000C04040E0123757204062
:100EB00000C04040E012375740A000C04040E01260
:100EC0003656A000C04040E0024757A040A0107036
:100ED000906002475750A000E09090900247574022
:100EE0002000609090600247572040006090906022
:100EF0000247576090006090906002475750A000F2
:100F00006090906002465690006090906012355557
:100F10004000E0004002445470B0D0E00247574027
:100F20002000909090700247572040009090907061
:100F30000247576090009090907002465690009043
:100F40009090700148582040009090709060014748
:100F5000578080E090E0808001475790009090702B
:100F6000906001050700FE0500FB01F220FFFE0571
:100F7000FE05FE02004002152580808000800532BB
:100F800042A0A002556550F850F850014656207016
:100F9000C030E02002556590102040480255656041
:100FA000806890680512228080022535408080800C
:100FB000400225358040404080043343A040A003D8
:100FC000334340E0400122324080043141E00211CD
:100FD00021800255650810204080024555609090A0
:100FE0009060022535C040404040024555E0106009
:100FF00080F0024555E0106010E00245552060A0E9
:10100000F020024555F080E010E00245556080E098
:101010009060024555F010204040024555609060B8
:10102000906002455560907010600313238000802B
:101030000214248000808002354520408040200337
:101040003343E000E00235458040204080024555B2
:10105000E0106000400255657088B8A870024555E0
:10106000609090F090024555E090E090E0023545A8
:101070006080808060024555E0909090E0023545A8
:10108000E080E080E0023545E080E0808002455568
:101090007080B090700245559090F0909002354568
:1010A000E0404040E0024555301010906002455548
:1010B00090A0C0A09002354580808080E0025565F8
:1010C00088D8A8888802455590D0B09090024555A0
:1010D0006090909060024555E09090E08001465607
:1010E000609090906010024555E09090E09002452D
:1010F0005570806010E0023545E0404040400245B8
:101100005590909090600245559090A0A040025557
:101110006588A8A8A8500245559090609090024517
:10112000559090701060023545E0204080E0022527
:1011300035C0808080C0025565804020100802259F
:1011400035C0404040C005324240A0024151F00548
:10115000223280400244547090907002455580E0E5
:101160009090E00234446080806002455510709099
:10117000907002445460B0C0600235452040E040A9
:101180004000465670909070106002455580E09087
:101190009090021525800080808000273740004015
:1011A000404040800245558090A0E0900215258087
:1011B00080808080025464F0A8A8A8024454E09083
:1011C000909002445460909060004656E09090E009
:1011D0008080004656709090701010023444A0C079
:1011E000808002445470C030E002354540E0404009
:1011F00020024454909090700244549090A0400279
:101200005464A8A85050023444A04040A000465660
:10121000909090701060024454F02040F0023545E8
:1012200060408040600215258080808080023545C6
:10123000C0402040C005425250A0FFFFFFFFFFFF0B
:10124000FFFFFFFFFFFFFFFFFFFFFFFFFFFFFFFFAE
:10125000FFFFFFFFFFFFFFFFFFFFFF020040FFFF59
:10126000FFFFFFFFFFFFFFFFFFFFFFFFFFFFFFFF8E
:10127000FFFFFFFFFFFFFFFFFFFFFFFFFFFFFFFF7E
:10128000FFFFFFFFFFFFFFFFFFFFFFFFFFFFFFFF6E
:10129000FFFFFFFFFFFFFFFFFFFFFFFFFFFFFFFF5E
:1012A000FFFFFFFFFFFFFFFFFFFFFFFFFFFFFFFF4E
:1012B000FFFFFFFFFFFFFFFFFFFFFFFFFF01060D27
:1012C00000FE09016602D620FFFE0BFE0AFE0D009D
:1012D000602219698080808080808000801833635C
:1012E000A0A0A00357675050F850F8505002596919
:1012F0002078A0A0702828F02002596948A8501032
:10130000204050A89002586840A0A040A098906843
:10131000281363808080113B6B2040408080808058
:1013200080404020113B6B80404020202020204006
:10133000408006556520A870A8200455652020F837
:101340002020113363604080065161F811336340FF
:10135000E04002596908081010204040808002597E
:10136000692050888888888850200259692060A0A8
:101370002020202020F80259697088880810204019
:1013800080F8025969F8081020700808887002591E
:1013900069101030505090F81010025969F8808090
:1013A000B0C80808887002596970888080F0888801
:1013B0008870025969F808101020204040400259F6
:1013C00069708888887088888870025969708888F0
:1013D00088780808887011386840E040000040E0D4
:1013E0004011386840E040000060408002596908C0
:1013F0001020408040201008045464F80000F802D7
:101400005969804020100810204080025969708876
:101410008808102020002002596970888898A8A8A0
:10142000B080780259692050888888F888888802B6
:101430005969F048484870484848F002596970882E
:1014400080808080808870025969F0484848484808
:101450004848F0025969F8808080F0808080F80266
:101460005969F8808080F080808080025969708896
:101470008080809888887002596988888888F88870
:10148000888888123969E040404040404040E0028E
:10149000596938101010101010906002596988882E
:1014A00090A0C0A090888802596980808080808048
:1014B0008080F80259698888D8A8A8888888880216
:1014C000596988C8C8A8A8989888880259697088F6
:1014D00088888888888870025969F0888888F080B0
:1014E000808080015A6A70888888888888A87008F7
:1014F000025969F0888888F0A0908888025969703C
:101500008880807008088870025969F8202020209F
:1015100020202020025969888888888888888870D7
:10152000025969888888885050502020025969885B
:10153000888888A8A8A8A85002596988885050208F
:1015400050508888025969888850502020202020D7
:10155000025969F808101020404080F8113B6BE0F8
:10156000808080808080808080E002596980804017
:10157000402010100808113B6BE020202020202084
:10158000202020E0085363205088015161F82A226E
:1015900062804002566670087888986802596980AF
:1015A0008080F088888888F00256667088808088FD
:1015B0007002596908080878888888887802566611
:1015C0007088F880887002596930484040F0404087
:1015D0004040005868708888887808887002596987
:1015E000808080B0C8888888881238684000C040F1
:1015F000404040E0004A6A100030101010109090F7
:101600006002596980808090A0C0A09088123969DA
:10161000C040404040404040E0025666D0A8A8A8E4
:10162000A888025666B0C88888888802566670887E
:1016300088888870005868F0888888F080808000EA
:1016400058687888888878080808025666B0C88084
:1016500080808002566670886010887002586840EA
:1016600040F0404040483002566688888888986834
:101670000256668888885050200256668888A8A836
:10168000A8500256668850202050880058688888E4
:10169000889868088870025666F810204080F80123
:1016A0005B6B1820202020C02020202018221969E0
:1016B000808080808080808080015B6BC0202020C3
:1016C000201820202020C008536348A890FFFFFF67
:1016D000FFFFFFFFFFFFFFFFFFFFFFFFFFFFFFFF1A
:1016E000FFFFFFFFFFFFFFFFFFFFFFFFFFFF0D00FB
:1016F0006022196980008080808080808003586823
:101700002070A8A0A0A8702002596930484040E08D
:10171000404048B00356668870505070880259693E
:1017200088885050F820F820202219698080808015
:101730000080808080124A6A609080609090601083
:1017400090601A3262A0A00359697088A8D8C8D8DE
:10175000A88870045767700878887800F803566680
:101760002850A0A05028045363F80808163161E0FF
:101770000359697088E8D8D8E8D888700A5161F8A8
:10178000174464609090600357672020F820200081
:10179000F807356540A02040E007356540A04020AF
:1017A000C02A226240800058688888888898E8802B
:1017B0008002596978E8E8E8E86828282826216145
:1017C000C0202262408007356540C04040E0045799
:1017D00067708888887000F8035666A050282850E3
:1017E000A0025A6A40C04040E00818283808025A4F
:1017F0006A40C04040E01028081038025A6A40A0F1
:101800004020A048182838080259692000202040AC
:1018100080888870025A6A40200020508888F888A2
:1018200088025A6A10200020508888F88888025A56
:101830006A30480020508888F88888025A6A285000
:101840000020508888F88888025A6A50500020503A
:101850008888F88888025A6A20502020508888F8A2
:10186000888802596958A0A0A0B0E0A0A0B8005B89
:101870006B7088808080808088702040025A6A4027
:101880002000F88080F08080F8025A6A102000F86A
:101890008080F08080F8025A6A304800F88080F03A
:1018A0008080F8025A6A505000F88080F08080F8FA
:1018B000123A6A804000E04040404040E0123A6AFC
:1018C000204000E04040404040E0124A6A60900002
:1018D000E04040404040E0123A6AA0A000E04040B2
:1018E000404040E0025969F0484848E8484848F01C
:1018F000025A6A2850008888C8A8988888025A6ABC
:1019000040200070888888888870025A6A102000F9
:1019100070888888888870025A6A30480070888881
:1019200088888870025A6A28500070888888888859
:1019300070025A6A505000708888888888700355F1
:10194000658850205088015B6B08709898A8A8A8FB
:10195000C8C87080025A6A402000888888888888B1
:1019600070025A6A10200088888888888870025A15
:101970006A30480088888888888870025A6A50507F
:101980000088888888888870025A6A1020008888B1
:10199000502020202002596980F0888888F08080BB
:1019A00080025969609090A0A0908888B00259691F
:1019B00040200070087888986802596910200070EB
:1019C00008788898680259693048007008788898C3
:1019D0006802596928500070087888986802596927
:1019E000505000700878889868025A6A3048300071
:1019F000700878889868025666702870A0A8500011
:101A000058687088808088702040025969402000A2
:101A10007088F88088700259691020007088F880FA
:101A200088700259693048007088F88088700259BF
:101A3000695050007088F8808870123969804000C1
:101A4000C040404040E0123969204000C040404062
:101A500040E0124969609000C040404040E01239C7
:101A600069A0A000C040404040E0025A6A50206097
:101A700010708888888870025969285000B0C8881A
:101A80008888880259694020007088888888700298
:101A90005969102000708888888870025969304818
:101AA000007088888888700259692850007088887A
:101AB000888870025969505000708888888870033F
:101AC0005767202000F8002020015868087098A867
:101AD000A8C8708002596940200088888888986862
:101AE00002596910200088888888986802596930EE
:101AF000480088888888986802596950500088880A
:101B000088889868005B6B1020008888889868082F
:101B10008870005A6A8080B0C88888C8B080800009
:101B20005B6B5050008888889868088870000000B7
:101B300000000000000000000000000000000000A5
:101B40000000000000000000000000000000000095
:101B50000C000000000000000C000000000000006D
:101B60001200000000000000230000000000000040
:101B700021000000000000004C8000000000000078
:101B80005E800000000000009240000000000000A5
:101B9000A140000000000001212000000000000220
:101BA0007F9000000000000200100000000000070D
:101BB000FFF800000000000400080000000000081A
:101BC00000040000000000080006000000000010F3
:101BD00000020000000000301E0100000000002094
:101BE0007F81000000000041FFE080000000004312
:101BF000FCF08000000000873B7840000000018E70
:101C0000DBFC60000000010FEBCC20000000021F95
:101C1000EDB610000000021FDEB61000000004390F
:101C2000CD7F080000000436E0FF08000000087EB9
:101C3000C0BB84000000187F005D86000000107F9C
:101C4000C0ED82000000203CC07301000000203B7A
:101C5000337F01000000701BE77E03800000C81D79
:101C6000EEDE04C00000880FDEDC04400001240F1B
:101C7000DF3C092000012607DBF81920000272036F
:101C8000E7F0139000025101FFE022900004890068
:101C90007F802448000904801E004824000BFE4079
:101CA0000000DFF40010004000008002001FFFFF72
:101CB000FFFFFFFE00000000000000000000000029
:101CC00000000000000000000000000000102210D2
:101CD0003C3C0E1F001022100422110400102210A0
:101CE0000822110400102210083C110400102210D8
:101CF000102211040010221020221104001E1C1EAC
:101D00003C3C0E0400000000000000000000000049
:101D100000000000000000000000000000000000C3
:101D200000000000000000000000000000000000B3
:101D300000000000000000000000000000000000A3
:101D40000000000000000000000000000000000093
:101D50000000000000000000000000000000000083
:101D600000000000000000000000001000C9021088
:101D7000012C014001220170011801B0010E01F097
:101D80000104015002FA00B002F0003003E600D076
:101D900003DC009004D2007005C800A006BE00005D
:101DA00008B400B009AA00D00BA000600E96006035
:101DB000118C000015820020197800C01D6E00A053
:101DC000226400B0275A00902C500000314600E0F9
:101DD000343C0010383200903A2800603C1E00A0CD
:101DE0003D1400803E0A00203F00004572723A20F8
:101DF0004D494E54454D5020424544004D494E54A6
:101E0000454D50207472696767657265640045725C
:101E1000723A204D494E54454D502045310045728F
:101E2000723A204D494E54454D5020453000457280
:101E3000723A204D415854454D5020424544004D82
:101E4000415854454D5020747269676765726564E6
:101E5000004572723A204D415854454D502045314D
:101E6000004572723A204D415854454D502045303E
:101E700000202F002042403A0020403A007C3C3EA7
:101E80005E2B3D3F2F5B5D3B2C2A225C0025753A83
:101E90002530327500253032753A253032750025EF
:101EA000756420253032753A2530327500000609F8
:101EB00000FE000000000001090008FE0000050807
:101EC0000806000040F0C8888898781005080806C1
:101ED0000000C0F88888888888F805050506000194
:101EE0002030F830200508080600002070F8202077
:101EF0002020E00509090600FF2070A8A8B88888FE
:101F000070200509090600FFE080C0B0A82830282D
:101F1000280509090600FFF8A88888888888A8F895
:101F2000050A0A0600FE205050505088A8A8887064
:101F300003030306000340A04000060900FE07015A
:101F4000920321207FFF07FF07FF0000000600002B
:101F50000107070602008080808080008003020263
:101F6000060105A0A00507070600005050F850F82C
:101F700050500507070600002078A07028F02005C3
:101F80000707060000C0C81020409818050707067C
:101F900000006090A040A89068020303060104C0FE
:101FA0004080030707060100204080808040200316
:101FB0000707060100804020202040800505050617
:101FC000000120A870A8200505050600012020F8C2
:101FD00020200203030602FFC04080050101060025
:101FE00003F8020202060200C0C005050506000152
:101FF0000810204080050707060000708888888840
:10200000887003070706010040C040404040E005DB
:102010000707060000708808708080F8050707062B
:102020000000F81020100808F0050707060000104F
:10203000305090F81010050707060000F880F008EF
:10204000088870050707060000708080F088887097
:10205000050707060000F8081020202020050707C4
:1020600006000070888870888870050707060000E1
:1020700070888878080870020505060200C0C00054
:10208000C0C00206060602FFC0C000C040800407B0
:1020900007060000102040804020100503030600C2
:1020A00002F800F8040707060100804020102040D5
:1020B000800507070600007088081020002005072B
:1020C0000706000070880868A8A8700507070600C2
:1020D00000708888F8888888050707060000F0885F
:1020E00088F08888F00507070600007088808080E7
:1020F0008870050707060000F08888888888F00542
:102100000707060000F88080F08080F805070706C2
:102110000000F88080F080808005070706000070CE
:102120008880B8888870050707060000888888F8C6
:102130008888880107070602008080808080808070
:1021400005070706000038101010109060050707FB
:102150000600008890A0C0A0908805070706000030
:10216000808080808080F805070706000088D8A856
:10217000888888880507070600008888C8A8988886
:10218000880507070600007088888888887005071A
:1021900007060000F08888F08080800507070600A9
:1021A0000070888888A89068050707060000F088F6
:1021B00088F0A090880507070600007880807008E6
:1021C00008F0050707060000F82020202020200541
:1021D0000707060000888888888888700507070632
:1021E0000000888888888850200507070600008836
:1021F00088888888A850050707060000888850202E
:10220000508888050707060000888888502020200D
:10221000050707060000F80810204080F8030707AC
:10222000060100E08080808080E005050506000151
:102230008040201008030707060100E0202020202E
:1022400020E0050303060004205088050101060074
:1022500000F802020206020580400505050600009E
:1022600070087888780507070600008080B0C88865
:1022700088F0050505060000708080887005070756
:10228000060000080868988888780505050600009B
:102290007088F880700507070600003048E040406D
:1022A00040400506060600FF70888878087005071C
:1022B000070600008080B0C88888880107070602EA
:1022C00000800080808080800308080601FF2000D5
:1022D00020202020A040040707060000808090A056
:1022E000C0A090030707060100C04040404040E006
:1022F000050505060000D0A8A8A8A8050505060044
:1023000000B0C888888805050506000070888888A0
:10231000700506060600FFF08888F0808005060636
:102320000600FF788888780808050505060000B0D3
:10233000C880808005050506000070807008F004E4
:1023400007070600004040E0404040300505050614
:102350000000888888986805050506000088888838
:1023600050200505050600008888A8A85005050529
:1023700006000088502050880506060600FF888861
:1023800088780870050505060000F8102040F8035D
:102390000707060100204040804040200107070653
:1023A0000200808080808080800307070601008013
:1023B0004040204040800502020600026890000074
:1023C000000600005A0059005800092000000000D3
:1023D0000000000000000000007FFFE0000000009F
:1023E00000000000000000007000E000000000009D
:1023F0000000000000000061F86000000000000024
:1024000000000000000041F8200000000000000073
:10241000000000000040F02000000000000000006C
:1024200000000000406020000000000000000000EC
:102430000000005801A07F80000000000000004163
:1024400004005C63A0FFC0000000000000002082C8
:10245000005EF7A0FFC00000000000000020820026
:102460005EF7A0FFC0000000000000004104005C17
:1024700063A07F8000000000000000820800580177
:10248000A07F8000000000000001041000406020D8
:10249000FFC00000000000000104100040F020FF19
:1024A000C00000000000000082080041F820FFC0CA
:1024B0000000000000000041040061F8603F0000DF
:1024C0000000000000000000007000E01E0000009E
:1024D0000000000001FFFF807FFFE00C0000000013
:1024E00000000001FFFF800000000000000000006D
:1024F0000000000000007FFFE0000000000000007E
:1025000000000000007000E000000000000000007B
:1025100000000000630C60000000000000000000EC
:10252000000000470E200000000000000000000036
:1025300000004F0F2000000000000000000000001D
:10254000005F0FA00000000000000000000000007D
:102550005E07A07F800000000000000041040040F2
:102560006020FFC00000000000000020820040F05A
:1025700020FFC00000000000000020820040F0208A
:10258000FFC0000000000000004104004060207F08
:1025900080000000000000008208005E07A07F802D
:1025A000000000000000010410005F0FA0FFC00049
:1025B0000000000000010410004F0F20FFC00000C9
:1025C0000000000000820800470E20FFC00000004D
:1025D00000000000410400630C603F0000000000A8
:1025E0000000000000007000E01E0000000000007D
:1025F0000001FFFF807FFFE00C00000000000000F2
:1026000001FFFF800000001FFFFFFFFFFFFF6000D2
:1026100000000001FF400000000000FF80000000FB
:1026200000007F83CF00000C303F87FF80000C301C
:102630001F867980000C000F8C30C7838C30E78CAC
:1026400030CFC7CC31F38C30DCECEC33B98C30D8E4
:102650006C6C33198C30D06C0C33198C30D86C0CFA
:1026600033198C30DC6C0E3B198C30CF7C079F19F2
:102670008C30C77C038F194000000000000260000E
:1026800000000000061FFFFFFFFFFFF82020506C36
:10269000616E6E65724275666665724279746573C5
:1026A0003A20002046726565204D656D6F72793A5B
:1026B0002000436F6D70696C65643A204D61722033
:1026C000323820323031380A00207C20417574685D
:1026D0006F723A2028416C657068204F626A6563AA
:1026E000747320496E632E2C204C756C7A426F7483
:1026F00020476974205265706F7369746F7279290D
:102700000A004D6172203238203230313831353A8A
:1027100031323A303600204C617374205570646158
:102720007465643A2000312E312E380A004D6172F2
:102730006C696E0020536F66747761726520526514
:102740007365740A00205761746368646F67205270
:10275000657365740A002042726F776E206F75741E
:102760002052657365740A002045787465726E6145
:102770006C2052657365740A00506F7765725570EE
:102780000A0073746172740A006572726F72207746
:10279000726974696E6720746F2066696C650A00DF
:1027A000456E6473746F7073202563202563202544
:1027B000632025630020503A00205A3A0020593AFD
:1027C0000020583A00656E6473746F7073206869F6
:1027D000743A2000446F6E6520736176696E6720DD
:1027E00066696C652E0A004D3239002F2F616374C3
:1027F000696F6E3A726573756D650A004D363030DB
:1028000020486F74656E6420746F6F20636F6C6412
:1028100020746F206368616E67652066696C616D06
:10282000656E740A002F2F616374696F6E3A706170
:102830007573650A006265640A002C2073797374ED
:10284000656D2073746F70706564212048656174D4
:1028500065725F49443A200048656174696E67207B
:102860006661696C6564204245440048656174692D
:102870006E67206661696C65640048656174696EA5
:1028800067206661696C65640048656174696E679C
:10289000206661696C6564204530001000AD03302E
:1028A000016A0150022B0170030A019004F500B087
:1028B00005E500D006D800F007CE001009C50030AD
:1028C0000ABE00500BB700700CB100900DAB00B009
:1028D0000EA600D00FA200F0109D0010129900303B
:1028E0001395005014920070158E0090168B00B056
:1028F000178700D0188400F0198100101B7E00306B
:102900001C7B00501D7900701E7600901F7300B074
:10291000207000D0216E00F0226B0010246900307E
:10292000256600502663007027610090285E00B085
:10293000295C00D02A5900F02B5600102D5400308D
:102940002E5100502F4E0070304B0090314800B097
:10295000324500D0334200F0343E0010363B0030A8
:102960003737005038330070392E00903A2900B0C4
:102970003B2300D03C1B00F03D1100103F0100F054
:102980003F000053442063617264206F6B0A006F44
:1029900070656E526F6F74206661696C65640A00C1
:1029A000766F6C756D652E696E6974206661696CF1
:1029B00065640A00534420696E6974206661696C1D
:1029C0000A006175746F25692E67004D3234004D21
:1029D00032332025730057726974696E6720746FF3
:1029E0002066696C653A20006F70656E20666169CB
:1029F0006C65642C2046696C653A20006F70656ECA
:102A0000206661696C65642C2046696C653A20001B
:102A100046696C652073656C65637465640A0020A3
:102A200053697A653A200046696C65206F70656E5F
:102A300065643A20006F70656E206661696C65643C
:102A40002C2046696C653A20002066696C653A2046
:102A500000646F696E67006672657368004E6F7719
:102A60002000454E4420535542524F5554494E453F
:102A70000A002220706F73002220706172656E74EC
:102A80003A2200535542524F5554494E4520434136
:102A90004C4C207461726765743A22004B494C4C6F
:102AA00045442E2000747279696E6720746F20632C
:102AB000616C6C207375622D67636F646520666955
:102AC0006C6573207769746820746F6F206D616E18
:102AD00079206C6576656C732E204D4158206C65AD
:102AE00076656C2069733A004572726F723A002005
:102AF0005A3A0020593A0020436F756E7420583AB4
:102B00000020453A00205A3A0020593A00583A002D
:102B10003A004361703A002F2F2000205A002059BC
:102B200000580020204D61783A2000205A0020599A
:102B300000580020204D696E3A20004F6E20004F53
:102B4000666600536F667420656E6473746F70738D
:102B50003A200050726F6265205A204F6666736596
:102B6000743A200020643A0020693A0020703A004C
:102B700020643A0020693A0020703A0042656420DF
:102B80004C6576656C696E6720004661696C6564AA
:102B900020746F20656E61626C6520426564204C14
:102BA0006576656C696E670A00426564204C6576DF
:102BB000656C20436F7272656374696F6E204D613E
:102BC000747269783A004F66667365747320617039
:102BD000706C696564004572723A20546F6F2066AC
:102BE00061722100546F6F206661722066726F6D92
:102BF000207265666572656E636520706F696E74BC
:102C00000A0043616E6E6F7420656E746572207386
:102C100075626469723A2000022E2E004D61696E61
:102C20000020204E6F7A7A6C653A200020004261C5
:102C3000636B004D696E696D756D2054656D702014
:102C40006973203132302E0048656174696E6720E7
:102C50006661696C65640045787472756465206DA1
:102C60006F726500526573756D65207072696E7460
:102C700000524553554D45204F5054494F4E533AFD
:102C80000020204E6F7A7A6C653A20006368616E8E
:102C90006765006F66207468652066696C616D65A4
:102CA0006E74005761697420666F7220737461726C
:102CB00074005052494E5420504155534544002011
:102CC000204E6F7A7A6C653A2000200066696C614C
:102CD0006D656E7420756E6C6F6164005761697408
:102CE00020666F72005052494E5420504155534552
:102CF000440020204E6F7A7A6C653A200020005004
:102D00006C6561736520776169742E2E2E004865AD
:102D10006174696E67206E6F7A7A6C6500505249F3
:102D20004E54205041555345440020204E6F7A7A2E
:102D30006C653A2000200068656174206E6F7A7AB5
:102D40006C652E00507265737320627574746F6EBB
:102D500020746F005052494E542050415553454401
:102D60000020204E6F7A7A6C653A2000746F2063E1
:102D70006F6E74696E75652E2E2E00616E64207004
:102D80007265737320627574746F6E00496E73653B
:102D900072742066696C616D656E74005052494EA4
:102DA00054205041555345440020204E6F7A7A6C90
:102DB000653A2000200066696C616D656E74206C58
:102DC0006F6164005761697420666F7200505249E8
:102DD0004E54205041555345440020204E6F7A7A7E
:102DE0006C653A2000200066696C616D656E742028
:102DF00065787472756465005761697420666F72D6
:102E0000005052494E542050415553454400746F70
:102E100020726573756D65005761697420666F7205
:102E2000207072696E74005052494E5420504155C2
:102E3000534544000A003B20454550524F4D204920
:102E40006E6465783A20005570646174696E67201D
:102E50007A6F666673657420696E20454550524FDF
:102E60004D3A20000E000E000E000E000E000E0067
:102E70000E000E007FC03F801F000E000400040003
:102E80000E001F003F807FC00E000E000E000E00DF
:102E90000E000E000E000E0007F8000C0C001002D1
:102EA000002001006001804000804003E04001C03C
:102EB0004000804000004000006000002000001042
:102EC00000000C0C0007F80001FE000303000400E2
:102ED000800800401800601000207C00203800208E
:102EE00010002000002000002000006000004000D2
:102EF000008003030001FE00FFFFFF7F80FFC0FF93
:102F0000C0FFC07F807F80FFC0FFC0FFC03F001EAA
:102F1000000C005A204F6666736574005A204F6695
:102F20006673657400466C6F7700466C6F77004679
:102F3000616E20737065656420310046616E207398
:102F40007065656420310042656400426564004E2E
:102F50006F7A7A6C65004E6F7A7A6C650053706593
:102F60006564005370656564004D61696E004D6F66
:102F700076652058004D6F76652059004D6F766557
:102F8000205A004578747275646572004D6F7665DD
:102F900020302E316D6D004D6F766520316D6D00E6
:102FA0004D6F76652031306D6D004D6F7665206117
:102FB000786973004578747275646572004D6F7638
:102FC00065205A004D6F76652059004D6F7665205B
:102FD00058004578747275646572004D6F7665208F
:102FE0005A004D6F76652059004D6F766520580068
:102FF0004D6F76656D656E7400436F6F6C646F77AF
:103000006E0046616E207370656564203100466114
:103010006E2073706565642031004265640042650E
:1030200064004E6F7A7A6C65004E6F7A7A6C650038
:103030004D61696E0020746F6F206C6F6E67206544
:103040007874727573696F6E2070726576656E74D0
:1030500065640A0020636F6C642065787472757310
:10306000696F6E2070726576656E7465640A0043E0
:103070006172642072656D6F76656400436172648D
:1030800020696E7365727465640000060900FE06AF
:10309000018902FE20FFFE07FE06FE00000006007A
:1030A000070106060602008080808000800303037B
:1030B000060103A0A0A00507070600FF5050F85026
:1030C000F850500509090600FE2070A8A07028A835
:1030D00070200608080600FF40A848102048540841
:1030E0000507070600FF6090906098906801030351
:1030F0000602038080800207070602FF408080806E
:103100008080400207070602FF8040404040408028
:103110000505050600008850F850880505050600DD
:10312000002020F820200204040602FEC040408057
:10313000050101060002F8020202060200C0C004F6
:1031400006060601001010204080800406060601D5
:103150000060909090906003060606010040C04019
:103160004040E00406060601006090102040F00494
:103170000606060100F020601010E00506060600B5
:103180000010305090F810040606060100F080E0B0
:103190001010E00406060601006080E090906004D4
:1031A0000606060100F01010204040040606060145
:1031B00000609060909060040606060100609090A8
:1031C000701060020505060200C0C000C0C0020702
:1031D000070602FEC0C000C040408005050506008D
:1031E000001860806018050303060001F800F80568
:1031F0000505060000C0300830C0040707060100BE
:10320000609010604000400506060600007090A81F
:10321000B08070050606060000205088F8888805F2
:103220000606060000F088F08888F004060606010D
:1032300000609080809060040606060100E0909097
:103240009090E0040606060100F080E08080F00423
:103250000606060100F080E0808080040606060174
:1032600000609080B090600406060601009090F027
:10327000909090030606060100E040404040E005C3
:1032800006060600003810101090600406060601BD
:103290000090A0C0A09090040606060100808080E7
:1032A0008080F005060606000088D8A8A888880453
:1032B000060606010090D0B0909090050606060024
:1032C00000708888888870040606060100E09090E7
:1032D000E080800407070601FF609090D0B0601086
:1032E000040606060100E09090E0909004060606B1
:1032F0000100609040209060050606060000F8205E
:1033000020202020040606060100909090909060F6
:10331000040606060100909090F06060050606061F
:1033200000008888A8A8D8880506060600008850EE
:10333000202050880506060600008888502020209E
:10334000040606060100F010204080F00306060681
:103350000100E080808080E0040606060100808095
:1033600040201010030606060100E020202020E087
:103370000503030600032050880501010600FEF83E
:103380000202020602048040040404060100709058
:1033900090700406060601008080E09090E004042E
:1033A00004060100708080700406060601001010FB
:1033B0007090907004040406010060B0C0700406B0
:1033C00006060100205040E040400406060601FECB
:1033D0006090907010600406060601008080E09006
:1033E00090900306060601004000C04040E003083C
:1033F000080601FE200060202020A04004060606EA
:1034000001008080A0C0A090030606060100C04015
:10341000404040E0050404060000D0A8A888040449
:1034200004060100E09090900404040601006090FE
:1034300090600406060601FEE09090E0808004069D
:10344000060601FE7090907010100404040601003E
:10345000A0D0808004040406010070C030E004069F
:10346000060601004040E04050200404040601002C
:103470009090907004040406010090906060050430
:103480000406000088A8A850040404060100906007
:1034900060900406060601FE90909070906004040F
:1034A00004060100F02040F0030707060100204059
:1034B00040804040200107070602FF808080808016
:1034C00080800307070601008040402040408004C0
:1034D000020206010350A0FFFFFFFFFFFFFFFFFFF7
:1034E000FFFFFFFFFFFFFFFFFFFFFFFFFFFFFFFFEC
:1034F000FFFFFFFFFFFFFFFF0000000600070106C0
:10350000060602008000808080800406060601FF17
:103510002070A0A070200507070600FF304840F08B
:103520004040F8050505060000A8508850A805068B
:10353000060600008850F820F8200107070602FF61
:10354000808080008080800407070601FF70806013
:10355000906010E0030101060105A00607070600C0
:1035600000788494A494847803050506010160A082
:103570006000E00505050600002850A0502804035F
:1035800003060100F01010040101060102F0060715
:10359000070600007884B4A4A4847804010106011D
:1035A00005F00403030601026090600507070600AA
:1035B000FF2020F8202000F803050506010140A0A7
:1035C0002040E0030505060101C0204020C00202A2
:1035D0000206020440800405050601FF9090B0D069
:1035E0008005060606000078E8E868282801010141
:1035F000060202800202020602FE40800305050662
:10360000010140C04040E003050506010140A04023
:1036100000E0050505060000A0502850A005080898
:103620000600FF40C04050703078100508080600C2
:10363000FF40C04050680810380508080600FFC069
:10364000204030F0307810040707060100200020E9
:1036500060809060050707060000402020507088B9
:10366000880507070600001020205070888805078D
:1036700007060000205020507088880507070600C4
:103680000028502050708888050707060000500069
:1036900020507088880507070600002050205070D1
:1036A000888805060606000078A0F0A0A0B80408E7
:1036B000080601FE609080809060204004070706A5
:1036C00001004020F080E080F004070706010020A0
:1036D00040F080E080F00407070601002050F080F1
:1036E000E080F00407070601005000F080E080F061
:1036F0000307070601008040E0404040E003070761
:103700000601002040E0404040E0030707060100BA
:1037100040A0E0404040E0030707060100A000E0B1
:10372000404040E00506060600007048E848487042
:1037300004070706010050A090D0B090900407073E
:103740000601004020609090906004070706010089
:1037500020406090909060040707060100205060B0
:103760009090906004070706010050A06090909030
:103770006004070706010050006090909060050506
:103780000506000088502050880408080601FF1034
:1037900070B0B0D0D0E08004070706010040209050
:1037A0009090906004070706010020409090909050
:1037B0006004070706010020509090909060040775
:1037C00007060100500090909090600507070600E2
:1037D000001020885020202004060606010080E00A
:1037E0009090E0800406060601006090A0A090A0E2
:1037F000040707060100402000709090700407073E
:103800000601002040007090907004070706010038
:103810002050007090907004070706010050A0002F
:103820007090907004060606010050007090907031
:1038300004070706010020502070909070050404D2
:1038400006000070A8B0780406060601FE708080AD
:1038500070204004070706010040200060B0C070DF
:1038600004070706010020400060B0C0700407078D
:1038700006010020500060B0C0700406060601007A
:10388000500060B0C070030707060100804000C010
:103890004040E0030707060100204000C04040E030
:1038A00003070706010040A000C04040E0030606F1
:1038B000060100A000C04040E004070706010030F8
:1038C00060107090906004070706010050A000E0AF
:1038D00090909004070706010040200060909060DF
:1038E000040707060100204000609090600407076D
:1038F0000601002050006090906004070706010058
:1039000050A0006090906004060606010050006020
:103910009090600505050600002000F800200404D2
:103920000406010070B0D0E0040707060100402043
:1039300000909090700407070601002040009090CE
:1039400090700407070601002050009090907004CA
:1039500006060601005000909090700409090601C7
:10396000FE2040009090907090600408080601FED0
:103970008080E09090E080800408080601FE5000FE
:1039800090909070906024F4D43050C38E20C2A2E6
:103990004017828B7011127A910D816CD90AA8613F
:1039A000E108C7586607615143061E4B5D05C145D6
:1039B000A7041A411104093D9803713931034036B7
:1039C000DB0265339102D4305402802E1D02632C39
:1039D000EE01752AC501B028A001102781018F25AD
:1039E00064012B244B01E0223401AC211F018D2006
:1039F0000D01801FFC00841EED00971DDF00B81C28
:103A0000D200E61BC600201BBC00641AB200B2192B
:103A1000A8000A19A0006A189900D1179100401750
:103A20008B00B516840031167E00B31579003A1567
:103A30007300C7146F0058146A00EE1366008813F1
:103A4000630025135E00C7125B006C12570015124D
:103A50005400C111510070114F0021114B00D610BC
:103A600049008D1047004610440002104200C00F6C
:103A70004000800F3E00420F3C00060F3B00CB0E83
:103A80003800930E37005C0E3500270E3400F30D1E
:103A90003200C10D3100900D3000600D2E00320D4E
:103AA0002D00050D2C00D90C2B00AE0C2900850C27
:103AB00029005C0C2700350C27000E0C2600E80BB3
:103AC0002400C40B2400A00B23007D0B23005A0B01
:103AD0002100390B2100180B2000F80A1F00D90A19
:103AE0001E00BB0A1E009D0A1D00800A1D00630AFD
:103AF0001C00470A1B002C0A1B00110A1A00F709B8
:103B00001A00DD091900C4091900AB09190092094E
:103B100017007B091800630917004C0916003609C5
:103B20001600200916000A091500F5081500E0081E
:103B30001400CC081400B8081400A408140090085D
:103B400013007D0812006B08130058081200460885
:103B50001200340811002308110012081100010896
:103B60001100F0071000E0071000D0071000C00798
:103B70001000B0070F00A107100091070E00830787
:103B80000F0074070F0065070E0057070E00490766
:103B90000E003B070D002E070E0020070D00130737
:103BA0000D0006070D00F9060C00ED060D00E006FD
:103BB0000C00D4060C00C8060C00BC060C00B006B5
:103BC0000C00A4060B0099060C008D060B00820663
:103BD0000B0077060B006C060B0061060A00570607
:103BE0000B004C060A0042060A0038060A002E06A0
:103BF0000A0024060A001A060A0010060900070631
:103C00000A00FD050900F4050900EB050900E205BD
:103C10000900D9050900D0050900C7050900BE053E
:103C20000900B5050800AD050800A50509009C05BB
:103C30000800940508008C050800840508007C0530
:103C40000800740508006C050700650508005D059F
:103C50000700560508004E05070047050700400508
:103C6000080038050700310507002A05070023056D
:103C700007001C050600160507000F0507000805CC
:103C8000060002050700FB040600F5040700EE0429
:103C90000600E8040600E2040700DB040600D50481
:103CA0000600CF040600C9040600C3040600BD04D4
:103CB0000600B7040600B1040500AC040600A60423
:103CC0000600A00405009B0406009504050090046E
:103CD00006008A04050085040500800406007A04B5
:103CE000050075040500700405006B0405006604FA
:103CF0000500610405005C0405005704050052043A
:103D000005004D04050048040500430405003E0479
:103D100004003A04050035040500300404002C04B6
:103D2000050027040400230405001E0404001A04EF
:103D3000040016040500110404000D040400090425
:103D400005000404040000040400FC030400F8035C
:103D50000400F4030400F0030400EC030400E8038F
:103D60000400E4030400E0030400DC030400D803BF
:103D70000400D4030400D0030400CC030400C803EF
:103D80000300C503030024F404D9201BC40C5C0EFB
:103D90009804C4095F0265077101F405F900FB048A
:103DA000B30048048700C1036900580355000303AA
:103DB0004500BE023A008402310053022A00290263
:103DC000250004022000E4011C00C8011900AF0115
:103DD00017009801140084011300710110006101A3
:103DE000100051010E0043010D0036010B002B01A4
:103DF0000B0020010B00150109000C010900030153
:103E00000800FB000800F3000800EB000700E400D6
:103E10000600DE000600D8000600D2000600CC0036
:103E20000500C7000500C2000500BD000400B90080
:103E30000400B5000400B1000400AD000400A900B6
:103E40000400A5000300A20003009F0004009B00E3
:103E50000300980003009500020093000300900007
:103E600003008D0002008B00030088000200860022
:103E7000020084000300810002007F0002007D0038
:103E800002007B000200790002007700010076004A
:103E900002007400020072000100710002006F0055
:103EA00002006D0001006C0002006A000100690060
:103EB0000200670001006600010065000100640067
:103EC00002006200010061000100600001005F006B
:103ED00002005D0001005C0001005B0001005A006F
:103EE0000100590001005800010057000100560070
:103EF0000100550001005400010053000000530070
:103F000001005200010051000100500001004F006B
:103F100001004E0000004E0001004D0001004C0069
:103F200001004B0000004B0001004A000100490065
:103F30000100480000004800010047000100460061
:103F4000000046000100450000004500010044005B
:103F50000100430000004300010042000000420055
:103F600001004100000041000100400001003F004D
:103F700000003F0001003E0000003E0001003D0047
:103F800000003D0001003C0000003C0000003C003F
:103F900001003B0000003B0001003A0000003A0035
:103FA000010039000000390001003800000038002D
:103FB0000000380001003700000037000100360023
:103FC000000036000000360001003500000035001A
:103FD000000035000100340000003400000034000F
:103FE0000100330000003300000033000100320004
:103FF00000003200000032000100310000003100FA
:1040000000003100010030000000300000003000EE
:1040100001002F0000002F0000002F0000002F00E3
:1040200001002E0000002E0000002E0001002D00D7
:1040300000002D0000002D0000002D0001002C00CC
:1040400000002C0000002C0000002C0001002B00C0
:1040500000002B0000002B0000002B0001002A00B4
:1040600000002A0000002A0000002A0001002900A8
:10407000000029000000290000002900000029009C
:10408000010028000000280000002800000028008F
:104090000000280001002700000027000000270082
:1040A0000000270000002700010026000000260075
:1040B0000000260000002600000026000100250068
:1040C000000025000000250000002500000025005C
:1040D000000025000100240000002400000024004E
:1040E0000000240000002400010023000000230041
:1040F0000000230000002300000023000000230034
:104100000000230001002200000022000000220025
:104110000000220000002200000022000100210017
:10412000000021000000210000002100000021000B
:1041300000002100000021000100200000002000FC
:1041400000002000000020000000200000002000EF
:10415000000020000000200001001F0000001F00E0
:1041600000001F0000001F0000001F0000001F00D3
:1041700000001F0001001E0000001E0000001E00C5
:1041800000001E0000004D383420582059205A20CD
:1041900045004C696E65204E756D626572206973CD
:1041A000206E6F74204C617374204C696E65204ED4
:1041B000756D6265722B312C204C617374204C69D3
:1041C0006E653A200053544F505045442E20005005
:1041D00072696E7465722073746F707065642064A8
:1041E000756520746F206572726F72732E20466938
:1041F0007820746865206572726F7220616E642029
:10420000757365204D39393920746F207265737468
:104210006172742E202854656D70657261747572B8
:10422000652069732072657365742E205365742050
:10423000697420616674657220726573746172744A
:10424000696E67290A004E6F20436865636B73755A
:104250006D2077697468206C696E65206E756D627B
:1042600065722C204C617374204C696E653A200095
:10427000636865636B73756D206D69736D617463DD
:10428000682C204C617374204C696E653A20004D97
:10429000313130004D333100534420726561642068
:1042A0006572726F720A00446F6E65207072696E7B
:1042B00074696E672066696C650A0020496E7661D4
:1042C0006C69642065787472756465722000000002
:1042D000D8C10000A0C10000000000009043000011
:1042E00097430000874320746F6F206C6F6E6720C8
:1042F000657874727573696F6E2070726576656E1D
:104300007465640A0020636F6C642065787472754C
:1043100073696F6E2070726576656E7465640A00ED
:10432000486F6D652058592066697273740A004899
:104330006F6D652058592066697273740043616E11
:104340006E6F74206F70656E207375626469722081
:10435000006563686F3A00544845524D414C205205
:10436000554E415741592042454400546865726D8D
:10437000616C2052756E6177617900544845524DE9
:10438000414C2052554E4157415920453100544827
:1043900045524D414C2052554E41574159204530D0
:1043A0000000002200250028002B002E00310034E0
:1043B0000002010000050108010B0100002100249A
:1043C0000027002A002D0030003300010100000406
:1043D0000107010A01050505050705080808080287
:1043E0000202020A0A08080404040401010101018E
:1043F0000101010303030303030303040707070C7D
:104400000C0C0C0C0C0C0C02020202060606060632
:104410000606060B0B0B0B0B0B0B0B0102102020DF
:104420000808102040102040800201020108040208
:10443000010102040810204080804020100804027E
:1044400001800402018040201008040201080402D7
:1044500001010204081020408001020408102040DD
:1044600080000020002300260029002C002F0032AD
:104470000000010000030106010901565472617633
:10448000206D696E005654726176206D696E00561B
:1044900054726176206D696E00566D696E00566DBE
:1044A000696E00566D696E00566D61782045005644
:1044B0006D6178204500566D6178204500566D612C
:1044C00078205A00566D6178205A00566D61782028
:1044D0005A00566D6178205900566D617820590058
:1044E000566D6178205900566D6178205800566DE0
:1044F0006178205800566D61782058004D6F7469BE
:104500006F6E00416D6178204500416D61782045F6
:1045100000416D6178205A00416D6178205A004158
:104520006D6178205900416D6178205900416D61BD
:1045300078205800416D6178205800412D747261D7
:1045400076656C00412D74726176656C00412D7248
:1045500065747261637400412D7265747261637475
:1045600000416363656C00416363656C004D6F746B
:10457000696F6E0056652D6A65726B0056652D6A0F
:1045800065726B0056652D6A65726B00567A2D6AEE
:1045900065726B00567A2D6A65726B0056792D6ACA
:1045A00065726B0056792D6A65726B0056792D6ABB
:1045B00065726B0056782D6A65726B0056782D6AAD
:1045C00065726B0056782D6A65726B004D6F746969
:1045D0006F6E004573746570732F6D6D0045737455
:1045E0006570732F6D6D005A73746570732F6D6DE8
:1045F000005A73746570732F6D6D00597374657014
:10460000732F6D6D005973746570732F6D6D005845
:1046100073746570732F6D6D005873746570732FAC
:104620006D6D004D6F74696F6E004F6666004F6E62
:104630002000456E6473746F702061626F72740045
:1046400053746570732F6D6D004A65726B00416322
:1046500063656C65726174696F6E0056656C6F633B
:10466000697479005A204F666673657400416476F8
:10467000616E6365642053657474696E677300527C
:1046800065776970696E670050726F62696E672046
:104690006661696C65640050726F62696E6720665E
:1046A00061696C65640050524F4245204641494C57
:1046B00020434C45414E204E4F5A5A4C450A005219
:1046C00065776970696E670A005265776970696E0F
:1046D000670050726F62696E67206661696C65641D
:1046E0000050726F62696E67206661696C65640074
:1046F00050524F4245204641494C20434C45414E83
:10470000204E4F5A5A4C450A005265776970696EBF
:10471000670A0050726F62696E67206661696C6536
:10472000640A0050726F62696E67206661696C6529
:104730006400205A3A200020593A20004265642043
:10474000583A200000000A0B02090C0D0E0807035E
:104750000401000000000000000000000000000054
:104760000000000000000000000000000000000049
:104770001211100000000000000000000000000006
:1047800000000000000000000000486F6D6520255B
:1047900073257325732066697273740020666972CD
:1047A00073740A005A0059005800486F6D65200064
:1047B00045313A200045303A20005A3A2000593A13
:1047C0002000583A20004D53312C4D53322050696F
:1047D0006E730A004572726F722077726974696E27
:1047E0006720746F20454550524F4D210A00526595
:1047F00073656E643A20002042002050006F6B0009
:104800004B494C4C45442E20004B494C4C20636195
:104810007573656420627920746F6F206D756368AD
:1048200020696E6163746976652074696D65202DF9
:104830002063757272656E7420636F6D6D616E6456
:104840003A2000506C656173652072657365740071
:104850005052494E5445522048414C544544005012
:1048600072696E7465722068616C7465642E206B69
:10487000696C6C28292063616C6C6564210A006591
:104880006E7175657565696E672022000000D8C17C
:10489000000097430000000000004842000048422A
:1048A00000004040000000005761726E696E673A78
:1048B00020486F6D696E672042756D70204469767F
:1048C00069736F72203C20310A000202040000A0CC
:1048D000400000A0400000004000809D430000A177
:1048E0004300008743FF01FF290A002062797465B5
:1048F000733B20637263200053657474696E677341
:104900002053746F726564202800202863616C63F3
:10491000756C6174656429210A0020213D200045E1
:104920004550524F4D20435243206D69736D617461
:104930006368202D202873746F7265642920002914
:104940000A002062797465733B2063726320002043
:1049500073746F7265642073657474696E67732015
:10496000726574726965766564202800204D6172F5
:104970006C696E3D563437290A0028454550524F20
:104980004D3D00454550524F4D2076657273696F1D
:104990006E206D69736D61746368200020706F73A1
:1049A0006974696F6E206F7574206F662072616E16
:1049B00067652E0A003F50726F626520000A0A4246
:1049C0006564204C6576656C20436F727265637414
:1049D000696F6E204D61747269783A00202B000A6D
:1049E000436F727265637465642042656420486534
:1049F000696768742076732E2042656420546F7056
:104A00006F6C6F67793A0A00202B000A42656420B8
:104A100048656967687420546F706F677261706869
:104A2000793A0A2020202B2D2D2D204241434B2066
:104A30002D2D2B0A2020207C20202020202020200B
:104A40002020207C0A204C207C20202020282B297C
:104A5000202020207C20520A2045207C202020205D
:104A6000202020202020207C20490A2046207C2055
:104A7000282D29204E20282B29207C20470A20542D
:104A8000207C20202020202020202020207C204846
:104A90000A2020207C20202020282D2920202020B2
:104AA0007C20540A2020207C202020202020202030
:104AB0002020207C0A2020204F2D2D2046524F4EB2
:104AC00054202D2D2B0A2028302C30290A004D652A
:104AD000616E206F662073616D706C656420706F0D
:104AE000696E74733A200020643A200020623A20F4
:104AF0000045716E20636F656666696369656E74F3
:104B0000733A20613A2000202844525952554E29C8
:104B100000473239204175746F20426564204C652E
:104B200076656C696E670028422961636B002846D0
:104B300029726F6E74002852296967687400284CC6
:104B400029656674003F4E756D626572206F662040
:104B500070726F626520706F696E74732069732064
:104B6000696D706C61757369626C65202832206DA7
:104B7000696E696D756D292E0A003F285629657288
:104B8000626F7365206C6576656C20697320696D52
:104B9000706C61757369626C652028302D34292E24
:104BA0000A0048617264636F6465642044656661ED
:104BB000756C742053657474696E6773204C6F61F3
:104BC0006465640A002823000028230000640000B4
:104BD00000102700000000964300009643000040AC
:104BE000400000C8410000C9420000C9420000C89E
:104BF0004400804F4420204D383531205A005A2D32
:104C000050726F6265204F666673657420286D6D03
:104C1000293A0A0020440020490020204D33303436
:104C200020500020440020490020204D3330312006
:104C300050005049442073657474696E67733A0A72
:104C40000020460020420020480020204D3134350D
:104C50002053004D6174657269616C2068656174F0
:104C6000757020706172616D65746572733A0A00C7
:104C700020204D3432302053004175746F2042653E
:104C800064204C6576656C696E673A0A00205A00AC
:104C900020590020204D323036205800486F6D6575
:104CA000206F66667365743A0A00204500205A003A
:104CB00020590020580020420020540020204D326E
:104CC0003035205300416476616E6365643A205349
:104CD0003C6D696E5F66656564726174653E205403
:104CE0003C6D696E5F74726176656C5F6665656464
:104CF000726174653E20423C6D696E5F7365676DDD
:104D0000656E745F74696D655F75733E20583C6DA8
:104D100061785F78795F6A65726B3E205A3C6D619D
:104D2000785F7A5F6A65726B3E20453C6D61785FA3
:104D3000655F6A65726B3E0A0020540020520020B5
:104D4000204D323034205000416363656C657261E0
:104D500074696F6E2028756E6974732F7332293AE7
:104D600020503C7072696E745F616363656C3E20B5
:104D7000523C726574726163745F616363656C3E1B
:104D800020543C74726176656C5F616363656C3E50
:104D90000A00204500205A0020590020204D3230C2
:104DA000312058004D6178696D756D2041636365F0
:104DB0006C65726174696F6E2028756E6974732FEB
:104DC0007332293A0A00204500205A002059002059
:104DD000204D3230332058004D6178696D756D205B
:104DE0006665656472617465732028756E69747395
:104DF0002F73293A0A00204500205A00205900202C
:104E0000204D3932205800537465707320706572DC
:104E100020756E69743A0A0020204D3230302044EB
:104E2000300A0020204D3230302044002044697385
:104E300061626C65640A0046696C616D656E742020
:104E400073657474696E67733A0020204D3134398C
:104E50002043203B20556E69747320696E204365A2
:104E60006C736975730A002020473231202020209E
:104E70003B20556E69747320696E206D6D0A004D7C
:104E8000363030204230005072696E742070617587
:104E9000736564004D31323500004D32340050727C
:104EA000696E742061626F72746564004E6F205386
:104EB000442063617264005072696E742066726F80
:104EC0006D2053440053746F70207072696E7400CB
:104ED000526573756D65207072696E7400506175EE
:104EE0007365207072696E740041626F757420463C
:104EF00069726D77617265004368616E67652066EF
:104F0000696C616D656E7400436F6E66696775727A
:104F10006174696F6E0054656D706572617475724D
:104F200065004D6F76656D656E740054756E650035
:104F3000496E666F2073637265656E004D6F7665AE
:104F400020617869730044697361626C65207374D1
:104F5000657070657273004D383400426564204C92
:104F60006576656C696E67004732382058590A4D7E
:104F700031303920533137350A473238205A0A4DFB
:104F800031303920523134350A4731320A4732390B
:104F90000A4D313034205330004175746F20686FF2
:104FA0006D6500473238004D61696E004D35303215
:104FB0000A4D353030004C6F61642073657474693C
:104FC0006E677300526573746F7265206661696CF9
:104FD000736166650053746F7265207365747469DC
:104FE0006E677300416476616E6365642053657417
:104FF00074696E6773004D61696E004B494C4C4596
:10500000442E200046696C652064656C6574656497
:105010003A0044656C6574696F6E206661696C6501
:10502000642C2046696C653A20006F70656E2066BE
:1050300061696C65642C2046696C653A20001DB37B
:1050400013DE11241FBECFEFD1E2DEBFCDBF00E0E3
:105050000CBF14E0A0E0B2E0EAEFFAE302E00BBF1D
:1050600002C007900D92A230B107D9F727E1A2E064
:10507000B4E001C01D92AB34B207E1F718E2C0E220
:10508000D8E200E006C021970109802FFE010F94AD
:10509000EE1CCF31D10780E00807A9F70E945E58C7
:1050A0000D946C1D0C9400002F923F924F925F92D2
:1050B0006F927F928F929F92AF92BF92CF92DF9228
:1050C000EF92FF920F931F93CF93DF93CDB7DEB78D
:1050D000C659D1090FB6F894DEBF0FBECDBF80917F
:1050E000FB158D3409F49CC3843511F40C94323DC6
:1050F000873411F00C94743D8091F9159091FA1554
:105100008A31910509F465C2BCF4843091055CF4E0
:105110008230910574F597FF02C00C948E3D0E9479
:105120004BAF0C948E3D8430910509F4C9C10C97A6
:1051300009F40DC20C948E3D8E31910509F496C28E
:105140003CF48C31910509F47BC20CF449C27DC258
:105150008B35910509F4F8C28C35910509F4F9C233
:105160008A35910511F00C948E3D109207040C9431
:105170008E3D20911802222311F40C948E3D11E0F3
:10518000029709F010E00E94ECA919821A821B8292
:105190001C821D821E821F82188682E50E94719ADF
:1051A000882309F43EC10E940F9A6B017C01209173
:1051B000AB153091AC154091AD155091AE1528ABA3
:1051C00039AB4AAB5BAB4090AF155090B0156090D7
:1051D000B1157090B21580916D1590916E15A091DA
:1051E0006F15B09170158CAB9DABAEABBFAB209182
:1051F000711530917215409173155091741528AF47
:1052000039AF4AAF5BAF20E030E0A901C701B6017A
:105210000F94C615882309F41AC128A939A94AA9E7
:105220005BA96CA97DA98EA99FA90F94C6158111B0
:105230000BC0A301920168AD79AD8AAD9BAD0F940F
:10524000C615882309F403C120E030E0A901C70195
:10525000B6010F94C615881F8827881F18130BC026
:1052600080E090E0A0E8BFE32C968CAF9DAFAEAF9E
:10527000BFAF2C970AC020E030E040E85FEB2C96EF
:105280002CAF3DAF4EAF5FAF2C9728A939A94AA9E3
:105290005BA96CA97DA98EA99FA90F94FE192496DC
:1052A0006CAF7DAF8EAF9FAF2497A301920168AD25
:1052B00079AD8AAD9BAD0F94FE1928966CAF7DAF8A
:1052C0008EAF9FAF289724962CAD3DAD4EAD5FAD10
:1052D0002497CA01B9010F942B164B015C01289643
:1052E0002CAD3DAD4EAD5FAD2897CA01B9010F940D
:1052F0002B169B01AC01C501B4010F94FF190F944B
:105300006A1C6CAF7DAF8EAF9FAF20E030E040E015
:105310005FE30F942B164B015C01A7019601C701B7
:10532000B6010F942B166B017C01A5019401C501F8
:10533000B4010F942B169B01AC01C701B6010F9469
:10534000FE190F946A1C9B01AC012C966CAD7DADCF
:105350008EAD9FAD2C970F942B166B017C012CA961
:105360003DA94EA95FA968A979A98AA99BA90F940B
:10537000FF1920E030E040E05FE30F942B164B0173
:105380005C0128966CAD7DAD8EAD9FAD2897905891
:105390002CAD3DAD4EAD5FAD0F94DB1A9B01AC0162
:1053A000C701B6010F942B169B01AC01C501B401D6
:1053B0000F94FF1928A939A94AA95BA90F94FE19CE
:1053C00069837A838B839C8328AD39AD4AAD5BAD0D
:1053D000C301B2010F94FF1920E030E040E05FE329
:1053E0000F942B164B015C012CAD3DAD4EAD5FAD66
:1053F00024966CAD7DAD8EAD9FAD24970F94DB1AD6
:105400009B01AC01C701B6010F942B169B01AC01A7
:10541000C501B4010F94FF19A30192010F94FE1965
:1054200012C089E40E94719A882331F00E940F9A79
:1054300069837A838B839C838AE40E94719A882390
:1054400031F00E940F9A6D837E838F83988720E0CE
:1054500030E0A90169817A818B819C810F94C61506
:1054600081110BC020E030E0A9016D817E818F8128
:1054700098850F94C615882349F0612FCE010196B7
:105480000E9486D10E945B460C948E3DE8EEFAE2C3
:1054900084918F010F5F1F4F882321F00F942E04FA
:1054A000F801F6CFEDE3F2E084918F010F5F1F4F1B
:1054B000882311F40C948E3D0F942E04F801F4CF40
:1054C00080E50E94719A882329F00E94CF996B0190
:1054D0007C0103C0C12CD12C760183E50E94719A16
:1054E000882361F00E940F9A20E030E04AE754E4FC
:1054F0000F942B160F94481B6B017C010E9413A183
:1055000080912C02811105C060E083E592E00E9449
:105510006C9B0E945B468091131690911416A0918B
:105520001516B0911616C80ED91EEA1EFB1E0E9453
:1055300038C1DC01CB018C199D09AE09BF09B7FD4B
:1055400002C00C948E3D80E00E94ABDEF0CF0E9442
:10555000EACB81110C948E3D80E50E94719A8823DC
:1055600019F00E94DF9901C060E068A783E50E94FE
:10557000719A882319F00E94DF9901C06CE06CA336
:1055800084E50E94719A882319F00E94DF9901C076
:1055900063E068A382E50E94719A882319F00E9453
:1055A0000F9A04C060E070E080ED90E469837A8334
:1055B0008B839C839E01205E3F4FAE014F5F5F4F08
:1055C000BE016C5D7F4FCE0188960F94C30F0C9483
:1055D0008E3D81E0809318021092F9110C948E3D5B
:1055E0000E94EACB81110C948E3D80E090E0A8EC03
:1055F000B2E489839A83AB83BC8380E090E0A6E920
:10560000B3E48D839E83AF83B88780E090E0A0EA07
:10561000B1E489879A87AB87BC8780E50E94719A3D
:10562000882319F00E94DF9901C060E068A3BE01E1
:105630006F5F7F4FCE0180960F942E0F0C948E3D9E
:1056400080E00E94DAAC0C948E3D81E0809384056A
:1056500024982C9A0898109A0E94EBEC10928405DA
:10566000249A2C98089A10980C948E3DC090AB15F3
:10567000D090AC15E090AD15F090AE1588E50E9485
:10568000719A811108C020E030E0A901C701B6017C
:105690000F94FF1902C00E940F9A68A379A38AA3EE
:1056A0009BA3C090AF15D090B015E090B115F090CD
:1056B000B21589E50E94719A811108C020E030E09E
:1056C000A901C701B6010F94FF1902C00E940F9AE9
:1056D0006B017C0169837A838B839C8388A099A06A
:1056E000AAA0BBA02CE032E048E951ECC501B4010E
:1056F0000F94251C87FF02C00C948E3D21E230E000
:1057000040E953E4C501B4010F94C615181614F40A
:105710000C948E3D29E134E040E151ECC701B60123
:105720000F94251C87FF02C00C948E3D21E230E8C7
:1057300040E953E4C701B6010F94C615181614F4D6
:105740000C948E3D0C94913D81E0809307040C9461
:105750008E3D0E9413A14DE453E059AB48AB3BEAA8
:10576000E32E35E1F32E4EE7C42E45E1D42E312C45
:1057700000E010E0A8A9B9A98D91B9ABA8AB0E942F
:10578000719A8823B9F10E940F9A2B013C011330C2
:1057900049F0F60120813181428153810F94FE1935
:1057A0002B013C01D7012D913D914D915C91C3019D
:1057B000B2010F94FE194B015C012DEB37E346E873
:1057C00055EB0F94251C87FD0AC02DEB37E346E807
:1057D00055E3C501B4010F94C61518165CF41330D7
:1057E00011F001E002C033243394F701408251826A
:1057F000628273821F5FF4E0EF0EF11C24E0C20EA0
:10580000D11C143009F0B6CF002319F00E948A99F8
:1058100003C031100E9488990E941D720C948E3D25
:105820008091F9159091FA158937910511F40C942E
:10583000DB340CF0DBC08C34910509F476C40CF039
:1058400059C08931910509F4BDC234F584319105FF
:1058500009F467C27CF48131910509F457C22CF434
:10586000029708F4CFC10C948E3D429709F47DC68F
:105870000C948E3D8631910509F49AC20CF494C2C1
:105880008731910509F49AC2489711F00C948E3D26
:105890000F94DD0B0C948E3D8F31910509F439C3C3
:1058A00094F48B31910509F49FC20CF499C28C31A8
:1058B000910509F4D5C24E9711F00C948E3D0F94CA
:1058C0009A0A0C948E3D8A32910509F4C8C32CF4CF
:1058D000809709F4CFC20C948E3D8934910509F468
:1058E00017C48B34910511F00C948E3D0E940BB6B9
:1058F0000C948E3D8A36910509F481C5B4F5843542
:10590000910509F432C6E4F48135910509F40EC617
:105910004CF48D34910511F00C948E3D0E94C2B56B
:105920000C948E3D8235910509F41BC68335910593
:1059300011F00C948E3D81E0809306040C948E3D12
:105940008C35910509F463C634F48535910509F465
:1059500043C60C948E3D8836910509F4EAC3893616
:10596000910509F4DAC40C948E3D8237910509F44F
:10597000D7C6ACF48D36910509F410C534F48B36D6
:10598000910509F440C50C948E3D8E36910509F4BD
:1059900022C48F36910509F431C40C948E3D8637AC
:1059A000910509F417C794F48337910509F4BEC62D
:1059B0008537910511F00C948E3D60E08091F715CC
:1059C0009091F8150E948A9B0C948E3D8737910523
:1059D00009F404C78837910511F00C948E3D81E0DD
:1059E00080936315809362150C948E3D8F3231E065
:1059F000930711F40C944E360CF07BC08D3C91054E
:105A000011F40C94E835ACF58E3B910509F4E2C431
:105A1000ACF48C38910509F462C434F48D379105E7
:105A200009F409C50C948E3D8139910509F4C9C763
:105A30008B39910509F48BC40C948E3D893C9105FA
:105A400011F40C945B354CF4883C910511F00C94E6
:105A50008E3D0E944F710C948E3D8B3C910511F44C
:105A60000C945F358C3C910511F40C947E350C94AC
:105A70008E3D823E910511F40C94F135ECF4833D9A
:105A8000910511F40C94EB354CF48E3C910511F01A
:105A90000C948E3D0E94A0740C948E3D8C3D91051B
:105AA00011F40C94EE358D3D910511F00C948E3D62
:105AB0000E948C6F0C948E3D8C3251E0950711F44E
:105AC0000C94F4354CF48232914011F00C948E3DDC
:105AD0000E94AC6E0C948E3D8D32E1E09E0711F475
