:100000000C947E290C94655C0C943A5C0C940F5C07
:100010000C94E45B0C94B95B0C948E5B0C94635B66
:100020000C94385B0C94AF290C94AF290C94AF2935
:100030000C94AF290C94E75C0C94AF290C94AF2975
:100040000C94AF290C9437BC0C94AF290C94AF29B5
:100050000C94AF290C94AF290C94D4AD0C94CF5EC2
:100060000C94AF290C9487FD0C9421FE0C94AF29BD
:100070000C94AF290C94AF290C94AF290C94AF29A0
:100080000C94AF290C94AF290C94AF290C94AF2990
:100090000C94AF290C94AF290C94AF290C94AF2980
:1000A0000C94AF290C94AF290C94AF290C94AF2970
:1000B0000C94AF290C94AF290C94AF290C94AF2960
:1000C0000C94AF290C94AF290C94AF290C94AF2950
:1000D0000C94AF290C94AF290C94AF290C94AF2940
:1000E0000C94AF294C574F573E57425748578657A5
:1000F000535757575D57615765576B576F5773572E
:10010000865779577D578157AC5DB15DB65DC05D4F
:10011000CA5D435ED45DDC5DE45DEE5DF85D025E6C
:10012000115E1B5E435E255E2F5E395E8686868687
:100130008D868D868D86948694869486A1869B86F0
:100140009B869B86BAFDC0FDD1FDDCFDE4FDF9FD7B
:10015000E8FDF9FDECFDF0FDF9FDF6FD084AD73BA1
:100160003BCE016E84BCBFFDC12F3D6C74319ABD86
:1001700056833DDA3D00C77F11BED9E4BB4C3E91AA
:100180006BAAAABE000000803F05A84CCDB2D44E99
:10019000B93836A9020C50B9918688083CA6AAAA9B
:1001A0002ABE000000803F000D9415040D94361FF8
:1001B0000D94FC0A0D948F0F0D9401010D941F0BEB
:1001C0000D94420E0D944C0E0D94240B0D944E1C68
:1001D0000D94141D0D94381F0D949D290D94220B20
:1001E0000D94D6290D94D40C0D942C1F0D942D1F15
:1001F0000D94D11D0D94FD110D9454024E414E49A4
:100200004E495459494E46CDCCCC3D0AD7233C17D4
:10021000B7D13877CC2B329595E6241FB14F0A0021
:100220000020410000C84200401C4620BCBE4CCA11
:100230001B0E5AAEC59D7400407A10F35A00A0728E
:100240004E18090010A5D4E80000E8764817000011
:10025000E40B54020000CA9A3B000000E1F50500DF
:100260000080969800000040420F000000A0860128
:10027000000000102700000000E8030000000064F8
:1002800000000000000A0000000000010000000063
:10029000002C76D888DC674F0823DFC1DFAE59E138
:1002A000B1B796E5E3E453C63AE651997696E8E6A7
:1002B000C28426EB898C9B62ED407C6FFCEFBC9C7A
:1002C0009F40F2BAA56FA5F490055A2AF75C936B8C
:1002D0006CF9676DC11BFCE0E40D47FEF520E6B547
:1002E00000D0ED902E0300943577050080841E0821
:1002F0000000204E0A000000C80C333333330F983F
:100300006E12831141EF8D2114893BE65516CFFE05
:10031000E6DB18D1844B381BF77C1D901DA4BBE491
:1003200024203284725E228100C9F124ECA1E53DD3
:1003300027434F4D4D554E49434154494F4E00447C
:10034000525952554E004552524F525300494E4653
:100350004F004543484F0047322F473320626164C6
:1003600020706172616D65746572730A00205A3A7B
:10037000200020593A200042656420583A20004E5F
:100380006F206D6F76652E004D3132350046696CF9
:10039000652064656C657465643A0044656C6574D9
:1003A000696F6E206661696C65642C2046696C65B6
:1003B0003A20006F70656E206661696C65642C2060
:1003C00046696C653A20005072696E742074696DDC
:1003D000653A200052034D0346033F0331036F6625
:1003E000660044454255473A006F6B00436F6F6C9F
:1003F000696E6720646F6E652E0048656174696E72
:100400006720646F6E652E0020573A00457874723D
:1004100075646572202573004D696E692032207203
:10042000656164792E0042656420646F6E652E00FC
:1004300020573A004265642068656174696E672ED2
:100440000042656420636F6F6C696E672E005365B0
:100450007474696E672054726176656C20416363C1
:10046000656C65726174696F6E3A200053657474CF
:10047000696E6720526574726163742041636365BD
:100480006C65726174696F6E3A20005365747469AB
:100490006E67205072696E7420416363656C65728B
:1004A0006174696F6E3A200053657474696E6720D9
:1004B0005072696E7420616E642054726176656C4E
:1004C00020416363656C65726174696F6E3A2000E8
:1004D000205A00205900580020204D61783A200011
:1004E000205A00205900580020204D696E3A200003
:1004F0004F6E20004F666600536F667420656E6411
:1005000073746F70733A200050726F6265205A20C6
:100510004F66667365743A200020643A0020693A99
:100520000020703A0020643A0020693A0020703AB6
:100530000043290A0061626C656420286D696E20A1
:1005400074656D702000436F6C64206578747275FB
:100550006465732061726520004B6420002364652C
:1005600066696E65202044454641554C545F004BFA
:1005700069200023646566696E6520204445464114
:10058000554C545F004B70200023646566696E65AE
:10059000202044454641554C545F00504944204179
:1005A00075746F74756E652066696E6973686564CD
:1005B000212050757420746865206C617374204B21
:1005C000702C204B6920616E64204B6420636F6E39
:1005D0007374616E74732066726F6D2062656C6FE8
:1005E0007720696E746F20436F6E666967757261FC
:1005F00074696F6E2E680A00504944204175746F0B
:1006000074756E65206661696C6564212074696D1E
:10061000656F75740A00544845524D414C2052553F
:100620004E4157415900546865726D616C20527596
:100630006E617761790048656174696E67206661F3
:10064000696C65640048656174696E6720666169FC
:100650006C656400504944204175746F74756E6513
:10066000206661696C6564212054656D70657261F6
:100670007475726520746F6F20686967680A00205E
:100680004B643A2000204B693A2000204B703A20FE
:10069000000A20436C617373696320504944200A47
:1006A000002054753A2000204B753A2000206D61DF
:1006B000783A2000206D696E3A200020643A2000CC
:1006C00020626961733A2000426564204C6576655A
:1006D0006C696E6720004661696C656420746F20E8
:1006E000656E61626C6520426564204C6576656C60
:1006F000696E670A00426564204C6576656C20432C
:100700006F7272656374696F6E204D61747269787F
:100710003A004F666673657473206170706C69652A
:1007200064004572723A20546F6F20666172210036
:10073000546F6F206661722066726F6D20726566FD
:100740006572656E636520706F696E740A003A2089
:1007500000207A5F6D696E3A20202D32207A5F6D1D
:1007600061783A2020350A0050726F6265205A2065
:100770004F666673657400416374697665204578D9
:100780007472756465723A2000556E6B6E6F776E89
:1007900020636F6D6D616E643A2022002066736184
:1007A000637469766500206F7400206F7470770041
:1007B000207332676100207332676200206F6C61C2
:1007C00000206F6C62002073740020656E0020743E
:1007D000737465705F6176673A0020637361637458
:1007E0003A00206176675F73673A00207367743A56
:1007F0000020737465616C746800207673656E3ACE
:10080000002F00206968723A002045303A002066C7
:100810007361637469766500206F7400206F747073
:100820007700207332676100207332676200206FA7
:100830006C6100206F6C62002073740020656E0094
:100840002074737465705F6176673A00206373612A
:1008500063743A00206176675F73673A00207367BC
:10086000743A0020737465616C7468002076736557
:100870006E3A002F00206968723A00205A3A002030
:10088000667361637469766500206F7400206F740D
:100890007077002073326761002073326762002036
:1008A0006F6C6100206F6C62002073740020656EB5
:1008B000002074737465705F6176673A002063731B
:1008C0006163743A00206176675F73673A00207352
:1008D00067743A0020737465616C746800207673E5
:1008E000656E3A002F00206968723A0020593A007C
:1008F00020667361637469766500206F7400206FF1
:100900007470770020733267610020733267620071
:10091000206F6C6100206F6C620020737400206592
:100920006E002074737465705F6176673A002063AF
:10093000736163743A00206176675F73673A0020E1
:100940007367743A0020737465616C746800207674
:1009500073656E3A002F00206968723A0020583A99
:1009600000544D4332313330205374617475733AFF
:100970000A007A5F6D61783A20007A5F6D696E3A9D
:100980002000795F6D61783A2000785F6D696E3A7A
:1009900020005265706F7274696E6720656E6473B3
:1009A000746F70207374617475730A001FFFFFFF0A
:1009B000FFFFFF600000000001FF4000000000009A
:1009C000FF8000000000007F83CF00000C303F87D5
:1009D000FF80000C301F867980000C000F8C30C720
:1009E000838C30E78C30CFC7CC31F38C30DCECEC2F
:1009F00033B98C30D86C6C33198C30D06C0C331903
:100A00008C30D86C0C33198C30DC6C0E3B198C306C
:100A1000CF7C079F198C30C77C038F1940000000E2
:100A2000000002600000000000061FFFFFFFFFFF44
:100A3000F82020506C616E6E657242756666657254
:100A400042797465733A20002046726565204D65D1
:100A50006D6F72793A2000436F6D70696C65643A0E
:100A6000204A616E20333020323031380A00207C39
:100A700020417574686F723A2028416C6570682057
:100A80004F626A6563747320496E632E2C204C7527
:100A90006C7A426F7420476974205265706F736975
:100AA000746F7279290A004A616E20333020323027
:100AB000313831353A31323A333200204C61737477
:100AC00020557064617465643A2000312E312E38EF
:100AD0000A004D61726C696E0020536F6674776115
:100AE00072652052657365740A00205761746368EB
:100AF000646F672052657365740A002042726F77D5
:100B00006E206F75742052657365740A00204578F5
:100B10007465726E616C2052657365740A00506F63
:100B200077657255700A0073746172740A00657299
:100B3000726F722077726974696E6720746F2066B5
:100B4000696C650A00456E6473746F707320256369
:100B500020256320256320256300205A3A00205970
:100B60003A0020583A00656E6473746F70732068A1
:100B700069743A2000446F6E6520736176696E6710
:100B80002066696C652E0A004D3239000000200095
:100B90002300260029002C002F0032000001000055
:100BA000030106010901022569730025696D2025ED
:100BB0006973002569682025696D20256973002502
:100BC0006964202569682025696D202569730025E1
:100BD000697920256964202569682025696D2025AB
:100BE0006973004D6F76652059004D6F7665205A08
:100BF000004578747275646572004D6F76652030BB
:100C00002E316D6D004D6F766520316D6D004D6F2D
:100C100076652031306D6D004D6F766520617869A5
:100C200073004578747275646572004D6F76652047
:100C30005A004D6F76652059004D6F76652058003B
:100C40004578747275646572004D6F7665205A0040
:100C50004D6F76652059004D6F76652058004D6FB9
:100C600076656D656E7400436F6F6C646F776E00B0
:100C700046616E2073706565640046616E20737016
:100C80006565640042656400426564004E6F7A7A6F
:100C90006C65004E6F7A7A6C65004D61696E005626
:100CA00054726176206D696E005654726176206DC3
:100CB000696E005654726176206D696E00566D69DA
:100CC0006E00566D696E00566D696E00566D6178E6
:100CD000204500566D6178204500566D61782045AD
:100CE00000566D6178205A00566D6178205A005682
:100CF0006D6178205A00566D6178205900566D61FB
:100D000078205900566D6178205900566D61782021
:100D10005800566D6178205800566D617820580053
:100D20004D6F74696F6E00416D6178204500416DB3
:100D30006178204500416D6178205A00416D6178ED
:100D4000205A00416D6178205900416D6178205929
:100D500000416D6178205800416D61782058004154
:100D60002D74726176656C00412D74726176656CCC
:100D700000412D7265747261637400412D72657457
:100D80007261637400416363656C00416363656C09
:100D9000004D6F74696F6E0048617264636F6465C3
:100DA000642044656661756C742053657474696E63
:100DB0006773204C6F616465640A00282300002873
:100DC000230000C8000000E8030000000096430074
:100DD00000964300009643000020420000C84200F5
:100DE00000C842000048430000D243204500205A7A
:100DF0000020204D393037205800537465707065DD
:100E000072206D6F746F722063757272656E747389
:100E10003A0A0020590020580053656E736F726CB7
:100E200065737320686F6D696E672074687265738F
:100E3000686F6C643A0A002045302000205A200078
:100E4000205920002058200053746570706572206E
:100E50006472697665722063757272656E743A0A9F
:100E60000020204D383531205A005A2D50726F62C3
:100E700065204F666673657420286D6D293A0A00F7
:100E800020440020490020204D33303420500020E1
:100E9000440020490020204D33303120500050497B
:100EA000442073657474696E67733A0A00204600C3
:100EB00020420020480020204D3134352053004D81
:100EC0006174657269616C20686561747570207009
:100ED0006172616D65746572733A0A0020204D3449
:100EE00032302053004175746F20426564204C6598
:100EF00076656C696E673A0A00205A002059002016
:100F0000204D323036205800486F6D65206F666680
:100F10007365743A0A00204500205A0020590020C9
:100F2000580020420020540020204D3230352053FC
:100F300000416476616E6365643A20533C6D696E6E
:100F40005F66656564726174653E20543C6D696ED0
:100F50005F74726176656C5F666565647261746505
:100F60003E20423C6D696E5F7365676D656E745FB0
:100F700074696D655F75733E20583C6D61785F786C
:100F8000795F6A65726B3E205A3C6D61785F7A5F6B
:100F90006A65726B3E20453C6D61785F655F6A658E
:100FA000726B3E0A0020540020520020204D323047
:100FB00034205000416363656C65726174696F6EC3
:100FC0002028756E6974732F7332293A20503C7053
:100FD00072696E745F616363656C3E20523C72653A
:100FE00074726163745F616363656C3E20543C742A
:100FF000726176656C5F616363656C3E0A002045D3
:1010000000205A0020590020204D32303120580055
:101010004D6178696D756D20416363656C657261C2
:1010200074696F6E2028756E6974732F7332293A54
:101030000A00204500205A0020590020204D32305F
:10104000332058004D6178696D756D206665656463
:1010500072617465732028756E6974732F73293AF1
:101060000A00204500205A0020590020204D393226
:1010700020580053746570732070657220756E6916
:10108000743A0A0020204D3230302044300A0020CB
:10109000204D3230302044002044697361626C6519
:1010A000640A0046696C616D656E742073657474C2
:1010B000696E67733A0020204D3134392043203B5C
:1010C00020556E69747320696E2043656C73697571
:1010D000730A002020473231202020203B20556E0B
:1010E00069747320696E206D6D0A0053442063613A
:1010F0007264206F6B0A006F70656E526F6F7420A0
:101100006661696C65640A00766F6C756D652E6941
:101110006E6974206661696C65640A0053442069D5
:101120006E6974206661696C0A006175746F256967
:101130002E67004D3234004D323320257300577234
:101140006974696E6720746F2066696C653A200067
:101150006F70656E206661696C65642C2046696CF1
:10116000653A20006F70656E206661696C65642C5D
:101170002046696C653A200046696C652073656C91
:1011800065637465640A002053697A653A200046F5
:10119000696C65206F70656E65643A20006F7065DC
:1011A0006E206661696C65642C2046696C653A2026
:1011B000002066696C653A2000646F696E6700669E
:1011C00072657368004E6F772000454E442053557A
:1011D00042524F5554494E450A002220706F730009
:1011E0002220706172656E743A2200535542524F4C
:1011F0005554494E452043414C4C207461726765FB
:10120000743A22004B494C4C45442E2000747279AC
:10121000696E6720746F2063616C6C207375622D3A
:1012200067636F64652066696C65732077697468AD
:1012300020746F6F206D616E79206C6576656C73BC
:101240002E204D4158206C6576656C2069733A00FC
:101250004572726F723A004572726F7220777269CE
:1012600074696E6720746F20454550524F4D210AB6
:1012700000290A002062797465733B206372632041
:101280000053657474696E67732053746F7265647C
:101290002028005265776970696E670050726F622E
:1012A000696E67206661696C65640050726F62697F
:1012B0006E67206661696C65640050524F4245203C
:1012C0004641494C20434C45414E204E4F5A5A4CC2
:1012D000450A005265776970696E670A0052657742
:1012E0006970696E670050726F62696E672066612F
:1012F000696C65640050726F62696E67206661692F
:101300006C65640050524F4245204641494C204391
:101310004C45414E204E4F5A5A4C450A0052657773
:101320006970696E670A0050726F62696E67206645
:1013300061696C65640A0050726F62696E6720664D
:1013400061696C656400205A3A200020593A2000F7
:1013500042656420583A200000000A0B02090C0D77
:101360000E08070304010000000000000000000058
:10137000000000000000000000000000000000006D
:10138000000000001211100000000000000000002A
:101390000000000000000000000000000000486F96
:1013A0006D6520257325732573206669727374003B
:1013B0002066697273740A005A0059005800486F19
:1013C0006D65200020746F6F206C6F6E67206578EC
:1013D00074727573696F6E2070726576656E746570
:1013E000640A0020636F6C64206578747275736999
:1013F0006F6E2070726576656E7465640A00536C5A
:101400006565702E2E2E0020706F736974696F6E83
:10141000206F7574206F662072616E67652E0A00FA
:101420003F50726F626520000A0A426564204C6575
:1014300076656C20436F7272656374696F6E204DC0
:1014400061747269783A00202B000A436F727265EA
:101450006374656420426564204865696768742028
:1014600076732E2042656420546F706F6C6F6779BD
:101470003A0A00202B000A426564204865696768C3
:101480007420546F706F6772617068793A0A202017
:10149000202B2D2D2D204241434B202D2D2B0A207A
:1014A00020207C20202020202020202020207C0A9A
:1014B000204C207C20202020282B29202020207C2C
:1014C00020520A2045207C2020202020202020207F
:1014D00020207C20490A2046207C20282D29204ECF
:1014E00020282B29207C20470A2054207C202020E3
:1014F00020202020202020207C20480A2020207C22
:1015000020202020282D29202020207C20540A2043
:1015100020207C20202020202020202020207C0A29
:101520002020204F2D2D2046524F4E54202D2D2B64
:101530000A2028302C30290A004D65616E206F6624
:101540002073616D706C656420706F696E74733A9E
:10155000200020643A200020623A200045716E206D
:10156000636F656666696369656E74733A20613A94
:101570002000202844525952554E29004732392024
:101580004175746F20426564204C6576656C696EA8
:10159000670028422961636B00284629726F6E74C8
:1015A000002852296967687400284C296566740010
:1015B0003F4E756D626572206F662070726F626556
:1015C00020706F696E747320697320696D706C612F
:1015D000757369626C65202832206D696E696D755E
:1015E0006D292E0A003F2856296572626F736520A7
:1015F0006C6576656C20697320696D706C617573BC
:1016000069626C652028302D34292E0A00747275A9
:10161000650066616C73650020617869732074658C
:101620006D70657261747572652070726577617234
:101630006E207472696767657265643A2000207075
:1016400072657761726E20666C616720636C65619C
:101650007265640A0020737465616C746843686F16
:1016600070206D61782073706565642073657420E7
:10167000746F20002064726976657220686F6D69EE
:101680006E672073656E7369746976697479207307
:10169000657420746F2000656E7175657565696E7F
:1016A000672022004D36303020486F74656E64200C
:1016B000746F6F20636F6C6420746F206368616E59
:1016C00067652066696C616D656E740A0043616EC2
:1016D0006E6F74206F70656E20737562646972201E
:1016E000006563686F3A00544845524D414C2052A2
:1016F000554E415741592042454400546865726D2A
:10170000616C2052756E6177617900544845524D85
:10171000414C2052554E41574159204531005448C3
:1017200045524D414C2052554E415741592045306C
:101730000000002200250028002B002E003100347C
:101740000002010000050108010B01000021002436
:101750000027002A002D00300033000101000004A2
:101760000107010A01050505050705080808080223
:101770000202020A0A08080404040401010101012A
:101780000101010303030303030303040707070C19
:101790000C0C0C0C0C0C0C020202020606060606CF
:1017A0000606060B0B0B0B0B0B0B0B01021020207C
:1017B00008081020401020408002010201080402A5
:1017C000010102040810204080804020100804021B
:1017D0000180040201804020100804020108040274
:1017E000010102040810204080010204081020407A
:1017F000806265640A002C2073797374656D2073B0
:10180000746F7070656421204865617465725F490A
:10181000443A200048656174696E67206661696CAE
:101820006564204245440048656174696E672066BE
:1018300061696C65640048656174696E6720666102
:10184000696C65640048656174696E6720666169EA
:101850006C6564204530001000AD0330016A015012
:10186000022B0170030A019004F500B005E500D0D9
:1018700006D800F007CE001009C500300ABE00509F
:101880000BB700700CB100900DAB00B00EA600D0ED
:101890000FA200F0109D0010129900301395005017
:1018A00014920070158E0090168B00B0178700D030
:1018B000188400F0198100101B7E00301C7B005042
:1018C0001D7900701E7600901F7300B0207000D04C
:1018D000216E00F0226B0010246900302566005054
:1018E0002663007027610090285E00B0295C00D05C
:1018F0002A5900F02B5600102D5400302E51005064
:101900002F4E0070304B0090314800B0324500D06F
:10191000334200F0343E0010363B00303737005081
:1019200038330070392E00903A2900B03B2300D0A4
:101930003C1B00F03D1100103F0100F03F0000454E
:1019400072723A204D494E54454D50204245440054
:101950004D494E54454D50207472696767657265F4
:1019600064004572723A204D494E54454D50204511
:1019700031004572723A204D494E54454D50204534
:1019800030004572723A204D415854454D50204226
:101990004544004D415854454D5020747269676765
:1019A00065726564004572723A204D415854454D48
:1019B00050204531004572723A204D415854454DF2
:1019C0005020453000202F002042403A0020403A6D
:1019D000004C696E65204E756D62657220697320DA
:1019E0006E6F74204C617374204C696E65204E7567
:1019F0006D6265722B312C204C617374204C696EC2
:101A0000653A200053544F505045442E20005072E8
:101A1000696E7465722073746F707065642064758C
:101A20006520746F206572726F72732E204669781C
:101A300020746865206572726F7220616E64207513
:101A40007365204D39393920746F20726573746164
:101A500072742E202854656D70657261747572659C
:101A60002069732072657365742E20536574206934
:101A70007420616674657220726573746172746932
:101A80006E67290A004E6F20436865636B73756D3E
:101A90002077697468206C696E65206E756D62656B
:101AA000722C204C617374204C696E653A2000637F
:101AB0006865636B73756D206D69736D61746368C0
:101AC0002C204C617374204C696E653A20004D31B6
:101AD0003130004D3331005344207265616420651C
:101AE00072726F720A00446F6E65207072696E7454
:101AF000696E672066696C650A0020496E76616CC4
:101B0000696420657874727564657220000000C095
:101B1000C0000010C1000000000000224300003C93
:101B2000430000374324F4D43050C38E20C2A24077
:101B300017828B7011127A910D816CD90AA861E11C
:101B400008C7586607615143061E4B5D05C145A78E
:101B5000041A411104093D9803713931034036DB01
:101B60000265339102D4305402802E1D02632CEEA4
:101B700001752AC501B028A001102781018F2564B5
:101B8000012B244B01E0223401AC211F018D200DDB
:101B900001801FFC00841EED00971DDF00B81CD2E1
:101BA00000E61BC600201BBC00641AB200B219A8D4
:101BB000000A19A0006A189900D117910040178BEC
:101BC00000B516840031167E00B31579003A1573FE
:101BD00000C7146F0058146A00EE13660088136380
:101BE0000025135E00C7125B006C125700151254DB
:101BF00000C111510070114F0021114B00D6104946
:101C0000008D1047004610440002104200C00F40F3
:101C100000800F3E00420F3C00060F3B00CB0E3809
:101C200000930E37005C0E3500270E3400F30D32A2
:101C300000C10D3100900D3000600D2E00320D2DD1
:101C400000050D2C00D90C2B00AE0C2900850C29A9
:101C5000005C0C2700350C27000E0C2600E80B2436
:101C600000C40B2400A00B23007D0B23005A0B2182
:101C700000390B2100180B2000F80A1F00D90A1E9A
:101C800000BB0A1E009D0A1D00800A1D00630A1C7D
:101C900000470A1B002C0A1B00110A1A00F7091A38
:101CA00000DD091900C4091900AB091900920917D0
:101CB000007B091800630917004C09160036091645
:101CC00000200916000A091500F5081500E008149F
:101CD00000CC081400B8081400A4081400900813DD
:101CE000007D0812006B0813005808120046081205
:101CF0000034081100230811001208110001081116
:101D000000F0071000E0071000D0071000C0071017
:101D100000B0070F00A107100091070E0083070F06
:101D20000074070F0065070E0057070E0049070EE5
:101D3000003B070D002E070E0020070D0013070DB6
:101D40000006070D00F9060C00ED060D00E0060C7C
:101D500000D4060C00C8060C00BC060C00B0060C33
:101D600000A4060B0099060C008D060B0082060BE2
:101D70000077060B006C060B0061060A0057060B85
:101D8000004C060A0042060A0038060A002E060A1F
:101D90000024060A001A060A001006090007060AAF
:101DA00000FD050900F4050900EB050900E205093D
:101DB00000D9050900D0050900C7050900BE0509BD
:101DC00000B5050800AD050800A50509009C05083B
:101DD00000940508008C050800840508007C0508AF
:101DE00000740508006C050700650508005D05071F
:101DF00000560508004E0507004705070040050886
:101E00000038050700310507002A050700230507EC
:101E1000001C050600160507000F0507000805064B
:101E20000002050700FB040600F5040700EE0406A7
:101E300000E8040600E2040700DB040600D50406FF
:101E400000CF040600C9040600C3040600BD040652
:101E500000B7040600B1040500AC040600A60406A1
:101E600000A00405009B04060095040500900406EC
:101E7000008A04050085040500800406007A040534
:101E80000075040500700405006B04050066040578
:101E900000610405005C04050057040500520405B8
:101EA000004D04050048040500430405003E0404F9
:101EB000003A04050035040500300404002C040534
:101EC0000027040400230405001E0404001A04046F
:101ED0000016040500110404000D040400090405A3
:101EE000000404040000040400FC030400F80304DC
:101EF00000F4030400F0030400EC030400E803040E
:101F000000E4030400E0030400DC030400D803043D
:101F100000D4030400D0030400CC030400C803036E
:101F200000C503030024F404D9201BC40C5C0E98E4
:101F300004C4095F0265077101F405F900FB04B3ED
:101F40000048048700C10369005803550003034596
:101F500000BE023A008402310053022A0029022501
:101F60000004022000E4011C00C8011900AF0117A1
:101F70000098011400840113007101100061011028
:101F80000051010E0043010D0036010B002B010B27
:101F90000020010B00150109000C010900030108D4
:101FA00000FB000800F3000800EB000700E4000657
:101FB00000DE000600D8000600D2000600CC0005B6
:101FC00000C7000500C2000500BD000400B9000400
:101FD00000B5000400B1000400AD000400A9000435
:101FE00000A5000300A20003009F0004009B000363
:101FF0000098000300950002009300030090000386
:10200000008D0002008B00030088000200860002A1
:102010000084000300810002007F0002007D0002B6
:10202000007B0002007900020077000100760002C8
:10203000007400020072000100710002006F0002D3
:10204000006D0001006C0002006A000100690002DE
:1020500000670001006600010065000100640002E5
:10206000006200010061000100600001005F0002E9
:10207000005D0001005C0001005B0001005A0001EE
:1020800000590001005800010057000100560001EE
:1020900000550001005400010053000000530001EE
:1020A000005200010051000100500001004F0001EA
:1020B000004E0000004E0001004D0001004C0001E8
:1020C000004B0000004B0001004A000100490001E4
:1020D00000480000004800010047000100460000E1
:1020E00000460001004500000045000100440001D9
:1020F00000430000004300010042000000420001D4
:10210000004100000041000100400001003F0000CC
:10211000003F0001003E0000003E0001003D0000C5
:10212000003D0001003C0000003C0000003C0001BC
:10213000003B0000003B0001003A0000003A0001B3
:1021400000390000003900010038000000380000AC
:1021500000380001003700000037000100360000A1
:102160000036000000360001003500000035000098
:10217000003500010034000000340000003400018C
:102180000033000000330000003300010032000083
:102190000032000000320001003100000031000078
:1021A000003100010030000000300000003000016C
:1021B000002F0000002F0000002F0000002F000162
:1021C000002E0000002E0000002E0001002D000057
:1021D000002D0000002D0000002D0001002C00004B
:1021E000002C0000002C0000002C0001002B00003F
:1021F000002B0000002B0000002B0001002A000033
:10220000002A0000002A0000002A00010029000026
:102210000029000000290000002900000029000119
:10222000002800000028000000280000002800000E
:102230000028000100270000002700000027000000
:1022400000270000002700010026000000260000F3
:1022500000260000002600000026000100250000E6
:1022600000250000002500000025000000250000DA
:1022700000250001002400000024000000240000CC
:1022800000240000002400010023000000230000BF
:1022900000230000002300000023000000230000B2
:1022A00000230001002200000022000000220000A4
:1022B0000022000000220000002200010021000096
:1022C000002100000021000000210000002100008A
:1022D000002100000021000100200000002000007B
:1022E000002000000020000000200000002000006E
:1022F0000020000000200001001F0000001F00005F
:10230000001F0000001F0000001F0000001F000051
:10231000001F0001001E0000001E0000001E000043
:10232000001E0000004D383420582059205A204506
:10233000000000C0C000003C4300003743000048DC
:102340004200004842000020420000000057617235
:102350006E696E673A20486F6D696E672042756DD1
:10236000702044697669736F72203C20310A000244
:102370000204000000000000000000000040000017
:1023800028430000454300003743FF01017C3C3EE9
:102390005E2B3D3F2F5B5D3B2C2A225C0052657318
:1023A000656E643A20002042002050006F6B004BA5
:1023B000494C4C45442E20004B494C4C20636175E0
:1023C000736564206279204B494C4C2062757474AB
:1023D0006F6E2F70696E0A004B494C4C45442E209D
:1023E000004B494C4C206361757365642062792011
:1023F000746F6F206D75636820696E6163746976B0
:10240000652074696D65202D2063757272656E7428
:1024100020636F6D6D616E643A2000506C6561736E
:1024200065207265736574005052494E54455220C0
:1024300048414C544544005072696E74657220687E
:10244000616C7465642E206B696C6C282920636153
:102450006C6C6564210A002061786973206472697C
:102460007665722063757272656E743A20000000A2
:10247000000000000000000000000000000000005C
:10248000000000000000FE7FFE7F00000000000052
:10249000007E004000400040F87E8440844084403C
:1024A000F8408800840084008200000000000000E2
:1024B0000000F00FF81FF81FF81FF00FF00FF81FC3
:1024C000F81FF81FE007C0038001000000000000B3
:1024D000FE7F0E702664724E7A5E324C8241324C20
:1024E0007A5E724E26640E70FE7F000000000000CF
:1024F000FE7F0E70C663C24382411A58BA5D1A58F5
:102500008241C243C6630E70FE7F000000000000DF
:102510000000880888081011202220221011880845
:1025200088081011000000000000000000000000FA
:102530000000202210118808880810112022202273
:1025400010118808000000000000000000004D3657
:102550003030204230005072696E742070617573A3
:102560006564004D31323500004D323400507269DF
:102570006E742061626F72746564004E6F20534404
:102580002063617264005072696E742066726F6DB0
:102590002053440053746F70207072696E7400523F
:1025A0006573756D65207072696E74005061757326
:1025B00065207072696E740041626F75742046699F
:1025C000726D77617265004368616E676520666948
:1025D0006C616D656E7400436F6E666967757261DC
:1025E00074696F6E0054656D7065726174757265A3
:1025F000004D6F76656D656E740054756E650049AB
:102600006E666F2073637265656E0020746F6F2055
:102610006C6F6E6720657874727573696F6E207069
:10262000726576656E7465640A0020636F6C642061
:10263000657874727573696F6E2070726576656EF9
:102640007465640A0000060900FE06018902FE2086
:10265000FFFE07FE06FE0000000600070106060654
:102660000200808080800080030303060103A0A095
:10267000A00507070600FF5050F850F85050050914
:10268000090600FE2070A8A07028A870200608087F
:102690000600FF40A8481020485408050707060018
:1026A000FF609090609890680103030602038080A9
:1026B000800207070602FF4080808080804002077A
:1026C000070602FF804040404040800505050600A7
:1026D000008850F850880505050600002020F820E5
:1026E000200204040602FEC04040800501010600ED
:1026F00002F8020202060200C0C00406060601003B
:102700001010204080800406060601006090909022
:10271000906003060606010040C0404040E0040609
:10272000060601006090102040F004060606010035
:10273000F020601010E005060606000010305090F2
:10274000F810040606060100F080E01010E0040610
:10275000060601006080E090906004060606010015
:10276000F0101020404004060606010060906090C2
:1027700090600406060601006090907010600205EB
:1027800005060200C0C000C0C00207070602FEC066
:10279000C000C0404080050505060000186080604C
:1027A00018050303060001F800F8050505060000FA
:1027B000C0300830C0040707060100609010604078
:1027C00000400506060600007090A8B0807005065F
:1027D00006060000205088F88888050606060000D6
:1027E000F088F08888F0040606060100609080807A
:1027F0009060040606060100E090909090E00406C8
:1028000006060100F080E08080F004060606010064
:10281000F080E0808080040606060100609080B0B1
:1028200090600406060601009090F09090900306D8
:1028300006060100E040404040E0050606060000B4
:1028400038101010906004060606010090A0C0A089
:1028500090900406060601008080808080F00506C6
:102860000606000088D8A8A8888804060606010085
:1028700090D0B09090900506060600007088888879
:102880008870040606060100E09090E0808004074E
:10289000070601FF609090D0B060100406060601A4
:1028A00000E09090E09090040606060100609040E1
:1028B000209060050606060000F820202020200455
:1028C00006060601009090909090600406060601AE
:1028D00000909090F060600506060600008888A8C9
:1028E000A8D88805060606000088502020508805D4
:1028F00006060600008888502020200406060601EF
:1029000000F010204080F0030606060100E0808001
:102910008080E0040606060100808040201010033D
:102920000606060100E020202020E0050303060043
:10293000032050880501010600FEF802020206028B
:1029400004804004040406010070909070040606A0
:102950000601008080E09090E0040404060100700D
:1029600080807004060606010010107090907004BC
:10297000040406010060B0C07004060606010020D1
:102980005040E040400406060601FE609090701042
:10299000600406060601008080E090909003060621
:1029A0000601004000C04040E00308080601FE2088
:1029B0000060202020A0400406060601008080A0C0
:1029C000C0A090030606060100C040404040E0055C
:1029D0000404060000D0A8A888040404060100E04E
:1029E0009090900404040601006090906004060634
:1029F0000601FEE09090E080800406060601FE706D
:102A00009090701010040404060100A0D08080048F
:102A1000040406010070C030E00406060601004010
:102A200040E040502004040406010090909070049F
:102A3000040406010090906060050404060000880C
:102A4000A8A85004040406010090606090040606E3
:102A50000601FE909090709060040404060100F05E
:102A60002040F0030707060100204040804040203E
:102A70000107070602FF80808080808080030707AF
:102A8000060100804040204040800402020601030D
:102A900050A0FFFFFFFFFFFFFFFFFFFFFFFFFFFF54
:102AA000FFFFFFFFFFFFFFFFFFFFFFFFFFFFFFFF36
:102AB000FFFFFF0000000600070106060602008077
:102AC00000808080800406060601FF2070A0A070B0
:102AD000200507070600FF304840F04040F8050594
:102AE00005060000A8508850A805060606000088C4
:102AF00050F820F8200107070602FF808080008040
:102B000080800407070601FF708060906010E0037A
:102B10000101060105A0060707060000788494A4B9
:102B200094847803050506010160A06000E00505B6
:102B3000050600002850A05028040303060100F0F9
:102B40001010040101060102F006070706000078D4
:102B500084B4A4A48478040101060105F0040303ED
:102B60000601026090600507070600FF2020F8209C
:102B70002000F803050506010140A02040E0030500
:102B800005060101C0204020C002020206020440E6
:102B9000800405050601FF9090B0D080050606066A
:102BA000000078E8E8682828010101060202800296
:102BB00002020602FE408003050506010140C040F6
:102BC00040E003050506010140A04000E0050505C1
:102BD000060000A0502850A00508080600FF40C0CD
:102BE0004050703078100508080600FF40C0405083
:102BF000680810380508080600FFC0204030F03093
:102C0000781004070706010020002060809060050E
:102C10000707060000402020507088880507070637
:102C2000000010202050708888050707060000204B
:102C30005020507088880507070600002850205053
:102C400070888805070706000050002050708888AB
:102C500005070706000020502050708888050606EA
:102C600006000078A0F0A0A0B80408080601FE60E5
:102C7000908080906020400407070601004020F00B
:102C800080E080F00407070601002040F080E0802B
:102C9000F00407070601002050F080E080F00407F0
:102CA000070601005000F080E080F00307070601EE
:102CB000008040E0404040E003070706010020405C
:102CC000E0404040E003070706010040A0E040402C
:102CD00040E0030707060100A000E0404040E00597
:102CE00006060600007048E8484870040707060119
:102CF0000050A090D0B0909004070706010040203B
:102D0000609090906004070706010020406090905A
:102D100090600407070601002050609090906004C6
:102D2000070706010050A060909090600407070616
:102D30000100500060909090600505050600008835
:102D4000502050880408080601FF1070B0B0D0D0A1
:102D5000E0800407070601004020909090906004F6
:102D60000707060100204090909090600407070636
:102D700001002050909090906004070706010050D9
:102D80000090909090600507070600001020885082
:102D900020202004060606010080E09090E08004D8
:102DA00006060601006090A0A090A0040707060197
:102DB000004020007090907004070706010020403A
:102DC000007090907004070706010020500070907A
:102DD000907004070706010050A0007090907004E6
:102DE0000606060100500070909070040707060167
:102DF000002050207090907005040406000070A818
:102E0000B0780406060601FE70808070204004073A
:102E10000706010040200060B0C0700407070601EB
:102E20000020400060B0C070040707060100205079
:102E30000060B0C070040606060100500060B0C01B
:102E400070030707060100804000C04040E0030710
:102E500007060100204000C04040E00307070601CC
:102E60000040A000C04040E0030606060100A000AC
:102E7000C04040E0040707060100306010709090E9
:102E80006004070706010050A000E090909004073E
:102E900007060100402000609090600407070601CB
:102EA0000020400060909060040707060100205059
:102EB000006090906004070706010050A000609039
:102EC00090600406060601005000609090600505C1
:102ED000050600002000F80020040404060100702C
:102EE000B0D0E004070706010040200090909070E9
:102EF0000407070601002040009090907004070727
:102F00000601002050009090907004060606010013
:102F10005000909090700409090601FE2040009036
:102F200090907090600408080601FE8080E0909008
:102F3000E080800408080601FE5000909090709098
:102F40006000060900FE0701920321207FFF07FFB2
:102F500007FF00000006000001070706020080804E
:102F60008080800080030202060105A0A0050707FB
:102F70000600005050F850F85050050707060000B2
:102F80002078A07028F020050707060000C0C810B0
:102F9000204098180507070600006090A040A89000
:102FA00068020303060104C040800307070601000E
:102FB00020408080804020030707060100804020D9
:102FC0002020408005050506000120A870A82005E6
:102FD00005050600012020F820200203030602FF59
:102FE000C04080050101060003F80202020602004B
:102FF000C0C0050505060001081020408005070730
:10300000060000708888888888700307070601001A
:1030100040C040404040E0050707060000708808B7
:10302000708080F8050707060000F81020100808D7
:10303000F005070706000010305090F81010050743
:1030400007060000F880F0080888700507070600EA
:1030500000708080F0888870050707060000F80877
:10306000102020202005070706000070888870883F
:1030700088700507070600007088887808087002C5
:103080000505060200C0C000C0C00206060602FF19
:10309000C0C000C040800407070600001020408028
:1030A000402010050303060002F800F80407070695
:1030B00001008040201020408005070706000070B6
:1030C000880810200020050707060000708808689F
:1030D000A8A870050707060000708888F888888807
:1030E000050707060000F08888F08888F0050707C4
:1030F0000600007088808080887005070706000041
:10310000F08888888888F0050707060000F8808026
:10311000F08080F8050707060000F88080F08080C6
:1031200080050707060000708880B888887005074A
:1031300007060000888888F8888888010707060243
:10314000008080808080808005070706000038109E
:1031500010101090600507070600008890A0C0A01E
:103160009088050707060000808080808080F80531
:10317000070706000088D8A88888888805070706FA
:1031800000008888C8A8988888050707060000708E
:10319000888888888870050707060000F08888F00E
:1031A00080808005070706000070888888A89068DE
:1031B000050707060000F08888F0A090880507073B
:1031C000060000788080700808F0050707060000F8
:1031D000F820202020202005070706000088888886
:1031E00088888870050707060000888888888850C6
:1031F000200507070600008888888888A8500507EA
:1032000007060000888850205088880507070600B8
:103210000088888850202020050707060000F8084D
:1032200010204080F8030707060100E080808080BE
:1032300080E005050506000180402010080307070F
:10324000060100E02020202020E005030306000402
:10325000205088050101060000F80202020602055E
:103260008040050505060000700878887805070786
:103270000600008080B0C88888F0050505060000BB
:103280007080808870050707060000080868988825
:1032900088780505050600007088F8807005070726
:1032A0000600003048E0404040400506060600FFAA
:1032B0007088887808700507070600008080B0C80D
:1032C000888888010707060200800080808080804F
:1032D0000308080601FF200020202020A04004074A
:1032E00007060000808090A0C0A090030707060199
:1032F00000C04040404040E0050505060000D0A861
:10330000A8A8A8050505060000B0C8888888050596
:103310000506000070888888700506060600FFF024
:103320008888F080800506060600FF78888878087F
:1033300008050505060000B0C88080800505050663
:10334000000070807008F00407070600004040E0AD
:1033500040404030050505060000888888986805CB
:103360000505060000888888502005050506000030
:103370008888A8A8500505050600008850205088B8
:103380000506060600FF888888780870050505068A
:103390000000F8102040F803070706010020404015
:1033A00080404020010707060200808080808080E6
:1033B000800307070601008040402040408005024E
:1033C00002060002689000000006000000060900E6
:1033D000FE000000000001090008FE0000050808CA
:1033E00006000040F0C88888987810050808060094
:1033F00000C0F88888888888F8050505060001203F
:1034000030F830200508080600002070F820202041
:1034100020E00509090600FF2070A8A8B888887078
:10342000200509090600FFE080C0B0A82830282840
:103430000509090600FFF8A88888888888A8F80583
:103440000A0A0600FE205050505088A8A888700331
:10345000030306000340A04001050800FF06012108
:10346000023520FFFF07FF06FF0900502216568095
:103470008080800080153353A0A0A0025757505081
:10348000F850F850500257572070A0702870201341
:10349000355580A040A02002475740A0A040A0A0E2
:1034A00050251353808080122656408080808040B3
:1034B0001226568040404040800245559060F060A2
:1034C000900255552020F82020113353604080048D
:1034D0004151F011335340E0400246561010204055
:1034E000808012365640A0A0A0A04012365640C0A0
:1034F000404040E00246566090106080F002465620
:10350000F020601090600246562060A0F02020025B
:103510004656F080E01090600246566080E0909041
:1035200060024656F01020204040024656609060EF
:10353000909060024656609090701060122555C0C1
:10354000C000C0C011365660600060408012365620
:10355000204080804020034353F000F01236568014
:10356000402020408012365640A0204000400158A4
:1035700058304898A8A8904030024656609090F085
:103580009090024656E090E09090E002465660909F
:1035900080809060024656E090909090E0024656FF
:1035A000F080E08080F0024656F080E0808080026B
:1035B0004656609080B090600246569090F0909091
:1035C00090123656E040404040E0024656702020BF
:1035D00020A04002465690A0C0A0A090024656806F
:1035E00080808080F002465690F0F09090900246E5
:1035F0005690D0F0B0B09002465660909090906097
:10360000024656E09090E08080014757609090D04D
:10361000B06010024656E09090E0909002465660EE
:103620009040209060123656E040404040400246B4
:103630005690909090906002465690909090606066
:10364000024656909090F0F090024656909060603E
:103650009090025656888850202020024656F0103E
:10366000204080F0123656E080808080E00246568E
:10367000808040201010123656E020202020E016D6
:10368000325240A0014151F016225280400244546F
:10369000709090700246568080E09090E012345412
:1036A0006080806002465610107090907002445402
:1036B00060B0C060024656205040E0404001455591
:1036C00060907010600246568080E09090901236B4
:1036D000564000C04040E01137572000202020A075
:1036E00040024656808090E09090123656C040408E
:1036F0004040E0025454D0A8A8A8024454E090905E
:103700009002445460909060014555E090E08080C4
:103710000145557090701010024454A0D080801262
:10372000345460C020C00246564040E04050200261
:10373000445490909070123454A0A0A0400254546D
:1037400088A8A8500244549060609001455590901C
:10375000709060024454F02040F0024757304020FF
:10376000C0204030221656808080808080024757DB
:10377000C02040304020C006425250A0FFFFFFFF53
:10378000FFFFFFFFFFFFFFFFFFFFFFFFFFFFFFFF49
:10379000FFFFFFFFFFFFFFFFFFFFFFFFFF090050DD
:1037A0002216568000808080800146562070A0A09E
:1037B00070200246562050E04050A00255558870B7
:1037C0005070880256568850F820F82022175780EB
:1037D0008080008080800247577080E0907010E009
:1037E000173151A002565670A8C8C8A87014355594
:1037F00060A06000E003435350A050123353E02018
:1038000020143151E002565670E8D8E8D8701731CC
:1038100051E015335340A04012355540E04000E0E0
:1038200014355540A02040E0143555C020C020C0BC
:103830001622524080014555909090E080025656E5
:1038400078E8E86828282411518011225240801419
:10385000355540C04040E014355540A04000E003DD
:103860004353A050A0024757808080A060F0200200
:1038700047578080A0D0102070024757804080605A
:10388000A0F02012365640004080A040024757402A
:10389000206090F0909002475720406090F0909008
:1038A00002475760906090F0909002475750A06098
:1038B00090F0909002475790006090F090900247EF
:1038C0005760906090F0909002465670A0A0F0A0D3
:1038D000B001475760908080906040024757402079
:1038E000F080E080F00247572040F080E080F00256
:1038F00047576090F080E080F00247579000F080DA
:10390000E080F01237578040E0404040E0123757E7
:103910002040E0404040E012375740A0E0404040A7
:10392000E0123757A000E0404040E0025656704891
:10393000E848487002475750A090D0B09090024796
:1039400057402060909090600247572040609090D0
:103950009060024757609060909090600247575087
:10396000A0609090906002475790006090909060A7
:10397000123353A040A002465670B0B0D0D0E0023F
:103980004757402090909090600247572040909079
:1039900090906002475760909090909060024757D7
:1039A00090009090909060025757102088502020EF
:1039B0002002465680E09090E0800246566090A03B
:1039C000A090A00247574020007090907002475787
:1039D00020400070909070024757205000709090E7
:1039E0007002475750A000709090700246565000E9
:1039F0007090907002475760906070909070025481
:103A000054F068B0781135556080806040024757A7
:103A100040200060B0C06002475720400060B0C046
:103A20006002475760900060B0C060024656500088
:103A300060B0C060123757804000C04040E012378D
:103A400057204000C04040E012375740A000C0401F
:103A500040E0123656A000C04040E0024757A04068
:103A6000A01070906002475750A000E09090900224
:103A70004757402000609090600247572040006008
:103A800090906002475760900060909060024757A6
:103A900050A0006090906002465690006090906048
:103AA0001235554000E0004002445470B0D0E002AE
:103AB0004757402000909090700247572040009058
:103AC0009090700247576090009090907002465618
:103AD0009000909090700148582040009090709015
:103AE000600147578080E090E08080014757900058
:103AF000909070906001050700FE0500FB01F22028
:103B0000FFFE05FE05FE02004002152580808000B4
:103B100080053242A0A002556550F850F850014689
:103B2000562070C030E020025565901020404802B9
:103B300055656080689068051222808002253540B6
:103B4000808080400225358040404080043343A07F
:103B500040A003334340E040012232408004314121
:103B6000E002112180025565081020408002455571
:103B70006090909060022535C0404040400245551D
:103B8000E0106080F0024555E0106010E0024555FD
:103B90002060A0F020024555F080E010E00245557D
:103BA0006080E09060024555F0102040400245558D
:103BB0006090609060024555609070106003132320
:103BC00080008002142480008080023545204080DF
:103BD0004020033343E000E0023545804020408030
:103BE000024555E0106000400255657088B8A87025
:103BF000024555609090F090024555E090E090E0CD
:103C00000235456080808060024555E0909090E0EC
:103C1000023545E080E080E0023545E080E08080CC
:103C20000245557080B090700245559090F090908C
:103C3000023545E0404040E00245553010109060AC
:103C400002455590A0C0A09002354580808080E05C
:103C500002556588D8A8888802455590D0B09090C4
:103C60000245556090909060024555E09090E0804C
:103C7000014656609090906010024555E09090E0AB
:103C80009002455570806010E0023545E0404040AC
:103C90004002455590909090600245559090A0A0AC
:103CA0004002556588A8A8A850024555909060909C
:103CB000900245559090701060023545E02040809C
:103CC000E0022535C0808080C0025565804020100C
:103CD00008022535C0404040C005324240A00241A4
:103CE00051F0052232804002445470909070024599
:103CF0005580E09090E00234446080806002455539
:103D0000107090907002445460B0C060023545203D
:103D100040E040400046567090907010600245555B
:103D200080E09090900215258000808080002737E9
:103D3000400040404040800245558090A0E0900205
:103D400015258080808080025464F0A8A8A80244D1
:103D500054E090909002445460909060004656E089
:103D60009090E08080004656709090701010023461
:103D700044A0C0808002445470C030E00235454009
:103D8000E04040200244549090907002445490903F
:103D9000A040025464A8A85050023444A04040A05F
:103DA000004656909090701060024454F02040F00D
:103DB000023545604080406002152580808080800B
:103DC000023545C0402040C005425250A0FFFFFFD1
:103DD000FFFFFFFFFFFFFFFFFFFFFFFFFFFFFFFFF3
:103DE000FFFFFFFFFFFFFFFFFFFFFFFFFFFF0200DF
:103DF00040FFFFFFFFFFFFFFFFFFFFFFFFFFFFFF92
:103E0000FFFFFFFFFFFFFFFFFFFFFFFFFFFFFFFFC2
:103E1000FFFFFFFFFFFFFFFFFFFFFFFFFFFFFFFFB2
:103E2000FFFFFFFFFFFFFFFFFFFFFFFFFFFFFFFFA2
:103E3000FFFFFFFFFFFFFFFFFFFFFFFFFFFFFFFF92
:103E4000FFFFFFFFFFFFFFFFFFFFFFFFFFFFFFFF82
:103E500001060D00FE09016602D620FFFE0BFE0AD8
:103E6000FE0D006022196980808080808080008043
:103E7000183363A0A0A00357675050F850F8505073
:103E80000259692078A0A0702828F02002596948BA
:103E9000A85010204050A89002586840A0A040A010
:103EA000989068281363808080113B6B204040808D
:103EB00080808080404020113B6B8040402020204B
:103EC000202040408006556520A870A82004556534
:103ED0002020F82020113363604080065161F811E2
:103EE000336340E0400259690808101020404080C8
:103EF0008002596920508888888888502002596932
:103F00002060A02020202020F802596970888808AD
:103F100010204080F8025969F808102070080888BD
:103F200070025969101030505090F8101002596901
:103F3000F88080B0C808088870025969708880804D
:103F4000F088888870025969F808101020204040D5
:103F50004002596970888888708888887002596919
:103F600070888888780808887011386840E04000B8
:103F70000040E04011386840E040000060408002AE
:103F80005969081020408040201008045464F8004B
:103F900000F8025969804020100810204080025922
:103FA000697088880810202000200259697088886C
:103FB00098A8A8B080780259692050888888F88825
:103FC0008888025969F048484870484848F00259C2
:103FD00069708880808080808870025969F04848C4
:103FE0004848484848F0025969F8808080F080804D
:103FF00080F8025969F8808080F0808080800259C2
:10400000697088808080988888700259698888885B
:1040100088F888888888123969E0404040404040EC
:1040200040E00259693810101010101090600259C9
:1040300069888890A0C0A090888802596980808093
:104040008080808080F80259698888D8A8A88888EC
:10405000888802596988C8C8A8A898988888025989
:1040600069708888888888888870025969F088888B
:1040700088F080808080015A6A7088888888888863
:10408000A87008025969F0888888F0A09088880292
:104090005969708880807008088870025969F82012
:1040A000202020202020200259698888888888883C
:1040B000888870025969888888885050502020026A
:1040C000596988888888A8A8A8A85002596988884A
:1040D00050502050508888025969888850502020BC
:1040E000202020025969F808101020404080F81163
:1040F0003B6BE0808080808080808080E002596916
:10410000808040402010100808113B6BE0202020E8
:10411000202020202020E008536320508801516196
:10412000F82A2262804002566670087888986802F1
:104130005969808080F088888888F0025666708887
:10414000808088700259690808087888888888788B
:104150000256667088F8808870025969304840407D
:10416000F04040404000586870888888780888701F
:10417000025969808080B0C8888888881238684071
:1041800000C040404040E0004A6A1000301010106B
:104190001090906002596980808090A0C0A09088A3
:1041A000123969C040404040404040E0025666D06D
:1041B000A8A8A8A888025666B0C888888888025629
:1041C00066708888888870005868F0888888F080D1
:1041D00080800058687888888878080808025666C1
:1041E000B0C8808080800256667088601088700237
:1041F00058684040F0404040483002566688888801
:1042000088986802566688888850502002566688CA
:1042100088A8A8A8500256668850202050880058C8
:10422000688888889868088870025666F810204068
:1042300080F8015B6B1820202020C020202020184F
:10424000221969808080808080808080015B6BC0C3
:10425000202020201820202020C008536348A89048
:10426000FFFFFFFFFFFFFFFFFFFFFFFFFFFFFFFF5E
:10427000FFFFFFFFFFFFFFFFFFFFFFFFFFFFFFFF4E
:10428000FF0D00602219698000808080808080801E
:104290000358682070A8A0A0A8702002596930486F
:1042A0004040E0404048B0035666887050507088E7
:1042B00002596988885050F820F820202219698016
:1042C0008080800080808080124A6A609080609048
:1042D00090601090601A3262A0A00359697088A89B
:1042E000D8C8D8A88870045767700878887800F80C
:1042F0000356662850A0A05028045363F8080816F7
:104300003161E00359697088E8D8D8E8D888700A24
:104310005161F8174464609090600357672020F85B
:10432000202000F807356540A02040E007356540B3
:10433000A04020C02A22624080005868888888886F
:1043400098E8808002596978E8E8E8E86828282831
:10435000262161C0202262408007356540C0404070
:10436000E0045767708888887000F8035666A0508C
:10437000282850A0025A6A40C04040E00818283857
:1043800008025A6A40C04040E01028081038025A1B
:104390006A40A04020A04818283808025969200027
:1043A00020204080888870025A6A4020002050886F
:1043B00088F88888025A6A10200020508888F88877
:1043C00088025A6A30480020508888F88888025A43
:1043D0006A28500020508888F88888025A6A50500D
:1043E0000020508888F88888025A6A20502020507F
:1043F0008888F8888802596958A0A0A0B0E0A0A0D9
:10440000B8005B6B7088808080808088702040025C
:104410005A6A402000F88080F08080F8025A6A10C2
:104420002000F88080F08080F8025A6A304800F856
:104430008080F08080F8025A6A505000F88080F046
:104440008080F8123A6A804000E04040404040E0FE
:10445000123A6A204000E04040404040E0124A6A80
:10446000609000E04040404040E0123A6AA0A00066
:10447000E04040404040E0025969F0484848E84880
:104480004848F0025A6A2850008888C8A898888846
:10449000025A6A40200070888888888870025A6AA8
:1044A00010200070888888888870025A6A30480016
:1044B00070888888888870025A6A285000708888B6
:1044C00088888870025A6A50500070888888888866
:1044D000700355658850205088015B6B0870989870
:1044E000A8A8A8C8C87080025A6A40200088888896
:1044F00088888870025A6A1020008888888888888E
:1045000070025A6A30480088888888888870025A01
:104510006A50500088888888888870025A6A1020FB
:10452000008888502020202002596980F0888888DF
:10453000F0808080025969609090A0A0908888B037
:1045400002596940200070087888986802596910FB
:10455000200070087888986802596930480070080F
:104560007888986802596928500070087888986897
:10457000025969505000700878889868025A6A3069
:10458000483000700878889868025666702870A0D5
:10459000A85000586870888080887020400259694F
:1045A0004020007088F880887002596910200070DF
:1045B00088F88088700259693048007088F88088CF
:1045C000700259695050007088F8808870123969FB
:1045D000804000C040404040E0123969204000C0A7
:1045E00040404040E0124969609000C04040404077
:1045F000E0123969A0A000C040404040E0025A6A81
:10460000502060107088888888700259692850008E
:10461000B0C88888888802596940200070888888D6
:104620008870025969102000708888888870025943
:10463000693048007088888888700259692850005D
:1046400070888888887002596950500070888888FE
:104650008870035767202000F80020200158680860
:104660007098A8A8C870800259694020008888887E
:10467000889868025969102000888888889868029C
:10468000596930480088888888986802596950506C
:1046900000888888889868005B6B1020008888886C
:1046A0009868088870005A6A8080B0C88888C8B046
:1046B0008080005B6B5050008888889868088870FC
:1046C00000000000000000000000000000000000EA
:1046D00000000000000000000000000000000000DA
:1046E0000000000C000000000000000C00000000B2
:1046F0000000001200000000000000230000000085
:1047000000000021000000000000004C80000000BC
:104710000000005E800000000000009240000000E9
:10472000000000A140000000000001212000000066
:104730000000027F90000000000002001000000056
:10474000000007FFF800000000000400080000005F
:10475000000008000400000000000800060000003F
:1047600000001000020000000000301E01000000E8
:104770000000207F81000000000041FFE080000079
:10478000000043FCF08000000000873B7840000000
:1047900000018EDBFC60000000010FEBCC2000006C
:1047A00000021FEDB610000000021FDEB610000070
:1047B000000439CD7F080000000436E0FF08000047
:1047C00000087EC0BB84000000187F005D860000EA
:1047D00000107FC0ED82000000203CC0730100008B
:1047E00000203B337F01000000701BE77E03800048
:1047F00000C81DEEDE04C00000880FDEDC044000AF
:1048000001240FDF3C092000012607DBF8192000F6
:10481000027203E7F0139000025101FFE0229000C2
:104820000489007F802448000904801E0048240079
:104830000BFE400000DFF40010004000008002008A
:104840001FFFFFFFFFFFFE00000000000000000050
:104850000000000000000000000000000000000058
:104860001022103C3C0E1F001022100422110400E4
:104870001022100822110400102210083C1104001C
:104880001022101022110400102210202211040006
:104890001E1C1E3C3C0E0400000000000000000036
:1048A0000000000000000000000000000000000008
:1048B00000000000000000000000000000000000F8
:1048C00000000000000000000000000000000000E8
:1048D00000000000000000000000000000000000D8
:1048E00000000000000000000000000000000000C8
:1048F0000000000000000000000000000000253162
:1049000064002532640025336400253464002535B5
:1049100064002536640020202020001A002020207A
:1049200020001A0020253032643A253032640025F8
:104930003033643A253032640025202000252000E1
:1049400020204E6F7A7A6C653A2000200042616325
:104950006B004D696E696D756D2054656D702069D1
:1049600073203132302E0048656174696E672066AD
:1049700061696C65640045787472756465206D6F5B
:10498000726500526573756D65207072696E740092
:10499000524553554D45204F5054494F4E533A00C0
:1049A00020204E6F7A7A6C653A20006368616E67EA
:1049B00065006F66207468652066696C616D656E60
:1049C00074005761697420666F7220737461727429
:1049D000005052494E542050415553454400202028
:1049E0004E6F7A7A6C653A2000200066696C616DC2
:1049F000656E7420756E6C6F616400576169742018
:104A0000666F72005052494E5420504155534544F0
:104A10000020204E6F7A7A6C653A20002000506C9E
:104A20006561736520776169742E2E2E004865617B
:104A300074696E67206E6F7A7A6C65005052494EC9
:104A400054205041555345440020204E6F7A7A6CD3
:104A5000653A2000200068656174206E6F7A7A6C78
:104A6000652E00507265737320627574746F6E20CA
:104A7000746F005052494E542050415553454400E4
:104A800020204E6F7A7A6C653A2000746F20636F35
:104A90006E74696E75652E2E2E00616E64207072C4
:104AA00065737320627574746F6E00496E736572FE
:104AB000742066696C616D656E74005052494E5485
:104AC000205041555345440020204E6F7A7A6C6542
:104AD0003A2000200066696C616D656E74206C6F11
:104AE0006164005761697420666F72005052494ECC
:104AF00054205041555345440020204E6F7A7A6C23
:104B0000653A2000200066696C616D656E742065F1
:104B1000787472756465005761697420666F7200FD
:104B20005052494E542050415553454400746F2013
:104B3000726573756D65005761697420666F7220C8
:104B40007072696E74005052494E54205041555352
:104B50004544001000C90210012C014001220170DF
:104B6000011801B0010E01F00104015002FA00B079
:104B700002F0003003E600D003DC009004D20070A5
:104B800005C800A006BE000008B400B009AA00D005
:104B90000BA000600E960060118C000015820020B2
:104BA000197800C01D6E00A0226400B0275A009042
:104BB0002C500000314600E0343C001038320090A8
:104BC0003A2800603C1E00A03D1400803E0A0020F0
:104BD0003F00004B494C4C45442E200056652D6A41
:104BE00065726B0056652D6A65726B0056652D6A9D
:104BF00065726B00567A2D6A65726B00567A2D6A63
:104C000065726B0056792D6A65726B0056792D6A54
:104C100065726B0056792D6A65726B0056782D6A45
:104C200065726B0056782D6A65726B0056782D6A36
:104C300065726B004D6F74696F6E004573746570BB
:104C4000732F6D6D004573746570732F6D6D005A11
:104C500073746570732F6D6D005A73746570732F64
:104C60006D6D005973746570732F6D6D0059737499
:104C70006570732F6D6D005873746570732F6D6D53
:104C8000005873746570732F6D6D004D6F74696F8C
:104C90006E004F6666004F6E2000456E6473746F41
:104CA000702061626F72740053746570732F6D6D44
:104CB000004A65726B00416363656C65726174697B
:104CC0006F6E0056656C6F63697479005A204F6689
:104CD0006673657400416476616E63656420536534
:104CE0007474696E67730043616E6E6F7420656ED5
:104CF000746572207375626469723A2000022E2E08
:104D0000004D61696E004578747275646572202586
:104D100073004D696E6920322072656164792E00DE
:104D20004D31343520533C696E6465783E206F7593
:104D300074206F662072616E67652028302D3129DE
:104D40000A004C756C7A426F74204D696E6920328E
:104D5000204F66662E00205A3A0020593A00204320
:104D60006F756E7420583A0020453A00205A3A0078
:104D700020593A00583A003A004361703A00454DD4
:104D8000455247454E43595F5041525345520043A7
:104D90004153455F4C494748545F42524947485444
:104DA0004E45535300544F47474C455F4C49474885
:104DB000545300534F4654574152455F504F574547
:104DC00052004255494C445F50455243454E5400B1
:104DD0004C4556454C494E475F44415441005A5F4B
:104DE00050524F4245004155544F4C4556454C009A
:104DF0005052494E545F4A4F420050524F4752451D
:104E00005353004155544F5245504F52545F5445EF
:104E10004D5000564F4C554D455452494300454561
:104E200050524F4D0053455249414C5F584F4E5FD1
:104E3000584F4646004649524D574152455F4E41F4
:104E40004D453A4D61726C696E20204649524D576E
:104E50004152455F56455253494F4E3A312E312EFD
:104E6000382E322045585452554445525F545950BB
:104E7000453A4165726F7374727564657220534F61
:104E8000555243455F434F44455F55524C3A687411
:104E90007470733A2F2F636F64652E616C65706850
:104EA0006F626A656374732E636F6D2F64696666E3
:104EB0007573696F6E2F4D41524C494E2050524FC1
:104EC000544F434F4C5F56455253494F4E3A312E43
:104ED00030204D414348494E455F545950453A4C66
:104EE000756C7A426F74204D696E69203220455886
:104EF0005452554445525F434F554E543A31205514
:104F00005549443A65353530323431312D643436C3
:104F1000642D343231642D626133612D6132303160
:104F200032366437393330660A002F2F20004E6F37
:104F30002063617365206C696768740A004D6F7641
:104F40006520617869730044697361626C652073E0
:104F500074657070657273004D383400426564206A
:104F60004C6576656C696E67004732382058590A7F
:104F70004D31303920533137350A473238205A0AFB
:104F80004D31303920523134350A4731320A4732F7
:104F9000390A4D313034205330004175746F206828
:104FA0006F6D6500473238004D61696E004D3530D8
:104FB000320A4D353030004C6F6164207365747473
:104FC000696E677300526573746F726520666169FC
:104FD0006C736166650053746F72652073657474D9
:104FE000696E677300416476616E63656420536522
:104FF0007474696E6773004D61696E000A003B202E
:10500000454550524F4D20496E6465783A20005511
:1050100070646174696E67207A6F66667365742068
:10502000696E20454550524F4D3A20000E000E004B
:105030000E000E000E000E000E000E007FC03F801E
:105040001F000E00040004000E001F003F807FC000
:105050000E000E000E000E000E000E000E000E00E0
:1050600007F8000C0C0010020020010060018040D5
:1050700000804003E04001C040008040000040004C
:10508000006000002000001000000C0C0007F80079
:1050900001FE0003030004008008004018006010B7
:1050A00000207C002038002010002000002000009C
:1050B0002000006000004000008003030001FE00AB
:1050C000FFFFFF7F80FFC0FFC0FFC07F807F80FFAA
:1050D000C0FFC0FFC03F001E000C005A204F666694
:1050E000736574005A204F666673657400466C6F72
:1050F0007700466C6F770046616E2073706565645B
:105100000046616E2073706565640042656400420C
:105110006564004E6F7A7A6C65004E6F7A7A6C65C2
:10512000005370656564005370656564004D616986
:105130006E004D6F7665205800526573756D696E0F
:1051400067207072696E74004D696E69203220723A
:10515000656164792E00436C69636B20746F207203
:105160006573756D652E2E2E00456E642066696C24
:1051700065206C6973740A00426567696E20666910
:105180006C65206C6973740A005344207072696EF8
:1051900074696E67206279746520004E6F742053C5
:1051A00044207072696E74696E670A0000012531CF
:1051B0001D40FF24301CFF45232F1B0A07FFFF045F
:1051C0000806FF06222B1AFFFF043803FF36FFFFF5
:1051D000FFFFFFFF50726F74656374656420506950
:1051E0006E0A006D0046696C616D656E74207573A2
:1051F00065643A200053746174733A20002C204C8B
:105200006F6E67657374206A6F623A2000546F7422
:10521000616C2074696D653A200053746174733A4F
:1052200020002C204661696C65643A20002C2046E1
:10523000696E69736865643A20005072696E7473B0
:105240003A200053746174733A2000436172642001
:1052500072656D6F766564004361726420696E7378
:10526000657274656400202863616C63756C617499
:10527000656429210A0020213D2000454550524FF8
:105280004D20435243206D69736D61746368202D16
:10529000202873746F726564292000290A00206237
:1052A000797465733B2063726320002073746F729E
:1052B00065642073657474696E67732072657472B7
:1052C0006965766564202800204D61726C696E3DC9
:1052D000563437290A0028454550524F4D3D004568
:1052E0004550524F4D2076657273696F6E206D691F
:1052F000736D617463682000F2A17FA011241FBE4A
:10530000CFEFD1E2DEBFCDBF00E00CBF14E0A0E0E4
:10531000B2E0EAE5F5E702E00BBF02C007900D92AC
:10532000A234B107D9F727E1A2E4B4E001C01D928D
:10533000A937B207E1F719E2CDE7D9E200E006C0EC
:1053400021970109802FFE010F94183ACC37D1071D
:1053500080E00807A9F70E94514F0D949C3A0C94E5
:1053600000002F923F924F925F926F927F928F92A6
:105370009F92AF92BF92CF92DF92EF92FF920F93E4
:105380001F93CF93DF93CDB7DEB7C959D1090FB6BD
:10539000F894DEBF0FBECDBF8091DD148D3409F4CB
:1053A00014C3843511F40C94BE3F873411F00C946F
:1053B00000408091DB149091DC148A31910509F44E
:1053C00042C2BCF4843091055CF48230910574F5DE
:1053D00097FF02C00C941A400E94759D0C941A40CD
:1053E0008430910509F4E9C10C9709F4EAC10C94E1
:1053F0001A408E31910509F471C23CF48C3191054B
:1054000009F458C20CF426C25AC28B35910509F42E
:10541000D3C28C35910509F4D4C28A35910511F0B7
:105420000C941A40109253040C941A402091690273
:10543000222311F40C941A4011E0029709F010E0B5
:105440000E9444B719821A821B821C821D821E820E
:105450001F82188682E50E9438B7882309F45EC14E
:105460000E94D6B66B017C01209124093091250958
:1054700040912609509127092B962CAF3DAF4EAF96
:105480005FAF2B978090280990902909A0902A0956
:10549000B0902B098091E6089091E708A091E80868
:1054A000B091E9082F968CAF9DAFAEAFBFAF2F97ED
:1054B0002091EA083091EB084091EC085091ED08FA
:1054C00063962CAF3DAF4EAF5FAF639720E030E007
:1054D000A901C701B6010F945430882309F434C1DF
:1054E0002B962CAD3DAD4EAD5FAD2B972F966CAD91
:1054F0007DAD8EAD9FAD2F970F94543081110DC0AF
:10550000A501940163966CAD7DAD8EAD9FAD6397A3
:105510000F945430882309F417C120E030E0A9012A
:10552000C701B6010F945430881F8827881F1813AD
:105530000BC080E090E0A0E8BFE3A3968CAF9DAFE6
:10554000AEAFBFAFA3970AC020E030E040E85FEB0A
:10555000A3962CAF3DAF4EAF5FAFA3972B962CAD6C
:105560003DAD4EAD5FAD2B972F966CAD7DAD8EAD45
:105570009FAD2F970F9422376B966CAF7DAF8EAF98
:105580009FAF6B97A501940163966CAD7DAD8EAD19
:105590009FAD63970F9422376F966CAF7DAF8EAF40
:1055A0009FAF6F976B962CAD3DAD4EAD5FAD6B97DA
:1055B000CA01B9010F94B9302B013C016F962CAD93
:1055C0003DAD4EAD5FAD6F97CA01B9010F94B930D3
:1055D0009B01AC01C301B2010F9423370F949039A2
:1055E00067966CAF7DAF8EAF9FAF679720E030E0DE
:1055F00040E05FE30F94B9302B013C01A701960115
:10560000C701B6010F94B9306B017C01A30192016F
:10561000C301B2010F94B9309B01AC01C701B601BF
:105620000F9422370F9490399B01AC01A3966CAD77
:105630007DAD8EAD9FADA3970F94B9306B017C010A
:105640002F962CAD3DAD4EAD5FAD2F972B966CAD2B
:105650007DAD8EAD9FAD2B970F94233720E030E0CA
:1056600040E05FE30F94B9302B013C016F966CADC5
:105670007DAD8EAD9FAD6F97905867962CAD3DADCB
:105680004EAD5FAD67970F94FF379B01AC01C7012B
:10569000B6010F94B9309B01AC01C301B2010F9464
:1056A00023372B962CAD3DAD4EAD5FAD2B970F94B0
:1056B000223769837A838B839C8363962CAD3DADBF
:1056C0004EAD5FAD6397C501B4010F94233720E061
:1056D00030E040E05FE30F94B9302B013C01679666
:1056E0002CAD3DAD4EAD5FAD67976B966CAD7DADAE
:1056F0008EAD9FAD6B970F94FF379B01AC01C70137
:10570000B6010F94B9309B01AC01C301B2010F94F3
:105710002337A50194010F94223712C089E40E9417
:1057200038B7882331F00E94D6B669837A838B8399
:105730009C838AE40E9438B7882331F00E94D6B651
:105740006D837E838F83988720E030E0A901698193
:105750007A818B819C810F94543081110BC020E0A1
:1057600030E0A9016D817E818F8198850F9454303E
:10577000882349F0612FCE0101960E94988A0F94E8
:10578000EE2A0C941A40E0E5F2E184918F010F5F5C
:105790001F4F882321F00E9425FCF801F6CFE7E592
:1057A000F3E084918F010F5F1F4F882311F40C9455
:1057B0001A400E9425FCF801F4CF0E94279D0C940A
:1057C0001A400E94FD8481110C941A4080E50E94C9
:1057D00038B7882319F00E94A6B601C060E06FAF09
:1057E00083E50E9438B7882319F00E94A6B601C04D
:1057F0006CE06BAF84E50E9438B7882319F00E94F3
:10580000A6B601C063E068A382E50E9438B788238A
:1058100019F00E94D6B604C060E070E080ED90E41C
:1058200069837A838B839C839E01205E3F4FAE0108
:105830004F5F5F4FBE01655C7F4FCE01CF960E94E8
:10584000DAC30C941A4081E0809369021092D20668
:105850000C941A400E94FD8481110C941A4080E03F
:1058600090E0A0E8B0E489839A83AB83BC8380E0B6
:1058700090E0A2E3B3E48D839E83AF83B88780E09A
:1058800090E0A0EAB1E489879A87AB87BC8780E57E
:105890000E9438B7882319F00E94A6B601C060E0C4
:1058A00068A3BE016F5F7F4FCE0180960E9444C304
:1058B0000C941A4080E00E94209C0C941A4081E0D5
:1058C00080935B0424982C9A149A0E94BB8E1092A9
:1058D0005B04249A2C9814980C941A40C0902409C4
:1058E000D0902509E0902609F090270988E50E94CC
:1058F00038B7811108C020E030E0A901C701B60126
:105900000F94233702C00E94D6B668A379A38AA356
:105910009BA3C0902809D0902909E0902A09F09013
:105920002B0989E50E9438B7811108C020E030E0DA
:10593000A901C701B6010F94233702C00E94D6B651
:105940006B017C0169837A838B839C8388A099A0F7
:10595000AAA0BBA021E338E040EC50ECC501B401A3
:105960000F944A3987FF02C00C941A4022E430E0B9
:1059700042E253E4C501B4010F945430181614F4F4
:105980000C941A4029E134E040E151ECC701B60122
:105990000F944A3987FF02C00C941A4022E430E089
:1059A00044E253E4C701B6010F945430181614F4BE
:1059B0000C941A400C941D4081E0809353040C9485
:1059C0001A400F9404160C941A408091DB149091A5
:1059D000DC148937910509F414C60CF0E7C08D3446
:1059E000910509F4DCC30CF062C08931910509F41A
:1059F0001BC24CF58431910509F404C294F4813141
:105A0000910509F4F4C144F4029710F00C941A4083
:105A10000F9474150C941A40429709F49AC50C948B
:105A20001A408631910509F4F5C10CF4EFC18731B4
:105A3000910509F4F5C1489711F00C941A400F94A0
:105A4000CD130C941A408F31910509F46BC37CF48B
:105A50008B31910509F406C20CF4F6C18C31910525
:105A600009F404C24E9709F40BC20C941A4089340D
:105A7000910509F483C364F48032910509F403C3EA
:105A80008A9711F00C941A400F9428130C941A4022
:105A90008B34910509F47FC38C34910511F00C947B
:105AA0001A408EEA9BE00E94BB5E0C941A408A3634
:105AB000910509F494C4CCF58435910509F449C5E0
:105AC000E4F48135910509F43CC54CF48E3491051C
:105AD00011F00C941A400F9401120C941A40823564
