:100000000C9429280C94D5EA0C94AAEA0C947FEA63
:100010000C9454EA0C9429EA0C94FEE90C94D3E96C
:100020000C94A16E0C945A280C945A280C945A28BB
:100030000C945A280C949E640C945A280C945A28B8
:100040000C945A280C9436670C945A280C945A280D
:100050000C945A280C945A280C943D650C9400EB8F
:100060000C945A280C94E76D0C945A280C945A2836
:100070000C945A280C945A280C945A280C945A28F8
:100080000C945A280C945A280C945A280C945A28E8
:100090000C945A280C945A280C945A280C945A28D8
:1000A0000C945A280C945A280C945A280C945A28C8
:1000B0000C945A280C945A280C945A280C945A28B8
:1000C0000C945A280C945A280C945A280C945A28A8
:1000D0000C945A280C945A280C945A280C945A2898
:1000E0000C945A28EE65F2651B661F6601660C6665
:1000F000DB651B6E216E326E3D6E456E5A6E496E2B
:100100005A6E4D6E516E5A6E576E82C585C574C556
:1001100078C57EC5BCC589C58DC593C597C59BC52A
:10012000A1C5A5C5A9C5BCC5AFC5B3C5B7C5D9CF00
:10013000DECFE3CFEDCFF7CF70D001D009D011D013
:100140001BD025D02FD03ED048D070D052D05CD01C
:1001500066D0084AD73B3BCE016E84BCBFFDC12FA1
:100160003D6C74319ABD56833DDA3D00C77F11BEA8
:10017000D9E4BB4C3E916BAAAABE000000803F05AB
:10018000A84CCDB2D44EB93836A9020C50B99186DC
:1001900088083CA6AAAA2ABE000000803F0020745E
:1001A0006F6F206C6F6E6720657874727573696FFE
:1001B0006E2070726576656E7465640A0020636FE8
:1001C0006C6420657874727573696F6E20707265E7
:1001D00076656E7465640A0047322F47332062618A
:1001E0006420706172616D65746572730A00536C8E
:1001F0006565702E2E2E005A2070726F6265206F1A
:1002000075742E206265640A005A2070726F6265F0
:10021000206F75742E2062656400473238205A20A2
:10022000466F7262696464656E0A00473238205A0C
:1002300020466F7262696464656E0000009143003D
:10024000008A4300007A4300004842000048420010
:1002500000404000000000FFFFFF54415A203520BD
:1002600072656164792E00526573756D696E6720E1
:100270007072696E7400436C69636B20746F2072D6
:100280006573756D652E2E2E00456E642066696C53
:1002900065206C6973740A00426567696E2066693F
:1002A0006C65206C6973740A005344207072696E27
:1002B00074696E67206279746520004E6F742053F4
:1002C00044207072696E74696E670A0046696C65D5
:1002D0002064656C657465643A0044656C65746996
:1002E0006F6E206661696C65642C2046696C653AA6
:1002F00020006F70656E206661696C65642C204615
:10030000696C653A20002569730025696D202569AF
:1003100073002569682025696D20256973002569AA
:1003200064202569682025696D2025697300256989
:100330007920256964202569682025696D20256953
:1003400073005072696E742074696D653A200045BF
:100350007874727564657220256920257300544194
:100360005A20352072656164792E006F6B00436FEF
:100370006F6C696E6720646F6E652E0048656174EE
:10038000696E6720646F6E652E0020573A004578CD
:100390007472756465722025692025730054415A72
:1003A00020352072656164792E0042656420646F97
:1003B0006E652E0020573A004265642068656174BE
:1003C000696E672E0042656420636F6F6C696E67AB
:1003D0002E004361703A454D455247454E43595FA3
:1003E0005041525345523A310A004361703A4341F9
:1003F00053455F4C494748545F4252494748544E21
:100400004553533A300A004361703A544F47474CC2
:10041000455F4C49474854533A300A004361703AAB
:10042000534F4654574152455F504F5745523A300B
:100430000A004361703A4C4556454C494E475F446B
:100440004154413A300A004361703A5A5F50524F6A
:1004500042453A300A004361703A4155544F4C4589
:1004600056454C3A300A004361703A5052494E5456
:100470005F4A4F423A310A004361703A50524F4747
:10048000524553533A300A004361703A4155544F34
:100490005245504F52545F54454D503A310A004333
:1004A00061703A454550524F4D3A310A0046495223
:1004B0004D574152455F4E414D453A4D61726C6911
:1004C0006E20312E312E352E3820284C756C7A4214
:1004D0006F742054415A2035204475616C20457852
:1004E00074727564657220332920534F5552434509
:1004F0005F434F44455F55524C3A68747470733A89
:100500002F2F636F64652E616C6570686F626A651A
:100510006374732E636F6D2F646966667573696F9C
:100520006E2F4D41524C494E2050524F544F434F25
:100530004C5F56455253494F4E3A312E30204D4173
:100540004348494E455F545950453A54415A203525
:100550002045585452554445525F434F554E543AE6
:100560003220555549443A63353037373730322DCC
:10057000346563642D343533322D626561662D3602
:1005800061636639346163633430340A007A5F6DC5
:10059000696E3A2000795F6D696E3A2000785F6D70
:1005A000696E3A20005265706F7274696E672065DB
:1005B0006E6473746F70207374617475730A004392
:1005C000290A0061626C656420286D696E2074657B
:1005D0006D702000436F6C6420657874727564657B
:1005E000732061726520004B642000236465666996
:1005F0006E65202044454641554C545F004B6920B0
:100600000023646566696E65202044454641554C6B
:10061000545F004B70200023646566696E6520207E
:1006200044454641554C545F00504944204175743F
:100630006F74756E652066696E69736865642120E4
:1006400050757420746865206C617374204B702C35
:10065000204B6920616E64204B6420636F6E73745D
:10066000616E74732066726F6D2062656C6F7720A7
:10067000696E746F20436F6E666967757261746925
:100680006F6E2E680A00504944204175746F74756E
:100690006E65206661696C6564212074696D656FA3
:1006A00075740A00504944204175746F74756E6505
:1006B000206661696C6564212054656D70657261A6
:1006C0007475726520746F6F20686967680A00200E
:1006D0004B643A2000204B693A2000204B703A20AE
:1006E000000A20436C617373696320504944200AF7
:1006F000002054753A2000204B753A2000206D618F
:10070000783A2000206D696E3A200020643A20007B
:1007100020626961733A20004E6F20636173652027
:100720006C696768740A004163746976652045786E
:100730007472756465723A2000556E6B6E6F776ED9
:1007400020636F6D6D616E643A20220043616E6EAE
:100750006F74206F70656E2073756264697220001B
:1007600001050800FF060121023520FFFF07FF06F3
:10077000FF09005022165680808080008015335378
:10078000A0A0A00257575050F850F85050025757A9
:100790002070A07028702013355580A040A0200242
:1007A000475740A0A040A0A050251353808080123E
:1007B000265640808080804012265680404040402F
:1007C000800245559060F060900255552020F82039
:1007D00020113353604080044151F011335340E005
:1007E0004002465610102040808012365640A0A08D
:1007F000A0A04012365640C0404040E0024656603D
:1008000090106080F0024656F02060109060024622
:10081000562060A0F02020024656F080E010906044
:100820000246566080E0909060024656F01020200C
:10083000404002465660906090906002465660903C
:1008400090701060122555C0C000C0C011365660AF
:100850006000604080123656204080804020034374
:1008600053F000F012365680402020408012365659
:1008700040A020400040015858304898A8A8904017
:1008800030024656609090F09090024656E090E01C
:100890009090E0024656609080809060024656E05C
:1008A00090909090E0024656F080E08080F0024602
:1008B00056F080E0808080024656609080B0906064
:1008C0000246569090F0909090123656E04040408C
:1008D00040E002465670202020A04002465690A0DC
:1008E000C0A0A0900246568080808080F0024656CC
:1008F00090F0F090909002465690D0F0B0B09002F8
:100900004656609090909060024656E09090E0804D
:1009100080014757609090D0B06010024656E0903A
:1009200090E09090024656609040209060123656BB
:10093000E0404040404002465690909090906002C7
:100940004656909090906060024656909090F0F0DD
:10095000900246569090606090900256568888505B
:10096000202020024656F010204080F0123656E03B
:1009700080808080E0024656808040201010123631
:1009800056E020202020E016325240A0014151F0D4
:100990001622528040024454709090700246568055
:1009A00080E09090E01234546080806002465610DF
:1009B000107090907002445460B0C060024656209F
:1009C0005040E0404001455560907010600246562E
:1009D0008080E09090901236564000C04040E01178
:1009E00037572000202020A040024656808090E00B
:1009F0009090123656C040404040E0025454D0A877
:100A0000A8A8024454E090909002445460909060F2
:100A1000014555E090E080800145557090701010C0
:100A2000024454A0D0808012345460C020C00246DA
:100A3000564040E040502002445490909070123450
:100A400054A0A0A04002545488A8A8500244549036
:100A50006060900145559090709060024454F02081
:100A600040F0024757304020C020403022165680C8
:100A70008080808080024757C02040304020C006E0
:100A8000425250A0FFFFFFFFFFFFFFFFFFFFFFFFEE
:100A9000FFFFFFFFFFFFFFFFFFFFFFFFFFFFFFFF66
:100AA000FFFFFFFFFF090050221656800080808064
:100AB000800146562070A0A070200246562050E0CB
:100AC0004050A00255558870507088025656885084
:100AD000F820F8202217578080800080808002470D
:100AE000577080E0907010E0173151A00256567098
:100AF000A8C8C8A87014355560A06000E00343532F
:100B000050A050123353E02020143151E0025656C9
:100B100070E8D8E8D870173151E015335340A04041
:100B200012355540E04000E014355540A02040E02B
:100B3000143555C020C020C01622524080014555B2
:100B4000909090E08002565678E8E86828282411B2
:100B50005180112252408014355540C04040E0146D
:100B6000355540A04000E0034353A050A002475732
:100B7000808080A060F0200247578080A0D01020A5
:100B80007002475780408060A0F020123656400027
:100B90004080A04002475740206090F0909002476C
:100BA0005720406090F0909002475760906090F01E
:100BB000909002475750A06090F090900247579055
:100BC000006090F0909002475760906090F0909095
:100BD00002465670A0A0F0A0B001475760908080F8
:100BE0009060400247574020F080E080F002475775
:100BF0002040F080E080F00247576090F080E08075
:100C0000F00247579000F080E080F01237578040A4
:100C1000E0404040E01237572040E0404040E012C2
:100C2000375740A0E0404040E0123757A000E04076
:100C30004040E00256567048E84848700247575016
:100C4000A090D0B090900247574020609090906064
:100C50000247572040609090906002475760906034
:100C60009090906002475750A0609090906002472B
:100C70005790006090909060123353A040A00246BD
:100C80005670B0B0D0D0E00247574020909090907E
:100C900060024757204090909090600247576090C4
:100CA00090909090600247579000909090906002D2
:100CB00057571020885020202002465680E0909000
:100CC000E0800246566090A0A090A00247574020C6
:100CD0000070909070024757204000709090700212
:100CE00047572050007090907002475750A00070F6
:100CF0009090700246565000709090700247576076
:100D0000906070909070025454F068B0781135552E
:100D1000608080604002475740200060B0C06002A1
:100D2000475720400060B0C06002475760900060A5
:100D3000B0C060024656500060B0C06012375780A5
:100D40004000C04040E0123757204000C04040E023
:100D500012375740A000C04040E0123656A000C0F5
:100D60004040E0024757A040A010709060024757F3
:100D700050A000E090909002475740200060909073
:100D80006002475720400060909060024757609093
:100D9000006090906002475750A000609090600201
:100DA00046569000609090601235554000E000403B
:100DB00002445470B0D0E002475740200090909019
:100DC0007002475720400090909070024757609003
:100DD000009090907002465690009090907001485C
:100DE0005820400090907090600147578080E090BC
:100DF000E080800147579000909070906001050757
:100E000000FE0500FB01F220FFFE05FE05FE0200CC
:100E1000400215258080800080053242A0A0025546
:100E20006550F850F8500146562070C030E020025E
:100E300055659010204048025565608068906805AF
:100E40001222808002253540808080400225358036
:100E500040404080043343A040A003334340E0407F
:100E60000122324080043141E002112180025565A7
:100E70000810204080024555609090906002253512
:100E8000C040404040024555E0106080F0024555AA
:100E9000E0106010E00245552060A0F020024555AA
:100EA000F080E010E00245556080E090600245551A
:100EB000F01020404002455560906090600245551A
:100EC000609070106003132380008002142480005F
:100ED00080800235452040804020033343E000E01D
:100EE0000235458040204080024555E010600040BA
:100EF0000255657088B8A870024555609090F090D2
:100F0000024555E090E090E00235456080808060C9
:100F1000024555E0909090E0023545E080E080E0A9
:100F2000023545E080E080800245557080B09070C9
:100F30000245559090F09090023545E0404040E0E9
:100F4000024555301010906002455590A0C0A09009
:100F500002354580808080E002556588D8A8888861
:100F600002455590D0B090900245556090909060A9
:100F7000024555E09090E080014656609090906068
:100F800010024555E09090E0900245557080601049
:100F9000E0023545E0404040400245559090909039
:100FA000600245559090A0A04002556588A8A8A869
:100FB0005002455590906090900245559090701069
:100FC00060023545E0204080E0022535C080808009
:100FD000C00255658040201008022535C0404040C1
:100FE000C005324240A0024151F005223280400249
:100FF00044547090907002455580E09090E0023427
:101000004460808060024555107090907002445496
:1010100060B0C0600235452040E040400046567058
:10102000909070106002455580E0909090021525D8
:101030008000808080002737400040404040800290
:1010400045558090A0E09002152580808080800228
:101050005464F0A8A8A8024454E09090900244542C
:1010600060909060004656E09090E0808000465688
:10107000709090701010023444A0C08080024454DC
:1010800070C030E002354540E040402002445490BA
:101090009090700244549090A040025464A8A850CC
:1010A00050023444A04040A00046569090907010EA
:1010B00060024454F02040F00235456040804060BA
:1010C0000215258080808080023545C0402040C0C8
:1010D00005425250A0FFFFFFFFFFFFFFFFFFFFFF92
:1010E000FFFFFFFFFFFFFFFFFFFFFFFFFFFFFFFF10
:1010F000FFFFFFFFFFFF020040FFFFFFFFFFFFFFBB
:10110000FFFFFFFFFFFFFFFFFFFFFFFFFFFFFFFFEF
:10111000FFFFFFFFFFFFFFFFFFFFFFFFFFFFFFFFDF
:10112000FFFFFFFFFFFFFFFFFFFFFFFFFFFFFFFFCF
:10113000FFFFFFFFFFFFFFFFFFFFFFFFFFFFFFFFBF
:10114000FFFFFFFFFFFFFFFFFFFFFFFFFFFFFFFFAF
:10115000FFFFFFFFFFFFFFFF01060D00FE09016615
:1011600002D620FFFE0BFE0AFE0D006022196980E8
:101170008080808080800080183363A0A0A0035707
:10118000675050F850F850500259692078A0A0706C
:101190002828F02002596948A85010204050A890F3
:1011A00002586840A0A040A09890682813638080EF
:1011B00080113B6B20404080808080804040201127
:1011C0003B6B804040202020202040408006556519
:1011D00020A870A8200455652020F8202011336332
:1011E000604080065161F811336340E04002596964
:1011F00008081010204040808002596920508888DB
:1012000088888850200259692060A0202020202052
:10121000F80259697088880810204080F8025969DE
:10122000F8081020700808887002596910103050B2
:101230005090F81010025969F88080B0C8080888EA
:101240007002596970888080F088888870025969B6
:10125000F8081010202040404002596970888888A2
:10126000708888887002596970888888780808882A
:101270007011386840E040000040E040113868409C
:10128000E040000060408002596908102040804022
:10129000201008045464F80000F8025969804020C6
:1012A000100810204080025969708888081020209A
:1012B000002002596970888898A8A8B080780259DF
:1012C000692050888888F8888888025969F04848D9
:1012D0004870484848F00259697088808080808052
:1012E0008870025969F048484848484848F002590F
:1012F00069F8808080F0808080F8025969F88080E9
:1013000080F0808080800259697088808080988811
:10131000887002596988888888F88888888812398E
:1013200069E040404040404040E0025969381010B8
:10133000101010109060025969888890A0C0A09089
:1013400088880259698080808080808080F8025976
:10135000698888D8A8A88888888802596988C8C8F0
:10136000A8A8989888880259697088888888888889
:101370008870025969F0888888F080808080015ADE
:101380006A70888888888888A87008025969F088F7
:101390008888F0A0908888025969708880807008D9
:1013A000088870025969F82020202020202020027F
:1013B00059698888888888888888700259698888E7
:1013C0008888505050202002596988888888A8A8A9
:1013D000A8A8500259698888505020505088880227
:1013E0005969888850502020202020025969F80827
:1013F000101020404080F8113B6BE080808080809E
:1014000080808080E0025969808040402010100870
:1014100008113B6BE0202020202020202020E00825
:101420005363205088015161F82A2262804002569D
:1014300066700878889868025969808080F088888A
:101440008888F00256667088808088700259690822
:1014500008087888888888780256667088F88088B6
:101460007002596930484040F040404040005868A0
:101470007088888878088870025969808080B0C830
:10148000888888881238684000C040404040E000AA
:101490004A6A100030101010109090600259698054
:1014A000808090A0C0A09088123969C04040404020
:1014B000404040E0025666D0A8A8A8A88802566618
:1014C000B0C88888888802566670888888887000C6
:1014D0005868F0888888F08080800058687888880C
:1014E0008878080808025666B0C880808080025656
:1014F000667088601088700258684040F040404034
:1015000048300256668888888898680256668888B7
:10151000885050200256668888A8A8A850025666AF
:1015200088502020508800586888888898680888E3
:1015300070025666F810204080F8015B6B1820207E
:101540002020C020202020182219698080808080DF
:1015500080808080015B6BC020202020182020200C
:1015600020C008536348A890FFFFFFFFFFFFFFFF65
:10157000FFFFFFFFFFFFFFFFFFFFFFFFFFFFFFFF7B
:10158000FFFFFFFFFFFFFFFFFF0D006022196980D3
:1015900000808080808080800358682070A8A0A090
:1015A000A8702002596930484040E0404048B003EC
:1015B000566688705050708802596988885050F873
:1015C00020F820202219698080808000808080801F
:1015D000124A6A609080609090601090601A326247
:1015E000A0A00359697088A8D8C8D8A888700457E3
:1015F00067700878887800F80356662850A0A050D5
:1016000028045363F80808163161E00359697088AB
:10161000E8D8D8E8D888700A5161F8174464609017
:1016200090600357672020F8202000F807356540B8
:10163000A02040E007356540A04020C02A2262403B
:10164000800058688888888898E88080025969787E
:10165000E8E8E8E868282828262161C020226240BE
:101660008007356540C04040E0045767708888882F
:101670007000F8035666A050282850A0025A6A400D
:10168000C04040E00818283808025A6A40C040406C
:10169000E01028081038025A6A40A04020A04818DC
:1016A000283808025969200020204080888870026C
:1016B0005A6A40200020508888F88888025A6A10A8
:1016C000200020508888F88888025A6A3048002014
:1016D000508888F88888025A6A28500020508888E4
:1016E000F88888025A6A50500020508888F8888804
:1016F000025A6A20502020508888F8888802596948
:1017000058A0A0A0B0E0A0A0B8005B6B708880805B
:1017100080808088702040025A6A402000F88080D3
:10172000F08080F8025A6A102000F88080F08080F3
:10173000F8025A6A304800F88080F08080F8025A37
:101740006A505000F88080F08080F8123A6A804039
:1017500000E04040404040E0123A6A204000E04053
:1017600040404040E0124A6A609000E04040404003
:1017700040E0123A6AA0A000E04040404040E00251
:101780005969F0484848E8484848F0025A6A2850E1
:10179000008888C8A8988888025A6A402000708803
:1017A0008888888870025A6A102000708888888823
:1017B0008870025A6A304800708888888888700269
:1017C0005A6A28500070888888888870025A6A503F
:1017D000500070888888888870035565885020502C
:1017E00088015B6B08709898A8A8A8C8C870800288
:1017F0005A6A40200088888888888870025A6A104F
:10180000200088888888888870025A6A3048008852
:10181000888888888870025A6A505000888888882A
:10182000888870025A6A1020008888502020202062
:1018300002596980F0888888F08080800259696048
:101840009090A0A0908888B002596940200070084C
:10185000788898680259691020007008788898681C
:1018600002596930480070087888986802596928D8
:1018700050007008788898680259695050007008C4
:1018800078889868025A6A304830007008788898DA
:1018900068025666702870A0A8500058687088804A
:1018A00080887020400259694020007088F8808844
:1018B000700259691020007088F880887002596998
:1018C0003048007088F88088700259695050007064
:1018D00088F8808870123969804000C040404040DC
:1018E000E0123969204000C040404040E0124969A0
:1018F000609000C040404040E0123969A0A000C0A4
:1019000040404040E0025A6A502060107088888849
:101910008870025969285000B0C8888888880259A0
:1019200069402000708888888870025969102000FA
:101930007088888888700259693048007088888863
:101940008870025969285000708888888870025908
:10195000695050007088888888700357672020007D
:10196000F8002020015868087098A8A8C870800264
:101970005969402000888888889868025969102031
:101980000088888888986802596930480088888863
:10199000889868025969505000888888889868003B
:1019A0005B6B1020008888889868088870005A6AE5
:1019B0008080B0C88888C8B08080005B6B505000C1
:1019C000888888986808887000000000000000007F
:1019D0000000000000000000000000000000000007
:1019E00000000000000000000000000C00000000EB
:1019F0000000000C000000000000001200000000C9
:101A00000000002300000000000000210000000092
:101A10000000004C800000000000005E800000001C
:101A20000000009240000000000000A14000000003
:101A300000000121200000000000027F9000000053
:101A40000000020010000000000007FFF800000086
:101A5000000004000800000000000800040000006E
:101A60000000080006000000000010000200000056
:101A70000000301E010000000000207F81000000F7
:101A8000000041FFE0800000000043FCF080000007
:101A90000000873B7840000000018EDBFC60000006
:101AA00000010FEBCC20000000021FEDB61000007B
:101AB00000021FDEB6100000000439CD7F080000D0
:101AC000000436E0FF08000000087EC0BB84000070
:101AD00000187F005D86000000107FC0ED820000CE
:101AE00000203CC07301000000203B337F01000058
:101AF00000701BE77E03800000C81DEEDE04C000FE
:101B000000880FDEDC04400001240FDF3C092000C8
:101B1000012607DBF8192000027203E7F01390009A
:101B2000025101FFE02290000489007F80244800D8
:101B30000904801E004824000BFE400000DFF40072
:101B400010004000008002001FFFFFFFFFFFFE00AB
:101B50000000000000000000000000000000000085
:101B600000000000000000001022103C3C0E1F008E
:101B70001022100422110400102210082211040067
:101B8000102210083C110400102210102211040031
:101B900010221020221104001E1C1E3C3C0E0400CA
:101BA0000000000000000000000000000000000035
:101BB0000000000000000000000000000000000025
:101BC0000000000000000000000000000000000015
:101BD0000000000000000000000000000000000005
:101BE00000000000000000000000000000000000F5
:101BF00000000000000000000000000000000000E5
:101C00000000000000002040002042403A00204038
:101C10003A004D6F76652058004D6F76652059006B
:101C20004D6F7665205A004578747275646572321E
:101C30000045787472756465723100000000C00060
:101C4000000000000000005761726E696E673A2064
:101C5000486F6D696E672042756D702044697669C2
:101C6000736F72203C20310A000202040000A04081
:101C70000000A0400000004054415A2035204F662B
:101C8000662E004F6666004F6E2000456E647374CA
:101C90006F702061626F72740053746570732F6D82
:101CA0006D004A65726B00416363656C65726174B7
:101CB000696F6E0056656C6F6369747900436F6E6F
:101CC00074726F6C0053746F7265207365747469FD
:101CD0006E6773004265640042656400426564009B
:101CE0004E6F7A7A6C65004E6F7A7A6C65004E6F33
:101CF0007A7A6C650046616E207370656564004693
:101D0000616E2073706565640046616E2073706556
:101D100065640054656D7065726174757265005616
:101D200054726176206D696E005654726176206D32
:101D3000696E005654726176206D696E00566D6949
:101D40006E00566D696E00566D696E00566D617855
:101D5000204500566D6178204500566D617820451C
:101D600000566D6178205A00566D6178205A0056F1
:101D70006D6178205A00566D6178205900566D616A
:101D800078205900566D6178205900566D61782091
:101D90005800566D6178205800566D6178205800C3
:101DA0004D6F74696F6E004573746570732F6D6D40
:101DB000004573746570732F6D6D005A7374657090
:101DC000732F6D6D005A73746570732F6D6D0059AC
:101DD00073746570732F6D6D005973746570732F14
:101DE0006D6D005873746570732F6D6D005873744A
:101DF0006570732F6D6D004D6F74696F6E00566561
:101E00002D6A65726B0056652D6A65726B005665AA
:101E10002D6A65726B00567A2D6A65726B00567A70
:101E20002D6A65726B0056792D6A65726B00567962
:101E30002D6A65726B0056792D6A65726B00567853
:101E40002D6A65726B0056782D6A65726B00567844
:101E50002D6A65726B004D6F74696F6E0052657309
:101E6000656E643A200045313A200045303A200042
:101E70005A3A2000593A2000583A20004D53312C4C
:101E80004D53322050696E730A0020496E76616CA2
:101E900069642065787472756465722000290A008F
:101EA0002062797465733B2063726320005365740C
:101EB00074696E67732053746F7265642028004BD9
:101EC000494C4C45442E200024F4D43050C38E207D
:101ED000C2A24017828B7011127A910D816CD90ABF
:101EE000A861E108C7586607615143061E4B5D05AE
:101EF000C145A7041A411104093D98037139310302
:101F00004036DB0265339102D4305402802E1D022C
:101F1000632CEE01752AC501B028A00110278101AC
:101F20008F2564012B244B01E0223401AC211F01D9
:101F30008D200D01801FFC00841EED00971DDF0029
:101F4000B81CD200E61BC600201BBC00641AB200FD
:101F5000B219A8000A19A0006A189900D1179100B7
:101F600040178B00B516840031167E00B31579003A
:101F70003A157300C7146F0058146A00EE13660018
:101F80008813630025135E00C7125B006C125700B4
:101F900015125400C111510070114F0021114B0056
:101FA000D61049008D104700461044000210420030
:101FB000C00F4000800F3E00420F3C00060F3B0068
:101FC000CB0E3800930E37005C0E3500270E340020
:101FD000F30D3200C10D3100900D3000600D2E0068
:101FE000320D2D00050D2C00D90C2B00AE0C290054
:101FF000850C29005C0C2700350C27000E0C2600F0
:10200000E80B2400C40B2400A00B23007D0B23004D
:102010005A0B2100390B2100180B2000F80A1F0071
:10202000D90A1E00BB0A1E009D0A1D00800A1D0061
:10203000630A1C00470A1B002C0A1B00110A1A0025
:10204000F7091A00DD091900C4091900AB091900C4
:10205000920917007B091800630917004C09160044
:1020600036091600200916000A091500F5081500A2
:10207000E0081400CC081400B8081400A4081400E8
:10208000900813007D0812006B0813005808120016
:10209000460812003408110023081100120811002C
:1020A00001081100F0071000E0071000D007100031
:1020B000C0071000B0070F00A107100091070E0025
:1020C00083070F0074070F0065070E0057070E0007
:1020D00049070E003B070D002E070E0020070D00DC
:1020E00013070D0006070D00F9060C00ED060D00A4
:1020F000E0060C00D4060C00C8060C00BC060C0060
:10210000B0060C00A4060B0099060C008D060B000F
:1021100082060B0077060B006C060B0061060A00B6
:1021200057060B004C060A0042060A0038060A0051
:102130002E060A0024060A001A060A0010060900E4
:1021400007060A00FD050900F4050900EB05090072
:10215000E2050900D9050900D0050900C7050900F5
:10216000BE050900B5050800AD050800A505090074
:102170009C050800940508008C05080084050800EB
:102180007C050800740508006C050700650508005B
:102190005D050700560508004E05070047050700C6
:1021A0004005080038050700310507002A0507002B
:1021B000230507001C050600160507000F0507008C
:1021C0000805060002050700FB040600F5040700E9
:1021D000EE040600E8040600E2040700DB04060043
:1021E000D5040600CF040600C9040600C304060097
:1021F000BD040600B7040600B1040500AC040600E7
:10220000A6040600A00405009B0406009504050032
:10221000900406008A040500850405008004060079
:102220007A04050075040500700405006B040500C0
:1022300066040500610405005C0405005704050000
:10224000520405004D040500480405004304050040
:102250003E0404003A04050035040500300404007F
:102260002C04050027040400230405001E040400B8
:102270001A04040016040500110404000D040400EF
:10228000090405000404040000040400FC03040025
:10229000F8030400F4030400F0030400EC0304005A
:1022A000E8030400E4030400E0030400DC0304008A
:1022B000D8030400D4030400D0030400CC030400BA
:1022C000C8030300C503030024F404D9201BC40C75
:1022D0005C0E9804C4095F0265077101F405F900FA
:1022E000FB04B30048048700C1036900580355008C
:1022F00003034500BE023A008402310053022A0063
:102300002902250004022000E4011C00C801190074
:10231000AF0117009801140084011300710110002F
:102320006101100051010E0043010D0036010B0048
:102330002B010B0020010B00150109000C01090005
:1023400003010800FB000800F3000800EB00070091
:10235000E4000600DE000600D8000600D2000600F9
:10236000CC000500C7000500C2000500BD00040048
:10237000B9000400B5000400B1000400AD00040081
:10238000A9000400A5000300A20003009F000400B0
:102390009B000300980003009500020093000300D7
:1023A000900003008D0002008B00030088000200F3
:1023B0008600020084000300810002007F0002000A
:1023C0007D0002007B00020079000200770001001E
:1023D0007600020074000200720001007100020029
:1023E0006F0002006D0001006C0002006A00010035
:1023F000690002006700010066000100650001003D
:102400006400020062000100610001006000010040
:102410005F0002005D0001005C0001005B00010044
:102420005A00010059000100580001005700010046
:102430005600010055000100540001005300000047
:102440005300010052000100510001005000010042
:102450004F0001004E0000004E0001004D00010041
:102460004C0001004B0000004B0001004A0001003D
:102470004900010048000000480001004700010039
:102480004600000046000100450000004500010034
:10249000440001004300000043000100420000002E
:1024A0004200010041000000410001004000010025
:1024B0003F0000003F0001003E0000003E00010020
:1024C0003D0000003D0001003C0000003C00000019
:1024D0003C0001003B0000003B0001003A0000000E
:1024E0003A00010039000000390001003800000006
:1024F00038000000380001003700000037000100FC
:1025000036000000360000003600010035000000F3
:1025100035000000350001003400000034000000E8
:1025200034000100330000003300000033000100DC
:1025300032000000320000003200010031000000D3
:1025400031000000310001003000000030000000C8
:10255000300001002F0000002F0000002F000000BD
:102560002F0001002E0000002E0000002E000100B0
:102570002D0000002D0000002D0000002D000100A6
:102580002C0000002C0000002C0000002C0001009A
:102590002B0000002B0000002B0000002B0001008E
:1025A0002A0000002A0000002A0000002A00010082
:1025B0002900000029000000290000002900000077
:1025C0002900010028000000280000002800000069
:1025D000280000002800010027000000270000005C
:1025E000270000002700000027000100260000004F
:1025F0002600000026000000260000002600010042
:102600002500000025000000250000002500000036
:102610002500000025000100240000002400000027
:10262000240000002400000024000100230000001A
:10263000230000002300000023000000230000000E
:1026400023000000230001002200000022000000FF
:1026500022000000220000002200000022000100F1
:1026600021000000210000002100000021000000E6
:1026700021000000210000002100010020000000D6
:1026800020000000200000002000000020000000CA
:102690002000000020000000200001001F000000BA
:1026A0001F0000001F0000001F0000001F000000AE
:1026B0001F0000001F0001001E0000001E0000009F
:1026C0001E0000001E0000004D3834205820592004
:1026D0005A2045004572723A204D494E54454D509E
:1026E00020424544004572723A204D494E54454DB2
:1026F00050004D494E54454D5020747269676765CE
:10270000726564004572723A204D415854454D50EF
:1027100020424544004572723A204D415854454D7F
:1027200050004D415854454D50207472696767659B
:102730007265640002434F4D4D554E494341544923
:102740004F4E0044525952554E004552524F52532B
:1027500000494E464F004543484F001000C9021043
:10276000012C014001220170011801B0010E01F09D
:102770000104015002FA00B002F0003003E600D07C
:1027800003DC009004D2007005C800A006BE000063
:1027900008B400B009AA00D00BA000600E9600603B
:1027A000118C000015820020197800C01D6E00A059
:1027B000226400B0275A00902C500000314600E0FF
:1027C000343C0010383200903A2800603C1E00A0D3
:1027D0003D1400803E0A00203F00002F2F20004DB6
:1027E00031343520533C696E6465783E206F7574D2
:1027F000206F662072616E67652028302D31290AAE
:1028000000562751274A27432735276F666600441D
:10281000454255473A006F6B001000AD0330016A26
:102820000150022B0170030A019004F500B005E588
:1028300000D006D800F007CE001009C500300ABE4F
:1028400000500BB700700CB100900DAB00B00EA69D
:1028500000D00FA200F0109D0010129900301395C7
:10286000005014920070158E0090168B00B01787E0
:1028700000D0188400F0198100101B7E00301C7BF2
:1028800000501D7900701E7600901F7300B02070FC
:1028900000D0216E00F0226B001024690030256604
:1028A00000502663007027610090285E00B0295C0C
:1028B00000D02A5900F02B5600102D5400302E5114
:1028C00000502F4E0070304B0090314800B0324520
:1028D00000D0334200F0343E0010363B0030373732
:1028E000005038330070392E00903A2900B03B2355
:1028F00000D03C1B00F03D1100103F0100F03F00F4
:102900000053442063617264206F6B0A006F70652E
:102910006E526F6F74206661696C65640A00766F31
:102920006C756D652E696E6974206661696C65648D
:102930000A00534420696E6974206661696C0A005C
:102940007C3C3E5E2B3D3F2F5B5D3B2C2A225C0096
:10295000436172642072656D6F76656400436172D5
:102960006420696E736572746564004F6666736592
:102970007473206170706C696564004572723A20EE
:10298000546F6F206661722100546F6F2066617210
:102990002066726F6D207265666572656E63652074
:1029A000706F696E740A0048617264636F64656475
:1029B0002044656661756C742053657474696E6734
:1029C00073204C6F616465640A002823000028238B
:1029D0000000640000001027000000009643000083
:1029E0009643000040400000C8410000C94200007A
:1029F000C9420000C84400003E44202863616C6363
:102A0000756C6174656429210A0020213D20004510
:102A10004550524F4D20435243206D69736D617490
:102A20006368202D202873746F7265642920002943
:102A30000A002062797465733B2063726320002072
:102A400073746F7265642073657474696E67732044
:102A5000726574726965766564202800204D617224
:102A60006C696E3D563430290A0028454550524F56
:102A70004D3D00454550524F4D2076657273696F4C
:102A80006E206D69736D6174636820004E6F206DF8
:102A90006F76652E00656E7175657565696E672068
:102AA00022004572726F722077726974696E6720B6
:102AB000746F20454550524F4D210A005072696E87
:102AC000742070617573656400506C656173652076
:102AD0007265736574005052494E54455220484106
:102AE0004C544544005072696E7465722068616C84
:102AF0007465642E206B696C6C28292063616C6C92
:102B00006564210A006265640A002C20737973747D
:102B1000656D2073746F7070656421204865617401
:102B200065725F49443A2000544845524D414C205B
:102B300052554E4157415900546865726D616C2081
:102B400052756E617761790048656174696E6720BE
:102B50006661696C65640048656174696E672066CA
:102B600061696C65640048656174696E67206661BF
:102B7000696C65640048656174696E6720666169A7
:102B80006C65640057726974696E6720746F2066A3
:102B9000696C653A20006F70656E206661696C65CE
:102BA000642C2046696C653A20006F70656E206663
:102BB00061696C65642C2046696C653A2000466941
:102BC0006C652073656C65637465640A00205369E5
:102BD0007A653A200046696C65206F70656E6564A1
:102BE0003A20006F70656E206661696C65642C2008
:102BF00046696C653A20002066696C653A20004E93
:102C00006F7720002220706F730022207061726540
:102C10006E743A2200535542524F5554494E452046
:102C200043414C4C207461726765743A22004B49F1
:102C30004C4C45442E2000747279696E6720746F85
:102C40002063616C6C207375622D67636F6465200F
:102C500066696C6573207769746820746F6F206D86
:102C6000616E79206C6576656C732E204D4158201D
:102C70006C6576656C2069733A00000021002400C1
:102C800027002A002D00300033000101000004015C
:102C900007010A010102102020080810204010201E
:102CA0004080020102010804020101020408102010
:102CB000408080402010080402018004020180400E
:102CC0002010080402010804020101020408102077
:102CD0004080010204081020408005050505070515
:102CE00008080808020202020A0A08080404040488
:102CF00001010101010101010303030303030303B4
:102D0000040707070C0C0C0C0C0C0C0C0202020242
:102D100006060606060606060B0B0B0B0B0B0B0B2B
:102D20001FFFFFFFFFFFFF600000000001FF4000EA
:102D300000000000FF8000000000007F83CF000043
:102D40000C303F87FF80000C301F867980000C001C
:102D50000F8C30C7838C30E78C30CFC7CC31F38CED
:102D600030DCECEC33B98C30D86C6C33198C30D04F
:102D70006C0C33198C30D86C0C33198C30DC6C0E25
:102D80003B198C30CF7C079F198C30C77C038F197F
:102D900040000000000002600000000000061FFF6D
:102DA000FFFFFFFFF82020506C616E6E6572427568
:102DB0006666657242797465733A200020467265D2
:102DC00065204D656D6F72793A2000436F6D7069B3
:102DD0006C65643A205365702031322032303137CF
:102DE0000A00207C20417574686F723A2028416C7B
:102DF000657068204F626A6563747320496E632E44
:102E00002C204C756C7A426F74204769742052658F
:102E1000706F7369746F7279290A0053657020317D
:102E200032203230313731383A33333A33320020BE
:102E30004C61737420557064617465643A2000318C
:102E40002E312E350A004D61726C696E0020536F71
:102E50006674776172652052657365740A00205745
:102E600061746368646F672052657365740A00203B
:102E700042726F776E206F75742052657365740AA5
:102E8000002045787465726E616C205265736574BC
:102E90000A00506F77657255700A0073746172741E
:102EA0000A006572726F722077726974696E6720AA
:102EB000746F2066696C650A004572726F723A0021
:102EC000456E6473746F707320256320256320251D
:102ED0006320256300205A3A0020593A0020583ACE
:102EE00000656E6473746F7073206869743A2000B3
:102EF0006563686F3A00446F6E6520736176696E32
:102F0000672066696C652E0A004D323900486F747F
:102F1000656E64206F6666736574733A00205A00AC
:102F2000205900580020204D61783A2000205A0096
:102F3000205900580020204D696E3A20004F6E2025
:102F4000004F666600536F667420656E6473746F1D
:102F500070733A2000202F0053657474696E6720E7
:102F600054726176656C20416363656C657261744F
:102F7000696F6E3A200053657474696E67205265FC
:102F8000747261637420416363656C657261746916
:102F90006F6E3A200053657474696E6720507269D1
:102FA0006E7420416363656C65726174696F6E3A1B
:102FB000200053657474696E67205072696E7420C6
:102FC000616E642054726176656C20416363656C48
:102FD00065726174696F6E3A200020643A0020695E
:102FE0003A0020703A0020643A0020693A002070CC
:102FF0003A0020440020490020204D333034205036
:103000000020440020490020204D33303120500062
:1030100020440020490020500020204D3330312032
:1030200045005049442073657474696E67733A0AA9
:103030000020460020420020480020204D31343539
:103040002053004D6174657269616C20686561741C
:10305000757020706172616D65746572733A0A00F3
:1030600020590020580020204D323138205400488B
:103070006F74656E64206F6666736574733A0A00D8
:10308000205A0020590020204D3230362058004868
:103090006F6D65206F66667365743A0A002045009F
:1030A000205A0020590020580020420020540020BF
:1030B000204D323035205300416476616E63656483
:1030C0003A20533C6D696E5F666565647261746534
:1030D0003E20543C6D696E5F74726176656C5F660C
:1030E000656564726174653E20423C6D696E5F7314
:1030F00065676D656E745F74696D655F6D733E20A5
:10310000583C6D61785F78795F6A65726B3E205AD2
:103110003C6D61785F7A5F6A65726B3E20453C6DFD
:1031200061785F655F6A65726B3E0A00205400201B
:10313000520020204D323034205000416363656CD2
:1031400065726174696F6E2028756E6974732F7370
:1031500032293A20503C7072696E745F6163636516
:103160006C3E20523C726574726163745F6163638C
:10317000656C3E20543C74726176656C5F6163637C
:10318000656C3E0A00204500205A0020590020208E
:103190004D3230312058004D6178696D756D204198
:1031A0006363656C65726174696F6E2028756E6902
:1031B00074732F7332293A0A00204500205A0020E8
:1031C000590020204D3230332058004D6178696D10
:1031D000756D206665656472617465732028756E0F
:1031E0006974732F73293A0A00204500205A002081
:1031F000590020204D3932205800537465707320D7
:1032000070657220756E69743A0A0020204D323064
:10321000302044300A0020204D32303020543120FC
:10322000440020204D323030204400204469736136
:10323000626C65640A0046696C616D656E7420732A
:10324000657474696E67733A0020204D31343920FB
:1032500043203B20556E69747320696E2043656C72
:10326000736975730A002020473231202020203BEB
:1032700020556E69747320696E206D6D0A0050725E
:10328000656865617420504C41204265640050724D
:10329000656865617420504C4120416C6C0050722F
:1032A000656865617420504C4120456E642045324C
:1032B000005072656865617420504C4120320050A6
:1032C00072656865617420504C4120456E642045EC
:1032D00031005072656865617420504C41203100A6
:1032E0005072657061726500507265686561742026
:1032F00041425320426564005072656865617420E4
:1033000041425320416C6C005072656865617420C5
:1033100041425320456E6420453200507265686515
:1033200061742041425320320050726568656174B7
:103330002041425320456E6420453100507265683B
:103340006561742041425320310050726570617292
:1033500065004D6F766520302E316D6D004D6F76B6
:103360006520316D6D004D6F76652031306D6D00DB
:103370004D6F766520617869730045787472756465
:103380006572004D6F7665205A004D6F7665205945
:10339000004D6F766520580043616E6E6F74206536
:1033A0006E746572207375626469723A2000022E31
:1033B0002E004D61696E004B494C4C45442E200057
:1033C0004B494C4C20636175736564206279204BD6
:1033D000494C4C20627574746F6E2F70696E0A00D0
:1033E0004B494C4C45442E20004B494C4C206361CA
:1033F0007573656420627920746F6F206D756368E2
:1034000020696E6163746976652074696D65202D2D
:103410002063757272656E7420636F6D6D616E648A
:103420003A200020746F6F206C6F6E67206578748F
:10343000727573696F6E2070726576656E746564FF
:103440000A0020636F6C6420657874727573696F0D
:103450006E2070726576656E7465640A00000020E7
:10346000002300260029002C002F0032000001005C
:1034700000030106010901000000C0000000000077
:103480000000000000904300008A4300007A4325BA
:10349000753A2530327500253032753A253032754F
:1034A0000025756420253032753A253032750000CC
:1034B000060900FE000000000001090008FE0000EF
:1034C00005080806000040F0C888889878100508AC
:1034D00008060000C0F88888888888F80505050671
:1034E00000012030F830200508080600002070F8A0
:1034F00020202020E00509090600FF2070A8A8B8B8
:10350000888870200509090600FFE080C0B0A8285F
:103510003028280509090600FFF8A88888888888C7
:10352000A8F8050A0A0600FE205050505088A8A8A6
:10353000887003030306000340A04000060900FE54
:10354000070192032120FFFF08FF07FF000000068C
:103550000000010707060200808080808000800351
:103560000202060105A0A00507070600005050F85A
:1035700050F850500507070600002078A07028F08A
:1035800020050707060000C0C8102040981805074E
:10359000070600006090A040A8906802030306019F
:1035A00004C040800307070601002040808080405F
:1035B00020030707060100804020202040800505E9
:1035C0000506000120A870A82005050506000120B9
:1035D00020F820200203030602FFC04080050101FD
:1035E000060003F8020202060200C0C00505050637
:1035F0000001081020408005070706000070888839
:103600008888887003070706010040C0404040409A
:10361000E0050707060000708808708080F805073D
:1036200007060000F81020100808F005070706003C
:103630000010305090F81010050707060000F880C1
:10364000F008088870050707060000708080F08881
:103650008870050707060000F808102020202005C4
:1036600007070600007088887088887005070706BD
:10367000000070888878080870020505060200C0FE
:10368000C000C0C00206060602FFC0C000C04080E5
:1036900004070706000010204080402010050303A7
:1036A000060002F800F80407070601008040201019
:1036B00020408005070706000070880810200020C1
:1036C00005070706000070880868A8A870050707A6
:1036D000060000708888F8888888050707060000BB
:1036E000F08888F08888F005070706000070888059
:1036F00080808870050707060000F0888888888821
:10370000F0050707060000F88080F08080F80507C4
:1037100007060000F88080F080808005070706001B
:1037200000708880B88888700507070600008888C0
:1037300088F88888880107070602008080808080DA
:1037400080800507070600003810101010906005F3
:1037500007070600008890A0C0A09088050707060C
:103760000000808080808080F805070706000088C0
:10377000D8A8888888880507070600008888C8A810
:1037800098888805070706000070888888888870F0
:10379000050707060000F08888F08080800507078D
:1037A00006000070888888A8906805070706000052
:1037B000F08888F0A09088050707060000788080D0
:1037C000700808F0050707060000F82020202020D8
:1037D0002005070706000088888888888870050704
:1037E000070600008888888888502005070706009B
:1037F000008888888888A850050707060000888800
:1038000050205088880507070600008888885020C7
:103810002020050707060000F80810204080F80364
:103820000707060100E08080808080E0050505062E
:1038300000018040201008030707060100E0202057
:10384000202020E005030306000420508805010124
:10385000060000F802020206020580400505050682
:10386000000070087888780507070600008080B09F
:10387000C88888F0050505060000708080887005FE
:103880000707060000080868988888780505050677
:1038900000007088F880700507070600003048E0D7
:1038A000404040400506060600FF70888878087092
:1038B0000507070600008080B0C8888888010707D0
:1038C000060200800080808080800308080601FFD7
:1038D000200020202020A040040707060000808050
:1038E00090A0C0A090030707060100C040404040E0
:1038F00040E0050505060000D0A8A8A8A805050514
:10390000060000B0C8888888050505060000708894
:103910008888700506060600FFF08888F08080051C
:1039200006060600FF788888780808050505060061
:1039300000B0C88080800505050600007080700812
:10394000F00407070600004040E040404030050515
:103950000506000088888898680505050600008827
:10396000888850200505050600008888A8A850050D
:10397000050506000088502050880506060600FF51
:10398000888888780870050505060000F810204032
:10399000F80307070601002040408040402001074F
:1039A0000706020080808080808080030707060170
:1039B00000804040204040800502020600026890DE
:1039C00000000006000000000006000000000006E5
:1039D00000000000000600000000000600000000DB
:1039E00000060000000000060000000000060000C5
:1039F00000000006000000000006000000000006B5
:103A000000000000000600000000000600000000AA
:103A10000006000000000006000000000006000094
:103A20000000000600000000000600000000000684
:103A3000000000000006000000000006000000007A
:103A40000006000000000006000000000006000064
:103A50000000000600000000000600000000000654
:103A6000000000000006000000000006000000004A
:103A70000006000000000006000000000006000034
:103A80000000000600000000000600000107070615
:103A900002008000808080808005070706000020EB
:103AA00070A8A0A87020050707060000304040E07D
:103AB0004050A8050505060000887050708805076D
:103AC00007060000885020F820F8200107070602AA
:103AD0000080808000808080050808060000304853
:103AE000205050209060030101060107A005070740
:103AF000060000F888B8B8B888F80507070600017E
:103B0000700878887800F80505050600012850A09F
:103B10005028050303060001F80808020202060205
:103B2000064080050707060000F888A88898A8F8CE
:103B3000050101060006F8040404060003609090E5
:103B4000600507070600002020F8202000F8040583
:103B50000506000360902040F0030505060003E021
:103B600020E020E002020206020640800508080666
:103B700000FF8888888898E880800507070600008D
:103B800078989878181818020202060202C0C0023B
:103B900002020602FF408003050506000340C04004
:103BA00040E0050707060001708888887000F80566
:103BB0000505060001A0502850A0050707060000D3
:103BC0008890A858B808080507070600008890B82C
:103BD00048982038050808060000C040C048D8387A
:103BE00008080507070600002000204080887005AF
:103BF00008080600004020007088F888880508083A
:103C00000600001020007088F88888050808060063
:103C1000002050007088F8888805080806000068B1
:103C200090007088F8888805080806000050007029
:103C30008888F888880508080600002050207088C9
:103C4000F888880507070600003860A0B8E0A0B82B
:103C50000508080600FF70888080887020600508CD
:103C600008060000402000F880F080F805080806EB
:103C70000000081000F880F080F805080806000031
:103C8000205000F880F080F805070706000050007B
:103C9000F880F080F8030808060100804000E0404A
:103CA0004040E0030808060100204000E04040409A
:103CB000E003080806010040A000E0404040E003A7
:103CC0000707060100A000E0404040E005070706A6
:103CD0000000704848E84848700508080600006879
:103CE000900088C8A8988805080806000040207041
:103CF0008888888870050808060000102070888869
:103D000088887005080806000020500070888888A0
:103D100070050808060000689000708888887005A3
:103D2000080806000050007088888888700505051E
:103D300006000188502050880508080600FF107012
:103D4000A8A8A8A870400508080600004020888898
:103D500088888870050808060000102088888888F0
:103D60008870050808060000205000888888887040
:103D700005080806000050008888888888700508B3
:103D80000806000010208850202020200509090680
:103D900000FFC040704848704040E0040808060139
:103DA000FF609090A09090E0800508080600004019
:103DB00020007008788878050808060000102000A8
:103DC0007008788878050808060000205000700800
:103DD00078887805080806000068900070087888E0
:103DE00078050707060000500070087888780508F5
:103DF000080600002050207008788878050606061E
:103E00000000D02878A0A8500506060600FF7080A4
:103E1000887020600508080600004020007088F8BF
:103E200080700508080600001020007088F8807077
:103E30000508080600002050007088F8807005070B
:103E40000706000050007088F8807003080806011B
:103E50000080400040C04040E00308080601002008
:103E6000400040C04040E003080806010040A000B8
:103E700040C04040E0030707060100A00040C040EA
:103E800040E0050707060000A040A01078887005F4
:103E90000808060000689000B0C8888888050808EF
:103EA0000600004020007088888870050808060019
:103EB000001020007088888870050808060000201F
:103EC0005000708888887005080806000068900017
:103ED0007088888870050707060000500070888881
:103EE00088700505050600012000F8002005070779
:103EF0000600FF1070A8A8A870400508080600007A
:103F0000402000888888986805080806000010206E
:103F100000888888986805080806000020500088F6
:103F200088889868050707060000500088888898E8
:103F3000680509090600FF102000888888F80870C5
:103F40000407070601FFC04060506040E005080814
:103F50000600FF50008888887808705A0059005879
:103F60000009200000000000000000000000000028
:103F70007FFFE00000000000000000000000007073
:103F800000E000000000000000000000000061F8F8
:103F90006000000000000000000000000041F82068
:103FA00000000000000000000000000040F02000C1
:103FB0000000000000000000000000406020000041
:103FC000000000000000000000005801A07F8000F9
:103FD0003FC0000000004104005C63A0FBC000790A
:103FE000E0000000002082005EF7A0F3C00076E051
:103FF000000000002082005EF7A0EBC0007EE00021
:104000000000004104005C63A07B80003DC0000014
:1040100000008208005801A07B80003BC000000027
:1040200001041000406020FBC00077E000000001A8
:1040300004100040F020FBC00070E000000000828F
:10404000080041F820FFC0007FE0000000004104AC
:104050000061F8603F00001F8000000000000000C9
:104060007000E01E00000F0000000001FFFF807FD5
:10407000FFE00C0000060000000001FFFF800000D0
:10408000000000000000000000000000007FFFE0D2
:104090000000000000000000000000007000E000D0
:1040A0000000000000000000000000630C60000041
:1040B00000000000000000000000470E200000008B
:1040C0000000000000000000004F0F200000000072
:1040D00000000000000000005F0FA00000000000D2
:1040E000000000000000005E07A07F80003FC000CD
:1040F000000000410400406020FBC00079E00000A7
:10410000000020820040F020F3C00076E0000000B4
:104110000020820040F020EBC0007EE000000000A4
:104120004104004060207B80003DC0000000008210
:1041300008005E07A07B80003BC000000001041067
:10414000005F0FA0FBC00077E0000000010410003A
:104150004F0F20FBC00070E0000000008208004705
:104160000E20FFC0007FE000000000410400630C4F
:10417000603F00001F80000000000000007000E0B1
:104180001E00000F0000000001FFFF807FFFE00C19
:104190000000060000000001FFFF80000000000694
:1041A0000900FE06018902FE20FFFE07FE06FE0052
:1041B00000000600070106060602008080808000DD
:1041C00080030303060103A0A0A00507070600FF64
:1041D0005050F850F850500509090600FE2070A80C
:1041E000A07028A870200608080600FF40A8481004
:1041F000204854080507070600FF609090609890DB
:10420000680103030602038080800207070602FF9D
:10421000408080808080400207070602FF80404087
:10422000404040800505050600008850F85088058C
:1042300005050600002020F820200204040602FEE6
:10424000C0404080050101060002F8020202060299
:1042500000C0C00406060601001010204080800443
:104260000606060100609090909060030606060125
:104270000040C0404040E004060606010060901087
:104280002040F0040606060100F020601010E00552
:10429000060606000010305090F8100406060601CD
:1042A00000F080E01010E00406060601006080E0E7
:1042B000909060040606060100F0101020404004B3
:1042C00006060601006090609090600406060601F4
:1042D00000609090701060020505060200C0C000EA
:1042E000C0C00207070602FEC0C000C040408005F3
:1042F000050506000018608060180503030600012C
:10430000F800F8050505060000C0300830C00407B5
:104310000706010060901060400040050606060098
:10432000007090A8B0807005060606000020508836
:10433000F88888050606060000F088F08888F004F2
:104340000606060100609080809060040606060163
:1043500000E090909090E0040606060100F080E0F6
:104360008080F0040606060100F080E08080800472
:104370000606060100609080B09060040606060103
:10438000009090F0909090030606060100E04040F7
:104390004040E0050606060000381010109060044A
:1043A000060606010090A0C0A09090040606060133
:1043B000008080808080F005060606000088D8A86E
:1043C000A8888804060606010090D0B09090900559
:1043D00006060600007088888888700406060601B4
:1043E00000E09090E080800407070601FF60909055
:1043F000D0B06010040606060100E09090E09090B6
:10440000040606060100609040209060050606063E
:104410000000F820202020200406060601009090CD
:1044200090909060040606060100909090F0606005
:104430000506060600008888A8A8D888050606068E
:104440000000885020205088050606060000888855
:1044500050202020040606060100F010204080F0C5
:10446000030606060100E080808080E00406060660
:104470000100808040201010030606060100E020A5
:10448000202020E0050303060003205088050101D9
:104490000600FEF80202020602048040040404063C
:1044A0000100709090700406060601008080E09084
:1044B00090E0040404060100708080700406060683
:1044C000010010107090907004040406010060B0A8
:1044D000C070040606060100205040E0404004067B
:1044E000060601FE6090907010600406060601004A
:1044F0008080E09090900306060601004000C040D6
:1045000040E00308080601FE200060202020A040B3
:104510000406060601008080A0C0A09003060606DF
:104520000100C040404040E0050404060000D0A85F
:10453000A888040404060100E09090900404040696
:104540000100609090600406060601FEE09090E095
:1045500080800406060601FE70909070101004041E
:1045600004060100A0D0808004040406010070C08D
:1045700030E00406060601004040E04050200404FC
:1045800004060100909090700404040601009090CD
:10459000606005040406000088A8A850040404060E
:1045A0000100906060900406060601FE90909070F5
:1045B0009060040404060100F02040F003070706A1
:1045C0000100204040804040200107070602FF8094
:1045D00080808080808003070706010080404020A3
:1045E00040408004020206010350A0FFFFFFFFFFCE
:1045F000FFFFFFFFFFFFFFFFFFFFFFFFFFFFFFFFCB
:10460000FFFFFFFFFFFFFFFFFFFFFFFF00000006B0
:1046100000070106060602008000808080800406F4
:10462000060601FF2070A0A070200507070600FF06
:10463000304840F04040F8050505060000A85088C5
:1046400050A80506060600008850F820F82001074B
:10465000070602FF80808000808080040707060133
:10466000FF708060906010E0030101060105A00664
:104670000707060000788494A4948478030505064F
:10468000010160A06000E00505050600002850A0BB
:104690005028040303060100F01010040101060174
:1046A00002F00607070600007884B4A4A484780406
:1046B0000101060105F00403030601026090600594
:1046C00007070600FF2020F8202000F80305050654
:1046D000010140A02040E0030505060101C0204083
:1046E00020C002020206020440800405050601FF04
:1046F0009090B0D08005060606000078E8E86828AB
:1047000028010101060202800202020602FE408028
:1047100003050506010140C04040E0030505060110
:104720000140A04000E0050505060000A05028500B
:10473000A00508080600FF40C04050703078100502
:1047400008080600FF40C0405068081038050808F7
:104750000600FFC0204030F0307810040707060143
:1047600000200020608090600507070600004020C0
:104770002050708888050707060000102020507020
:10478000888805070706000020502050708888059B
:104790000707060000285020507088880507070684
:1047A0000000500020507088880507070600002090
:1047B00050205070888805060606000078A0F0A0FA
:1047C000A0B80408080601FE609080809060204038
:1047D0000407070601004020F080E080F00407078E
:1047E0000601002040F080E080F004070706010089
:1047F0002050F080E080F00407070601005000F030
:1048000080E080F00307070601008040E040404060
:10481000E00307070601002040E0404040E00307B6
:104820000706010040A0E0404040E0030707060102
:1048300000A000E0404040E0050606060000704889
:10484000E848487004070706010050A090D0B090D7
:1048500090040707060100402060909090600407D4
:104860000706010020406090909060040707060151
:10487000002050609090906004070706010050A04F
:1048800060909090600407070601005000609090CF
:10489000906005050506000088502050880408082F
:1048A0000601FF1070B0B0D0D0E080040707060109
:1048B000004020909090906004070706010020407F
:1048C000909090906004070706010020509090900F
:1048D00090600407070601005000909090906005DA
:1048E0000707060000102088502020200406060636
:1048F000010080E09090E0800406060601006090D0
:10490000A0A090A00407070601004020007090902E
:1049100070040707060100204000709090700407A3
:1049200007060100205000709090700407070601F0
:104930000050A00070909070040606060100500020
:10494000709090700407070601002050207090902E
:104950007005040406000070A8B07804060606017D
:10496000FE70808070204004070706010040200090
:1049700060B0C07004070706010020400060B0C0AE
:104980007004070706010020500060B0C0700406E4
:1049900006060100500060B0C07003070706010062
:1049A000804000C04040E0030707060100204000AF
:1049B000C04040E003070706010040A000C040409F
:1049C000E0030606060100A000C04040E00407071F
:1049D0000601003060107090906004070706010027
:1049E00050A000E0909090040707060100402000CE
:1049F00060909060040707060100204000609090DE
:104A000060040707060100205000609090600407D2
:104A10000706010050A000609090600406060601A1
:104A2000005000609090600505050600002000F829
:104A3000002004040406010070B0D0E0040707065B
:104A400001004020009090907004070706010020AC
:104A500040009090907004070706010020500090DD
:104A6000909070040606060100500090909070042B
:104A700009090601FE2040009090907090600408A3
:104A8000080601FE8080E09090E08080040808061F
:104A900001FE500090909070906000002200250070
:104AA00028002B002E003100340002010000050117
:104AB00008010B0100000A0B02090C0D0E08070388
:104AC00004010000000000000000000000000000E1
:104AD00000000000000000000000000000000000D6
:104AE0001211100000000000000000000000000093
:104AF00000000000000000000000000125301D0C37
:104B0000FF24311C0BFF232F1B0AFFFF04030608A1
:104B10000202212A193F40222B1A4142033807FF83
:104B20003709FF3628294527444350726F7465635F
:104B30007465642050696E0A004D343238004D327D
:104B400034004D3233202573006175746F25692E52
:104B500067004578747275646572320045787472C6
:104B600075646572004D6F7665205A004D6F7665ED
:104B70002059004D6F766520580050726570617243
:104B8000650050726568656174204142530050723F
:104B9000656865617420504C4100436F6F6C646FB1
:104BA000776E0044697361626C6520737465707020
:104BB000657273004D38340053657420686F6D65FD
:104BC000206F666673657473004175746F20686F3B
:104BD0006D6500473238004D6F76652061786973E6
:104BE000004D61696E00205A3A0020593A00204376
:104BF0006F756E7420583A0020453A00205A3A00EA
:104C000020593A00583A0000496E697469616C692C
:104C10007A6520454550524F4D004D3530320A4D92
:104C200035303000526573746F7265206661696C4F
:104C300073616665004C6F61642073657474696E9E
:104C400067730053746F72652073657474696E675F
:104C5000730046696C616D656E74004D6F74696FA9
:104C60006E0054656D7065726174757265004D619A
:104C7000696E005072696E742061626F727465644F
:104C8000004E6F2053442063617264005072696E5D
:104C9000742066726F6D2053440053746F702070DF
:104CA00072696E7400526573756D65207072696EFD
:104CB00074005061757365207072696E7400416292
:104CC0006F7574204669726D7761726500436F6E0F
:104CD00074726F6C00507265706172650054756E0D
:104CE0006500496E666F2073637265656E00416D85
:104CF0006178204500416D6178204500416D617803
:104D0000205A00416D6178205A00416D6178205928
:104D100000416D6178205900416D61782058004153
:104D20006D6178205800412D74726176656C004188
:104D30002D74726176656C00412D726574726163C9
:104D40007400412D72657472616374004163636520
:104D50006C00416363656C004D6F74696F6E004653
:104D6000696C2E204469612E20320046696C2E2029
:104D70004469612E20320046696C2E204469612E00
:104D800020310046696C2E204469612E2031004F8D
:104D90006666004F6E20004520696E206D6D330001
:104DA000436F6E74726F6C00466C6F7720320046F2
:104DB0006C6F77203200466C6F77203200466C6F44
:104DC00077203100466C6F77203100466C6F77207A
:104DD000310046616E207370656564203100466164
:104DE0006E20737065656420310046616E207370BB
:104DF00065656420310042656400426564004E6F61
:104E00007A7A6C652032004E6F7A7A6C65203200B7
:104E10004E6F7A7A6C652031004E6F7A7A6C65201D
:104E200031005370656564005370656564005370AC
:104E3000656564004D61696E0050726568656174F6
:104E40002041425320636F6E660050726568656151
:104E50007420504C4120636F6E660046616E207373
:104E60007065656420310046616E2073706565640D
:104E700020310046616E2073706565642031004208
:104E8000656400426564004E6F7A7A6C652032007A
:104E90004E6F7A7A6C652032004E6F7A7A6C65209C
:104EA00031004E6F7A7A6C65203100436F6E7472F8
:104EB0006F6C004E6F204C696E65204E756D62659B
:104EC00072207769746820636865636B73756D2CF5
:104ED000204C617374204C696E653A200053544F26
:104EE000505045442E20005072696E7465722073D4
:104EF000746F707065642064756520746F206572CE
:104F0000726F72732E20466978207468652065720E
:104F1000726F7220616E6420757365204D39393966
:104F200020746F20726573746172742E202854652A
:104F30006D70657261747572652069732072657336
:104F400065742E20536574206974206166746572DF
:104F50002072657374617274696E67290A004E6FFE
:104F600020436865636B73756D2077697468206C86
:104F7000696E65206E756D6265722C204C6173746C
:104F8000204C696E653A2000636865636B73756DCC
:104F9000206D69736D617463682C204C617374209B
:104FA0004C696E653A20004C696E65204E756D62E5
:104FB0006572206973206E6F74204C617374204C8D
:104FC000696E65204E756D6265722B312C204C61C7
:104FD0007374204C696E653A20004D313130004DBC
:104FE0003331004D383420582059205A2045005381
:104FF000442072656164206572726F720A00446FAA
:105000006E65207072696E74696E672066696C6582
:105010000A004E414E494E495459494E46CDCCCCDA
:105020003D0AD7233C17B7D13877CC2B329595E67C
:10503000241FB14F0A000020410000C84200401C5C
:105040004620BCBE4CCA1B0E5AAEC59D7400DDF195
:10505000826E11241FBECFEFD1E2DEBFCDBF00E0D4
:105060000CBF14E0A0E0B2E0EEE6FCEF01E00BBF05
:1050700002C007900D92A231B107D9F727E1A2E152
:10508000B4E001C01D92AD34B207E1F710E5C0E510
:10509000D0E500E006C022970109FE010BBF0E9487
:1050A000B7FDCE34D10780E00807A9F70E9474A2AB
:1050B0000C9426FE0C9400002F923F924F925F9228
:1050C0006F927F928F929F92AF92BF92CF92DF9218
:1050D000EF92FF920F931F93CF93DF93CDB7DEB77D
:1050E000C45AD1090FB6F894DEBF0FBECDBF0091F0
:1050F000E11120E6029F800111240F5D114F809184
:10510000F80680FF1AC0E0EFFEE284917F013FEFD6
:10511000E31AF30A811102C0780104C00E94677883
:10512000F701F3CFD7018D917D01882319F00E94FB
:105130006778F8CF8AE00E9467781092A1061092F3
:10514000A0068FE38093F7061092F6061092F506FC
:1051500010922C0410922D0410922E0410922F0401
:10516000F80180810F5F1F4F8032D1F38E34B1F48C
:10517000818190ED980F9A3020F08D3211F08B32B2
:1051800069F43296DF0131962C9120532A30D0F306
:10519000CD01FC01019620812032D9F3F093EF0676
:1051A000E093EE067F01BFEFEB1AFB0A10816AE283
:1051B00070E0C7010E94F7FD009739F0DC011197FC
:1051C0008C918032E1F311961C921D3429F0143534
:1051D00019F0173409F0CAC0F7014E2F9F2F8191A3
:1051E0008032D9F380538A3008F0C0C01093F7069C
:1051F0002091F5063091F606E42FF92F6AE0AF0111
:105200004F5F5F4F629FC001639F900D112420810B
:1052100030E020533109820F931F218120532A301F
:1052200030F09093F6068093F5069A0103C09C0136
:10523000FA01E5CFD9012F5F3F4F4C914032D1F3B6
:105240001D34D1F48E31910591F03CF487319105F4
:1052500071F08C31910581F40AC08537910564F0B5
:105260008737910524F0803AE3E09E0729F4B09354
:10527000A106A093A0067AC01092A1061092A006E3
:10528000D090EE0641E050E0FD0131962C912223B2
:1052900009F46CC02132A1F41D3491F480329105DF
:1052A00079F4F093A106E093A00663E270E0CF01E9
:1052B0000E94F7FD009709F459C0DC011C9256C00A
:1052C0000FEB020F0A31A0F59F01F90160812F5FFA
:1052D0003F4F6032D1F320ED260F2A3040F023ED0E
:1052E000260F223020F06B3211F00C9410449F01F5
:1052F000602F70E0DB01B595A795B595A795B5959D
:10530000A795A45DBB4F07707A01002E01C0EE0C7B
:105310000A94EAF7FC90FE28FC922115310511F061
:105320002D1901C020E0DB01AE5EBB4F2C930AC0FB
:105330002091A0063091A106232B21F4B093A10661
:10534000A093A006208121542A3110F4DF019CCFC4
:10535000DF0131966C9160536A30D0F39D01F90101
:105360002F5F3F4F60816032D1F3F0CF8091F7061D
:105370008D3411F40C94FB34843511F40C94EA420E
:10538000873411F00C94F3438091F5069091F60662
:105390008430910509F48EC65CF497FF02C00C942A
:1053A0000D4420915702823091050CF011C11BC0B1
:1053B0008A35910511F40C9489344CF48A319105A5
:1053C00009F4BCC64C9709F4C0C60C940D448B3547
:1053D000910511F40C948D348C35910511F40C94D5
:1053E00092340C940D44222311F40C940D440E9429
:1053F00062C887E394E00E945EC60E9450CA809112
:10540000F80683FD94C0C0904304D0904404E0901B
:105410004504F09046042091F50D3091F60D409131
:10542000F70D5091F80DC701B6010E9493F688233D
:1054300009F47DC00091ED068091A30681113BC067
:10544000B4E00B9F800111240454194F6091510264
:1054500070915202882777FD8095982F0E9499F6C7
:105460009B01AC01F80160817181828193810E946E
:1054700093F687FF20C0C092F50DD092F60DE09212
:10548000F70DF092F80DE0EFFEE284918F010F5FCF
:105490001F4F882321F00E946778F801F6CFEDEBCB
:1054A000F1E084918F010F5F1F4F882321F00E944C
:1054B0006778F801F6CFC0904304D0904404E090A0
:1054C0004504F09046042091F50D3091F60D409181
:1054D000F70D5091F80DC701B6010E94C5FA20E002
:1054E00030E048E453E40E94ECFC181604F5C09246
:1054F000F50DD092F60DE092F70DF092F80DE0EF79
:10550000FEE284918F010F5F1F4F882321F00E94DC
:105510006778F801F6CFEEE9F1E084918F010F5F33
:105520001F4F882321F00E946778F801F6CF209161
:105530003704309138044091390450913A04609115
:10554000E90D7091EA0D8091EB0D9091EC0D0E94A8
:1055500093F681111DC020913B0430913C04409191
:105560003D0450913E046091ED0D7091EE0D8091DF
:10557000EF0D9091F00D0E9493F6811109C060919A
:1055800053027091540280915502909156021AC0B4
:105590006091A3027091A402882777FD8095982FCF
:1055A0000E9499F620915302309154024091550285
:1055B000509156020E94F8F62AE037ED43E25CE390
:1055C0000E94F8F60E94A08D0E94BDC60C940D4466
:1055D000222311F40C940D4411E0029709F010E01D
:1055E0000E9462C882E50E9409C8882309F45CC150
:1055F0000E9420C66B017C014090E90D5090EA0D9D
:105600006090EB0D7090EC0D2091ED0D3091EE0D52
:105610004091EF0D5091F00D23962CAF3DAF4EAF62
:105620005FAF23978091370490913804A09139049B
:10563000B0913A0427968CAF9DAFAEAFBFAF27971E
:1056400020913B0430913C0440913D0450913E0434
:105650002B962CAF3DAF4EAF5FAF2B9720E030E0E5
:10566000A901C701B6010E9493F6882309F408C571
:10567000A301920127966CAD7DAD8EAD9FAD2797AE
:105680000E9493F6811111C023962CAD3DAD4EAD15
:105690005FAD23972B966CAD7DAD8EAD9FAD2B97F7
:1056A0000E9493F6882309F4EBC420E030E0A901BE
:1056B000C701B6010E9493F6881F8827881F181714
:1056C00059F080E090E0A0E8BFEB6B968CAF9DAF07
:1056D000AEAFBFAF6B970AC020E030E040E85FE3B9
:1056E0006B962CAF3DAF4EAF5FAF6B97A3019201AE
:1056F00027966CAD7DAD8EAD9FAD27970E94C5FA04
:1057000063966CAF7DAF8EAF9FAF639723962CAD42
:105710003DAD4EAD5FAD23972B966CAD7DAD8EAD9F
:105720009FAD2B970E94C5FA67966CAF7DAF8EAF89
:105730009FAF679763962CAD3DAD4EAD5FAD639760
:10574000CA01B9010E94F8F64B015C0167962CADC5
:105750003DAD4EAD5FAD6797CA01B9010E94F8F645
:105760009B01AC01C501B4010E94C6FA0E9431FD43
:105770002F966CAF7DAF8EAF9FAF2F9720E030E0BC
:1057800040E05FE30E94F8F64B015C01A70196013F
:10579000C701B6010E94F8F66B017C01A5019401D6
:1057A000C501B4010E94F8F69B01AC01C701B60126
:1057B0000E94C5FA0E9431FD9B01AC016B966CAD55
:1057C0007DAD8EAD9FAD6B970E94F8F64B015C01ED
:1057D00027962CAD3DAD4EAD5FAD2797C301B2010D
:1057E0000E94C6FA20E030E040E05FE30E94F8F655
:1057F0006B017C0167966CAD7DAD8EAD9FAD6797FB
:1058000090582F962CAD3DAD4EAD5FAD2F970E94B9
:10581000A2FB9B01AC01C501B4010E94F8F69B01FB
:10582000AC01C701B6010E94C6FAA30192010E9411
:10583000C5FA6B017C012B962CAD3DAD4EAD5FAD35
:105840002B9723966CAD7DAD8EAD9FAD23970E94B7
:10585000C6FA20E030E040E05FE30E94F8F62B015A
:105860003C012F962CAD3DAD4EAD5FAD2F976396AD
:105870006CAD7DAD8EAD9FAD63970E94A2FB9B0189
:10588000AC01C501B4010E94F8F69B01AC01C30153
:10589000B2010E94C6FA23962CAD3DAD4EAD5FAD70
:1058A00023970E94C5FA14C089E40E9409C888237E
:1058B00029F00E9420C66B017C0103C0C12CD12CB1
:1058C00076018AE40E9409C88823F9F00E9420C664
:1058D0002B966CAF7DAF8EAF9FAF2B9720E030E063
:1058E000A901C701B6010E9493F681111EC020E0F4
:1058F00030E0A9012B966CAD7DAD8EAD9FAD2B97A1
:105900000E9493F6811111C0BBC320E030E0A901D1
:10591000C701B6010E9493F6882309F4B1C32B9600
:105920001CAE1DAE1EAE1FAE2B97D701C601B058E0
:1059300023968CAF9DAFAEAFBFAF23972B962CAD08
:105940003DAD4EAD5FAD2B97505827962CAF3DAF78
:105950004EAF5FAF27979C01AD01BC01CD010E9406
:10596000F8F64B015C0127962CAD3DAD4EAD5FAD19
:105970002797CA01B9010E94F8F69B01AC01C50145
:10598000B4010E94C6FA0E9431FDAB966CAF7DAFA8
:105990008EAF9FAFAB978091E90D9091EA0DA091EA
:1059A000EB0DB091EC0D63968CAF9DAFAEAFBFAF7A
:1059B0006397A7019601BC01CD010E94C6FA6B96C0
:1059C0006CAF7DAF8EAF9FAF6B972091ED0D309197
:1059D000EE0D4091EF0D5091F00D67962CAF3DAF5D
:1059E0004EAF5FAF67972B962CAD3DAD4EAD5FAD23
:1059F0002B9767966CAD7DAD8EAD9FAD67970E947E
:105A0000C6FA6F966CAF7DAF8EAF9FAF6F978091E8
:105A1000370490913804A0913904B0913A04A396C8
:105A20008CAF9DAFAEAFBFAFA3976B962CAD3DAD26
:105A30004EAD5FAD6B97BC01CD010E94C5FA6B0105
:105A40007C0120913B0430913C0440913D045091F5
:105A50003E04A7962CAF3DAF4EAF5FAFA7976F96B2
:105A60002CAD3DAD4EAD5FAD6F97A7966CAD7DADE6
:105A70008EAD9FADA7970E94C5FA4B015C01809146
:105A8000F10D9091F20DA091F30DB091F40DE3960C
:105A90008CAF9DAFAEAFBFAFE3979C01AD016091FE
:105AA0003F047091400480914104909142040E940F
:105AB000C5FA2F966CAF7DAF8EAF9FAF2F97209119
:105AC0004304309144044091450450914604AF96FC
:105AD0002CAF3DAF4EAF5FAFAF978091F50D90917A
